:100000000C94D6010C941D020C941D020C941D023C
:100010000C941D020C941D020C941D020C941D02E4
:100020000C941D020C941D020C94E61C0C94B81D3B
:100030000C941F180C941D020C941D020C941D02AC
:100040000C941D020C941D020C941D020C941D02B4
:100050000C941D020C9478180C941D020C941D0233
:100060000C941D020C941D020C941D020C941D0294
:100070000C941D020C941D020C941D020C941D0284
:100080000C941D020C941D020C941D020C941D0274
:100090000C941D020C941D020C941D020C941D0264
:1000A0000C941D020C941D020C941D02B304B304A5
:1000B000E504E50432055005640664065B05F405B5
:1000C0000506050604070407160716070D07160799
:1000D0001607160704070407120716071607120764
:1000E000251E4C1E441F4C1E441F981EBB1E441F41
:1000F000121F211F2B0014001A0008001500170002
:100100001C0018000C00120013002A002900040033
:100110001600070009000A000B000D000E000F007A
:1001200033003400E1001D001B000600190005002B
:1001300011001000360037003800E5000000E00034
:10014000E300E20001512C0028000251E600E70024
:10015000E400000001001E001F002000210022001A
:10016000230024002500260027002A0001000000AB
:1001700000000000000000005000510052004F003D
:10018000000000000100000000000000000000006E
:10019000000000000000000000000000010001005D
:1001A00001000100015101000100035101000100A3
:1001B0000100010001001E021F0220022102220292
:1001C000230224022502260227022A000100000041
:1001D00000000000000000002D002E002F02300261
:1001E00031023500010000000000000000000000A6
:1001F0002D022E022F0030003100350201000100D7
:100200000100010003510100010002510100010041
:1002100001000100010000000000000000000000DB
:1002200000000000000000000000000001000000CD
:1002300000000000000000000000000000000000BE
:1002400000000000010000000000000000000000AD
:10025000000000000000000000000000010001009C
:1002600001000100035101000100035101000100E0
:1002700001000100140343006F0072006E0065006E
:100280006C006900750073000000140359007500CC
:100290007300680061006B006F0062006F00000077
:1002A0000403090409023B00020100A0FA0904004A
:1002B0000001030101000921110100012240000792
:1002C00005810308000A0904010001030000000978
:1002D0002111010001227B000705820320000A1280
:1002E0000100020000000865320500010001020063
:1002F0000105010902A10185020901A100050919F1
:1003000001290815002501950875018102050109DB
:100310003009311581257F95027508810609381548
:1003200081257F950175088106050C0A3802158123
:10033000257F950175088106C0C005010980A101CE
:10034000850319012AB700150126B700950175101C
:100350008100C0050C0901A101850419012AA00230
:10036000150126A002950175108100C0050109063E
:10037000A101050719E029E7150025019508750178
:1003800081029501750881010507190029FF1500F3
:1003900026FF0095067508810005081901290595B5
:1003A0000575019102950175039101C011241FBECD
:1003B000CFEFDAE0DEBFCDBF04B603FE27C08091E9
:1003C000530290915402A0915502B0915602873089
:1003D000904BA740B04BD1F41092530210925402AC
:1003E000109255021092560214BE84B7877F84BFC4
:1003F0000FB6F894A89580916000886180936000A2
:10040000109260000FBEE0E0F8E3099511E0A0E073
:10041000B1E0EEEEFFE302C005900D92A838B107FF
:10042000D9F722E0A8E8B1E001C01D92A335B207D8
:10043000E1F70E9466120C94F51F0C94000081E015
:10044000089581E008950C94210208950C942502EA
:100450001F93CF93DF9300D000D01F92CDB7DEB7AC
:1004600049835A836B8330918A0189819A81311142
:1004700014C0662359F0222349F00E94A808182FBF
:10048000682F89819A810E94510803C00E947C08CC
:10049000182F69817A81812F04C00E94A808698180
:1004A0007A810F900F900F900F900F90DF91CF9166
:1004B0001F910C94C70FFC01262F4081518162814E
:1004C000738184810C94280281E00895CF93DF9397
:1004D000EC0160E00E945B02BE01DF91CF910C94C1
:1004E00026020E94D0100E94E2020C940D110C947E
:1004F000091108950E94F2060E9479022FEF84E309
:100500009CE0215080409040E1F700C000000C9436
:100510009E180F931F93CF93DF938C0161E00E948D
:100520005B02EC01B8010E9423028823F1F1B801BB
:10053000CE010E9477158823C1F1B801CE010E9437
:10054000C915882391F1B801CE010E94F4168823C1
:1005500061F1F8018281882309F1CB358DE5D80757
:10056000C1F050F4C115FCE5DF0781F0CF3DDC455B
:10057000A9F40E94B90D19C0CC35EDE5DE0761F094
:10058000CD35DD4559F40E944A0C08C00E947A021C
:100590000CC00E94530C02C00E94560CC801DF918F
:1005A000CF911F910F910C941F0280E0DF91CF91AA
:1005B0001F910F91089508950C94DB0281E0089536
:1005C0000C94DE020895CF93C82F0E94DC028C2F7A
:1005D0000E94E002CF910895CF93DF93CDB7DEB7AD
:1005E0002B970FB6F894DEBF0FBECDBF4F83588751
:1005F00069877A878B8761110E94790C9E012F5F32
:100600003F4F86E0F90111928A95E9F785E0FE01F6
:100610003796D90101900D928A95E1F789819A81E7
:100620004C815D81452B31F09F3F31F491E08F3F4C
:1006300019F403C091E001C090E090FF09C0498126
:100640005A816B817C818D819E810E94790B05C0CE
:10065000C9010E9464028111F2CF2B960FB6F89463
:10066000DEBF0FBECDBFDF91CF910895FC01808129
:1006700091810E94EA080895CF93882309F4A4C0C9
:10068000C82F8238C1F40E942A1781FD9DC069E3FA
:1006900080910001909101010E94BD170E949E0C63
:1006A0002FEF81EE94E0215080409040E1F700C0B0
:1006B000000069E319C0833801F50E942A1780FD04
:1006C00083C063E580910001909101010E94BD17F4
:1006D0000E949E0C2FEF81EE94E0215080409040CC
:1006E000E1F700C0000063E58091000190910101F5
:1006F0000E94BF17CF910C949E0C8438C1F40E94C5
:100700002A1782FD61C067E4809100019091010188
:100710000E94BD170E949E0C2FEF81EE94E02150A5
:1007200080409040E1F700C0000067E4DDCF8CEF2F
:100730008C0F813AD0F46C2F8091000190910101CF
:100740000E948717882349F06C2F809100019091B7
:1007500001010E94BF170E949E0C6C2F8091000126
:10076000909101010E94BD17C5CF80E28C0F8830A7
:1007700048F4C77081E001C0880FCA95EAF70E946B
:100780005C0CB8CFEBE5EC0FE33040F4F0E0ED5B50
:10079000FE4F808190E0CF910C944F17E8E5EC0F6D
:1007A000E73150F4F0E0EE0FFF1FEB5EFE4F80816B
:1007B0009181CF910C946517CD3E30F08C2F0E9423
:1007C000F312CF910C94C513CF910895882309F4A7
:1007D00064C0823879F40E942A1781FF5EC069E301
:1007E00080910001909101010E94BD170E949E0C12
:1007F00069E310C08338B1F40E942A1780FF4DC00E
:1008000063E580910001909101010E94BD170E9453
:100810009E0C63E580910001909101010E94BF1739
:100820000C949E0C843879F40E942A1782FF35C0FC
:1008300067E480910001909101010E94BD170E9420
:100840009E0C67E4E7CF9CEF980F913A10F4682F65
:10085000E1CF90E2980F983050F4877091E001C09A
:10086000990F8A95EAF7892F0E94620CD9CF9BE5F0
:10087000980F933020F480E090E00C944F1798E5A7
:10088000980F973120F480E090E00C9465178D3E2E
:1008900020F00E944E130C94C51308951F93CF931C
:1008A000DF93182FEB010E943C03209741F08FE962
:1008B0009FE00197F1F700C000002197F6CF812F4C
:1008C000DF91CF911F910C94E603893319F060E01A
:1008D00070E002C060E570E00C944E04882321F0C3
:1008E0000E945C0C0C949E0C0895882321F00E94B9
:1008F000620C0C949E0C0895CF92DF92EF92FF92BF
:100900000F931F93CF93DF937C01D62FC72FFC014A
:100910001281058102950F700E94310C882399F095
:10092000112389F08C2F807F803421F080E28D0F9D
:10093000883048F082E00E94EE0C0E94310C91E079
:10094000D82ED92601C0D12CCC2EC2948FE0C8223B
:100950008C2D90E08C30910508F0B6C1FC01EA5A6C
:10096000FF4F0C948C1F8C2F807FCF70882311F049
:10097000C295C07F112399F0CC2309F491C180E284
:100980008D0F883010F0D11104C08C2F0E945C0CA8
:1009900003C08C2F0E946C0C0E949E0C81C18D2F75
:1009A0000E94E603CC2309F48FC180E28D0F8830CA
:1009B00010F0D11104C08C2F0E94620C03C08C2F48
:1009C0000E94720C0E949E0C7FC18C2F807FCF7082
:1009D000803211F0C295C07FDD2319F0D130C9F00B
:1009E00022C0112371F0002341F0013031F40E9444
:1009F0007F0C8C2B0E94870C67C10E947F0C8C2B74
:100A00001DC0002319F0013009F45EC10E94940C4E
:100A100025C0112321F0063008F056C10EC0053064
:100A200008F052C11BC0112361F0002331F0F7011F
:100A3000858180FF35C18F7085838C2F0E946E0465
:100A400043C1002359F0D93309F03BC1FFEF07EE52
:100A500013E0F15000401040E1F731C18C2F0E94AB
:100A6000750432C18C2F86958695837019F081307C
:100A700061F02AC1112321F08D2F9C2F937002C0A9
:100A800080E090E00E944F1727C1112321F08D2FA5
:100A90009C2F937002C080E090E00E9465171CC1FB
:100AA0008D2F112319F00E94F31202C00E944E13E1
:100AB0000E94C51311C18C2F837009F047C011111A
:100AC00007C12D2F229526952770220F220F6D2FFB
:100AD0006F70862F90E0A0E0B0E0022E04C0880F77
:100AE000991FAA1FBB1F0A94D2F7D4FF10C04FE072
:100AF00050E060E070E004C0440F551F661F771F90
:100B00002A95D2F7409550956095709503C040E0C6
:100B100050E0BA01C695C695C3708A019B01082BA7
:100B2000192B2A2B3B2BC901B801C23049F058F4CC
:100B3000C13019F00E946707CBC00E945507C8C09A
:100B40000E947907C5C00E945307C2C0112319F043
:100B50008C2F817001C08695882309F4B9C02D2F90
:100B6000229526952770220F220F6D2F6F70862FEA
:100B700090E0A0E0B0E0022E04C0880F991FAA1FE9
:100B8000BB1F0A94D2F7D4FF10C04FE050E060E0E2
:100B900070E004C0440F551F661F771F2A95D2F7D7
:100BA000409550956095709503C040E050E0BA01C3
:100BB000C695C695C3708A019B01082B192B2A2B59
:100BC0003B2BC901B801C23049F058F4C13019F0CB
:100BD0000E942C087DC00E941A087AC00E943E081C
:100BE00077C00E948D0774C0CF70112339F08C2F0D
:100BF0000E94B3078D2F0E946E046AC08D2F0E9441
:100C000075048C2F0E94D40763C0D23F01F128F4F1
:100C1000D03F41F0D13FA1F03FC0D33FF9F0D43FE6
:100C200039F13AC0112341F0053008F04DC08C2F46
:100C30008F710E94F90748C0063008F045C0F7CF11
:100C4000112339F08C2F8F710E94B3073DC01123FF
:100C5000C9F38C2F8F710E94D40736C0112329F05D
:100C60008C2F8F710E949E072FC00E9499072CC065
:100C7000112349F0CF718C2F0E94B30763E08C2FB2
:100C80000E94D30C21C081E00E94EE0C0230E0F003
:100C900082E00E94EE0C18C0112331F0002391F283
:100CA0008D2F0E943C0310C0002399F2D93349F4E0
:100CB0001FEF27EE33E0115020403040E1F700C035
:100CC00000008D2F0E94E60388EF8C0D843020F405
:100CD0000E942A170E94E302DD20C9F00E942D0C19
:100CE00080FD15C0F70112820E94270C0E94B307F5
:100CF000C7010E94A8060E94270CDF91CF911F9187
:100D00000F91FF90EF90DF90CF900C94D407DF917C
:100D1000CF911F910F91FF90EF90DF90CF900895AA
:100D20000F931F93CF93DF93EC01688179818A81C0
:100D30000E94F5088C010E9450080E944107B801EA
:100D4000CE010E947C04DF91CF911F910F910895F5
:100D5000CF93DF93EC01988189812B813C81232BF8
:100D600031F08F3F31F481E09F3F19F403C081E0FF
:100D700001C080E080FD19C0CE010E94890281116E
:100D80000CC00E94310C882381F08A81882369F08D
:100D900082E0DF91CF910C94EE0CCE010E94900680
:100DA000CE01DF91CF910C946602DF91CF9108952F
:100DB00080E090E00E944F1780E090E00E9465176D
:100DC0000E94790C0E947C0C0E949E0C0E94F614DA
:100DD0000C94C51380910001909101010E94C117EC
:100DE0000C94D8060E94690C0C94EA06E92FE2954F
:100DF000EF704E2F50E0FA013297EE30F105B0F46B
:100E0000EE59FF4F0C948C1F803F91F018F4883EF0
:100E100068F40EC0843F51F40BC0883E48F0813F17
:100E200029F406C093FB882780F9089580E008958F
:100E300081E00895FC01808191810E94EA080E946E
:100E4000F6060895CF93DF9300D000D01F92CDB760
:100E5000DEB70F900F900F900F900F90DF91CF9112
:100E60000895CF93DF9300D000D000D0CDB7DEB788
:100E700026960FB6F894DEBF0FBECDBFDF91CF919F
:100E80000895089508950C9442070C9443070E9416
:100E900045076093AD017093AE018093AF019093CD
:100EA000B0010C94D8060C9447070F931F93009140
:100EB000AD011091AE012091AF013091B001602BD6
:100EC000712B822B932B1F910F910C9447070F933B
:100ED0001F930091AD011091AE012091AF013091AF
:100EE000B00160237123822393231F910F910C94EF
:100EF00047070F931F930091AD011091AE01209110
:100F0000AF013091B00160277127822793271F918D
:100F10000F910C9447070C9442070E948B07609333
:100F2000A9017093AA018093AB019093AC010C943A
:100F3000D80660E070E0CB010C948D070F931F93EF
:100F400041E050E060E070E08A019B0104C0000FC6
:100F5000111F221F331F8A95D2F7C901B8011F91B3
:100F60000F910C948D070F931F9341E050E060E0C8
:100F700070E004C0440F551F661F771F8A95D2F793
:100F80008091A9019091AA01A091AB01B091AC010F
:100F90008A019B01082B192B2A2B3B2BC901B80175
:100FA0001F910F910C948D070F931F9341E050E018
:100FB00060E070E004C0440F551F661F771F8A95DC
:100FC000D2F740955095609570958091A9019091C8
:100FD000AA01A091AB01B091AC018A019B01082349
:100FE00019232A233B23C901B8011F910F910C94A7
:100FF0008D070F931F9341E050E060E070E004C064
:10100000440F551F661F771F8A95D2F78091A9015B
:101010009091AA01A091AB01B091AC018A019B0112
:10102000082719272A273B27C901B8011F910F91CB
:101030000C948D070F931F930091A9011091AA01A1
:101040002091AB013091AC01602B712B822B932B43
:101050001F910F910C948D070F931F930091A9017D
:101060001091AA012091AB013091AC016023712352
:10107000822393231F910F910C948D070F931F933D
:101080000091A9011091AA012091AB013091AC010E
:1010900060277127822793271F910F910C948D074A
:1010A00008952CE0929F800D1124E82FE695E69597
:1010B000E695877051E001C0550F8A95EAF785E003
:1010C000E89FF0011124E557FE4F20E030E070E08A
:1010D0004081CB01022E02C0969587950A94E2F7D3
:1010E0008170819584278523842781932F5F3F4FCB
:1010F0002530310569F708952CE0929F800D112469
:10110000682F669566956695982F977085E0689F1D
:10111000B001112440E050E080E0FB01E40FF51F36
:10112000E557FE4F208130E0092E02C03695279505
:101130000A94E2F721703327042E01C0220F0A948B
:10114000EAF7822B4F5F5F4F4530510531F7089525
:10115000BF92CF92DF92EF92FF920F931F93CF93A4
:10116000DF938C01C090A901D090AA01E090AB015F
:10117000F090AC018091AD019091AE01A091AF01D2
:10118000B091B001C82AD92AEA2AFB2ACFE1D0E0DF
:10119000D701C6010C2E04C0B695A79597958795E3
:1011A0000A94D2F780FD04C0219790F7B12C07C0B4
:1011B000BC2EB8018C2F0E94DA0F0197A9F38B2D5A
:1011C000DF91CF911F910F91FF90EF90DF90CF9023
:1011D000BF900895CF93DF93EC010E94A808BE0151
:1011E0000E94DA0FDF91CF9108951F93CF93DF9381
:1011F000EB0190918A01992321F0CB010E94EA082A
:1012000013C0882349F0CB010E94A808182F682F2B
:10121000CE010E94510804C0CB010E947C08182F07
:10122000BE01812F0E94DA0FDF91CF911F910895A7
:101230001F93CF93DF93C091B10116E08091B2016B
:10124000C81799F0D0E01C9FF0011D9FF00D1124EC
:10125000ED54FE4F4081518162817381848195817B
:101260000E9431072196C770E9CFDF91CF911F917E
:1012700008954091E3015091E4016091E50170917E
:10128000E6018091E7019091E8010C9431070F93FA
:101290001F93CF93DF938091E80182958F7009F0BF
:1012A0005DC08091E501882309F458C08091B101A7
:1012B0001091B2016091E3017091E401C091E601E7
:1012C000D091E70191E06F3F09F090E0292F06E00F
:1012D000811709F443C0209721F07F3F21F030E0CF
:1012E00003C031E001C0322F90E030FD34C0089FD0
:1012F000F001099FF00D1124DF01AD54BE4F11968E
:101300003C911197371327C03C91361324C0129695
:101310003C91129731111FC013964D915C91149717
:101320004C1B5D0B483C5105B0F48091E8018F7077
:1013300080618093E801E854FE4F80818F70806166
:10134000808383EE91E00E94A806DF91CF911F91E8
:101350000F910C94180901968770BACFDF91CF9145
:101360001F910F9108959F92AF92BF92CF92DF92FB
:10137000EF92FF920F931F93CF93DF93CDB7DEB71A
:1013800061970FB6F894DEBF0FBECDBF8C0185E02C
:10139000F801DE011D9601900D928A95E1F7F801A2
:1013A000E2809091E3016091E4012091E6013091A7
:1013B000E7012115310531F06F3F31F481E09F3FA6
:1013C00019F403C081E001C080E0F82FF1709F2E76
:1013D00080FD3FC1F80140815181A380B48083EE3C
:1013E000C82E81E0D82EF090E501F501E21BF30B49
:1013F000FF2009F4D9C08091E801E83CF10508F02C
:1014000095C0282F207F09F052C0561313C04913EE
:1014100011C0FE2CE1100EC08F7080618093E80136
:101420000E943909C6010E94A8068091E801F801CE
:1014300085834CC1AB2831F05F3F31F481E04F3FF1
:1014400019F403C081E001C080E080FD03C081E0A9
:101450008E2502C080E090E0F82FF170FF2E80FF13
:101460001CC08091B1012091B20136E0821709F4CD
:101470000BC190E0389FF001399FF00D1124ED541D
:10148000FE4F6181561306C06081461303C062811E
:10149000E61203C001968770E9CFFE2CEE2009F416
:1014A00015C18091E80181608093E80154C0561312
:1014B00006C0491304C0E11002C0F80199C0C80178
:1014C0000E941A07882361F1EE2051F12091E80172
:1014D000822F82958F7090E0029774F08091E301E3
:1014E0009091E40198878F831986BB86AA862C8702
:1014F000CE0107960E94A80686E0F801A3EEB1E0AF
:1015000001900D928A95E1F70E9447090E943909DE
:101510000AC0561711F1C8010E941A0781112CC088
:10152000C8010E94A806FF24F394D0C0282F207F72
:1015300081F77A2DB98AA88A6E2D89890E9422079F
:1015400083EE91E00E94A80686E0F60111928A954A
:10155000E9F70E943909F12CB9C04913DCCFE11039
:10156000DACFF8018583C8010E94A80686E0F6015B
:1015700011928A95E9F7AAC0EE2091F22091E80134
:10158000822F82958F7090E002970CF4B5CF8091F6
:10159000E3019091E4019A8389831B82BD82AC822E
:1015A0002E83CE010196A6CFE83CF10508F044C099
:1015B000FE2CEE2009F4B4CF561330C049132EC0D0
:1015C0002091E80120FD21C0822F82958F70482F45
:1015D00050E041155105C9F0F80125834F30510500
:1015E00041F08F5F982F9295907F822F8F70892B7B
:1015F0008583C8010E94A80686E0F801A3EEB1E049
:1016000001900D928A95E1F73CC086E0F801A3EEC7
:10161000B1E001900D928A95E1F758C0C8010E948F
:101620001A07811169CF8091E80181608093E801F8
:10163000C8010E94A8064AC07A2DB98AA88A6E2DD0
:1016400089890E94220786E0F60111928A95E9F7BE
:1016500018C0EE2009F464CFC8010E941A07F82EC2
:10166000882309F45DCF86E0F801A3EEB1E0019094
:101670000D928A95E1F783EE91E00E9436030E9475
:1016800047090E94390922C04D875E878D859E8556
:101690000E94EA08292F22952F70223028F49F708B
:1016A00039F0811105C00BC0243028F49F7049F433
:1016B000805E883020F0C8010E94A8069F2CF92C7B
:1016C00005C0F8019581907F99F7F9CF8F2D61962C
:1016D0000FB6F894DEBF0FBECDBFDF91CF911F9143
:1016E0000F91FF90EF90DF90CF90BF90AF909F90C1
:1016F00008951F93CF93DF93CDB7DEB72C970FB626
:10170000F894DEBF0FBECDBF4F83588769877A87B5
:101710008B879C87CE0107960E94B3098823D1F05E
:101720009F8188852A853B85232B31F08F3F31F4BB
:1017300081E09F3F19F403C081E001C080E080FD9B
:1017400047C04F81588569857A858B859C850E9425
:1017500031073EC086E0FE013796DE01119601900A
:101760000D928A95E1F7FF81E8856A857B85611591
:10177000710531F0EF3F31F481E0FF3F19F403C010
:1017800081E001C080E080FD23C02091B20130E003
:10179000C9010196877099274091B10150E08417E3
:1017A0009507F1F1F983EA837D836C8396E0929F3C
:1017B000D001939FB00D1124AD54BE4FFE01319660
:1017C00001900D929A95E1F78093B2010E94180959
:1017D00016E08091B1019091B201891771F1189FC3
:1017E000C00111248D549E4F0E94B309882329F112
:1017F000E091B1011E9FF0011124ED54FE4F408194
:10180000518162817381848195810E943107809129
:10181000B10190E00196877099278093B101D9CFEB
:101820000E94F2061092B2011092B101E3EEF1E0D3
:1018300086E0DF011D928A95E9F72C960FB6F894A1
:10184000DEBF0FBECDBFDF91CF911F910895809174
:10185000E90185958595859508958091E9018770C1
:1018600008959091E901977081E009F480E008956E
:101870009091310292FB222720F9281751F080FB2A
:1018800092F99093310280913002909131020C9440
:10189000350D08958091310282FB882780F991E00F
:1018A00089270C94380C81E00C94380C80E00C945F
:1018B000380C8091F50108959091F501892B809362
:1018C000F501089580959091F50189238093F501A4
:1018D00008951092F50108959091F401892B809359
:1018E000F401089580959091F40189238093F40187
:1018F00008951092F40108951092F30108958091D3
:10190000EA01089508950C94820C0C94830C909134
:10191000310292FD08C09091EA01981721F080935E
:10192000EA010C94850C08958091EA01882329F03E
:101930001092EA0180E00C94850C0895E09100017A
:10194000F09101018091F5018083E0910001F09117
:10195000010190818091F401892B8083E091000145
:10196000F091010190818091F301892B8083809116
:10197000EA01882381F0E0910001F091010190815A
:10198000892B808380910001909101010E947B1737
:1019900081110E94940C80910001909101010C949E
:1019A00036170C94820C9091310292FD10C098E091
:1019B000899F90011124262B2093E9010E94B307EF
:1019C0008091E9018595859585950C94D10C0C94B1
:1019D000B3071092E90180E00C94D10C2091E90149
:1019E000809582238093E901982F977041F430E02D
:1019F000482F082E000C550B2417350721F4909121
:101A0000310292FF07C08595859585950E94D40780
:101A10000C94E90C08956FEF7FEF80E090E00C9458
:101A2000DF1F80E090E00E94BB1F21E0893E9E4FB7
:101A300009F020E0822F089582E090E00C94B31F1B
:101A400083E090E00C94B31FCF9384E090E00E9479
:101A5000B31FC82F82E290E00E94B31F2C2F30E00A
:101A6000A901582BCA01CF910895CF93C92F682F90
:101A700084E090E00E94C11F6C2F82E290E0CF9141
:101A80000C94C11FAB01BC018FE090E00C94D31FFC
:101A9000AB01BC0183E190E00C94D31F60E070E0E7
:101AA000CB010C94480D60E070E0CB010E94420D28
:101AB0000C944E0D69EE7EEF80E090E00E94DF1FF7
:101AC00060E082E090E00E94C11F60E083E090E06F
:101AD0000E94C11F1092AD011092AE011092AF0191
:101AE0001092B00160E084E090E00E94C11F60E0CD
:101AF00082E290E00E94C11F60E085E090E00E94D9
:101B0000C11F60E086E090E00E94C11F6FEF87E098
:101B100090E00E94C11F40E050E0BA0188E090E0F0
:101B20000E94D31F60E08DE090E00E94C11F40E062
:101B300050E0BA0188E190E00E94D31F60E087E1A5
:101B400090E00E94C11F40E050E0BA018CE190E0BB
:101B50000E94D31F60E070E080E290E00E94DF1FEF
:101B600040E050E0BA0188E190E00E94D31F0C945D
:101B7000530D0C945A0D682F8EE090E00C94C11F09
:101B80000E945D1860930302709304028093050223
:101B9000909306026093FF0170930002809301020C
:101BA00090930202089585B7806885BF85B78068E5
:101BB00085BF089581E008950C94DA0D08950C9482
:101BC000DE0D0C94DE0D0C94E10D0C94DE0D0C94E6
:101BD000E50D0C94DE0D0E94D30D86EB90E10E9482
:101BE000C2180E94E90D0C94E70D0E94DF0D0C94C1
:101BF000DE0D0E9448180E94BE110C94E30D6F92F6
:101C00007F928F929F92AF92BF92CF92DF92EF928C
:101C1000FF920F931F93CF93DF93CDB7DEB72A9731
:101C20000FB6F894DEBF0FBECDBF0E94E011811148
:101C30000E94C00D37EF832E31E0932E00E010E0BC
:101C4000C02E802F0E94F4105C01F401619071900D
:101C50004F016826792661147104B1F40F5F1F4F9C
:101C60000430110569F78FEF89838A831B820E94F4
:101C700051188160782F9D838C8349815A816B81B3
:101C80008D810E94EC023AC08091070281FD0E9482
:101C9000FD10D12CEE24E394F12CC3018E219F2161
:101CA000892B29F10E94DC0D8823A9F0DE82CF82E6
:101CB000AE20BF2081E0AB2809F480E088870E9435
:101CC00051188160782F9A8789874E815F81688556
:101CD0008A850E94EC02000F111FF801E950FE4FA7
:101CE00080819181E826F926F182E08207C0D394B1
:101CF000EE0CFF1CFCE0DF12D0CFB0CF0E94E3134C
:101D00000E942A179091F6018917D1F00E942A1794
:101D10008093F6012A960FB6F894DEBF0FBECDBFB2
:101D2000DF91CF911F910F91FF90EF90DF90CF90B7
:101D3000BF90AF909F908F907F906F900C94E30234
:101D40002A960FB6F894DEBF0FBECDBFDF91CF91BC
:101D50001F910F91FF90EF90DF90CF90BF90AF90C9
:101D60009F908F907F906F900895CF93DF930E9404
:101D7000DF0FEC01811521E5920708F045C08115C0
:101D800030E5930708F094C0883E910528F5803E21
:101D9000910508F0F8C0883A910570F4853A9105EC
:101DA00008F07CC08130910509F475C008F4E8C0E2
:101DB000049708F0E8C0E4C08F3B910508F0E0C04C
:101DC000C85AD0E0CC0FDD1FCA5BDE4F0990D88126
:101DD000C02DCE019464D8C0811540E2940758F418
:101DE000811551E0950708F0CEC08D3E910508F4AD
:101DF000C7C09065C9C0C11580E4D80708F4C0C049
:101E0000DF70CE01906AC0C0811525E59207A8F465
:101E1000811534E5930708F095C0811543E59407D3
:101E200008F07BC0811552E5950708F061C0D82FF6
:101E3000CC27CE01816F906AA7C0C11589E5D8076C
:101E4000A0F4C11528E5D20708F082C0C11536E517
:101E5000D30708F095C08C2F0E9473108F7190E00B
:101E6000D82FCC27CE0190628FC0C1154AE5D40788
:101E700008F474C0CE0190568115904208F080C0DD
:101E80008D2F8F710E947310DD27D0628F71AE018C
:101E9000582BCA0179C081E090E076C0C55AD0E0E5
:101EA000CC58DE4F8881C82FD0E0CE0190646CC042
:101EB00074E0969587957A95E1F7282F23703C2F4B
:101EC000337081E090E002C0880F991F3A95E2F7E5
:101ED0009C68AC01522B9A019C2F9F709695969509
:101EE00050E2959FE0011124C9018C2B9D2B4CC021
:101EF0008370992721E030E002C0220F331F8A95BA
:101F0000E2F79C2F9695969580E2989FE001112428
:101F1000C22BD32BCE019C6837C08370992721E058
:101F200030E002C0220F331F8A95E2F79C2F96956E
:101F3000969540E2949FE0011124C22BD32BCE0151
:101F40009A6822C0D82FCC27CE01846F906A1CC01B
:101F5000DC2FCC27CE01806F906A16C08C2F8F703B
:101F60000E94731094E0D695C7959A95E1F7CF70CB
:101F7000D0E0DC2FCC27D0699E01282BC90104C0FA
:101F800080E090E001C0CE01DF91CF91089520E381
:101F9000829FC0011124FC012CE0729FE00DF11D15
:101FA0001124E60FF11DEE0FFF1FEC50FF4F85913E
:101FB000949108950E94C70F0E94B50E089582382B
:101FC000910569F1B0F48133910509F46DC048F4CD
:101FD0008932910509F463C08A32910509F469C018
:101FE00008958533910509F455C089339105B9F0F9
:101FF0000895833E910569F138F4803E9105B1F072
:10200000823E910509F10895863E9105A9F1873E2A
:102010009105B9F1843E910509F064C023C0209177
:10202000300220FD4FC021FD4DC008958091300247
:1020300080FD44C08091310280FF44C08091300215
:1020400084FD42C083EE4DC08091300282FF38C0D3
:10205000F5CF8091300282FD33C08091310280FD46
:1020600031C0ECCF8091310281FF32C080913002CB
:1020700084FD2AC087EE35C08091300283FF26C0E0
:10208000F5CF8091300283FD21C08091310281FD26
:102090001FC0ECCF8091300285FD1CC01DC0809117
:1020A000300285FD19C016C08091300286FD16C031
:1020B00017C08091300286FD13C010C089E311C0A3
:1020C00082EE0FC080EE0DC080E00BC086EE09C02E
:1020D00084EE07C089E205C085E303C08AE201C03F
:1020E00081E390E008959091300292FF0DC0282F77
:1020F0002871283019F4877F846006C0282F247146
:10210000243011F48B7F886093FF0DC0282F287135
:10211000283119F4877E846106C0282F2471243168
:1021200011F48B7E88612091310220FF0DC0382F81
:102130003871383019F4877F816006C0382F3171CB
:10214000313011F48E7F886021FF0DC0282F287157
:10215000283119F4877E816106C0282F2171213131
:1021600011F48E7E886194FD877E089580E0089545
:102170000C940B0D0E94E0118FE39CE90197F1F79D
:1021800000C000000E94E01180E00E94F41080FF77
:1021900004C00E94B8100C949E1808950C94BA10B4
:1021A0000E94110D811102C00E94B90D0E941C0DE8
:1021B000809307020E94240D909331028093300295
:1021C0000E94CE100E94200D682F70E080E090E009
:1021D0000E9453076091A9017091AA018091AB01FF
:1021E0009091AC010C948B07E82FF0E0EE0FFF1FED
:1021F000E65CFD4F808191810895089580EA8A957B
:10220000F1F7089500C008950C94FE1008950C9401
:1022100006110C9407110C9406110C940B11F894F0
:10222000E82FE295EF70F0E031A1282F2F7081E0C8
:1022300090E001C0880F2A95EAF7982F9095932394
:1022400091A392A1892B82A3789408950F931F9351
:10225000CF93DF93C3E8D1E089918F3F11F00E94C3
:102260000F1181E0C738D807B9F7C7E7D1E003E815
:1022700011E089918F3F11F00E940F110C171D077B
:10228000C1F7DF91CF911F910F910895AF92BF9247
:10229000CF92DF92EF92FF920F931F93CF93DF9332
:1022A0008C01C62FD0E0CE018D579E4F6C01DC0112
:1022B0009C919F3F09F457C0B62EF894E92FE29500
:1022C000EF70F0E081A19F7021E030E001C0220FAB
:1022D0009A95EAF7822B81A382A12095282322A335
:1022E00078940E940211E7E7F1E020E030E0E12C71
:1022F000F12C41E050E081918F3FC1F0A82FA295D1
:10230000AF70B0E090966C9170E08F70DB0102C00E
:10231000B595A7958A95E2F7A0FD08C0CA01022EDF
:1023200002C0880F991F0A94E2F702C080E090E093
:10233000E82AF92A2F5F3F4F2C303105E1F6F601EC
:1023400080818F3F11F00E940F1161E0E114F104D0
:1023500009F460E08B2D0E940411CC0FDD1FC00F2B
:10236000D11FF982E882DF91CF911F910F91FF90E9
:10237000EF90DF90CF90BF90AF9008950E9426110C
:10238000A2E3B2E011961C921E92EAE3F2E01182FF
:10239000108213961C921E92129713821282159627
:1023A0001C921E9214971582148217961C921E92EC
:1023B00016971782168284E00E942B120C947102E9
:1023C000FF920F931F93CF93DF93CDB7DEB728977C
:1023D0000FB6F894DEBF0FBECDBF8E010F5F1F4F4B
:1023E00088E0F80111928A95E9F7F12C6F2DC80168
:1023F0000E944611F394F4E0FF12F8CF48E050E059
:10240000B80182E392E00E94A61FFF24F394009794
:1024100009F4F12C892B41F088E0F801A2E3B2E045
:1024200001900D928A95E1F72F2D44E06AE372E066
:1024300082E392E00E942C120E9477028F2D289650
:102440000FB6F894DEBF0FBECDBFDF91CF911F91C5
:102450000F91FF9008950895FF920F931F93CF93CC
:10246000DF93F82E092F162FD72FC42F222349F0E0
:1024700081E080930A020E94511890930902809390
:10248000080280910A028823D9F080910802909175
:1024900009020E946918059798F0EF2DF02FA12FDF
:1024A000BD2F80E090E04C2F50E08417950734F466
:1024B000219131912D933D930196F7CF10920A020D
:1024C000DF91CF911F910F91FF9008950E94C8173F
:1024D0000E94231A0E943C1A0E944E1A0E94F50D77
:1024E000FBCF8091110280FF0BC06091070185E056
:1024F000689FB001112475956795759567952BC0F8
:1025000081FF09C06091070185E0689FB001112437
:102510007595679520C082FF07C06091070185E02F
:10252000689FB001112417C0909110029923D1F037
:1025300060910601961788F72091070185E0289F92
:1025400090011124929FA001939F500D112470E0DF
:10255000CA010E94781F6038710540F46115710549
:1025600019F406C065E070E0862F08958FE708959E
:1025700081E008958091110280FF08C060910301FD
:1025800070E0759567957595679521C081FF06C0C8
:102590006091030170E07595679519C082FF04C0D2
:1025A0006091030170E010C090910F02992399F09F
:1025B000609102019617A0F780910301899FC001E5
:1025C000112470E00E94781F6038710540F4611595
:1025D000710519F406C061E070E0862F08958FE759
:1025E000089581E008958D3E21F40E947112819535
:1025F00004C08E3E29F40E94711280931502089542
:102600008F3E21F40E947112819504C0803F29F40D
:102610000E947112809314020895893F19F40E9458
:10262000BA1205C08A3F31F40E94BA128195809394
:10263000160208958B3F21F40E94BA12819504C0BE
:102640008C3F29F40E94BA128093170208959FE0EC
:10265000980F983078F421E030E0A90102C0440FCF
:10266000551F9A95E2F7CA0190911302892B809326
:10267000130208958D3F21F48091110281600BC0F7
:102680008E3F21F480911102826005C08F3F29F4B2
:102690008091110284608093110208958D3E39F477
:1026A0009091150297FF35C01092150259C08E3EC9
:1026B00029F4909115021916BCF32BC090911402C5
:1026C0008F3E29F497FF25C01092140249C0803F25
:1026D00019F41916CCF31DC090911602893F29F404
:1026E0001916BCF4109216023BC08A3F19F497FFEA
:1026F00010C0F8CF8B3F39F49091170297FF09C0B3
:10270000109217022DC08C3F21F4909117021916D8
:10271000BCF39FE0980F983080F421E030E0A901ED
:1027200002C0440F551F9A95E2F7CA018095909117
:10273000130289238093130213C08D3F21F48091EB
:1027400011028E7F0BC08E3F21F4809111028D7F8C
:1027500005C08F3F29F4809111028B7F8093110275
:1027600080911402811106C080911502811102C06E
:102770001092100280911602811106C080911702FA
:10278000811102C010920F0208950E9451182091E9
:102790001402211104C020911502222321F09093EC
:1027A0000E0280930D0220911602211104C0209187
:1027B0001702222321F090930C0280930B0282E1F6
:1027C00092E00C944117EF92FF920F931F93CF93D7
:1027D000DF9300D000D000D0CDB7DEB786E0E2E1D5
:1027E000F2E0DE01119601900D928A95E1F7E090FA
:1027F0001402F09015020091160210911702109227
:102800001402109215021092160210921702E11093
:1028100003C0FF2009F45DC080910D0290910E026B
:102820000E946918AC0190911002992339F020910F
:10283000080130E02417350758F04BC020910901FA
:102840008AE0289F900111242417350718F041C011
:102850009F3F19F09F5F90931002EE2061F00E945D
:1028600071121E1414F09FEF01C091E0989F902DFB
:10287000112490931402FF2061F00E9471121F1422
:1028800014F09FEF01C091E0989F902D1124909338
:102890001502309114023323E1F020911502222316
:1028A000C1F045EB3403C0011124992319F0909332
:1028B000140203C081E08093140235EB2303C001AE
:1028C0001124992319F09093150203C081E080939D
:1028D0001502011103C0112309F45DC080910B02A0
:1028E00090910C020E946918AC0190910F029923FB
:1028F00039F02091040130E02417350758F04BC01F
:10290000209105018AE0289F9001112424173507A2
:1029100018F041C09F3F19F09F5F90930F02002372
:1029200061F00E94BA12101614F09FEF01C091E0FE
:10293000989F902D112490931602112361F00E940C
:10294000BA12111614F09FEF01C091E0989F902DDC
:10295000112490931702309116023323E1F0209155
:1029600017022223C1F045EB3403C001112499233F
:1029700019F09093160203C081E08093160235EBA4
:102980002303C0011124992319F09093170203C067
:1029900081E0809317028091140281110BC0809115
:1029A0001502811107C080911602811103C0809128
:1029B000170281110E94C513EB82FC820D831E83D6
:1029C00086E0FE013196A2E1B2E001900D928A9577
:1029D000E1F726960FB6F894DEBF0FBECDBFDF91AC
:1029E000CF911F910F91FF90EF900895E2E1F2E0F7
:1029F00086E0DF011D928A95E9F71092100210928D
:102A00000F021092110208950F931F93CF93DF933B
:102A1000C42FD22FFC0182818823C9F040931A026F
:102A20000E945118909319028093180280E28C0F33
:102A3000883008F057C0C77081E001C0880FCA9580
:102A4000EAF7DF91CF911F910F910C946E04809162
:102A50001A02481330C080911802909119020E9406
:102A60006918883C910538F510E21D0FCD17B9F0B3
:102A700080E28C0F883040F4C77081E001C0880F7D
:102A8000CA95EAF70E947504183028F581E09D2F59
:102A9000977001C0880F9A95EAF70E946E04802F04
:102AA0000E9465041830F0F4D77081E001C0880FEF
:102AB000DA95EAF70AC080E28C0F883098F4C77084
:102AC00081E001C0880FCA95EAF7DF91CF911F918D
:102AD0000F910C947504802FDF91CF911F910F916E
:102AE0000C946504DF91CF911F910F9108950F937E
:102AF0009C01CB01243F4CE5340731F188F4293D9A
:102B0000FCE53F07D9F02A3D4CE5340779F1283D33
:102B10003C45A9F506E221EE41EE68ED7CE52BC0CF
:102B2000263FFCE53F07E1F0A8F0273F3C4539F59B
:102B300007E225EE46EE67EF7CE51DC007E225EED5
:102B400045EE69ED7CE517C006E221EE40EE64EF4C
:102B50007CE511C007E225EE44EE65EF7CE50BC095
:102B600006E221EE42EE66EF7CE505C008E221E0D8
:102B700045EE6AED7CE50E94041580E008C0FC018A
:102B80008281882319F010921A0201C081E00F910E
:102B90000895CF93DF93EC01FB018281882309F430
:102BA0001FC1C230FCE5DF0708F41BC1C6319CE53C
:102BB000D90738F09E012B5F3C452930310508F0DC
:102BC00010C10E94240D9093310280933002C031D5
:102BD000ECE5DE0709F4C3C008F041C0C8308CE55D
:102BE000D80709F49AC0F0F4C430ECE5DE0709F424
:102BF00087C068F4C2308CE5D80709F477C0C330C9
:102C0000DC4509F0E3C080913002826076C0C630B6
:102C1000ECE5DE0709F46EC008F07BC0809130025D
:102C200088606BC0CC308CE5D80709F485C068F4A7
:102C3000CA30ECE5DE0709F474C008F079C00E94E0
:102C4000F20680913002806858C0CE308CE5D807FB
:102C500009F476C008F07FC0809130028BC0CC3F71
:102C6000ECE5DE0709F44FC018F5C3318CE5D80751
:102C700009F47DC078F4C131ECE5DE0709F473C0D6
:102C8000C231DC4509F0A2C00E94F20680913002F8
:102C90008F7733C0C5318CE5D80709F472C008F4CA
:102CA00086C0CB3FDC4509F091C0809131023EC027
:102CB000C115FDE5DF0709F45FC058F4CE3F9CE580
:102CC000D90709F444C008F43FC080913102826002
:102CD0002DC0C230FDE5DF0709F475C008F45DC002
:102CE000C330DD4509F072C080E06EC080913002D3
:102CF000816003C08091300280618093300266C0A1
:102D00008091300211C08091310282608093310243
:102D10005DC0809130028062F0CF8091300280648B
:102D2000ECCF8091300288608460E7CF8160EECF85
:102D3000809130028E7FE1CF809130028D7FDDCF98
:102D400080913002877FD9CF8091310218C0809165
:102D500031028D7FDBCF809130028F7ECECF80918C
:102D600030028F7DCACF809130028F7BC6CF809199
:102D70003002877F8B7FC1CF809131028D7F8E7F24
:102D8000C5CF8091300282FB222720F991E0922763
:102D900090FB82F990FB83F9B0CF80913102982F9C
:102DA000909591708E7F892B90FB81F9AFCF0E9417
:102DB000F2068091300287FB222720F991E09227CA
:102DC00090FB87F99ACF81E00E94BB0D8091300281
:102DD000909131020E94350D0E94F20680E001C000
:102DE00081E0DF91CF910895CF93DF9386319C45A9
:102DF00041F5EB010E94590C982F8A812091000126
:102E000030910101882379F09A7A81E009F480E019
:102E100080931B02911102C069E201C065E3C90100
:102E20000E94BD170AC080911B02811102C069E295
:102E300001C065E3C9010E94BF170E949E0C80E09B
:102E400001C081E0DF91CF9108959093210280939A
:102E500020020895E0912002F0912102309721F0A4
:102E60000190F081E02D099480E00895E091200226
:102E7000F0912102309721F00280F381E02D099436
:102E80000895E0912002F0912102309739F022E07C
:102E9000DC012C930480F581E02D099408952091A4
:102EA0001E0230911F022817390771F090931F02FC
:102EB00080931E02E0912002F0912102309721F0D0
:102EC0000680F781E02D0994089520911C0230912D
:102ED0001D022817390771F090931D0280931C0280
:102EE000E0912002F0912102309721F00084F185D9
:102EF000E02D09940895FC01329697E080E091500E
:102F000029F021912223D9F38F5FF9CF0895662309
:102F100049F0FC01329608962191621729F0E817D2
:102F2000F907D1F780E0089581E008959C01FC0144
:102F300032969FEF80E04191461789F09F3F19F448
:102F4000411101C0982F8F5F8630A9F79F3F39F05C
:102F5000F901E90FF11D97FDFA956283089508952F
:102F60009C012A5F3F4FFC014281461301C012823F
:102F7000019682179307B9F708950C9496170C944D
:102F8000B017029626E0FC0111922A95E9F7089500
:102F9000089508950C94C9170C94C917CF930E94F3
:102FA000CC170E94E0110E94CA17C0E08C2F0E942B
:102FB000F410892B29F4CF5FC430C1F780E001C041
:102FC00081E0CF9108950C94C9170C94E317809178
:102FD0004A02843049F10E94E51780E00E94E30232
:102FE0001092220220E488E190E00FB6F894A895B0
:102FF000809360000FBE2093600083B7817F846060
:1030000083BF83B7816083BF7894889583B78E7FB1
:1030100083BF0FB6F894A895809160008861809373
:103020006000109260000FBE08950C94C9170E94B2
:10303000F2060E942A170E94E3020C9415181F92B0
:103040000F920FB60F9211248F939F93AF93BF935C
:1030500080912202811113C080914202909143021B
:10306000A0914402B09145024196A11DB11D8093EB
:10307000420290934302A0934402B0934502BF9151
:10308000AF919F918F910F900FBE0F901F90189549
:1030900082E084BD93E095BD9AEF97BD80936E006A
:1030A00008952FB7F8948091420290914302A09125
:1030B0004402B09145022FBF08952FB7F894609154
:1030C00042027091430280914402909145022FBFC9
:1030D00008959C014FB7F894809142029091430269
:1030E000A0914402B09145024FBF821B930B0895FB
:1030F00078941F920F920FB60F9211248F939F9383
:10310000AF93BF938091420290914302A0914402F9
:10311000B09145020196A11DB11D8093420290938A
:103120004302A0934402B0934502BF91AF919F9197
:103130008F910F900FBE0F901F90189581E0809394
:10314000E00080E28093D8001092C9008FE19EE4F5
:103150000197F1F700C0000087E090EBDC0180935D
:10316000530290935402A0935502B09356029CE0F0
:1031700088E10FB6F894A895809360000FBE9093F5
:103180006000FFCF9093890180938801089580911A
:103190002E02089590914A02943031F580932302D3
:1031A000709325026093240282E08093E9008FEF00
:1031B0009091E800815095FD06C095ED9A95F1F744
:1031C00000008111F5CF8091E80085FF0DC040E03F
:1031D00050E063E070E083E292E00E94DA1A8091AE
:1031E000E8008E778093E8000895BC0184E00C9499
:1031F000CA18BC0183E00C94CA1822E02093E900AD
:103200002FEF3091E800215035FD06C035ED3A959D
:10321000F1F700002111F5CF2091E80025FF0BC048
:1032200040E050E066E070E00E94DA1A8091E80029
:103230008E778093E8000895CF93DF9321E0209369
:10324000E9002FEF3091E800215035FD06C035ED43
:103250003A95F1F700002111F5CF2091E80025FF04
:1032600014C0EC0140E050E068E070E00E94DA1A1F
:103270008091E8008E778093E80088E0FE01A6E266
:10328000B2E001900D928A95E1F7DF91CF91089518
:1032900080914902811109C00E946B1C0E94C81CC8
:1032A0008091E20084608093E200089510924902C8
:1032B000089508950895089542E061EC81E00E9428
:1032C000E41B42E261EC82E00C94E41B80914C022E
:1032D000833009F460C030F4813071F0823009F439
:1032E00099C008958A3009F485C08B3009F46BC009
:1032F000893009F0A7C020C080914B02813A09F0C3
:10330000A1C08091E800877F8093E80080914F0200
:1033100090915002892B21F468E086E292E003C08C
:1033200060E080E090E070E00E94251B8091E80062
:103330008B778093E800089580914B02813209F0E9
:1033400081C080914F0290915002029708F07AC09C
:103350008091E800877F8093E8008091E80082FDFB
:1033600005C080914A028111F8CF6CC02091F30012
:103370008091F20090E0922B029729F48091F10065
:103380008B7F813021F48091F10080932E02809117
:10339000E8008B7753C080914B02813A09F052C00C
:1033A00080914F0290915002892B09F04BC080917F
:1033B000E800877F8093E8008091E80080FFFCCFE1
:1033C0008091140136C080914B028132D9F58091F1
:1033D0004F0290915002892BA9F58091E800877FD8
:1033E0008093E8000E94191C80914D028093140183
:1033F0000C94F20680914B02813221F58091E80015
:10340000877F8093E8000E94191C80914E02809370
:103410002F02089580914B02813AA1F48091E80037
:10342000877F8093E8008091E80080FFFCCF809147
:103430002F028093F1008091E8008E778093E8005E
:103440000C94191C089584B7877F84BF0FB6F89435
:10345000A895809160008861809360001092600060
:103460000FBE90E080E80FB6F894809361009093CF
:1034700061000FBE0C94EB0D0E946B1C0E94C81CD7
:10348000E2EEF0E080818460808378940E945D1F8A
:103490000E94F90D8AE091E00C94251780914A0270
:1034A0008530A9F480914A02853079F40E94E717AB
:1034B000809148028823B1F30E94CE17882391F3AC
:1034C0000E94C41A0E94F206EDCF0E9417180C94B5
:1034D000FF0D0C946B1A292F332723303105C9F0C7
:1034E00060F42130310581F02230310509F044C00B
:1034F0008BE390E024EA32E043C021323105E1F071
:103500002232310549F138C082E190E02FED32E0FE
:1035100037C099278130910549F028F0029761F56D
:10352000E4E7F2E005C0E0EAF2E002C0EAE8F2E037
:10353000849190E09F0124C06115710541F06130D4
:103540007105D1F489E090E02FEC32E019C089E0F8
:1035500090E026EB32E014C06115710541F0613056
:10356000710551F48BE790E021EF32E009C080E46F
:1035700090E02CE633E004C080E090E020E030E012
:10358000FA0131832083089580E189BD82E189BDFC
:1035900009B400FEFDCF8091D8008F7D8093D800C4
:1035A0008091E00082608093E0008091E00081FDE6
:1035B000FCCF0895CF92DF92EF92FF920F931F936B
:1035C000CF93DF93EC018B017A010E94381C8111AB
:1035D00033C0E114F10439F0F70180819181081BB7
:1035E000190BC80FD91FC12CD12C0115110519F1C8
:1035F0008091E80085FD16C08091E8008E77809369
:10360000E800E114F10449F0F70180819181C80ECE
:10361000D91ED182C08285E00FC00E94381C882349
:1036200021F30AC089918093F10001501109FFEF45
:10363000CF1ADF0ADACF80E0DF91CF911F910F918F
:10364000FF90EF90DF90CF9008952091510230913C
:1036500052022617370748F06115710539F4209199
:10366000E8002E772093E80001C0B901FC0120E0BA
:103670006115710579F180914A028823F1F1853055
:10368000F1F18091E80083FD3CC08091E80082FD6B
:103690002EC08091E80080FFEBCF2091F300809155
:1036A000F20090E0922B6115710551F08830910580
:1036B00038F421912093F100615071090196F3CF04
:1036C00021E0089709F020E08091E8008E77809350
:1036D000E800CECF2111CFCF0AC080914A028823C3
:1036E00061F0853061F08091E80083FD0AC080912F
:1036F000E80082FFF2CF80E0089582E0089583E041
:10370000089581E0089520915102309152022617C8
:10371000370748F06115710539F42091E8002E77DC
:103720002093E80001C0B901FC0120E0611571059A
:1037300091F180914A02882309F440C0853009F450
:103740003FC08091E80083FD3DC08091E80082FD8C
:103750002FC08091E80080FFE9CF2091F300809195
:10376000F20090E0922B6115710559F088309105B7
:1037700040F424912093F100319661507109019633
:10378000F2CF21E0089709F020E08091E8008E77E1
:103790008093E800CBCF2111CCCF0AC080914A02A0
:1037A000882361F0853061F08091E80083FD0AC0D4
:1037B0008091E80082FFF2CF80E0089582E00895D2
:1037C00083E0089581E00895982F973068F59093ED
:1037D000E900981739F07091EC002091ED005091BC
:1037E000F00003C0242F762F50E021FD02C09F5F20
:1037F000ECCF3091EB003E7F3093EB003091ED0049
:103800003D7F3093ED003091EB0031603093EB0061
:103810007093EC002093ED005093F0002091EE00A7
:1038200027FDE5CF80E008958F708093E90081E067
:10383000089580914B0287FF11C08091E80082FDBE
:1038400005C080914A028111F8CF11C08091E80033
:103850008B770BC080914A02882349F08091E80061
:1038600080FFF8CF8091E8008E778093E80008957C
:103870002091E4003091E50095E64091EC00842F22
:10388000817040FF23C08091E80080FD1DC08091C1
:103890004A02882399F0853099F08091EB0085FDEC
:1038A00011C04091E4005091E5002417350729F339
:1038B000915011F09A01E1CF84E0089582E00895DB
:1038C00083E0089581E0089580E008954091E80044
:1038D00042FFDDCF08950E94D91C0E94E11CE0EE5A
:1038E000F0E0808181608083E8EDF0E080818F7777
:1038F000808319BCA7EDB0E08C918E7F8C93808182
:103900008F7E80831092490208950F931F93CF9367
:10391000DF930E94D91C0E94E11CC8EDD0E0888191
:103920008F77888388818068888388818F7D88836A
:1039300019BC10924A02109246021092480210924C
:10394000470200EE10E0F80180818B7F8083888140
:103950008160888342E060E080E00E94E41BE1EE49
:10396000F0E080818E7F8083E2EEF0E080818160F4
:103970008083808188608083F80180818E7F80834E
:10398000888180618883DF91CF911F910F91089585
:10399000E8EDF0E080818F7E8083E7EDF0E08081CC
:1039A0008160808384E082BF81E0809349020C942F
:1039B000851CE8EDF0E080818E7F80831092E2002C
:1039C00008951092DA001092E10008951F920F926C
:1039D0000FB60F9211242F933F934F935F936F93E2
:1039E0007F938F939F93AF93BF93EF93FF938091B8
:1039F000E10082FF0BC08091E20082FF07C080914E
:103A0000E1008B7F8093E1000E945C1F8091DA00CF
:103A100080FF1FC08091D80080FF1BC08091DA001A
:103A20008E7F8093DA008091D90080FF0DC080E105
:103A300089BD82E189BD09B400FEFDCF81E080939C
:103A40004A020E94481905C019BC10924A020E94FD
:103A500056198091E10080FF19C08091E20080FF3B
:103A600015C08091E2008E7F8093E2008091E20099
:103A700080618093E2008091D80080628093D800BA
:103A800019BC85E080934A020E945A198091E10096
:103A900084FF30C08091E20084FF2CC080E189BDAA
:103AA00082E189BD09B400FEFDCF8091D8008F7DF1
:103AB0008093D8008091E1008F7E8093E100809117
:103AC000E2008F7E8093E2008091E200816080932B
:103AD000E20080914602882311F084E007C08091C3
:103AE000E30087FD02C081E001C083E080934A02C9
:103AF0000E945B198091E10083FF29C08091E20060
:103B000083FF25C08091E100877F8093E10082E000
:103B100080934A02109246028091E1008E7F80934A
:103B2000E1008091E2008E7F8093E2008091E200CC
:103B300080618093E20042E060E080E00E94E41B4C
:103B40008091F00088608093F0000E945919FF91E5
:103B5000EF91BF91AF919F918F917F916F915F9105
:103B60004F913F912F910F900FBE0F901F9018957E
:103B70001F920F920FB60F9211242F933F934F93E2
:103B80005F936F937F938F939F93AF93BF93CF93E5
:103B9000DF93EF93FF93C091E900CF708091EC0029
:103BA000D82FD17080FDD0E81092E9008091F0000C
:103BB000877F8093F00078940E94FC1D1092E900AA
:103BC0008091F00088608093F000CD2BCF70C0937F
:103BD000E900FF91EF91DF91CF91BF91AF919F915C
:103BE0008F917F916F915F914F913F912F910F90A6
:103BF0000FBE0F901F9018951F93CF93DF93CDB7F3
:103C0000DEB7AA970FB6F894DEBF0FBECDBFEBE4C8
:103C1000F2E08091F100819322E0E335F207C9F7E9
:103C20000E9466198091E80083FF2EC180914B02AB
:103C300090914C02492F50E04A30510508F024C1C0
:103C4000FA01E059FF4F0C948C1F803821F0823824
:103C500009F01AC108C08091470290914802992347
:103C600089F082600FC080914F028F70873008F01A
:103C70000BC18093E9008091EB0085FB882780F9D8
:103C80001092E9009091E800977F9093E80080936C
:103C9000F1001092F100D1C0282F2D7F09F0F4C05F
:103CA000882319F0823061F0EFC080914D0281309D
:103CB00009F0EAC0933009F080E0809348022EC0FA
:103CC00080914D0281112AC080914F028F702FEF99
:103CD000280F263008F0D8C08093E9002091EB002F
:103CE00020FF1CC0933021F48091EB00806214C04F
:103CF0009091EB0090619093EB0021E030E0A901FE
:103D000002C0440F551F8A95E2F74093EA001092D3
:103D1000EA008091EB0088608093EB001092E9004C
:103D20008091E800877F8093E8000E94191CACC056
:103D30008111AAC010914D021F778091E300807815
:103D4000812B8093E3008091E800877F8093E800D7
:103D50000E94191C8091E80080FFFCCF8091E30055
:103D600080688093E300111102C082E001C083E00B
:103D700080934A0289C08058823008F085C08091C3
:103D80004D0290914E028C3D53E0950779F583E00A
:103D90008A838AE289834FB7F894DE01139620E084
:103DA0003EE051E2E32FF0E050935700E49120FF12
:103DB00003C0E295EF703F5FEF708E2F90E0EA3026
:103DC00010F0C79601C0C0968D939D932F5F24314C
:103DD00049F74FBF8091E800877F8093E8006AE24F
:103DE00070E0CE0101960E94251B16C060914F0223
:103DF00070915002AE014F5F5F4F0E94691ABC0183
:103E0000892B09F441C09091E800977F9093E800D6
:103E100089819A810E94831B8091E8008B7780932F
:103E2000E80032C0803881F58091E800877F809378
:103E3000E800809146028093F1008091E8008E773F
:103E400072CF811121C080914D0290914E0299272D
:103E50000297D4F48091E800877F8093E8008091F6
:103E60004D02809346020E94191C809146028111E6
:103E700006C08091E30087FD02C081E001C084E0BC
:103E800080934A020E945C198091E80083FF0AC077
:103E90008091E800877F8093E8008091EB0080624A
:103EA0008093EB00AA960FB6F894DEBF0FBECDBF8D
:103EB000DF91CF911F9108950895CF9380914A0289
:103EC0008823A1F0C091E900CF709091EC00892F78
:103ED000817090FD80E8C82B1092E9008091E80085
:103EE00083FD0E94FC1DCF70C093E900CF9108951F
:103EF00097FB072E16F4009407D077FD09D00E9497
:103F0000921F07FC05D03EF4909581959F4F089530
:103F1000709561957F4F0895EE0FFF1F0590F49106
:103F2000E02D0994AA1BBB1B51E107C0AA1FBB1FB0
:103F3000A617B70710F0A61BB70B881F991F5A9535
:103F4000A9F780959095BC01CD010895FB01DC0196
:103F500004C08D910190801921F441505040C8F760
:103F6000881B990B0895F999FECF92BD81BDF89AEF
:103F7000992780B50895A8E1B0E042E050E00C94A4
:103F8000E71F262FF999FECF92BD81BDF89A0197C0
:103F900000B4021639F01FBA20BD0FB6F894FA9A91
:103FA000F99A0FBE08950396272F0E94C21F0E9400
:103FB000C11F252F0E94C21F242F0C94C21F0196DF
:103FC000272F0E94C21F0C94C11FDC01CB01FC01F2
:103FD000F999FECF06C0F2BDE1BDF89A319600B462
:0E3FE0000D9241505040B8F70895F894FFCF6D
:103FEE00EB012808641E140A321EC7181C19FD188E
:103FFE00F918F51801E200E900EA00B500B600B7BD
:10400E0000CD008301CC008A01920194012102238C
:10401E000224022502260227022A02B300B4006FF0
:10402E00007000818283E200E900EA00B500B6006C
:10403E00B700CD008301CC008A01920194012102C8
:10404E00230224022502260227022A02B300B4000C
:10405E006F007000818283F0F1F4F5F6F766363565
:08406E003497963031326700EF
:00000001FF
