:100000000C94E2050C94FF050C94FF050C943F2E14
:100010000C94FF050C94FF050C94FF050C94FF0550
:100020000C94FF050C94FF050C9458160C94791A47
:100030000C9444260C94FF050C94FF050C94FF05CA
:100040000C94FF050C94FF050C94FF050C94FF0520
:100050000C94FF050C9431170C94FF050C94FF05CC
:100060000C94FF050C94FF050C94FF050C94FF0500
:100070000C94FF050C94FF050C94FF050C94FF05F0
:100080000C94FF050C94FF050C94FF050C94FF05E0
:100090000C94FF050C94FF050C94FF050C94FF05D0
:1000A0000C94FF050C94FF050C94FF0520202020E4
:1000B0006162636465666768696A6B6C6D6E6F70B8
:1000C0007172737475767778797A31323334353664
:1000D00037383930524542545F2D3D5B5D5C233BE0
:1000E00027602C2E2F2020202B0014001A0008003F
:1000F00015001700E00004001600070009000A00C0
:10010000E1001D001B0006001900050000000000B2
:100110000000E30021522C002A00130012000C0002
:1001200018001C00340033000F000E000D000B00FF
:1001300029003800370036001000110000000000D0
:100140000000E600225228002B001E001F002000A5
:1001500021002200E000000000000000000000007C
:10016000E1000000000000000000000000000000AE
:100170000000E30001002C002A00270026002500D3
:1001800024002300000000004F00520051005000E6
:10019000000000000000000000000000000000005F
:1001A0000000E600235228002B001E021F0220023E
:1001B00021022202E0000000000000000000000018
:1001C000E10000000000000000000000000000004E
:1001D0000000E30023522C002A00270226022502F9
:1001E000240223023500310030002F002E002D00A4
:1001F0003502310230022F022E022D0200000000D3
:100200000000E60001002800007C00000000000063
:10021000000000002078237825782778000000006F
:10022000217824782678287800000000000000005B
:100230000000E30001002C000000000000000000AE
:1002400000000000000000000000000000000000AE
:10025000000000000000000000000000000000009E
:100260000000E6000100280000DA0281FFD9F1DB7E
:1002700020A4A62EAF00A0C0D30000A1C8D30000C8
:10028000AED580A81F408D1420001E0F0500047FEE
:100290003F1F643214643214783C1E1E140A055544
:1002A0006E6465660041646A7573740052616973B7
:1002B00065004C6F7765720044656661756C74000B
:1002C0004C617965723A20003A002C206B0078006E
:1002D000808182838485868788898A8B8C8D8E8FA6
:1002E0009091929394A0A1A2A3A4A5A6A7A8A9AA1D
:1002F000ABACADAEAFB0B1B2B3B4C0C1C2C3C4C594
:10030000C6C7C8C9CACBCCCDCECFD0D1D2D3D400EA
:1003100000010101010101010101020202020202C8
:10032000020202030303030303030304040404049B
:100330000404050505050506060606060707070762
:100340000708080808090909090A0A0A0B0B0B0C17
:100350000C0C0D0D0D0E0E0E0F0F0F1010111111B4
:100360001212131314141515161617171818191935
:100370001A1A1B1B1C1D1D1E1E1F2020212222239A
:100380002424252626272829292A2B2C2D2D2E2FDB
:1003900030313232333435363738393A3B3C3D3EF2
:1003A0003F404142434445464748494A4C4D4E4FE1
:1003B00050515354555658595A5B5D5E5F616264A3
:1003C000656668696B6C6D6F7072737577787A7B30
:1003D0007D7E8082838587888A8C8E8F9193959687
:1003E000989A9C9EA0A2A3A5A7A9ABADAFB1B3B5A7
:1003F000B7BABCBEC0C2C4C6C9CBCDCFD1D4D6D883
:10040000DBDDDFE2E4E7E9EBEEF0F3F5F8FAFDFF20
:10041000FFAA7F55402223252628292A2C2D2F305C
:1004200032333536383A3B3D3E4042434547494AF0
:100430004C4E5051535557595A5C5E606264666821
:10044000696B6D6F71737577797B7D7F818385872C
:10045000898A8C8E90929496989A9C9E9FA1A3A52F
:10046000A7A8AAACAEAFB1B3B4B6B8B9BBBCBEBF57
:10047000C1C2C3C5C6C7C9CACBCCCDCED0D1D2D2DA
:10048000D3D4D5D6D7D7D8D9D9DADADBDBDBDCDCE5
:10049000DCDCDCDDDDDDDDDCDCDCDCDCDBDBDBDA9D
:1004A000DAD9D9D8D7D7D6D5D4D3D2D2D1D0CECD08
:1004B000CCCBCAC9C7C6C5C3C2C1BFBEBCBBB9B815
:1004C000B6B4B3B1AFAEACAAA8A7A5A3A19F9E9C9A
:1004D0009A98969492908E8C8A89878583817F7D65
:1004E0007B79777573716F6D6B6968666462605E46
:1004F0005C5A5957555351504E4C4A49474543420F
:10050000403E3D3B3A3836353332302F2D2C2A29A8
:10051000282625232200AF00AE05010902A101858E
:10052000020901A1000509190129081500250195F5
:1005300008750181020501093009311581257F9572
:10054000027508810609381581257F950175088196
:1005500006050C0A38021581257F9501750881066C
:10056000C0C005010980A101850319012AB7001542
:100570000126B700950175108100C0050C0901A185
:1005800001850419012AA002150126A00295017512
:10059000108100C005010906A1018506050719E0C3
:1005A00029E7150025019508750181020507190045
:1005B00029EF1500250195F0750181020508190143
:1005C0002905950575019102950175039101C005F5
:1005D000010906A101050719E029E7150025019584
:1005E0000875018102950175088101050719002927
:1005F000FF150026FF009506750881000508190102
:1006000029051500250195057501910295017503D0
:100610009101C009023B00020100A0FA0904000098
:100620000103010100092111010001224400070515
:1006300081030800010904010001030000000921F1
:100640001101000122B600070582032000011201FA
:1006500000020000000853460100010001020001F1
:100660000C0343006F0072006E0065000000100371
:1006700066006F006F007300740061006E00000080
:10068000040309040000000000003E5B4F5B3E00D5
:100690003E6B4F6B3E001C3E7C3E1C00183C7E3C7B
:1006A00018001C577D571C001C5E7F5E1C00001844
:1006B0003C180000FFE7C3E7FF0000182418000003
:1006C000FFE7DBE7FF0030483A060E0026297929CC
:1006D0002600407F05050700407F05253F005A3C66
:1006E000E73C5A007F3E1C1C0800081C1C3E7F0093
:1006F00014227F2214005F5F005F5F0006097F0104
:100700007F00006689956A0060606060600094A266
:10071000FFA2940008047E04080010207E20100030
:1007200008082A1C0800081C2A0808001E101010BF
:1007300010000C1E0C1E0C0030383E383000060E27
:100740003E0E060000000000000000005F000000F8
:10075000000700070000147F147F1400242A7F2A5A
:100760001200231308646200364956205000000826
:1007700007030000001C224100000041221C000071
:100780002A1C7F1C2A0008083E08080000807030E0
:100790000000080808080800000060600000201041
:1007A000080402003E5149453E0000427F400000DF
:1007B0007249494946002141494D33001814127FBE
:1007C00010002745454539003C4A4949310041213F
:1007D00011090700364949493600464949291E0092
:1007E0000000140000000040340000000008142243
:1007F00041001414141414000041221408000201D2
:10080000590906003E415D594E007C1211127C00D0
:100810007F49494936003E41414122007F414141E3
:100820003E007F49494941007F09090901003E41D5
:10083000415173007F0808087F0000417F4100009C
:100840002040413F01007F08142241007F4040408A
:1008500040007F021C027F007F0408107F003E41A1
:1008600041413E007F09090906003E4151215E00D9
:100870007F091929460026494949320003017F01B1
:1008800003003F4040403F001F2040201F003F40EA
:1008900038403F0063140814630003047804030025
:1008A0006159494D4300007F414141000204081055
:1008B0002000004141417F00040201020400404049
:1008C00040404000000307080000205454784000D6
:1008D0007F2844443800384444442800384444289D
:1008E0007F0038545454180000087E090200182470
:1008F000241C78007F080404780000447D40000038
:100900002040403D00007F102844000000417F400F
:1009100000007C04780478007C08040478003844E3
:10092000444438007C1824241800182424187C001F
:100930007C080404080048545454240004043F4430
:1009400024003C4040207C001C2040201C003C40F7
:1009500030403C004428102844004C9090907C008B
:100960004464544C44000008364100000000770005
:1009700000000041360800000201020402003C268B
:1009800023263C00000000000000000000000000E2
:1009900000000000C0E0F0F8F81800C0F0FCFEFF16
:1009A000FFFFFFFFFFFF7E000000000000000000CF
:1009B00080C0E0E0E0E0E0E0E0E0C08000000000B7
:1009C00080C0E0E0E0E0E0E0E0E0C080000000E0C7
:1009D000E0C0C0E0E0E0E00000E0E0C0C0E0E0E057
:1009E000E0E0C0800000000080C0E0E0E0E0E0E087
:1009F000E0E0C080000000000000000000000000F7
:100A00000000E0F0F0F0E0ECEEF7F37020007C7C0A
:100A10007C7E007E7E7E7F7F7F000080C0E07E5BEC
:100A20004F5BFEC00000C000DCD7DEDEDED7DC009E
:100A3000C0000000000000000000000000000000F6
:100A400000000000000000000000000000F8FCFEB4
:100A5000FFE000FFFFFFFFFFFF80FFFFFFFFFFFF43
:100A6000FFFFFF1F0701000000000000000000FF63
:100A7000FFFF8100000000000081C3C3C30000FF2E
:100A8000FFFF8100000000000081FFFFFF0000FF6A
:100A9000FFFF01000000000000FFFFFF0100000059
:100AA0000001FFFFFF0000FFFFFF9D1C1C1C1C1C22
:100AB0001C9DDFDFDF0000000000000000000000E0
:100AC00000000F1F3F7F7F7F7F7F3F1E0C001F1F97
:100AD0001F3F003F3F3F7F7F7F00307B7F7830208C
:100AE0002030787F3B0003000F7F0F0F0F7F0F0038
:100AF00003000000000000000000000000000000F3
:100B000000000000000000000000000000030F1FB4
:100B10003F3F3F3F1F1F3F3F7F7F7F3F3F1F3F7F45
:100B20007F7F7F7C7878381C0F0000000000000079
:100B30000103070707070707070703010000000075
:100B4000010307070707070707070301000000075E
:100B50000707000000000000000707070000000072
:100B60000000070707000000010307070707070742
:100B70000707030100000000000000000000000063
:100B80000000000000000000000000000000000065
:100B90000000000000000000000000000000000055
:100BA0000000000000000000000000000000000045
:100BB0000000000000000000000000000000000035
:100BC0000000000011241FBECFEFDAE0DEBFCDBF72
:100BD00027E0A6ECB1E001C01D92AA30B207E1F710
:100BE00011E0A0E0B1E0E0E7F3E602C005900D926D
:100BF000A63CB107D9F70E946B260C9462310C9485
:100C00000000482F2091FB049091C20457E0291363
:100C100002C080E0089530E0529FF001539FF00D34
:100C20001124ED53FB4F8181681306C08081481366
:100C300003C085818111EECF2F5F3F4F2770E7CF33
:100C4000FC01AC014C5F5F4F8FEF91E32191822754
:100C500028E030E087FF09C0880F8927215031093B
:100C6000C9F7E417F50791F70895880FF7CFE8ED76
:100C7000F0E080818E7F80831092E2001092DA0093
:100C80001092E100A0EEB0E08C9181608C938081A5
:100C90008F77808319BCA7EDB0E08C918E7F8C9309
:100CA00080818F7E80831092AB0408952091E400B0
:100CB0003091E50095E6A9012091EC00822F81702A
:100CC00020FF06C08091E80080FF06C080E0089504
:100CD0002091E80022FD1AC08091B804882389F091
:100CE000853089F08091EB0085FD0FC02091E400F4
:100CF0003091E50042175307F9F29150E1F684E094
:100D0000089582E0089583E0089581E00895809138
:100D1000BA0487FF13C08091E80082FF06C080916B
:100D2000E8008B778093E80004C08091B8048111BB
:100D3000F2CF08958091B8048823D9F38091E80018
:100D400080FFF8CF8091E8008E77ECCF982F9093BA
:100D5000E900242F762F50E0891731F07091EC00D4
:100D60002091ED005091F00021FD07C09F5F97306A
:100D700071F78093E90081E008953091EB003E7FA8
:100D80003093EB003091ED003D7F3093ED003091DA
:100D9000EB0031603093EB007093EC002093ED009A
:100DA0005093F0002091EE0027FDE0CF80E0089501
:100DB000B0E0A0E0EEEDF6E00C94792FC8EDD0E0C5
:100DC00088818F7E8883E7EDF0E080818160808379
:100DD00084E082BF81E08093AB0488818E7F88832A
:100DE00002EE10E0F80110821092DA0081EEC82EB7
:100DF000D12CF601108288818F7788838881806862
:100E0000888388818F7D888319BC1092B8041092E2
:100E1000B9041092B7041092B60490EEE92EF12CAA
:100E2000F70180818B7F808388818160888342E0A5
:100E300060E080E00E94A606F60180818E7F8083BC
:100E4000F801808181608083808188608083F701E0
:100E500080818E7F8083888180618883CDB7DEB773
:100E6000E8E00C94952FFC018091C0049091C1049E
:100E700086179707A0F06115710529F49091E80095
:100E80009E779093E80090E06115710551F49111FF
:100E900008C08091E80082FF34C080E00895BC0162
:100EA000F2CF8091B8048823C1F18530C1F18091DF
:100EB000E80083FD30C08091E80082FDEACF809198
:100EC000E80080FFE1CF8091F3002091F200382FFD
:100ED0006115710519F02830310558F091E028307E
:100EE000310509F090E02091E8002E772093E8008A
:100EF000CBCF81918093F100615071092F5F3F4FFB
:100F0000E7CF8091B804882341F0853041F080918B
:100F1000E80083FFBECF81E0089582E0089583E07A
:100F200008958091AD04089587E797E790930108AD
:100F30008093000888E19AE00FB6F894A895809312
:100F400060000FBE90936000FFCF2FB7F8946091C0
:100F5000A7047091A8048091A9049091AA042FBFBE
:100F6000089590914C019923D1F09091A40497FF9A
:100F700016C0E82FE695E695E695EE31E0F4F0E050
:100F8000E053FE4F282F277081E090E001C0880FCA
:100F90002A95EAF780959281892382830895EAEC65
:100FA000F1E09191891303C0DF0111971C9291E048
:100FB000E03DF907B1F7089590914C019923C1F0F4
:100FC0009091A40497FF14C0E82FE695E695E69566
:100FD000EE31F8F4F0E0E053FE4F877021E030E0AE
:100FE00001C0220F8A95EAF78281822B82830895BD
:100FF000AAECB1E0EFEF90E02D91821751F0EF3FB6
:1010000019F4211101C0E92F9F5F9630A9F7EF3F36
:1010100009F408950E2E000CFF0BE853FE4FE6CFA7
:10102000A3E0B0E0E6E1F8E00C947F2F2091A20469
:101030003091A30428173907A1F09093A30480935B
:10104000A204E091A004F091A104309751F024E0B3
:1010500029839B838A830084F185E02DCE0101964C
:1010600009952396E2E00C949B2FA3E0B0E0EBE31C
:10107000F8E00C947F2F20919E0430919F04281754
:101080003907A1F090939F0480939E04E091A004FF
:10109000F091A104309751F023E029839B838A8348
:1010A0000084F185E02DCE01019609952396E2E0BA
:1010B0000C949B2F80919C04882359F0E091A0040C
:1010C000F091A104309729F00190F081E02D09956D
:1010D000089580E008958091910480FD16C081FDFF
:1010E00016C082FD16C0809190048823A1F088323A
:1010F00080F428E0829FC001112468E270E00E9421
:10110000C02F862F672B39F0089582E0089584E080
:10111000089588E0089581E008958091910480FD0C
:1011200014C081FD14C082FD16C080918F048823F5
:1011300081F08E3180F420E5829FC00111246EE1A0
:1011400070E00E94C02F862F089584E1089588E200
:10115000089588E0089580E50895282F35EB23034E
:10116000C001112497FF04C080589109892F089568
:1011700080589F4FFBCFFA01811101C0FB010995F7
:1011800008950895EBECF2E01182828184608283FD
:10119000089580918104982F9C7F61F4837084600E
:1011A0008093810480918404893718F088E78093C4
:1011B000840408958C3AB0F38370886AF1CFAF92BB
:1011C000BF92DF92EF92FF920F931F93CF93DF9323
:1011D000182F062FE901493708F048E7E42FF0E01F
:1011E000E05FFC4F011110C0E4915E2F4E2F498348
:1011F000E8835A83DF91CF911F910F91FF90EF9079
:10120000DF90BF90AF900895202F30E04491D42E0E
:10121000E42EF12C56E0159FC0011124EFEFF0E011
:10122000BF010E945B2F812F90E0880F991F55E529
:10123000569FD001579FB00D11248A1B9B0B982FEE
:10124000990F890F5F01A21AB30AAE9CD001AF9C1F
:10125000B00DBE9CB00D11245B2F089F800111249E
:10126000012F11275F01A01AB10AAE9C8001AF9C2B
:10127000100DBE9C100D11245F01A81AB108A29E8A
:10128000C001A39E900DB29E900D1124892F992725
:10129000E81BF90BEE9DC001EF9D900DFE9D900D9A
:1012A0001124E92F62307105A1F050F46115710528
:1012B00009F49DCF6130710581F0EB2F512F97CF4D
:1012C0006430710569F080F06630710509F48FCFE4
:1012D000F4CFE42F4B2F592F8ACFE42F412F87CF04
:1012E000EB2F542F492F83CF4B2F5D2DE12F7FCF35
:1012F00080E00895F894E82FE295EF70F0E031A1D6
:10130000282F2F7081E090E001C0880F2A95EAF71E
:10131000982F9095932391A392A1892B82A37894DF
:1013200008950F931F9380919C04882329F00E94B5
:10133000A5071F910F9108950E94A50700917002C3
:10134000109171022091720230917302600F711F2F
:10135000821F931FEECF9091A40492FF10C041E032
:10136000282F2471243009F040E031E0282F287123
:10137000283009F030E0431711F02CE0822793FF6A
:1013800010C041E0282F2471243109F040E031E001
:10139000282F2871283109F030E0431711F02CE094
:1013A00082273091A50430FF10C051E0282F217111
:1013B000213009F050E041E0282F2871283009F051
:1013C00040E0541711F029E0822731FF10C041E0BE
:1013D000282F2171213109F040E031E0282F2871B8
:1013E000283109F030E0431711F029E0822794FDFD
:1013F000877E089582389105B9F1B0F48133910563
:1014000009F47DC048F48932910509F46DC08A322F
:10141000910509F47BC008958533910509F45FC0F7
:101420008933910509F10895833E9105D9F138F486
:10143000803E910529F1823E910579F10895863E1D
:101440009105D9F1873E910509F43EC0843E91058E
:1014500041F52091A50421FF24C08091A40484FDBE
:1014600019C087EE90E008952091A404237009F03C
:101470005AC02091A50423FF14C089E290E008958A
:101480002091A40420FD38C03091A50430FF09C08C
:1014900024FF43C090E080E008952091A40422FD41
:1014A000F7CF08952091A40422FD3AC03091A504FD
:1014B00030FD39C024FFF5CFEDCF2091A40423FFE8
:1014C000F0CF24FDE7CFCDCF2091A40423FD2EC083
:1014D0003091A50431FFEECF84EE90E00895209185
:1014E000A40425FFDECFC9CF2091A40425FD21C08F
:1014F0002091A50423FFD5CF89E390E0D2CF20919E
:10150000A40426FFCECF8AE290E008952091A4049F
:1015100026FFC7CF81E390E0089583EE90E0089521
:1015200082EE90E0089580EE90E0089586EE90E0DF
:10153000089585E390E00895972F7830B8F46630E9
:10154000A8F48430B0F470E026E0929F600D711D25
:101550001124FB0190E3899FE00DF11D1124EE0F92
:10156000FF1FE851FF4F85919491089580E090E02E
:10157000089581E0FCCF1F93CF93DF930E94FA0977
:10158000EC01C11580E5D807F0F5C11580E4D80756
:1015900008F09CC0C03ED10520F5CD3CD10508F037
:1015A00082C0C83AD10578F4C53AD10508F073C0B5
:1015B000C130D10519F1209709F1C430D105F0F4FB
:1015C000D0E0C0E01BC0C33CD105D0F7C85AD0E082
:1015D000CC0FDD1FC05BDE4F0990D881C02DD464D5
:1015E0000DC0C11580E2D80708F0D1C0C11581E057
:1015F000D80708F05AC0C83ED10510F7CE01DF91D8
:10160000CF911F910895C03682E5D80718F5C034F0
:1016100082E5D80708F06BC0C03282E5D80708F031
:101620005FC0C11582E5D80708F497C02C2F269516
:10163000269580E2289F900111248C2F8370C1E0B1
:10164000D0E002C0CC0FDD1F8A95E2F7C22BD32B6E
:10165000DD68D4CFC03A82E5D80760F4C03882E5AF
:10166000D80708F459C0CF71D0E0DC2FCC27C46F65
:10167000D06AC4CFC03C82E5D80708F462C0C03E3F
:1016800082E5D80708F09CCFDC2FCC27CC27DF7170
:10169000C06FD06AB3CFC55AD0E0C35BDE4FC881FC
:1016A000D0E0D064ABCFD065A9CF8D2F0E94AB091D
:1016B000182FCE0199270E94FA09C12FD0E0DC2F04
:1016C000CC27CC27DF71C82BD92B98CFCE019927F7
:1016D0000E94FA09CC27DF70C82BD92BD06A8ECF95
:1016E000CF71D0E0DC2FCC27C16FD06A87CF2C2FF1
:1016F00026952695277080E2289F900111248C2F33
:101700008370C1E0D0E002C0CC0FDD1F8A95E2F704
:10171000C22BD32BDC6872CF2C2F269526952770F1
:1017200080E2289F900111248C2F8370C1E0D0E0CB
:1017300002C0CC0FDD1F8A95E2F7C22BD32BDA68EB
:101740005DCF8C2F8F710E94AB09C82FD0E0DC2FAA
:10175000CC27CC27DF71D06251CF8C2F8F710E94A4
:10176000AB0955E0D695C7955A95E1F7CF70D0E013
:10177000DC2FCC27282F30E084FF05C044E0220F67
:10178000331F4A95E1F7C22BD32BD06937CF8D2F6A
:101790008F710E94AB09182FCE0199270E94FA0978
:1017A000C12FD0E0DC2FCC27CC27DF71C82BD92B61
:1017B000D2CF809590913C02982390933C0208955B
:1017C00080913C0290911302892B909112029923EF
:1017D00091F0892B90914C01992371F09091A40480
:1017E00097FF0AC09EE122ED31E040E0915040F4C5
:1017F000411110921202089596E02AEC31E0F5CFE3
:10180000F90151919F01552389F34F5FEFCF8091EB
:10181000FB049091C204981301C008958F5F8770F4
:10182000FACFB0E0A0E0E7E1FCE00C94782F7C0177
:10183000009193021091940280913D0290913E029A
:10184000082B192BCFE0D0E0CC24C394D12CBC2E94
:10185000C6010C2E02C0880F991F0A94E2F780235C
:101860009123892B49F4219790F7B12C8B2DCDB77B
:10187000DEB7E9E00C94942FB7018C2F0E949C0AEC
:101880000E94BB0A019779F3F1CFCF93DF93EC016C
:101890000E94110CBE010E949C0A0E94BB0ADF91AB
:1018A000CF910895983078F5863068F5E82FF0E00C
:1018B00086E0989FE00DF11D11249E2F977083E024
:1018C000F695E7958A95E1F7EE0FFF1FEE0FFF1FE4
:1018D000EE50FE4F50E040E080E0219130E0092ED4
:1018E00002C0369527950A94E2F721703327042E1B
:1018F00001C0220F0A94EAF7822B4F5F5F4F4430FA
:10190000510559F7089580E00895983098F586308C
:1019100088F5E82FF0E086E0989FE00DF11D112496
:101920008E2F877041E001C0440F8A95EAF783E06B
:10193000F695E7958A95E1F7EE0FFF1FEE0FFF1F73
:10194000EE50FE4F30E020E070E05191DF01119742
:10195000CB01022E02C0969587950A94E2F781701A
:1019600081958527842385278C932F5F3F4F2430D3
:10197000310559F708959093940280939302089546
:1019800021E030E002C0220F331F8A95E2F7209554
:1019900030958091930290919402822393230E9428
:1019A000BB0C0895909111028095892380931102B8
:1019B000282F277069F4891759F09091A50492FF98
:1019C00007C08695869586950E94C00C10921102DC
:1019D000089521E030E002C0220F331F8A95E2F71C
:1019E0008091930290919402822B932B0E94BB0CC6
:1019F000089590933E0280933D020895FC01248156
:101A00002223C1F0808191810E94450C92959F70A4
:101A1000963091F058F4925F9F70923058F4803F66
:101A200019F030F4883E30F481E008959A5FF4CFE5
:101A3000843FD1F380E00895883EB0F3813FD1F731
:101A4000F3CFA6E0B0E0E7E2FDE00C947E2F4983FF
:101A50005A8349815A819923A1F0222391F0CA0126
:101A60000E94110C182F682F89819A810E94850C81
:101A700069817A81812F0E949C0A2696E3E00C946A
:101A80009A2FCA010E94520C182FF2CFCF93DF93E6
:101A9000682F81E06A3019F06D3031F480E00E94E7
:101AA000D40DDF91CF910895809108079091090797
:101AB00026E0FC01A2E0B7E001900D922A95E1F743
:101AC000603E08F458C026E0FC0111922A95E9F71F
:101AD000C0910807D091090746E050E0BE0182E0BE
:101AE00097E00E9491309E0122503540892B41F1B0
:101AF000C90145E0969587954A95E1F741E050E0A8
:101B0000BA0102C0660F771F8A95E2F7CB01609198
:101B1000000570910105862B972BB9016B5F7F4FF4
:101B2000E5E076956795EA95E1F702C0440F551F09
:101B30006A95E2F7842B952B90930105809300051D
:101B40002A5F3F4F4091FF04642F70E0C9010E945B
:101B50005B2F481B463010F4240F311D211572E015
:101B6000370710F030E020E02E5F3A4F309309073E
:101B70002093080796CFF6E06F9FB00111246C57B1
:101B8000794F46E050E00E947B30A2CFCF93DF93A5
:101B9000EC01FE018491811103C0DF91CF91089582
:101BA0000E94460D2196F5CFCF93382FE09108077C
:101BB000F0910907E250F5402091FF04622F70E098
:101BC000CF010E945B2F281B822F332361F066E038
:101BD0000E94A62FC82FC15010F4CF91089580E223
:101BE0000E94460DF8CF9F01280F311D211532406C
:101BF00018F080E0F0E0E0E08E0F9F2F911D8E5FE7
:101C00009A4F9093090780930807E7CF0E94C60D6B
:101C100081E00E94D40D089580914C01882359F1F0
:101C20008091A40487FF27C00E94E00B8093D1011C
:101C300040E250E064E172E080ED91E00E9491307A
:101C4000892BC1F080E2E0EDF1E0A4E1B2E0019087
:101C50000D928A95E1F7E091A004F091A1043097EC
:101C600049F086E08093D0010480F581E02D80ED7D
:101C700091E0099508950E94E00B8093C80148E027
:101C800050E064E372E088EC91E00E949130892B8F
:101C900089F388E0E8ECF1E0A4E3B2E001900D9272
:101CA0008A95E1F7E091A004F091A104309711F337
:101CB0000280F381E02D88EC91E0DBCF882321F0D6
:101CC0000E94D90B0E940C0E0895882339F0909140
:101CD0003C02982B90933C020E940C0E08950F93A7
:101CE0001F93CF93DF938B01EA019091B804943056
:101CF00061F58093E9008FEF9091E800815095FDA8
:101D000006C095ED9A95F1F700008111F5CF80910D
:101D1000E80085FF1AC00E945606811111C080910B
:101D2000E80085FD06C08091E8008E778093E8008A
:101D3000F2CFF80181918F018093F100219779F71B
:101D40008091E8008E778093E800DF91CF911F911A
:101D50000F91089543E050E0BC0182E00E946F0EB5
:101D6000089546E050E0BC0182E00E946F0E0895A5
:101D700040E250E0BC0182E00E946F0E0895CF93D4
:101D8000DF93EC0148E050E0BC0181E00E946F0E5F
:101D900088E0FE01AEEAB4E001900D928A95E1F789
:101DA000DF91CF910895609148018091810480FF77
:101DB00020C08091470143E0849FC00111248F52CD
:101DC0009D4F539A2BB1277F3BB138605FB7F89492
:101DD000FC01649FE00DF11D1124BF016817790714
:101DE000D1F45FBF8FE594E00197F1F700C00000E8
:101DF00008958091490190914A0123E0829FF0016A
:101E00001124EF52FD4F8917A0F611821082128221
:101E10008F5F3396F8CFFC014191CF01E8E03BB9E9
:101E2000000000C047FF2BB9440F000000C000C0F5
:101E300000C02BB900C0EA9591F7D0CF0F931F9344
:101E4000CF93DF93EC0110E000E090914B019017ED
:101E5000110609F06CF40E94D30E8C8190E001967B
:101E6000817099278C83DF91CF911F910F910895F5
:101E700020914901A801420F511D9A01220F331FE1
:101E8000240F351F2F523D4F4C8160918304809168
:101E9000820496959017110651F04CF0442349F0B6
:101EA000409184040E94DF080F5F1F4FCECF442370
:101EB000B9F340E0F7CFB0E0A0E0E1E6FFE00C943A
:101EC000752FEC014C81042F10E09801D8010E947D
:101ED00053319B01AC010E941E314B015C01E0E2D9
:101EE000F0E0E01BF10BA5E5B0E0AC019B010E9426
:101EF0001E316B017C019F01DF010E94DA2F9B01E3
:101F0000AC010E9429319B01AC01280D391D4A1DED
:101F10005B1DC701B6010E943131F22E822F90E085
:101F200039E23F1520F143E0249F900111243595BB
:101F30002795122F109500E085E5E82EEF18809187
:101F40004B01081718F10E94D30E9C8181E0992360
:101F500019F0903219F48FEF809346018091460179
:101F6000890F8C83CDB7DEB7ECE00C94912F25E57B
:101F700030E0B901681B790B9B01220F331F260F3C
:101F8000371F37FFD4CF2F5F3F4FD1CF8E2D01FDAD
:101F90008F2D20914901622F600F7727771F9B01BA
:101FA000220F331F260F371F2F523D4F412F6091B5
:101FB00083040E94DF080F5FC2CFEF92FF920F935E
:101FC0001F93CF93DF93EC018C81811109C081E0D5
:101FD0008C831092CF0292E090934501809344014C
:101FE0008091490190914A0123E0829FF0011124E0
:101FF000EF52FD4F891758F110E003E060914B015B
:10200000161758F10E94D30E809144012091CF02FF
:10201000280F2093CF0290914501980F909345018E
:10202000191654F4022E000C330B40914B01415011
:10203000550B2417350734F0819580934401813086
:1020400009F41C82CDB7DEB7E6E00C94972F11821D
:10205000108212828F5F3396CDCFE12EF12C70E08B
:10206000C7010E94C02F20914901820F482F50E0E4
:102070002091CF02022E000C330BE216F306BCF0C7
:1020800020914501022E000C330B2E153F057CF0EC
:10209000809F900111242F523D4F40918404609104
:1020A0008304809182040E94DF081F5FA7CFFA019A
:1020B000EE0FFF1FE40FF51FEF52FD4F118210824C
:1020C0001282F3CFB0E0A0E0E8E6F0E10C94752FC7
:1020D000EC018A81BB24BA9480FD02C0BB24B39476
:1020E000A0904B018C81811109C081E0B81220C001
:1020F0008FEF8A0D8093CE0281E08C83F12CE12C4E
:1021000046E3942EEA14B8F00E94D30E8091CE02DA
:1021100091E0B91257C0811150C080914B0181509C
:102120008093CE021C82CDB7DEB7ECE00C94912FE9
:102130001092CE02E1CF009149010E0D1F2D111D0D
:10214000C801880F991F080F191F0F521D4FF80162
:1021500011821082128234E0C32ED12C812C809106
:10216000CE02880D87332CF1692D0E94B22F892F62
:10217000082E000C990B8E159F0591F48091840414
:102180008C9DA0018D9D500D112455954795559519
:102190004795980160918304809182040E94DF0832
:1021A0008B0CF1E0CF1AD108D1F68FEFE81AF80ABC
:1021B000A9CF87FFDDCF8A0DDBCF81508093CE0280
:1021C000BC82B1CF90E0019660914B0170E00E941B
:1021D000C02F8093CE028C83A6CFEF92FF921F93E5
:1021E000CF93DF93EC0110E0EE24EA94F12C6091A0
:1021F0004B01161770F00E94D30E9A818C8190FFCC
:1022000027C08F5F8C83DF91CF911F91FF90EF905C
:10221000089520914901422F410F5527551FCA01AA
:102220009A01220F331F280F391F2F523D4F70E0A4
:10223000C7010E94C02F962F8C8140918404609129
:102240008304199F800D11240E94DF081F5FCFCFE8
:102250008150D8CF9091810490FF0EC09091490198
:1022600020914A0133E0939FF0011124EF52FD4F7A
:10227000921718F00E94D30E0895818360834283E1
:102280009F5F3396F5CFA3E0B0E0E9E4F1E10C9471
:102290007D2F8C018091D00281110AC09E012F5F99
:1022A0003F4F48E76FEF0E94DF088A818093D0029A
:1022B000F8016481613069F08091D00240E06623CA
:1022C00061F040E0623011F44091D00280E060E0C3
:1022D00004C06091D00240E080E00E942A11F80121
:1022E000848190E0019663E070E00E94C02F8483B7
:1022F0002396E4E00C94992FA3E0B0E0E2E8F1E14A
:102300000C947F2F9091810490FF0AC09E012F5F53
:102310003F4F0E94DF084B8169818A810E942A1108
:102320002396E2E00C949B2FCF93DF93EC01E1E83E
:10233000F4E0438162818C810E947C118C818F5FEB
:102340008C83DF91CF910895CF93DF93EC01EC81E3
:10235000F0E0EB5EFB4F4491E1E8F4E062818181C3
:102360000E947C118C818F5F8C83DF91CF910895C7
:10237000B0E0A0E0EEEBF1E10C94772F7C015B0183
:102380006A0180916F0201E010E08A3010F40AE0E7
:1023900010E0C1E0D0E0B501C701F6010995811157
:1023A00004C021960C171D072CF4CDB7DEB7EAE068
:1023B0000C94932FCC9F9001CD9F300D300D1124A4
:1023C00090E080E045E34A95F1F70000019682171E
:1023D0009307C1F7E0CFB0E0A0E0E1EFF1E10C94AA
:1023E000792F6C017B0164E670E088E70E94B92CCC
:1023F0008C01E601EC0CFD1C17FD0BC0FE01849165
:1024000064E670E00E94252D8C012196CE15DF0533
:1024100099F70E949B2D81E00115110509F080E0DC
:10242000CDB7DEB7E8E00C94952F80918D049091A4
:102430008E04911103C091E089270895882369F0E3
:1024400062E070E087E195E00E94EB11811103C02A
:1024500080918D04089510928D0480918D04EBCFAE
:10246000CF93C0918D0480918E048823D1F00E9477
:10247000A507605A75418F4F9F4F609389047093F1
:102480008A0480938B0490938C04C11108C062E08D
:1024900070E085E195E00E94EB11811105C0C091CB
:1024A0008D048C2FCF91089581E080938D04F7CF18
:1024B000B0E0A0E0EEE5F2E10C94712FFC01628047
:1024C000448081E08483E5E1F4E07490E4E9F4E0A1
:1024D000E491C0918404C695C158D0E0CC0FDD1FB3
:1024E000CD2FDD27812C75E0972EAA24AA94B12C3C
:1024F00055245A94E719EE2EF12C80914B01881641
:1025000038F00E94D30ECDB7DEB7E0E10C948D2FEA
:10251000C82CD12C82E0861568F09C9CF0019D9C13
:10252000F00D1124ED58FC4F80918204808380913E
:1025300083048183411023C09C9CF0019D9CF00D7D
:102540001124ED58FC4F1382128220914901C601DB
:10255000820F911D9C01220F331F280F391F2F520C
:102560003D4F9C9CF0019D9CF00D1124ED58FC4FBB
:102570004281618180810E94DF088394BECF9C9C50
:1025800080019D9C100D11240D581C4FF801838172
:102590008823F1F081508383859DC00111246481DB
:1025A00070E00E945B2FFB01FF27EB5EFB4F8491E5
:1025B000E82FE719E59DC0011124B7010E945B2FA8
:1025C00080918404689FB0011124F8017283BDCF0B
:1025D0000E946B30B5010E94C02F8C179D070CF034
:1025E000B4CFF2E0F61598F40E946B30B5010E946A
:1025F000C02FF80180830E946B30209183042695C0
:10260000622F70E00E94C02F280FF80121839C9C4C
:10261000F0019D9CF00D1124ED58FC4F1282809129
:102620008404893C58F088EC9C9CF0019D9CF00D42
:102630001124ED58FC4F8483838387CF8431A0F726
:1026400084E1F2CFB0E0A0E0E8E2F3E10C94752F72
:1026500049015A016B017C010E94C9088401A4014F
:102660006A2D7B2D88E090E00E94DD3094014A2D98
:102670005B2DB601C70100E20E940430622F84E2A4
:1026800090E00E94CB30CDB7DEB7ECE00C94912FF8
:10269000A3E0B0E0EEE4F3E10C94782F082FE62EEF
:1026A000F42EC22E9091810490FF41C020918204AB
:1026B000281308C080918304861304C08091840489
:1026C000841729F08091CD0282608093CD02E92F9A
:1026D000E695E695AE2FB0E0A656BE4F8C9180935E
:1026E000CB029C7F943039F59E012F5F3F4F4F2DD9
:1026F0006E2D802F0E94DF084B8169818A810E94A4
:102700002A1100938204E0928304F0928404CC2086
:1027100071F0209181046091850470918604302FBE
:10272000A70180918704909188040E942213239628
:10273000E9E00C94942F823019F4F0908404E1CFF6
:102740008630A1F1893091F18931D9F6E9516E2FA6
:102750006170B62EE695F0E0E05FFB4F1491D12C4E
:1027600060914B01D61618F00E94D30ECACFD19EAD
:10277000C001112470E00E945B2F802FB11014C0A3
:10278000860F20914901622F6D0D7727771F9B01DE
:10279000220F331F260F371F2F523D4F4F2D6E2D07
:1027A0000E94DF08D394DCCF861BEBCF022FA9CF8A
:1027B000E1E8F4E0438121E1421B08F440E021E03C
:1027C000628181810E9448130895E1E8F4E0438129
:1027D00021E1420F08F44FEF21E0628181810E94E4
:1027E00048130895E1E8F4E0628121E1621B08F4F6
:1027F00060E021E0438181810E9448130895E1E86F
:10280000F4E0628121E1620F08F46FEF21E043817F
:1028100081810E9448130895E1E8F4E0818121E07C
:10282000438162818A500E9448130895E1E8F4E0F0
:10283000818121E043816281865F0E94481308956F
:1028400080918504882319F081508093850420911C
:1028500081043091820440918304509184046091FA
:1028600085047091860480918704909188040E9469
:102870002213089580918504833018F48F5F80932C
:102880008504209181043091820440918304509109
:1028900084046091850470918604809187049091EE
:1028A00088040E9422130895E1E8F4E085E0808323
:1028B00011828FEF828388E783831482ABECB2E0CE
:1028C00012968C911297836012968C93758125E0F5
:1028D00030E04FEF58E760E0868197810E94221335
:1028E00008959091A50492FB222720F9281779F0EA
:1028F00080FB92F99093A5046091A4047091A504C3
:1029000084E090E00E94E93082E00E94D20C0895B9
:10291000A4E0B0E0EEE8F4E10C947E2F4091530285
:102920005091540260915502709156022FB7F8945D
:102930008091A7049091A804A091A904B091AA0441
:102940002FBF841B950BA60BB70B11E084369105A6
:10295000A105B10570F10E9491096E5F7F4F8F4F05
:102960009F4F69837A838B839C838091150190911B
:102970001601895A9D4F4091140150E04530510590
:1029800010F044E050E0BE016F5F7F4F0E949E3028
:1029900082E090E00E94E52E182F882351F00E94DB
:1029A000A50760935302709354028093550290934D
:1029B0005602812F2496E3E00C949A2FABE0B0E00E
:1029C000E4EEF4E10C947F2F88E0E1E8F4E0DE012E
:1029D000119601900D928A95E1F78091CB0290912A
:1029E000CC02A091CD0289879A87AB872B85409135
:1029F0006B0250916C0260916D0270916E023FB754
:102A0000F8948091A7049091A804A091A904B09192
:102A1000AA043FBF841B950BA60BB70B8436910508
:102A2000A105B10510F4222319F180911D019091A7
:102A30001E01895A9D4F40911C0150E04C305105B8
:102A400010F04BE050E0BE016F5F7F4F0E949E3060
:102A500083E090E00E94E52E882369F00E94A5079C
:102A600060936B0270936C0280936D0290936E0280
:102A70001092CD0281E02B96E2E00C949B2FEF9216
:102A8000FF921F93CF93DF9300D000D00F92CDB76A
:102A9000DEB77B0190E080E00E94E52E182F8823AE
:102AA00009F46DC04091070150E04115510511F046
:102AB00041E050E06091080170910901695A7D4F31
:102AC000CE0105960E949E3040914F0250915002D7
:102AD00060915102709152022FB7F8948091A7042F
:102AE0009091A804A091A904B091AA042FBF841BBF
:102AF000950BA60BB70B84369105A105B10538F4EB
:102B000088E592E00E9420069D818917C1F181E04D
:102B100090E00E94E52E882309F458C040910F01EF
:102B200050E04530510510F044E050E06091100154
:102B300070911101695A7D4FCE0101960E949E301D
:102B400088E592E00E9420069D8189133FC00E9483
:102B5000A50760934F0270935002809351029093A7
:102B6000520289819A81AB81BC8180934B02909300
:102B70004C02A0934D02B0934E0211E00EC0809122
:102B8000580290915902A0915A02B0915B02898338
:102B90009A83AB83BC831111E4CF80914B02909157
:102BA0004C02A0914D02B0914E02F70180839183B7
:102BB000A283B383812F0F900F900F900F900F90EF
:102BC000DF91CF911F91FF90EF90089510E0E5CF36
:102BD000A8E0B0E0EEEEF5E10C947F2F66EE7EEF1C
:102BE00090E080E00E94E93060E082E090E00E94A6
:102BF000CB3081E090E090933E0280933D0261E013
:102C000083E090E00E94CB3060E074E184E090E0EB
:102C10000E94E93060E086E090E00E94CB306FEFE8
:102C200087E090E00E94CB3040E050E0BA0188E0BD
:102C300090E00E94DD3060E084E290E00E94CB30C2
:102C400060E087E190E00E94CB3060E08CE090E0B3
:102C50000E94CB3060E08DE090E00E94CB30198282
:102C60001A821B821C821D821E821F82188648E0E7
:102C700050E068E170E0CE0101960E94BB3040E078
:102C800050E0BA0180E290E00E94DD3040E050E088
:102C9000BA018FE090E00E94DD3040E050E0BA01E0
:102CA00083E190E00E94DD302896E2E00C949B2FB7
:102CB0001F920F920FB60F9211242F933F934F93B1
:102CC0005F936F937F938F939F93AF93BF93EF9394
:102CD000FF938091E10082FF09C08091E20082FFB2
:102CE00005C08091E1008B7F8093E1008091DA0044
:102CF00080FF24C08091D80080FF20C08091DA003E
:102D00008E7F8093DA008091D90080FF9DC080E1A2
:102D100089BD82E189BD09B400FEFDCF81E08093C9
:102D2000B8048091AB04811109C00E9437060E944B
:102D3000D8068091E20084608093E2008091E100F7
:102D400080FF17C08091E20080FF13C08091E200F5
:102D50008E7F8093E2008091E20080618093E200A8
:102D60008091D80080628093D80019BC85E0809360
:102D7000B8048091E10084FF2BC08091E20084FFC1
:102D800027C080E189BD82E189BD89B5982F917006
:102D900080FFFBCF8091D8008F7D8093D8008091F9
:102DA000E1008F7E8093E1008091E2008F7E80932E
:102DB000E2008091E20081608093E2008091B9049A
:102DC000882309F447C084E08093B8048091B80454
:102DD0008091E10083FF27C08091E20083FF23C040
:102DE0008091E100877F8093E10082E08093B804C6
:102DF0001092B9048091E1008E7F8093E100809170
:102E0000E2008E7F8093E2008091E20080618093F7
:102E1000E20042E060E080E00E94A6068091F000BF
:102E200088608093F000FF91EF91BF91AF919F91E7
:102E30008F917F916F915F914F913F912F910F9063
:102E40000FBE0F901F90189519BC1092B8041092E5
:102E5000AB0474CF8091E30087FD93E09093B804B6
:102E6000B5CF78941F921FB61F9211248F939F9312
:102E7000AF93BF938091A7049091A804A091A90457
:102E8000B091AA040196A11DB11D8093A70490934F
:102E9000A804A093A904B093AA04BF91AF919F91F5
:102EA0008F911F901FBE1F9018959C014FB7F894EB
:102EB0008091A7049091A804A091A904B091AA04BC
:102EC0004FBF821B930B08952FB7F8948091A704EE
:102ED0009091A804A091A904B091AA042FBF0895CD
:102EE0000E9464179C019091980480919904982BFA
:102EF00021F0309395042093940490919A0480914A
:102F00009B04982B21F03093930420939204E0913A
:102F1000A004F091A104309749F082E080939604D8
:102F20000680F781E02D86E994E0099508951092D6
:102F30003C0280914C01882339F18091A40487FFE1
:102F400023C0E2EDF1E08EE1DF011D928A95E9F701
:102F500090E080E00E94350890E080E00E94100838
:102F6000109213020E940C0E86E0E6E9F4E0DF0105
:102F70001D928A95E9F710928F0410929004109296
:102F800091040E9470170895EAECF1E086E0DCCF2E
:102F9000AAE2B0E0EEECF7E10C947E2F8AEB94E02D
:102FA0002091F100FC012193CF01F4E0823C9F07C6
:102FB000B9F78091BB04833009F470C0B8F4813054
:102FC00009F447C0823009F4B1C08091E80083FF62
:102FD0007EC28091BA049091BB049A3008F077C207
:102FE000E92FF0E0EC59FE4C0C94D42F8A3009F410
:102FF0008CC08B3009F46FC0893039F78091BA04E6
:10300000813219F78091BE049091BF040297E8F6CF
:103010008091E800877F8093E8008091E80082FF3C
:1030200038C09091F3008091F200029731F48091C2
:10303000F100813011F0863021F48091F10080930D
:10304000AD048091E8008B778093E8000E948706AA
:10305000BCCF8091BA04813A09F0B7CF8091E800E3
:10306000877F8093E8008091BE049091BF04892BF4
:1030700061F468E08EEA94E070E00E94330780918A
:10308000E8008B778093E800A0CF60E090E080E0DC
:10309000F3CF8091B8048111C0CF97CF8091BA044B
:1030A000813A09F092CF8091BE049091BF04892BA0
:1030B00009F08BCF8091E800877F8093E8008091B2
:1030C000E80080FFFCCF80914C018093F10080915B
:1030D000E8008E77B9CF8091BA04813209F075CFBC
:1030E0008091BE049091BF04892B09F06ECF80912E
:1030F000E800877F8093E8000E9487068091BC04E7
:1031000080934C010E94971760CF8091BA0481325E
:1031100009F05BCF8091E800877F8093E8000E94F0
:1031200087068091BD048093AC044FCF8091BA0490
:10313000813A09F04ACF8091E800877F8093E800C8
:103140008091E80080FFFCCF8091AC04BECF803836
:1031500099F0823809F0BBC18091BE048F7087302E
:1031600008F0B5C18093E9008091EB0085FB8827CA
:1031700080F91092E90006C08091B6049091B704DE
:10318000911182609091E800977F9093E80080937E
:10319000F1001092F1008091E8008E7794C18823AD
:1031A00009F482C1823009F092C18091BC0481117E
:1031B00085C18091BE048F702FEF280F263008F054
:1031C00086C18093E9002091EB0020FF77C1933006
:1031D00031F48091EB0080628093EB006FC190919D
:1031E000EB0090619093EB0021E030E001C0220FF2
:1031F0008A95EAF72093EA001092EA008091EB00AA
:103200008860EACF811163C11091BC041F7780915F
:10321000E3008078812B8093E3008091E800877F32
:103220008093E8000E9487068091E80080FFFCCF31
:103230008091E30080688093E30082E0111183E0D5
:103240008093B80444C18058823008F040C1809116
:10325000BC049091BD048C3D23E09207A1F583E06E
:103260008A838AE289834FB7F894DE01139620E0BF
:103270003EE051E2E32FF0E050935700E49120FF4D
:1032800003C0E295EF703F5FEF708E2F90E0EA3061
:10329000C0F0C7968D939D932F5F243159F74FBF90
:1032A0008091E800877F8093E8006AE270E0CE01B9
:1032B00001960E9433078091E8008B778093E800A5
:1032C00006C1C096E7CF4091BE045091BF04292F9C
:1032D00033272330310509F444C078F52130310516
:1032E00009F46FC08BE390E0E3E1F6E022303105B2
:1032F00009F0EDC02091E800277F2093E80020919D
:10330000C0043091C1048217930708F49C0140E087
:103310002115310509F064C0411162C08091E800B7
:1033200082FDC9CF8091B804882329F2853019F233
:103330008091E80083FFF2CFBECF21323105A9F1A1
:103340002232310509F0C3C04115510509F443C0CB
:103350004130510509F0BBC086EB90E0E9E1F5E0B2
:10336000C9CF992781309105C1F0009759F0029794
:1033700009F0ADC0E0E6F6E0E4918E2F90E0E0E6E3
:10338000F6E007C0E0E8F6E0E4918E2F90E0E0E898
:10339000F6E0009709F49BC0ADCFEEE6F6E0E491CD
:1033A0008E2F90E0EEE6F6E0F4CF4115510571F076
:1033B0004130510509F08BC089E090E0EEE3F6E082
:1033C00099CF82E190E0EEE4F6E094CF89E090E0DE
:1033D000E5E2F6E08FCF84E490E0EFECF5E08ACF11
:1033E0008091B804882309F466CF853009F463CF4F
:1033F0008091E80083FD5FCF8091E80082FD8ECF51
:103400008091E80080FF84CF9091F3008091F200DA
:103410002115310519F08830910550F041E00897E9
:1034200009F040E08091E8008E778093E80070CF4B
:1034300044914093F1003196215031090196E8CF33
:10344000803809F044C08091E800877F8093E800CD
:103450008091B9048093F1009ECE811138C0109103
:10346000BC041230A0F58091E800877F8093E800CB
:103470001093B9040E948706112311F084E005C05F
:103480008091E30087FDFACF81E08093B80442E0A9
:1034900061EC81E00E94A60642E261EC82E00E94BB
:1034A000A6068091B80413C08091BC04813079F4E1
:1034B00081E0933009F080E08093B7041092E90036
:1034C0008091E800877F8093E8000E9487068091C2
:1034D000E80083FF0AC08091E800877F8093E800BE
:1034E0008091EB0080628093EB00AA96E3E00C945D
:1034F0009A2F1F920F920FB60F9211242F933F9382
:103500004F935F936F937F938F939F93AF93BF93EB
:10351000CF93DF93EF93FF93D091E900DF70809119
:10352000EC00C82FC17080FDC0E81092E9008091C6
:10353000F000877F8093F00078940E94C817109263
:10354000E9008091F00088608093F000CD2BCF706F
:10355000C093E900FF91EF91DF91CF91BF91AF91BF
:103560009F918F917F916F915F914F913F912F919B
:103570000F900FBE0F901F9018950E9497172FEF76
:1035800084E39CE0215080409040E1F700C00000BF
:1035900088E19AE00FB6F894A895809360000FBE7A
:1035A00090936000FFCF4091980490919A042091ED
:1035B0009B04662309F469C0942B922B20919904F3
:1035C000922B31F098E090938F0491E090939004C7
:1035D0008D3C41F40E948D088195809399040E944E
:1035E000701708958E3C19F40E948D08F6CF8F3C19
:1035F00031F40E948D08819580939804F0CF803D2E
:1036000019F40E948D08F8CF893D29F40E946B08B7
:1036100080939A04E4CF8A3D21F40E946B0881953F
:10362000F7CF8B3D31F40E946B08819580939B040A
:10363000D6CF8C3D19F40E946B08F8CF9FE2980F0B
:10364000983070F4815D990B21E030E001C0220FC9
:103650008A95EAF780919704822B80939704BFCFD5
:103660008D3D31F480919104816080939104B7CFB6
:103670008E3D21F4809191048260F7CF8F3D09F057
:10368000AECF809191048460F0CF8D3C59F480914D
:10369000990487FF0DC01092990441110BC010923C
:1036A0008F0408C08E3C81F48091990418169CF315
:1036B000442381F080919A0490919B04892B09F016
:1036C0008ECF109290048BCF8F3C49F447FFF0CF00
:1036D00010929804809199048111ECCFE0CF803D45
:1036E00019F41416ACF3E4CF893D29F4191604F744
:1036F00010929A04DDCF8A3D19F497FFD9CFF8CF05
:103700008B3D29F427FFD4CF10929B04D1CF8C3D61
:1037100019F41216CCF3CCCF9FE2980F983090F4A6
:10372000815D990B21E030E0B90102C0660F771F7F
:103730008A95E2F7CB018095909197048923809335
:103740009704B6CF8D3D31F4809191048E7F8093A4
:103750009104AECF8E3D21F4809191048D7FF7CFFF
:103760008F3D09F0A5CF809191048B7FF0CF882306
:1037700081F19CEF980F913A28F40E94B1070E94C2
:103780000C0E089590E2980F983050F4877091E0F5
:1037900001C0990F8A95EAF7892F0E94D90BEFCFC4
:1037A0009BE5980F933028F490E080E00E94350864
:1037B000089598E5980F9B3128F490E080E00E94EE
:1037C0001008089593E3980F933118F460E00E9475
:1037D000D31A0895CF93C82F8823B1F18CEF8C0FA3
:1037E000813AA0F580914C01882301F18091A404D5
:1037F00087FF1CC0EC2FE695E695E695F0E0E053D8
:10380000FE4F828190E04C2F477021E030E002C0F3
:10381000220F331F4A95E2F782239323892B79F0F5
:103820008C2F0E94B1070E940C0E09C0EAECF1E057
:103830008191C817A9F381E0E03DF807C9F78C2F03
:103840000E94DC070E940C0ECF91089580E28C0F3D
:10385000883068F4C77021E030E001C0220FCA95BB
:10386000EAF780913C02822B80933C02EBCFEBE5A0
:10387000EC0FE33040F4F0E0E35BFE4F808190E03A
:103880000E943508E1CFE8E5EC0FEB3150F4F0E0B1
:10389000EE0FFF1FE05BFE4F808191810E941008B8
:1038A000D3CF83E38C0F833178F661E08C2F0E94B5
:1038B000D31ACACF0F931F93CF93DF93C62FD42F62
:1038C000022FFC0185818823A9F06093FE040E94E9
:1038D00064179093FD048093FC04C77081E001C0DD
:1038E000880FCA95EAF70E94650EDF91CF911F916C
:1038F0000F9108958091FE04681335C08091FC04F7
:103900009091FD040E945517883C910560F510E2E6
:103910001D0FCD17B9F080E28C0F883040F4C770CE
:1039200081E001C0880FCA95EAF70E945E0E183048
:1039300048F481E09D2F977001C0880F9A95EAF7AF
:103940000E94650E802F0E94EA1B802F0E94B71BE9
:10395000183058F6D77081E001C0880FDA95EAF781
:103960000E945E0EC2CFC77081E001C0880FCA9569
:10397000EAF7F6CF80919C04882319F00E9464171F
:1039800008950E949109CB01089560918104669584
:10399000669570E04BE050E089E391E00E9484304E
:1039A000892B19F481E08093CC020E94BA1C909379
:1039B000C6028093C5028091CD0284608093CD02BF
:1039C00008959091810490FF3AC09370811138C09E
:1039D0009460909381048091CD0281608093CD02A8
:1039E000662391F0209181043091820440918304F8
:1039F00050918404609185047091860480918704BD
:103A0000909188040E9422136091810466956695C6
:103A100070E04BE050E089E391E00E948430892B14
:103A2000B9F00E94C20881E08093C80220E0409172
:103A3000840460918304809182040E944813089555
:103A40008B3210F0986AC5CF880F880F982BC1CFA2
:103A50000E94C51CE8CF809181048695869581508F
:103A600009F48AE261E00E94E11C089580918104DA
:103A7000869586958F5F8B3208F081E061E00E9429
:103A8000E11C08959091810490FF09C09695969548
:103A9000981728F0961718F40E94361D089561E0D3
:103AA0000E94E11C0895B0E0A0E0E9E5FDE10C947E
:103AB000772F8C01FC018481882309F467C021E001
:103AC000408151816281738195810E94210DEC01B9
:103AD000F8019581992309F483C4818180939F0221
:103AE000808180939E0280E280933101D0939D0279
:103AF000C0939C029E0130522115304238F4F801E7
:103B00008681807F09F45EC0FE010AC09E013054A8
:103B100021153041C8F4F8018681807FFE0109F04B
:103B2000FF27ED33F10528F4E455FF4FE491E093CE
:103B30003101FE01E851FC47E730F10508F042C0D1
:103B4000E259FE4C0C94D42F9E013A9521153F4129
:103B5000D8F29E01205A32452032310550F3FE0141
:103B6000E0CF26E241EE61EEC8010E945A1C80912E
:103B70001102877059F0F8018581882339F080910E
:103B8000A50482FF03C082E00E94D20CCDB7DEB74D
:103B9000EAE00C94932F27E245EE65EEE5CF26E2AE
:103BA00041EE60EEE1CF27E245EE64EEDDCF26E2A6
:103BB00041EE62EED9CF27E245EE66EED5CF28E2A0
:103BC00041E0EBCF1092FE049E01305723323105C5
:103BD00008F020C484E090E00E94B5309093A504E2
:103BE0008093A404FE01E150F047E232F10520F495
:103BF000EB58FE4C0C94D42F8091A40481608093E8
:103C0000A40495C08091A50488608093A5048FC00A
:103C10008091A4048260F3CF8091A4048460EFCFEC
:103C20008091A4048860EBCF8091A5048160EDCFE2
:103C30008091A5048260E9CF8091A4048061DFCFE8
:103C40008091A4048062DBCF8091A4048064D7CFEC
:103C50000E9497178091A4048068D1CF8091A4041A
:103C60008C60CDCF8091A5048360CFCF8091A404D8
:103C70008E7FC5CF8091A504877FC7CF8091A40494
:103C80008D7FBDCF8091A4048B7FB9CF8091A40498
:103C9000877FB5CF8091A5048E7FB7CF8091A50493
:103CA0008D7FB3CF8091A4048F7EA9CF8091A4048F
:103CB0008F7DA5CF8091A4048F7BA1CF0E94971701
:103CC0008091A4048F779BCF8091A404837F97CFAA
:103CD0008091A5048C7F99CF8091A40482FB9927C1
:103CE00090F921E0922790FB82F990FB83F987CF2E
:103CF0008091A504982F909591708E7F892B90FBD1
:103D000081F983CF9091A404892F8F7B96FF8064E3
:103D100076CF0E9497179091A404892F97FB87F97B
:103D200080586DCF61E08EE090E00E94CB306091D2
:103D3000A4047091A50484E090E00E94E9300E9400
:103D4000971715CF60E0EFCF9091A404892F8F7E55
:103D500094FF806154CF9091A404892F8E7F90FFAF
:103D600081604DCF9091A504892F877F93FF886054
:103D70004CCF85E35FC38091F001811104C089E2DB
:103D80000E94B10759C385E3FBCF992309F434C3DB
:103D9000C3303CE7D30709F4F7C008F0DAC0C11517
:103DA0009CE7D90709F4E3C0C130DC4709F4F2C04D
:103DB000F8018581C081D181882309F4F9C0CE0141
:103DC0000E94110CF82E682FCE010E94850CBE01B6
:103DD0008F2D0E949C0A0E94BB0AD82FC92FA82EA3
:103DE000F801C580B680B2943FE0B3228091110201
:103DF000877009F1EC2CCC20F9F0892F807F80347A
:103E000069F080E28D0F8830B0F0892F807E80329B
:103E100029F4F1E0FD1778F4BB2069F08091A50446
:103E200082FF09C082E00E94D20C8091110287704B
:103E3000EE24E3948111E12CDC2ED2942FE0D222E7
:103E40002BE02D1508F419C1ED2DF0E0E956FE4CDC
:103E50000C94D42F8091810480FF1EC0282F2E7FC8
:103E60002093810430918204409183045091840412
:103E700060918504709186048091870490918804F4
:103E80000E9422130E94C2088091CD02816080931B
:103E9000CD020E94D30E6BCE81608093810461E0DD
:103EA000869586950E94E11C62CE4BE25DE166E359
:103EB0007DE10E94BB085BCE46E35DE16BE27DE104
:103EC000F8CF4CE054E166E174E1F3CF46E154E110
:103ED0006CE074E1EECF42EF53E16FEF73E1E9CFB5
:103EE0004FEF53E162EF73E1E4CF48ED53E165EE4C
:103EF00073E1DFCF45EE53E168ED73E1DACF40E2E5
:103F000054E16AE374E1D5CF4AE354E160E274E13D
:103F1000D0CF61E081E0C6CF65E082E00E94421D23
:103F200026CE68E086E0FACF6EE089E0F7CF64E164
:103F30008FE0F4CF67E185E1F1CF61E088E1B2CFB6
:103F400062E289E1EBCF61E083E2ACCF6AE285E235
:103F5000E5CFCB35FCE7DF0749F1CC352CE7D207BD
:103F6000D9F0CA35DC4709F023CF81E01CC00E949C
:103F700097178FEF94E3ECE081509040E040E1F739
:103F800000C000000E9494076FEF7FEF90E080E098
:103F90000E94E9300E94BD1A8091A50482FB882707
:103FA00080F991E089270E94711402CF80E0FBCF55
:103FB000CE010E94520CF82E0ACF3C2F3F70F32EF8
:103FC000C07F19F0F29490EFF922CC20B9F0FF20D5
:103FD00069F080E28D0F883010F0A11009C0809147
:103FE0003C02F82AF0923C020E940C0E8D2F43C036
:103FF00080911302F82AF0921302F6CF8D2F0E94BF
:10400000B71BFF20D1F1D05ED83010F0A11004C052
:104010008F2D0E94D90B06C0F09480911302F822D4
:10402000F09213020E940C0E28C08C2F8F70F82E75
:10403000C07FC03219F0F29480EFF822AA2059F024
:1040400091E0A91609F479C0CC2009F485C0BB2001
:1040500009F447C0CBCF8091A50482FD3EC0CC209F
:10406000B1F1FF2039F080913C02F82AF0923C0235
:104070000E940C0E80E00E94EA1B2D2D2850330B6D
:104080002430310510F40E945A08EE20A9F08091E6
:10409000110280FD11C0F8011582869586958695DE
:1040A0000E94E90CC8010E94531D8091110286955F
:1040B000869586950E94C00C20E0F80140815181D0
:1040C00062817381848195810E94210D5FCD80E0A2
:1040D0000E94B71BFF2089F29BCFCC20A1F0B1102A
:1040E00004C08F2D0E94650EC8CFE1E0BE12C5CF7F
:1040F000809112029F2D9823F91609F4BECFF82A59
:10410000F0921202BACFB110B8CF8F2D0E945E0E7E
:10411000909112028F2D892329F08F2D809589236C
:10412000809312028091F1019F2D982309F4A5CF6D
:10413000F094F822F092F101A0CFCC2029F0F5E024
:10414000FB1508F49ACFCDCF24E02B1508F495CFBA
:104150008F2D0E945E0E91CFBB20D1F339E3A312C5
:1041600009C08FEF97EEE3E081509040E040E1F727
:1041700000C000008D2F0E94B71B7FCF8C2F86952B
:104180008695837069F0813009F077CF8D2F9C2F51
:104190009370C11002C080E090E00E9410086DCFC3
:1041A0008D2F9C2F9370C11002C080E090E00E9480
:1041B000350863CF6C2D8D2F0E94D31A5ECF8C2FC4
:1041C000837009F03FC0C11058CF4D2F42954695DE
:1041D0004770440F440F2D2F2F7030E0042E02C083
:1041E000220F331F0A94E2F790E080E0D4FF09C069
:1041F0008FE090E002C0880F991F4A95E2F7809502
:104200009095C695C695C370C23099F078F44091E8
:104210003D0250913E02C13039F0822B932B842312
:1042200095230E94F90C29CF242B352B822B932B1D
:10423000F8CF822B932B20913D0230913E028227B2
:104240009327EFCF8695CC2011F08C2F8170882397
:1042500009F413CF4D2F429546954770440F440FF4
:104260002D2F2F7030E0042E02C0220F331F0A942E
:10427000E2F790E080E0D4FF09C08FE090E002C058
:10428000880F991F4A95E2F780959095C695C69537
:10429000C370C23099F078F4409193025091940227
:1042A000C13039F0822B932B842395230E94BB0CC1
:1042B000E4CE242B352B822B932BF8CF822B932B00
:1042C000209193023091940282279327EFCFCF70F1
:1042D000CC2029F08C2F0E94E90C8D2F03CF8D2F3D
:1042E0000E945E0E8C2F0E94C00CC7CE8D2FF2EF65
:1042F000AF1699F1FA1570F020EFA216D1F031EF58
:10430000A31691F0CC2009F45BC0B1106FCE8C2FB6
:104310008F7127C093EFA91639F1E4EFAE12F2CFF7
:104320008091A50482FD2EC08C2F8F71CC20D9F2F4
:1043300018C0CC2069F0F4E0FB1508F49ECECF71D4
:1043400081E090E002C0880F991FCA95E2F7B8CFCC
:1043500025E02B1508F491CEF2CF8C2F8F71C11070
:10436000C2CF0E94E90C89CE90E080E0CC2009F415
:104370009DCFCF7181E090E002C0880F991FCA9550
:10438000E2F794CFCC2089F0CF718C2F0E94E90CFA
:104390008091A50482FF07C038E0C39FC0011124AB
:1043A0008360809311028C2FDCCF81E00E94D20CBD
:1043B00081E08B1508F061CE82E00E94D20C5DCEC8
:1043C000BB2059F0893309F0D5CE9FEFE7EEF3E03B
:1043D0009150E040F040E1F7CBCE8C2F8F7183CF2E
:1043E000FE01E851FC47E730F10508F4A9CBC631DE
:1043F0002CE7D20709F4BFCC80913C028272FE0107
:10440000E052F847E531F10508F0D2CCED55FE4C0D
:104410000C94D42FC631FCE7DF0709F0B6CC8091AD
:104420003C028A7A91E009F490E09093F0018111C6
:10443000A0CC89E20E94DC070E940C0E98CBCF939F
:10444000DF9380911002807F09F04DC080910F02B0
:10445000882309F448C0E091FB045091C204C09144
:104460000B02D0910A0260910C0270910D0247E09C
:104470005E17C9F18E2F90E0E49FF0011124ED53F7
:10448000FB4F2481222391F1489FF001499FF00DB9
:104490001124DF01AD53BB4F11962C9111972C13B2
:1044A00025C02C912D1322C015962C911597211102
:1044B0001DC012962D913C91261B370B283C3105CF
:1044C000A8F4809110028F70806180931002E753EE
:1044D000FB4F80818F70806180838AE092E00E9430
:1044E000531D0E94070CDF91CF910895FC01319676
:1044F000E770BECFA4E1B0E0E0E8F2E20C94752FE3
:104500008C0186E0F801DE011F9601900D928A95DC
:10451000E1F7F8018481E5809AE0A92E92E0B92EB6
:1045200090910E02911128C0882319F1EE20F1F02C
:10453000C8010E94FE0CF82E8823C1F087E0F80124
:10454000D50101900D928A95E1F780910E0281309C
:1045500031F480910A0290910B020E94450C0E9456
:104560001F228F2D6496ECE00C94912FC8010E94BD
:10457000531DFF24F394F5CFD080C18082809380B7
:10458000F0900F0220910C0230910D02A401421B09
:10459000530BFF2009F4D9C0483C510508F092C0E4
:1045A0008823F9F290910B0280911002282F207F2E
:1045B00009F056C0C91214C090910A02D91210C055
:1045C000E11048C08F708061809310028AE092E011
:1045D0000E94531D80911002F8018683F12CC1CFF7
:1045E000E11038C06C2D8D2D0E9401066C2D8D2D93
:1045F0000E940106E82E8111F1CFDF86C88A8F85DF
:1046000098890E94450C292F22952F70243058F448
:104610009F70223088F0992399F0F8019681907F5D
:1046200079F4FE2C9ECF2A5F2F70223068F0C801EB
:104630000E94531DEF2CF5CF992311F0882389F3A5
:10464000805E883070F3F3CF803F58F3815F833012
:1046500070F7E7CF80911002816080931002BECF87
:10466000C91207C090910A02D91203C0EE2009F4C2
:104670008DC0C8010E94FE0C882309F477CFEE207C
:1046800009F474CF80911002803288F020910A02E0
:1046900030910B02398728879B868A8690910E027B
:1046A0009C871D868E87CE0108960E94531D87E049
:1046B000F801AAE0B2E001900D928A95E1F70E941C
:1046C0001F2257CF90911002292F207F51F48AE0AA
:1046D00092E00E94531D87E0F50111928A95E9F757
:1046E0007DCF882309F43DCF80910B028C1110C03F
:1046F00080910A02D8120CC0E1100AC09683C8014A
:104700000E94531D87E0F50111928A95E9F729CFA0
:10471000C8010E94FE0C882309F428CFEE2009F47A
:1047200025CF80911002803210F220910A02309140
:104730000B023A8329839C828B8290910E029D8387
:104740001E828F83CE010196B0CF483C5105D0F632
:10475000882309F40ECFFE2CEE2009F407CF8091B8
:104760000B028C1120C080910A02D8121CC08091CB
:10477000100280FD0FC0982F907F61F08683903FDC
:1047800031F0982F907F905F8F70892B8683C801BE
:104790000E94531D87E0F801AAE0B2E001900D925B
:1047A0008A95E1F7DECEC8010E94FE0C81117FCF11
:1047B00080911002816080931002C8010E94531DF5
:1047C000D0CEABE1B0E0E7EEF3E20C947D2F4E8B60
:1047D0005F8B688F798F8A8F9B8F192F9111109221
:1047E00013021D8A86E0FE017696DE011F96019077
:1047F0000D928A95E1F70A8D002341F021E04F8563
:10480000588969897A89C8010E94210D0B8B1C8BFC
:1048100087E0FE013F96DE01189601900D928A9581
:10482000E1F7CE0108960E947A2281112AC087E022
:10483000FE013896DE01119601900D928A95E1F7FE
:104840008C858823F1F02091C20430E0C9010196E3
:10485000877099274091FB0448171906E9F097E003
:10486000929FD001939FB00D1124AD53BB4FFE0119
:10487000319601900D929A95E1F78093C2040E94BF
:10488000070C17E08091FB049091C204891312C0B9
:104890006B96E4E00C94992F0E9497171092C20433
:1048A0001092FB0487E0EAE0F2E0DF011D928A95B6
:1048B000E9F7E7CF819FC00111248D539B4F0E94E0
:1048C0007A22882329F38091FB0490E00196877077
:1048D00099278093FB04D6CFA3E1B0E0E2E7F4E2AE
:1048E0000C94742F8E01045F1F4F88E0D8011D9235
:1048F0008A95E9F788E8C82E81E0D82EF12CE12CC2
:10490000AA24A394B12C22E9822E21E0922EF60152
:1049100081916F018F3F09F442C0F894E82FE2952E
:10492000EF70F0E021A18F70A50102C0440F551F68
:104930008A95E2F7CA01922F982B91A392A18095B4
:10494000892382A3789400C0ECE8F1E0712C31E077
:1049500021912F3F09F498C0A22FA295AF70B0E02B
:1049600090968C9190E02F7002C0959587952A952E
:10497000E2F780FD89C0832F782A330F8E169F06B9
:1049800039F7F601319780818F3F11F00E947A0943
:1049900050EA5A95F1F7F801EE0DFF1D70828FEF86
:1049A000E81AF80AA4E0EA16F10409F0B0CF48E0EA
:1049B00050E0B80184E792E00E949130009741F006
:1049C00028E0F801A4E7B2E001900D922A95E1F702
:1049D00000917D0210E001581D4F892B09F456C04B
:1049E00081E0809343020E94641790934202809377
:1049F0004102F12CE0909C04EE2009F4A1C0198240
:104A00001A821B821C8280916F028A3008F062C079
:104A10004FE355E1BE016F5F7F4FC8010E94B8119F
:104A2000882309F47CC048E854E1BE016F5F7F4FE2
:104A3000C8010E94B811882309F471C04EED54E1F9
:104A4000BE016F5F7F4FC8010E94B811882309F42F
:104A500066C010926F0280917C0290E044E050E0CA
:104A6000BE016F5F7F4F81589D4F0E94913021E0C2
:104A700020934A02892B09F044C0E12C8E2D8F2906
:104A80006396EDE00C94902F80E076CFF090430297
:104A9000FF2009F4AECF80914102909142020E9422
:104AA0005517059708F4A5CF44E050E064E772E09D
:104AB000C8010E949130892B59F084E0E4E7F2E0CC
:104AC000D80101900D928A95E1F71092430292CF9E
:104AD000F12CFBCF80914402909145020E94551722
:104AE000843F914008F094CF80914A02882329F2B4
:104AF00084E0FE013196DF011D928A95E9F710925C
:104B00004A02E0917C02F0E0E158FD4F89819A81F0
:104B1000AB81BC8180839183A283B383AFCF80912B
:104B20006F028F3F31F08F5F80936F028A3008F4FD
:104B300092CF0E9464179093450280934402D4CF91
:104B400084E0F801A8E5B2E001900D928A95E1F7C2
:104B500088E592E00E9420068093570280905C02D4
:104B600090905D02A0905E02B0905F02809146023C
:104B700090914702A0914802B09149028816990687
:104B8000AA06BB06B1F08092460290924702A0921C
:104B90004802B09249020E94A507861A970AA80AFD
:104BA000B90A8092700290927102A0927202B09241
:104BB00073028BE0E0E6F2E0DE01119601900D92C7
:104BC0008A95E1F72981822F86958695DA80CB80B8
:104BD000BC800A851B8510926A02112309F44ECF0E
:104BE00010FF0AC09091810420FF1AC09160909339
:104BF000810460E00E94E11C11FF06C020E04B2D03
:104C00006C2D8D2D0E94481312FF04C00023A9F0C3
:104C10000E94C51C13FF32CF81E08093C8022ECFC3
:104C20009E7F909381040E94C2088091CD02816092
:104C30008093CD020E94D30EDFCF0E94C208EACF3C
:104C4000A6E0B0E0E6E2F6E20C947D2F0E94641745
:104C50008C0180913F02909140028017910781F072
:104C600019821A820E946417682F49815A81792F0C
:104C700080E090E00E94E1231093400200933F0205
:104C80002696E4E00C94992F1F921FB61F921124D0
:104C90008F939F93AF93BF938091A604811113C00C
:104CA0008091A7049091A804A091A904B091AA04AE
:104CB0004196A11DB11D8093A7049093A804A093D1
:104CC000A904B093AA04BF91AF919F918F911F90B7
:104CD0001FBE1F901895CDB7DEB760970FB6F8943A
:104CE000DEBF0FBECDBF85B7806885BF85B7806842
:104CF00085BF84B7877F84BF0FB6F894A89580914D
:104D00006000886180936000109260000FBE80E8B0
:104D100090E00FB6F89480936100909361000FBE0D
:104D200088E799E09093C7018093C6010E943706F7
:104D30000E94D8068091E20084608093E20078941B
:104D40008091B8048823A1F01091E9001F70909120
:104D5000EC00892F817090FD80E8182B1092E900FB
:104D60008091E80083FD0E94C8171F701093E9002E
:104D700082E084BD93E095BD9AEF97BD80936E006D
:104D800010927002109271021092720210927302CD
:104D90008091D80080618093D8002AE12A95F1F7AC
:104DA00000C08091D900182F117080FD04C00E94AE
:104DB00037061092B80410939C0410939D0410932E
:104DC0002401112309F472C0109247018BE18093F2
:104DD00048010E94F92D809124018091240194E0E2
:104DE000811190E090937D0284E0891B80937C0286
:104DF00084E90E947A0986E60E947A0987E90E947E
:104E00007A0986EC0E947A090CE811E0D8018D91AC
:104E10008D018F3F11F00E947A09B1E002391B0722
:104E2000A9F788E0EFE7F2E0DF01282F1D922A952D
:104E3000E9F7E4E7F2E0DF011D928A95E9F790E0F7
:104E400080E00E94B530863E9E4F11F00E94E8152A
:104E500082E090E00E94A7308093870284E090E097
:104E60000E94B5309093A5048093A4040E946C2402
:104E7000EFEFF6E721E0E150F0402040E1F700C01D
:104E800000000E946C2480919D04E4E08111E0E028
:104E9000F0E0E158FD4F808181FF0EC06FEF7FEFA2
:104EA00090E080E00E94E9300E9494078BE18093BB
:104EB0004701809348018FCF83E090E00E94A730A4
:104EC00090E00E94F90C80919C04811133C182E032
:104ED0008093C00280E88093FF040E94B32C6BE0B3
:104EE00070E08FE792E00E94EB118823E9F1809156
:104EF000C00265E070E081FD1FC18AE792E00E9478
:104F0000EB11882389F16DE070E088E692E00E9461
:104F1000EB11882349F10E94A507605A75418F4F14
:104F20009F4F6093890470938A0480938B049093BD
:104F30008C04E2E0F5E080E092E0DF019C011D924C
:104F400021503040E1F7F0930907E09308078FEF15
:104F50009FEF909301058093000581E080938E047C
:104F600080938D041092C10280917E0281117CC0D9
:104F700090E080E00E94B530863E9E4F21F00E9476
:104F8000E8150E94541488E090E00E94AF304B0175
:104F90005C0184E290E00E94A730282F30E040E0DE
:104FA00050E060E070E080E090E000E20E94E92FD5
:104FB000282939294A295B292093810430938204C6
:104FC0004093830450938404609385047093860413
:104FD00080938704909388048091CD0283608093AE
:104FE000CD022C7F89F50E94541488E090E00E9445
:104FF000AF306B017C0184E290E00E94A730282F43
:1050000030E040E050E060E070E080E090E00E943E
:10501000E92FB22FA32FF42FE52F5B019701860113
:10502000BC29A12BFE29E32BB0938104A093820419
:10503000F0938304E093840460938504B092860423
:1050400080938704909388040E94C9080E94C20834
:105050008091810480FF05C060E0869586950E945E
:10506000E11C81E080937E0280919C04811102C04A
:105070000E94FC2D85E291E09093A1048093A0040E
:10508000DD24D394AAE04A2E512C612C712C8091FE
:10509000B80400E112E1853009F48AC00E946C2452
:1050A00008E812E0FFE7EF2EF2E0FF2ED701F8014B
:1050B00091918D9122E0E039F20709F483C09817AD
:1050C000B9F330909C04C12CD701BD907D01F8014B
:1050D00081908F018B1429F1A12C992493948B2416
:1050E000882D8921B1F03320A1F0AF82C8860E94BB
:1050F00064179A878987DB8691E08B2D892109F4D3
:1051000090E09C874F81588569857A858B850E94C0
:10511000E123A394990CF6E0AF12E2CFF8013197A6
:10512000B082C39428E0C212CFCF0E949109CC2450
:10513000C3944DC080E0CCCE85E792E0E0CE809174
:10514000B804843031F10E9415121092A60488E14F
:1051500090E0A0E40FB6F894A895809360000FBE8D
:10516000A093600083B7817F846083BF83B7816031
:1051700083BF7894889583B78E7F83BF0FB6F894EA
:10518000A895809160008861809360001092600013
:105190000FBE8091B704882359F00E946C24EFE77A
:1051A000F2E081918111BAC3B2E0E738FB07C9F799
:1051B0008091B804853009F4C2CF0E9497170E94ED
:1051C0005A086CCF98137DCF0E942026C12C809165
:1051D000CC02882309F464C08091CB02E091810461
:1051E000E695E695E81BE093C702823009F0AFC070
:1051F000F0E0E556FD4FE4910E2F10E0E4EAEE2ECC
:10520000E1E1FE2E8091C802882361F01092C8026D
:105210000E94BA1C9093C6028093C5021092CA02E3
:105220001092C9020E94BA1CE091C502F091C60218
:105230009C012E1B3F0B2F3F3F4790F52091920280
:105240002223B1F0109292022091900230919102AB
:10525000821B930B8F3F9F4758F4205D3A48309351
:105260009102209390028091CD0288608093CD02BC
:10527000A090C902B090CA02E00FF11FF093C602DD
:10528000E093C50285EC92E0F70109958091C9028F
:105290009091CA02892B21F4AB2811F0D09292028E
:1052A00080918E04882309F421C18091C2029091DB
:1052B000C3020E945517C29708F4F8C00E946417F1
:1052C0009093C3028093C20282E095E09093090715
:1052D0008093080780919C04882309F42FC280ECF6
:1052E00092E00E94C60D2091930230919402832F88
:1052F0009927009709F497C09C0188E0A901F4E080
:1053000056954795FA95E1F74115510511F08C5FD7
:105310009A01A9015695479556954795411551050E
:1053200011F08E5F9A0136952795232B09F08F5F38
:10533000813009F4BDC1882309F477C0823009F4B3
:10534000BAC1833009F4BAC18FE992E070C08630E7
:1053500059F4F0E0E856FD4FE4910E2F10E074E9A7
:10536000E72E71E1F72E4ECF893061F4E695F0E03B
:10537000EB56FD4FE4910E2F10E06DEEE62E60E14E
:10538000F62E40CF8F3061F4E695F0E0EE56FD4FFB
:10539000E4910E2F10E052E6E52E50E1F52E32CFCB
:1053A000853159F4F0E0E157FD4FE4910E2F10E004
:1053B0004DEDE42E4FE0F42E25CF08E210E09BE502
:1053C000E92E9FE0F92E883109F41CCF833249F48D
:1053D000EDE8F2E00591149133E4E32E31E1F32E90
:1053E00011CF8432C9F000ED17E0B1ECEB2EB8E03C
:1053F000FB2E853209F006CF8E2F63E00E94A62F88
:10540000E92FF0E0E657FD4FE4910E2F10E028E57C
:10541000E22E22E1F22EF6CE04EF11E08EE1E82E2C
:105420008FE0F82EEFCE80E069CF88EB92E00E940B
:10543000060E80919F02805D0E94460D8EEC92E0E8
:105440000E94C60D80919E02805D0E94460D8AECEE
:1054500092E00E94C60D80909C0290909D02209147
:105460002F01309130018216930609F02AC1209154
:105470009B02203209F025C1E5E9F2E08F0181911C
:105480008032E1F3F80101900020E9F79F012150FB
:10549000310979010E151F0508F44AC188EC92E024
:1054A0000E94C60D809131010E94460D8091000539
:1054B00090910105892B09F046C180918D048823C4
:1054C000A9F00E94A5070091890410918A042091F7
:1054D0008B0430918C04601B710B820B930B6F3F1C
:1054E0007F4F8F4F9F4710F40E941512C1100E94EA
:1054F000301286E0E6E9F4E0DE01119601900D92AB
:105500008A95E1F7C090970400919804F09099046F
:10551000E0909A0410919B041092980410929904C0
:1055200010929A0410929B04802F8F2909F445C091
:1055300080919404909195040E9455179C0190913C
:105540008F04992309F40AC225313105B0F19F3F38
:1055500019F09F5F90938F04002359F00E948D08EB
:105560009FEF10160CF491E0899F802D11248093F9
:105570009804FF2059F00E948D0891E01F140CF050
:105580009FEF899F802D1124809399048091980426
:10559000882399F0B0909904BB2079F00E94AD085F
:1055A000882309F4AFC1809398048B2D0E94AD0825
:1055B000882309F4AAC180939904812F8E2909F4C4
:1055C00045C080919204909193040E9455179C01CC
:1055D00090919004992309F4BCC121353105B0F1B3
:1055E0009F3F19F09F5F90939004EE2059F00E9426
:1055F0006B089FEF1E140CF491E0899F802D1124FD
:1056000080939A04112359F00E946B0891E01116BF
:105610000CF09FEF899F802D112480939B04809133
:105620009A04882399F0E0909B04EE2079F00E9480
:10563000AD08882309F46CC180939A048E2D0E94D2
:10564000AD08882309F467C180939B048091970477
:10565000C81217C080919804882311F0081311C054
:1056600020919904222311F0F2120BC090919B0417
:10567000992311F0191305C030919A04332309F4CA
:1056800063C10E94701786E0FE013196A6E9B4E07E
:1056900001900D928A95E1F70E945A089091C402F8
:1056A000891709F4F4CC8093C4020E94A507EFCCBB
:1056B00082EB92E0BCCE8CEA92E0B9CE85EA92E031
:1056C000B6CE9092300180922F0120E220939B026F
:1056D000B12CA12C10929A0255E9252E52E0352EBC
:1056E00060E9E62E62E0F62E8101C501B401A30156
:1056F00092010E943131605D603319F42016310649
:1057000031F081149104A104B10409F460E2D801DC
:1057100014966C93C501B401A30192010E9431312A
:1057200049015A0101501109E016F106F1F6A4CE23
:10573000D8018D918D010E94460DACCE80ED92E096
:105740000E94C60DB3CE80918E04882309F4B5CE95
:105750008091C1028111B1CE0E94301220910005CA
:10576000309101052115310509F4A7CE80E041E013
:1057700050E0282E312C5A01082E02C0AA0CBB1C66
:105780000A94E2F7B50162237323672B11F48F5F4C
:10579000F0CF9091C00290FF9BC0880F880F880FB8
:1057A0008093340110923701895F8093350183E043
:1057B0008093380124E630E047E050E062E371E096
:1057C00088E70E94532D892B09F077CE95E0220CB3
:1057D000331C9A95E1F78091C00280FF8BC0E0EA0C
:1057E000F2E080E2DF011D928A95E9F7E6E9F1E057
:1057F000F88BEF8782E9882E81E0982E07E0AF854D
:10580000B8894D91B88BAF87F40181914F01820D1A
:10581000932D911D9C012E5F3A4F3E872D87E42FDB
:10582000F0E0E056FD4F30E020E0F02EF21A11E0FB
:10583000022E01C0110F0A94EAF76D857E8590E073
:10584000DB018D91BD0181234F2D491B4770E42E53
:10585000042E000C550BB82F01C0BB0FEA94EAF7D9
:10586000EB2E5195419551094770552701C08695FA
:105870004A95EAF7E82A8081E82AE0829F5F98301B
:10588000F9F62F5F3F4F31962830310571F6EF85DD
:10589000F889EA59F14009F0B2CF04E610E020E2BD
:1058A00030E040EA52E060E488E70E94742D892BE2
:1058B00009F003CEC50180959095209100053091A7
:1058C0000105822393239093010580930005F5CD74
:1058D0008295880F807680933401910136952795C3
:1058E0003695279520933701815E8093350120936B
:1058F000380160CFA1014E5F5A4F04E610E020E26C
:1059000030E0D1CFD092980450CED092990455CEA9
:10591000D0929A0493CED0929B0498CE09BD19BD23
:1059200009B400FEFDCF8091D8008F7D8093D80010
:105930008091E00082608093E0008091E00081FD32
:10594000FCCF0E94971734CC822B892B09F49BCE75
:1059500098CE2B30310508F045CE78CE2B3031056E
:1059600008F0F7CD2ACE1092B9008CE08093B800F1
:105970000895B0E0A0E0EFEBFCE20C94762FB82E97
:10598000EB010E9464176C01EE24E394F12CC43106
:10599000D10560F025E0E22EF12CCF3FDC0731F09D
:1059A000CE0164E170E00E945B2F7B0184EAA82EA7
:1059B00094E8992E1092BC00A092BC000E9464173B
:1059C0008C018091BC0087FF0DC08091B900887F59
:1059D0008830F9F08091B900887F8031D1F00FEFE5
:1059E0001FEF08C0C8010E945517E816F90648F7CE
:1059F0000EEF1FEFCF3FDC07E9F2C6010E945517FB
:105A0000C817D907B8F6C801CDB7DEB7EBE00C94DC
:105A1000922FB092BB009092BC000E9464178C0140
:105A20008091BC0087FF0AC08091B900887F8831CF
:105A300011F08034A1F610E000E0E5CFC8010E942B
:105A40005517E816F90660F7D3CF0F931F93CF933E
:105A5000DF93EB018093BB0084E88093BC000E943D
:105A600064178C018091BC0087FF11C02091B900A0
:105A7000287F81E090E0283211F490E080E0919559
:105A800081959109DF91CF911F910F910895CF3F9B
:105A9000DC0741F3C8010E945517C817D90710F752
:105AA0008EEF9FEFEFCFB0E0A0E0E9E5FDE20C94D0
:105AB000792F6B018A017901B9010E94B92CE601A5
:105AC0000C0D1D1DC017D10711F097FF08C024E968
:105AD0002093BC00CDB7DEB7E8E00C94952FB7015A
