:100000000C94E0040C9427050C9427050C946F21A4
:100010000C9427050C9427050C9427050C942705B0
:100020000C9427050C9427050C9494290C94662AAB
:100030000C94AF240C9427050C9427050C942705E9
:100040000C9427050C9427050C9427050C94270580
:100050000C9427050C9424250C9427050C94270553
:100060000C9427050C9427050C9427050C94270560
:100070000C9427050C9427050C9427050C94270550
:100080000C9427050C9427050C9427050C94270540
:100090000C9427050C9427050C9427050C94270530
:1000A0000C9427050C9427050C94270549055A053F
:1000B0004D055A0551055A055A055A0555055A0563
:1000C00055055A0555055A055505B507B507E707FE
:1000D000E70734085208660966095D08F60807094B
:1000E0000709060A060A180A180A0F0A180A180A3F
:1000F000180A060A060A140A180A180A140AD32A41
:10010000FA2AF22BFA2AF22B462B692BF22BC02B60
:10011000CF2B808182838485868788898A8B8C8D8A
:100120008E8F9091929394A0A1A2A3A4A5A6A7A814
:10013000A9AAABACADAEAFB0B1B2B3B4C0C1C2C38B
:10014000C4C5C6C7C8C9CACBCCCDCECFD0D1D2D3F7
:10015000D40041646A757374005261697365004C20
:100160006F7765720044656661756C74004C6179E7
:1001700065723A20002B0014001A000800150017C1
:1001800000E00004001600070009000A00E1001D5D
:10019000001B00060019000500000000000000E33D
:1001A0000001512C002A00130012000C0018001C42
:1001B00000340033000F000E000D000B0029003842
:1001C000003700360010001100000000000000E6BB
:1001D00000025128002B001E001F002000210022D9
:1001E00000E00000000000000000000000E100004E
:1001F000000000000000000000000000000000E31C
:100200000001002C002A00270026002500240023DE
:1002100000000000004F005200510050000000009C
:10022000000000000000000000000000000000E6E8
:1002300000035128002B001E021F0220022102226F
:1002400002E00000000000000000000000E10000EB
:10025000000000000000000000000000000000E3BB
:100260000003512C002A0027022602250224022323
:10027000023500310030002F002E002D00350231F4
:100280000230022F022E022D02000000000000E6C4
:100290000001002800005C000000000000000000D9
:1002A00000C35CC65CC85CCA5C00000000C45CC7DC
:1002B0005CC95CCB5C00000000000000000000E3B3
:1002C0000001002C00000000000000000000000001
:1002D000000000000000000000000000000000001E
:1002E000000000000000000000000000000000E628
:1002F000000100280000AE00AF00DA0281FFD9F152
:10030000DB20A4A62EAF00A0C000A1C800AED580FF
:10031000A81FD300408D1420000000000000003E04
:100320005B4F5B3E003E6B4F6B3E001C3E7C3E1CB9
:1003300000183C7E3C18001C577D571C001C5E7F3B
:100340005E1C0000183C180000FFE7C3E7FF000038
:100350001824180000FFE7DBE7FF0030483A060EDC
:1003600000262979292600407F05050700407F05E2
:10037000253F005A3CE73C5A007F3E1C1C08000801
:100380001C1C3E7F0014227F2214005F5F005F5F11
:100390000006097F017F00006689956A0060606041
:1003A00060600094A2FFA2940008047E040800107C
:1003B000207E20100008082A1C0800081C2A0808B3
:1003C000001E10101010000C1E0C1E0C0030383EC9
:1003D000383000060E3E0E0600000000000000004F
:1003E000005F000000000700070000147F147F1466
:1003F00000242A7F2A12002313086462003649561B
:10040000205000000807030000001C2241000000EB
:1004100041221C00002A1C7F1C2A0008083E0808F4
:100420000000807030000008080808080000006024
:100430006000002010080402003E5149453E0000C3
:10044000427F4000007249494946002141494D33ED
:10045000001814127F10002745454539003C4A49D1
:100460004931004121110907003649494936004602
:100470004949291E0000001400000000403400001B
:100480000000081422410014141414140000412226
:100490001408000201590906003E415D594E007CD6
:1004A0001211127C007F49494936003E41414122E8
:1004B000007F4141413E007F49494941007F090990
:1004C0000901003E41415173007F0808087F000088
:1004D000417F4100002040413F01007F081422413C
:1004E000007F40404040007F021C027F007F0408E4
:1004F000107F003E4141413E007F09090906003E50
:100500004151215E007F0919294600264949493297
:100510000003017F0103003F4040403F001F204097
:10052000201F003F4038403F00631408146300035D
:1005300004780403006159494D4300007F41414163
:1005400000020408102000004141417F0004020124
:100550000204004040404040000003070800002023
:1005600054547840007F2844443800384444442898
:1005700000384444287F0038545454180000087E42
:100580000902001824241C78007F08040478000065
:10059000447D4000002040403D00007F1028440082
:1005A0000000417F4000007C04780478007C08044F
:1005B0000478003844444438007C18242418001877
:1005C0002424187C007C0804040800485454542453
:1005D0000004043F4424003C4040207C001C204098
:1005E000201C003C4030403C004428102844004C73
:1005F0009090907C004464544C44000008364100C4
:1006000000000077000000004136080000020102EF
:100610000402003C2623263C0000000000000000ED
:10062000000000000000000000C0E0F0F8F8180032
:10063000C0F0FCFEFFFFFFFFFFFFFF7E0000000099
:10064000000000000080C0E0E0E0E0E0E0E0E0C0AA
:10065000800000000080C0E0E0E0E0E0E0E0E0C01A
:1006600080000000E0E0C0C0E0E0E0E00000E0E08A
:10067000C0C0E0E0E0E0E0C0800000000080C0E03A
:10068000E0E0E0E0E0E0E0C080000000000000000A
:1006900000000000000000E0F0F0F0E0ECEEF7F306
:1006A0007020007C7C7C7E007E7E7E7F7F7F0000D1
:1006B00080C0E07E5B4F5BFEC00000C000DCD7DE88
:1006C000DEDED7DC00C000000000000000000000FB
:1006D000000000000000000000000000000000001A
:1006E0000000F8FCFEFFE000FFFFFFFFFFFF80FFC0
:1006F000FFFFFFFFFFFFFFFF1F07010000000000DB
:1007000000000000FFFFFF8100000000000081C327
:10071000C3C30000FFFFFF8100000000000081FF55
:10072000FFFF0000FFFFFF01000000000000FFFFCF
:10073000FF010000000001FFFFFF0000FFFFFF9D21
:100740001C1C1C1C1C1C9DDFDFDF000000000000C7
:10075000000000000000000F1F3F7F7F7F7F7F3F72
:100760001E0C001F1F1F3F003F3F3F7F7F7F003059
:100770007B7F7830202030787F3B0003000F7F0F95
:100780000F0F7F0F000300000000000000000000BA
:100790000000000000000000000000000000000059
:1007A0000000030F1F3F3F3F3F1F1F3F3F7F7F7FE3
:1007B0003F3F1F3F7F7F7F7F7C7878381C0F000092
:1007C00000000000000103070707070707070703EA
:1007D00001000000000103070707070707070703D9
:1007E00001000000070707000000000000000707E5
:1007F00007000000000000070707000000010307D2
:1008000007070707070707030100000000000000B3
:1008100000000000000000000000000000000000D8
:1008200000000000000000000000000000000000C8
:1008300000000000000000000000000000000000B8
:1008400000000000000000000000000000000000A8
:100850000000000000000000000C0343006F007265
:10086000006E0065000000100366006F006F0073EB
:1008700000740061006E0000000403090409023BDB
:1008800000020100A0FA09040000010301010009AF
:1008900021110100012240000705810308000A0917
:1008A000040100010300000009211101000122B62A
:1008B000000705820320000A120100020000000860
:1008C0005346010001000102000105010902A101D6
:1008D00085020901A1000509190129081500250152
:1008E0009508750181020501093009311581257FBF
:1008F00095027508810609381581257F95017508CF
:100900008106050C0A38021581257F95017508813D
:1009100006C0C005010980A101850319012AB7009D
:10092000150126B700950175108100C0050C09015D
:10093000A101850419012AA002150126A002950132
:1009400075108100C005010906A10185050507197B
:10095000E029E715002501950875018102050719B1
:100960000029EF1500250195F07501810205081990
:10097000012905950575019102950175039101C045
:1009800005010906A101050719E029E71500250160
:100990009508750181029501750881010507190007
:1009A00029FF150026FF0095067508810005081926
:1009B000012905950575019102950175039101C005
:1009C00011241FBECFEFDAE0DEBFCDBF04B603FEB9
:1009D00027C080916F0590917005A0917105B0912D
:1009E00072058730904BA740B04BD1F410926F0541
:1009F00010927005109271051092720514BE84B7A2
:100A0000877F84BF0FB6F894A895809160008861B5
:100A100080936000109260000FBEE0E0F8E309955B
:100A200012E0A0E0B1E0EAE9FFE502C005900D9216
:100A3000A230B107D9F725E0A2E0B2E001C01D92D3
:100A4000AF36B207E1F70E94CF170C94CB2F0C946E
:100A50000000CF93C82F0E949615882311F08C2F89
:100A600001C082E0CF91089560E08DE691E00E94A0
:100A7000041C80913B0290913C02A0913D02B091F8
:100A80003E028F309105B0F4FC01EA5AFF4F0C94FE
:100A90006C2C60E085E691E00BC060E08FE591E0B2
:100AA00007C060E089E591E003C060E082E591E085
:100AB0000C94161C08959C013056211540E2340711
:100AC00020F0305E2115304108F499278C339105D0
:100AD00028F4FC01E45BFE4F208101C020E21F925C
:100AE0002F939F938F93FB0180811F928F9381811E
:100AF0001F928F938BE391E09F938F931F9288E1D6
:100B00008F9384E092E09F938F930E94912C8DB7F6
:100B10009EB70E960FB6F8949EBF0FBE8DBF089578
:100B200060E084E092E00C94E81B60E082E191E0F8
:100B30000C94041C0E949615882321F00E94340511
:100B40000C9490050C949505FB01228121110E94C3
:100B50005B0581E0089581E008950C94A405089553
:100B60000C94AF051F93CF93DF9300D000D01F925A
:100B7000CDB7DEB749835A836B8330911C028981DC
:100B80009A81311114C0662359F0222349F00E9442
:100B9000AC0B182F682F89819A810E94530B03C0D8
:100BA0000E947F0B182F69817A81812F04C00E94D7
:100BB000AC0B69817A810F900F900F900F900F907E
:100BC000DF91CF911F910C94A712FC01262F408139
:100BD00051816281738184810C94B20581E0089512
:100BE000CF93DF93EC0160E00E94E505BE01DF9149
:100BF000CF910C94B0050E94B6130E946C060C9421
:100C0000F0130C94EC1308950E94F4090E9403065B
:100C10002FEF84E39CE0215080409040E1F700C03A
:100C200000000C944A250F931F93CF93DF938C0100
:100C300061E00E94E505EC01B8010E94AD05882342
:100C4000F1F1B801CE010E94081E8823C1F1B8015C
:100C5000CE010E945A1E882391F1B801CE010E9454
:100C60008C1F882361F1F8018281882309F1CB353B
:100C70008DE5D807C1F050F4C115FCE5DF0781F020
:100C8000CF3DDC45A9F40E94A31019C0CC35EDE599
:100C9000DE0761F0CD35DD4559F40E94340F08C000
:100CA0000E9404060CC00E943D0F02C00E94400F2B
:100CB000C801DF91CF911F910F910C94AB0580E09B
:100CC000DF91CF911F910F91089508950C946506BF
:100CD00081E008950C9468060895CF93C82F0E9470
:100CE00066068C2F0E946A06CF910895CF93DF93FA
:100CF000CDB7DEB72B970FB6F894DEBF0FBECDBFD2
:100D00004F83588769877A878B8761110E94630FA9
:100D10009E012F5F3F4F86E0F90111928A95E9F716
:100D200085E0FE013796D90101900D928A95E1F791
:100D300089819A814C815D81452B31F09F3F31F44F
:100D400091E08F3F19F403C091E001C090E090FF63
:100D500009C049815A816B817C818D819E810E946D
:100D6000630E05C0C9010E94EE058111F2CF2B96DA
:100D70000FB6F894DEBF0FBECDBFDF91CF910895BF
:100D8000FC01808191810E94EE0B0895CF9388230E
:100D900009F450C0C82F8CEF8C0F813AD0F46C2F1F
:100DA00080910001909101010E947023882349F0F5
:100DB0006C2F80910001909101010E94FB230E9401
:100DC000880F6C2F80910001909101010E94F02307
:100DD0000CC080E28C0F883058F4C77081E001C0ED
:100DE000880FCA95EAF70E94460FCF910C94880F9E
:100DF000EBE5EC0FE33040F4F0E0EA54FE4F808185
:100E000090E0CF910C942E23E8E5EC0FE73150F4FD
:100E1000F0E0EE0FFF1FE857FE4F80819181CF91E8
:100E20000C944423CD3E30F08C2F0E945C18CF915F
:100E30000C942E19CF910895882389F19CEF980F77
:100E4000913A40F4682F80910001909101010E9435
:100E5000FB230DC090E2980F983058F4877091E012
:100E600001C0990F8A95EAF7892F0E944C0F0C94C4
:100E7000880F9BE5980F933020F480E090E00C946D
:100E80002E2398E5980F973120F480E090E00C94A1
:100E900044238D3E20F00E94B7180C942E1908951B
:100EA0001F93CF93DF93182FEB010E94C606209764
:100EB00041F08FE99FE00197F1F700C00000219712
:100EC000F6CF812FDF91CF911F910C941C078933AE
:100ED00019F060E070E002C060E570E00C9450072B
:100EE000882321F00E94460F0C94880F08958823D0
:100EF00021F00E944C0F0C94880F0895CF92DF923E
:100F0000EF92FF920F931F93CF93DF937C01D62F25
:100F1000C72FFC011281058102950F700E941B0FE3
:100F2000882399F0112389F08C2F807F803421F061
:100F300080E28D0F883048F082E00E94D80F0E9436
:100F40001B0F91E0D82ED92601C0D12CCC2EC294F3
:100F50008FE0C8228C2D90E08C30910508F0B6C14E
:100F6000FC01EB59FF4F0C946C2C8C2F807FCF70C1
:100F7000882311F0C295C07F112399F0CC2309F486
:100F800091C180E28D0F883010F0D11104C08C2FF8
:100F90000E94460F03C08C2F0E94560F0E94880F9C
:100FA00081C18D2F0E941C07CC2309F48FC180E2E0
:100FB0008D0F883010F0D11104C08C2F0E944C0F7F
:100FC00003C08C2F0E945C0F0E94880F7FC18C2F62
:100FD000807FCF70803211F0C295C07FDD2319F081
:100FE000D130C9F022C0112371F0002341F001304B
:100FF00031F40E94690F8C2B0E94710F67C10E940F
:10100000690F8C2B1DC0002319F0013009F45EC15B
:101010000E947E0F25C0112321F0063008F056C132
:101020000EC0053008F052C11BC0112361F000232F
:1010300031F0F701858180FF35C18F7085838C2F5A
:101040000E94700743C1002359F0D93309F03BC116
:10105000FFEF07EE13E0F15000401040E1F731C11F
:101060008C2F0E94770732C18C2F869586958370CE
:1010700019F0813061F02AC1112321F08D2F9C2FAE
:10108000937002C080E090E00E942E2327C11123BC
:1010900021F08D2F9C2F937002C080E090E00E9481
:1010A00044231CC18D2F112319F00E945C1802C02B
:1010B0000E94B7180E942E1911C18C2F837009F05D
:1010C00047C0111107C12D2F229526952770220F99
:1010D000220F6D2F6F70862F90E0A0E0B0E0022EFF
:1010E00004C0880F991FAA1FBB1F0A94D2F7D4FF10
:1010F00010C04FE050E060E070E004C0440F551FA6
:10110000661F771F2A95D2F7409550956095709588
:1011100003C040E050E0BA01C695C695C3708A018D
:101120009B01082B192B2A2B3B2BC901B801C2307C
:1011300049F058F4C13019F00E94690ACBC00E94EE
:10114000570AC8C00E947B0AC5C00E94550AC2C087
:10115000112319F08C2F817001C08695882309F422
:10116000B9C02D2F229526952770220F220F6D2FA3
:101170006F70862F90E0A0E0B0E0022E04C0880FD0
:10118000991FAA1FBB1F0A94D2F7D4FF10C04FE0CB
:1011900050E060E070E004C0440F551F661F771FE9
:1011A0002A95D2F7409550956095709503C040E020
:1011B00050E0BA01C695C695C3708A019B01082B01
:1011C000192B2A2B3B2BC901B801C23049F058F426
:1011D000C13019F00E942E0B7DC00E941C0B7AC0FA
:1011E0000E94400B77C00E948F0A74C0CF701123F9
:1011F00039F08C2F0E94B50A8D2F0E9470076AC0AB
:101200008D2F0E9477078C2F0E94D60A63C0D23F91
:1012100001F128F4D03F41F0D13FA1F03FC0D33FCE
:10122000F9F0D43F39F13AC0112341F0053008F00C
:101230004DC08C2F8F710E94FB0A48C0063008F009
:1012400045C0F7CF112339F08C2F8F710E94B50A5A
:101250003DC01123C9F38C2F8F710E94D60A36C06E
:10126000112329F08C2F8F710E94A00A2FC00E9499
:101270009B0A2CC0112349F0CF718C2F0E94B50A14
:1012800063E08C2F0E94BD0F21C081E00E94D80F27
:101290000230E0F082E00E94D80F18C0112331F034
:1012A000002391F28D2F0E94C60610C0002399F2F0
:1012B000D93349F41FEF27EE33E01150204030407E
:1012C000E1F700C000008D2F0E941C0788EF8C0DF5
:1012D000843020F40E94F3220E946D06DD20C9F0C4
:1012E0000E94170F80FD15C0F70112820E94110F96
:1012F0000E94B50AC7010E94AA090E94110FDF913E
:10130000CF911F910F91FF90EF90DF90CF900C94B1
:10131000D60ADF91CF911F910F91FF90EF90DF9050
:10132000CF9008950F931F93CF93DF93EC016881C3
:1013300079818A810E94F90B8C010E94520B0E94D4
:10134000430AB801CE010E947E07DF91CF911F9121
:101350000F910895CF93DF93EC01988189812B81C0
:101360003C81232B31F08F3F31F481E09F3F19F412
:1013700003C081E001C080E080FD19C0CE010E9461
:10138000130681110CC00E941B0F882381F08A81F3
:10139000882369F082E0DF91CF910C94D80FCE01C1
:1013A0000E949209CE01DF91CF910C94F005DF915C
:1013B000CF91089580E090E00E942E2380E090E09D
:1013C0000E9444230E94630F0E94660F0E94880FB0
:1013D0000E945F1A0C942E198091000190910101D6
:1013E0000E9406240C94DA090E94530F0C94EC0915
:1013F000E92FE295EF704E2F50E0FA013297EE3070
:10140000F105B0F4EF58FF4F0C946C2C803F91F035
:1014100018F4883E68F40EC0843F51F40BC0883E37
:1014200048F0813F29F406C093FB882780F908958E
:1014300080E0089581E00895FC01808191810E94FF
:10144000EE0B0E94F8090895CF93DF9300D000D0EF
:101450001F92CDB7DEB70F900F900F900F900F90A7
:10146000DF91CF910895CF93DF9300D000D000D0CB
:10147000CDB7DEB726960FB6F894DEBF0FBECDBF50
:10148000DF91CF910895089508950C94440A0C9427
:10149000450A0E94470A60933F027093400280937E
:1014A0004102909342020C94DA090C94490A0F937A
:1014B0001F9300913F021091400220914102309110
:1014C0004202602B712B822B932B1F910F910C9456
:1014D000490A0F931F9300913F02109140022091FF
:1014E00041023091420260237123822393231F9192
:1014F0000F910C94490A0F931F9300913F02109192
:1015000040022091410230914202602771278227D8
:1015100093271F910F910C94490A0C94440A0E943E
:101520008D0A60933B0270933C0280933D0290933E
:101530003E020C94DA0960E070E0CB010C948F0A53
:101540000F931F9341E050E060E070E08A019B013F
:1015500004C0000F111F221F331F8A95D2F7C90143
:10156000B8011F910F910C948F0A0F931F9341E0C4
:1015700050E060E070E004C0440F551F661F771F05
:101580008A95D2F780913B0290913C02A0913D0256
:10159000B0913E028A019B01082B192B2A2B3B2B71
:1015A000C901B8011F910F910C948F0A0F931F93DB
:1015B00041E050E060E070E004C0440F551F661F3A
:1015C000771F8A95D2F740955095609570958091D8
:1015D0003B0290913C02A0913D02B0913E028A01F3
:1015E0009B01082319232A233B23C901B8011F911A
:1015F0000F910C948F0A0F931F9341E050E060E02D
:1016000070E004C0440F551F661F771F8A95D2F7FC
:1016100080913B0290913C02A0913D02B0913E022C
:101620008A019B01082719272A273B27C901B801EE
:101630001F910F910C948F0A0F931F9300913B02FF
:1016400010913C0220913D0230913E02602B712BA3
:10165000822B932B1F910F910C948F0A0F931F9342
:1016600000913B0210913C0220913D0230913E02DC
:1016700060237123822393231F910F910C948F0A6F
:101680000F931F9300913B0210913C0220913D0269
:1016900030913E0260277127822793271F910F9177
:1016A0000C948F0A0895292F220F920F990F890FFA
:1016B000E82FE695E695E695877051E001C0550F55
:1016C0008A95EAF785E0E89FF0011124E35EFD4F7B
:1016D00020E030E070E04081CB01022E02C0969500
:1016E00087950A94E2F78170819584278523842762
:1016F00081932F5F3F4F2530310569F70895292FDA
:10170000220F920F990F890F682F6695669566953F
:10171000982F977085E0689FB001112440E050E059
:1017200080E0FB01E40FF51FE35EFD4F208130E018
:10173000092E02C0369527950A94E2F721703327C7
:10174000042E01C0220F0A94EAF7822B4F5F5F4FED
:101750004530510531F70895BF92CF92DF92EF9255
:10176000FF920F931F93CF93DF938C01C0903B02A6
:10177000D0903C02E0903D02F0903E0280913F020A
:1017800090914002A0914102B0914202C82AD92A08
:10179000EA2AFB2ACFE1D0E0D701C6010C2E04C013
:1017A000B695A795979587950A94D2F780FD04C0C2
:1017B000219790F7B12C07C0BC2EB8018C2F0E9446
:1017C000BA120197A9F38B2DDF91CF911F910F9141
:1017D000FF90EF90DF90CF90BF900895CF93DF936D
:1017E000EC010E94AC0BBE010E94BA12DF91CF91B6
:1017F00008951F93CF93DF93EB0190911C029923DF
:1018000021F0CB010E94EE0B13C0882349F0CB01DD
:101810000E94AC0B182F682FCE010E94530B04C0FE
:10182000CB010E947F0B182FBE01812F0E94BA129C
:10183000DF91CF911F9108951F93CF93DF93C091B4
:10184000430216E080914402C81799F0D0E01C9F33
:10185000F0011D9FF00D1124EB5BFD4F4081518184
:1018600062817381848195810E94330A2196C770B9
:10187000E9CFDF91CF911F9108954091750250916A
:10188000760260917702709178028091790290914E
:101890007A020C94330A0F931F93CF93DF938091B6
:1018A0007A0282958F7009F05DC08091770288235B
:1018B00009F458C08091430210914402609175026E
:1018C00070917602C0917802D091790291E06F3FD9
:1018D00009F090E0292F06E0811709F443C0209712
:1018E00021F07F3F21F030E003C031E001C0322F12
:1018F00090E030FD34C0089FF001099FF00D1124E5
:10190000DF01AB5BBD4F11963C911197371327C098
:101910003C91361324C012963C91129731111FC08E
:1019200013964D915C9114974C1B5D0B44365105F9
:10193000B0F480917A028F70806180937A02E65BC6
:10194000FD4F80818F708061808385E792E00E94E7
:10195000AA09DF91CF911F910F910C941C0C019655
:101960008770BACFDF91CF911F910F9108959F9209
:10197000AF92BF92CF92DF92EF92FF920F931F939D
:10198000CF93DF93CDB7DEB761970FB6F894DEBF84
:101990000FBECDBF8C0185E0F801DE011D960190E0
:1019A0000D928A95E1F7F801E280909175026091BD
:1019B000760220917802309179022115310531F0BB
:1019C0006F3F31F481E09F3F19F403C081E001C013
:1019D00080E0F82FF1709F2E80FD25C1F801408135
:1019E0005181A380B48085E7C82E82E0D82EF09084
:1019F0007702F501E21BF30BFF2009F4E5C08091AB
:101A00007A02E436F10508F0A1C0282F207F09F002
:101A100052C0561313C0491311C0FE2CE1100EC062
:101A20008F70806180937A020E943D0CC6010E94F3
:101A3000AA0980917A02F801858332C1AB2831F07E
:101A40005F3F31F481E04F3F19F403C081E001C0F2
:101A500080E080FD03C081E08E2502C080E090E040
:101A6000F82FF170FF2E80FF1CC08091430220915F
:101A7000440236E0821709F4F1C090E0389FF0018B
:101A8000399FF00D1124EB5BFD4F6181561306C0A9
:101A90006081461303C06281E61203C0019687701D
:101AA000E9CFFE2CEE2009F4FBC080917A02816020
:101AB00080937A0260C0561312C0491310C0E1101F
:101AC0000EC0F8018583C8010E94AA0986E0F801CA
:101AD000A5E7B2E001900D928A95E1F7BCC0C8017C
:101AE0000E941C0A882361F1EE2051F120917A02B4
:101AF000822F82958F7090E0029774F0809175022A
:101B00009091760298878F831986BB86AA862C8748
:101B1000CE0107960E94AA0986E0F801A5E7B2E087
:101B200001900D928A95E1F70E944B0C0E943D0CAA
:101B30000AC0561711F1C8010E941C0A81112CC05D
:101B4000C8010E94AA09FF24F394AAC0282F207F6D
:101B500081F77A2DB98AA88A6E2D89890E94240A74
:101B600085E792E00E94AA0986E0F60111928A9523
:101B7000E9F70E943D0CF12C93C04913DCCFE11032
:101B8000DACFF8018583C8010E94AA0986E0F60130
:101B900011928A95E9F784C0EE2091F220917A02A1
:101BA000822F82958F7090E002970CF4B5CF8091D0
:101BB0007502909176029A8389831B82BD82AC82E2
:101BC0002E83CE010196A6CFE436F105F8F4FE2C63
:101BD000EE2009F4B5CF56130BC0491309C086E0B7
:101BE000F801A5E7B2E001900D928A95E1F758C09F
:101BF000C8010E941C0A81118FCF80917A028160F6
:101C000080937A02C8010E94AA094AC07A2DB98A33
:101C1000A88A6E2D89890E94240A86E0F601119215
:101C20008A95E9F718C0EE2009F48ACFC8010E940E
:101C30001C0AF82E882309F483CF86E0F801A5E773
:101C4000B2E001900D928A95E1F785E792E00E945B
:101C5000C0060E944B0C0E943D0C22C04D875E873F
:101C60008D859E850E94EE0B292F22952F702230A4
:101C700028F49F7039F0811105C00BC0243028F47E
:101C80009F7049F4805E883020F0C8010E94AA0944
:101C90009F2CF92C05C0F8019581907F99F7F9CF19
:101CA0008F2D61960FB6F894DEBF0FBECDBFDF91CA
:101CB000CF911F910F91FF90EF90DF90CF90BF9049
:101CC000AF909F9008951F93CF93DF93CDB7DEB76A
:101CD0002C970FB6F894DEBF0FBECDBF4F83588749
:101CE00069877A878B879C87CE0107960E94B70CFD
:101CF0008823D1F09F8188852A853B85232B31F06D
:101D00008F3F31F481E09F3F19F403C081E001C0AF
:101D100080E080FD47C04F81588569857A858B8535
:101D20009C850E94330A3EC086E0FE013796DE01A4
:101D3000119601900D928A95E1F7FF81E8856A85F9
:101D40007B856115710531F0EF3F31F481E0FF3F94
:101D500019F403C081E001C080E080FD23C0209120
:101D6000440230E0C90101968770992740914302EF
:101D700050E084179507F1F1F983EA837D836C8342
:101D800096E0929FD001939FB00D1124AB5BBD4FA5
:101D9000FE01319601900D929A95E1F780934402ED
:101DA0000E941C0C16E08091430290914402891716
:101DB00071F1189FC00111248B5B9D4F0E94B70CDD
:101DC000882329F1E09143021E9FF0011124EB5B6F
:101DD000FD4F4081518162817381848195810E9490
:101DE000330A8091430290E001968770992780938F
:101DF0004302D9CF0E94F409109244021092430288
:101E0000E5E7F2E086E0DF011D928A95E9F72C967E
:101E10000FB6F894DEBF0FBECDBFDF91CF911F91FB
:101E2000089580917B02859585958595089580918B
:101E30007B028770089590917B02977081E009F48E
:101E400080E0089590913E0392FB222720F9281705
:101E500051F080FB92F990933E0380913D03909165
:101E60003E030C941F10089580913E0382FB882747
:101E700080F991E089270C94220F81E00C94220FC5
:101E800080E00C94220F80919F02089590919F0210
:101E9000892B80939F020895809590919F028923BA
:101EA00080939F02089510929F02089590919E0240
:101EB000892B80939E020895809590919E0289239C
:101EC00080939E02089510929E02089510929D02A2
:101ED000089580917C02089508950C946C0F0C94E1
:101EE0006D0F90913E0392FD08C090917C0298176F
:101EF00021F080937C020C946F0F089580917C02F6
:101F0000882329F010927C0280E00C946F0F0895D2
:101F1000E0910001F091010180919F028083E091A6
:101F20000001F0910101908180919E02892B8083B4
:101F3000E0910001F0910101908180919D02892B37
:101F4000808380917C02882381F0E0910001F091F0
:101F500001019081892B8083809100019091010182
:101F60000E945A2381110E947E0F8091000190915E
:101F700001010C9406230C946C0F90913E0392FD8A
:101F800010C098E0899F90011124262B20937B029A
:101F90000E94B50A80917B028595859585950C9464
:101FA000BB0F0C94B50A10927B0280E00C94BB0F1F
:101FB00020917B028095822380937B02982F9770DB
:101FC00041F430E0482F082E000C550B241735073C
:101FD00021F490913E0392FF07C0859585958595E4
:101FE0000E94D60A0C94D30F08956FEF7FEF80E024
:101FF00090E00C947E2F80E090E00E945A2F21E028
:10200000893E9E4F09F020E0822F089582E090E003
:102010000C94522F83E090E00C94522FCF9384E0E5
:1020200090E00E94522FC82F82E290E00E94522F2F
:102030002C2F30E0A901582BCA01CF910895CF93DE
:10204000C92F682F84E090E00E94602F6C2F82E2FD
:1020500090E0CF910C94602FAB01BC018FE090E039
:102060000C94722FAB01BC0183E190E00C94722FB1
:1020700060E070E0CB010C94321060E070E0CB01C6
:102080000E942C100C94381069EE7EEF80E090E0F6
:102090000E947E2F60E082E090E00E94602F60E06E
:1020A00083E090E00E94602F10923F021092400265
:1020B000109241021092420260E084E090E00E949F
:1020C000602F60E082E290E00E94602F60E085E097
:1020D00090E00E94602F60E086E090E00E94602F18
:1020E0006FEF87E090E00E94602F40E050E0BA017F
:1020F00088E090E00E94722F60E08DE090E00E9406
:10210000602F40E050E0BA0188E190E00E94722F19
:1021100060E087E190E00E94602F40E050E0BA016B
:102120008CE190E00E94722F60E070E080E290E02D
:102130000E947E2F40E050E0BA0188E190E00E94CA
:10214000722F0C943D100C944410682F8EE090E098
:102150000C94602F0E94ED246093AD027093AE0248
:102160008093AF029093B0026093A9027093AA0289
:102170008093AB029093AC02089585B7806885BFC9
:1021800085B7806885BF08950C94961508950C94C2
:10219000C6100C94C6100C94C9100C94C6100C9464
:1021A000CD100C94C6100E94BD1086E993E10E94E8
:1021B0005B250E94D1100C94CF100E94C7100C9484
:1021C000C6100E94D8240E9418240E9496140E94CF
:1021D0006D1A80E00E94C31A0C94CB108F929F92CC
:1021E000AF92BF92CF92DF92EF92FF920F931F9325
:1021F000CF93DF93CDB7DEB72A970FB6F894DEBF43
:102200000FBECDBF0E940B15982E81110E94AA10FF
:1022100081EAA82E82E0B82E00E010E0802E802F08
:102220000E94DA13D82EF501C1905F01C826B1F4DF
:102230000F5F1F4F0830110589F78FEF89838A835D
:102240001B820E94E1248160782F9D838C834981C9
:102250005A816B818D810E9476062FC08091B102D8
:1022600081FD0E94E013E12CFF24F3948C2D8F213B
:10227000F1F00E94C410882399F0EE828F82DF2053
:1022800081E009F480E088870E94E1248160782F52
:102290009A8789874E815F8168858A850E94760644
:1022A000F801EF55FD4F8081F826F08206C0E394D7
:1022B000FF0CF6E0EF12DACFBBCF0E94591D911050
:1022C0000E941B1C0E944C190E94F3229091A002B4
:1022D0008917C1F00E94F3228093A0022A960FB6BC
:1022E000F894DEBF0FBECDBFDF91CF911F910F914C
:1022F000FF90EF90DF90CF90BF90AF909F908F9026
:102300000C946D062A960FB6F894DEBF0FBECDBFB3
:10231000DF91CF911F910F91FF90EF90DF90CF90C1
:10232000BF90AF909F908F900895CF93DF930E94BE
:10233000BF12EC01811521E5920708F045C0811517
:1023400030E5930708F094C0883E910528F5803E5B
:10235000910508F0F8C0883A910570F4853A910526
:1023600008F07CC08130910509F475C008F4E8C01C
:10237000049708F0E8C0E4C08F3B910508F0E0C086
:10238000C85AD0E0CC0FDD1FC754DE4F0990D8816A
:10239000C02DCE019464D8C0811540E2940758F452
:1023A000811551E0950708F0CEC08D3E910508F4E7
:1023B000C7C09065C9C0C11580E4D80708F4C0C083
:1023C000DF70CE01906AC0C0811525E59207A8F4A0
:1023D000811534E5930708F095C0811543E594070E
:1023E00008F07BC0811552E5950708F061C0D82F31
:1023F000CC27CE01816F906AA7C0C11589E5D807A7
:10240000A0F4C11528E5D20708F082C0C11536E551
:10241000D30708F095C08C2F0E9453138F7190E062
:10242000D82FCC27CE0190628FC0C1154AE5D407C2
:1024300008F474C0CE0190568115904208F080C017
:102440008D2F8F710E945313DD27D0628F71AE01E3
:10245000582BCA0179C081E090E076C0C55AD0E01F
:10246000C951DE4F8881C82FD0E0CE0190646CC086
:1024700074E0969587957A95E1F7282F23703C2F85
:10248000337081E090E002C0880F991F3A95E2F71F
:102490009C68AC01522B9A019C2F9F709695969543
:1024A00050E2959FE0011124C9018C2B9D2B4CC05B
:1024B0008370992721E030E002C0220F331F8A95F4
:1024C000E2F79C2F9695969580E2989FE001112463
:1024D000C22BD32BCE019C6837C08370992721E093
:1024E00030E002C0220F331F8A95E2F79C2F9695A9
:1024F000969540E2949FE0011124C22BD32BCE018C
:102500009A6822C0D82FCC27CE01846F906A1CC055
:10251000DC2FCC27CE01806F906A16C08C2F8F7075
:102520000E94531394E0D695C7959A95E1F7CF7022
:10253000D0E0DC2FCC27D0699E01282BC90104C034
:1025400080E090E001C0CE01DF91CF91089520E3BB
:10255000829FC0011124FC0126E0729FE00DF11D55
:102560001124E60FF11DEE0FFF1FEB58FE4F859172
:10257000949108950E94A7120E949511089582389F
:10258000910569F1B0F48133910509F46DC048F407
:102590008932910509F463C08A32910509F469C052
:1025A00008958533910509F455C089339105B9F033
:1025B0000895833E910569F138F4803E9105B1F0AC
:1025C000823E910509F10895863E9105A9F1873E65
:1025D0009105B9F1843E910509F064C023C02091B2
:1025E0003D0320FD4FC021FD4DC0089580913D0366
:1025F00080FD44C080913E0380FF44C080913D0334
:1026000084FD42C083EE4DC080913D0382FF38C0FF
:10261000F5CF80913D0382FD33C080913E0380FD64
:1026200031C0ECCF80913E0381FF32C080913D03E9
:1026300084FD2AC087EE35C080913D0383FF26C00C
:10264000F5CF80913D0383FD21C080913E0381FD44
:102650001FC0ECCF80913D0385FD1CC01DC0809143
:102660003D0385FD19C016C080913D0386FD16C04F
:1026700017C080913D0386FD13C010C089E311C0CF
:1026800082EE0FC080EE0DC080E00BC086EE09C068
:1026900084EE07C089E205C085E303C08AE201C079
:1026A00081E390E0089590913D0392FF0DC0282FA3
:1026B0002871283019F4877F846006C0282F247180
:1026C000243011F48B7F886093FF0DC0282F287170
:1026D000283119F4877E846106C0282F24712431A3
:1026E00011F48B7E886120913E0320FF0DC0382FAE
:1026F0003871383019F4877F816006C0382F317106
:10270000313011F48E7F886021FF0DC0282F287191
:10271000283119F4877E816106C0282F217121316B
:1027200011F48E7E886194FD877E089580E008957F
:102730000C94F50F0E940B158FE39CE90197F1F7BC
:1027400000C000000E940B150E94AE15811102C04E
:1027500084E001C080E00E94DA1381FF04C00E947F
:1027600098130C944A2508950C949A130E94FB0F19
:10277000811102C00E94A3100E9406108093B10232
:102780000E940E1090933E0380933D030E94B41369
:102790000E940A10682F70E080E090E00E94550AC5
:1027A00060913B0270913C0280913D0290913E020B
:1027B0000C948D0AE82FF0E0E95BFC4F80810895CE
:1027C000089580EA8A95F1F7089500C008950C9461
:1027D000E11308950C94E9130C94EA130C94E91393
:1027E0000C94EE13F894E82FE295EF70F0E031A12D
:1027F000282F2F7081E090E001C0880F2A95EAF71A
:10280000982F9095932391A392A1892B82A37894DA
:10281000089508950C9409140F931F93CF93DF9399
:10282000C0EFD1E089918F3F11F00E94F21381E057
:10283000C43FD807B9F7CAEED1E000EF11E08991A3
:102840008F3F11F00E94F2130C171D07C1F7DF91A3
:10285000CF911F910F910895CF92DF92EF92FF9247
:102860000F931F93CF93DF938C01C62FD0E0CE013F
:1028700080519E4F7C01FC0190819F3F09F44DC027
:10288000D62EF894E92FE295EF70F0E081A19F70C9
:1028900021E030E001C0220F9A95EAF7822B81A354
:1028A00082A12095282322A378940E94E513EAEEC2
:1028B000F1E020E030E0C12C51E041914F3FB1F018
:1028C000A42FA295AF70B0E090968C9190E04F70DD
:1028D00002C0959587954A95E2F780FD07C0852F40
:1028E000022E01C0880F0A94EAF701C080E0C82ACE
:1028F0002F5F3F4F2630310501F7F70180818F3F71
:1029000011F00E94F21361E0C11001C060E08D2D52
:102910000E94E713C00FD11FC882DF91CF911F9192
:102920000F91FF90EF90DF90CF9008950E94B01527
:102930008091020180910201811102C094E001C0E6
:1029400090E09093500384E0891B80934F030E9492
:102950000C14EFE3F3E0A7E4B3E011921D9283E0DF
:10296000E734F807D1F784E00E945F150E94FB0569
:102970000C94BA151F93CF93DF9300D000D0CDB73E
:10298000DEB70E94961560915003882371F1198279
:102990001A821B821C82862F90E0BE016F5F7F4FE0
:1029A000895B9C4F0E94C815E0914F039E012B5FED
:1029B0003F4FF0E0E95BFC4FDE011196882361F0A8
:1029C00010E08D919081981711F0808311E031967D
:1029D000A217B307B1F706C011921D92A217B30751
:1029E000D9F711E00E9401060DC070E0695B7C4FD1
:1029F00080914F0390E0895B9C4F0E9458160E9483
:102A00000A1410E0812F0F900F900F900F90DF911C
:102A1000CF911F910895EF92FF920F931F93CF9341
:102A2000DF93CDB7DEB728970FB6F894DEBF0FBEA1
:102A3000CDBF8E010F5F1F4F88E0F80111928A957C
:102A4000E9F7F12C6F2DC8010E942C14F394F4E0E7
:102A5000FF12F8CF48E050E0B8018FE393E00E9406
:102A60007B2C7C0121E0892B09F420E0E114F104A6
:102A700041F088E0F801AFE3B3E001900D928A9550
:102A8000E1F76091500370E0695B7C4F44E08FE3B5
:102A900093E00E946015EF2819F40E94BA1402C056
:102AA00081E090E028960FB6F894DEBF0FBECDBF50
:102AB000DF91CF911F910F91FF90EF9008950895AE
:102AC000FF920F931F93CF93DF938C01F62ED72F96
:102AD000C42F222349F081E08093B4020E94E124B4
:102AE0009093B3028093B2028091B4028823C1F024
:102AF0008091B2029091B3020E94F924059780F070
:102B0000EF2DFD2FD8014C2F50E0CD01801B910BF4
:102B1000841795071CF48D918193F7CF1092B4021E
:102B2000DF91CF911F910F91FF9008958091B7028F
:102B300081110DC00E942B2C811102C082E001C0C6
:102B400081E08093B702823011F40E94262C81E04C
:102B50009091B702913009F080E008950C94961599
:102B60000E94AE15809302010E94961581110C946B
:102B7000001608950E949615811102C00C94021649
:102B8000089581E09091B8029A3008F080E00895AD
:102B90000F931F93CF93DF93EC018B018091B802C9
:102BA0008A3038F4B801CE010E94561681111DC03A
:102BB0000AC08091B5029091B6020E94F924843F28
:102BC000914080F715C08091B8028F3F19F08F5F58
:102BD0008093B8028091B8028A3060F00E94E124AC
:102BE0009093B6028093B50203C01092B80202C05F
:102BF00080E001C081E0DF91CF911F910F91089596
:102C00000C9429210C942C21EF92FF920F931F9387
:102C1000CF93DF937901C82F880FDD0B4115510544
:102C2000A9F08AE08C9FF0018D9FF00D1124ED5FDB
:102C3000FE4F8381948187549D4F228130E042175B
:102C4000530708F49A01A9010E94882CCE010E9422
:102C50003622892B09F50115110501F18AE08C9FB7
:102C6000F0018D9FF00D1124ED5FFE4F458150E086
:102C70000417150708F4A8018AE08C9FF0018D9FC6
:102C8000F00D1124ED5FFE4F6681778167547D4F13
:102C9000C7010E94882C02C080E001C081E0DF9162
:102CA000CF911F910F91FF90EF9008950C94791799
:102CB0000C9495170F931F93CF93DF9300D000D000
:102CC000CDB7DEB76091CE027091CF028091D00275
:102CD0009091D1020E940825643671058105910505
:102CE00028F10E943E24DC01CB010296A11DB11DFA
:102CF00089839A83AB83BC8300E010E020E030E05E
:102D000044E050E0BE016F5F7F4F82E00E940416F6
:102D1000182F882361F00E94ED246093CE027093F7
:102D2000CF028093D0029093D10201C011E0812F95
:102D30000F900F900F900F90DF91CF911F910F91F7
:102D40000895AF92BF92CF92DF92EF92FF920F93CE
:102D50001F93CF93DF937C015B016A010E94C11531
:102D6000811103C001E010E002C00AE010E0C1E000
:102D7000D0E0F894B501C701F60109957894811166
:102D800015C021960C171D0794F0CC9F9001CD9F84
:102D9000300D300D112480E090E045E34A95F1F7C5
:102DA0000000019682179307C1F7E3CF81E0DF911E
:102DB000CF911F910F91FF90EF90DF90CF90BF9038
:102DC000AF900895AF92BF92CF92DF92EF92FF92B1
:102DD0000F931F93CF93DF9300D000D01F92CDB7F6
:102DE000DEB75B01E090F801F090F90101E010E03E
:102DF0009E012B5F3F4F40E050E060E070E080E0DC
:102E00000E940416182F882309F43EC067018FEF33
:102E1000C81AD80A6091CA027091CB028091CC0284
:102E20009091CD020E9408256436710581059105B7
:102E300018F104E010E09E012F5F3F4F40E050E0AA
:102E400060E070E081E00E940416182F64E070E0FA
:102E5000C6010E946E1A91E02D81281390E019237B
:102E600051F10E94ED246093CA027093CB028093CB
:102E7000CC029093CD0211C064E070E0C6010E94C4
:102E80006E1A9D818913D5CFF70181819281A3812B
:102E9000B48189839A83AB83BC83112361F08981D8
:102EA0009A81AB81BC818093C6029093C702A093A4
:102EB000C802B093C9028091C6029091C702A09146
:102EC000C802B091C902F50180839183A283B383C4
:102ED000812F0F900F900F900F900F90DF91CF9157
:102EE0001F910F91FF90EF90DF90CF90BF90AF9028
:102EF00008950F931F93CF93DF93EC018B0142EE64
:102F000056E10E94A116882351F04AE556E1B80126
:102F1000CE01DF91CF911F910F910C94A11680E00B
:102F2000DF91CF911F910F9108950F931F93CF932E
:102F3000DF93F894C091F801D091F901CE01019688
:102F400024E0FB01DC0101900D922A95E1F764E099
:102F500070E00E946E1A88837894F8946D817E8167
:102F60008F8198850091C2021091C3022091C40202
:102F70003091C502601771078207930751F0609383
:102F8000C2027093C3028093C4029093C5020E9450
:102F900021247894DF91CF911F910F9108950E9481
:102FA00059240E94D1260E94EA260E94FC260E94F3
:102FB000DD10FBCF8091D80280FF0BC0609126010D
:102FC00085E0689FB00111247595679575956795A3
:102FD0002BC081FF09C06091260185E0689FB00188
:102FE00011247595679520C082FF07C06091260166
:102FF00085E0689FB001112417C09091D7029923F2
:10300000D1F060912501961788F72091260185E07F
:10301000289F90011124929FA001939F500D11248D
:1030200070E0CA010E94582C6038710540F46115A7
:10303000710519F406C065E070E0862F08958FE7EA
:10304000089581E008958091D80280FF08C06091C2
:10305000220170E0759567957595679521C081FF90
:1030600006C06091220170E07595679519C082FFD6
:1030700004C06091220170E010C09091D6029923A3
:1030800099F0609121019617A0F780912201899F04
:10309000C001112470E00E94582C6038710540F482
:1030A0006115710519F406C061E070E0862F08957E
:1030B0008FE7089581E008958D3E21F40E94DA178C
:1030C000819504C08E3E29F40E94DA178093DC02B9
:1030D00008958F3E21F40E94DA17819504C0803F45
:1030E00029F40E94DA178093DB020895893F19F4CE
:1030F0000E94231805C08A3F31F40E94231881954D
:103100008093DD0208958B3F21F40E94231881955E
:1031100004C08C3F29F40E9423188093DE02089596
:103120009FE0980F983078F421E030E0A90102C0C8
:10313000440F551F9A95E2F7CA019091DA02892B44
:103140008093DA0208958D3F21F48091D802816046
:103150000BC08E3F21F48091D802826005C08F3F62
:1031600029F48091D80284608093D80208958D3E1E
:1031700039F49091DC0297FF35C01092DC0259C0FF
:103180008E3E29F49091DC021916BCF32BC090916D
:10319000DB028F3E29F497FF25C01092DB0249C065
:1031A000803F19F41916CCF31DC09091DD02893FC0
:1031B00029F41916BCF41092DD023BC08A3F19F4C1
:1031C00097FF10C0F8CF8B3F39F49091DE0297FF44
:1031D00009C01092DE022DC08C3F21F49091DE02D6
:1031E0001916BCF39FE0980F983080F421E030E08E
:1031F000A90102C0440F551F9A95E2F7CA018095B4
:103200009091DA0289238093DA0213C08D3F21F472
:103210008091D8028E7F0BC08E3F21F48091D8021E
:103220008D7F05C08F3F29F48091D8028B7F8093DA
:10323000D8028091DB02811106C08091DC028111ED
:1032400002C01092D7028091DD02811106C08091E8
:10325000DE02811102C01092D60208950E94E1247C
:103260002091DB02211104C02091DC02222321F0F5
:103270009093D5028093D4022091DD02211104C0E5
:103280002091DE02222321F09093D3028093D20278
:1032900089ED92E00C942023EF92FF920F931F93FD
:1032A000CF93DF9300D000D000D0CDB7DEB786E05B
:1032B000E9EDF2E0DE01119601900D928A95E1F7B9
:1032C000E090DB02F090DC020091DD021091DE0262
:1032D0001092DB021092DC021092DD021092DE02EC
:1032E000E11003C0FF2009F45DC08091D4029091E9
:1032F000D5020E94F924AC019091D702992339F0AC
:103300002091270130E02417350758F04BC0209159
:1033100028018AE0289F900111242417350718F00E
:1033200041C09F3F19F09F5F9093D702EE2061F05C
:103330000E94DA171E1414F09FEF01C091E0989FCD
:10334000902D11249093DB02FF2061F00E94DA1788
:103350001F1414F09FEF01C091E0989F902D11244D
:103360009093DC023091DB023323E1F02091DC0208
:103370002223C1F045EB3403C0011124992319F035
:103380009093DB0203C081E08093DB0235EB2303E3
:10339000C0011124992319F09093DC0203C081E04D
:1033A0008093DC02011103C0112309F45DC08091F8
:1033B000D2029091D3020E94F924AC019091D602DE
:1033C000992339F02091230130E02417350758F074
:1033D0004BC0209124018AE0289F900111242417DA
:1033E000350718F041C09F3F19F09F5F9093D602B8
:1033F000002361F00E942318101614F09FEF01C003
:1034000091E0989F902D11249093DD02112361F09B
:103410000E942318111614F09FEF01C091E0989FAD
:10342000902D11249093DE023091DD023323E1F0E0
:103430002091DE022223C1F045EB3403C0011124A8
:10344000992319F09093DD0203C081E08093DD029F
:1034500035EB2303C0011124992319F09093DE0268
:1034600003C081E08093DE028091DB0281110BC0FA
:103470008091DC02811107C08091DD02811103C0BF
:103480008091DE0281110E942E19EB82FC820D8355
:103490001E8386E0FE013196A9EDB2E001900D9207
:1034A0008A95E1F726960FB6F894DEBF0FBECDBF22
:1034B000DF91CF911F910F91FF90EF900895E9ED6B
:1034C000F2E086E0DF011D928A95E9F71092D702BB
:1034D0001092D6021092D80208950895FC01680F48
:1034E000791F8FEF91E3E617F70771F0219182279B
:1034F00028E030E087FF03C0880F892701C0880FCC
:1035000021503109B9F7EFCF0895EF92FF920F9351
:103510001F93CF93DF93EC017B0164E670E088E7B3
:103520000E94C31F8C01EC0EFD1ECE15DF0561F05D
:1035300017FD0AC0FE01849164E670E00E944420F9
:103540008C012196892B89F30E94C820C801DF9144
:10355000CF911F910F91FF90EF900895E2E5F3E076
:1035600080E092E0DF019C011D9221503040E1F7A4
:10357000F0935905E09358058FEF9FEF90930B035D
:1035800080930A0308950E9429058093060380FD15
:1035900002C080E801C080E2809305030E94BD1F45
:1035A0006DE070E08CE093E00E94851A892B11F0A9
:1035B00080E008958091060363E070E081FD03C020
:1035C00089E093E002C086E093E00E94851A892B8F
:1035D00079F76DE070E089EF92E00E94851A892BFF
:1035E00039F70E94ED24DC01CB01805A9541AF4FA1
:1035F000BF4F8093540590935505A0935605B09303
:1036000057050E94AE1A81E0809309038093080356
:103610001092070308952091050336E0839FC001AF
:103620001124629F800D911D1124811522E09207C3
:1036300014F080E090E08E5A9C4F9093590580934F
:103640005805089520915805309159052C54334060
:1036500040910503642F70E0C9010E94442C481B6F
:10366000463010F4240F311D211582E0380710F088
:1036700020E030E02E5A3C4F3093590520935805F6
:103680000895CF93DF938A3011F481E003C08D3029
:1036900029F480E0DF91CF910C94B71BC62F682FDF
:1036A000809158059091590526E0FC01AFEDB2E0FC
:1036B00001900D922A95E1F7603E30F026E0FC0182
:1036C00011922A95E9F70AC0F6E06F9FB001112424
:1036D000675E7C4F46E050E00E94722CC11135C0FD
:1036E000C0915805D091590546E050E0BE018FEDDC
:1036F00092E00E947B2C892BB1F1C255D3409E01F0
:1037000085E0369527958A95E1F781E090E0AC0158
:1037100002C0440F551F2A95E2F720910A03309109
:103720000B03242B352B259645E0D695C7954A9556
:10373000E1F702C0880F991FCA95E2F7822B932BFD
:1037400090930B0380930A030EC0E0915805F0910B
:1037500059059F012A5F3F4F2E173F0709F28081CD
:1037600080958193F9CFDF91CF910C94221BCF9359
:10377000E82F20915805309159052255334040914A
:103780000503642F70E0C9010E94442C481B842F5C
:10379000EE2359F066E00E94382CC82FC150B0F0DB
:1037A00060E080E20E94411BF9CFA901480F511D42
:1037B0004115524018F080E020E030E0280F311D24
:1037C0002E5A3C4F3093590520935805CF910895B8
:1037D000FF920F931F93CF93DF93EC01F62EFC0122
:1037E00001900020E9F78F0101501109C017D1079E
:1037F00028F46F2D89910E94411BF8CFDF91CF9162
:103800001F910F91FF9008951F93CF93DF93EC01C9
:10381000162FFE018491882329F0612F0E94411BFD
:103820002196F7CFDF91CF911F9108950E94041C3C
:1038300081E00C94B71B809109038823F9F00E9462
:10384000ED24DC01CB01805A9541AF4FBF4F8093EF
:10385000540590935505A0935605B0935705809154
:10386000080381110BC062E070E087EF92E00E94D4
:10387000851A892B19F481E080930803809108034D
:1038800008956F927F928F929F92AF92BF92CF9244
:10389000DF92EF92FF920F931F93CF93DF9380916C
:1038A0000903882309F4DCC020910A0330910B033B
:1038B0002115310509F4D4C0809107038111D0C0CE
:1038C00061E070E0082F10E03B01082E02C0660C9A
:1038D000771C0A94E2F7A90146215721452B11F4E0
:1038E0008F5FF0CF90910603980165E0220F331FA0
:1038F0006A95E1F790FD12C08295880F80768093DB
:103900002B01220F232F221F330B319520932E01E1
:10391000815E80932C0110922F0112C045E03695F4
:1039200027954A95E1F7220F220F220F20932B01B2
:1039300010922E01295F20932C0183E080932F01A8
:1039400024E630E047E050E069E271E088E70E9459
:103950007420892B09F084C08091060380FD23C068
:10396000A80195E0440F551F9A95E1F74E5A5C4F18
:1039700004E610E020E230E060E488E70E949B204B
:10398000892B09F06DC00E941B1CE301C095D095E6
:1039900080910A0390910B03C823D923D0930B0382
:1039A000C0930A035DC080E2E5EEF2E0DF011D9204
:1039B0008A95E9F785E0000F111F8A95E1F7AEEFD0
:1039C000B1E04AEF51E0992493942D91EA01899155
:1039D000AE01B801680F711D6E5A7C4F30E02B515B
:1039E0003D4FF90197E07F01E21AF30AA92C01C0CB
:1039F000AA0CEA94EAF77B01B12CE70189917E01D8
:103A00008A21892E8B18D82DD770CD2E0D2E000C23
:103A1000DD08C82F01C0CC0FDA95EAF7D194C19424
:103A2000D108D7E0CD22DD2401C08695CA94EAF7FB
:103A30008C2BD0808D298083B39488E0B812DDCFA1
:103A4000915031969F3F79F6C2E0A230BC0709F051
:103A5000BCCF04E610E020E230E045EE52E08CCF2F
:103A6000DF91CF911F910F91FF90EF90DF90CF905A
:103A7000BF90AF909F908F907F906F9008958091AE
:103A8000090390910803882389F0992369F062E083
:103A900070E085EF92E00E94851A892B19F08091E1
:103AA00008030895109208039091080381E0892784
:103AB00008950F931F9380910903882399F18091B2
:103AC0005205909153050E94F924C29760F00E941C
:103AD000E124909353058093520560E080E00E94BA
:103AE0000B1B0E949A050E94411C809108038823A9
:103AF000C9F00E94ED2400915405109155052091C4
:103B0000560530915705DC01CB01801B910BA20BB0
:103B1000B30B8F3F9F4FAF4FBF4720F41F910F91C3
:103B20000C943F1D1F910F9108950F931F93CF93F6
:103B3000DF93C42FD22FFC0182818823C9F04093E8
:103B40000E030E94E12490930D0380930C0380E206
:103B50008C0F883008F057C0C77081E001C0880F13
:103B6000CA95EAF7DF91CF911F910F910C947007DE
:103B700080910E03481330C080910C0390910D0387
:103B80000E94F9248436910538F510E21D0FCD17F7
:103B9000B9F080E28C0F883040F4C77081E001C03A
:103BA000880FCA95EAF70E947707183028F581E058
:103BB0009D2F977001C0880F9A95EAF70E947007B1
:103BC000802F0E9467071830F0F4D77081E001C0A1
:103BD000880FDA95EAF70AC080E28C0F883098F4F3
:103BE000C77081E001C0880FCA95EAF7DF91CF91D5
:103BF0001F910F910C947707802FDF91CF911F9128
:103C00000F910C946707DF91CF911F910F91089549
:103C10000F939C01CB01243F4CE5340731F188F42C
:103C2000293DFCE53F07D9F02A3D4CE5340779F101
:103C3000283D3C45A9F506E221EE41EE68ED7CE524
:103C40002BC0263FFCE53F07E1F0A8F0273F3C45AD
:103C500039F507E225EE46EE67EF7CE51DC007E289
:103C600025EE45EE69ED7CE517C006E221EE40EE5B
:103C700064EF7CE511C007E225EE44EE65EF7CE5DC
:103C80000BC006E221EE42EE66EF7CE505C008E2DD
:103C900021E045EE6AED7CE50E94951D80E008C0BC
:103CA000FC018281882319F010920E0301C081E08B
:103CB0000F910895CF93DF93EC01FB01828188235C
:103CC00009F426C1C430FDE5DF0760F4CB3F9CE575
:103CD000D90768F49E0122503C452431310508F093
:103CE00018C105C0C236EDE5DE0709F012C10E9419
:103CF0000E1090933E0380933D03C031FCE5DF0737
:103D000009F4CAC008F041C0C8309CE5D90709F4DD
:103D1000A4C0F0F4C430FCE5DF0709F48CC068F4FB
:103D2000C2309CE5D90709F482C0C330DC4509F0F4
:103D3000E5C080913D038260DFC0C630FCE5DF074F
:103D400009F483C008F085C080913D038860D4C029
:103D5000CC309CE5D90709F490C068F4CA30FCE582
:103D6000DF0709F47EC008F084C00E94F409809146
:103D70003D038068C1C0CE309CE5D90709F481C0FD
:103D800008F086C080913D0394C0CD3FFCE5DF077D
:103D900009F47BC038F5C4319CE5D90709F49AC011
:103DA00058F4C231FCE5DF0709F47AC008F07EC0A0
:103DB00080913D038F7BA0C0CB3F9CE5D907F1F1FB
:103DC00008F03FC0C531DC4509F098C080913D0343
:103DD00082FB222720F991E0922790FB82F990FB49
:103DE00083F98AC0C1308DE5D80709F467C050F463
:103DF00080913E03CF3FECE5DE07C1F108F05BC0E8
:103E00008D7F65C0C3308DE5D80709F471C008F413
:103E10006DC0C236DD4509F071C080913D0384FB61
:103E2000222720F991E0922790FB84F965C08091C8
:103E30003D03816061C080913D0316C080913E03C7
:103E400016C080913E03826042C080913D03806134
:103E500053C080913D0380624FC080913D038064D8
:103E60004BC080913D038860846046C08260816061
:103E70002EC080913D038E7F3FC080913D038D7F9A
:103E80003BC080913D03877F37C080913E0314C0C3
:103E900080913D038F7E30C080913D038F7D2CC08B
:103EA0000E94F40980913D038F7726C080913D03E5
:103EB000877F8B7F21C08D7F8E7F09C080913E03DD
:103EC000982F909591708E7F892B90FB81F980932C
:103ED0003E0314C00E94F40980913D0387FB222712
:103EE00020F991E0922790FB87F906C081E001C09C
:103EF00080E00E94A51002C080933D0380913D03A5
:103F000090913E030E941F100E94F40980E001C0BE
:103F100081E0DF91CF910895CF93DF9386319C4567
:103F200041F5EB010E94430F982F8A8120910001F7
:103F300030910101882379F09A7A81E009F480E0D8
:103F400080930F03911102C069E201C065E3C901CA
:103F50000E94F0230AC080910F03811102C069E220
:103F600001C065E3C9010E94FB230E94880F80E025
:103F700001C081E0DF91CF9108951092B9008CE0EB
:103F80008093B80008959F92AF92BF92CF92DF9234
:103F9000EF92FF920F931F93CF93DF93B82EEB0115
:103FA0000E94E1246C01C431D10558F0CF3F8FEF5E
:103FB000D80759F0CE0164E170E00E94442C7B01E7
:103FC00007C0EE24E394F12C03C025E0E22EF12C8F
:103FD00084E8A82E94EA992E1092BC009092BC001E
:103FE0000E94E1248C018091BC0087FD08C00E94E2
:103FF000E124801B910B8E159F05A8F32AC08091A8
:10400000B900887F883041F08091B900887F803185
:1040100019F00FEF1FEF1FC0B092BB00A092BC00C1
:104020000E94E1248C018091BC0087FD08C00E94A1
:10403000E124801B910B8E159F05A8F30AC0809187
:10404000B900887F883111F0803419F700E010E062
:104050000EC00EEF1FEFCF3F8FEFD80709F4BCCF94
:10406000C6010E94F9248C179D0708F4B5CFC8013A
:10407000DF91CF911F910F91FF90EF90DF90CF9044
:10408000BF90AF909F9008950F931F93CF93DF93AE
:10409000EB018093BB0084E88093BC000E94E12484
:1040A0008C018091BC0087FD0EC0CF3F8FEFD807F9
:1040B000C1F30E94E124801B910B8C179D0788F3AC
:1040C0008EEF9FEF0CC02091B900287F81E090E037
:1040D000283211F480E090E0919581959109DF916B
:1040E000CF911F910F910895CF92DF92EF92FF929F
:1040F0000F931F93CF93DF936B018A017901B9016D
:104100000E94C31FE6010C0D1D1DC017D10761F4ED
:1041100024E92093BC00DF91CF911F910F91FF9074
:10412000EF90DF90CF90089597FDF2CFB70189917E
:104130000E944420EACFCF92DF92EF92FF920F933A
:104140001F93CF93DF93C62F6A017901B8010E94B4
:10415000C31F97FD11C0B8018C2F0E944420E601B7
:10416000EC0CFD1CCE15DF0539F097FD05C0B8013C
:1041700089910E944420F6CF24E92093BC00DF916E
:10418000CF911F910F91FF90EF90DF90CF90089506
:1041900084E98093BC0008958EE14A9B02C081505F
:1041A000E1F74A9BFECF08955A9880E28A95F1F78D
:1041B0005A9A0895FC012AE02A95F1F728E090E048
:1041C00080E031E040E14A95F1F7880F4A9B02C058
:1041D0008160932700C0000040E14A95F1F721502B
:1041E00089F720E12A95F1F729B100C0000030E1FC
:1041F0003A95F1F722FB222720F992272081920F8E
:1042000090830895EF92FF920F931F93CF93DF93C4
:104210001F92CDB7DEB719828C017C01E60EF11C2E
:104220000E151F0551F00E94CC20CE0101960E9470
:10423000DA20F80181938F01F3CF81E09981911108
:1042400080E00F90DF91CF911F910F91FF90EF9041
:104250000895529A5A9A089552985A9AEA9AE9E613
:10426000F0E080818F7C80830895615091E001C0EF
:10427000990F6A95EAF720E031E0992361F0492F20
:10428000482319F05A9A232701C05A9840E24A95C8
:10429000F1F79695F2CF222311F05A9A01C05A985D
:1042A00080E28A95F1F75A980895FF920F931F9331
:1042B000CF93DF93EC018C01060F111DC017D107BE
:1042C00041F0F9900E94D42068E08F2D0E943521A2
:1042D000F5CFDF91CF911F910F91FF9008951F921D
:1042E0000F920FB60F921124EF92FF920F931F932C
:1042F0002F933F934F935F936F937F938F939F93EE
:10430000AF93BF93EF93FF93CF93DF931F92CDB7FC
:10431000DEB719820E94CC20CE0101960E94DA20DD
:10432000A82FA695A695A6959A2F969595702A2FB3
:104330002570920F292F237096959695920F87706E
:1043400089137CC08981811179C0A43008F076C0BE
:1043500080E18A95F1F75A9A529AB2E0BA95F1F74C
:1043600000C05A98EA2EF12CEAE0AE9FD001112449
:10437000AD5FBE4F1896ED91FC9119973097B1F053
:104380006091F8017091F90116962D913C91179763
:10439000260F371F13968D919C911497680F791FE4
:1043A00015964C91159712968C9109958AE08E9DE1
:1043B000F0018F9DF00D1124ED5FFE4F65816623A6
:1043C00051F08091F8019091F90126813781820F97
:1043D000931F0E9455210E94D420F0E1FA95F1F735
:1043E0005A9852985A9A80E18A95F1F78AE08E9D00
:1043F00080018F9D100D11240D5F1E4FD801129664
:104400006C911297662399F08091F8019091F901CF
:1044100013962D913C911497820F931F0E940221B5
:10442000D801ED91FC91811105C082E004C0D80152
:10443000ED91FC9188E080830E94CC200F90DF9169
:10444000CF91FF91EF91BF91AF919F918F917F910C
:104450006F915F914F913F912F911F910F91FF901D
:10446000EF900F900FBE0F901F9018950F931F9312
:10447000CF93DF93843091050CF0A9C02AE0289FE8
:10448000F001299FF00D1124ED5FFE4F2081318155
:10449000232B09F49CC0EC01F894529A5A9885E0B9
:1044A0008A95F1F700008C2F869585709C2F95706A
:1044B000890F982F9370869586958E0123E0000FC3
:1044C000111F2A95E1F7890F082B0E94D420A4E040
:1044D000AA95F1F700C068E0802F0E943521B0E175
:1044E000BA95F1F752985A9A4A9902C000C0FCCF87
:1044F00087E090E04A9B17C0019799F4529A5A9A24
:104500008AE08C9FF0018D9FF00D1124ED5FFE4F2E
:104510000190F081E02D81E08083789481E090E04B
:1045200058C000C0E7CF8AE08C9F80018D9F100D9E
:1045300011240D5F1E4FF80165816623B9F080914B
:10454000F8019091F90126813781820F931F0E9413
:10455000022181110BC0529A5A9AD801ED91FC9117
:1045600082E08083789482E090E033C00E94CC2087
:10457000B0E2BA95F1F75A98529AE0E1EA95F1F76C
:104580008AE08C9FF0018D9FF00D1124ED5FFE4FAE
:104590006281662351F08091F8019091F9012381A5
:1045A0003481820F931F0E9455210E94D4208AE0FB
:1045B0008C9FF0018D9FF00D1124ED5FFE4F019057
:1045C000F081E02D1082789480E090E002C084E0D9
:1045D00090E0DF91CF911F910F9108959093160372
:1045E0008093150308950E949615811103C0809150
:1045F00010030895E0911503F0911603309721F010
:104600000190F081E02D099480E00895E091150378
:10461000F0911603309799F020913A01222359F036
:1046200020913D0327FF07C0DC012C9111962C93AC
:10463000119725E02C930280F381E02D09940895D1
:10464000E0911503F0911603309739F022E0DC0178
:104650002C930480F581E02D099408952091130393
:10466000309114032817390771F090931403809345
:104670001303E0911503F0911603309721F00680A3
:10468000F781E02D099408952091110330911203D0
:104690002817390771F09093120380931103E0916A
:1046A0001503F0911603309721F00084F185E02D79
:1046B00009940895FC01329680913A01882331F0E3
:1046C00080913D0387FF02C09EE101C096E080E03B
:1046D000915028F021912223D9F38F5FF9CF0895CB
:1046E000662351F120913A012223E9F020913D0304
:1046F00027FF19C0462F4695469546954E31E0F462
:10470000677021E030E002C0220F331F6A95E2F7A4
:10471000FC01E40FF11D828190E02823392381E020
:10472000232B69F409C0FC01329608962191621787
:1047300029F0E817F907D1F780E0089581E008959E
:104740009C01FC0132969FEF80E04191461789F071
:104750009F3F19F4411101C0982F8F5F8630A9F750
:104760009F3F39F0F901E90FF11D97FDFA9562833A
:10477000089508959C012A5F3F4FFC014281461332
:1047800001C01282019682179307B9F70895262F68
:104790002695269526952E3168F4FC01E20FF11D31
:1047A000677021E030E001C0220F6A95EAF782814C
:1047B000282B22830895262F2695269526952E317F
:1047C00070F4FC01E20FF11D677021E030E001C0E0
:1047D000220F6A95EAF72095828128232283089583
:1047E00020913A01222329F020913D0327FD0C94CA
:1047F000C7230C94A02320913A01222329F0209171
:104800003D0327FD0C94DB230C94BA2320913A013D
:10481000FC013296222331F080913D0387FF02C0D4
:104820008EE101C086E0DF011D928A95E9F70895C7
:1048300010925A0510925B0510925C0510925D056E
:104840000895CF92DF92EF92FF926B017C010E945C
:10485000961581110EC00E94ED24C61AD70AE80AE7
:10486000F90AC0925A05D0925B05E0925C05F0927D
:104870005D05FF90EF90DF90CF9008950F931F9309
:104880000E949615882321F01F910F910C94ED241E
:104890000E94ED2400915A0510915B0520915C0562
:1048A00030915D05600F711F821F931F1F910F9143
:1048B0000895089508950C945A240C945A24CF9383
:1048C0000E945D240E940B150E945B24C0E08C2F87
:1048D0000E94DA13811104C0CF5FC830C1F701C054
:1048E00081E0CF9108950C945A240C947324809104
:1048F0006605843049F10E94752480E00E946D06AF
:104900001092170320E488E190E00FB6F894A89580
:10491000809360000FBE2093600083B7817F846026
:1049200083BF83B7816083BF7894889583B78E7F78
:1049300083BF0FB6F894A89580916000886180933A
:104940006000109260000FBE08950C945A240E94DB
:10495000F4090E94F3220E946D060C94A5241F9274
:104960000F920FB60F9211248F939F93AF93BF9323
:1049700080911703811113C080915E0590915F05AE
:10498000A0916005B09161054196A11DB11D809374
:104990005E0590935F05A0936005B0936105BF919C
:1049A000AF919F918F910F900FBE0F901F90189510
:1049B00082E084BD93E095BD9AEF97BD80936E0031
:1049C00008952FB7F89480915E0590915F05A091AE
:1049D0006005B09161052FBF08952FB7F8946091DD
:1049E0005E0570915F0580916005909161052FBF14
:1049F00008959C014FB7F89480915E0590915F05F2
:104A0000A0916005B09161054FBF821B930B089583
:104A1000CF92DF92EF92FF922FB7F894C0905E058D
:104A2000D0905F05E0906005F09061052FBFA70171
:104A30009601261B370B480B590BCA01B901FF9091
:104A4000EF90DF90CF90089578941F920F920FB659
:104A50000F9211248F939F93AF93BF9380915E0524
:104A600090915F05A0916005B09161050196A11D2F
:104A7000B11D80935E0590935F05A0936005B09390
:104A80006105BF91AF919F918F910F900FBE0F90D5
:104A90001F90189587E797E7909301088093000887
:104AA0009AE088E10FB6F894A895809360000FBE55
:104AB00090936000FFCF90930302809302020895C9
:104AC00080913B03089590916605943031F5809371
:104AD000180370931A036093190382E08093E9002E
:104AE0008FEF9091E800815095FD06C095ED9A9565
:104AF000F1F700008111F5CF8091E80085FF0DC02E
:104B000040E050E063E070E088E193E00E94882795
:104B10008091E8008E778093E8000895BC0184E0DE
:104B20000C946325BC0183E00C94632522E0209360
:104B3000E9002FEF3091E800215035FD06C035ED3A
:104B40003A95F1F700002111F5CF2091E80025FFFB
:104B50000BC040E050E066E070E00E948827809142
:104B6000E8008E778093E8000895CF93DF9320913B
:104B70003A01222339F020913D0327FF03C060E270
:104B800022E002C068E021E02093E9002FEF30919D
:104B9000E800215035FD06C035ED3A95F1F70000EB
:104BA0002111F5CF2091E80025FF1DC0EC01809177
:104BB0003A01811105C040E050E068E070E003C0B8
:104BC00070E040E050E0CE010E9488278091E8002C
:104BD0008E778093E80080E2FE01ABE1B3E00190C4
:104BE0000D928A95E1F7DF91CF9108958091650547
:104BF000811109C00E9419290E9476298091E20042
:104C000084608093E20008951092650508950895E8
:104C10000895089542E061EC81E00E94922842E20A
:104C200061EC82E00C94922880916805833009F44D
:104C300060C030F4813071F0823009F499C0089579
:104C40008A3009F485C08B3009F46BC0893009F0D3
:104C5000A7C020C080916705813A09F0A1C080916A
:104C6000E800877F8093E80080916B0590916C0548
:104C7000892B21F460E28BE193E003C060E080E0E7
:104C800090E070E00E94D3278091E8008B778093BA
:104C9000E800089580916705813209F081C0809114
:104CA0006B0590916C05029708F07AC08091E8003E
:104CB000877F8093E8008091E80082FD05C08091A5
:104CC00066058111F8CF6CC02091F3008091F2004D
:104CD00090E0922B029729F48091F1008B7F813034
:104CE00021F48091F10080933B038091E8008B7761
:104CF00053C080916705813A09F052C080916B05DD
:104D000090916C05892B09F04BC08091E800877F5A
:104D10008093E8008091E80080FFFCCF80913A0109
:104D200036C0809167058132D9F580916B059091ED
:104D30006C05892BA9F58091E800877F8093E800B6
:104D40000E94C7288091690580933A010C94F40968
:104D500080916705813221F58091E800877F8093FB
:104D6000E8000E94C72880916A0580933C0308955B
:104D700080916705813AA1F48091E800877F809354
:104D8000E8008091E80080FFFCCF80913C03809395
:104D9000F1008091E8008E778093E8000C94C7289A
:104DA000089584B7877F84BF0FB6F894A895809143
:104DB0006000886180936000109260000FBE90E0F8
:104DC00080E80FB6F89480936100909361000FBE65
:104DD0000C94D3100E9419290E947629E2EEF0E08B
:104DE00080818460808378940E940B2C0E94E11063
:104DF00080E391E00C94EE22809166058530A9F461
:104E000080916605853079F40E947724809164054D
:104E10008823B1F30E945F24882391F30E947227B4
:104E20000E94F409EDCF0E94A7240C94EE100C947C
:104E30001927292F332723303105C9F060F4213099
:104E4000310581F02230310509F044C08BE390E058
:104E50002DE738E043C021323105E1F0223231053F
:104E600049F138C082E190E028EB38E037C099275B
:104E70008130910549F028F0029761F5E9E5F8E005
:104E800005C0E9E7F8E002C0E7E6F8E0849190E0C9
:104E90009F0124C06115710541F061307105D1F4A5
:104EA00089E090E028EA38E019C089E090E02FE836
:104EB00038E014C06115710541F06130710551F49D
:104EC00086EB90E02AEC38E009C080E490E020E82E
:104ED00039E004C080E090E020E030E0FA01318366
:104EE0002083089580E189BD82E189BD09B400FE77
:104EF000FDCF8091D8008F7D8093D8008091E00015
:104F000082608093E0008091E00081FDFCCF0895F5
:104F1000CF92DF92EF92FF920F931F93CF93DF9385
:104F2000EC018B017A010E94E628811133C0E11463
:104F3000F10439F0F70180819181081B190BC80F2A
:104F4000D91FC12CD12C0115110519F18091E80050
:104F500085FD16C08091E8008E778093E800E1140B
:104F6000F10449F0F70180819181C80ED91ED182E8
:104F7000C08285E00FC00E94E628882321F30AC082
:104F800089918093F10001501109FFEFCF1ADF0AD8
:104F9000DACF80E0DF91CF911F910F91FF90EF90DA
:104FA000DF90CF90089520916D0530916E05261702
:104FB000370748F06115710539F42091E8002E7724
:104FC0002093E80001C0B901FC0120E061157105E2
:104FD00079F1809166058823F1F18530F1F18091B6
:104FE000E80083FD3CC08091E80082FD2EC08091E6
:104FF000E80080FFEBCF2091F3008091F20090E079
:10500000922B6115710551F08830910538F421918A
:105010002093F100615071090196F3CF21E00897C8
:1050200009F020E08091E8008E778093E800CECFF1
:105030002111CFCF0AC080916605882361F08530A9
:1050400061F08091E80083FD0AC08091E80082FF52
:10505000F2CF80E0089582E0089583E0089581E032
:10506000089520916D0530916E052617370748F099
:105070006115710539F42091E8002E772093E8003E
:1050800001C0B901FC0120E06115710591F1809129
:105090006605882309F440C0853009F43FC080913B
:1050A000E80083FD3DC08091E80082FD2FC0809123
:1050B000E80080FFE9CF2091F3008091F20090E0BA
:1050C000922B6115710559F08830910540F42491B7
:1050D0002093F1003196615071090196F2CF21E0E1
:1050E000089709F020E08091E8008E778093E8002F
:1050F000CBCF2111CCCF0AC080916605882361F007
:10510000853061F08091E80083FD0AC08091E8005D
:1051100082FFF2CF80E0089582E0089583E0089551
:1051200081E00895982F973068F59093E9009817DB
:1051300039F07091EC002091ED005091F00003C027
:10514000242F762F50E021FD02C09F5FECCF3091DD
:10515000EB003E7F3093EB003091ED003D7F3093CC
:10516000ED003091EB0031603093EB007093EC0078
:105170002093ED005093F0002091EE0027FDE5CF45
:1051800080E008958F708093E90081E00895809118
:10519000670587FF11C08091E80082FD05C08091FE
:1051A00066058111F8CF11C08091E8008B770BC0A4
:1051B00080916605882349F08091E80080FFF8CF50
:1051C0008091E8008E778093E80008952091E400B4
:1051D0003091E50095E64091EC00842F817040FF0E
:1051E00023C08091E80080FD1DC080916605882362
:1051F00099F0853099F08091EB0085FD11C04091C8
:10520000E4005091E5002417350729F3915011F07F
:105210009A01E1CF84E0089582E0089583E0089543
:1052200081E0089580E008954091E80042FFDDCFDD
:1052300008950E9487290E948F29E0EEF0E0808186
:1052400081608083E8EDF0E080818F77808319BCF6
:10525000A7EDB0E08C918E7F8C9380818F7E8083D0
:105260001092650508950F931F93CF93DF930E94CB
:1052700087290E948F29C8EDD0E088818F778883A5
:1052800088818068888388818F7D888319BC10928B
:10529000660510926205109264051092630500EE97
:1052A00010E0F80180818B7F808388818160888312
:1052B00042E060E080E00E949228E1EEF0E0808130
:1052C0008E7F8083E2EEF0E0808181608083808148
:1052D00088608083F80180818E7F808388818061EF
:1052E0008883DF91CF911F910F910895E8EDF0E051
:1052F00080818F7E8083E7EDF0E080818160808314
:1053000084E082BF81E0809365050C943329E8ED49
:10531000F0E080818E7F80831092E20008951092E9
:10532000DA001092E10008951F920F920FB60F92CB
:1053300011242F933F934F935F936F937F938F939A
:105340009F93AF93BF93EF93FF938091E10082FF10
:105350000BC08091E20082FF07C08091E1008B7F4B
:105360008093E1000E940A2C8091DA0080FF1FC028
:105370008091D80080FF1BC08091DA008E7F8093DF
:10538000DA008091D90080FF0DC080E189BD82E103
:1053900089BD09B400FEFDCF81E0809366050E94BF
:1053A000F62505C019BC109266050E94042680915E
:1053B000E10080FF19C08091E20080FF15C080915C
:1053C000E2008E7F8093E2008091E2008061809312
:1053D000E2008091D80080628093D80019BC85E0FB
:1053E000809366050E9408268091E10084FF30C00A
:1053F0008091E20084FF2CC080E189BD82E189BDFB
:1054000009B400FEFDCF8091D8008F7D8093D80035
:105410008091E1008F7E8093E1008091E2008F7E99
:105420008093E2008091E20081608093E2008091AD
:105430006205882311F084E007C08091E30087FDB6
:1054400002C081E001C083E0809366050E940926C6
:105450008091E10083FF29C08091E20083FF25C095
:105460008091E100877F8093E10082E08093660570
:10547000109262058091E1008E7F8093E10080911F
:10548000E2008E7F8093E2008091E2008061809351
:10549000E20042E060E080E00E9492288091F0000B
:1054A00088608093F0000E940726FF91EF91BF91E2
:1054B000AF919F918F917F916F915F914F913F91AC
:1054C0002F910F900FBE0F901F9018951F920F9263
:1054D0000FB60F9211242F933F934F935F936F93C7
:1054E0007F938F939F93AF93BF93CF93DF93EF936C
:1054F000FF93C091E900CF708091EC00D82FD1705C
:1055000080FDD0E81092E9008091F000877F8093C1
:10551000F00078940E94AA2A1092E9008091F0008D
:1055200088608093F000CD2BCF70C093E900FF918D
:10553000EF91DF91CF91BF91AF919F918F917F912B
:105540006F915F914F913F912F910F900FBE0F90F0
:105550001F9018951F93CF93DF93CDB7DEB7AA970F
:105560000FB6F894DEBF0FBECDBFE7E6F5E0809141
:10557000F100819325E0EF36F207C9F70E94142667
:105580008091E80083FF2EC18091670590916805A6
:10559000492F50E04A30510508F024C1FA01E15882
:1055A000FF4F0C946C2C803821F0823809F01AC11E
:1055B00008C08091630590916405992389F0826009
:1055C0000FC080916B058F70873008F00BC18093FE
:1055D000E9008091EB0085FB882780F91092E900B3
:1055E0009091E800977F9093E8008093F1001092EB
:1055F000F100D1C0282F2D7F09F0F4C0882319F0C5
:10560000823061F0EFC080916905813009F0EAC015
:10561000933009F080E0809364052EC08091690585
:1056200081112AC080916B058F702FEF280F2630D3
:1056300008F0D8C08093E9002091EB0020FF1CC047
:10564000933021F48091EB00806214C09091EB00C4
:1056500090619093EB0021E030E0A90102C0440F7B
:10566000551F8A95E2F74093EA001092EA00809174
:10567000EB0088608093EB001092E9008091E800D5
:10568000877F8093E8000E94C728ACC08111AAC020
:10569000109169051F778091E3008078812B8093BA
:1056A000E3008091E800877F8093E8000E94C7288C
:1056B0008091E80080FFFCCF8091E30080688093B8
:1056C000E300111102C082E001C083E0809366050F
:1056D00089C08058823008F085C08091690590911A
:1056E0006A058C3D53E0950779F583E08A838AE269
:1056F00089834FB7F894DE01139620E03EE051E233
:10570000E32FF0E050935700E49120FF03C0E295AF
:10571000EF703F5FEF708E2F90E0EA3010F0C79689
:1057200001C0C0968D939D932F5F243149F74FBFE1
:105730008091E800877F8093E8006AE270E0CE0104
:1057400001960E94D32716C060916B0570916C057D
:10575000AE014F5F5F4F0E941727BC01892B09F4F0
:1057600041C09091E800977F9093E80089819A81E9
:105770000E9431288091E8008B778093E80032C046
:10578000803881F58091E800877F8093E8008091E0
:1057900062058093F1008091E8008E7772CF8111CD
:1057A00021C08091690590916A0599270297D4F4E8
:1057B0008091E800877F8093E8008091690580935D
:1057C00062050E94C72880916205811106C0809100
:1057D000E30087FD02C081E001C084E0809366059C
:1057E0000E940A268091E80083FF0AC08091E800A9
:1057F000877F8093E8008091EB0080628093EB00CC
:10580000AA960FB6F894DEBF0FBECDBFDF91CF9141
:105810001F9108950895CF93809166058823A1F084
:10582000C091E900CF709091EC00892F817090FDBC
:1058300080E8C82B1092E9008091E80083FD0E9467
:10584000AA2ACF70C093E900CF9108950E94192928
:10585000109266050895E8EDF0E080818061808314
:105860008AE18A95F1F700C08091D900817008958E
:10587000991B79E004C0991F961708F0961B881FA2
:105880007A95C9F780950895AA1BBB1B51E107C003
:10589000AA1FBB1FA617B70710F0A61BB70B881FC0
:1058A000991F5A95A9F780959095BC01CD0108954F
:1058B00097FB072E16F4009407D077FD09D00E94BD
:1058C000442C07FC05D03EF4909581959F4F089598
:1058D000709561957F4F0895EE0FFF1F0590F4912D
:1058E000E02D0994FB01DC0102C005900D924150AE
:1058F0005040D8F70895FB01DC0104C08D91019060
:10590000801921F441505040C8F7881B990B089525
:10591000FB01DC0102C001900D9241505040D8F7CC
:105920000895AEE0B0E0E7E9FCE20C94A22F0D8907
:105930001E898F89988D26E02C831A83098397FF0F
:1059400002C080E090E801979E838D83AE01455EA2
:105950005F4F698D7A8DCE0101960E94C12C4D81D9
:105960005E8157FD0AC02F813885421753070CF41A
:105970009A01F801E20FF31F10822E96E4E00C94D6
:10598000BE2FABE0B0E0E7ECFCE20C94942F6C018E
:105990007B018A01FC0117821682838181FFCCC1C1
:1059A000CE0101963C01F6019381F70193FD8591AB
:1059B00093FF81917F01882309F4BAC1853239F4BC
:1059C00093FD859193FF81917F01853229F4B60182
:1059D00090E00E94B82EE7CF912C212C312CFFE1D2
:1059E000F315D8F08B3279F038F4803279F08332C5
:1059F000A1F4232D20611DC08D3261F0803369F444
:105A0000232D216016C0832D8260382EE32DE460A3
:105A10003E2E2AC0F32DF8601DC037FC2DC020EDAE
:105A2000280F2A3040F08E32B9F436FC81C1232D84
:105A30002064322E19C036FE06C08AE0989E200DE2
:105A40001124922E11C0EAE02E9E200D1124222E48
:105A5000F32DF0623F2E08C08C3621F4832D806830
:105A6000382E02C0883641F4F70193FD859193FFEB
:105A700081917F018111B3CF982F9F7D95549330F1
:105A800028F40C5F1F4F9FE399830DC0833631F0DC
:105A9000833771F0833509F059C021C0F801808146
:105AA00089830E5F1F4F88248394912C530113C068
:105AB0002801F2E04F0E511CF801A080B18036FEA3
:105AC00003C0692D70E002C06FEF7FEFC5010E9437
:105AD000AD2E4C018201F32DFF773F2E16C0280119
