:100000000C94E2050C94FF050C94FF050C94D72E7C
:100010000C94FF050C94FF050C94FF050C94FF0550
:100020000C94FF050C94FF050C94FD150C941E1AFE
:100030000C9403260C94FF050C94FF050C94FF050B
:100040000C94FF050C94FF050C94FF050C94FF0520
:100050000C94FF050C94D6160C94FF050C94FF0528
:100060000C94FF050C94FF050C94FF050C94FF0500
:100070000C94FF050C94FF050C94FF050C94FF05F0
:100080000C94FF050C94FF050C94FF050C94FF05E0
:100090000C94FF050C94FF050C94FF050C94FF05D0
:1000A0000C94FF050C94FF050C94FF0520202020E4
:1000B0006162636465666768696A6B6C6D6E6F70B8
:1000C0007172737475767778797A31323334353664
:1000D00037383930524542545F2D3D5B5D5C233BE0
:1000E00027602C2E2F2020202B0014001A0008003F
:1000F00015001700E00004001600070009000A00C0
:10010000E1001D001B0006001900050000000000B2
:100110000000E30021522C002A00130012000C0002
:1001200018001C00340033000F000E000D000B00FF
:1001300029003800370036001000110000000000D0
:100140000000E600225228002B001E001F002000A5
:1001500021002200E000000000000000000000007C
:10016000E1000000000000000000000000000000AE
:100170000000E30001002C002A00270026002500D3
:1001800024002300000000004F00520051005000E6
:10019000000000000000000000000000000000005F
:1001A0000000E600235228002B001E021F0220023E
:1001B00021022202E0000000000000000000000018
:1001C000E10000000000000000000000000000004E
:1001D0000000E30023522C002A00270226022502F9
:1001E000240223023500310030002F002E002D00A4
:1001F0003502310230022F022E022D0200000000D3
:100200000000E60001002800007C00000000000063
:10021000000000002078237825782778000000006F
:10022000217824782678287800000000000000005B
:100230000000E30001002C000000000000000000AE
:1002400000000000000000000000000000000000AE
:10025000000000000000000000000000000000009E
:100260000000E6000100280000DA0281FFD9F1DB7E
:1002700020A4A62EAF00A0C0D30000A1C8D30000C8
:10028000AED580A81F408D1420001E0F0500047FEE
:100290003F1F643214643214783C1E1E140A055544
:1002A0006E6465660041646A7573740052616973B7
:1002B00065004C6F7765720044656661756C74000B
:1002C0004C617965723A20003A002C206B0078006E
:1002D000808182838485868788898A8B8C8D8E8FA6
:1002E0009091929394A0A1A2A3A4A5A6A7A8A9AA1D
:1002F000ABACADAEAFB0B1B2B3B4C0C1C2C3C4C594
:10030000C6C7C8C9CACBCCCDCECFD0D1D2D3D400EA
:1003100000010101010101010101020202020202C8
:10032000020202030303030303030304040404049B
:100330000404050505050506060606060707070762
:100340000708080808090909090A0A0A0B0B0B0C17
:100350000C0C0D0D0D0E0E0E0F0F0F1010111111B4
:100360001212131314141515161617171818191935
:100370001A1A1B1B1C1D1D1E1E1F2020212222239A
:100380002424252626272829292A2B2C2D2D2E2FDB
:1003900030313232333435363738393A3B3C3D3EF2
:1003A0003F404142434445464748494A4C4D4E4FE1
:1003B00050515354555658595A5B5D5E5F616264A3
:1003C000656668696B6C6D6F7072737577787A7B30
:1003D0007D7E8082838587888A8C8E8F9193959687
:1003E000989A9C9EA0A2A3A5A7A9ABADAFB1B3B5A7
:1003F000B7BABCBEC0C2C4C6C9CBCDCFD1D4D6D883
:10040000DBDDDFE2E4E7E9EBEEF0F3F5F8FAFDFF20
:10041000FFAA7F55402223252628292A2C2D2F305C
:1004200032333536383A3B3D3E4042434547494AF0
:100430004C4E5051535557595A5C5E606264666821
:10044000696B6D6F71737577797B7D7F818385872C
:10045000898A8C8E90929496989A9C9E9FA1A3A52F
:10046000A7A8AAACAEAFB1B3B4B6B8B9BBBCBEBF57
:10047000C1C2C3C5C6C7C9CACBCCCDCED0D1D2D2DA
:10048000D3D4D5D6D7D7D8D9D9DADADBDBDBDCDCE5
:10049000DCDCDCDDDDDDDDDCDCDCDCDCDBDBDBDA9D
:1004A000DAD9D9D8D7D7D6D5D4D3D2D2D1D0CECD08
:1004B000CCCBCAC9C7C6C5C3C2C1BFBEBCBBB9B815
:1004C000B6B4B3B1AFAEACAAA8A7A5A3A19F9E9C9A
:1004D0009A98969492908E8C8A89878583817F7D65
:1004E0007B79777573716F6D6B6968666462605E46
:1004F0005C5A5957555351504E4C4A49474543420F
:10050000403E3D3B3A3836353332302F2D2C2A29A8
:10051000282625232200AF00AE05010902A101858E
:10052000020901A1000509190129081500250195F5
:1005300008750181020501093009311581257F9572
:10054000027508810609381581257F950175088196
:1005500006050C0A38021581257F9501750881066C
:10056000C0C005010980A101850319012AB7001542
:100570000126B700950175108100C0050C0901A185
:1005800001850419012AA002150126A00295017512
:10059000108100C005010906A1018506050719E0C3
:1005A00029E7150025019508750181020507190045
:1005B00029EF1500250195F0750181020508190143
:1005C0002905950575019102950175039101C005F5
:1005D000010906A101050719E029E7150025019584
:1005E0000875018102950175088101050719002927
:1005F000FF150026FF009506750881000508190102
:1006000029051500250195057501910295017503D0
:100610009101C009023B00020100A0FA0904000098
:100620000103010100092111010001224400070515
:1006300081030800010904010001030000000921F1
:100640001101000122B600070582032000011201FA
:1006500000020000000853460100010001020001F1
:100660000C0343006F0072006E0065000000100371
:1006700066006F006F007300740061006E00000080
:10068000040309040000000000003E5B4F5B3E00D5
:100690003E6B4F6B3E001C3E7C3E1C00183C7E3C7B
:1006A00018001C577D571C001C5E7F5E1C00001844
:1006B0003C180000FFE7C3E7FF0000182418000003
:1006C000FFE7DBE7FF0030483A060E0026297929CC
:1006D0002600407F05050700407F05253F005A3C66
:1006E000E73C5A007F3E1C1C0800081C1C3E7F0093
:1006F00014227F2214005F5F005F5F0006097F0104
:100700007F00006689956A0060606060600094A266
:10071000FFA2940008047E04080010207E20100030
:1007200008082A1C0800081C2A0808001E101010BF
:1007300010000C1E0C1E0C0030383E383000060E27
:100740003E0E060000000000000000005F000000F8
:10075000000700070000147F147F1400242A7F2A5A
:100760001200231308646200364956205000000826
:1007700007030000001C224100000041221C000071
:100780002A1C7F1C2A0008083E08080000807030E0
:100790000000080808080800000060600000201041
:1007A000080402003E5149453E0000427F400000DF
:1007B0007249494946002141494D33001814127FBE
:1007C00010002745454539003C4A4949310041213F
:1007D00011090700364949493600464949291E0092
:1007E0000000140000000040340000000008142243
:1007F00041001414141414000041221408000201D2
:10080000590906003E415D594E007C1211127C00D0
:100810007F49494936003E41414122007F414141E3
:100820003E007F49494941007F09090901003E41D5
:10083000415173007F0808087F0000417F4100009C
:100840002040413F01007F08142241007F4040408A
:1008500040007F021C027F007F0408107F003E41A1
:1008600041413E007F09090906003E4151215E00D9
:100870007F091929460026494949320003017F01B1
:1008800003003F4040403F001F2040201F003F40EA
:1008900038403F0063140814630003047804030025
:1008A0006159494D4300007F414141000204081055
:1008B0002000004141417F00040201020400404049
:1008C00040404000000307080000205454784000D6
:1008D0007F2844443800384444442800384444289D
:1008E0007F0038545454180000087E090200182470
:1008F000241C78007F080404780000447D40000038
:100900002040403D00007F102844000000417F400F
:1009100000007C04780478007C08040478003844E3
:10092000444438007C1824241800182424187C001F
:100930007C080404080048545454240004043F4430
:1009400024003C4040207C001C2040201C003C40F7
:1009500030403C004428102844004C9090907C008B
:100960004464544C44000008364100000000770005
:1009700000000041360800000201020402003C268B
:1009800023263C00000000000000000000000000E2
:1009900000000000C0E0F0F8F81800C0F0FCFEFF16
:1009A000FFFFFFFFFFFF7E000000000000000000CF
:1009B00080C0E0E0E0E0E0E0E0E0C08000000000B7
:1009C00080C0E0E0E0E0E0E0E0E0C080000000E0C7
:1009D000E0C0C0E0E0E0E00000E0E0C0C0E0E0E057
:1009E000E0E0C0800000000080C0E0E0E0E0E0E087
:1009F000E0E0C080000000000000000000000000F7
:100A00000000E0F0F0F0E0ECEEF7F37020007C7C0A
:100A10007C7E007E7E7E7F7F7F000080C0E07E5BEC
:100A20004F5BFEC00000C000DCD7DEDEDED7DC009E
:100A3000C0000000000000000000000000000000F6
:100A400000000000000000000000000000F8FCFEB4
:100A5000FFE000FFFFFFFFFFFF80FFFFFFFFFFFF43
:100A6000FFFFFF1F0701000000000000000000FF63
:100A7000FFFF8100000000000081C3C3C30000FF2E
:100A8000FFFF8100000000000081FFFFFF0000FF6A
:100A9000FFFF01000000000000FFFFFF0100000059
:100AA0000001FFFFFF0000FFFFFF9D1C1C1C1C1C22
:100AB0001C9DDFDFDF0000000000000000000000E0
:100AC00000000F1F3F7F7F7F7F7F3F1E0C001F1F97
:100AD0001F3F003F3F3F7F7F7F00307B7F7830208C
:100AE0002030787F3B0003000F7F0F0F0F7F0F0038
:100AF00003000000000000000000000000000000F3
:100B000000000000000000000000000000030F1FB4
:100B10003F3F3F3F1F1F3F3F7F7F7F3F3F1F3F7F45
:100B20007F7F7F7C7878381C0F0000000000000079
:100B30000103070707070707070703010000000075
:100B4000010307070707070707070301000000075E
:100B50000707000000000000000707070000000072
:100B60000000070707000000010307070707070742
:100B70000707030100000000000000000000000063
:100B80000000000000000000000000000000000065
:100B90000000000000000000000000000000000055
:100BA0000000000000000000000000000000000045
:100BB0000000000000000000000000000000000035
:100BC0000000000011241FBECFEFDAE0DEBFCDBF72
:100BD00027E0AEECB1E001C01D92AA31B207E1F707
:100BE00011E0A0E0B1E0E0EAF4E602C005900D9269
:100BF000AE3CB107D9F70E942A260C94FA310C9426
:100C00000000482F20910B059091D20457E0291342
:100C100002C080E0089530E0529FF001539FF00D34
:100C20001124ED52FB4F8181681306C08081481367
:100C300003C085818111EECF2F5F3F4F2770E7CF33
:100C4000FC01AC014C5F5F4F8FEF91E32191822754
:100C500028E030E087FF09C0880F8927215031093B
:100C6000C9F7E417F50791F70895880FF7CFE8ED76
:100C7000F0E080818E7F80831092E2001092DA0093
:100C80001092E100A0EEB0E08C9181608C938081A5
:100C90008F77808319BCA7EDB0E08C918E7F8C9309
:100CA00080818F7E80831092BB0408952091E400A0
:100CB0003091E50095E6A9012091EC00822F81702A
:100CC00020FF06C08091E80080FF06C080E0089504
:100CD0002091E80022FD1AC08091C804882389F081
:100CE000853089F08091EB0085FD0FC02091E400F4
:100CF0003091E50042175307F9F29150E1F684E094
:100D0000089582E0089583E0089581E00895809138
:100D1000CA0487FF13C08091E80082FF06C080915B
:100D2000E8008B778093E80004C08091C8048111AB
:100D3000F2CF08958091C8048823D9F38091E80008
:100D400080FFF8CF8091E8008E77ECCF982F9093BA
:100D5000E900242F762F50E0891731F07091EC00D4
:100D60002091ED005091F00021FD07C09F5F97306A
:100D700071F78093E90081E008953091EB003E7FA8
:100D80003093EB003091ED003D7F3093ED003091DA
:100D9000EB0031603093EB007093EC002093ED009A
:100DA0005093F0002091EE0027FDE0CF80E0089501
:100DB000B0E0A0E0EEEDF6E00C941130C8EDD0E02C
:100DC00088818F7E8883E7EDF0E080818160808379
:100DD00084E082BF81E08093BB0488818E7F88831A
:100DE00002EE10E0F80110821092DA0081EEC82EB7
:100DF000D12CF601108288818F7788838881806862
:100E0000888388818F7D888319BC1092C8041092D2
:100E1000C9041092C7041092C60490EEE92EF12C7A
:100E2000F70180818B7F808388818160888342E0A5
:100E300060E080E00E94A606F60180818E7F8083BC
:100E4000F801808181608083808188608083F701E0
:100E500080818E7F8083888180618883CDB7DEB773
:100E6000E8E00C942D30FC018091D0049091D104E5
:100E700086179707A0F06115710529F49091E80095
:100E80009E779093E80090E06115710551F49111FF
:100E900008C08091E80082FF34C080E00895BC0162
:100EA000F2CF8091C8048823C1F18530C1F18091CF
:100EB000E80083FD30C08091E80082FDEACF809198
:100EC000E80080FFE1CF8091F3002091F200382FFD
:100ED0006115710519F02830310558F091E028307E
:100EE000310509F090E02091E8002E772093E8008A
:100EF000CBCF81918093F100615071092F5F3F4FFB
:100F0000E7CF8091C804882341F0853041F080917B
:100F1000E80083FFBECF81E0089582E0089583E07A
:100F200008958091BD04089587E797E7909301089D
:100F30008093000888E19AE00FB6F894A895809312
:100F400060000FBE90936000FFCF2FB7F8946091C0
:100F5000B7047091B8048091B9049091BA042FBF7E
:100F60000895909154019923D1F09091B40497FF82
:100F700016C0E82FE695E695E695EE31E0F4F0E050
:100F8000E852FE4F282F277081E090E001C0880FC3
:100F90002A95EAF780959281892382830895E2ED6C
:100FA000F1E09191891303C0DF0111971C9291E048
:100FB000E83DF907B1F70895909154019923C1F0E4
:100FC0009091B40497FF14C0E82FE695E695E69556
:100FD000EE31F8F4F0E0E852FE4F877021E030E0A7
:100FE00001C0220F8A95EAF78281822B82830895BD
:100FF000A2EDB1E0EFEF90E02D91821751F0EF3FBD
:1010000019F4211101C0E92F9F5F9630A9F7EF3F36
:1010100009F408950E2E000CFF0BE053FE4FE6CFAF
:10102000A3E0B0E0E6E1F8E00C9417302091B204C0
:101030003091B30428173907A1F09093B30480933B
:10104000B204E091B004F091B104309751F024E083
:1010500029839B838A830084F185E02DCE0101964C
:1010600009952396E2E00C943330A3E0B0E0EBE383
:10107000F8E00C9417302091AE043091AF0428179B
:101080003907A1F09093AF048093AE04E091B004CF
:10109000F091B104309751F023E029839B838A8338
:1010A0000084F185E02DCE01019609952396E2E0BA
:1010B0000C9433308091AC04882359F0E091B00453
:1010C000F091B104309729F00190F081E02D09955D
:1010D000089580E008958091A10480FD16C081FDEF
:1010E00016C082FD16C08091A0048823A1F088322A
:1010F00080F428E0829FC001112468E270E00E9421
:101100005830862F672B39F0089582E0089584E0E7
:10111000089588E0089581E008958091A10480FDFC
:1011200014C081FD14C082FD16C080919F048823E5
:1011300081F08E3180F420E5829FC00111246EE1A0
:1011400070E00E945830862F089584E1089588E267
:10115000089588E0089580E50895282F35EB23034E
:10116000C001112497FF04C080589109892F089568
:1011700080589F4FFBCFFA01811101C0FB010995F7
:1011800008950895EBEDF2E01182828184608283FC
:101190000895609150018091910480FF0CC070E02F
:1011A00080914F0123E0829FC00111248F519D4FF8
:1011B0000E9491110895809151019091520123E074
:1011C000829FF0011124EF51FD4F891740F71182E2
:1011D000108212828F5F3396F8CF9091910490FF26
:1011E0000EC0909151012091520133E0939FF00184
:1011F0001124EF51FD4F921718F00E94C90808956D
:101200008183608342839F5F3396F5CF8091910401
:10121000982F9C7F61F48370846080939104809107
:101220009404893718F088E78093940408958C3AE1
:10123000B0F38370886AF1CFAF92BF92DF92EF92E2
:10124000FF920F931F93CF93DF93182F062FE9017F
:10125000493708F048E7E42FF0E0E05FFC4F011168
:1012600010C0E4915E2F4E2F4983E8835A83DF91AB
:10127000CF911F910F91FF90EF90DF90BF90AF90B3
:101280000895202F30E04491D42EE42EF12C56E026
:10129000159FC0011124EFEFF0E0BF010E94F32F72
:1012A000812F90E0880F991F55E5569FD001579FD9
:1012B000B00D11248A1B9B0B982F990F890F5F018A
:1012C000A21AB30AAE9CD001AF9CB00DBE9CB00D6B
:1012D00011245B2F089F80011124012F11275F012A
:1012E000A01AB10AAE9C8001AF9C100DBE9C100DDF
:1012F00011245F01A81AB108A29EC001A39E900DFF
:10130000B29E900D1124892F9927E81BF90BEE9DB1
:10131000C001EF9D900DFE9D900D1124E92F6230CC
:101320007105A1F050F46115710509F49DCF61308C
:10133000710581F0EB2F512F97CF6430710569F063
:1013400080F06630710509F48FCFF4CFE42F4B2F76
:10135000592F8ACFE42F412F87CFEB2F542F492FBE
:1013600083CF4B2F5D2DE12F7FCF0F931F93CF9313
:10137000DF93EC0110E000E090915301901711060B
:1013800009F06CF40E94C9088C8190E0019681708C
:1013900099278C83DF91CF911F910F910895209110
:1013A0005101A801420F511D9A01220F331F240F32
:1013B000351F2F513D4F4C816091930480919204D1
:1013C00096959017110651F04CF0442349F0409146
:1013D00094040E941C090F5F1F4FCECF4423B9F322
:1013E00040E0F7CFA3E0B0E0E8EFF9E00C9415306F
:1013F0008C018091E00281110AC09E012F5F3F4F56
:1014000048E76FEF0E941C098A818093E002F8018F
:101410006481613069F08091E00240E0662361F010
:1014200040E0623011F44091E00280E060E004C0EE
:101430006091E00240E080E00E94ED08F8018481C4
:1014400090E0019663E070E00E9458308483239618
:10145000E4E00C943130B0E0A0E0E1E3FAE00C9479
:101460000D30EC014C81042F10E09801D8010E944E
:10147000EB319B01AC010E94B6314B015C01E0E213
:10148000F0E0E01BF10BA5E5B0E0AC019B010E9490
:10149000B6316B017C019F01DF010E9472309B011C
:1014A000AC010E94C1319B01AC01280D391D4A1DC0
:1014B0005B1DC701B6010E94C931F22E822F90E058
:1014C00039E23F1520F143E0249F90011124359526
:1014D0002795122F109500E085E5E82EEF188091F2
:1014E0005301081718F10E94C9089C8181E09923D3
:1014F00019F0903219F48FEF80934E0180914E01D4
:10150000890F8C83CDB7DEB7ECE00C94293025E54C
:1015100030E0B901681B790B9B01220F331F260FA6
:10152000371F37FFD4CF2F5F3F4FD1CF8E2D01FD17
:101530008F2D20915101622F600F7727771F9B011C
:10154000220F331F260F371F2F513D4F412F609120
:1015500093040E941C090F5FC2CFEF92FF920F937A
:101560001F93CF93DF93EC018C81811109C081E03F
:101570008C831092DF0292E090934D0180934C0196
:10158000809151019091520123E0829FF00111243A
:10159000EF51FD4F891758F110E003E060915301BE
:1015A000161758F10E94C90880914C012091DF0262
:1015B000280F2093DF0290914D01980F90934D01D9
:1015C000191654F4022E000C330B40915301415074
:1015D000550B2417350734F0819580934C018130E9
:1015E00009F41C82CDB7DEB7E6E00C942F301182EF
:1015F000108212828F5F3396CDCFE12EF12C70E0F6
:10160000C7010E94583020915101820F482F50E0AD
:101610002091DF02022E000C330BE216F306BCF021
:1016200020914D01022E000C330B2E153F057CF04E
:10163000809F900111242F513D4F4091940460915F
:101640009304809192040E941C091F5FA7CFFA01A6
:10165000EE0FFF1FE40FF51FEF51FD4F11821082B7
:101660001282F3CFB0E0A0E0E8E3FBE00C940D3091
:10167000EC018A81BB24BA9480FD02C0BB24B394E0
:10168000A09053018C81811109C081E0B81220C063
:101690008FEF8A0D8093DE0281E08C83F12CE12CA8
:1016A00046E3942EEA14B8F00E94C9088091DE0245
:1016B00091E0B91257C0811150C0809153018150FF
:1016C0008093DE021C82CDB7DEB7ECE00C942930AB
:1016D0001092DE02E1CF009151010E0D1F2D111D60
:1016E000C801880F991F080F191F0F511D4FF801CE
:1016F00011821082128234E0C32ED12C812C809171
:10170000DE02880D87332CF1692D0E944A30892F23
:10171000082E000C990B8E159F0591F4809194046E
:101720008C9DA0018D9D500D112455954795559583
:101730004795980160919304809192040E941C093E
:101740008B0CF1E0CF1AD108D1F68FEFE81AF80A26
:10175000A9CF87FFDDCF8A0DDBCF81508093DE02DA
:10176000BC82B1CF90E001966091530170E00E947D
:1017700058308093DE028C83A6CFEF92FF921F93A6
:10178000CF93DF93EC0110E0EE24EA94F12C60910A
:101790005301161770F00E94C9089A818C8190FF3E
:1017A00027C08F5F8C83DF91CF911F91FF90EF90C7
:1017B000089520915101422F410F5527551FCA010D
:1017C0009A01220F331F280F391F2F513D4F70E010
:1017D000C7010E945830962F8C81409194046091EB
:1017E0009304199F800D11240E941C091F5FCFCF05
:1017F0008150D8CFA3E0B0E0E0E0FCE00C941730DB
:101800009091910490FF0AC09E012F5F3F4F0E946C
:101810001C094B8169818A810E94ED082396E2E0D0
:101820000C943330CF93DF93EC01E1E9F4E0438192
:1018300062818C810E94FA0B8C818F5F8C83DF9197
:10184000CF910895CF93DF93EC01EC81F0E0EB5E54
:10185000FB4F4491E1E9F4E0628181810E94FA0B3F
:101860008C818F5F8C83DF91CF91089580E0089504
:10187000F894E82FE295EF70F0E031A1282F2F7057
:1018800081E090E001C0880F2A95EAF7982F9095A3
:10189000932391A392A1892B82A3789408950F9307
:1018A0001F938091AC04882329F00E94A5071F9103
:1018B0000F9108950E94A50700917E0210917F026A
:1018C0002091800230918102600F711F821F931F4F
:1018D000EECF9091B40492FF10C041E0282F247104
:1018E000243009F040E031E0282F2871283009F039
:1018F00030E0431711F02CE0822793FF10C041E045
:10190000282F2471243109F040E031E0282F28717C
:10191000283109F030E0431711F02CE08227309194
:10192000B50430FF10C051E0282F2171213009F09B
:1019300050E041E0282F2871283009F040E054178A
:1019400011F029E0822731FF10C041E0282F2171DA
:10195000213109F040E031E0282F2871283109F0C9
:1019600030E0431711F029E0822794FD877E089527
:1019700082389105B9F1B0F48133910509F47DC045
:1019800048F48932910509F46DC08A32910509F451
:101990007BC008958533910509F45FC089339105B3
:1019A00009F10895833E9105D9F138F4803E9105FF
:1019B00029F1823E910579F10895863E9105D9F18C
:1019C000873E910509F43EC0843E910541F5209182
:1019D000B50421FF24C08091B40484FD19C087EEB2
:1019E00090E008952091B404237009F05AC020912A
:1019F000B50423FF14C089E290E008952091B40457
:101A000020FD38C03091B50430FF09C024FF43C029
:101A100090E080E008952091B40422FDF7CF08956E
:101A20002091B40422FD3AC03091B50430FD39C094
:101A300024FFF5CFEDCF2091B40423FFF0CF24FD98
:101A4000E7CFCDCF2091B40423FD2EC03091B50453
:101A500031FFEECF84EE90E008952091B40425FF8D
:101A6000DECFC9CF2091B40425FD21C02091B5045B
:101A700023FFD5CF89E390E0D2CF2091B40426FF95
:101A8000CECF8AE290E008952091B40426FFC7CF1C
:101A900081E390E0089583EE90E0089582EE90E077
:101AA000089580EE90E0089586EE90E0089585E335
:101AB00090E00895972F7830B8F46630A8F4843019
:101AC000B0F470E026E0929F600D711D1124FB01BF
:101AD00090E3899FE00DF11D1124EE0FFF1FE851E7
:101AE000FF4F85919491089580E090E0089581E002
:101AF000FCCF1F93CF93DF930E94B80CEC01C1156C
:101B000080E5D807F0F5C11580E4D80708F09CC03F
:101B1000C03ED10520F5CD3CD10508F082C0C83AC1
:101B2000D10578F4C53AD10508F073C0C130D105AC
:101B300019F1209709F1C430D105F0F4D0E0C0E0EC
:101B40001BC0C33CD105D0F7C85AD0E0CC0FDD1F75
:101B5000C85ADE4F0990D881C02DD4640DC0C1157C
:101B600080E2D80708F0D1C0C11581E0D80708F09D
:101B70005AC0C83ED10510F7CE01DF91CF911F9119
:101B80000895C03682E5D80718F5C03482E5D80735
:101B900008F06BC0C03282E5D80708F05FC0C115FD
:101BA00082E5D80708F497C02C2F2695269580E269
:101BB000289F900111248C2F8370C1E0D0E002C0D7
:101BC000CC0FDD1F8A95E2F7C22BD32BDD68D4CF73
:101BD000C03A82E5D80760F4C03882E5D80708F437
:101BE00059C0CF71D0E0DC2FCC27C46FD06AC4CFEE
:101BF000C03C82E5D80708F462C0C03E82E5D80741
:101C000008F09CCFDC2FCC27CC27DF71C06FD06AC7
:101C1000B3CFC55AD0E0CB5ADE4FC881D0E0D064F4
:101C2000ABCFD065A9CF8D2F0E94690C182FCE01A4
:101C300099270E94B80CC12FD0E0DC2FCC27CC27ED
:101C4000DF71C82BD92B98CFCE0199270E94B80CF1
:101C5000CC27DF70C82BD92BD06A8ECFCF71D0E0C4
:101C6000DC2FCC27C16FD06A87CF2C2F26952695E5
:101C7000277080E2289F900111248C2F8370C1E08F
:101C8000D0E002C0CC0FDD1F8A95E2F7C22BD32B28
:101C9000DC6872CF2C2F26952695277080E2289F2E
:101CA000900111248C2F8370C1E0D0E002C0CC0FD2
:101CB000DD1F8A95E2F7C22BD32BDA685DCF8C2F1C
:101CC0008F710E94690CC82FD0E0DC2FCC27CC2765
:101CD000DF71D06251CF8C2F8F710E94690C55E05B
:101CE000D695C7955A95E1F7CF70D0E0DC2FCC2779
:101CF000282F30E084FF05C044E0220F331F4A95AF
:101D0000E1F7C22BD32BD06937CF8D2F8F710E9473
:101D1000690C182FCE0199270E94B80CC12FD0E072
:101D2000DC2FCC27CC27DF71C82BD92BD2CF8095C5
:101D30009091440298239093440208958091440224
:101D400090911B02892B90911A02992391F0892B73
:101D500090915401992371F09091B40497FF0AC0B7
:101D60009EE12AED31E040E0915040F441111092A3
:101D70001A02089596E022ED31E0F5CFF901519174
:101D80009F01552389F34F5FEFCF80910B05909111
:101D9000D204981301C008958F5F8770FACFB0E026
:101DA000A0E0E5EDFEE00C9410307C010091A30270
:101DB0001091A40280918C0290918D02082B192B16
:101DC000CFE0D0E0CC24C394D12CBC2EC6010C2E85
:101DD00002C0880F991F0A94E2F780239123892B70
:101DE00049F4219790F7B12C8B2DCDB7DEB7E9E000
:101DF0000C942C30B7018C2F0E945A0D0E94790D43
:101E0000019779F3F1CFCF93DF93EC010E94CF0ECE
:101E1000BE010E945A0D0E94790DDF91CF91089565
:101E2000983078F5863068F5E82FF0E086E0989FE6
:101E3000E00DF11D11249E2F977083E0F695E79534
:101E40008A95E1F7EE0FFF1FEE0FFF1FE650FE4FE2
:101E500050E040E080E0219130E0092E02C036954C
:101E600027950A94E2F721703327042E01C0220F30
:101E70000A94EAF7822B4F5F5F4F4430510559F7C0
:101E8000089580E00895983098F5863088F5E82F19
:101E9000F0E086E0989FE00DF11D11248E2F8770F1
:101EA00041E001C0440F8A95EAF783E0F695E79593
:101EB0008A95E1F7EE0FFF1FEE0FFF1FE650FE4F72
:101EC00030E020E070E05191DF011197CB01022E4C
:101ED00002C0969587950A94E2F7817081958527CF
:101EE000842385278C932F5F3F4F2430310559F78A
:101EF00008959093A4028093A302089521E030E016
:101F000002C0220F331F8A95E2F720953095809109
:101F1000A3029091A402822393230E94790F089533
:101F2000909119028095892380931902282F277098
:101F300069F4891759F09091B50492FF07C086950E
:101F4000869586950E947E0F10921902089521E0D1
:101F500030E002C0220F331F8A95E2F78091A3027E
:101F60009091A402822B932B0E94790F0895909355
:101F70008D0280938C020895FC0124812223C1F0FC
:101F8000808191810E94030F92959F70963091F00D
:101F900058F4925F9F70923058F4803F19F030F4FB
:101FA000883E30F481E008959A5FF4CF843FD1F306
:101FB00080E00895883EB0F3813FD1F7F3CFA6E0EB
:101FC000B0E0E5EEFFE00C94163049835A83498176
:101FD0005A819923A1F0222391F0CA010E94CF0EC9
:101FE000182F682F89819A810E94430F69817A8115
:101FF000812F0E945A0D2696E3E00C943230CA01DC
:102000000E94100F182FF2CFCF93DF93682F81E03B
:102010006A3019F06D3031F480E00E949210DF9147
:10202000CF910895809118079091190726E0FC013F
:10203000A2E1B7E001900D922A95E1F7603E08F425
:1020400058C026E0FC0111922A95E9F7C0911807C3
:10205000D091190746E050E0BE0182E197E00E946E
:1020600029319E0122513540892B41F1C90145E0BA
:10207000969587954A95E1F741E050E0BA0102C094
:10208000660F771F8A95E2F7CB016091100570917A
:102090001105862B972BB9016B5F7F4FE5E0769595
:1020A0006795EA95E1F702C0440F551F6A95E2F77C
:1020B000842B952B90931105809310052A5F3F4F39
:1020C00040910F05642F70E0C9010E94F32F481B57
:1020D000463010F4240F311D211572E0370710F03F
:1020E00030E020E02E5E3A4F309319072093180716
:1020F00096CFF6E06F9FB00111246C57794F46E000
:1021000050E00E941331A2CFCF93DF93EC01FE0188
:102110008491811103C0DF91CF9108950E94041032
:102120002196F5CFCF93382FE0911807F09119073A
:10213000E251F54020910F05622F70E0CF010E941F
:10214000F32F281B822F332361F066E00E943E307C
:10215000C82FC15010F4CF91089580E20E9404105E
:10216000F8CF9F01280F311D2115324018F080E073
:10217000F0E0E0E08E0F9F2F911D8E5E9A4F9093BE
:10218000190780931807E7CF0E94841081E00E940E
:102190009210089580915401882359F18091B404DC
:1021A00087FF27C00E949E0E8093D90140E250E035
:1021B0006CE172E088ED91E00E942931892BC1F039
:1021C00080E2E8EDF1E0ACE1B2E001900D928A9599
:1021D000E1F7E091B004F091B104309749F086E066
:1021E0008093D8010480F581E02D88ED91E0099578
:1021F00008950E949E0E8093D00148E050E06CE369
:1022000072E080ED91E00E942931892B89F388E00A
:10221000E0EDF1E0ACE3B2E001900D928A95E1F7D8
:10222000E091B004F091B104309711F30280F38192
:10223000E02D80ED91E0DBCF882321F00E94970E06
:102240000E94CA100895882339F090914402982B77
:10225000909344020E94CA1008950F931F93CF9346
:10226000DF938B01EA019091C804943061F580936B
:10227000E9008FEF9091E800815095FD06C095ED43
:102280009A95F1F700008111F5CF8091E80085FF64
:102290001AC00E945606811111C08091E80085FD88
:1022A00006C08091E8008E778093E800F2CFF801B5
:1022B00081918F018093F100219779F78091E80057
:1022C0008E778093E800DF91CF911F910F91089551
:1022D00043E050E0BC0182E00E942D11089546E0E9
:1022E00050E0BC0182E00E942D11089540E250E0D0
:1022F000BC0182E00E942D110895CF93DF93EC0181
:1023000048E050E0BC0181E00E942D1188E0FE0110
:10231000AEEBB4E001900D928A95E1F7DF91CF9199
:102320000895539A4BB1477F5BB15860EFB7F8946B
:102330009B01220F331F260F371F280F391F281725
:10234000390741F4EFBF8FE594E00197F1F700C042
:1023500000000895DC016D91CD0178E05BB90000CB
:1023600000C067FF4BB9660F000000C000C000C08E
:102370004BB900C07A9591F7E2CFB0E0A0E0E3EC72
:10238000F1E10C940F307C015B016A0180917D02C8
:1023900001E010E08A3010F40AE010E0C1E0D0E083
:1023A000B501C701F6010995811104C021960C17EA
:1023B0001D072CF4CDB7DEB7EAE00C942B30CC9F90
:1023C0009001CD9F300D300D112490E080E045E369
:1023D0004A95F1F70000019682179307C1F7E0CF05
:1023E000AB0124E630E0BC0188E70E94A72D21E084
:1023F000892B09F020E0822F089580919D0490910F
:102400009E04911103C091E089270895882369F003
:1024100062E070E087E195E00E94F011811103C055
:1024200080919D04089510929D0480919D04EBCFAE
:10243000CF93C0919D0480919E048823D1F00E9487
:10244000A507605A75418F4F9F4F60939904709311
:102450009A0480939B0490939C04C11108C062E08D
:1024600070E085E195E00E94F011811105C0C091F6
:102470009D048C2FCF91089581E080939D04F7CF28
:10248000B0E0A0E0E6E4F2E10C940930FC016280E7
:10249000448081E08483E5E1F4E07490E4E9F4E0D1
:1024A000E491C0919404C695C158D0E0CC0FDD1FD3
:1024B000CD2FDD27812C75E0972EAA24AA94B12C6C
:1024C00055245A94E719EE2EF12C80915301881669
:1024D00038F00E94C908CDB7DEB7E0E10C94253092
:1024E000C82CD12C82E0861568F09C9CF0019D9C44
:1024F000F00D1124ED57FC4F809192048083809160
:1025000093048183411023C09C9CF0019D9CF00D9D
:102510001124ED57FC4F1382128220915101C60104
:10252000820F911D9C01220F331F280F391F2F513D
:102530003D4F9C9CF0019D9CF00D1124ED57FC4FEC
:102540004281618180810E941C098394BECF9C9C42
:1025500080019D9C100D11240D571C4FF8018381A3
:102560008823F1F081508383859DC001112464810B
:1025700070E00E94F32FFB01FF27EB5EFB4F84917D
:10258000E82FE719E59DC0011124B7010E94F32F40
:1025900080919404689FB0011124F8017283BDCF2B
:1025A0000E940331B5010E9458308C179D070CF032
:1025B000B4CFF2E0F61598F40E940331B5010E9401
:1025C0005830F80180830E940331209193042695AE
:1025D000622F70E00E945830280FF80121839C9CE4
:1025E000F0019D9CF00D1124ED57FC4F128280915B
:1025F0009404893C58F088EC9C9CF0019D9CF00D63
:102600001124ED57FC4F8483838387CF8431A0F757
:1026100084E1F2CFB0E0A0E0E0E1F3E10C940D3012
:1026200049015A016B017C010E9406098401A40141
:102630006A2D7B2D88E090E00E94753194014A2D2F
:102640005B2DB601C70100E20E949C30622F84E23C
:1026500090E00E946331CDB7DEB7ECE00C942930F6
:10266000A3E0B0E0E6E3F3E10C941030082FE62E8F
:10267000F42EC22E9091910490FF41C020919204BB
:10268000281308C080919304861304C08091940499
:10269000841729F08091DD0282608093DD02E92FAA
:1026A000E695E695AE2FB0E0AE55BE4F8C91809387
:1026B000DB029C7F943039F59E012F5F3F4F4F2DF9
:1026C0006E2D802F0E941C094B8169818A810E9496
:1026D000ED0800939204E0929304F0929404CC20CD
:1026E00071F0209191046091950470919604302FBF
:1026F000A70180919704909198040E940A13239651
:10270000E9E00C942C30823019F4F0909404E1CF7D
:102710008630A1F1893091F18931D9F6E9516E2FD6
:102720006170B62EE695F0E0E05FFB4F1491D12C7E
:1027300060915301D61618F00E94C908CACFD19EE5
:10274000C001112470E00E94F32F802FB11014C03B
:10275000860F20915101622F6D0D7727771F9B0106
:10276000220F331F260F371F2F513D4F4F2D6E2D38
:102770000E941C09D394DCCF861BEBCF022FA9CF7C
:10278000E1E9F4E0438121E1421B08F440E021E06B
:10279000628181810E9430130895E1E9F4E0438170
:1027A00021E1420F08F44FEF21E0628181810E9414
:1027B00030130895E1E9F4E0628121E1621B08F43D
:1027C00060E021E0438181810E9430130895E1E9B6
:1027D000F4E0628121E1620F08F46FEF21E04381B0
:1027E00081810E9430130895E1E9F4E0818121E0C4
:1027F000438162818A500E9430130895E1E9F4E038
:10280000818121E043816281865F0E9430130895B7
:1028100080919504882319F081508093950420912C
:1028200091043091920440919304509194046091EA
:1028300095047091960480919704909198040E9459
:102840000A13089580919504833018F48F5F809364
:1028500095042091910430919204409193045091F9
:1028600094046091950470919604809197049091DE
:1028700098040E940A1308959091B50492FB2227B0
:1028800020F9281779F080FB92F99093B5046091B4
:10289000B4047091B50484E090E00E94813182E03C
:1028A0000E94900F08954F925F926F927F928F9245
:1028B0009F92AF92BF92EF92FF920F931F93CF938D
:1028C000DF937B01FB0140805180628073809FB762
:1028D000F8948090B7049090B804A090B904B09098
:1028E000BA049FBF84189508A608B708F4E68F16A7
:1028F0009104A104B10418F4C1E0442329F1C82FC4
:10290000880FDD0BFE0183E0EE0FFF1F8A95E1F7D4
:10291000EC5FFE4F81819281835A9D4F408150E050
:102920000417150708F4A801B9010E943631CE0139
:102930000E947D2FC82F882339F00E94A507F70138
:1029400060837183828393838C2FDF91CF911F915A
:102950000F91FF90EF90BF90AF909F908F907F90DE
:102960006F905F904F900895ABE0B0E0EAEBF4E138
:102970000C94153088E0E1E9F4E0DE011196019055
:102980000D928A95E1F78091DB029091DC02A09193
:10299000DD0289879A87AB8741E08B85811101C071
:1029A00040E00BE010E09E012F5F3F4F69E772E0CF
:1029B00084E00E94531481111092DD022B96E4E012
:1029C0000C9431300F931F93CF93DF93EC0144E0CD
:1029D00050E062E672E00E94293141E0892B09F45F
:1029E00040E004E010E09E0169E572E082E00E94B0
:1029F0005314DF91CF911F910F910895A4E0B0E09F
:102A0000E4E0F5E10C9416304091750250917602A5
:102A100060917702709178022FB7F8948091B70493
:102A20009091B804A091B904B091BA042FBF841B4F
:102A3000950BA60BB70B11E084369105A105B105E6
:102A400070F10E944F0C6E5F7F4F8F4F9F4F6983D5
:102A50007A838B839C8380911D0190911E01835A00
:102A60009D4F40911C0150E04530510510F044E06D
:102A700050E0BE016F5F7F4F0E94363183E090E0EF
:102A80000E947D2F182F882351F00E94A507609384
:102A90007502709376028093770290937802812F6B
:102AA0002496E3E00C943230EF92FF921F93CF9381
:102AB000DF9300D000D00F92CDB7DEB77B0190E05E
:102AC00080E00E947D2F182F882309F46DC040916B
:102AD000070150E04115510511F041E050E06091CF
:102AE000080170910901635A7D4FCE0105960E943D
:102AF00036314091550250915602609157027091C3
:102B000058022FB7F8948091B7049091B804A0911F
:102B1000B904B091BA042FBF841B950BA60BB70B59
:102B200084369105A105B10538F48EE592E00E9446
:102B300020069D818917C1F181E090E00E947D2FE0
:102B4000882309F458C040910F0150E045305105E9
:102B500010F044E050E06091100170911101635A4F
:102B60007D4FCE0101960E9436318EE592E00E94A3
:102B700020069D8189133FC00E94A50760935502DE
:102B800070935602809357029093580289819A81DC
:102B9000AB81BC818093510290935202A093530267
:102BA000B093540211E00EC080915E0290915F02DA
:102BB000A0916002B091610289839A83AB83BC8348
:102BC0001111E4CF8091510290915202A0915302D1
:102BD000B0915402F70180839183A283B383812F44
:102BE0000F900F900F900F900F90DF91CF911F914A
:102BF000FF90EF90089510E0E5CF1F920F920FB66F
:102C00000F9211242F933F934F935F936F937F9372
:102C10008F939F93AF93BF93EF93FF938091E100C6
:102C200082FF09C08091E20082FF05C08091E1002F
:102C30008B7F8093E1008091DA0080FF24C0809137
:102C4000D80080FF20C08091DA008E7F8093DA0068
:102C50008091D90080FF9DC080E189BD82E189BD5E
:102C600009B400FEFDCF81E08093C8048091BB04CD
:102C7000811109C00E9437060E94D8068091E200A7
:102C800084608093E2008091E10080FF17C0809112
:102C9000E20080FF13C08091E2008E7F8093E2000B
:102CA0008091E20080618093E2008091D800806290
:102CB0008093D80019BC85E08093C8048091E1001E
:102CC00084FF2BC08091E20084FF27C080E189BD92
:102CD00082E189BD89B5982F917080FFFBCF8091EB
:102CE000D8008F7D8093D8008091E1008F7E809303
:102CF000E1008091E2008F7E8093E2008091E2000B
:102D000081608093E2008091C904882309F447C060
:102D100084E08093C8048091C8048091E10083FF1F
:102D200027C08091E20083FF23C08091E100877F6C
:102D30008093E10082E08093C8041092C9048091DE
:102D4000E1008E7F8093E1008091E2008E7F80938E
:102D5000E2008091E20080618093E20042E060E066
:102D600080E00E94A6068091F00088608093F000C9
:102D7000FF91EF91BF91AF919F918F917F916F9153
:102D80005F914F913F912F910F900FBE0F901F9029
:102D9000189519BC1092C8041092BB0474CF80918E
:102DA000E30087FD93E09093C804B5CF78941F9219
:102DB0001FB61F9211248F939F93AF93BF9380915F
:102DC000B7049091B804A091B904B091BA040196E7
:102DD000A11DB11D8093B7049093B804A093B904CA
:102DE000B093BA04BF91AF919F918F911F901FBE76
:102DF0001F9018959C014FB7F8948091B70490915B
:102E0000B804A091B904B091BA044FBF821B930BD0
:102E100008952FB7F8948091B7049091B804A091C9
:102E2000B904B091BA042FBF08950E9409179C01FC
:102E30009091A8048091A904982B21F03093A504C7
:102E40002093A4049091AA048091AB04982B21F0C4
:102E50003093A3042093A204E091B004F091B10454
:102E6000309749F082E08093A6040680F781E02D38
:102E700086EA94E0099508951092440280915401E5
:102E8000882339F18091B40487FF23C0EAEDF1E093
:102E90008EE1DF011D928A95E9F790E080E00E94C3
:102EA000350890E080E00E94100810921B020E94FA
:102EB000CA1086E0E6EAF4E0DF011D928A95E9F7A0
:102EC00010929F041092A0041092A1040E94151762
:102ED0000895E2EDF1E086E0DCCFAAE2B0E0E3E7BE
:102EE000F7E10C9416308AEC94E02091F100FC019B
:102EF0002193CF01F4E0823D9F07B9F78091CB0485
:102F0000833009F470C0B8F4813009F447C08230CE
:102F100009F4B1C08091E80083FF7EC28091CA04A9
:102F20009091CB049A3008F077C2E92FF0E0E4509A
:102F3000FE4C0C946C308A3009F48CC08B3009F450
:102F40006FC0893039F78091CA04813219F78091B6
:102F5000CE049091CF040297E8F68091E800877F35
:102F60008093E8008091E80082FF38C09091F300E0
:102F70008091F200029731F48091F100813011F0DC
:102F8000863021F48091F1008093BD048091E800A7
:102F90008B778093E8000E948706BCCF8091CA049B
:102FA000813A09F0B7CF8091E800877F8093E800ED
:102FB0008091CE049091CF04892B61F468E08EEB70
:102FC00094E070E00E9433078091E8008B77809353
:102FD000E800A0CF60E090E080E0F3CF8091C804EB
:102FE0008111C0CF97CF8091CA04813A09F092CF66
:102FF0008091CE049091CF04892B09F08BCF8091E2
:10300000E800877F8093E8008091E80080FFFCCF94
:10301000809154018093F1008091E8008E77B9CFC0
:103020008091CA04813209F075CF8091CE049091CD
:10303000CF04892B09F06ECF8091E800877F8093C1
:10304000E8000E9487068091CC04809354010E947E
:103050003C1760CF8091CA04813209F05BCF809128
:10306000E800877F8093E8000E9487068091CD0466
:103070008093BC044FCF8091CA04813A09F04ACFB3
:103080008091E800877F8093E8008091E80080FFCE
:10309000FCCF8091BC04BECF803899F0823809F013
:1030A000BBC18091CE048F70873008F0B5C180938A
:1030B000E9008091EB0085FB882780F91092E900F8
:1030C00006C08091C6049091C704911182609091CE
:1030D000E800977F9093E8008093F1001092F10050
:1030E0008091E8008E7794C1882309F482C18230F0
:1030F00009F092C18091CC04811185C18091CE04E8
:103100008F702FEF280F263008F086C18093E900DA
:103110002091EB0020FF77C1933031F48091EB00D8
:1031200080628093EB006FC19091EB00906190936F
:10313000EB0021E030E001C0220F8A95EAF72093EE
:10314000EA001092EA008091EB008860EACF8111DA
:1031500063C11091CC041F778091E3008078812BAC
:103160008093E3008091E800877F8093E8000E94CD
:1031700087068091E80080FFFCCF8091E3008068A3
:103180008093E30082E0111183E08093C80444C17E
:103190008058823008F040C18091CC049091CD04D9
:1031A0008C3D23E09207A1F583E08A838AE289833C
:1031B0004FB7F894DE01139620E03EE051E2E32F92
:1031C000F0E050935700E49120FF03C0E295EF70C8
:1031D0003F5FEF708E2F90E0EA30C0F0C7968D937E
:1031E0009D932F5F243159F74FBF8091E800877F6F
:1031F0008093E8006AE270E0CE0101960E943307F6
:103200008091E8008B778093E80006C1C096E7CFF5
:103210004091CE045091CF04292F3327233031051C
:1032200009F444C078F52130310509F46FC08BE30F
:1032300090E0E3E1F6E02230310509F0EDC02091A5
:10324000E800277F2093E8002091D0043091D1043A
:103250008217930708F49C0140E02115310509F01D
:1032600064C0411162C08091E80082FDC9CF8091A5
:10327000C804882329F2853019F28091E80083FF81
:10328000F2CFBECF21323105A9F12232310509F04A
:10329000C3C04115510509F443C04130510509F03F
:1032A000BBC086EB90E0E9E1F5E0C9CF992781301A
:1032B0009105C1F0009759F0029709F0ADC0E0E622
:1032C000F6E0E4918E2F90E0E0E6F6E007C0E0E85B
:1032D000F6E0E4918E2F90E0E0E8F6E0009709F444
:1032E0009BC0ADCFEEE6F6E0E4918E2F90E0EEE6E7
:1032F000F6E0F4CF4115510571F04130510509F068
:103300008BC089E090E0EEE3F6E099CF82E190E0B7
:10331000EEE4F6E094CF89E090E0E5E2F6E08FCFCE
:1033200084E490E0EFECF5E08ACF8091C804882334
:1033300009F466CF853009F463CF8091E80083FDFE
:103340005FCF8091E80082FD8ECF8091E80080FF02
:1033500084CF9091F3008091F2002115310519F08E
:103360008830910550F041E0089709F040E08091E5
:10337000E8008E778093E80070CF44914093F1008D
:103380003196215031090196E8CF803809F044C0C8
:103390008091E800877F8093E8008091C904809342
:1033A000F1009ECE811138C01091CC041230A0F5EE
:1033B0008091E800877F8093E8001093C9040E9401
:1033C0008706112311F084E005C08091E30087FD9A
:1033D000FACF81E08093C80442E061EC81E00E9472
:1033E000A60642E261EC82E00E94A6068091C80433
:1033F00013C08091CC04813079F481E0933009F0DE
:1034000080E08093C7041092E9008091E800877FF4
:103410008093E8000E9487068091E80083FF0AC03D
:103420008091E800877F8093E8008091EB008062C4
:103430008093EB00AA96E3E00C9432301F920F9237
:103440000FB60F9211242F933F934F935F936F9377
:103450007F938F939F93AF93BF93CF93DF93EF931C
:10346000FF93D091E900DF708091EC00C82FC1700C
:1034700080FDC0E81092E9008091F000877F809382
:10348000F00078940E946D171092E9008091F0008E
:1034900088608093F000CD2BCF70C093E900FF913E
:1034A000EF91DF91CF91BF91AF919F918F917F91DC
:1034B0006F915F914F913F912F910F900FBE0F90A1
:1034C0001F9018950E943C172FEF84E39CE0215039
:1034D00080409040E1F700C0000088E19AE00FB61C
:1034E000F894A895809360000FBE90936000FFCF82
:1034F0004091A8049091AA042091AB04662309F49A
:1035000069C0942B922B2091A904922B31F098E062
:1035100090939F0491E09093A0048D3C41F40E940D
:103520008D0881958093A9040E94151708958E3CFB
:1035300019F40E948D08F6CF8F3C31F40E948D085B
:1035400081958093A804F0CF803D19F40E948D08E6
:10355000F8CF893D29F40E946B088093AA04E4CF38
:103560008A3D21F40E946B088195F7CF8B3D31F4A1
:103570000E946B0881958093AB04D6CF8C3D19F4E3
:103580000E946B08F8CF9FE2980F983070F4815D2D
:10359000990B21E030E001C0220F8A95EAF7809173
:1035A000A704822B8093A704BFCF8D3D31F4809177
:1035B000A10481608093A104B7CF8E3D21F4809156
:1035C000A1048260F7CF8F3D09F0AECF8091A104B6
:1035D0008460F0CF8D3C59F48091A90487FF0DC021
:1035E0001092A90441110BC010929F0408C08E3C98
:1035F00081F48091A90418169CF3442381F08091F2
:10360000AA049091AB04892B09F08ECF1092A004EC
:103610008BCF8F3C49F447FFF0CF1092A8048091E4
:10362000A9048111ECCFE0CF803D19F41416ACF35E
:10363000E4CF893D29F4191604F71092AA04DDCFCE
:103640008A3D19F497FFD9CFF8CF8B3D29F427FF96
:10365000D4CF1092AB04D1CF8C3D19F41216CCF319
:10366000CCCF9FE2980F983090F4815D990B21E0C8
:1036700030E0B90102C0660F771F8A95E2F7CB01EF
:1036800080959091A70489238093A704B6CF8D3DA0
:1036900031F48091A1048E7F8093A104AECF8E3D42
:1036A00021F48091A1048D7FF7CF8F3D09F0A5CF44
:1036B0008091A1048B7FF0CF882381F19CEF980F3C
:1036C000913A28F40E94B1070E94CA10089590E22E
:1036D000980F983050F4877091E001C0990F8A9547
:1036E000EAF7892F0E94970EEFCF9BE5980F933052
:1036F00028F490E080E00E943508089598E5980F3E
:103700009B3128F490E080E00E941008089593E334
:10371000980F933118F460E00E94781A0895CF93BF
:10372000C82F8823B1F18CEF8C0F813AA0F58091DE
:103730005401882301F18091B40487FF1CC0EC2F51
:10374000E695E695E695F0E0E852FE4F828190E03E
:103750004C2F477021E030E002C0220F331F4A9502
:10376000E2F782239323892B79F08C2F0E94B107F3
:103770000E94CA1009C0E2EDF1E08191C817A9F3D7
:1037800081E0E83DF807C9F78C2F0E94DC070E9412
:10379000CA10CF91089580E28C0F883068F4C7700A
:1037A00021E030E001C0220FCA95EAF7809144027F
:1037B000822B80934402EBCFEBE5EC0FE33040F437
:1037C000F0E0EB5AFE4F808190E00E943508E1CF97
:1037D000E8E5EC0FEB3150F4F0E0EE0FFF1FE85A94
:1037E000FE4F808191810E941008D3CF83E38C0F1C
:1037F000833178F661E08C2F0E94781ACACF0F933C
:103800001F93CF93DF93C62FD42F022FFC01858106
:103810008823A9F060930E050E94091790930D0567
:1038200080930C05C77081E001C0880FCA95EAF744
:103830000E942311DF91CF911F910F9108958091E4
:103840000E05681335C080910C0590910D050E94FE
:10385000FA16883C910560F510E21D0FCD17B9F0FE
:1038600080E28C0F883040F4C77081E001C0880F7F
:10387000CA95EAF70E941C11183048F481E09D2F88
:10388000977001C0880F9A95EAF70E942311802F44
:103890000E948F1B802F0E945C1B183058F6D77037
:1038A00081E001C0880FDA95EAF70E941C11C2CFAF
:1038B000C77081E001C0880FCA95EAF7F6CF809102
:1038C000AC04882319F00E94091708950E944F0C38
:1038D000CB010895609191046695669570E04BE088
:1038E00050E081E491E00E941C31892B19F481E0C1
:1038F0008093DC020E945F1C9093D6028093D502D5
:103900008091DD0284608093DD020895909191049E
:1039100090FF3AC09370811138C0946090939104E5
:103920008091DD0281608093DD02662391F0209119
:1039300091043091920440919304509194046091C9
:1039400095047091960480919704909198040E9438
:103950000A13609191046695669570E04BE050E023
:1039600081E491E00E941C31892BB9F00E94C208C9
:1039700081E08093D80220E0409194046091930408
:10398000809192040E94301308958B3210F0986A4F
:10399000C5CF880F880F982BC1CF0E946A1CE8CF33
:1039A0008091910486958695815009F48AE261E0C0
:1039B0000E94861C089580919104869586958F5F5C
:1039C0008B3208F081E061E00E94861C089590919E
:1039D000910490FF09C096959695981728F0961730
:1039E00018F40E94DB1C089561E00E94861C089573
:1039F000B0E0A0E0EEEFFCE10C940F308C01FC0194
:103A00008481882309F467C021E04081518162816B
:103A1000738195810E94DF0FEC01F8019581992354
:103A200009F483C481818093AF0280818093AE02C8
:103A300080E280933901D093AD02C093AC029E0125
:103A400030522115304238F4F8018681807F09F424
:103A50005EC0FE010AC09E01305421153041C8F4F9
:103A6000F8018681807FFE0109F0FF27ED33F10523
:103A700028F4E455FF4FE491E0933901FE01E85149
:103A8000FC47E730F10508F042C0EA5FFD4C0C94BA
:103A90006C309E013A9521153F41D8F29E01205A83
:103AA00032452032310550F3FE01E0CF26E241EEEF
:103AB00061EEC8010E94FF1B80911902877059F0C6
:103AC000F8018581882339F08091B50482FF03C015
:103AD00082E00E94900FCDB7DEB7EAE00C942B3065
:103AE00027E245EE65EEE5CF26E241EE60EEE1CF5E
:103AF00027E245EE64EEDDCF26E241EE62EED9CF5D
:103B000027E245EE66EED5CF28E241E0EBCF1092FA
:103B10000E059E0130572332310508F020C484E0A1
:103B200090E00E944D319093B5048093B404FE015F
:103B3000E150F047E232F10520F4E35FFD4C0C94D4
:103B40006C308091B40481608093B40495C08091FE
:103B5000B50488608093B5048FC08091B4048260FE
:103B6000F3CF8091B4048460EFCF8091B404886077
:103B7000EBCF8091B5048160EDCF8091B504826078
:103B8000E9CF8091B4048061DFCF8091B40480627A
:103B9000DBCF8091B4048064D7CF0E943C17809122
:103BA000B4048068D1CF8091B4048C60CDCF809173
:103BB000B5048360CFCF8091B4048E7FC5CF809150
:103BC000B504877FC7CF8091B4048D7FBDCF80912E
:103BD000B4048B7FB9CF8091B404877FB5CF809137
:103BE000B5048E7FB7CF8091B5048D7FB3CF809120
:103BF000B4048F7EA9CF8091B4048F7DA5CF80912E
:103C0000B4048F7BA1CF0E943C178091B4048F77BE
:103C10009BCF8091B404837F97CF8091B5048C7F34
:103C200099CF8091B40482FB992790F921E09227E3
:103C300090FB82F990FB83F987CF8091B504982F90
:103C4000909591708E7F892B90FB81F983CF909115
:103C5000B404892F8F7B96FF806476CF0E943C1737
:103C60009091B404892F97FB87F980586DCF61E05C
:103C70008EE090E00E9463316091B4047091B504CD
:103C800084E090E00E9481310E943C1715CF60E0F3
:103C9000EFCF9091B404892F8F7E94FF806154CF31
:103CA0009091B404892F8E7F90FF81604DCF9091C9
:103CB000B504892F877F93FF88604CCF85E35FC36E
:103CC0008091F801811104C089E20E94B10759C3B3
:103CD00085E3FBCF992309F434C3C3303CE7D30712
:103CE00009F4F7C008F0DAC0C1159CE7D90709F458
:103CF000E3C0C130DC4709F4F2C0F8018581C0811E
:103D0000D181882309F4F9C0CE010E94CF0EF82E8C
:103D1000682FCE010E94430FBE018F2D0E945A0DC5
:103D20000E94790DD82FC92FA82EF801C580B68022
:103D3000B2943FE0B32280911902877009F1EC2C14
:103D4000CC20F9F0892F807F803469F080E28D0FDC
:103D50008830B0F0892F807E803229F4F1E0FD17A1
:103D600078F4BB2069F08091B50482FF09C082E03D
:103D70000E94900F809119028770EE24E3948111C4
:103D8000E12CDC2ED2942FE0D2222BE02D1508F46A
:103D900019C1ED2DF0E0E15DFD4C0C946C3080918B
:103DA000910480FF1EC0282F2E7F20939104309114
:103DB0009204409193045091940460919504709101
:103DC000960480919704909198040E940A130E948F
:103DD000C2088091DD0281608093DD020E94C908E3
:103DE0006BCE81608093910461E0869586950E94F8
:103DF000861C62CE40ED5CE16BED7CE10E94BB086D
:103E00005BCE4BED5CE160ED7CE1F8CF44EF53E13C
:103E10006EEF73E1F3CF4EEF53E164EF73E1EECF5A
:103E20004AED53E167EE73E1E9CF47EE53E16AED06
:103E300073E1E4CF40EC53E16DEC73E1DFCF4DEC87
:103E400053E160EC73E1DACF48E054E162E274E1FF
:103E5000D5CF42E254E168E074E1D0CF61E081E087
:103E6000C6CF65E082E00E94E71C26CE68E086E0CF
:103E7000FACF6EE089E0F7CF64E18FE0F4CF67E13D
:103E800085E1F1CF61E088E1B2CF62E289E1EBCF79
:103E900061E083E2ACCF6AE285E2E5CFCB35FCE7B7
:103EA000DF0749F1CC352CE7D207D9F0CA35DC471A
:103EB00009F023CF81E01CC00E943C178FEF94E3F0
:103EC000ECE081509040E040E1F700C000000E942B
:103ED00094076FEF7FEF90E080E00E9481310E94B5
:103EE000621A8091B50482FB882780F991E08927C6
:103EF0000E943C1402CF80E0FBCFCE010E94100F45
:103F0000F82E0ACF3C2F3F70F32EC07F19F0F294A9
:103F100090EFF922CC20B9F0FF2069F080E28D0FFC
:103F2000883010F0A11009C080914402F82AF09264
:103F300044020E94CA108D2F43C080911B02F82AB0
:103F4000F0921B02F6CF8D2F0E945C1BFF20D1F157
:103F5000D05ED83010F0A11004C08F2D0E94970EB3
:103F600006C0F09480911B02F822F0921B020E947E
:103F7000CA1028C08C2F8F70F82EC07FC03219F065
:103F8000F29480EFF822AA2059F091E0A91609F4E2
:103F900079C0CC2009F485C0BB2009F447C0CBCF41
:103FA0008091B50482FD3EC0CC20B1F1FF2039F0F4
:103FB00080914402F82AF09244020E94CA1080E0E4
:103FC0000E948F1B2D2D2850330B2430310510F407
:103FD0000E945A08EE20A9F08091190280FD11C0BC
:103FE000F80115828695869586950E94A70FC801CF
:103FF0000E94F81C809119028695869586950E94EC
:104000007E0F20E0F80140815181628173818481BB
:1040100095810E94DF0F5FCD80E00E945C1BFF2036
:1040200089F29BCFCC20A1F0B11004C08F2D0E944B
:104030002311C8CFE1E0BE12C5CF80911A029F2D97
:104040009823F91609F4BECFF82AF0921A02BACFD3
:10405000B110B8CF8F2D0E941C1190911A028F2D94
:10406000892329F08F2D8095892380931A028091CE
:10407000F9019F2D982309F4A5CFF094F822F0922E
:10408000F901A0CFCC2029F0F5E0FB1508F49ACF78
:10409000CDCF24E02B1508F495CF8F2D0E941C1155
:1040A00091CFBB20D1F339E3A31209C08FEF97EE74
:1040B000E3E081509040E040E1F700C000008D2F28
:1040C0000E945C1B7FCF8C2F86958695837069F04C
:1040D000813009F077CF8D2F9C2F9370C11002C0D3
:1040E00080E090E00E9410086DCF8D2F9C2F937080
:1040F000C11002C080E090E00E94350863CF6C2DB3
:104100008D2F0E94781A5ECF8C2F837009F03FC0EC
:10411000C11058CF4D2F429546954770440F440F1C
:104120002D2F2F7030E0042E02C0220F331F0A946F
:10413000E2F790E080E0D4FF09C08FE090E002C099
:10414000880F991F4A95E2F780959095C695C69578
:10415000C370C23099F078F440918C0250918D0276
:10416000C13039F0822B932B842395230E94B70F03
:1041700029CF242B352B822B932BF8CF822B932BFB
:1041800020918C0230918D0282279327EFCF869564
:10419000CC2011F08C2F8170882309F413CF4D2F80
:1041A000429546954770440F440F2D2F2F7030E0F5
:1041B000042E02C0220F331F0A94E2F790E080E041
:1041C000D4FF09C08FE090E002C0880F991F4A9584
:1041D000E2F780959095C695C695C370C23099F068
:1041E00078F44091A3025091A402C13039F0822B9F
:1041F000932B842395230E94790FE4CE242B352B17
:10420000822B932BF8CF822B932B2091A3023091FA
:10421000A40282279327EFCFCF70CC2029F08C2FD8
:104220000E94A70F8D2F03CF8D2F0E941C118C2F62
:104230000E947E0FC7CE8D2FF2EFAF1699F1FA15BF
:1042400070F020EFA216D1F031EFA31691F0CC2040
:1042500009F45BC0B1106FCE8C2F8F7127C093EF24
:10426000A91639F1E4EFAE12F2CF8091B50482FDC8
:104270002EC08C2F8F71CC20D9F218C0CC2069F0C1
:10428000F4E0FB1508F49ECECF7181E090E002C00F
:10429000880F991FCA95E2F7B8CF25E02B1508F4CF
:1042A00091CEF2CF8C2F8F71C110C2CF0E94A70F79
:1042B00089CE90E080E0CC2009F49DCFCF7181E0E1
:1042C00090E002C0880F991FCA95E2F794CFCC20E6
:1042D00089F0CF718C2F0E94A70F8091B50482FFC7
:1042E00007C038E0C39FC001112483608093190286
:1042F0008C2FDCCF81E00E94900F81E08B1508F0BD
:1043000061CE82E00E94900F5DCEBB2059F08933D0
:1043100009F0D5CE9FEFE7EEF3E09150E040F0409A
:10432000E1F7CBCE8C2F8F7183CFFE01E851FC4794
:10433000E730F10508F4A9CBC6312CE7D20709F420
:10434000BFCC809144028272FE01E052F847E53111
:10435000F10508F0D2CCE55CFD4C0C946C30C63114
:10436000FCE7DF0709F0B6CC809144028A7A91E03D
:1043700009F490E09093F8018111A0CC89E20E94A9
:10438000DC070E94CA1098CBCF93DF93809118026C
:10439000807F09F04DC080911702882309F448C03E
:1043A000E0910B055091D204C0911302D0911202FA
:1043B000609114027091150247E05E17C9F18E2FCB
:1043C00090E0E49FF0011124ED52FB4F2481222361
:1043D00091F1489FF001499FF00D1124DF01AD528A
:1043E000BB4F11962C9111972C1325C02C912D1396
:1043F00022C015962C91159721111DC012962D9152
:104400003C91261B370B283C3105A8F480911802FB
:104410008F70806180931802E752FB4F80818F700C
:104420008061808382E192E00E94F81C0E94C50EA8
:10443000DF91CF910895FC013196E770BECFA4E1E2
:10444000B0E0E5E2F2E20C940D308C0186E0F80178
:10445000DE011F9601900D928A95E1F7F8018481A3
:10446000E58092E1A92E92E0B92E90911602911169
:1044700028C0882319F1EE20F1F0C8010E94BC0F7A
:10448000F82E8823C1F087E0F801D50101900D9244
:104490008A95E1F780911602813031F48091120201
:1044A000909113020E94030F0E94C4218F2D6496E5
:1044B000ECE00C942930C8010E94F81CFF24F3940E
:1044C000F5CFD080C18082809380F0901702209138
:1044D000140230911502A401421B530BFF2009F472
:1044E000D9C0483C510508F092C08823F9F2909158
:1044F000130280911802282F207F09F056C0C9129C
:1045000014C090911202D91210C0E11048C08F70EF
:1045100080618093180282E192E00E94F81C8091F1
:104520001802F8018683F12CC1CFE11038C06C2D40
:104530008D2D0E9401066C2D8D2D0E940106E82E06
:104540008111F1CFDF86C88A8F8598890E94030F79
:10455000292F22952F70243058F49F70223088F034
:10456000992399F0F8019681907F79F4FE2C9ECFE3
:104570002A5F2F70223068F0C8010E94F81CEF2CCF
:10458000F5CF992311F0882389F3805E883070F38A
:10459000F3CF803F58F3815F833070F7E7CF80918E
:1045A0001802816080931802BECFC91207C0909193
:1045B0001202D91203C0EE2009F48DC0C8010E9476
:1045C000BC0F882309F477CFEE2009F474CF8091D3
:1045D0001802803288F0209112023091130239873C
:1045E00028879B868A86909116029C871D868E87D7
:1045F000CE0108960E94F81C87E0F801A2E1B2E023
:1046000001900D928A95E1F70E94C42157CF9091B5
:104610001802292F207F51F482E192E00E94F81CB9
:1046200087E0F50111928A95E9F77DCF882309F497
:104630003DCF809113028C1110C080911202D812CC
:104640000CC0E1100AC09683C8010E94F81C87E0E4
:10465000F50111928A95E9F729CFC8010E94BC0F94
:10466000882309F428CFEE2009F425CF8091180281
:10467000803210F220911202309113023A83298382
:104680009C828B82909116029D831E828F83CE0125
:104690000196B0CF483C5105D0F6882309F40ECFDF
:1046A000FE2CEE2009F407CF809113028C1120C05C
:1046B00080911202D8121CC08091180280FD0FC098
:1046C000982F907F61F08683903F31F0982F907FF4
:1046D000905F8F70892B8683C8010E94F81C87E049
:1046E000F801A2E1B2E001900D928A95E1F7DECEE9
:1046F000C8010E94BC0F81117FCF80911802816098
:1047000080931802C8010E94F81CD0CEABE1B0E043
:10471000ECE8F3E20C9415304E8B5F8B688F798F49
:104720008A8F9B8F192F911110921B021D8A86E090
:10473000FE017696DE011F9601900D928A95E1F7B3
:104740000A8D002341F021E04F85588969897A89D3
:10475000C8010E94DF0F0B8B1C8B87E0FE013F9688
:10476000DE01189601900D928A95E1F7CE01089628
:104770000E941F2281112AC087E0FE013896DE01C7
:10478000119601900D928A95E1F78C858823F1F0BE
:104790002091D20430E0C901019687709927409199
:1047A0000B0548171906E9F097E0929FD001939FF7
:1047B000B00D1124AD52BB4FFE01319601900D9208
:1047C0009A95E1F78093D2040E94C50E17E080917C
:1047D0000B059091D204891312C06B96E4E00C94FF
:1047E00031300E943C171092D20410920B0587E0E2
:1047F000E2E1F2E0DF011D928A95E9F7E7CF819FC0
:10480000C00111248D529B4F0E941F22882329F33F
:1048100080910B0590E001968770992780930B0596
:10482000D6CFA3E1B0E0E7E1F4E20C940C308E01C6
:10483000045F1F4F88E0D8011D928A95E9F780E94F
:10484000C82E81E0D82EF12CE12CAA24A394B12CFF
:104850002AE9822E21E0922EF60181916F018F3F8D
:1048600009F442C0F894E82FE295EF70F0E021A13E
:104870008F70A50102C0440F551F8A95E2F7CA0147
:10488000922F982B91A392A18095892382A378944B
:1048900000C0E4E9F1E0712C31E021912F3F09F4EF
:1048A000A3C0A22FA295AF70B0E090968C9190E03B
:1048B0002F7002C0959587952A95E2F780FD94C0E8
:1048C000832F782A330F8E169F0639F7F60131971A
:1048D00080818F3F11F00E94380C50EA5A95F1F711
:1048E000F801EE0DFF1D70828FEFE81AF80A94E0D0
:1048F000E916F10409F0B0CF48E050E0B80182E8D1
:1049000092E00E942931009741F028E0F801A2E8E6
:10491000B2E001900D922A95E1F700918B0210E030
:1049200001571D4F892B09F461C081E08093490232
:104930000E9409179093480280934702F12CE0905F
:10494000AC04EE2009F4ACC019821A821B821C82CE
:1049500080917D028A3008F06DC044E555E1BE01CA
:104960006F5F7F4FC8010E94BD11882309F487C083
:1049700042EE54E1BE016F5F7F4FC8010E94BD113E
:10498000882309F47CC04EEF54E1BE016F5F7F4F76
:10499000C8010E94BD11882309F471C044EB54E1A1
:1049A000BE016F5F7F4FC8010E94BD11882309F4CB
:1049B00066C010927D0280918A0290E044E050E04F
:1049C000BE016F5F7F4F81579D4F0E94293121E0CB
:1049D00020935002892B09F044C0E12C8E2D8F29A1
:1049E0006396EDE00C94283080E06BCFF0904902A4
:1049F000FF2009F4A3CF80914702909148020E94C2
:104A0000FA16059708F49ACF44E050E062E872E0A5
:104A1000C8010E942931892B59F084E0E2E8F2E0D4
:104A2000D80101900D928A95E1F71092490287CF43
:104A3000F12CFBCF80914A0290914B020E94FA1612
:104A4000843F914008F089CF80915002882329F259
:104A500084E0FE013196DF011D928A95E9F71092FC
:104A60005002E0918A02F0E0E157FD4F89819A817E
:104A7000AB81BC8180839183A283B383AFCF8091CC
:104A80007D028F3F31F08F5F80937D028A3008F482
:104A900092CF0E94091790934B0280934A02D4CF81
:104AA000C0908A02D12CF601E157FD4F6F0184E0DE
:104AB000F801AEE5B2E001900D928A95E1F78EE53E
:104AC00092E00E94200680935D0284E0E2E6F2E03C
:104AD000D60101900D928A95E1F780906602909040
:104AE0006702A0906802B090690280914C02909198
:104AF0004D02A0914E02B0914F0288169906AA0667
:104B0000BB06B1F080924C0290924D02A0924E02F0
:104B1000B0924F020E94A507861A970AA80AB90AFE
:104B200080927E0290927F02A0928002B0928102D7
:104B30008BE0EAE6F2E0DE01119601900D928A9593
:104B4000E1F72981822F86958695DA80CB80BC801B
:104B50000A851B8510927402112309F43FCF10FFC0
:104B60000AC09091910420FF1AC091609093910423
:104B700060E00E94861C11FF06C020E04B2D6C2DCA
:104B80008D2D0E94301312FF04C00023A9F00E9453
:104B90006A1C13FF23CF81E08093D8021FCF9E7F32
:104BA000909391040E94C2088091DD0281608093FD
:104BB000DD020E94C908DFCF0E94C208EACFA6E04A
:104BC000B0E0E5EEF5E20C9415300E9409178C0177
:104BD00080914502909146028017910781F01982D9
:104BE0001A820E940917682F49815A81792F80E023
:104BF00090E00E9486231093460200934502269679
:104C0000E4E00C9431301F921FB61F9211248F9351
:104C10009F93AF93BF938091B604811113C080918D
:104C2000B7049091B804A091B904B091BA04419628
:104C3000A11DB11D8093B7049093B804A093B9044B
:104C4000B093BA04BF91AF919F918F911F901FBEF7
:104C50001F901895CDB7DEB763970FB6F894DEBFF7
:104C60000FBECDBF85B7806885BF85B7806885BF1B
:104C700084B7877F84BF0FB6F894A89580916000B1
:104C8000886180936000109260000FBE80E890E021
:104C90000FB6F89480936100909361000FBE86E395
:104CA0009CE09093CF018093CE010E9437060E9432
:104CB000D8068091E20084608093E200789480912D
:104CC000C8048823A1F01091E9001F709091EC00B6
:104CD000892F817090FD80E8182B1092E900809157
:104CE000E80083FD0E946D171F701093E90082E0B9
:104CF00084BD93E095BD9AEF97BD80936E001092AE
:104D00007E0210927F0210928002109281028091A6
:104D1000D80080618093D8002AE12A95F1F700C07D
:104D20008091D900182F117080FD04C00E943706B1
:104D30001092C8041093AC041093AD0410932C018E
:104D4000112309F4D7C010924F018BE180935001D9
:104D50000E94912E80912C0180912C0194E0811170
:104D600090E090938B0284E0891B80938A0284E90F
:104D70000E94380C86E60E94380C87E90E94380CA5
:104D800086EC0E94380C04E911E0D8018D918D0168
:104D90008F3F11F00E94380CB1E00A391B07A9F7C8
:104DA00088E0EFE8F2E0DF01282F1D922A95E9F76D
:104DB000E2E8F2E0DF011D928A95E9F790E080E0F9
:104DC0000E944D31863E9E4F09F466C066EE7EEF2E
:104DD00090E080E00E94813160E082E090E00E94FB
:104DE000633181E090E090938D0280938C0261E0CA
:104DF00083E090E00E94633160E074E184E090E041
:104E00000E94813160E086E090E00E94633160E0C2
:104E100087E090E00E94633140E050E0BA0188E012
:104E200090E00E94753160E084E290E00E9463317E
:104E300060E087E190E00E94633160E08CE090E008
:104E40000E94633160E08DE090E00E94633119823E
:104E50001A821B821C821D821E821F82188648E0D5
:104E600050E068E170E0CE0101960E94533140E0CD
:104E700050E0BA0180E290E00E94753140E050E0DD
:104E8000BA018FE090E00E94753140E050E0BA0135
:104E900083E190E00E94753182E090E00E943F3112
:104EA0008093970284E090E00E944D319093B50486
:104EB0008093B4040E941124EFEFF6E721E0E15063
:104EC000F0402040E1F700C000000E9411248091D2
:104ED000AD04E4E08111E0E0F0E0E157FD4F8081B6
:104EE00081FF0EC06FEF7FEF90E080E00E94813184
:104EF0000E9494078BE180934F01809350012ACF49
:104F000083E090E00E943F3190E00E94B70F8091D3
:104F1000AC0481113BC182E08093D00280E8809391
:104F20000F050E942F2D6BE070E08FE792E00E944A
:104F3000F0118823E9F18091D00265E070E081FDF5
:104F400027C18AE792E00E94F011882389F16DE081
:104F500070E088E692E00E94F011882349F10E94F7
:104F6000A507605A75418F4F9F4F609399047093C6
:104F70009A0480939B0490939C04E2E1F5E080E026
:104F800092E0DF019C011D9221503040E1F7F09347
:104F90001907E09318078FEF9FEF90931105809307
:104FA000100581E080939E0480939D041092D102AD
:104FB00080918E02811184C088E090E00E94473188
:104FC0004B015C0184E290E00E943F31282F30E0E9
:104FD00040E050E060E070E080E090E000E20E949D
:104FE0008130282939294A295B292093910430935B
:104FF00092044093930450939404609395047093A7
:10500000960480939704909398043091DD02336066
:105010003093DD022C7F09F043C025E020939104FA
:10502000109292042FEF2093930428E72093940486
:105030001092950425E030E04FEF58E760E00E94C1
:105040000A1388E090E00E9447316B017C0184E202
:1050500090E00E943F31282F30E040E050E060E0D7
:1050600070E080E090E00E948130B22FA32FF42FF7
:10507000E52F5B0197018601BC29A12BFE29E32BBB
:10508000B0939104A0939204F0939304E09394045A
:1050900060939504B092960480939704909398043B
:1050A0000E9406090E94C2088091910480FF05C0F9
:1050B00060E0869586950E94861C81E080938E0232
:1050C0008091AC04811102C00E94942E8DE291E087
:1050D0009093B1048093B004AAE08A2E912CA12C65
:1050E000B12C8091C80400E112E1853009F48DC033
:1050F0000E94112408E912E0FFE8EF2EF2E0FF2EF3
:10510000D701F80191918D9132E0E03AF30709F46B
:1051100086C09817B9F34090AC04D12C3324339453
:10512000D701CD907D01F80151908F015C1429F1D8
:10513000712C662463945C24852D8621B1F0442073
:10514000A1F07986DA860E9409179C878B873D86B5
:1051500091E08C2D862109F490E09E8749855A853F
:105160006B857C858D850E9486237394660CF6E0A2
:105170007F12E2CFF8013197C082D39428E0D21297
:10518000CFCF0E944F0C31E03F874EC080E0C4CEAD
:1051900085E792E0D8CE8091C804843031F10E9436
:1051A000FD111092B60488E190E0A0E40FB6F894E7
:1051B000A895809360000FBEA093600083B7817FA5
:1051C000846083BF83B7816083BF7894889583B7F9
:1051D0008E7F83BF0FB6F894A89580916000886198
:1051E00080936000109260000FBE8091C7048823F6
:1051F00061F00E941124EFE8F2E081918111B8C3BF
:1052000027E932E02E173F07C1F78091C8048530A7
:1052100009F4C1CF0E943C170E945A0869CF981325
:105220007ACF0E94DF251F868091DC02882309F453
:1052300065C08091DB02E0919104E695E695E81B5C
:10524000E093D702823009F0B0C0F0E0E556FD4FA0
:10525000E4910E2F10E0E2E2EE2EECE0FE2E8091C3
:10526000D802882361F01092D8020E945F1C9093AC
:10527000D6028093D5021092DA021092D9020E94CF
:105280005F1CE091D502F091D6029C012E1B3F0BD2
:105290002F3F3F4798F52091A2022223B1F01092B0
:1052A000A2022091A0023091A102821B930B8F3F9A
:1052B0009F4758F4205D3A483093A1022093A00202
:1052C0008091DD0288608093DD02C090D902D09089
:1052D000DA02E00FF11FF093D602E093D50285EDDC
:1052E00092E0F70109958091D9029091DA02892B19
:1052F00029F4CD2819F081E08093A20280919E04C8
:10530000882309F421C18091D2029091D3020E9496
:10531000FA16C29708F4F8C00E9409179093D302B6
:105320008093D20282E195E0909319078093180749
:105330008091AC04882309F430C280EC92E00E9492
:1053400084102091A3023091A402832F9927009703
:1053500009F497C09C0188E0A901F4E056954795AF
:10536000FA95E1F74115510511F08C5F9A01A901F9
:1053700056954795569547954115510511F08E5F05
:105380009A0136952795232B09F08F5F813009F418
:10539000BEC1882309F477C0823009F4BBC18330D1
:1053A00009F4BBC18FE992E070C0863059F4F0E097
:1053B000E856FD4FE4910E2F10E072E1E72E7CE0FD
:1053C000F72E4DCF893061F4E695F0E0EB56FD4FB6
:1053D000E4910E2F10E06DEBE62E6BE0F62E3FCF42
:1053E0008F3061F4E695F0E0EE56FD4FE4910E2F1C
:1053F00010E052E3E52E5BE0F52E31CF853159F414
:10540000F0E0E157FD4FE4910E2F10E04DEAE42E5D
:105410004AE0F42E24CF08E210E09BE2E92E9AE065
:10542000F92E883109F41BCF833249F4EDE8F2E01C
:105430000591149132EFE32E39E0F32E10CF843230
:10544000C9F000ED17E0B1ECEB2EB8E0FB2E853291
:1054500009F005CF8E2F63E00E943E30E92FF0E087
:10546000E657FD4FE4910E2F10E020E4E22E22E1FA
:10547000F22EF5CE04EF11E085EBE82E89E0F82E50
:10548000EECE80E069CF88EB92E00E94C41080915C
:10549000AF02805D0E9404108EEC92E00E948410A6
:1054A0008091AE02805D0E9404108AEC92E00E941E
:1054B00084104090AC025090AD02809137019091E1
:1054C00038014816590609F02BC18091AB02803291
:1054D00009F026C1E5EAF2E08F0181918032E1F323
:1054E000F80101900020E9F79F012150310979016D
:1054F0000E151F0508F44BC188EC92E00E94841041
:10550000809139010E94041080911005909111053D
:10551000892B09F047C180919D048823A9F00E943E
:10552000A5070091990410919A0420919B04309151
:105530009C04601B710B820B930B6F3F7F4F8F4F4F
:105540009F4710F40E94FD114F8541110E941812CF
:1055500086E0E6EAF4E0DE01119601900D928A956C
:10556000E1F7D090A7040091A804F090A904E0907E
:10557000AA041091AB041092A8041092A9041092EE
:10558000AA041092AB04802F8F2909F445C08091A2
:10559000A4049091A5040E94FA169C0190919F0486
:1055A000992309F405C225313105B0F19F3F19F067
:1055B0009F5F90939F04002359F00E948D089FEFF6
:1055C00010160CF491E0899F802D11248093A8047B
:1055D000FF2059F00E948D0891E01F140CF09FEFFE
:1055E000899F802D11248093A9048091A804882389
:1055F00099F0C090A904CC2079F00E94AD088823CE
:1056000009F4AEC18093A8048C2D0E94AD088823B4
:1056100009F4A8C18093A9048E2D812B09F445C0FB
:105620008091A2049091A3040E94FA169C0190918B
:10563000A004992309F4B7C121353105B0F19F3F8A
:1056400019F09F5F9093A004EE2059F00E946B0820
:105650009FEF1E140CF491E0899F802D11248093FC
:10566000AA04112359F00E946B0891E011160CF066
:105670009FEF899F802D11248093AB048091AA0411
:10568000882399F0E090AB04EE2079F00E94AD08F9
:10569000882309F469C18093AA048E2D0E94AD0865
:1056A000882309F463C18093AB048091A7048D1112
:1056B00017C08091A804882311F0081311C020910D
:1056C000A904222311F02F110BC09091AB04992350
:1056D00011F0191305C03091AA04332309F45EC1F7
:1056E0000E94151786E0FE013196A6EAB4E001900B
:1056F0000D928A95E1F70E945A089091D402891779
:1057000009F4EFCC8093D4020E94A507EACC82EB87
:1057100092E0BBCE8CEA92E0B8CE85EA92E0B5CEBC
:10572000509238014092370180E28093AB02712C95
:10573000612C1092AA0255EAC52E52E0D52E60EADD
:10574000E62E62E0F62E8601C301B201A5019401A6
:105750000E94C931605D603319F4C016D10631F082
:10576000411451046104710409F460E2D8011496F3
:105770006C93C301B201A50194010E94C9312901B2
:105780003A0101501109E016F106F1F6A3CED80155
:105790008D918D010E940410ABCE80ED92E00E94AD
:1057A0008410B2CE80919E04882309F4B4CE8091F7
:1057B000D1028111B0CE0E941812209110053091B3
:1057C00011052115310509F4A6CE80E041E050E035
:1057D000482E512C1A01082E02C0220C331C0A94A8
:1057E000E2F7B10162237323672B11F48F5FF0CFCF
:1057F0009091D00290FF9AC0880F880F880F8093F5
:105800003C0110923F01895F80933D0183E08093CA
:10581000400124E630E047E050E06AE371E088E7C9
:105820000E94632D892B09F076CE95E0440C551C1F
:105830009A95E1F78091D00280FF8AC0E0EBF2E018
:1058400080E2DF011D928A95E9F7EEE9F1E0FB8B3A
:10585000EA8B4AE951E087E0E82EDD24D394AA8957
:10586000BB896D91BB8BAA8BFA018191AF01840D2D
:10587000952D911D9C012E5E3A4F398B288BE62F7A
:10588000F0E0E055FD4F90E080E06E2C681AFD2CB2
:10589000082E01C0FF0C0A94EAF76889798900E0B4
:1058A000DB011D91BD011F21262D201B2770C22E5B
:1058B000022E000C330BB12F01C0BB0FCA94EAF7C4
:1058C000CB2E3195219531092770332701C01695CC
:1058D0002A95EAF7C12A1081C12AC0820F5F0830D9
:1058E000F9F6019631968830910579F6EA89FB89B7
:1058F000E25AF14009F0B3CF04E610E020E230E0D4
:1059000040EB52E060E488E70E94ED2D892B09F01E
:1059100002CE209430948091100590911105282298
:1059200039223092110520921005F5CD8295880F0D
:10593000807680933C019201369527953695279580
:1059400020933F01815E80933D012093400161CF10
:10595000A2014E5E5A4F04E610E020E230E0D2CFC2
:1059600081E050CE81E056CE81E095CE81E09BCEA5
:1059700009BD19BD09B400FEFDCF8091D8008F7D0F
:105980008093D8008091E00082608093E000809155
:10599000E00081FDFCCF0E943C1737CC822B892B85
:1059A00009F4A0CE9DCE2B30310508F04ACE7DCE35
:1059B0002B30310508F0FCCD2FCEEF92FF920F93E4
:1059C0001F93CF93DF93182FEB011092BC0084EA52
:1059D0008093BC000E9409177C018091BC0087FF66
:1059E00027C08091B900887F883029F08091B90064
:1059F000887F803189F51093BB0084E88093BC00D8
:105A00000E9409178C018091BC0087FF1EC0209165
:105A1000B900287F90E080E0283191F081E090E0AB
:105A2000203411F490E080E091958195910908C0AF
:105A3000C7010E94FA16C817D90778F68EEF9FEFB4
:105A4000CDB7DEB7E6E00C942F30C8010E94FA16FD
:105A5000C817D907C0F6F2CF8FEF9FEFF1CF1092A2
:105A6000B9008CE08093B80008950F931F93CF93F3
:105A7000DF93EB018093BB0084E88093BC000E941D
:105A800009178C018091BC0087FF11C02091B900DB
:105A9000287F81E090E0283211F490E080E0919539
:105AA00081959109DF91CF911F910F910895CF3F7B
:105AB000DC0741F3C8010E94FA16C817D90710F78E
:105AC0008EEF9FEFEFCFB0E0A0E0E9E6FDE20C94AF
:105AD0000C30782E5B016A0189010E9409174C0184
