:100000000C94E0040C9427050C9427050C942022F2
:100010000C9427050C9427050C9427050C942705B0
:100020000C9427050C9427050C942A2A0C94FC2A7E
:100030000C942F250C9427050C9427050C94270568
:100040000C9427050C9427050C9427050C94270580
:100050000C9427050C94A4250C9427050C942705D3
:100060000C9427050C9427050C9427050C94270560
:100070000C9427050C9427050C9427050C94270550
:100080000C9427050C9427050C9427050C94270540
:100090000C9427050C9427050C9427050C94270530
:1000A0000C9427050C9427050C94270549055A053F
:1000B0004D055A0551055A055A055A0555055A0563
:1000C00055055A0555055A055505CB07CB07F707C2
:1000D000F7075F087D089509950988082109320905
:1000E0003209390A390A4B0A4B0A420A4B0A4B0AAF
:1000F0004B0A390A390A470A4B0A4B0A470A692B45
:10010000902B882C902B882CDC2BFF2B882C562CAA
:10011000652C808182838485868788898A8B8C8DF3
:100120008E8F9091929394A0A1A2A3A4A5A6A7A814
:10013000A9AAABACADAEAFB0B1B2B3B4C0C1C2C38B
:10014000C4C5C6C7C8C9CACBCCCDCECFD0D1D2D3F7
:10015000D40041646A757374005261697365004C20
:100160006F7765720044656661756C74004C6179E7
:1001700065723A20002B0014001A000800150017C1
:1001800000E00004001600070009000A00E1001D5D
:10019000001B00060019000500000000000000E33D
:1001A0000001512C002A00130012000C0018001C42
:1001B00000340033000F000E000D000B0029003842
:1001C000003700360010001100000000000000E6BB
:1001D00000025128002B001E001F002000210022D9
:1001E00000E00000000000000000000000E100004E
:1001F000000000000000000000000000000000E31C
:100200000001002C002A00270026002500240023DE
:1002100000000000004F005200510050000000009C
:10022000000000000000000000000000000000E6E8
:1002300000035128002B001E021F0220022102226F
:1002400002E00000000000000000000000E10000EB
:10025000000000000000000000000000000000E3BB
:100260000003512C002A0027022602250224022323
:10027000023500310030002F002E002D00350231F4
:100280000230022F022E022D02000000000000E6C4
:100290000001002800005C000000000000000000D9
:1002A00000C35CC65CC85CCA5C00000000C45CC7DC
:1002B0005CC95CCB5C00000000000000000000E3B3
:1002C0000001002C00000000000000000000000001
:1002D000000000000000000000000000000000001E
:1002E000000000000000000000000000000000E628
:1002F000000100280000AE00AF00DA0281FFD9F152
:10030000DB20A4A62EAF00A0C000A1C800AED580FF
:10031000A81FD300408D1420000000000000003E04
:100320005B4F5B3E003E6B4F6B3E001C3E7C3E1CB9
:1003300000183C7E3C18001C577D571C001C5E7F3B
:100340005E1C0000183C180000FFE7C3E7FF000038
:100350001824180000FFE7DBE7FF0030483A060EDC
:1003600000262979292600407F05050700407F05E2
:10037000253F005A3CE73C5A007F3E1C1C08000801
:100380001C1C3E7F0014227F2214005F5F005F5F11
:100390000006097F017F00006689956A0060606041
:1003A00060600094A2FFA2940008047E040800107C
:1003B000207E20100008082A1C0800081C2A0808B3
:1003C000001E10101010000C1E0C1E0C0030383EC9
:1003D000383000060E3E0E0600000000000000004F
:1003E000005F000000000700070000147F147F1466
:1003F00000242A7F2A12002313086462003649561B
:10040000205000000807030000001C2241000000EB
:1004100041221C00002A1C7F1C2A0008083E0808F4
:100420000000807030000008080808080000006024
:100430006000002010080402003E5149453E0000C3
:10044000427F4000007249494946002141494D33ED
:10045000001814127F10002745454539003C4A49D1
:100460004931004121110907003649494936004602
:100470004949291E0000001400000000403400001B
:100480000000081422410014141414140000412226
:100490001408000201590906003E415D594E007CD6
:1004A0001211127C007F49494936003E41414122E8
:1004B000007F4141413E007F49494941007F090990
:1004C0000901003E41415173007F0808087F000088
:1004D000417F4100002040413F01007F081422413C
:1004E000007F40404040007F021C027F007F0408E4
:1004F000107F003E4141413E007F09090906003E50
:100500004151215E007F0919294600264949493297
:100510000003017F0103003F4040403F001F204097
:10052000201F003F4038403F00631408146300035D
:1005300004780403006159494D4300007F41414163
:1005400000020408102000004141417F0004020124
:100550000204004040404040000003070800002023
:1005600054547840007F2844443800384444442898
:1005700000384444287F0038545454180000087E42
:100580000902001824241C78007F08040478000065
:10059000447D4000002040403D00007F1028440082
:1005A0000000417F4000007C04780478007C08044F
:1005B0000478003844444438007C18242418001877
:1005C0002424187C007C0804040800485454542453
:1005D0000004043F4424003C4040207C001C204098
:1005E000201C003C4030403C004428102844004C73
:1005F0009090907C004464544C44000008364100C4
:1006000000000077000000004136080000020102EF
:100610000402003C2623263C0000000000000000ED
:10062000000000000000000000C0E0F0F8F8180032
:10063000C0F0FCFEFFFFFFFFFFFFFF7E0000000099
:10064000000000000080C0E0E0E0E0E0E0E0E0C0AA
:10065000800000000080C0E0E0E0E0E0E0E0E0C01A
:1006600080000000E0E0C0C0E0E0E0E00000E0E08A
:10067000C0C0E0E0E0E0E0C0800000000080C0E03A
:10068000E0E0E0E0E0E0E0C080000000000000000A
:1006900000000000000000E0F0F0F0E0ECEEF7F306
:1006A0007020007C7C7C7E007E7E7E7F7F7F0000D1
:1006B00080C0E07E5B4F5BFEC00000C000DCD7DE88
:1006C000DEDED7DC00C000000000000000000000FB
:1006D000000000000000000000000000000000001A
:1006E0000000F8FCFEFFE000FFFFFFFFFFFF80FFC0
:1006F000FFFFFFFFFFFFFFFF1F07010000000000DB
:1007000000000000FFFFFF8100000000000081C327
:10071000C3C30000FFFFFF8100000000000081FF55
:10072000FFFF0000FFFFFF01000000000000FFFFCF
:10073000FF010000000001FFFFFF0000FFFFFF9D21
:100740001C1C1C1C1C1C9DDFDFDF000000000000C7
:10075000000000000000000F1F3F7F7F7F7F7F3F72
:100760001E0C001F1F1F3F003F3F3F7F7F7F003059
:100770007B7F7830202030787F3B0003000F7F0F95
:100780000F0F7F0F000300000000000000000000BA
:100790000000000000000000000000000000000059
:1007A0000000030F1F3F3F3F3F1F1F3F3F7F7F7FE3
:1007B0003F3F1F3F7F7F7F7F7C7878381C0F000092
:1007C00000000000000103070707070707070703EA
:1007D00001000000000103070707070707070703D9
:1007E00001000000070707000000000000000707E5
:1007F00007000000000000070707000000010307D2
:1008000007070707070707030100000000000000B3
:1008100000000000000000000000000000000000D8
:1008200000000000000000000000000000000000C8
:1008300000000000000000000000000000000000B8
:1008400000000000000000000000000000000000A8
:100850000000000000000000000C0343006F007265
:10086000006E0065000000100366006F006F0073EB
:1008700000740061006E0000000403090409023BDB
:1008800000020100A0FA09040000010301010009AF
:1008900021110100012240000705810308000A0917
:1008A000040100010300000009211101000122B62A
:1008B000000705820320000A120100020000000860
:1008C0005346010001000102000105010902A101D6
:1008D00085020901A1000509190129081500250152
:1008E0009508750181020501093009311581257FBF
:1008F00095027508810609381581257F95017508CF
:100900008106050C0A38021581257F95017508813D
:1009100006C0C005010980A101850319012AB7009D
:10092000150126B700950175108100C0050C09015D
:10093000A101850419012AA002150126A002950132
:1009400075108100C005010906A10185060507197A
:10095000E029E715002501950875018102050719B1
:100960000029EF1500250195F07501810205081990
:10097000012905950575019102950175039101C045
:1009800005010906A101050719E029E71500250160
:100990009508750181029501750881010507190007
:1009A00029FF150026FF0095067508810005081926
:1009B000012905950575019102950175039101C005
:1009C00011241FBECFEFDAE0DEBFCDBF04B603FEB9
:1009D00027C08091750590917605A0917705B0911B
:1009E00078058730904BA740B04BD1F41092750535
:1009F00010927605109277051092780514BE84B790
:100A0000877F84BF0FB6F894A895809160008861B5
:100A100080936000109260000FBEE0E0F8E309955B
:100A200012E0A0E0B1E0E6ECF0E602C005900D9225
:100A3000A630B107D9F725E0A6E0B2E001C01D92CB
:100A4000A537B207E1F70E9477180C9461300C9437
:100A50000000CF93C82F0E943216882311F08C2FEC
:100A600001C082E0CF91089560E08DE691E00E94A0
:100A7000B31C80913F0290914002A0914102B0913D
:100A800042028F309105B0F4FC01EA5AFF4F0C94FA
:100A9000022D60E085E691E00BC060E08FE591E01B
:100AA00007C060E089E591E003C060E082E591E085
:100AB0000C94C51C08959C013056211540E2340762
:100AC00020F0305E2115304108F499278C339105D0
:100AD00028F4FC01E05BFE4F208101C020E21F9260
:100AE0002F939F938F93FB0180811F928F9381811E
:100AF0001F928F938FE391E09F938F931F9288E1D2
:100B00008F9388E092E09F938F930E94272D8DB75B
:100B10009EB70E960FB6F8949EBF0FBE8DBF089578
:100B200060E088E092E00C94971C60E082E191E044
:100B30000C94B31C0E943216882329F00E943405BD
:100B40000E94900502C00E94950580E00895FB0177
:100B5000228121110E945B0581E0089581E00895C2
:100B60000C94A70508950C94B2051F93CF93DF93BF
:100B700000D000D01F92CDB7DEB749835A836B8374
:100B80003091200289819A81311114C0662359F075
:100B9000222349F00E94DF0B182F682F89819A8148
:100BA0000E94860B03C00E94B20B182F69817A81C4
:100BB000812F04C00E94DF0B69817A810F900F9012
:100BC0000F900F900F90DF91CF911F910C94F31223
:100BD000FC01262F408151816281738184810C94B4
:100BE000B50581E00895CF93DF93EC0160E00E94AA
:100BF000E805BE01DF91CF910C94B3050E94431428
:100C00000E947E060C947D140C94791480E00E945E
:100C10007F060C94EE1D08950C940B060E94270A83
:100C20000E940C062FEF84E39CE02150804090400E
:100C3000E1F700C000000C94CA250F931F93CF93D7
:100C4000DF938C0161E00E94E805EC01B8010E948D
:100C5000B0058823F1F1B801CE010E941C20882341
:100C6000C1F1B801CE010E94461E882391F1B8015E
:100C7000CE010E94781F882361F1F80182818823C8
:100C800009F1CB358DE5D807C1F050F4C115FCE56D
:100C9000DF0781F0CF3DDC45A9F40E94EF1019C0B9
:100CA000CC35EDE5DE0761F0CD35DD4559F40E9428
:100CB000321008C00E940E060CC00E943B1002C0F9
:100CC0000E943E10C801DF91CF911F910F910C94AB
:100CD000AE0580E0DF91CF911F910F9108950C94A4
:100CE0000B060E94A9230E947F060C946F060895AC
:100CF0000C94770681E008950C947A060895CF93BA
:100D0000C82F0E9478068C2F0E947C06CF910895F0
:100D1000CF93DF93CDB7DEB72B970FB6F894DEBF36
:100D20000FBECDBF4F83588769877A878B87611144
:100D30000E948B0F9E012F5F3F4F86E0F9011192B9
:100D40008A95E9F785E0FE013796D90101900D9269
:100D50008A95E1F789819A814C815D81452B31F03B
:100D60009F3F31F491E08F3F19F403C091E001C03F
:100D700090E090FF09C049815A816B817C818D810F
:100D80009E810E94AC0E05C0C9010E94F10581112F
:100D9000F2CF2B960FB6F894DEBF0FBECDBFDF911A
:100DA000CF910895FC01808191810E94210C0895CA
:100DB000CF93882309F450C0C82F8CEF8C0F813A51
:100DC000D0F46C2F80910201909103010E9426249F
:100DD000882349F06C2F80910201909103010E94B9
:100DE000B1240E94B00F6C2F8091020190910301F9
:100DF0000E94A6240CC080E28C0F883058F4C77083
:100E000081E001C0880FCA95EAF70E946E0FCF916A
:100E10000C94B00FEBE5EC0FE33040F4F0E0E65457
:100E2000FE4F808190E0CF910C94E423E8E5EC0F35
:100E3000E73150F4F0E0EE0FFF1FE457FE4F8081E2
:100E40009181CF910C94FA23CD3E30F08C2F0E94EB
:100E50000619CF910C94D819CF910895882389F160
:100E60009CEF980F913A40F4682F80910201909185
:100E700003010E94B1240DC090E2980F983058F4FD
:100E8000877091E001C0990F8A95EAF7892F0E9437
:100E9000740F0C94B00F9BE5980F933020F480E012
:100EA00090E00C94E42398E5980F973120F480E0CB
:100EB00090E00C94FA238D3E20F00E9461190C946E
:100EC000D81908951F93CF93DF93182FEB010E9439
:100ED000D806209741F08FE99FE00197F1F700C015
:100EE00000002197F6CF812FDF91CF911F910C94B5
:100EF0002E07893319F060E070E002C060E570E011
:100F00000C946207882321F00E946E0F0C94B00F9E
:100F10000895882321F00E94740F0C94B00F089557
:100F2000CF92DF92EF92FF920F931F93CF93DF93B5
:100F30007C01D62FC72FFC011281058102950F700D
:100F40000E94640F8823B9F01123A9F08C2F807FB1
:100F5000803421F080E28D0F883068F08091480362
:100F600082FD09C082E00E9400100E94640F91E09F
:100F7000D82ED92601C0D12CCC2EC2948FE0C82205
:100F80008C2D90E08C30910508F0CFC1FC01EB591D
:100F9000FF4F0C94022D8C2F807FCF70882311F08F
:100FA000C295C07F112399F0CC2309F4AAC180E235
:100FB0008D0F883010F0D11104C08C2F0E946E0F5D
:100FC00003C08C2F0E947E0F0E94B00F9AC18D2FFC
:100FD0000E942E07CC2309F4A8C180E28D0F88302F
:100FE00038F1DD2329F18C2F0E94840F24C08C2F2F
:100FF000807FCF70803211F0C295C07FDD2319F061
:10100000D130A1F13DC08091480382FF17C0112368
:1010100049F0CC2329F08C2F0E946E0F0E94B00F54
:1010200080E070C180E00E942E07CC2309F47DC1CE
:101030008C2F0E94740F0E94B00F77C1112371F0A2
:10104000002341F0013031F40E94910F8C2B0E945B
:10105000990F6BC10E94910F8C2B1DC0002319F0BA
:10106000013009F462C10E94A60F25C0112321F0AE
:10107000063008F05AC10EC0053008F056C11BC03A
:10108000112361F0002331F0F701858180FF39C120
:101090008F7085838C2F0E94820747C1002359F0EF
:1010A000D93309F03FC1FFEF07EE13E0F1500040E4
:1010B0001040E1F735C18C2F0E94890736C18C2F73
:1010C00086958695837019F0813061F02EC11123C9
:1010D00021F08D2F9C2F937002C080E090E00E9441
:1010E000E4232BC1112321F08D2F9C2F937002C07C
:1010F00080E090E00E94FA2320C18D2F112319F087
:101100000E94061902C00E9461190E94D81915C1D7
:101110008C2F837009F047C011110BC12D2F229520
:1011200026952770220F220F6D2F6F70862F90E06B
:10113000A0E0B0E0022E04C0880F991FAA1FBB1FB9
:101140000A94D2F7D4FF10C04FE050E060E070E0A6
:1011500004C0440F551F661F771F2A95D2F740958C
:1011600050956095709503C040E050E0BA01C69577
:10117000C695C3708A019B01082B192B2A2B3B2B88
:10118000C901B801C23049F058F4C13019F00E94C9
:101190009C0ACFC00E948A0ACCC00E94AE0AC9C075
:1011A0000E94880AC6C0112319F08C2F817001C0DB
:1011B0008695882309F4BDC02D2F2295269527708A
:1011C000220F220F6D2F6F70862F90E0A0E0B0E00D
:1011D000022E04C0880F991FAA1FBB1F0A94D2F7C2
:1011E000D4FF10C04FE050E060E070E004C0440F56
:1011F000551F661F771F2A95D2F740955095609529
:10120000709503C040E050E0BA01C695C695C37022
:101210008A019B01082B192B2A2B3B2BC901B801F2
:10122000C23049F058F4C13019F00E94610B81C0FE
:101230000E944F0B7EC00E94730B7BC00E94C20AAB
:1012400078C0CF70112339F08C2F0E94E80A8D2FBF
:101250000E9482076EC08D2F0E9489078C2F0E94EA
:10126000090B67C0D23F21F128F4D03F41F0D13FB4
:10127000C1F043C0D33F19F1D43F79F03EC01123F0
:1012800041F0053008F051C08C2F8F710E942E0B59
:101290004CC0063008F049C0F7CF8091480382FF68
:1012A00018C0112339F08C2F8F710E94E80A3DC0BD
:1012B0001123C9F38C2F8F710E94090B36C01123A3
:1012C00029F08C2F8F710E94D30A2FC00E94CE0A62
:1012D0002CC0112349F0CF718C2F0E94E80A63E0E3
:1012E0008C2F0E94E50F21C081E00E940010023087
:1012F000E0F082E00E94001018C0112331F00023BA
:1013000091F28D2F0E94D80610C0002399F2D93394
:1013100049F41FEF27EE33E0115020403040E1F751
:1013200000C000008D2F0E942E0788EF8C0D8430A6
:1013300020F40E94A9230E947F06DD20C9F00E94AC
:10134000600F80FD15C0F70112820E945A0F0E94A3
:10135000E80AC7010E94D9090E945A0FDF91CF9174
:101360001F910F91FF90EF90DF90CF900C94090B9D
:10137000DF91CF911F910F91FF90EF90DF90CF9071
:1013800008950F931F93CF93DF93EC0168817981C8
:101390008A810E942C0C8C010E94850B0E94760A87
:1013A000B801CE010E949007DF91CF911F910F915C
:1013B0000895CF93DF93EC01988189812B813C8143
:1013C000232B31F08F3F31F481E09F3F19F403C0AC
:1013D00081E001C080E080FD1DC0CE010E941D069D
:1013E000811110C00E94640F8823A1F08A81882394
:1013F00089F08091480382FD0DC082E0DF91CF919A
:101400000C940010CE010E94C109CE01DF91CF9152
:101410000C94F305DF91CF91089580E090E00E9455
:10142000E42380E090E00E94FA230E948B0F0E9448
:101430008E0F0E94B00F0E94091B0C94D819809146
:101440000201909103010E94BC240C940D0A0E9499
:101450007B0F0C941F0AE92FE295EF704E2F50E09E
:10146000FA013297EE30F105B0F4EF58FF4F0C94CB
:10147000022D803F91F018F4883E68F40EC0843F3E
:1014800051F40BC0883E48F0813F29F406C093FB1D
:10149000882780F9089580E0089581E00895FC018F
:1014A000808191810E94210C0E942B0A0895CF9384
:1014B000DF9300D000D01F92CDB7DEB70F900F9012
:1014C0000F900F900F90DF91CF910895CF93DF93FE
:1014D00000D000D000D0CDB7DEB726960FB6F89476
:1014E000DEBF0FBECDBFDF91CF910895089508955F
:1014F0000C94770A0C94780A0E947A0A609343024B
:101500007093440280934502909346020C940D0A16
:101510000C947C0A0F931F93009143021091440294
:101520002091450230914602602B712B822B932B28
:101530001F910F910C947C0A0F931F93009143020B
:10154000109144022091450230914602602371239C
:10155000822393231F910F910C947C0A0F931F9366
:1015600000914302109144022091450230914602BD
:1015700060277127822793271F910F910C947C0A73
:101580000C94770A0E94C00A60933F027093400255
:1015900080934102909342020C940D0A60E070E047
:1015A000CB010C94C20A0F931F9341E050E060E01E
:1015B00070E08A019B0104C0000F111F221F331F1E
:1015C0008A95D2F7C901B8011F910F910C94C20AF4
:1015D0000F931F9341E050E060E070E004C0440FBF
:1015E000551F661F771F8A95D2F780913F02909111
:1015F0004002A0914102B09142028A019B01082B56
:10160000192B2A2B3B2BC901B8011F910F910C9468
:10161000C20A0F931F9341E050E060E070E004C005
:10162000440F551F661F771F8A95D2F74095509536
:101630006095709580913F0290914002A091410287
:10164000B09142028A019B01082319232A233B23DC
:10165000C901B8011F910F910C94C20A0F931F93F7
:1016600041E050E060E070E004C0440F551F661F89
:10167000771F8A95D2F780913F0290914002A09106
:101680004102B09142028A019B01082719272A27AB
:101690003B27C901B8011F910F910C94C20A0F9307
:1016A0001F9300913F02109140022091410230911E
:1016B0004202602B712B822B932B1F910F910C9464
:1016C000C20A0F931F9300913F0210914002209194
:1016D00041023091420260237123822393231F91A0
:1016E0000F910C94C20A0F931F9300913F02109127
:1016F00040022091410230914202602771278227E7
:1017000093271F910F910C94C20A0895292F220F3D
:10171000920F990F890FE82FE695E695E695877069
:1017200051E001C0550F8A95EAF785E0E89FF00186
:101730001124EF5DFD4F20E030E070E04081CB01EF
:10174000022E02C0969587950A94E2F781708195E2
:1017500084278523842781932F5F3F4F25303105D0
:1017600069F70895292F220F920F990F890F682F7B
:10177000669566956695982F977085E0689FB0018D
:10178000112440E050E080E0FB01E40FF51FEF5D25
:10179000FD4F208130E0092E02C0369527950A942E
:1017A000E2F721703327042E01C0220F0A94EAF7D2
:1017B000822B4F5F5F4F4530510531F70895BF923F
:1017C000CF92DF92EF92FF920F931F93CF93DF930D
:1017D0008C01C0903F02D0904002E0904102F09016
:1017E00042028091430290914402A0914502B0913F
:1017F0004602C82AD92AEA2AFB2ACFE1D0E0D7013B
:10180000C6010C2E04C0B695A795979587950A94A6
:10181000D2F780FD04C0219790F7B12C07C0BC2EF1
:10182000B8018C2F0E9406130197A9F38B2DDF912D
:10183000CF911F910F91FF90EF90DF90CF90BF90CD
:101840000895CF93DF93EC010E94DF0BBE010E944D
:101850000613DF91CF9108951F93CF93DF93EB0190
:1018600090912002992321F0CB010E94210C13C0FA
:10187000882349F0CB010E94DF0B182F682FCE017F
:101880000E94860B04C0CB010E94B20B182FBE0130
:10189000812F0E940613DF91CF911F9108951F930E
:1018A000CF93DF93C091470216E080914802C8179A
:1018B00099F0D0E01C9FF0011D9FF00D1124E75B13
:1018C000FD4F4081518162817381848195810E94A5
:1018D000660A2196C770E9CFDF91CF911F910895D5
:1018E0004091790250917A0260917B0270917C0262
:1018F00080917D0290917E020C94660AEF92FF9295
:101900000F931F93CF93DF9380917E0282958F7008
:1019100009F065C080917B02882309F460C0809142
:101920004702F09048021091790200917A0260918A
:101930007C0270917D0291E01F3F09F090E0C09120
:101940000001D0910101292F96E0E92E8F1509F4AD
:1019500046C06115710521F00F3F21F030E003C052
:1019600031E001C0322F90E030FD36C0E89EF0013A
:10197000E99EF00D1124DF01A75BBD4F11963C914C
:101980001197301329C03C91311326C012963C9117
:101990001297311121C013964D915C911497461BFB
:1019A000570B4C175D07C0F480917E028F708061E9
:1019B00080937E02E25BFD4F80818F708061808327
:1019C00089E792E00E94D909DF91CF911F910F9191
:1019D000FF90EF900C944F0C01968770B7CFDF917A
:1019E000CF911F910F91FF90EF9008959F92AF922A
:1019F000BF92CF92DF92EF92FF920F931F93CF93FC
:101A0000DF93CDB7DEB761970FB6F894DEBF0FBE98
:101A1000CDBF8C0185E0F801DE011D9601900D928D
:101A20008A95E1F7D8011296EC9090917902E091B5
:101A30007A0220917C0230917D022115310531F02E
:101A4000EF3F31F481E09F3F19F403C081E001C012
:101A500080E0B82FB1709B2E80FD2DC1D8014C9134
:101A600011965C9111971396AD90BC90149789E7ED
:101A7000C82E82E0D82EF0907B02B501621B730B5A
:101A80002091000130910101FF2009F4E5C080910F
:101A90007E026217730708F0A1C0282F207F09F08B
:101AA00052C05E1313C0491311C0FE2CE1100EC0CA
:101AB0008F70806180937E020E94700CC6010E942C
:101AC000D90980917E02F801858333C1AB2831F0BA
:101AD0005F3F31F481E04F3F19F403C081E001C062
:101AE00080E080FD03C081E08E2502C080E090E0B0
:101AF000F82FF170FF2E80FF1CC0809147022091CB
:101B0000480236E0821709F4F1C090E0389FF001F6
:101B1000399FF00D1124E75BFD4F6181561306C01C
:101B20006081461303C06281E61203C0019687708C
:101B3000E9CFFE2CEE2009F4FCC080917E0281608A
:101B400080937E0260C05E1312C0491310C0E11082
:101B50000EC0F8018583C8010E94D90986E0F8010A
:101B6000A9E7B2E001900D928A95E1F7BCC0C801E7
:101B70000E944F0A882361F1EE2051F120917E02EC
:101B8000822F82958F7090E0029774F08091790295
:101B900090917A0298878F831986BB86AA862C87B4
:101BA000CE0107960E94D90986E0F801A9E7B2E0C4
:101BB00001900D928A95E1F70E947E0C0E94700CB4
:101BC0000AC05E1711F1C8010E944F0A81112CC092
:101BD000C8010E94D909FF24F394ABC0282F207FAD
:101BE00081F77A2DB98AA88A6E2D89890E94570AB1
:101BF00089E792E00E94D90986E0D6011D928A9574
:101C0000E9F70E94700CF12C94C04913DCCFE1106D
:101C1000DACFF8018583C8010E94D90986E0D60190
:101C20001D928A95E9F785C0EE2091F220917E02FF
:101C3000822F82958F7090E002970CF4B5CF80913F
:101C4000790290917A029A8389831B82BD82AC8249
:101C50002E83CE010196A6CF62177307F8F4FE2CEF
:101C6000EE2009F4B5CF5E130BC0491309C086E01E
:101C7000F801A9E7B2E001900D928A95E1F759C009
:101C8000C8010E944F0A81118FCF80917E0281602E
:101C900080937E02C8010E94D9094BC07A2DB98A6F
:101CA000A88A6E2D89890E94570A86E0F601119252
:101CB0008A95E9F718C0EE2009F48ACFC8010E947E
:101CC0004F0AF82E882309F483CF86E0F801A9E7AC
:101CD000B2E001900D928A95E1F789E792E00E94C7
:101CE000D2060E947E0C0E94700C23C04D875E8736
:101CF0008D859E850E94210C292F22952F702230E0
:101D000028F49F7039F0811105C00BC0243028F4ED
:101D10009F7049F4805E883020F0C8010E94D90984
:101D20009F2CF92C06C0D80115969C91907F91F7B5
:101D3000F8CF8F2D61960FB6F894DEBF0FBECDBFE2
:101D4000DF91CF911F910F91FF90EF90DF90CF9097
:101D5000BF90AF909F9008951F93CF93DF93CDB71F
:101D6000DEB72C970FB6F894DEBF0FBECDBF4F8302
:101D7000588769877A878B879C87CE0107960E9450
:101D8000F60C8823D1F09F8188852A853B85232BFB
:101D900031F08F3F31F481E09F3F19F403C081E0BF
:101DA00001C080E080FD47C04F81588569857A85F4
:101DB0008B859C850E94660A3EC086E0FE013796B0
:101DC000DE01119601900D928A95E1F7FF81E88579
:101DD0006A857B856115710531F0EF3F31F481E053
:101DE000FF3F19F403C081E001C080E080FD23C003
:101DF0002091480230E0C9010196877099274091EF
:101E0000470250E084179507F1F1F983EA837D8357
:101E10006C8396E0929FD001939FB00D1124A75B35
:101E2000BD4FFE01319601900D929A95E1F7809396
:101E300048020E944F0C16E08091470290914802A0
:101E4000891771F1189FC0011124875B9D4F0E9473
:101E5000F60C882329F1E09147021E9FF00111241E
:101E6000E75BFD4F4081518162817381848195815F
:101E70000E94660A8091470290E001968770992738
:101E800080934702D9CF0E94270A109248021092ED
:101E90004702E9E7F2E086E0DF011D928A95E9F763
:101EA0002C960FB6F894DEBF0FBECDBFDF91CF9159
:101EB0001F91089580917F02859585958595089558
:101EC00080917F028770089590917F02977081E0E2
:101ED00009F480E008958091A30208959091A302EF
:101EE000892B8093A302089580959091A302892362
:101EF0008093A30208951092A30208959091A202E4
:101F0000892B8093A202089580959091A202892343
:101F10008093A20208951092A20208951092A10245
:101F2000089580918002089508950C94940F0C9464
:101F3000950F9091480392FD08C0909180029817E8
:101F400021F0809380020C94970F08958091800275
:101F5000882329F01092800280E00C94970F089556
:101F6000E0910201F09103018091A3028083E0914E
:101F70000201F091030190818091A202892B80835C
:101F8000E0910201F091030190818091A102892BDF
:101F9000808380918002882381F0E0910201F0919A
:101FA00003019081892B808380910201909103012C
:101FB0000E94102481110E94A60F8091020190912D
:101FC00003010C94BC230C94940F9091480392FD50
:101FD00010C098E0899F90011124262B20937F0246
:101FE0000E94E80A80917F028595859585950C94DD
:101FF000E30F0C94E80A10927F0280E00C94E30F48
:1020000020917F028095822380937F02982F977082
:1020100099F430E0482F082E000C550B2417350793
:1020200059F09091480392FD07C085958595859557
:102030000E94090B0C94FB0F08959091480392FBAA
:10204000222720F9281769F080FB92F99093480322
:1020500080914703909148030E946B1082E00C949A
:10206000001008958091480382FB882780F991E051
:1020700089270C941D1081E00C941D1080E00C94B5
:102080001D106FEF7FEF80E090E00C94143080E043
:1020900090E00E94F02F21E0893E9E4F09F020E061
:1020A000822F089582E090E00C94E82F83E090E086
:1020B0000C94E82FCF9384E090E00E94E82FC82F83
:1020C00082E290E00E94E82F2C2F30E0A901582BEB
:1020D000CA01CF910895CF93C92F682F84E090E073
:1020E0000E94F62F6C2F82E290E0CF910C94F62F95
:1020F000AB01BC018FE090E00C940830AB01BC0157
:1021000083E190E00C94083060E070E0CB010C9427
:102110007E1060E070E0CB010E9478100C94841077
:1021200069EE7EEF80E090E00E94143060E082E093
:1021300090E00E94F62F60E083E090E00E94F62F8E
:1021400010924302109244021092450210924602ED
:1021500060E084E090E00E94F62F60E082E290E090
:102160000E94F62F60E085E090E00E94F62F60E08C
:1021700086E090E00E94F62F6FEF87E090E00E94EB
:10218000F62F40E050E0BA0188E090E00E9408306D
:1021900060E08DE090E00E94F62F40E050E0BA0150
:1021A00088E190E00E94083060E087E190E00E94C2
:1021B000F62F40E050E0BA018CE190E00E94083038
:1021C00060E070E080E290E00E94143040E050E077
:1021D000BA0188E190E00E9408300C9489100C94B8
:1021E0009010682F8EE090E00C94F62F0E946D25E1
:1021F0006093B1027093B2028093B3029093B402E1
:102200006093AD027093AE028093AF029093B002E0
:10221000089585B7806885BF85B7806885BF0895B4
:102220000C94321608950C9412110C9412110C9403
:1022300015110C9412110C9419110C9412110E9486
:10224000091183E294E10E949F230E941D110C94C6
:102250001B110E9413110C9412110E9458250E9408
:10226000E2130E941D150E94171B80E00E94701B44
:102270000C9417118F929F92AF92BF92CF92DF92E0
:10228000EF92FF920F931F93CF93DF93CDB7DEB7FB
:102290002A970FB6F894DEBF0FBECDBF0E94A715D8
:1022A000982E81110E94F61085EAA82E82E0B82EA1
:1022B00000E010E0802E802F0E946714D82EF501D8
:1022C000C1905F01C826B1F40F5F1F4F08301105A0
:1022D00089F78FEF89838A831B820E946125816041
:1022E000782F9D838C8349815A816B818D810E94D7
:1022F00088062FC08091B50281FD0E946D14E12CEB
:10230000FF24F3948C2D8F21F1F00E94101188236B
:1023100099F0EE828F82DF2081E009F480E08887E7
:102320000E9461258160782F9A8789874E815F811D
:1023300068858A850E948806F801EB55FD4F8081EB
:10234000F826F08206C0E394FF0CF6E0EF12DACF35
:10235000BBCF0E940A1E91100E94CA1C0E94F6194F
:102360000E94A9239091A4028917C1F00E94A92379
:102370008093A4022A960FB6F894DEBF0FBECDBF9D
:10238000DF91CF911F910F91FF90EF90DF90CF9051
:10239000BF90AF909F908F900C947F062A960FB6B7
:1023A000F894DEBF0FBECDBFDF91CF911F910F918B
:1023B000FF90EF90DF90CF90BF90AF909F908F9065
:1023C0000895CF93DF930E940B13EC01811521E553
:1023D000920708F045C0811530E5930708F094C0D6
:1023E000883E910528F5803E910508F0F8C0883AAE
:1023F000910570F4853A910508F07CC08130910513
:1024000009F475C008F4E8C0049708F0E8C0E4C017
:102410008F3B910508F0E0C0C85AD0E0CC0FDD1F1B
:10242000C354DE4F0990D881C02DCE019464D8C02A
:10243000811540E2940758F4811551E0950708F0A2
:10244000CEC08D3E910508F4C7C09065C9C0C115C6
:1024500080E4D80708F4C0C0DF70CE01906AC0C025
:10246000811525E59207A8F4811534E5930708F056
:1024700095C0811543E5940708F07BC0811552E5AE
:10248000950708F061C0D82FCC27CE01816F906AE4
:10249000A7C0C11589E5D807A0F4C11528E5D20762
:1024A00008F082C0C11536E5D30708F095C08C2F1F
:1024B0000E949F138F7190E0D82FCC27CE0190629D
:1024C0008FC0C1154AE5D40708F474C0CE019056F8
:1024D0008115904208F080C08D2F8F710E949F134C
:1024E000DD27D0628F71AE01582BCA0179C081E01F
:1024F00090E076C0C55AD0E0C551DE4F8881C82F24
:10250000D0E0CE0190646CC074E0969587957A9582
:10251000E1F7282F23703C2F337081E090E002C058
:10252000880F991F3A95E2F79C68AC01522B9A01EB
:102530009C2F9F709695969550E2959FE0011124EF
:10254000C9018C2B9D2B4CC08370992721E030E072
:1025500002C0220F331F8A95E2F79C2F969596951D
:1025600080E2989FE0011124C22BD32BCE019C68FE
:1025700037C08370992721E030E002C0220F331F5B
:102580008A95E2F79C2F9695969540E2949FE001FC
:102590001124C22BD32BCE019A6822C0D82FCC276E
:1025A000CE01846F906A1CC0DC2FCC27CE01806FD7
:1025B000906A16C08C2F8F700E949F1394E0D6955E
:1025C000C7959A95E1F7CF70D0E0DC2FCC27D06982
:1025D0009E01282BC90104C080E090E001C0CE011B
:1025E000DF91CF91089520E3829FC0011124FC0167
:1025F00026E0729FE00DF11D1124E60FF11DEE0F94
:10260000FF1FEB58FE4F8591949108950E94F3129D
:102610000E94E11108958238910569F1B0F4813387
:10262000910509F46DC048F48932910509F463C03D
:102630008A32910509F469C008958533910509F43A
:1026400055C089339105B9F00895833E910569F12C
:1026500038F4803E9105B1F0823E910509F108956C
:10266000863E9105A9F1873E9105B9F1843E910519
:1026700009F064C023C02091470320FD4FC021FD15
:102680004DC008958091470380FD44C08091480368
:1026900080FF44C08091470384FD42C083EE4DC05B
:1026A0008091470382FF38C0F5CF8091470382FDB8
:1026B00033C08091480380FD31C0ECCF8091480346
:1026C00081FF32C08091470384FD2AC087EE35C068
:1026D0008091470383FF26C0F5CF8091470383FD98
:1026E00021C08091480381FD1FC0ECCF809147033A
:1026F00085FD1CC01DC08091470385FD19C016C013
:102700008091470386FD16C017C08091470386FD60
:1027100013C010C089E311C082EE0FC080EE0DC05F
:1027200080E00BC086EE09C084EE07C089E205C0D8
:1027300085E303C08AE201C081E390E008959091AF
:10274000470392FF0DC0282F2871283019F4877F86
:10275000846006C0282F2471243011F48B7F886098
:1027600093FF0DC0282F2871283119F4877E8461CA
:1027700006C0282F2471243111F48B7E88612091AA
:10278000480320FF0DC0382F3871383019F4877F87
:10279000816006C0382F3171313011F48E7F88602E
:1027A00021FF0DC0282F2871283119F4877E8161FF
:1027B00006C0282F2171213111F48E7E886194FD8D
:1027C000877E0895109243031092440310924503AC
:1027D000109246030895CF92DF92EF92FF926B0121
:1027E0007C010E94321681110EC00E946D25C61A0E
:1027F000D70AE80AF90AC0924303D0924403E09250
:102800004503F0924603FF90EF90DF90CF9008953C
:102810000F931F930E943216882321F01F910F916E
:102820000C946D250E946D25009143031091440383
:102830002091450330914603600F711F821F931F43
:102840001F910F91089580E008950C9441100E940B
:10285000A7158FE39CE90197F1F700C000000E94E3
:10286000A7150E944A16811102C084E001C080E0D1
:102870000E94671481FF04C00E9425140C94CA258D
:1028800008950C9427140E944710811102C00E94E1
:10289000EF100E9452108093B5020E945A1090933C
:1028A0004803809347030E9441140E945610682FEA
:1028B00070E080E090E00E94880A60913F02709191
:1028C000400280914102909142020C94C00AE82F8C
:1028D000F0E0EF5AFC4F80810895089580EA8A95D0
:1028E000F1F7089500C008950C946E1408950C94A7
:1028F00076140C9477140C9476140C947B14F8943E
:10290000E82FE295EF70F0E031A1282F2F7081E0E1
:1029100090E001C0880F2A95EAF7982F90959323AD
:1029200091A392A1892B82A37894089508950C9481
:1029300096140F931F93CF93DF93C4EFD1E0899147
:102940008F3F11F00E947F1481E0C83FD807B9F78C
:10295000CEEED1E004EF11E089918F3F11F00E949B
:102960007F140C171D07C1F7DF91CF911F910F91B5
:102970000895CF92DF92EF92FF920F931F93CF9320
:10298000DF938C01C62FD0E0CE018C509E4F7C018E
:10299000FC0190819F3F09F447C0D62EF894E92F9F
:1029A000E295EF70F0E081A19F7021E030E001C07E
:1029B000220F9A95EAF7822B81A382A120952823E2
:1029C00022A378940E947214EEEEF1E044EF51E0FD
:1029D00031E0C12C21912F3F89F0A22FA295AF7039
:1029E000B0E090968C9190E02F7002C095958795FD
:1029F0002A95E2F780FD02C0832F01C080E0C82A3B
:102A0000330F4E175F0731F7F70180818F3F11F0C9
:102A10000E947F1461E0C11001C060E08D2D0E9412
:102A20007414C00FD11FC882DF91CF911F910F91F5
:102A3000FF90EF90DF90CF9008950E944C16809108
:102A4000040180910401811102C094E001C090E072
:102A500090935A0384E0891B809359030E94991430
:102A600088E0E1E5F3E0DF01982F1D929A95E9F700
:102A7000E9E4F3E0DF011D928A95E9F784E00E9422
:102A8000FB150E94FE050C9456160F931F93CF93CF
:102A9000DF9300D000D0CDB7DEB70E943216609130
:102AA0005A038823E9F119821A821B821C82862F1D
:102AB00090E08E010F5F1F4FB8018F5A9C4F0E940C
:102AC0006416882389F08091590390E044E050E037
:102AD000B8018F5A9C4F0E94112D21E02093B6021D
:102AE000892B69F410E019C08091B6028823D1F3D4
:102AF00084E0F80111928A95E9F71092B602E0910C
:102B00005903F0E0EF5AFC4F89819A81AB81BC8177
:102B100080839183A283B38311E00E9404060DC0D9
:102B200070E06F5A7C4F8091590390E08F5A9C4F10
:102B30000E94F4160E94971410E0812F0F900F90BE
:102B40000F900F90DF91CF911F910F910895EF9209
:102B5000FF920F931F93CF93DF93CDB7DEB72897E4
:102B60000FB6F894DEBF0FBECDBF8E010F5F1F4FB3
:102B700088E0F80111928A95E9F7F12C6F2DC801D0
:102B80000E94B914F394F4E0FF12F8CF48E050E04B
:102B9000B80189E493E00E94112D7C0121E0892B8A
:102BA00009F420E0E114F10441F088E0F801A9E41F
:102BB000B3E001900D928A95E1F760915A0370E0BD
:102BC0006F5A7C4F44E089E493E00E94FC15EF28A3
:102BD00019F40E94451502C081E090E028960FB6D6
:102BE000F894DEBF0FBECDBFDF91CF911F910F9143
:102BF000FF90EF9008950895FF920F931F93CF9346
:102C0000DF938C01F62ED72FC42F222349F081E0C9
:102C10008093B9020E9461259093B8028093B70215
:102C20008091B9028823C1F08091B7029091B802D7
:102C30000E947925059780F0EF2DFD2FD8014C2FAC
:102C400050E0CD01801B910B841795071CF48D91EA
:102C50008193F7CF1092B902DF91CF911F910F911D
:102C6000FF9008958091BC0281110DC00E94C12C7B
:102C7000811102C082E001C081E08093BC028230F9
:102C800011F40E94BC2C81E09091BC02913009F0BB
:102C900080E008950C9432160E944A168093040135
:102CA0000E94321681110C949C1608950E943216CF
:102CB000811102C00C949E16089581E09091BD028E
:102CC0009A3008F080E008950F931F93CF93DF931D
:102CD000EC018B018091BD028A3038F4B801CE013D
:102CE0000E94F21681111DC00AC08091BA02909113
:102CF000BB020E947925843F914080F715C08091E6
:102D0000BD028F3F19F08F5F8093BD028091BD029D
:102D10008A3060F00E9461259093BB028093BA02D2
:102D200003C01092BD0202C080E001C081E0DF91CB
:102D3000CF911F910F9108950C94DA210C94DD210D
:102D4000EF92FF920F931F93CF93DF937901C82FD8
:102D5000880FDD0B41155105A9F08AE08C9FF00129
:102D60008D9FF00D1124EB5FFE4F8381948182547F
:102D70009D4F228130E04217530708F49A01A901C0
:102D80000E941E2DCE010E94E722892B09F5011514
:102D9000110501F18AE08C9FF0018D9FF00D112447
:102DA000EB5FFE4F458150E00417150708F4A801BA
:102DB0008AE08C9FF0018D9FF00D1124EB5FFE4F98
:102DC0006681778162547D4FC7010E941E2D02C02B
:102DD00080E001C081E0DF91CF911F910F91FF90C2
:102DE000EF9008950C9415180C9431180F931F93BD
:102DF000CF93DF9300D000D0CDB7DEB76091D30280
:102E00007091D4028091D5029091D6020E948825BB
:102E1000643671058105910528F10E940814DC01D2
:102E2000CB010296A11DB11D89839A83AB83BC831C
:102E300000E010E020E030E044E050E0BE016F5FD1
:102E40007F4F82E00E94A016182F882361F00E9415
:102E50006D256093D3027093D4028093D502909332
:102E6000D60201C011E0812F0F900F900F900F90AC
:102E7000DF91CF911F910F910895AF92BF92CF92A2
:102E8000DF92EF92FF920F931F93CF93DF937C011A
:102E90005B016A010E945D16811103C001E010E030
:102EA00002C00AE010E0C1E0D0E0F894B501C7012B
:102EB000F60109957894811115C021960C171D070C
:102EC00094F0CC9F9001CD9F300D300D112480E007
:102ED00090E045E34A95F1F70000019682179307C9
:102EE000C1F7E3CF81E0DF91CF911F910F91FF9068
:102EF000EF90DF90CF90BF90AF900895AF92BF92C8
:102F0000CF92DF92EF92FF920F931F93CF93DF93B5
:102F100000D000D01F92CDB7DEB75B01E090FC017E
:102F2000F090FD0101E010E09E012B5F3F4F40E07B
:102F300050E060E070E080E00E94A016182F882327
:102F400009F43EC067018FEFC81AD80A6091CF021A
:102F50007091D0028091D1029091D2020E94882576
:102F6000643671058105910518F104E010E09E01B9
:102F70002F5F3F4F40E050E060E070E081E00E9452
:102F8000A016182F64E070E0C6010E94181B91E0A3
:102F90002D81281390E0192351F10E946D25609333
:102FA000CF027093D0028093D1029093D20211C0CD
:102FB00064E070E0C6010E94181B9D818913D5CF83
:102FC000F70181819281A381B48189839A83AB8344
:102FD000BC83112361F089819A81AB81BC8180938C
:102FE000CB029093CC02A093CD02B093CE028091FD
:102FF000CB029091CC02A091CD02B091CE02F5010E
:1030000080839183A283B383812F0F900F900F90C1
:103010000F900F90DF91CF911F910F91FF90EF9044
:10302000DF90CF90BF90AF9008950F931F93CF93F1
:10303000DF93EC018B014EE757E10E943D17882397
:1030400051F046EF56E1B801CE01DF91CF911F91CB
:103050000F910C943D1780E0DF91CF911F910F915C
:1030600008950F931F93CF93DF93F894C091FC01C1
:10307000D091FD01CE01019624E0FB01DC0101901D
:103080000D922A95E1F764E070E00E94181B888396
:103090007894F8946D817E818F8198850091C70224
:1030A0001091C8022091C9023091CA0260177107BD
:1030B0008207930751F06093C7027093C802809310
:1030C000C9029093CA020E94EB137894DF91CF91CA
:1030D0001F910F9108950E9482270E942D110C9438
:1030E0008E270E9492270E943A110C94AC270E94CE
:1030F000E8240E9469270E941F110E946B180E94F9
:1031000071180E942911FBCF8091DD0280FF0BC056
:103110006091280185E0689FB0011124759567953D
:10312000759567952BC081FF09C06091280185E0E6
:10313000689FB00111247595679520C082FF07C074
:103140006091280185E0689FB001112417C090911B
:10315000DC029923D1F060912701961788F720911E
:10316000280185E0289F90011124929FA001939F40
:10317000500D112470E0CA010E94EE2C60387105D8
:1031800040F46115710519F406C065E070E0862F02
:1031900008958FE7089581E008958091DD0280FF12
:1031A00008C06091240170E07595679575956795E5
:1031B00021C081FF06C06091240170E0759567957C
:1031C00019C082FF04C06091240170E010C090918A
:1031D000DB02992399F0609123019617A0F7809163
:1031E0002401899FC001112470E00E94EE2C6038F8
:1031F000710540F46115710519F406C061E070E0D5
:10320000862F08958FE7089581E008958D3E21F47B
:103210000E948418819504C08E3E29F40E9484186F
:103220008093E10208958F3E21F40E9484188195D5
:1032300004C0803F29F40E9484188093E00208951E
:10324000893F19F40E94CD1805C08A3F31F40E94CD
:10325000CD1881958093E20208958B3F21F40E945E
:10326000CD18819504C08C3F29F40E94CD1880931D
:10327000E30208959FE0980F983078F421E030E061
:10328000A90102C0440F551F9A95E2F7CA01909117
:10329000DF02892B8093DF0208958D3F21F4809116
:1032A000DD0281600BC08E3F21F48091DD028260DF
:1032B00005C08F3F29F48091DD0284608093DD0298
:1032C00008958D3E39F49091E10297FF35C0109238
:1032D000E10259C08E3E29F49091E1021916BCF327
:1032E0002BC09091E0028F3E29F497FF25C01092E9
:1032F000E00249C0803F19F41916CCF31DC090912B
:10330000E202893F29F41916BCF41092E2023BC094
:103310008A3F19F497FF10C0F8CF8B3F39F4909192
:10332000E30297FF09C01092E3022DC08C3F21F405
:103330009091E3021916BCF39FE0980F983080F447
:1033400021E030E0A90102C0440F551F9A95E2F731
:10335000CA0180959091DF0289238093DF0213C018
:103360008D3F21F48091DD028E7F0BC08E3F21F4D2
:103370008091DD028D7F05C08F3F29F48091DD02B1
:103380008B7F8093DD028091E002811106C08091E5
:10339000E102811102C01092DC028091E2028111EF
:1033A00006C08091E302811102C01092DB020895F1
:1033B0000E9461252091E002211104C02091E102C8
:1033C000222321F09093DA028093D9022091E20225
:1033D000211104C02091E302222321F09093D8020E
:1033E0008093D7028EED92E00C94D623EF92FF9259
:1033F0000F931F93CF93DF9300D000D000D0CDB7B1
:10340000DEB786E0EEEDF2E0DE01119601900D925E
:103410008A95E1F7E090E002F090E1020091E2028B
:103420001091E3021092E0021092E1021092E20287
:103430001092E302E11003C0FF2009F45DC0809107
:10344000D9029091DA020E947925AC019091DC02B8
:10345000992339F02091290130E02417350758F0DD
:103460004BC020912A018AE0289F90011124241743
:10347000350718F041C09F3F19F09F5F9093DC0221
:10348000EE2061F00E9484181E1414F09FEF01C01A
:1034900091E0989F902D11249093E002FF2061F01D
:1034A0000E9484181F1414F09FEF01C091E0989FB0
:1034B000902D11249093E1023091E0023323E1F04A
:1034C0002091E1022223C1F045EB3403C001112415
:1034D000992319F09093E00203C081E08093E00209
:1034E00035EB2303C0011124992319F09093E102D5
:1034F00003C081E08093E102011103C0112309F4AC
:103500005DC08091D7029091D8020E947925AC01CC
:103510009091DB02992339F02091250130E02417A6
:10352000350758F04BC0209126018AE0289F900172
:1035300011242417350718F041C09F3F19F09F5FF1
:103540009093DB02002361F00E94CD18101614F056
:103550009FEF01C091E0989F902D11249093E2027B
:10356000112361F00E94CD18111614F09FEF01C0D5
:1035700091E0989F902D11249093E3023091E20204
:103580003323E1F02091E3022223C1F045EB340321
:10359000C0011124992319F09093E20203C081E045
:1035A0008093E20235EB2303C0011124992319F023
:1035B0009093E30203C081E08093E3028091E002F4
:1035C00081110BC08091E102811107C08091E2025C
:1035D000811103C08091E30281110E94D819EB820E
:1035E000FC820D831E8386E0FE013196AEEDB2E0D3
:1035F00001900D928A95E1F726960FB6F894DEBFFA
:103600000FBECDBFDF91CF911F910F91FF90EF9033
:103610000895EEEDF2E086E0DF011D928A95E9F76C
:103620001092DC021092DB021092DD0208950895E0
:10363000FC01680F791F8FEF91E3E617F70771F030
:103640002191822728E030E087FF03C0880F892777
:1036500001C0880F21503109B9F7EFCF0895EF92DB
:10366000FF920F931F93CF93DF93EC017B0164E6EE
:1036700070E088E70E9474208C01EC0EFD1ECE15D0
:10368000DF0561F017FD0AC0FE01849164E670E079
:103690000E94F5208C012196892B89F30E947921C3
:1036A000C801DF91CF911F910F91FF90EF90089586
:1036B00008950C94581BECE5F3E080E092E0DF0104
:1036C0009C011D9221503040E1F7F0936305E09397
:1036D00062058FEF9FEF9093100380930F0308957F
:1036E0000E94591B0E94290580930B0380FD02C094
:1036F00080E801C080E280930A030E946E206DE0A2
:1037000070E08CE093E00E942F1B892B11F080E089
:10371000089580910B0363E070E081FD03C089E0B0
:1037200093E002C086E093E00E942F1B892B79F77B
:103730006DE070E089EF92E00E942F1B892B39F732
:103740000E946D25DC01CB01805A9541AF4FBF4FE0
:1037500080935E0590935F05A0936005B09361052B
:103760000E945B1B81E080930E0380930D031092F7
:103770000C03089520910A0336E0839FC0011124B1
:10378000629F800D911D1124811522E0920714F093
:1037900080E090E0845A9C4F90936305809362058B
:1037A000089520916205309163052655334040917C
:1037B0000A03642F70E0C9010E94DA2C481B4630CE
:1037C00010F4240F311D211582E0380710F020E09D
:1037D00030E0245A3C4F30936305209362050895EE
:1037E000CF93DF938A3011F481E003C08D3029F448
:1037F00080E0DF91CF910C94661CC62F682F8091DA
:1038000062059091630526E0FC01A4EEB2E0019010
:103810000D922A95E1F7603E30F026E0FC0111920E
:103820002A95E9F70AC0F6E06F9FB0011124675EA0
:103830007C4F46E050E00E94082DC11135C0C09178
:103840006205D091630546E050E0BE0184EE92E04F
:103850000E94112D892BB1F1CC55D3409E0185E0FA
:10386000369527958A95E1F781E090E0AC0102C09A
:10387000440F551F2A95E2F720910F033091100352
:10388000242B352B259645E0D695C7954A95E1F72B
:1038900002C0880F991FCA95E2F7822B932B909351
:1038A000100380930F030EC0E0916205F091630551
:1038B0009F012A5F3F4F2E173F0709F280818095B5
:1038C0008193F9CFDF91CF910C94D11BCF93E82F47
:1038D00020916205309163052C55334040910A03D5
:1038E000642F70E0C9010E94DA2C481B842FEE235C
:1038F00059F066E00E94CE2CC82FC150B0F060E0B5
:1039000080E20E94F01BF9CFA901480F511D41151B
:10391000524018F080E020E030E0280F311D245A9A
:103920003C4F3093630520936205CF910895FF9239
:103930000F931F93CF93DF93EC01F62EFC010190C0
:103940000020E9F78F0101501109C017D10728F4B1
:103950006F2D89910E94F01BF8CFDF91CF911F91BD
:103960000F91FF9008951F93CF93DF93EC01162FD3
:10397000FE018491882329F0612F0E94F01B21967B
:10398000F7CFDF91CF911F9108950E94B31C81E082
:103990000C94661C80910E038823F9F00E946D251B
:1039A000DC01CB01805A9541AF4FBF4F80935E053C
:1039B00090935F05A0936005B093610580910D031E
:1039C00081110BC062E070E087EF92E00E942F1B34
:1039D000892B19F481E080930D0380910D030895E4
:1039E0006F927F928F929F92AF92BF92CF92DF920F
:1039F000EF92FF920F931F93CF93DF9380910E036B
:103A0000882309F4DCC020910F03309110032115A5
:103A1000310509F4D4C080910C038111D0C061E05C
:103A200070E0082F10E03B01082E02C0660C771CE6
:103A30000A94E2F7A90146215721452B11F48F5F23
:103A4000F0CF90910B03980165E0220F331F6A9528
:103A5000E1F790FD12C08295880F807680932D014A
:103A6000220F232F221F330B319520933001815ECB
:103A700080932E011092310112C045E036952795B2
:103A80004A95E1F7220F220F220F20932D01109269
:103A90003001295F20932E0183E08093310124E6D9
:103AA00030E047E050E06BE271E088E70E942521BA
:103AB000892B09F084C080910B0380FD23C0A801ED
:103AC00095E0440F551F9A95E1F7445A5C4F04E680
:103AD00010E020E230E060E488E70E944C21892B6E
:103AE00009F06DC00E94CA1CE301C095D095809179
:103AF0000F0390911003C823D923D0931003C093D0
:103B00000F035DC080E2EAEEF2E0DF011D928A95CC
:103B1000E9F785E0000F111F8A95E1F7A2E0B2E016
:103B20004EEF51E0992493942D91EA018991AE01D1
:103B3000B801680F711D645A7C4F30E026513D4F2B
:103B4000F90197E07F01E21AF30AA92C01C0AA0C3F
:103B5000EA94EAF77B01B12CE70189917E018A2181
:103B6000892E8B18D82DD770CD2E0D2E000CDD0888
:103B7000C82F01C0CC0FDA95EAF7D194C194D108CF
:103B8000D7E0CD22DD2401C08695CA94EAF78C2BBC
:103B9000D0808D298083B39488E0B812DDCF915016
:103BA00031969F3F79F6C2E0A630BC0709F0BCCF42
:103BB00004E610E020E230E04AEE52E08CCFDF91E4
:103BC000CF911F910F91FF90EF90DF90CF90BF901A
:103BD000AF909F908F907F906F90089580910E038B
:103BE00090910D03882389F0992369F062E070E0D9
:103BF00085EF92E00E942F1B892B19F080910D0315
:103C0000089510920D0390910D0381E08927089586
:103C10000C949A050F931F9380910E03882399F1BA
:103C200080915C0590915D050E947925C29760F0B6
:103C30000E94612590935D0580935C0560E080E0C3
:103C40000E94BA1B0E94081E0E94F01C80910D0366
:103C50008823C9F00E946D2500915E0510915F05D3
:103C60002091600530916105DC01CB01801B910B37
:103C7000A20BB30B8F3F9F4FAF4FBF4720F41F9155
:103C80000F910C94EE1D1F910F910895CF93DF9328
:103C9000EC01FB018281882309F426C1C430FDE5D3
:103CA000DF0760F4CB3F9CE5D90768F49E01225002
:103CB0003C452431310508F018C105C0C236EDE598
:103CC000DE0709F012C10E945A10909348038093B6
:103CD0004703C031FCE5DF0709F4CAC008F041C062
:103CE000C8309CE5D90709F4A4C0F0F4C430FCE561
:103CF000DF0709F48CC068F4C2309CE5D90709F4E9
:103D000082C0C330DC4509F0E5C080914703826082
:103D1000DFC0C630FCE5DF0709F483C008F085C0CA
:103D2000809147038860D4C0CC309CE5D90709F462
:103D300090C068F4CA30FCE5DF0709F47EC008F0E3
:103D400084C00E94270A809147038068C1C0CE309A
:103D50009CE5D90709F481C008F086C0809147032B
:103D600094C0CD3FFCE5DF0709F47BC038F5C431D2
:103D70009CE5D90709F49AC058F4C231FCE5DF0785
:103D800009F47AC008F07EC0809147038F7BA0C001
:103D9000CB3F9CE5D907F1F108F03FC0C531DC45C8
:103DA00009F098C08091470382FB222720F991E017
:103DB000922790FB82F990FB83F98AC0C1308DE590
:103DC000D80709F467C050F480914803CF3FECE571
:103DD000DE07C1F108F05BC08D7F65C0C3308DE5A3
:103DE000D80709F471C008F46DC0C236DD4509F08A
:103DF00071C08091470384FB222720F991E092272C
:103E000090FB84F965C080914703816061C0809117
:103E1000470316C08091480316C080914803826012
:103E200042C080914703806153C080914703806204
:103E30004FC08091470380644BC0809147038860E6
:103E4000846046C0826081602EC0809147038E7F6F
:103E50003FC0809147038D7F3BC080914703877FA0
:103E600037C08091480314C0809147038F7E30C0D3
:103E7000809147038F7D2CC00E94270A80914703C1
:103E80008F7726C080914703877F8B7F21C08D7FEE
:103E90008E7F09C080914803982F909591708E7FF6
:103EA000892B90FB81F98093480314C00E94270A54
:103EB0008091470387FB222720F991E0922790FB0E
:103EC00087F906C081E001C080E00E94F11002C0C5
:103ED0008093470380914703909148030E946B10A1
:103EE0000E94270A80E001C081E0DF91CF91089510
:103EF000CF93DF9386319C4541F5EB010E946B0F18
:103F0000982F8A812091020130910301882379F052
:103F10009A7A81E009F480E080931103911102C044
:103F200069E201C065E3C9010E94A6240AC080912C
:103F30001103811102C069E201C065E3C9010E9459
:103F4000B1240E94B00F80E001C081E0DF91CF91E9
:103F500008950F931F93CF93DF93C42FD22FFC01AB
:103F600082818823C9F0409314030E9461259093B5
:103F700013038093120380E28C0F883008F057C03F
:103F8000C77081E001C0880FCA95EAF7DF91CF9131
:103F90001F910F910C94820780911403481330C035
:103FA00080911203909113030E9479258436910524
:103FB00038F510E21D0FCD17B9F080E28C0F883074
:103FC00040F4C77081E001C0880FCA95EAF70E94EB
:103FD0008907183028F581E09D2F977001C0880F60
:103FE0009A95EAF70E948207802F0E94790718307D
:103FF000F0F4D77081E001C0880FDA95EAF70AC0C3
:1040000080E28C0F883098F4C77081E001C0880F7F
:10401000CA95EAF7DF91CF911F910F910C94890710
:10402000802FDF91CF911F910F910C947907DF9131
:10403000CF911F910F9108950F939C01CB01243FC5
:104040004CE5340731F188F4293DFCE53F07D9F010
:104050002A3D4CE5340779F1283D3C45A9F506E2B7
:1040600021EE41EE68ED7CE52BC0263FFCE53F07E5
:10407000E1F0A8F0273F3C4539F507E225EE46EE92
:1040800067EF7CE51DC007E225EE45EE69ED7CE5B6
:1040900017C006E221EE40EE64EF7CE511C007E2B6
:1040A00025EE44EE65EF7CE50BC006E221EE42EE24
:1040B00066EF7CE505C008E221E045EE6AED7CE5AF
:1040C0000E94A91F80E008C0FC018281882319F0AA
:1040D0001092140301C081E00F9108951092B9006D
:1040E0008CE08093B80008959F92AF92BF92CF92D8
:1040F000DF92EF92FF920F931F93CF93DF93B82E2F
:10410000EB010E9461256C01C431D10558F0CF3F0D
:104110008FEFD80759F0CE0164E170E00E94DA2CED
:104120007B0107C0EE24E394F12C03C025E0E22ECE
:10413000F12C84E8A82E94EA992E1092BC0090925B
:10414000BC000E9461258C018091BC0087FD08C0E5
:104150000E946125801B910B8E159F05A8F32AC034
:104160008091B900887F883041F08091B900887FC4
:10417000803119F00FEF1FEF1FC0B092BB00A0926B
:10418000BC000E9461258C018091BC0087FD08C0A5
:104190000E946125801B910B8E159F05A8F30AC014
:1041A0008091B900887F883111F0803419F700E0E0
:1041B00010E00EC00EEF1FEFCF3F8FEFD80709F4CE
:1041C000BCCFC6010E9479258C179D0708F4B5CF96
:1041D000C801DF91CF911F910F91FF90EF90DF9079
:1041E000CF90BF90AF909F9008950F931F93CF9360
:1041F000DF93EB018093BB0084E88093BC000E94B6
:1042000061258C018091BC0087FD0EC0CF3F8FEFF0
:10421000D807C1F30E946125801B910B8C179D0765
:1042200088F38EEF9FEF0CC02091B900287F81E0CA
:1042300090E0283211F480E090E091958195910909
:10424000DF91CF911F910F910895CF92DF92EF925E
:10425000FF920F931F93CF93DF936B018A01790134
:10426000B9010E947420E6010C0D1D1DC017D10775
:1042700061F424E92093BC00DF91CF911F910F914D
:10428000FF90EF90DF90CF90089597FDF2CFB701A8
:1042900089910E94F520EACFCF92DF92EF92FF92B0
:1042A0000F931F93CF93DF93C62F6A017901B80153
:1042B0000E94742097FD11C0B8018C2F0E94F52038
:1042C000E601EC0CFD1CCE15DF0539F097FD05C0AD
:1042D000B80189910E94F520F6CF24E92093BC0013
:1042E000DF91CF911F910F91FF90EF90DF90CF90D2
:1042F000089584E98093BC0008958EE14A9B02C032
:104300008150E1F74A9BFECF08955A9880E28A9542
:10431000F1F75A9A0895FC012AE02A95F1F728E06E
:1043200090E080E031E040E14A95F1F7880F4A9B48
:1043300002C08160932700C0000040E14A95F1F778
:10434000215089F720E12A95F1F729B100C000003A
:1043500030E13A95F1F722FB222720F992272081BC
:10436000920F90830895EF92FF920F931F93CF9334
:10437000DF931F92CDB7DEB719828C017C01E60E68
:10438000F11C0E151F0551F00E947D21CE010196F2
:104390000E948B21F80181938F01F3CF81E09981F5
:1043A000911180E00F90DF91CF911F910F91FF90BD
:1043B000EF900895529A5A9A089552985A9AEA9A02
:1043C000E9E6F0E080818F7C80830895615091E080
:1043D00001C0990F6A95EAF720E031E0992361F076
:1043E000492F482319F05A9A232701C05A9840E2CE
:1043F0004A95F1F79695F2CF222311F05A9A01C00F
:104400005A9880E28A95F1F75A980895FF920F938F
:104410001F93CF93DF93EC018C01060F111DC01782
:10442000D10741F0F9900E94852168E08F2D0E940C
:10443000E621F5CFDF91CF911F910F91FF90089565
:104440001F920F920FB60F921124EF92FF920F93CB
:104450001F932F933F934F935F936F937F938F930C
:104460009F93AF93BF93EF93FF93CF93DF931F92ED
:10447000CDB7DEB719820E947D21CE0101960E9440
:104480008B21A82FA695A695A6959A2F96959570FF
:104490002A2F2570920F292F237096959695920FAB
:1044A000877089137CC08981811179C0A43008F09C
:1044B00076C080E18A95F1F75A9A529AB2E0BA959D
:1044C000F1F700C05A98EA2EF12CEAE0AE9FD00135
:1044D0001124AB5FBE4F1896ED91FC911997309760
:1044E000B1F06091FC017091FD0116962D913C9107
:1044F0001797260F371F13968D919C911497680F6D
:10450000791F15964C91159712968C9109958AE012
:104510008E9DF0018F9DF00D1124EB5FFE4F6581A4
:10452000662351F08091FC019091FD012681378135
:10453000820F931F0E9406220E948521F0E1FA95C6
:10454000F1F75A9852985A9A80E18A95F1F78AE0E1
:104550008E9D80018F9D100D11240B5F1E4FD80181
:1045600012966C911297662399F08091FC019091BC
:10457000FD0113962D913C911497820F931F0E9479
:10458000B321D801ED91FC91811105C082E004C0F6
:10459000D801ED91FC9188E080830E947D210F90ED
:1045A000DF91CF91FF91EF91BF91AF919F918F914B
:1045B0007F916F915F914F913F912F911F910F913B
:1045C000FF90EF900F900FBE0F901F9018950F93D4
:1045D0001F93CF93DF93843091050CF0A9C02AE09C
:1045E000289FF001299FF00D1124EB5FFE4F2081E1
:1045F0003181232B09F49CC0EC01F894529A5A980B
:1046000085E08A95F1F700008C2F869585709C2FA8
:104610009570890F982F9370869586958E0123E06B
:10462000000F111F2A95E1F7890F082B0E948521A1
:10463000A4E0AA95F1F700C068E0802F0E94E6216F
:10464000B0E1BA95F1F752985A9A4A9902C000C05F
:10465000FCCF87E090E04A9B17C0019799F4529AEB
:104660005A9A8AE08C9FF0018D9FF00D1124EB5F28
:10467000FE4F0190F081E02D81E08083789481E00D
:1046800090E058C000C0E7CF8AE08C9F80018D9FEA
:10469000100D11240B5F1E4FF80165816623B9F0E0
:1046A0008091FC019091FD0126813781820F931F3B
:1046B0000E94B32181110BC0529A5A9AD801ED91F0
:1046C000FC9182E08083789482E090E033C00E9485
:1046D0007D21B0E2BA95F1F75A98529AE0E1EA9555
:1046E000F1F78AE08C9FF0018D9FF00D1124EB5FB4
:1046F000FE4F6281662351F08091FC019091FD0193
:1047000023813481820F931F0E9406220E948521FB
:104710008AE08C9FF0018D9FF00D1124EB5FFE4F1E
:104720000190F081E02D1082789480E090E002C04A
:1047300084E090E0DF91CF911F910F9108959093C5
:10474000070280930602089590931B0380931A0337
:1047500008950E943216811103C0809115030895B7
:10476000E0911A03F0911B03309721F00190F08142
:10477000E02D099480E00895E0911A03F0911B0365
:10478000309799F020913E01222359F02091470360
:1047900027FF07C0DC012C9111962C93119726E07E
:1047A0002C930280F381E02D09940895E0911A037F
:1047B000F0911B03309739F022E0DC012C93048048
:1047C000F581E02D09940895209118033091190383
:1047D0002817390771F09093190380931803E0911B
:1047E0001A03F0911B03309721F00680F781E02D2A
:1047F000099408952091160330911703281739075B
:1048000071F09093170380931603E0911A03F091CF
:104810001B03309721F00084F185E02D0994089561
:10482000FC01329680913E01882331F0809147034C
:1048300087FF02C09EE101C096E080E0915028F021
:1048400021912223D9F38F5FF9CF0895662351F187
:1048500020913E012223E9F02091470327FF19C050
:10486000462F4695469546954E31E0F4677021E017
:1048700030E002C0220F331F6A95E2F7FC01E40F1B
:10488000F11D828190E02823392381E0232B69F4F4
:1048900009C0FC01329608962191621729F0E817A9
:1048A000F907D1F780E0089581E008959C01FC01AB
:1048B00032969FEF80E04191461789F09F3F19F4AF
:1048C000411101C0982F8F5F8630A9F79F3F39F0C3
:1048D000F901E90FF11D97FDFA9562830895089596
:1048E0009C012A5F3F4FFC014281461301C01282A6
:1048F000019682179307B9F70895262F26952695D6
:1049000026952E3168F4FC01E20FF11D677021E05D
:1049100030E001C0220F6A95EAF78281282B2283BA
:104920000895262F2695269526952E3170F4FC01A4
:10493000E20FF11D677021E030E001C0220F6A959F
:10494000EAF72095828128232283089520913E0151
:10495000222329F02091470327FD0C947D240C94F9
:10496000562420913E01222329F02091470327FD60
:104970000C9491240C94702420913E01FC013296F9
:10498000222331F08091470387FF02C08EE101C0EE
:1049900086E0DF011D928A95E9F7089508950C9449
:1049A000CE2483E080931C030C94CF24811102C099
:1049B00081E001C082E080931C030C94CF240C940E
:1049C000D62481E080931C030C94CF240C94E12422
:1049D000089580916C05843031F10E940606109292
:1049E0001D0320E488E190E00FB6F894A895809329
:1049F00060000FBE2093600083B7817F846083BF17
:104A000083B7816083BF7894889583B78E7F83BF97
:104A10000FB6F894A895809160008861809360003B
:104A2000109260000FBE089508950C941425CF9342
:104A30000E9415250E94A7150E941425C0E08C2F06
:104A40000E946714811104C0CF5FC830C1F701C054
:104A500081E0CF9108950E94270A0C9471061F925D
:104A60000F920FB60F9211248F939F93AF93BF9322
:104A700080911D03811113C080916405909165059B
:104A8000A0916605B09167054196A11DB11D809367
:104A9000640590936505A0936605B0936705BF9183
:104AA000AF919F918F910F900FBE0F901F9018950F
:104AB00082E084BD93E095BD9AEF97BD80936E0030
:104AC00008952FB7F8948091640590916505A091A1
:104AD0006605B09167052FBF08952FB7F8946091D0
:104AE00064057091650580916605909167052FBFFB
:104AF00008959C014FB7F8948091640590916505E5
:104B0000A0916605B09167054FBF821B930B089576
:104B1000CF92DF92EF92FF922FB7F894C090640586
:104B2000D0906505E0906605F09067052FBFA7015E
:104B30009601261B370B480B590BCA01B901FF9090
:104B4000EF90DF90CF90089578941F920F920FB658
:104B50000F9211248F939F93AF93BF93809164051D
:104B600090916505A0916605B09167050196A11D1C
:104B7000B11D8093640590936505A0936605B0937D
:104B80006705BF91AF919F918F910F900FBE0F90CE
:104B90001F90189587E797E7909301088093000886
:104BA0009AE088E10FB6F894A895809360000FBE54
:104BB00090936000FFCF809141030895089522E013
:104BC0002093E9002FEF3091E800215035FD06C019
:104BD00035ED3A95F1F700002111F5CF2091E8006D
:104BE00025FF0BC040E050E066E070E00E941E2808
:104BF0008091E8008E778093E8000895CF93DF934B
:104C000020913E01222339F02091470327FF03C062
:104C100060E222E002C068E021E02093E9002FEF8B
:104C20003091E800215035FD06C035ED3A95F1F799
:104C300000002111F5CF2091E80025FF1DC0EC01F7
:104C400080913E01811105C040E050E068E070E0D5
:104C500003C070E040E050E0CE010E941E28809129
:104C6000E8008E778093E80080E2FE01A1E2B3E0E5
:104C700001900D928A95E1F7DF91CF91089580938D
:104C80001E037093200360931F0380916C05843092
:104C900001F582E08093E9008FEF9091E800815068
:104CA00095FD06C095ED9A95F1F700008111F5CFBD
:104CB0008091E80085FF0DC040E050E063E070E0C7
:104CC0008EE193E00E941E288091E8008E77809309
:104CD000E8000895BC0184E00C943F26BC0183E009
:104CE0000C943F2680916B05811109C00E94AF2969
:104CF0000E940C2A8091E20084608093E200089573
:104D000010926B0508950C94E6246091680581E08B
:104D1000611101C080E00C94D12490916C0581E078
:104D2000943009F080E0609168050C94D62442E04C
:104D300061EC81E00E94282942E261EC82E00E945D
:104D4000282990916C0581E0943009F080E0609111
:104D500068050C94DF2480916E05833009F461C0EE
:104D600030F4813071F0823009F49AC008958A30AD
:104D700009F486C08B3009F46CC0893009F0A8C0F2
:104D800020C080916D05813A09F0A2C08091E800B1
:104D9000877F8093E8008091710590917205892B3F
:104DA00021F460E281E293E003C060E080E090E003
:104DB00070E00E9469288091E8008B778093E8007A
:104DC000089580916D05813209F082C0809171054E
:104DD00090917205029708F07BC08091E800877F70
:104DE0008093E8008091E80082FD05C080916C0509
:104DF0008111F8CF6DC02091F3008091F20090E016
:104E0000922B029731F48091F100813011F08630BD
:104E100021F48091F100809341038091E8008B7729
:104E200053C080916D05813A09F052C0809171059F
:104E300090917205892B09F04BC08091E800877F23
:104E40008093E8008091E80080FFFCCF80913E01D4
:104E500036C080916D058132D9F5809171059091B0
:104E60007205892BA9F58091E800877F8093E8007F
:104E70000E945D2980916F0580933E010C94270A62
:104E800080916D05813221F58091E800877F8093C4
:104E9000E8000E945D298091700580934203089587
:104EA00080916D05813AA1F48091E800877F80931D
:104EB000E8008091E80080FFFCCF8091420380935E
:104EC000F1008091E8008E778093E8000C945D29D2
:104ED000089584B7877F84BF0FB6F894A895809112
:104EE0006000886180936000109260000FBE90E0C7
:104EF00080E80FB6F89480936100909361000FBE34
:104F00000C94E1240E94AF290E940C2AE2EEF0E00A
:104F100080818460808378940C94A12C82E391E05A
:104F20000C94A42380916C058530A9F480916C05C4
:104F3000853079F40E94E92480916A058823B1F3D1
:104F40000E941725882391F30E9408280E94270AAF
:104F5000EDCF0C942B25089508950C94AF27292F9D
:104F6000332723303105C9F060F42130310581F059
:104F70002230310509F044C08BE390E02DE738E0A2
:104F800043C021323105E1F02232310549F138C008
:104F900082E190E028EB38E037C099278130910515
:104FA00049F028F0029761F5E9E5F8E005C0E9E786
:104FB000F8E002C0E7E6F8E0849190E09F0124C0A9
:104FC0006115710541F061307105D1F489E090E01F
:104FD00028EA38E019C089E090E02FE838E014C0F2
:104FE0006115710541F06130710551F486EB90E077
:104FF0002AEC38E009C080E490E020E839E004C001
:1050000080E090E020E030E0FA01318320830895D1
:1050100080E189BD82E189BD09B400FEFDCF8091A8
:10502000D8008F7D8093D8008091E00082608093CB
:10503000E0008091E00081FDFCCF0895CF92DF92E7
:10504000EF92FF920F931F93CF93DF93EC018B01AD
:105050007A010E947C29811133C0E114F10439F0F6
:10506000F70180819181081B190BC80FD91FC12C32
:10507000D12C0115110519F18091E80085FD16C0AC
:105080008091E8008E778093E800E114F10449F004
:10509000F70180819181C80ED91ED182C08285E03E
:1050A0000FC00E947C29882321F30AC08991809334
:1050B000F10001501109FFEFCF1ADF0ADACF80E0CB
:1050C000DF91CF911F910F91FF90EF90DF90CF90E4
:1050D000089520917305309174052617370748F01D
:1050E0006115710539F42091E8002E772093E800CE
:1050F00001C0B901FC0120E06115710579F18091D1
:105100006C058823F1F18530F1F18091E80083FD91
:105110003CC08091E80082FD2EC08091E80080FFB5
:10512000EBCF2091F3008091F20090E0922B61157B
:10513000710551F08830910538F421912093F100E8
:10514000615071090196F3CF21E0089709F020E042
:105150008091E8008E778093E800CECF2111CFCFE9
:105160000AC080916C05882361F0853061F08091E0
:10517000E80083FD0AC08091E80082FFF2CF80E062
:10518000089582E0089583E0089581E008952091D4
:105190007305309174052617370748F061157105BE
:1051A00039F42091E8002E772093E80001C0B9017E
:1051B000FC0120E06115710591F180916C05882357
:1051C00009F440C0853009F43FC08091E80083FDB8
:1051D0003DC08091E80082FD2FC08091E80080FFF3
:1051E000E9CF2091F3008091F20090E0922B6115BD
:1051F000710559F08830910540F424912093F10015
:105200003196615071090196F2CF21E0089709F0BB
:1052100020E08091E8008E778093E800CBCF2111C9
:10522000CCCF0AC080916C05882361F0853061F095
:105230008091E80083FD0AC08091E80082FFF2CFF0
:1052400080E0089582E0089583E0089581E0089564
:10525000982F973068F59093E900981739F070917E
:10526000EC002091ED005091F00003C0242F762F28
:1052700050E021FD02C09F5FECCF3091EB003E7FFC
:105280003093EB003091ED003D7F3093ED00309195
:10529000EB0031603093EB007093EC002093ED0055
:1052A0005093F0002091EE0027FDE5CF80E00895B7
:1052B0008F708093E90081E0089580916D0587FFEC
:1052C00011C08091E80082FD05C080916C058111BC
:1052D000F8CF11C08091E8008B770BC080916C05EE
:1052E000882349F08091E80080FFF8CF8091E800A2
:1052F0008E778093E80008952091E4003091E500D6
:1053000095E64091EC00842F817040FF23C080918E
:10531000E80080FD1DC080916C05882399F08530E0
:1053200099F08091EB0085FD11C04091E40050910F
:10533000E5002417350729F3915011F09A01E1CFC8
:1053400084E0089582E0089583E0089581E008955F
:1053500080E008954091E80042FFDDCF08950E946B
:105360001D2A0E94252AE0EEF0E080818160808382
:10537000E8EDF0E080818F77808319BCA7EDB0E085
:105380008C918E7F8C9380818F7E808310926B05B1
:1053900008950F931F93CF93DF930E941D2A0E94BD
:1053A000252AC8EDD0E088818F778883888180683E
:1053B000888388818F7D888319BC10926C05109238
:1053C000680510926A051092690500EE10E0F80178
:1053D00080818B7F808388818160888342E060E068
:1053E00080E00E942829E1EEF0E080818E7F8083BA
:1053F000E2EEF0E08081816080838081886080833C
:10540000F80180818E7F8083888180618883DF912D
:10541000CF911F910F910895E8EDF0E080818F7E8C
:105420008083E7EDF0E080818160808384E082BF4B
:1054300081E080936B050C94C929E8EDF0E0808150
:105440008E7F80831092E20008951092DA0010920D
:10545000E10008951F920F920FB60F9211242F931F
:105460003F934F935F936F937F938F939F93AF93EC
:10547000BF93EF93FF938091E10082FF0BC0809177
:10548000E20082FF07C08091E1008B7F8093E10002
:105490000E94A02C8091DA0080FF1FC08091D8006C
:1054A00080FF1BC08091DA008E7F8093DA008091AC
:1054B000D90080FF0DC080E189BD82E189BD09B4BA
:1054C00000FEFDCF81E080936C050E94722605C02E
:1054D00019BC10926C050E9480268091E10080FF2B
:1054E00019C08091E20080FF15C08091E2008E7F9C
:1054F0008093E2008091E20080618093E2008091DD
:10550000D80080628093D80019BC85E080936C0538
:105510000E9485268091E10084FF30C08091E200E6
:1055200084FF2CC080E189BD82E189BD09B400FE01
:10553000FDCF8091D8008F7D8093D8008091E100CD
:105540008F7E8093E1008091E2008F7E8093E20065
:105550008091E20081608093E20080916805882359
:1055600011F084E007C08091E30087FD02C081E074
:1055700001C083E080936C050E948D268091E1003C
:1055800083FF29C08091E20083FF25C08091E10064
:10559000877F8093E10082E080936C05109268051C
:1055A0008091E1008E7F8093E1008091E2008E7F08
:1055B0008093E2008091E20080618093E20042E00B
:1055C00060E080E00E9428298091F000886080934C
:1055D000F0000E948326FF91EF91BF91AF919F91C0
:1055E0008F917F916F915F914F913F912F910F908C
:1055F0000FBE0F901F9018951F920F920FB60F922B
:1056000011242F933F934F935F936F937F938F93C7
:105610009F93AF93BF93CF93DF93EF93FF93C0918B
:10562000E900CF708091EC00D82FD17080FDD0E8D8
:105630001092E9008091F000877F8093F0007894C9
:105640000E94402B1092E9008091F00088608093C6
:10565000F000CD2BCF70C093E900FF91EF91DF9167
:10566000CF91BF91AF919F918F917F916F915F91FA
:105670004F913F912F910F900FBE0F901F90189553
:105680001F93CF93DF93CDB7DEB7AA970FB6F894E9
:10569000DEBF0FBECDBFEDE6F5E08091F100819356
:1056A00025E0E537F207C9F70E94AB268091E800B4
:1056B00083FF2EC180916D0590916E05492F50E0BA
:1056C0004A30510508F024C1FA01E158FF4F0C940B
:1056D000022D803821F0823809F01AC108C080916B
:1056E000690590916A05992389F082600FC08091C5
:1056F00071058F70873008F00BC18093E9008091AD
:10570000EB0085FB882780F91092E9009091E80072
:10571000977F9093E8008093F1001092F100D1C040
:10572000282F2D7F09F0F4C0882319F0823061F012
:10573000EFC080916F05813009F0EAC0933009F025
:1057400080E080936A052EC080916F0581112AC088
:10575000809171058F702FEF280F263008F0D8C088
:105760008093E9002091EB0020FF1CC0933021F4CE
:105770008091EB00806214C09091EB009061909357
:10578000EB0021E030E0A90102C0440F551F8A95CB
:10579000E2F74093EA001092EA008091EB00886003
:1057A0008093EB001092E9008091E800877F80935E
:1057B000E8000E945D29ACC08111AAC010916F055C
:1057C0001F778091E3008078812B8093E3008091A4
:1057D000E800877F8093E8000E945D298091E800BF
:1057E00080FFFCCF8091E30080688093E30011117B
:1057F00002C082E001C083E080936C0589C08058BC
:10580000823008F085C080916F05909170058C3DC5
:1058100053E0950779F583E08A838AE289834FB75D
:10582000F894DE01139620E03EE051E2E32FF0E031
:1058300050935700E49120FF03C0E295EF703F5F63
:10584000EF708E2F90E0EA3010F0C79601C0C0963E
:105850008D939D932F5F243149F74FBF8091E800CE
:10586000877F8093E8006AE270E0CE0101960E9493
:10587000692816C06091710570917205AE014F5F85
:105880005F4F0E94AD27BC01892B09F441C0909164
:10589000E800977F9093E80089819A810E94C72849
:1058A0008091E8008B778093E80032C0803881F5E2
:1058B0008091E800877F8093E8008091680580935D
:1058C000F1008091E8008E7772CF811121C0809124
:1058D0006F059091700599270297D4F48091E800A4
:1058E000877F8093E80080916F05809368050E9410
:1058F0005D2980916805811106C08091E30087FDD4
:1059000002C081E001C084E080936C050E9497266C
:105910008091E80083FF0AC08091E800877F809330
:10592000E8008091EB0080628093EB00AA960FB6AE
:10593000F894DEBF0FBECDBFDF91CF911F910895C8
:105940000895CF9380916C058823A1F0C091E90060
:10595000CF709091EC00892F817090FD80E8C82B6A
:105960001092E9008091E80083FD0E94402BCF70E7
:10597000C093E900CF9108950E94AF2910926C0561
:105980000895E8EDF0E08081806180838AE18A9566
:10599000F1F700C08091D90081700895991B79E0DA
:1059A00004C0991F961708F0961B881F7A95C9F7AF
:1059B00080950895AA1BBB1B51E107C0AA1FBB1FFE
:1059C000A617B70710F0A61BB70B881F991F5A958B
:1059D000A9F780959095BC01CD01089597FB072EFE
:1059E00016F4009407D077FD09D00E94DA2C07FC4A
:1059F00005D03EF4909581959F4F089570956195DF
:105A00007F4F0895EE0FFF1F0590F491E02D09944C
:105A1000FB01DC0102C005900D9241505040D8F7C7
:105A20000895FB01DC0104C08D910190801921F4DF
:105A300041505040C8F7881B990B0895FB01DC01C9
:105A400002C001900D9241505040D8F70895AEE049
:105A5000B0E0EDE2FDE20C9438300D891E898F89AB
:105A6000988D26E02C831A83098397FF02C080E07B
:105A700090E801979E838D83AE01455E5F4F698DEF
:105A80007A8DCE0101960E94572D4D815E8157FD82
:105A90000AC02F813885421753070CF49A01F80188
:105AA000E20FF31F10822E96E4E00C945430ABE02A
:105AB000B0E0EDE5FDE20C942A306C017B018A0137
:105AC000FC0117821682838181FFCCC1CE01019631
:105AD0003C01F6019381F70193FD859193FF81913C
