:100000000C942A070C9471070C9471070C940A3312
:100010000C9471070C9471070C9471070C94710780
:100020000C9471070C9471070C945C290C9498281B
:100030000C94BE1B0C9471070C9471070C947107FF
:100040000C9471070C9471070C9471070C94710750
:100050000C9471070C94711B0C9471070C9471072C
:100060000C9471070C9471070C9471070C94710730
:100070000C9471070C9471070C9471070C94710720
:100080000C9471070C9471070C9471070C94710710
:100090000C9471070C9471070C9471070C94710700
:1000A0000C9471070C9471070C947107DD0CDD0C36
:1000B000100D100D830DA20EA20EA20EA10D150E95
:1000C000260E260E26152915471554155B157B158A
:1000D0007E15B215D41571167116DF15E115E515EB
:1000E00009162A162D1630165216AA26D1267A2857
:1000F000D1267A281D2740277A2835284528BA2B6B
:10010000BA2BCD2BCD2BC32BCD2BCD2BCD2BBA2B5F
:10011000BA2BC82BCD2BCD2BC82B00000000000024
:1001200000000000000000000000000000000000CF
:1001300000000000000000000000000000007E0F32
:1001400000D4FFFFFFC7000000780000000000009F
:1001500000002A2B28000000000000000000000022
:10016000000000000029000000002C1E3420212285
:1001700024342627252E362D3738271E1F202122EE
:10018000232425263333362E37381F040506070867
:10019000090A0B0C0D0E0F10111213141516171857
:1001A000191A1B1C1D2F3130232D35040506070895
:1001B000090A0B0C0D0E0F10111213141516171837
:1001C000191A1B1C1D2F3130354C00DA0281FFD962
:1001D000F1DB20A4A62EAF00A0C000A1C800AED5C0
:1001E00080A81FD300408D1420001E0F0500047F3F
:1001F0003F1F643214643214783C1E1E140A0541F9
:10020000646A757374005261697365004C6F776539
:10021000720044656661756C74004C617965723A70
:1002200020003A002C206B0078000000000000FE47
:10023000FFFFFFFFFFFFFFFFFFFFFFFFFFFFFFFFCE
:10024000FFFFFFFFFFFFFFFFFFFFFFFFFFFFFFFFBE
:10025000FFFFFFFFFFFF0F0F0F0F0FFFFFFFFFFF5E
:10026000FFFFFFFFFFFFFFFFFFFFFFFE000000009B
:10027000000000000000000000000000000000007E
:10028000000000000000000000000000000000006E
:10029000000000000000000000000000000000005E
:1002A000000000000000000000000000000000FF4F
:1002B000FFFFFF8383838383FFFF83838383FFFFAA
:1002C0008383838383FFFF83838383FFFF8383830E
:1002D0008383FFFFFFFF8282828282FFFF8383830B
:1002E00083FFFF8383838383FFFFFFFF0000000002
:1002F000000000000000F8FCFCFC9C9CFCFCF8F8F2
:1003000070000000000030787C3C9CFCFCF8F000A1
:1003100000000000C0F0F8F83C3C9CBCFCB8B8A061
:10032000000000000000000000000000000000FFCE
:10033000FFFFFF4141414141FFFFFFFFFFFFFFFF83
:100340004141414141FFFFFFFFFFFFFFFF414141AD
:100350004141FFFFFFFF4141414141FFFF7F7F7F5F
:100360007FFFFF4141414141FFFFFFFF00000000CF
:100370000000000000003F3F3F3F03070F3F3F3EAC
:10038000382000000000383C3E3F3F3F3B393800FA
:1003900000000000070F1F3F3C383B3B3F1F1F0F73
:1003A0000000000000000000000000000000007FCE
:1003B000FFFFFFF0F0F0F0F0FFFFFFFFFFFFFFFF98
:1003C000F0F0F0F0F0FFFFFFFFFFFFFFFFF0F0F0B5
:1003D000F0F0FFFFFFFFF0F0F0F0F0FFFFF0F0F0C3
:1003E000F0FFFFF0F0F0F0F0FFFFFF7F00000000F3
:1003F00000000000000000000000000000000000FD
:1004000000000000000000000000000000000000EC
:1004100000000000000000000000000000000000DC
:1004200000000000000000000000222325262829EB
:100430002A2C2D2F3032333536383A3B3D3E404260
:10044000434547494A4C4E5051535557595A5C5EA3
:100450006062646668696B6D6F71737577797B7DB7
:100460007F81838587898A8C8E90929496989A9CB6
:100470009E9FA1A3A5A7A8AAACAEAFB1B3B4B6B8CE
:10048000B9BBBCBEBFC1C2C3C5C6C7C9CACBCCCD30
:10049000CED0D1D2D2D3D4D5D6D7D7D8D9D9DADA0B
:1004A000DBDBDBDCDCDCDCDCDDDDDDDDDCDCDCDC8B
:1004B000DCDBDBDBDADAD9D9D8D7D7D6D5D4D3D2BF
:1004C000D2D1D0CECDCCCBCAC9C7C6C5C3C2C1BF9D
:1004D000BEBCBBB9B8B6B4B3B1AFAEACAAA8A7A501
:1004E000A3A19F9E9C9A98969492908E8C8A8987BD
:1004F0008583817F7D7B79777573716F6D6B69689B
:10050000666462605E5C5A5957555351504E4C4A6E
:100510004947454342403E3D3B3A38363533323019
:100520002F2D2C2A29282625232200AF00AE2B00B0
:1005300014001A00080015001700E000040016005F
:10054000070009000A00E1001D001B000600190059
:100550000500000000000000E300105F2C002A00EE
:10056000130012000C0018001C00340033000F00B0
:100570000E000D000B002900380037003600100077
:100580001100000000000000E600115F28002B00B1
:100590001E001F00200021002200E00000000000DB
:1005A000000000000000E10000000000000000006A
:1005B0000000000000000000E30001002C002A0001
:1005C00027002600250024002300000000004F0023
:1005D0005200510050000000000000000000000028
:1005E0000000000000000000E600010028002B00D1
:1005F0001E021F02200221022202E0000000000071
:10060000000000000000E100000000000000000009
:100610000000000000000000E30001002C002A00A0
:100620002702260225022402230235003100300071
:100630002F002E002D003502310230022F022E0233
:100640002D02000000000000E60001002800005C10
:1006500000000000000000000000C25CC55CC75C38
:10066000C95C00000000C35CC65CC85CCA5C0000DA
:100670000000000000000000E30001002C0000006A
:10068000000000000000000000000000000000006A
:10069000000000000000000000000000000000005A
:1006A0000000000000000000E60001002800050135
:1006B0000980A101850319012AB700150126B70099
:1006C000950175108100C0050C0901A1018504196F
:1006D000012AA002150126A002950175108100C013
:1006E00005010906A1018506050719E029E715009E
:1006F00025019508750181020507190029EF1500EC
:10070000250195F075018102050819012905950556
:1007100075019102950175039101C00660FF0961A1
:10072000A1010962150026FF0095207508810209C4
:1007300063150026FF00952075089102C005010988
:1007400006A101050719E029E7150025019508759F
:100750000181029501750881010507190029FF151E
:100760000026FF0095067508810005081901290576
:10077000950575019102950175039101C009025B10
:1007800000030100A0FA09040000010301010009AF
:1007900021110100012240000705810308000A0918
:1007A00004010002030000000921110100012222BE
:1007B000000705820320000107050303200001094B
:1007C0000402000103000000092111010001226D53
:1007D000000705840320000A12010002000000083F
:1007E000534601000100010200010C0343006F00A9
:1007F00072006E0065000000100366006F006F005D
:100800007300740061006E0000000403090400001E
:10081000000000003E5B4F5B3E003E6B4F6B3E00B6
:100820001C3E7C3E1C00183C7E3C18001C577D572B
:100830001C001C5E7F5E1C0000183C180000FFE7D7
:10084000C3E7FF00001824180000FFE7DBE7FF0004
:1008500030483A060E00262979292600407F0505F2
:100860000700407F05253F005A3CE73C5A007F3E89
:100870001C1C0800081C1C3E7F0014227F22140050
:100880005F5F005F5F0006097F017F00006689955A
:100890006A0060606060600094A2FFA29400080497
:1008A0007E04080010207E20100008082A1C080082
:1008B000081C2A0808001E10101010000C1E0C1E28
:1008C0000C0030383E383000060E3E0E06000000A8
:1008D0000000000000005F000000000700070000AB
:1008E000147F147F1400242A7F2A12002313086423
:1008F0006200364956205000000807030000001C23
:10090000224100000041221C00002A1C7F1C2A00FA
:1009100008083E0808000080703000000808080839
:1009200008000000606000002010080402003E5132
:1009300049453E0000427F40000072494949460057
:100940002141494D33001814127F100027454545B9
:1009500039003C4A49493100412111090700364913
:1009600049493600464949291E000000140000008C
:100970000040340000000008142241001414141434
:1009800014000041221408000201590906003E41EA
:100990005D594E007C1211127C007F494949360096
:1009A0003E41414122007F4141413E007F4949494A
:1009B00041007F09090901003E41415173007F0850
:1009C00008087F0000417F4100002040413F0100B6
:1009D0007F08142241007F40404040007F021C02FB
:1009E0007F007F0408107F003E4141413E007F09A7
:1009F000090906003E4151215E007F091929460080
:100A000026494949320003017F0103003F4040402D
:100A10003F001F2040201F003F4038403F0063142C
:100A2000081463000304780403006159494D43002E
:100A3000007F414141000204081020000041414173
:100A40007F000402010204004040404040000003D7
:100A5000070800002054547840007F2844443800A0
:100A6000384444442800384444287F0038545454BF
:100A7000180000087E0902001824241C78007F0852
:100A80000404780000447D4000002040403D000008
:100A90007F102844000000417F4000007C0478045F
:100AA00078007C08040478003844444438007C18FA
:100AB00024241800182424187C007C08040408004E
:100AC00048545454240004043F4424003C40402033
:100AD0007C001C2040201C003C4030403C0044284E
:100AE000102844004C9090907C004464544C440086
:100AF0000008364100000000770000000041360881
:100B000000000201020402003C2623263C000000F3
:100B10000000000000000000000000000000C0E035
:100B2000F0F8F81800C0F0FCFEFFFFFFFFFFFFFF2A
:100B30007E00000000000000000080C0E0E0E0E077
:100B4000E0E0E0E0C0800000000080C0E0E0E0E025
:100B5000E0E0E0E0C080000000E0E0C0C0E0E0E0F5
:100B6000E00000E0E0C0C0E0E0E0E0E0C0800000C5
:100B7000000080C0E0E0E0E0E0E0E0E0C0800000F5
:100B8000000000000000000000000000E0F0F0F0B5
:100B9000E0ECEEF7F37020007C7C7C7E007E7E7EB5
:100BA0007F7F7F000080C0E07E5B4F5BFEC0000067
:100BB000C000DCD7DEDEDED7DC00C00000000000B5
:100BC0000000000000000000000000000000000025
:100BD00000000000000000F8FCFEFFE000FFFFFF47
:100BE000FFFFFF80FFFFFFFFFFFFFFFFFF1F07016A
:100BF000000000000000000000FFFFFF8100000077
:100C000000000081C3C3C30000FFFFFF810000009C
:100C100000000081FFFFFF0000FFFFFF0100000058
:100C2000000000FFFFFF010000000001FFFFFF00C8
:100C300000FFFFFF9D1C1C1C1C1C1C9DDFDFDF0038
:100C40000000000000000000000000000F1F3F7FB8
:100C50007F7F7F7F3F1E0C001F1F1F3F003F3F3FD6
:100C60007F7F7F00307B7F7830202030787F3B0093
:100C700003000F7F0F0F0F7F0F0003000000000025
:100C80000000000000000000000000000000000064
:100C900000000000000000030F1F3F3F3F3F1F1FE9
:100CA0003F3F7F7F7F3F3F1F3F7F7F7F7F7C787805
:100CB000381C0F00000000000000010307070707B1
:100CC00007070707030100000000010307070707E4
:100CD00007070707030100000007070700000000DF
:100CE00000000007070700000000000007070700DA
:100CF00000000103070707070707070703010000B4
:100D000000000000000000000000000000000000E3
:100D100000000000000000000000000000000000D3
:100D200000000000000000000000000000000000C3
:100D300000000000000000000000000000000000B3
:100D400000000000000000000000000000000001A2
:100D5000010101010101010102020202020202027B
:100D6000020303030303030303040404040404044D
:100D70000505050505060606060607070707070811
:100D8000080808090909090A0A0A0B0B0B0C0C0CC4
:100D90000D0D0D0E0E0E0F0F0F101011111112125E
:100DA00013131414151516161717181819191A1ADB
:100DB0001B1B1C1D1D1E1E1F20202122222324243C
:100DC000252626272829292A2B2C2D2D2E2F303178
:100DD0003232333435363738393A3B3C3D3E3F408A
:100DE0004142434445464748494A4C4D4E4F505175
:100DF0005354555658595A5B5D5E5F61626465662F
:100E000068696B6C6D6F7072737577787A7B7D7EB5
:100E10008082838587888A8C8E8F91939596989A05
:100E20009C9EA0A2A3A5A7A9ABADAFB1B3B5B7BA1D
:100E3000BCBEC0C2C4C6C9CBCDCFD1D4D6D8DBDDF1
:100E4000DFE2E4E7E9EBEEF0F3F5F8FAFDFFFFAAE5
:100E50007F55400011241FBECFEFDAE0DEBFCDBFCB
:100E600004B603FE27C08091260790912707A09122
:100E70002807B09129078730904BA740B04BD1F499
:100E80001092260710922707109228071092290720
:100E900014BE84B7877F84BF0FB6F894A89580915D
:100EA0006000886180936000109260000FBEE0E0F7
:100EB000F8E3099512E0A0E0B1E0E8E3FCE602C047
:100EC00005900D92A831B107D9F727E0A8E1B2E06B
:100ED00001C01D92A632B207E1F70E94C10F0C9427
:100EE0001A360C940000882339F1682F8CEF860F96
:100EF000813A28F48EEA96E00E94E71B0CC080E25B
:100F0000860F883050F4677081E001C0880F6A95C1
:100F1000EAF70E94982A0C949F2A8BE5860F83306B
:100F200020F480E090E00C945A1C685A673120F459
:100F300080E090E00C94441C0895CF93882309F43A
:100F40006DC09CEF980F913AC8F5C82F80914B0166
:100F50008823E1F080913A0487FF18C0EC2FE695D2
:100F6000E695E695F0E0E255F94F8281282F30E0D2
:100F70004C2F477081E090E002C0880F991F4A957E
:100F8000E2F782239323892B61F412C0E0EBF6E0B1
:100F900086EB96E02191C21721F08E179F07D1F7BB
:100FA00007C06C2F8EEA96E00E94E71B0E949F2AE2
:100FB0006C2F8EEA96E00E940F1C13C090E2980FEF
:100FC000983090F4877021E030E0A90102C0440F0E
:100FD000551F8A95E2F7CA0190911B07892B8093D0
:100FE0001B07CF910C949F2AEBE5E80FE33040F408
:100FF000F0E0E655FE4F808190E0CF910C945A1CB2
:10100000885A873158F4E82FF0E0EE0FFF1FE355C0
:10101000FE4F80819181CF910C94441CCF91089513
:101020001F93CF93DF93CDB7DEB767970FB6F894D2
:10103000DEBF0FBECDBF4B8B5C8B6D8B7E8B8F8BE2
:10104000611110921A0786E09E01235F3F4FD9017C
:10105000E82F1D92EA95E9F795E0FE017396D90114
:1010600001900D929A95E1F79C894E895F897B8961
:101070007D879E876F87598B488BF901DE01179614
:1010800001900D928A95E1F7CE0107960E94D12B2F
:1010900081113EC086E0FE013796DE011196019077
:1010A0000D928A95E1F7FF81E8856A857B85611558
:1010B000710531F0EF3F31F481E0FF3F19F403C0D7
:1010C00081E001C080E080FD23C02091E60630E091
:1010D000C9010196877099274091170750E084173E
:1010E000950779F1F983EA837D836C8396E0929F7B
:1010F000D001939FB00D1124A951B94FFE01319633
:1011000001900D929A95E1F78093E6060E94F32AEA
:1011100016E0809117079091E6068917F9F0189F5D
:10112000C00111248951994F0E94D12B8823B1F01D
:101130008091170790E00196877099278093170791
:10114000E8CF0E94242E1092E60610921707E0EED8
:10115000F6E086E0DF011D928A95E9F767960FB603
:10116000F894DEBF0FBECDBFDF91CF911F910895E0
:10117000982F92959F7019F0892F24E001C020E0EC
:10118000982F9695969511F02E5F892F982F96950A
:1011900009F02F5F822F08953F924F925F926F92D6
:1011A0007F928F929F92AF92BF92CF92DF92EF92F7
:1011B000FF920F931F93CF93DF93CDB7DEB729979D
:1011C0000FB6F894DEBF0FBECDBFFC0180819181C8
:1011D00023813481232B31F09F3F31F491E08F3F05
:1011E00019F403C091E001C090E090FDB2C67F0108
:1011F00085E0DE01119601900D928A95E1F7F701E5
:10120000228189819A81222349F00E94692B182F1B
:10121000682F89819A810E949F2D03C00E94722DA0
:10122000182F69817A81812F0E945D1D8C01F70141
:101230008281882309F4F1C0C80182519F454097FB
:1012400008F071C18FEF93E00E9402358111EEC06A
:10125000025137EA832E99249394002379F0811464
:10126000F4E09F0609F4E2C0C4010E940235811136
:1012700001C001502FEF821A920AEFCF1E821F8207
:1012800018861986442443942AE0322E84010F5F85
:101290001F4FC4010E9402358E831F82882309F4E8
:1012A000C5C09FEF980F933060F48F834E8232E079
:1012B000830E911CC8010E9402358887811102C0EB
:1012C000B5C048018E010A5F1F4FF801208122231B
:1012D000E9F2213009F04CC08181813049F4680184
:1012E000F2E0CF0ED11CF80182810E944A2E0AC082
:1012F000823051F46801F2E0CF0ED11CF8018281F6
:101300000E949D07860186C0833049F46801F2E09F
:10131000CF0ED11CF80182810E947307F3CF843075
:1013200019F00F5F1F4F76C0F80122810E5F1F4F2B
:1013300080E090E030E0205331092A30310568F434
:10134000389EA001399E500D1124C901840F951FAC
:101350000F5F1F4FF8012081EDCF009709F45AC0AD
:10136000EFE9FFE03197F1F700C000000197F5CFFA
:10137000E22FF0E0E65BFE4F5490822F8695869533
:10138000869590E0FC01E65CFE4F64902770712C1E
:10139000022E02C0759467940A94E2F7F1E06F227E
:1013A0007724FC01E65DFE4FA490B12C022E02C012
:1013B000B594A7940A94E2F731E0A322BB24FC0180
:1013C000E65EFE4FC490D12C02C0D594C7942A95F6
:1013D000E2F781E0C822DD246114710419F081EE86
:1013E0000E949D07A114B10419F086EE0E949D078A
:1013F000852D0E944A2EAB2819F086EE0E947307B5
:10140000672819F081EE0E947307CD2819F08CE24D
:101410000E944A2E0F5F1F4F58CF00313FE5130740
:1014200069F581E00E94CF2D0E94772580911807F1
:10143000877009F48EC5F7018281882309F489C574
:1014400080913B0482FD85C582E029960FB6F89411
:10145000DEBF0FBECDBFDF91CF911F910F91FF90E7
:10146000EF90DF90CF90BF90AF909F908F907F9044
:101470006F905F904F903F900C94DB2D01318FE582
:10148000180711F482E0CECF033FFCE51F0749F4B3
:1014900006E221EE40EE63EF7CE5C7010E94801C6E
:1014A000C5CF043F2CE51207F8F4083D3CE51307CF
:1014B00031F407E225EE45EE68ED7CE5EECF093D1F
:1014C0008CE5180731F408E221E045EE69ED7CE592
:1014D000E4CF073D9CE5190709F0C1C106E221EE02
:1014E00041EE67ED7CE5D9CF053FECE51E0731F411
:1014F00006E221EE42EE65EF7CE5CFCF053FFCE54D
:101500001F0730F407E225EE44EE64EF7CE5C5CF1B
:10151000063F2CE5120709F0A2C107E225EE46EED0
:1015200066EF7CE5BACF0031FFE51F0711F481E0DB
:1015300005C001312FE5120721F482E00E94152E2B
:1015400073CF80E280931301C801905681159042B9
:1015500050F0C80190548115904128F01093350245
:101560000093340206C0C8019927909335028093F6
:1015700034020C33110530F4F801E85AFE4F808133
:1015800080931301F70181818093370280818093DA
:101590003602033FFCE51F0709F47ACF78F4083DD3
:1015A0003CE5130709F485CF093D8CE5180709F4DC
:1015B0008ACF073D9CE5190769F490CF053FECE51C
:1015C0001E0709F495CF08F49DCF063F2CE51207BE
:1015D00009F4A3CF10922E0403303DE5130758F40D
:1015E0000A3F8CE5180760F4C80182509C45449777
:1015F00008F01FC105C001369DE5190709F019C1A2
:101600000E940F2290933B0480933A040031ECE552
:101610001E0709F4CAC008F041C008302CE51207C3
:1016200009F4A4C0F0F404308CE5180709F48CC068
:1016300068F40230ECE51E0709F482C003301C4553
:1016400009F0E7C080913A048260E1C006302CE5E1
:10165000120709F483C008F085C080913A048860BD
:10166000D6C00C308CE5180709F490C068F40A3035
:10167000ECE51E0709F47EC008F084C00E94242E09
:1016800080913A048068C3C00E302CE5120709F43B
:1016900081C008F086C080913A0494C00C3F8CE56C
:1016A000180709F47BC038F50431ECE51E0709F48E
:1016B0009AC058F402312CE5120709F47AC008F0F8
:1016C0007EC080913A048F7BA2C00A3F8CE5180748
:1016D000F1F108F03FC005311C4509F09AC0809136
:1016E0003A0482FB222720F991E0922790FB82F9AD
:1016F00090FB83F98CC00115FDE51F0709F467C055
:1017000050F480913B040E3F3CE51307C1F108F013
:101710005BC08D7F65C00230EDE51E0709F471C026
:1017200008F46DC001361D4509F073C080913A047C
:1017300084FB222720F991E0922790FB84F967C06F
:1017400080913A04816063C080913A0416C0809110
:101750003B0416C080913B04826042C080913A04F1
:10176000806155C080913A04806251C080913A04F2
:1017700080644DC080913A048860846048C0826073
:1017800081602EC080913A048E7F41C080913A04DE
:101790008D7F3DC080913A04877F39C080913B04A2
:1017A00014C080913A048F7E32C080913A048F7DBC
:1017B0002EC00E94242E80913A048F7728C08091F9
:1017C0003A04877F8B7F23C08D7F8E7F09C08091F5
:1017D0003B04982F909591708E7F892B90FB81F917
:1017E00080933B0416C00E94242E80913A0487FB0C
:1017F000222720F991E0922790FB87F908C061E049
:1018000001C060E08EE090E00E94163502C0809337
:101810003A0460913A0410913B0484E090E00E9405
:101820001635612F82E290E00E9416350E94242E28
:10183000FDCD0631FCE51F0721F580911B078A7A53
:1018400091E009F490E090931A02882311F065E387
:1018500001C069E28EEA96E00E940F1C0FC00631BB
:101860003CE5130709F040C080911A02882309F46F
:101870009EC265E38EEA96E00E94E71B0E949F2AC3
:10188000D5CD0A359DE5190749F158F40115FCE558
:101890001F07B1F00E3D1C4509F042C00E942B22EB
:1018A000C5CD0B353DE51307D9F00C351D45C1F508
:1018B00080913B0482FB882780F991E0892711C041
:1018C0000E94242E9FEFE4E3FCE09150E040F040C2
:1018D000E1F700C000000E944D1BA8CD81E001C0CF
:1018E00080E00E94F82D1CC080911B0782720C3C86
:1018F0003CE5130709F40CC308F08BC2063CECE589
:101900001E0709F4F1C208F062C2033C2CE512077D
:1019100009F4E0C208F04DC2023C1C4509F4B0C213
:10192000F701828100811181882349F0C8010E945A
:10193000692BD82E682FC8010E949F2D04C0C801B2
:101940000E94722DD82EB8018D2D0E945D1D0E941F
:101950008620B82E192F982EF7010281A580A29417
:101960009FE0A922809118078770B9F00023A9F0A1
:10197000812F807F803421F080E28B0D883068F0E9
:1019800080913B0482FD09C082E00E94DB2D8091A2
:1019900018078770DD24D3948111D12CC12EC294F5
:1019A0008FE0C8228C2D90E08C30910508F0CAC1E0
:1019B000FC01EA5AFF4F0C94DB35812F807F1F70AA
:1019C000882311F01295107F0023B9F0112309F438
:1019D000A7C180E28B0D883010F0911006C0809175
:1019E0001B07182B10931B0705C080911A07182B93
:1019F00010931A070E949F2A93C18B2D0E94730790
:101A0000112309F49FC180E28B0D883080F1992069
:101A100071F1109580911A07182310931A072AC0A4
:101A2000812F807F1F70803211F01295107F8B2DD7
:101A3000992021F0F1E09F16D9F149C080913B0433
:101A400082FF1BC0002369F0112339F080911B072E
:101A5000182B10931B070E949F2A80E00E949D076D
:101A600071C180E00E947307112309F46BC1812FBB
:101A70000E94982A0E949F2A65C1002381F08091CC
:101A80001C07AA2051F021E0A21207C0182B18173A
:101A900009F458C110931C0755C1812B10C0AA200E
:101AA00021F031E0A31609F44DC10E94922A27C00B
:101AB000002341F085E08A1508F444C1812F0E947B
:101AC000402E40C194E09A1508F43CC118C0002390
:101AD00049F0AA2099F3F701858180FF21C18F7019
:101AE0008583ECCFAA2059F0893309F028C1FFEF94
:101AF00027EE33E0F15020403040E1F71EC1812F46
:101B00000E94392E1FC1812F86958695837019F00A
:101B1000813061F017C1002321F08B2D912F93703C
:101B200002C080E090E00E945A1C12C1002321F004
:101B30008B2D912F937002C080E090E00E94441C96
:101B400007C1812F8370A9F5011100C14B2D42956A
:101B500046954770440F440F8B2D8F7090E09C0189
:101B6000042E01C0220F0A94EAF7B4FE08C08FE0E9
:101B700090E001C0880F4A95EAF7809501C080E0A7
:101B8000169516951370123069F088F49091400400
:101B9000113019F0822B892302C0922B892B0E94CD
:101BA000202ED4C0822B909140048927F8CF822B1D
:101BB000F6CF002319F0812F817001C0869588230C
:101BC00009F4C4C04B2D429546954770440F440F0D
:101BD0008B2D8F7090E09C01042E01C0220F0A947F
:101BE000EAF7B4FE08C08FE090E001C0880F4A9584
:101BF000EAF7809501C080E01695169513701230B3
:101C000059F078F490919D04113019F0822B8923BA
:101C100009C0922B892B06C0822B90919D048927A5
:101C200001C0822B0E94CB2D91C01F70002339F080
:101C3000812F0E94152E8B2D0E94402E87C08B2D48
:101C40000E94392E812F0E94CF2D80C08B2D92EFC4
:101C5000991679F1991538F0E0EF9E1659F0F1EFE9
:101C60009F1611F159C023EF921651F134EF9316DC
:101C7000B9F052C0002379F084E08A1508F462C0FC
:101C80001F7181E090E001C0880F1A95EAF79091EA
:101C90009D0489271FC095E09A1508F453C0F0CF22
:101CA00080913B0482FF19C0002329F0812F8F719E
:101CB00026C00023D9F3812F8F710E94CF2D42C0FF
:101CC000002339F01F7181E001C0880F1A95EAF7EF
:101CD00001C080E00E94CB2D35C0002399F01F7118
:101CE000812F0E94152E80913B0482FD07C0E8E001
:101CF0001E9FC0011124836080931807812F0E94CA
:101D0000152E20C081E00E94DB2DF1E0FA15D0F401
:101D100082E00E94DB2D16C0002321F0AA2031F2C0
:101D20008B2D9CCEAA2039F2893349F42FEF37EE60
:101D300083E0215030408040E1F700C000008B2D4F
:101D40000E94730788EF8C0D843010F40E94701C81
:101D5000DD2009F4FEC08091180780FDFAC0F7016C
:101D600012828595859585950E94152EC7010E9442
:101D7000CC088091180785958595859529960FB68D
:101D8000F894DEBF0FBECDBFDF91CF911F910F91B1
:101D9000FF90EF90DF90CF90BF90AF909F908F908B
:101DA0007F906F905F904F903F900C94CF2D69E2A1
:101DB00061CD043C9CE5190709F491C0053C1C4524
:101DC00009F0AECD49ED50E362EE70E3A5C0093CE9
:101DD000FCE51F0709F492C070F4073C3CE51307CB
:101DE00009F487C0083C1C4509F09ACD4DEC50E33E
:101DF00061EC70E391C00A3CECE51E0709F483C076
:101E00000B3C1C4509F08CCD44E35FE265E47FE2C6
:101E100083C0013D2CE5120709F48AC098F40E3CFA
:101E20008CE5180709F47EC008F479C00F3CECE596
:101E30001E0709F47AC0003D1C4509F071CD6EE023
:101E400089E084C0043D2CE5120709F477C060F4F2
:101E5000023D8CE5180709F46EC0033D1C4509F0EE
:101E60005FCD61E088E16FC0053DECE51E0709F438
:101E700068C00D351D4509F053CD6AE285E266C0A4
:101E80008091210480FF20C08E7F80932104609187
:101E900021047091220480912304909124040E94D3
:101EA000222F0E94682E809125078160809325074C
:101EB0002FEF30E782E0215030408040E1F700C052
:101EC00000000E948A2EB2CA81608093210461E0E2
:101ED000869539C04BE251E364E371E31DC044E3EE
:101EE00051E36BE271E318C042EE50E369ED70E339
:101EF00013C041EC50E36DEC70E30EC049EA50E3CF
:101F000065EB70E309C045EB50E369EA70E304C098
:101F100045E45FE264E37FE20E94321E87CA61E02B
:101F200081E011C065E082E011C068E086E00EC08B
:101F300064E18FE00BC067E185E108C062E289E1FE
:101F400005C061E083E20E94EB3070CA0E94201E4F
:101F50006DCA29960FB6F894DEBF0FBECDBFDF91D4
:101F6000CF911F910F91FF90EF90DF90CF90BF9096
:101F7000AF909F908F907F906F905F904F903F9029
:101F80000895CF93DF93CDB7DEB7E3970FB6F894FC
:101F9000DEBF0FBECDBF84B7877F84BF0FB6F89476
:101FA000A895809160008861809360001092600025
:101FB0000FBE90E080E80FB6F89480936100909394
:101FC00061000FBE85B7806885BF85B7806885BF13
:101FD00088E39EE190931902809318020E94DC2806
:101FE0000E94FB288091E20084608093E200789454
:101FF000809193048823A1F01091E9001F709091C3
:10200000EC00892F817090FD80E8182B1092E90078
:102010008091E80083FD0E94C2251F701093E900A3
:1020200082E084BD93E095BD9AEF97BD80936E00EA
:1020300010921B0210921C0210921D0210921E029E
:102040000E94071E811102C00E94F81D0E94D71F26
:102050008093040180910401882321F010921E01D5
:102060008BE103C08BE180931E0180931F010E94CE
:10207000D71F81110E94C432809104018091040114
:10208000882311F090E001C094E09093280284E04E
:10209000891B8093270204E911E098E9E92E91E079
:1020A000F92ED8018D918D018F3F11F00E946F2084
:1020B000E016F106B1F70CE911E082EAE82E81E0C2
:1020C000F82EF80181918F018F3F11F00E946F204F
:1020D000E016F106B1F788E0E6E6F2E0DF01082F4E
:1020E0001D920A95E9F7EFE1F2E0DF011D928A9572
:1020F000E9F70E942022811102C00E942B2282E077
:1021000090E00E94023580935D020E940F2290931E
:102110003B0480933A040E949E22EFE3FCE931974E
:10212000F1F700C000000E949E220E94D71F882362
:1021300011F0E0E001C0E4E0F0E0EA59FD4F8081F9
:1021400081FF08C06FEF7FEF80E090E00E943435A0
:102150000E944D1B83E090E00E9402350E94202ED9
:102160000E94D71F811102C00E94C7320E94D71F50
:10217000811102C082E001C080E08093580280E8B3
:102180008093A3040E9458316DE070E08DED91E0E2
:102190000E949925892B09F043C08091580263E081
:1021A00070E081FD3AC08AED91E00E949925892B6B
:1021B000B9F56DE070E08AEC91E00E949925892BD9
:1021C00079F50E94A61BDC01CB01805A9541AF4FE7
:1021D000BF4F8093260490932704A0932804B093C4
:1021E0002904E6EAF4E080E092E0DF018C011D9230
:1021F00001501040E1F7F093AD06E093AC068FEF8D
:102200009FEF9093A5048093A40481E080932B0416
:1022100080932A041092590203C087ED91E0C5CF44
:1022200080912902811138C00E942022811104C0AE
:102230000E942B220E94562F88E090E00E940A35CF
:1022400060932104709322048093230490932404C8
:10225000809125078360809325076E7F71F40E942B
:10226000562F88E090E00E940A3560932104709315
:10227000220480932304909324040E94082F0E9438
:10228000682E8091210480FF04C060E086950E9442
:10229000EB3081E08093290285E091E09093320455
:1022A0008093310422242394312C1AE0412E512CA6
:1022B000612C712C9E012F5F3F4F69018091930427
:1022C000853009F048C0A0E4FA2E00E112E18091C7
:1022D0009304853009F03BC080919304843029F148
:1022E0000E946A1D1092350468E170E00FB6F89400
:1022F000A895609360000FBEF092600083B7817F65
:10230000846083BF83B7816083BF7894889583B7E7
:102310008E7F83BF0FB6F894A89580916000886186
:1023200080936000109260000FBE80919204882319
:1023300009F4CDCF0E949E22E6E6F2E08191811160
:10234000F8C48EE692E08E179F07C1F7C0CF0E94B7
:10235000242E0E94701C0E949E228BA781110E9435
:10236000A61BA6E6B2E0BDA7ACA7AEE5B2E0E6E6E6
:10237000F2E000E010E0902EA1908D918A2549F1C5
:10238000E12CFF24F3949F2D9823F1F00E94D71F96
:10239000882399F0E9A29AA2AF2081E009F480E0B5
:1023A0008BA30E94B21B8160782F9DA38CA349A1AF
:1023B0005AA16BA18DA10E941008F801E25AFD4FAD
:1023C0008081F826F0821AC0E394FF0C26E0E21226
:1023D000DACF0F5F1F4F0830110569F68FEF8EA31C
:1023E0008FA318A60E94B21B8160782F9AA789A795
:1023F0004EA15FA168A58AA50E94100880912407BC
:10240000882309F4CFC080912307E0912104E69549
:10241000E81BE0931F07823059F4F0E0E550FE4FCF
:10242000E4910E2F10E0F7E8EF2EFAE1FF2E6BC0DB
:10243000863059F4F0E0E850FE4FE4910E2F10E0A2
:10244000E7E7EE2EEAE1FE2E5EC0893061F4E69504
:10245000F0E0EB50FE4FE4910E2F10E075E2E72E16
:1024600079E1F72E50C08F3061F4E695F0E0EE5040
:10247000FE4FE4910E2F10E069E8E62E68E1F62E9B
:1024800042C0853159F4F0E0E151FE4FE4910E2F46
:1024900010E053E0E52E58E1F52E35C08831F9F013
:1024A000833249F4EDEEF1E00591149147E3E42E17
:1024B0004AE1F42E28C08432C9F08532F1F48E2F1F
:1024C00063E00E94AD35E92FF0E0E651FE4FE49164
:1024D0000E2F10E030E6E32E39E1F32E14C008E2AF
:1024E00010E020E7E22E27E1F22E0DC004EF11E00C
:1024F00091E3E92E97E1F92E06C000ED17E089EB94
:10250000E82E86E1F82E80912007882361F0109252
:1025100020070E94952290931E0780931D0710921A
:102520002207109221070E949522E0911D07F09149
:102530001E079C012E1B3F0B2F3F3F4798F5209114
:102540002C022223B1F010922C0220912A02309109
:102550002B02821B930B8F3F9F4758F4205D3A4814
:1025600030932B0220932A02809125078860809364
:10257000250780902107909022070E0F1F1F1093B0
:102580001E0700931D078DE197E0F70109958091E3
:10259000210790912207892B29F4892819F081E0DD
:1025A00080932C0280912B04882309F4F8C1809138
:1025B0005A0290915B020E94971BC29708F4EAC0EE
:1025C0000E94B21B90935B0280935A0286EA94E0C9
:1025D0009093AD068093AC060E94D71F882309F420
:1025E0009AC08AE192E00E94E82480919D040E94B2
:1025F000B808813059F038F0823059F0833081F4D6
:102600008FEF91E008C082E192E005C08CE092E09B
:1026100002C086E092E00E94E82481E00E94AA1DA8
:10262000809137020E940E25FC0101962081203204
:10263000D9F3CF010E94F62488E292E00E94E824B8
:10264000809136020E940E25FC01019620812032E5
:10265000D9F3CF010E94F62484E292E00E94E8249C
:102660008091340290913502209111013091120134
:102670008217930739F420913302203219F42DE2A6
:1026800032E037C0909312018093110120E2209331
:1026900033024C01A12CB12C1092320202E3E02E45
:1026A00002E0F02E00E010E0C501B401A3019201A8
:1026B0000E947C35605D603319F40115110539F015
:1026C00081149104A104B10419F460E201C060E333
:1026D000D7016E937D01C501B401A30192010E944F
:1026E0007C3549015A010F5F1F4F05301105E1F696
:1026F000C6CFC9012F5F3F4FFC0140814032C9F373
:102700000E94F62482E292E00E94E8248091130164
:102710000E9468243FC08091AC069091AD06865A15
:1027200094409C013E5F2130324028F020E032E0AE
:10273000281B390B02C020E032E06091A4047091A4
:10274000A504DC01AA55BB4FAC01280F391F421765
:102750005307E0F4FA01E81BF90BE65DFD4FE49145
:10276000FC91EF1779F0EC93FA0115E0F695E795F7
:102770001A95E1F7810102C0000F111FEA95E2F7F7
:10278000602B712B4F5F5F4F1196E1CF7093A504C3
:102790006093A40480912B04882309F4E5C0209160
:1027A000A4043091A5042115310509F4DDC0809100
:1027B00059028111D9C0082F10E07101082E02C002
:1027C000EE0CFF1C0A94E2F7A9014E215F21452B74
:1027D00011F48F5FF0CF90915802980165E0220FBD
:1027E000331F6A95E1F790FD12C08295880F8076BD
:1027F00080931601220F232F221F330B3195209334
:102800001901815E8093170110921A0112C045E0F0
:10281000369527954A95E1F7220F220F220F209334
:10282000160110921901295F2093170183E080930C
:102830001A0124E630E047E050E064E171E088E707
:102840000E940F32892B09F08FC08091580280FDC1
:1028500022C0A80125E0440F551F2A95E1F74A55EB
:102860005B4F04E610E020E230E060E488E70E947D
:102870003632892B09F078C00E94841DE094F094D0
:102880008091A4049091A504E822F922F092A50475
:10289000E092A40469C080E2E8E3F2E0DF011D9267
:1028A0008A95E9F7480195E0880C991C9A95E1F71B
:1028B000E6EAF1E0FBABEAAB42EA51E0AAA9BBA928
:1028C0008D91BBABAAABFA019191AF019401290F95
:1028D000311D89010A551B4F19AB08AB90E0885C8C
:1028E0009D4FFC0177E09F01281B390B022D01C091
:1028F000000F2A95EAF728A939A93FA72EA710E0CB
:10290000AEA5BFA56D91BFA7AEA76023272F211B42
:102910002770A22E022E000C330BB62F01C0BB0F66
:10292000AA94EAF7AB2E3195219531092770332708
:1029300001C066952A95EAF7A62A6081A62AA08298
:102940001F5F1830E9F6715031967F3F61F6EAA9B2
:10295000FBA9EA5AF14009F0B1CF04E610E020E209
:1029600030E048E352E081CF80912A048823B9F017
:102970000E94A61B00912604109127042091280490
:1029800030912904DC01CB01801B910BA20BB30B0E
:102990008F3F9F4FAF4FBF4710F40E946A1D2BA57A
:1029A00021110E94841D0E94701C90915C02891765
:1029B00021F00E94701C80935C028091930484300B
:1029C00009F07CCC83E08093E9008091E80082FFED
:1029D00075CC8091E80085FF23C00E94332A8111C5
:1029E0001DC080E2E82EF12C8E010F5F1F4F09C041
:1029F0008091F100D8018D938D01B1E0EB1AF108BF
:102A000069F08091E80085FDF3CF8091E8008B7735
:102A10008093E8000E94332A882399F391E001C053
:102A200090E08091E8008B778093E800992309F487
:102A300045CCE9818E2F90E0FC013197E331F1051F
:102A400008F04FC1EE59FF4F0C94DB351A8289E034
:102A5000A9C08A81823009F482C1833051F081306B
:102A600009F03FC10E94A61B9B838C837D836E83EC
:102A70003AC1FE013396CE010B96ACA5BDA52D91B2
:102A8000BDA7ACA721938E179F07B9F72CC18A81E8
:102A9000823009F026C16B817C818D819E810E94EC
:102AA000E13586E290E024C04C816B818A810E94EE
:102AB000371D9D835BC10D811E81102701271027C3
:102AC0008C81EB809A81BCE0EB9E70011124E0E6E2
:102AD0009E9FE00CF11C1124E80EF11CE80EF11C85
:102AE000612FC70187960E941635602FC70188960F
:102AF0000E941635F8C00E94031DF5C08A818138F6
:102B0000B1F050F4803809F0EEC020E04B816091C4
:102B100023048091220423C08238E9F0833809F02D
:102B2000E2C020E0409124046C818B8118C060E0F9
:102B30008B810E94EB308B81811103C00E94F12EAA
:102B4000D2C08091210481608093210460E0869549
:102B50000E94EB30C8C08B8180932504C4C00E94C2
:102B60000730C1C08A81813899F030F4803809F08B
:102B7000BAC08091240416C0823891F0833809F0DD
:102B8000B2C0809122048B83809123048C83ABC0DC
:102B90008091210480FF02C0869504C080E002C0BD
:102BA000809125048B839FC0609121047091220441
:102BB00080912304909124040E94222F94C080E1EC
:102BC0004DC082E08A8389E5EDCF0A811B81102701
:102BD00001271027AC80B12C7601C80189559E4F82
:102BE00097012C193D092A153B0508F07CC00935D1
:102BF000F2E01F0730F40E940235D70114968C933F
:102C000002C0F70114820F5F1F4FFFEFEF1AFF0A98
:102C1000E4CF0A811B81102701271027AC80B12C3B
:102C20007601C80189559E4F97012C193D092A1537
:102C30003B0508F058C0093522E0120728F4D701F7
:102C400014966C910E9416350F5F1F4FBFEFEB1A61
:102C5000FB0AE7CF0E94F31C46C084E08A8343C08E
:102C60000A811B81102701271027AC80B12C760127
:102C7000C801879697012C193D092A153B0598F53F
:102C80000038E1E01E0730F40E940235D7011496A7
:102C90008C9302C0F70114820F5F1F4FFFEFEF1AF2
:102CA000FF0AE6CF0A811B81102701271027AC807D
:102CB000B12C7601C801879697012C193D092A1578
:102CC0003B0588F4003821E0120728F4D701149658
:102CD0006C910E9416350F5F1F4FBFEFEB1AFB0A76
:102CE000E9CF8FEF898380919304843009F0E6CA9D
:102CF0001091E9001F709091EC00892F817090FD78
:102D000080E8182B82E08093E9008091E80080FF42
:102D10000CC040E050E060E270E0C6010E94662A0C
:102D20008091E8008E778093E8001F701093E9008F
:102D3000C5CA09BD19BD09B400FEFDCF8091D800F8
:102D40008F7D8093D8008091E00082608093E000C6
:102D50008091E00081FDFCCF0E94242EB8CA86E25B
:102D600090E00E9402351B821C821D828E83BBCFA5
:102D700008950895089580917004089580933C0407
:102D800070933E0460933D04809193048430F9F481
:102D90008093E9008FEF9091E800815095FD06C087
:102DA00095ED9A95F1F700008111F5CF8091E8003B
:102DB00085FF0DC040E050E063E070E08CE394E0FC
:102DC0000E94662A8091E8008E778093E80008953B
:102DD000BC0184E00C94BE16BC0183E00C94BE16CA
:102DE000CF93DF9320914B01222339F020913A04B5
:102DF00027FF03C060E224E002C068E021E02093E6
:102E0000E9002FEF3091E800215035FD06C035ED87
:102E10003A95F1F700002111F5CF2091E80025FF48
:102E20001DC0EC0180914B01811105C040E050E0D4
:102E300068E070E003C070E040E050E0CE010E9426
:102E4000662A8091E8008E778093E80080E2FE0198
:102E5000A1E7B4E001900D928A95E1F7DF91CF915F
:102E600008950F931F93CF93DF93EC0100E010E0E0
:102E700080912201282F30E00217130724F590914A
:102E800020019801290F311DA901440F551F240F5E
:102E9000351F2F583D4F869590E04C810817190734
:102EA0001CF4442331F002C0411103C040912404BA
:102EB00001C040E060912304809122040E946E2FA3
:102EC0000F5F1F4FD5CF0E948A2E8C8190E0019614
:102ED000817099278C83DF91CF911F910F91089575
:102EE0008F929F92AF92BF92CF92DF92EF92FF921A
:102EF0000F931F93CF93DF938C01FC014481C42F68
:102F0000D0E09E01DE010E949E359B01AC010E9433
:102F100069356B017C01E0E2F0E0EC1BFD0BA5E5FF
:102F2000B0E09B01AC010E9469354B015C019F013F
:102F3000DF010E94E8359B01AC010E9474359B01C2
:102F4000AC012C0D3D1D4E1D5F1DC501B4010E943D
:102F50007C35C22FD22F2A3228F4F3E02F9F900124
:102F600011240DC025E530E02C1B3109C901880F63
:102F7000991F280F391F37FF02C02F5F3F4F35952C
:102F80002795C22FC095F12C85E5E82EED1A80918A
:102F90002201F816C8F4F1FC02C08E2D01C08D2F5D
:102FA000909120012F2D30E0290F311DA901440FF0
:102FB000551F240F351F2F583D4F4C2F6091230470
:102FC0000E946E2FF394E3CF0E948A2EF801848131
:102FD000811102C091E003C0803219F49FEF9093F9
:102FE0001D0190911D01890FF8018483DF91CF911C
:102FF0001F910F91FF90EF90DF90CF90BF90AF9017
:103000009F908F9008951F93CF93DF93EC018C8155
:10301000811109C081E08C8310926F0292E090933D
:103020001C0180931B01809120019091210189173F
:1030300070F4E82FF0E09F01220F331FE20FF31F1F
:10304000EF58FD4F1182108212828F5FF0CF10E097
:10305000609122011617C0F5E12FF0E070E0CF017A
:103060000E94C73520912001820F20916F02022E0D
:10307000000C330B90E0E217F307CCF020911C0119
:10308000022E000C330B2E173F078CF09C01220FF1
:10309000331F820F931F9C012F583D4F40912404F2
:1030A00060912304809122040E946E2F0BC0FC01CA
:1030B000EE0FFF1F8E0F9F1FFC01EF58FD4F118277
:1030C000108212821F5FC4CF0E948A2E80911B0142
:1030D00020916F02280F20936F0290911C01980F8E
:1030E00090931C0119165CF4022E000C330B4091D6
:1030F000220150E0415051092417350734F08195E1
:1031000080931B01813009F41C82DF91CF911F91C4
:1031100008957F928F929F92AF92BF92CF92DF924B
:10312000EF92FF920F931F93CF93DF93EC018A816D
:1031300080FF03C0BB24BA9402C0BB24B3948C812B
:1031400081110DC081E0B81206C08091220181502A
:1031500080936E0202C010926E0281E08C83A12CDB
:1031600046E3842E90902201A91408F041C080917A
:103170002001CA2CD12C8601080F111DC801880F0F
:10318000991F080F191F0F581D4FF8011182108247
:10319000128234E0E32EF12C712C80916E02870DA7
:1031A00087332CF0682D0E94B935892F02C087FD26
:1031B000890D082E000C990BC816D90691F4809140
:1031C00024048E9DA0018F9D500D11245595479587
:1031D00055954795980160912304809122040E949F
:1031E0006E2F7B0CF1E0EF1AF108B9F6A394BACF79
:1031F0000E948A2E80916E0291E0B9120EC0811158
:1032000007C080912201815080936E021C820FC002
:10321000815080936E02BC820AC090E0019660915A
:10322000220170E00E94C73580936E028C83DF918B
:10323000CF911F910F91FF90EF90DF90CF90BF90B3
:10324000AF909F908F907F900895FF920F931F9360
:10325000CF93DF93EC01F12C0FEF10E0609122018E
:10326000F616F0F4809120012F2D30E0280F311D4B
:10327000C901880F991F280F391F2F583D4F70E043
:10328000C8010E94C735962F8C814091240460911B
:103290002304F99E800D11240E946E2FF394DECF3B
:1032A0000E948A2E9A818C8190FF02C08F5F01C09C
:1032B00081508C83DF91CF911F910F91FF900895E2
:1032C0007F928F929F92AF92BF92CF92DF92EF92B6
:1032D000FF920F931F93CF93DF93FC018280748042
:1032E00081E08483EAE2F4E09490E9EAF4E0E49196
:1032F000A12CF5E0BF2ECC24CA94D12CE9190E2FB5
:1033000010E080912201A81608F0A2C0EA2CF12C4E
:1033100022E0281568F0BE9CF001BF9CF00D11243E
:10332000ED5EFC4F80912204808380912304818391
:1033300071100AC0BE9CF001BF9CF00D1124ED5E1F
:10334000FC4F138212826AC0BE9CE001BF9CD00D6C
:103350001124CD5EDC4F8B818823F9F081508B8363
:103360002FEF829FC00111246C8170E00E9489348C
:10337000FB01FF27E65DFB4F8491E82FE9192FEF52
:10338000E29FC0011124B8010E9489348091240475
:10339000689FB00111247A8341C00E94E9342091D2
:1033A00024042695215830E0A901440F551F322FDF
:1033B0002227240F351F232F33278217930774F5F5
:1033C00082E0881588F40E94E934B6010E94C7356E
:1033D00088830E94E934209123042695622F70E0AF
:1033E0000E94C735280F2983BE9CF001BF9CF00DB9
:1033F0001124ED5EFC4F128280912404843120F070
:10340000893C18F088EC01C084E1BE9CF001BF9CAF
:10341000F00D1124ED5EFC4F8483838380912001A5
:103420009701280F311DC901880F991F280F391FD7
:103430002F583D4FBE9CF001BF9CF00D1124ED5E56
:10344000FC4F4281618180810E946E2FA39459CFED
:10345000DF91CF911F910F91FF90EF90DF90CF9070
:10346000BF90AF909F908F907F900C948A2E0F9377
:103470001F93CF93DF9300D01F92CDB7DEB78C019F
:103480008091700281110AC09E012F5F3F4F48E773
:103490006FEF0E946E2F8A8180937002F801848101
:1034A000813051F028F0823061F4409170020AC0FE
:1034B0008091700240E007C06091700240E080E0BF
:1034C00003C040E080E060E00E94D62EF8018481D5
:1034D00090E0019663E070E00E94C73584830F900E
:1034E0000F900F90DF91CF911F910F910895CF937F
:1034F000DF93EC01E1E2F4E0438162818C810E9480
:103500003E318C818F5F8C83DF91CF910895CF9373
:10351000DF93EC01EC81F0E0E65DFB4F4491E1E2EA
:10352000F4E0628181810E943E318C818F5F8C83C7
:10353000DF91CF9108958091950487FF11C080910C
:10354000E80082FD05C0809193048111F8CF11C07D
:103550008091E8008B770BC080919304882349F019
:103560008091E80080FFF8CF8091E8008E7780930B
:10357000E8000895982F973068F59093E900981720
:1035800039F07091EC002091ED005091F00003C0F3
:10359000242F762F50E021FD02C09F5FECCF3091A9
:1035A000EB003E7F3093EB003091ED003D7F309398
:1035B000ED003091EB0031603093EB007093EC0044
:1035C0002093ED005093F0002091EE0027FDE5CF11
:1035D00080E008958F708093E90081E00895209144
:1035E0009B0430919C042617370748F0611571053C
:1035F00039F42091E8002E772093E80001C0B9014A
:10360000FC0120E06115710579F180919304882314
:10361000F1F18530F1F18091E80083FD3CC08091AB
:10362000E80082FD2EC08091E80080FFEBCF209162
:10363000F3008091F20090E0922B6115710551F03A
:103640008830910538F421912093F100615071097F
:103650000196F3CF21E0089709F020E08091E8007F
:103660008E778093E800CECF2111CFCF0AC0809112
:103670009304882361F0853061F08091E80083FD38
:103680000AC08091E80082FFF2CF80E0089582E0D6
:10369000089583E0089581E0089581E08093E0003B
:1036A00080E28093D8001092C9008FE19EE40197D8
:1036B000F1F700C0000087E090EBDC018093260763
:1036C00090932707A0932807B09329079CE088E1EF
:1036D0000FB6F894A895809360000FBE9093600099
:1036E000FFCF78941F920F920FB60F9211248F93F1
:1036F0009F93AF93BF938091360490913704A0912C
:103700003804B09139040196A11DB11D809336048F
:1037100090933704A0933804B0933904BF91AF91CC
:103720009F918F910F900FBE0F901F9018959C0145
:103730004FB7F8948091360490913704A0913804E3
:10374000B09139044FBF821B930B08952FB7F894A3
:103750006091360470913704809138049091390457
:103760002FBF08952FB7F8948091360490913704B5
:10377000A0913804B09139042FBF08951F920F9281
:103780000FB60F9211248F939F93AF93BF938091A5
:103790003504811113C08091360490913704A091B3
:1037A0003804B09139044196A11DB11D80933604AF
:1037B00090933704A0933804B0933904BF91AF912C
:1037C0009F918F910F900FBE0F901F901895209191
:1037D0004B012223C9F020913A0427FF15C0262F60
:1037E0002695269526952E31C8F4FC01E20FF11D91
:1037F000677081E090E001C0880F6A95EAF78095D4
:103800009281892382830895FC01069622816213A6
:1038100001C012823196E817F907C1F70895209187
:103820004B012223C1F020913A0427FF14C0262F18
:103830002695269526952E3130F5FC01E20FF11DD7
:10384000677081E090E001C0880F6A95EAF7928185
:10385000892B82830895FC0132962FEF30E041914D
:10386000641789F02F3F19F4411101C0232F3F5FE6
:103870003630A9F72F3F39F0FC01E20FF11D27FD8B
:10388000FA956283089508952091330430913404A9
:103890002817390771F09093340480933304E09132
:1038A0003104F0913204309721F00084F185E02D4D
:1038B0000994089520912F04309130042817390776
:1038C00071F09093300480932F04E0913104F091D3
:1038D0003204309721F00680F781E02D0994089595
:1038E0000E94D71F882351F0E0913104F0913204F7
:1038F000309721F00190F081E02D099480E0089547
:103900000F931F93CF93DF93C42FD22FFC0182819B
:103910008823C9F040932E040E94B21B90932D047B
:1039200080932C0480E28C0F883008F057C0C77059
:1039300081E001C0880FCA95EAF7DF91CF911F910E
:103940000F910C94402E80912E04481330C080912A
:103950002C0490912D040E94971B883C910538F50A
:1039600010E21D0FCD17B9F080E28C0F883040F4C3
:10397000C77081E001C0880FCA95EAF70E94392E0E
:10398000183028F581E09D2F977001C0880F9A9517
:10399000EAF70E94402E802F0E944A2E1830F0F441
:1039A000D77081E001C0880FDA95EAF70AC080E29B
:1039B0008C0F883098F4C77081E001C0880FCA95D9
:1039C000EAF7DF91CF911F910F910C94392E802F40
:1039D000DF91CF911F910F910C944A2EDF91CF91DF
:1039E0001F910F910895CF93DF93C7EAD1E060E074
:1039F000CE010E9416352196C11584E0D807B9F78B
:103A0000DF91CF910895CF92DF92EF92FF920F93C3
:103A10001F93CF93DF93C0E0D0E08E01005A1F4F79
:103A20006E018CE0C80ED11CFE01E25DFA4FE590FC
:103A3000F4906F2DCE0187960E9416356E2DCE0123
:103A400088960E9416352296CC15DD0569F70C176D
:103A50001D0731F7E80100381140F9F6DF91CF91E9
:103A60001F910F91FF90EF90DF90CF9008950F93EB
:103A70001F93CF93DF93C42FD0E0CC0FDD1F2CE03A
:103A8000629FC00DD11D112430E6839FC00DD11D52
:103A90001124CE0187960E940235082F10E0102FC6
:103AA0000027CE0188960E9402359801282BC90173
:103AB000DF91CF911F910F910895462F843038F4F4
:103AC000783028F4663018F4672F0C94371D80E0A6
:103AD00090E0089580912B0490912A04882389F026
:103AE000992369F062E070E08CE295E00E949925EC
:103AF000892B19F080912A04089510922A0490913C
:103B00002A0481E08927089580912B048823F9F005
:103B10000E94A61BDC01CB01805A9541AF4FBF4FDD
:103B20008093260490932704A0932804B09329043B
:103B300080912A0481110BC062E070E08AE295E076
:103B40000E949925892B19F481E080932A048091A1
:103B50002A040895CF93E82F2091AC063091AD064A
:103B6000265A34404091A304642F70E0C9010E949A
:103B70008934481B842FEE2351F066E00E94AD3556
:103B8000C82FC150A8F080E20E946824FACFA90192
:103B9000480F511D4115524018F080E020E030E000
:103BA000280F311D2A553B4F3093AD062093AC06AC
:103BB000CF910895CF93C82F811102C06FEF01C03C
:103BC00062E283E290E00E941635C11102C06FEFFD
:103BD00001C061E084E290E00E941635C11102C08C
:103BE0006FEF01C063E085E290E0CF910C94163551
:103BF00080E00E94DA1D60E086E290E00E941635C7
:103C00000E94031D0E94F31C81E00C94DA1D83E2E4
:103C100090E00E940235823281F484E290E00E94BA
:103C20000235813051F485E290E00E94023591E046
:103C3000833009F090E0892F01C080E08170089501
:103C40009091210490FF04C09695981740F003C00E
:103C5000811105C090E0961710F40C94343161E0A6
:103C60000C94EB30882311F0FA0101C0FB01099498
:103C700080E0089590913A0492FF0DC0282F28719A
:103C8000283019F4877F846006C0282F24712430DF
:103C900011F48B7F886093FF0DC0282F2871283185
:103CA00019F4877E846106C0282F2471243111F411
:103CB0008B7E886120913B0420FF0DC0382F387126
:103CC000383019F4877F816006C0382F3171313068
:103CD00011F48E7F886021FF0DC0282F28712831B4
:103CE00019F4877E816106C0282F2171213111F4DA
:103CF0008E7E886194FD877E0895AF92BF92CF92A9
:103D0000DF92EF92FF920F931F93CF93DF937C018B
:103D10005B016A0180916D048A3018F001E010E0C7
:103D200002C00AE010E0C1E0D0E0F894B501C7019C
:103D3000F60109957894811115C021960C171D077D
:103D400094F0CC9F9001CD9F300D300D112480E078
:103D500090E045E34A95F1F700000196821793073A
:103D6000C1F7E3CF81E0DF91CF911F910F91FF90D9
:103D7000EF90DF90CF90BF90AF900895CF93DF93F7
:103D8000CDB7DEB728970FB6F894DEBF0FBECDBF14
:103D900085E0E1E2F4E0DE01119601900D928A9552
:103DA000E1F78091230790912407A09125078E8346
:103DB0009F83A88728854091690450916A04609187
:103DC0006B0470916C043FB7F89480913604909125
:103DD0003704A0913804B09139043FBF841B950B80
:103DE000A60BB70B84369105A105B10510F422236B
:103DF00029F18091440190914501885A9B4F40914F
:103E0000430150E04930510510F048E050E0BE0158
:103E10006F5F7F4F0E94113683E090E00E94D133A4
:103E2000892B11F080E00DC00E94A61B60936904ED
:103E300070936A0480936B0490936C04109225072E
:103E400081E028960FB6F894DEBF0FBECDBFDF919C
:103E5000CF910895EF92FF921F93CF93DF9300D0FD
:103E600000D01F92CDB7DEB77B0180E090E00E94CA
:103E7000D133892B09F065C04091280150E04115EC
:103E8000510511F041E050E06091290170912A0143
:103E9000685A7B4FCE0105960E941136409150041E
:103EA0005091510460915204709153042FB7F894CB
:103EB0008091360490913704A0913804B091390470
:103EC0002FBF841B950BA60BB70B84369105A1055C
:103ED000B10538F489E594E00E9482259D81891717
:103EE00091F181E090E00E94D133892BA1F44091BF
:103EF000320150E04530510510F044E050E060914F
:103F0000330170913401685A7B4FCE0101960E94B3
:103F1000113611E001C010E089E594E00E9482258D
:103F200091E02D81281390E0192341F10E94A61BF6
:103F300060935004709351048093520490935304FF
:103F40000FC010E001C011E08091590490915A0413
:103F5000A0915B04B0915C0489839A83AB83BC839A
:103F6000112361F089819A81AB81BC8180934C04DB
:103F700090934D04A0934E04B0934F0480914C0451
:103F800090914D04A0914E04B0914F04F7018083AD
:103F90009183A283B383812F0F900F900F900F9086
:103FA0000F90DF91CF911F91FF90EF900895809136
:103FB0004B04811118C088EC9091E30097FD0AC072
:103FC000EFE3FCE93197F1F700C000008150A1F761
:103FD00082E001C081E080934B04823021F40E9492
:103FE000DC281092930481E090914B04913009F009
:103FF00080E008950F931F930E94D71F882321F01C
:104000001F910F910C94A61B0E94A61B00911B02EE
:1040100010911C0220911D0230911E02600F711F31
:10402000821F931F1F910F910895CF93DF9300D0AC
:1040300000D0CDB7DEB74091540450915504609143
:104040005604709157042FB7F894809136049091DC
:104050003704A0913804B09139042FBF841B950B0D
:10406000A60BB70B84369105A105B10580F10E941E
:10407000FA1FDC01CB010296A11DB11D89839A8331
:10408000AB83BC8380913A0190913B01885A9B4F4E
:104090004091390150E04530510510F044E050E0C6
:1040A000BE016F5F7F4F0E94113682E090E00E9458
:1040B000D133892B11F080E00BC00E94A61B6093C6
:1040C000540470935504809356049093570481E0F0
:1040D0000F900F900F900F90DF91CF910895F8946B
:1040E000E82FE295EF70F0E031A1282F2F7081E0EA
:1040F00090E001C0880F2A95EAF7982F90959323B6
:1041000091A392A1892B82A378940895CF93DF93F2
:104110008238910569F1B0F48133910509F46FC0DB
:1041200048F48932910509F465C08A32910509F491
:104130006BC08AC08533910509F457C08933910556
:10414000B9F082C0833E910571F138F4803E91054B
:10415000B1F0823E910511F177C0863E9105B9F12B
:10416000873E9105C9F1843E910509F06DC024C0D8
:1041700020913A0420FD53C021FD51C065C08091BB
:104180003A0480FD46C080913B0480FF48C0809186
:104190003A0484FD3FC183EE90E03EC180913A0431
:1041A00082FF3AC0F4CF80913A0482FD35C08091FD
:1041B0003B0480FD34C0EBCF80913B0481FF35C0D0
:1041C00080913A0484FD26C187EE90E025C180915C
:1041D0003A0483FF27C0F4CF80913A0483FD22C0C4
:1041E00080913B0481FD21C0EBCF80913A0485FD95
:1041F0001FC021C080913A0485FD1DC019C0809167
:104200003A0486FD1BC01DC080913A0486FD19C08A
:1042100015C089E390E000C182EE90E0FDC080EE21
:1042200090E0FAC086EE90E0F7C084EE90E0F4C033
:1042300089E290E0F1C085E390E0EEC08AE290E090
:10424000EBC081E390E0E8C0811532E5930708F008
:1042500069C0811541E5940728F0982F8827816F60
:10426000906ADAC0883E910568F5803E910508F0B5
:10427000D3C0883A9105B8F4853A910548F0855A3B
:10428000E82FF0E0E655FE4F808190E09064C4C0D6
:104290008130910509F4BBC008F4BCC0843091059D
:1042A00008F4B8C0B9C08F3B910508F0B3C0885A74
:1042B000E82FF0E0EE0FFF1FE355FE4F8081918164
:1042C0009464AAC0811520E59207F0F09C0174E087
:1042D000369527957A95E1F7922F9370482F437082
:1042E00021E030E002C0220F331F4A95E2F73C681C
:1042F000392B8F70982F9695969540E2949FC00128
:104300001124822B932B88C0811530E4930718F079
:104310009F70906A81C09C013A9521153F4108F435
:104320007BC078C0EC01C11586E5D807E8F5C1155A
:1043300025E5D20748F08C2F0E943A1E8F7190E03D
:10434000982F8827906268C0C11534E5D30728F0FC
:104350009C2F8827846F906A5FC0AE0143705527F9
:104360002C2F26952695C115D34578F481E090E051
:1043700002C0880F991F4A95E2F740E2249F9001FE
:104380001124822B932B9C6847C081E090E002C0EF
:10439000880F991F4A95E2F740E2249F900111246B
:1043A000822B932B9A6838C0C1152AE5D207F8F4FE
:1043B000C11539E5D30790F08C2F8F700E943A1EFB
:1043C00094E0D695C7959A95E1F7CF70D0E0DC2FB1
:1043D000CC27D0699E01282BC9011EC0C11548E514
:1043E000D407C0F09C2F8827806F906A15C0CE013B
:1043F00090568115904270F48D2F8F710E943A1E55
:10440000282F2F71CE0199279062922B05C081E051
:1044100090E002C080E090E0DF91CF910895CF93CB
:1044200084E090E00E940235C82F82E290E00E9472
:1044300002352C2F30E0A901582BCA01CF910895E5
:1044400080E090E00E941035893E9E4F11F40C945C
:10445000071E80E0089569EE7EEF80E090E00E9404
:10446000343560E082E090E00E94163560E083E041
:1044700090E00E9416351092400460E084E090E0E5
:104480000E94163560E082E290E00E94163560E0FE
:1044900085E090E00E94163560E086E090E00E94A2
:1044A00016356FEF87E090E00E94163540E050E04F
:1044B000BA0188E090E00E94283560E08DE090E04D
:1044C0000E94163540E050E0BA0188E190E00E9479
:1044D000283560E087E190E00E94163540E050E02A
:1044E000BA018CE190E00E94283560E070E080E243
:1044F00090E00E94343540E050E0BA0188E190E05D
:104500000E94283580E00E94DA1D0E94F81D40E0DC
:1045100050E0BA018FE090E00E94283540E050E082
:10452000BA0183E190E00C9428350E94D71F8111D5
:104530000C94B21B0E94FA1FCB0108957F928F92B8
:104540009F92AF92BF92CF92DF92EF92FF920F9322
:104550001F93CF93DF93CDB7DEB72C970FB6F894A8
:10456000DEBF0FBECDBFAE014F5F5F4F7A0188E067
:10457000DA011D928A95E9F704E911E06A0188E9F8
:10458000A82E81E0B82E88248394912CF801808194
:104590008F3F09F441C0F894E82FE295EF70F0E006
:1045A00021A18F70A40102C0440F551F8A95E2F724
:1045B000CA01922F982B91A392A18095892382A35F
:1045C000789400C0ECE9F1E0712C31E021912F3FAB
:1045D00089F0A22FA295AF70B0E090968C9190E0F8
:1045E0002F7002C0959587952A95E2F780FD02C04D
:1045F000832F01C080E0782A330F51E0E23AF507BB
:1046000029F7D8018C918F3F11F00E946F20B0EAFA
:10461000BA95F1F7F60170820F5F1F4FFFEFCF1AC7
:10462000DF0AA016B10609F0B1CF48E050E0B701AB
:104630008FE192E00E9404368C01892B41F088E0E2
:10464000F701AFE1B2E001900D928A95E1F7F090A9
:1046500028020115110549F081E0809343040E946E
:10466000B21B9093420480934104809143048823B9
:10467000B9F080914104909142040E94971B0597E4
:1046800078F0AFE1B2E0EF2DF0E0EA59FD4F83E2C0
:1046900092E02D9121938A179B07D9F7109243043A
:1046A0000115110509F0FDC00E94D71FE0912802F5
:1046B000882309F477C019861A861B861C860E2F5C
:1046C00010E00A591D4F80916D048A3058F44AE277
:1046D0005FE1BE01675F7F4FC8010E947D1E882396
:1046E000A1F10AC080914404909145040E94971B57
:1046F000843F914060F73AC045E150E2BE01675FF8
:104700007F4FC8010E947D1E8823F9F04EEB5EE1C9
:10471000BE01675F7F4FC8010E947D1E8823A9F0FC
:1047200010926D048091270290E044E050E0BE01B9
:10473000675F7F4F8A599D4F0E94043621E0209386
:104740004A04892B01F500E0AEC080916D048F3FD3
:1047500019F08F5F80936D0480916D048A3010F39F
:104760000E94B21B909345048093440480914A04B4
:10477000882349F3FE01399684E0DF011D928A9572
:10478000E9F710924A04E0912702F0E0EA59FD4F60
:1047900089859A85AB85BC8580839183A283B38309
:1047A00001E081C0F0E0EA59FD4FF89484E0A9E50A
:1047B000B4E001900D928A95E1F789E594E00E94BA
:1047C0008225809358047894F894C0905D04D0902A
:1047D0005E04E0905F04F090600480914604909144
:1047E0004704A0914804B0914904C816D906EA06C6
:1047F000FB06D1F0C0924604D0924704E0924804F0
:10480000F09249040E94D71F81110EC00E94A61B7E
:10481000C61AD70AE80AF90AC0921B02D0921C02F3
:10482000E0921D02F0921E027894F8948091680440
:104830008823A9F180FF10C08091610480FF0AC025
:104840009091210491609093210460E086950E94EC
:10485000EB3002C00E94F12E8091680481FF09C0F4
:1048600020E04091640460916304809162040E949E
:1048700007308091680482FF09C080916704882313
:1048800019F00E946F2E02C00E94682E8091680469
:1048900083FF03C081E0809320071092680478941E
:1048A00002C001E010E0802F2C960FB6F894DEBF16
:1048B0000FBECDBFDF91CF911F910F91FF90EF9071
:1048C000DF90CF90BF90AF909F908F907F90089592
:1048D000CF93DF938A3011F481E003C08D3029F447
:1048E00080E0DF91CF910C94AA1D682F8091AC06D7
:1048F0009091AD0626E0FC01A6EAB6E001900D928B
:104900002A95E1F7603E30F026E0FC0111922A95ED
:10491000E9F70AC0F6E06F9FB0011124625F774F9C
:1049200046E050E00E94F934C091AC06D091AD064B
:1049300046E050E0BE0186EA96E00E940436892BEC
:1049400049F19E01265A3440A90185E056954795C4
:104950008A95E1F781E090E0BC0102C0660F771F05
:104960004A95E2F74091A4045091A504462B572B99
:104970002B5F3F4F65E0369527956A95E1F702C0BA
:10498000880F991F2A95E2F7842B952B9093A50405
:104990008093A4049E01205A34404091A304642FC4
:1049A00070E0C9010E948934481B463010F4240F7E
:1049B000311D211582E0380710F020E030E02A5543
:1049C0003B4F3093AD062093AC06DF91CF91089515
:1049D000CF93DF93EC01FE018491882321F00E94A4
:1049E00068242196F8CFDF91CF9108950F931F93FC
:1049F000CF93DF93EC01FC0101900020E9F78F01D8
:104A000001501109C017D10720F489910E94682430
:104A1000F9CFDF91CF911F910F9108958F929F92BF
:104A2000AF92BF92CF92DF92EF92FF9290914C01A2
:104A3000981305C09091A204903209F44DC0809360
:104A40004C0190E29093A204C82ED12CE12CF12CC1
:104A50001092A104C701B6012AE030E040E050E026
:104A60000E947C35605D603339F0C114D104E104EB
:104A7000F10419F460E201C060E36093A0048AE0ED
:104A8000882E912CA12CB12CC701B601A50194014F
:104A90000E947C35211531054105510541F0CA01BF
:104AA000B901A50194010E947C35605D01C060E2FE
:104AB00060939F04C701B60124E630E040E050E077
:104AC0000E947C35211531054105510511F0205D0D
:104AD00001C020E220939E048EE994E0FF90EF90C5
:104AE000DF90CF90BF90AF909F908F90089580916E
:104AF0009D04982F9670963011F4886001C0877FCE
:104B00000C94CB2DFC01AC014C5F5F4F8FEF91E318
:104B10002191822728E030E087FF03C0880F892792
:104B200001C0880F21503109B9F7E417F50781F763
:104B30000895EF92FF920F931F93CF93DF93EC01B1
:104B40007B0164E670E088E70E945E318C01EC0E28
:104B5000FD1ECE15DF0561F017FD0AC0FE01849130
:104B600064E670E00E94DF318C012196892B89F385
:104B70000E946332C801DF91CF911F910F91FF9086
:104B8000EF9008951F93CF93DF93CDB7DEB7AA9729
:104B90000FB6F894DEBF0FBECDBFE5E9F4E08DE9B6
:104BA00094E02091F10021938E179F07D1F7809117
:104BB0009604833009F463C030F4813071F08230A0
:104BC00009F49DC0B4C08A3009F489C08B3009F45F
:104BD0006EC0893009F0ABC020C080919504813A45
:104BE00009F0A5C08091E800877F8093E80080915C
:104BF000990490919A04892B21F460E281E794E072
:104C000003C060E080E090E070E00E94EF1A8091C5
:104C1000E8008B778093E8008AC080919504813208
:104C200009F085C08091990490919A04009719F039
:104C3000029709F07CC08091E800877F8093E800AC
:104C40008091E80082FD05C0809193048111F8CF26
:104C50006EC02091F3008091F20090E0922B0297B9
:104C600031F48091F100813011F0863021F480918F
:104C7000F100809370048091E8008B7754C080919C
:104C80009504813A09F053C08091990490919A0457
:104C9000892B09F04CC08091E800877F8093E80061
:104CA0008091E80080FFFCCF80914B0137C080915C
:104CB00095048132E1F58091990490919A04892BB1
:104CC000B1F58091E800877F8093E8000E949B1AED
:104CD0008091970480934B010E94242E28C08091DC
:104CE0009504813221F58091E800877F8093E80068
:104CF0000E949B1A8091980480936F0418C0809141
:104D00009504813AA1F48091E800877F8093E800C0
:104D10008091E80080FFFCCF80916F048093F100C8
:104D20008091E8008E778093E8000E949B1A809122
:104D3000E80083FFDFC18091950490919604492F8C
:104D400050E04A30510508F0D5C1FA01EB58FF4F49
:104D50000C94DB35803821F0823809F0CBC108C0D3
:104D60008091910490919204992389F082600FC000
:104D7000809199048F70873008F0BCC18093E9005E
:104D80008091EB0085FB882780F91092E9009091D3
:104D9000E800977F9093E8008093F1001092F10073
:104DA00070C1282F2D7F09F0A5C1882319F082300A
:104DB00061F0A0C180919704813009F09BC19330CC
:104DC00009F080E0809392042EC0809197048111B5
:104DD0002AC0809199048F702FEF280F263008F099
:104DE00089C18093E9002091EB0020FF1CC0933023
:104DF00021F48091EB00806214C09091EB009061EF
:104E00009093EB0021E030E0A90102C0440F551F50
:104E10008A95E2F74093EA001092EA008091EB0055
:104E200088608093EB001092E9008091E800877F12
:104E30008093E8000E949B1A5DC181115BC11091B3
:104E400097041F778091E3008078812B8093E300A3
:104E50008091E800877F8093E8000E949B1A8091F0
:104E6000E80080FFFCCF8091E30080688093E3003E
:104E7000111102C082E001C083E0809393043AC123
:104E80008058823008F036C1209197043091980400
:104E90002C3D53E0350779F583E08A838AE28983E4
:104EA0004FB7F894DE01139620E03EE051E2E32F85
:104EB000F0E050935700E49120FF03C0E295EF70BB
:104EC0003F5FEF708E2F90E0EA3010F0C79601C080
:104ED000C0968D939D932F5F243149F74FBF8091EA
:104EE000E800877F8093E8006AE270E0CE010196D7
:104EF0000E94EF1AB4C08091990490919A04432FB4
:104F0000552743305105A9F068F44130510509F4A3
:104F100000C14230510509F0EDC08BE590E0EDE7AE
:104F2000F7E04BC04132510529F14232510589F178
:104F3000E1C0C901992781309105A1F058F002978D
:104F400009F0D8C0EAEEF7E0E4918E2F90E0EAEEA7
:104F5000F7E030C0EAE0F8E0E4918E2F90E0EAE07C
:104F6000F8E028C0E8EFF7E0E4918E2F90E0E8EF5A
:104F7000F7E020C08330910508F0BCC0880F991F6E
:104F8000FC01EA51FE4F0190F081E02D89E090E0B4
:104F900014C08330910508F0ADC0FC01EE0FFF1F77
:104FA000E052FE4F0190F081E02DDC01A352BE4F94
:104FB0008C9190E0009709F49DC02091E800277F34
:104FC0002093E80020919B0430919C042817390716
:104FD00008F4C90140E0009789F12091930422234D
:104FE00009F43DC02530D9F12091E80023FD37C0F8
:104FF0002091E80022FD2FC02091E80020FFEBCF98
:105000004091F3002091F20030E0342B009759F0EA
:105010002830310540F444914093F10031960197D6
:105020002F5F3F4FF3CF41E02830310509F040E0DA
:105030002091E8002E772093E800CDCF4111CDCF0D
:105040000AC080919304882351F0853041F080910B
:10505000E80083FD04C08091E80082FFF2CF8091D8
:10506000E8008B778093E80045C0803809F042C0A3
:105070008091E800877F8093E8008091940480937A
:10508000F1008091E8008E77D3CE811133C08091FA
:105090009704909198049927029764F58091E8000D
:1050A000877F8093E80010919704109394040E94E6
:1050B0009B1A111106C08091E30087FD02C081E0B8
:1050C00001C084E08093930442E061EC81E00E949F
:1050D000BA1A42E261EC84E00E94BA1A42E261EC40
:1050E00082E00E94BA1A42E260EC83E00E94BA1A9F
:1050F000809193048091E80083FF10C08091E800C4
:10510000877F8093E8008091EB0080628093EB00C2
:1051100005C082E190E0E8EDF7E04FCFAA960FB628
:10512000F894DEBF0FBECDBFDF91CF911F910895E0
:105130001F920F920FB60F9211242F933F934F930C
:105140005F936F937F938F939F93AF93BF93CF930F
:10515000DF93EF93FF93C091E900CF708091EC0053
:10516000D82FD17080FDD0E81092E9008091F00036
:10517000877F8093F00078940E94C2251092E90006
:105180008091F00088608093F000CD2BCF70C093A9
:10519000E900FF91EF91DF91CF91BF91AF919F9186
:1051A0008F917F916F915F914F913F912F910F90D0
:1051B0000FBE0F901F901895E8EDF0E080818E7F74
:1051C00080831092E2001092DA001092E100A0EECB
:1051D000B0E08C9181608C9380818F77808319BC43
:1051E000A7EDB0E08C918E7F8C9380818F7E808341
:1051F00010926E040895CF92DF92EF92FF920F9378
:105200001F93CF93DF93C8EDD0E088818F7E888392
:10521000E7EDF0E080818160808384E082BF81E0FF
:1052200080936E0488818E7F888302EE10E0F801FF
:1052300010821092DA0081EEC82ED12CF601108275
:1052400088818F77888388818068888388818F7D33
:10525000888319BC109293041092940410929204C3
:105260001092910490EEE92EF12CF70180818B7F52
:10527000808388818160888342E060E080E00E94D2
:10528000BA1AF60180818E7F8083F8018081816067
:105290008083808188608083F70180818E7F808316
:1052A000888180618883DF91CF911F910F91FF905A
:1052B000EF90DF90CF9008951F920F920FB60F924C
:1052C00011242F933F934F935F936F937F938F930B
:1052D0009F93AF93BF93EF93FF938091E10082FF81
:1052E00009C08091E20082FF05C08091E1008B7FC0
:1052F0008093E1008091DA0080FF2AC08091D8007D
:1053000080FF26C08091DA008E7F8093DA00809142
:10531000D90080FF18C080E189BD82E189BD09B450
:1053200000FEFDCF81E08093930480916E04811193
:105330000FC00E94DC280E94FB288091E20084605C
:105340008093E20005C019BC1092930410926E0481
:105350008091E10080FF17C08091E20080FF13C0C0
:105360008091E2008E7F8093E2008091E200806174
:105370008093E2008091D80080628093D80019BCAD
:1053800085E0809393048091E10084FF30C0809198
:10539000E20084FF2CC080E189BD82E189BD09B4AF
:1053A00000FEFDCF8091D8008F7D8093D800809142
:1053B000E1008F7E8093E1008091E2008F7E8093F8
:1053C000E2008091E20081608093E2008091940489
:1053D000882311F084E007C08091E30087FD02C0BC
:1053E00081E001C083E080939304809193048091D5
:1053F000E10083FF27C08091E20083FF23C08091FA
:10540000E100877F8093E10082E080939304109213
:1054100094048091E1008E7F8093E1008091E2000E
:105420008E7F8093E2008091E20080618093E200B1
:1054300042E060E080E00E94BA1A8091F00088604B
:105440008093F000FF91EF91BF91AF919F918F9169
:105450007F916F915F914F913F912F910F900FBE70
:105460000F901F9018952091E4003091E50095E68B
:105470004091EC00842F817040FF23C08091E800B0
:1054800080FD1DC080919304882399F0853099F0A8
:105490008091EB0085FD11C04091E4005091E50042
:1054A0002417350729F3915011F09A01E1CF84E0D8
:1054B000089582E0089583E0089581E0089580E0F2
:1054C00008954091E80042FFDDCF0895EF92FF92EA
:1054D0000F931F93CF93DF937C018B010E94332A9C
:1054E000811119C0E70101151105A1F08091E800B3
:1054F00085FD0AC08091E8008E778093E8000E94C5
:10550000332A882381F307C089918093F1000150E9
:105510001109E9CF80E0DF91CF911F910F91FF90AA
:10552000EF90089580911C07811110921C07089537
:10553000809590911B07892380931B070895909174
:105540001B0780911A07892B20911907982F922BFE
:105550009093AE0680911C078823D9F0892B809305
:10556000AE0680914B01882331F080913A0487FF89
:1055700002C08EE101C086E0E0EBF6E090E08150F1
:1055800028F021912223D9F39F5FF9CF91110E9436
:10559000922AE0913104F09132043097A9F0809181
:1055A0004B01882359F080913A0487FF07C080910E
:1055B000AE068093AF0686E08093AE060280F3814C
:1055C000E02D8EEA96E00994089580E090E00E9434
:1055D0005A1C80E090E00E94441C10921A0710921E
:1055E00019070C949F2A809117079091E606891756
:1055F00019F08F5F8770FBCF08950F931F93CF93A0
:10560000DF938091E50682958F7009F05DC08091EF
:10561000E206882309F458C0809117071091E60626
:105620006091E0067091E106C091E306D091E40636
:1056300091E06F3F09F090E0292F06E0811709F40F
:1056400043C0209721F07F3F21F030E003C031E0DC
:1056500001C0322F90E030FD34C0089FF001099F57
:10566000F00D1124DF01A951B94F11963C9111970A
:10567000371327C03C91361324C012963C911297E1
:1056800031111FC013964D915C9114974C1B5D0B0B
:10569000483C5105B0F48091E5068F70806180939D
:1056A000E506E451F94F80818F708061808380EE40
:1056B00096E00E94CC08DF91CF911F910F910C943E
:1056C000F32A01968770BACFDF91CF911F910F9186
:1056D0000895CF92DF92FF920F931F93CF93DF93A2
:1056E0006C0100919D0480914004082BC7E0D0E03C
:1056F00010E0C8010C2E02C0959587950A94E2F738
:1057000080FD04C02197A8F7F12C09C0FC2EB6013A
:105710008C2F0E945D1D0E948620019799F38F2D8A
:10572000DF91CF911F910F91FF90DF90CF9008955F
:10573000CF93DF93EC010E94692BBE010E945D1D97
:105740000E948620DF91CF910895FC018081918194
:105750000E94982B292F2F70E92FE295EF704E2F82
:1057600050E0FA013297EE30F105B8F4E158FF4FFE
:105770000C94DB35803F99F018F4883E70F40FC02C
:10578000843F59F40CC0883E50F0813F31F407C08B
:10579000822F869586958695089580E0089581E00C
:1057A00008959F92AF92BF92CF92DF92EF92FF92B5
:1057B0000F931F93CF93DF93CDB7DEB761970FB6EB
:1057C000F894DEBF0FBECDBF8C0185E0F801DE018D
:1057D0001D9601900D928A95E1F7F801E280909173
:1057E000E0066091E1064091E3065091E406411520
:1057F000510531F06F3F31F481E09F3F19F403C050
:1058000081E001C080E0F82FF1709F2E80FD1AC169
:10581000F80130812181C380D48080EEA82E86E0FB
:10582000B82EF090E206F601E41BF50BFF2009F418
:10583000C6C08091E506E83CF10508F091C0482F0C
:10584000407F09F050C0621311C093130FC0FE2CAB
:10585000E1100CC08F7080618093E506C5010E9445
:10586000CC088091E506F801858329C1CD2831F067
:105870002F3F31F481E03F3F19F403C081E001C0C4
:1058800080E080FD03C081E08E2502C080E090E0D2
:10589000F82FF170FF2E80FF1CC0809117074091F8
:1058A000E60656E0841709F4E8C090E0589FF0013E
:1058B000599FF00D1124E951F94F6181261306C05B
:1058C0006081631303C06281E61203C00196877092
:1058D000E9CFFE2CEE2009F4F2C08091E50681604C
:1058E0008093E50649C0621306C0931304C0E1101B
:1058F00002C0F80186C0C8010E94A52B882351F17F
:10590000EE2041F12091E506822F82958F7090E084
:10591000029774F08091E0069091E10698878F835A
:105920001986DB86CA862C87CE0107960E94CC0892
:1059300086E0F801A0EEB6E001900D928A95E1F7BD
:105940000E94FD2A0AC06217C9F0C8010E94A52B57
:1059500081111EC0C8010E94CC08FF24F394AFC07F
:10596000482F407F81F780EE96E00E94CC0886E0C9
:10597000F50111928A95E9F7F12CA1C09313E5CFB7
:10598000E110E3CFF8018583C8010E94CC0854C020
:10599000EE2001F32091E506822F82958F7090E032
:1059A000029734F28091E0069091E1069A83898310
:1059B0001B82DD82CC822E83CE010196B7CFE83CDC
:1059C000F105D0F5FE2CEE2029F2621327C09313C7
:1059D00025C02091E50620FD18C0822F82958F708A
:1059E000482F50E04115510581F0F80125834F30D3
:1059F000510541F08F5F982F9295907F822F8F7085
:105A0000892B8583C8010E94CC0886E0F801A0EEAE
:105A1000B6E001900D928A95E1F751C0C8010E944D
:105A2000A52B811185CF8091E50681608093E506E5
:105A3000C8010E94CC0843C086E0F50111928A9506
:105A4000E9F73DC0EE2009F485CFC8010E94A52BDF
:105A5000F82E882309F47ECF86E0F801A0EEB6E0A8
:105A600001900D928A95E1F78091E0069091E10610
:105A70000E94982B0E94FD2A22C03D872E878D858B
:105A80009E850E94982B292F22952F70223028F472
:105A90009F7039F0811105C00BC0243028F49F702D
:105AA00049F4805E883020F0C8010E94CC089F2C09
:105AB000F92C05C0F8019581907F99F7F9CF8F2DCA
:105AC00061960FB6F894DEBF0FBECDBFDF91CF91C8
:105AD0001F910F91FF90EF90DF90CF90BF90AF900C
