:100000000C9452060C9499060C9499060C94562F55
:100010000C9499060C9499060C9499060C949906E4
:100020000C9499060C9499060C947E1F0C94BA1E9D
:100030000C945D240C9499060C9499060C949906E2
:100040000C9499060C9499060C9499060C949906B4
:100050000C9499060C9410240C9499060C9499060F
:100060000C9499060C9499060C9499060C94990694
:100070000C9499060C9499060C9499060C94990684
:100080000C9499060C9499060C9499060C94990674
:100090000C9499060C9499060C9499060C94990664
:1000A0000C9499060C9499060C949906C90BC90BEB
:1000B000FC0BFC0B6F0C8E0D8E0D8E0D8D0C010D3F
:1000C000120D120DC911D911CC11D911CF11D9119D
:1000D000D911D911D211D911D211D911D211D911E5
:1000E000D2114B134E136A1377137E139E13A11371
:1000F000D513F713941494140214041408142C1434
:100100004D14501453147514CC1CF31C9C1EF31C7A
:100110009C1E3F1D621D9C1E571E671E2128212804
:10012000342834282A28342834283428212821281F
:100130002F28342834282F28000000000000000059
:1001400000000000000000000000000000000000AF
:100150000000000000000000000000007E0F00D43E
:10016000FFFFFFC700000078000000000000000053
:100170002A2B280000000000000000000000000002
:1001800000000029000000002C1E3420212224340D
:100190002627252E362D3738271E1F2021222324DF
:1001A00025263333362E37381F0405060708090A7B
:1001B0000B0C0D0E0F101112131415161718191A17
:1001C0001B1C1D2F3130232D350405060708090A95
:1001D0000B0C0D0E0F101112131415161718191AF7
:1001E0001B1C1D2F3130354C00DA0281FFD9F1DBA9
:1001F00020A4A62EAF00A0C000A1C800AED580A844
:100200001FD300408D1420007F3F1F6432146432DE
:1002100014783C1E1E140A0541646A7573740052FA
:1002200061697365004C6F7765720044656661753E
:100230006C74004C617965723A20008081828384FD
:1002400085868788898A8B8C8D8E8F9091929394E6
:10025000A0A1A2A3A4A5A6A7A8A9AAABACADAEAF26
:10026000B0B1B2B3B4C0C1C2C3C4C5C6C7C8C9CA9D
:10027000CBCCCDCECFD0D1D2D3D40005010980A133
:1002800001850319012AB700150126B700950175EC
:10029000108100C0050C0901A101850419012AA0E3
:1002A00002150126A002950175108100C005010903
:1002B00006A1018506050719E029E7150025019526
:1002C00008750181020507190029EF150025019520
:1002D000F07501810205081901290595057501913F
:1002E00002950175039101C00660FF0961A1010932
:1002F00062150026FF00952075088102096315002C
:1003000026FF00952075089102C005010906A1018C
:10031000050719E029E715002501950875018102F7
:100320009501750881010507190029FF150026FFB1
:1003300000950675088100050819012905950575C0
:10034000019102950175039101C009025B0003014F
:1003500000A0FA09040000010301010009211101B4
:1003600000012240000705810308000A090401007A
:1003700002030000000921110100012222000705EB
:100380008203200001070503032000010904020085
:100390000103000000092111010001226D00070581
:1003A000840320000A1201000200000008534601E5
:1003B000000100010200010C0343006F0072006E97
:1003C0000065000000100366006F006F007300748A
:1003D0000061006E0000000403090400000000003A
:1003E000003E5B4F5B3E003E6B4F6B3E001C3E7C15
:1003F0003E1C00183C7E3C18001C577D571C001CFE
:100400005E7F5E1C0000183C180000FFE7C3E7FF9A
:1004100000001824180000FFE7DBE7FF0030483A2F
:10042000060E00262979292600407F050507004091
:100430007F05253F005A3CE73C5A007F3E1C1C08C4
:1004400000081C1C3E7F0014227F2214005F5F0006
:100450005F5F0006097F017F00006689956A006082
:10046000606060600094A2FFA2940008047E04080B
:100470000010207E20100008082A1C0800081C2AF2
:100480000808001E10101010000C1E0C1E0C00306E
:10049000383E383000060E3E0E0600000000000018
:1004A0000000005F000000000700070000147F1438
:1004B0007F1400242A7F2A12002313086462003666
:1004C0004956205000000807030000001C2241008C
:1004D000000041221C00002A1C7F1C2A0008083E44
:1004E00008080000807030000008080808080000B4
:1004F00000606000002010080402003E5149453EA3
:100500000000427F400000724949494600214149AC
:100510004D33001814127F10002745454539003C23
:100520004A494931004121110907003649494936F4
:1005300000464949291E0000001400000000403414
:1005400000000000081422410014141414140000C8
:1005500041221408000201590906003E415D594E2E
:10056000007C1211127C007F49494936003E41410E
:100570004122007F4141413E007F49494941007F7E
:1005800009090901003E41415173007F0808087FB5
:100590000000417F4100002040413F01007F0814DE
:1005A0002241007F40404040007F021C027F007FCC
:1005B0000408107F003E4141413E007F09090906C1
:1005C000003E4151215E007F091929460026494914
:1005D00049320003017F0103003F4040403F001FBC
:1005E0002040201F003F4038403F00631408146340
:1005F000000304780403006159494D4300007F4122
:10060000414100020408102000004141417F0004E4
:10061000020102040040404040400000030708007F
:10062000002054547840007F284444380038444423
:10063000442800384444287F00385454541800009B
:10064000087E0902001824241C78007F080404781E
:100650000000447D4000002040403D00007F102805
:1006600044000000417F4000007C04780478007C56
:1006700008040478003844444438007C18242418C2
:1006800000182424187C007C0804040800485454F2
:1006900054240004043F4424003C4040207C001CBF
:1006A0002040201C003C4030403C0044281028449E
:1006B000004C9090907C004464544C4400000836F8
:1006C00041000000007700000000413608000002F1
:1006D00001020402003C2623263C0000000000002A
:1006E0000000000000000000000000C0E0F0F8F88A
:1006F0001800C0F0FCFEFFFFFFFFFFFFFF7E0000C1
:100700000000000000000080C0E0E0E0E0E0E0E089
:10071000E0C0800000000080C0E0E0E0E0E0E0E059
:10072000E0C080000000E0E0C0C0E0E0E0E00000E9
:10073000E0E0C0C0E0E0E0E0E0C080000000008059
:10074000C0E0E0E0E0E0E0E0E0C0800000000000A9
:10075000000000000000000000E0F0F0F0E0ECEE2F
:10076000F7F37020007C7C7C7E007E7E7E7F7F7F26
:10077000000080C0E07E5B4F5BFEC00000C000DC7C
:10078000D7DEDEDED7DC00C0000000000000000085
:100790000000000000000000000000000000000059
:1007A00000000000F8FCFEFFE000FFFFFFFFFFFF7E
:1007B00080FFFFFFFFFFFFFFFFFF1F07010000009B
:1007C000000000000000FFFFFF81000000000000AB
:1007D00081C3C3C30000FFFFFF81000000000000D1
:1007E00081FFFFFF0000FFFFFF010000000000008D
:1007F000FFFFFF010000000001FFFFFF0000FFFFFF
:10080000FF9D1C1C1C1C1C1C9DDFDFDF000000006A
:100810000000000000000000000F1F3F7F7F7F7F6F
:100820007F3F1E0C001F1F1F3F003F3F3F7F7F7F0A
:1008300000307B7F7830202030787F3B0003000F32
:100840007F0F0F0F7F0F000300000000000000006B
:100850000000000000000000000000000000000098
:1008600000000000030F1F3F3F3F3F1F1F3F3F7F20
:100870007F7F3F3F1F3F7F7F7F7F7C7878381C0FD3
:100880000000000000000001030707070707070733
:100890000703010000000001030707070707070718
:1008A0000703010000000707070000000000000028
:1008B000070707000000000000070707000000010D
:1008C00003070707070707070703010000000000E9
:1008D0000000000000000000000000000000000018
:1008E0000000000000000000000000000000000008
:1008F00000000000000000000000000000000000F8
:1009000000000000000000000000000000000000E7
:10091000000000000000000000000022232526281F
:10092000292A2C2D2F3032333536383A3B3D3E4084
:1009300042434547494A4C4E5051535557595A5CCA
:100940005E6062646668696B6D6F71737577797BE1
:100950007D7F81838587898A8C8E90929496989AE0
:100960009C9E9FA1A3A5A7A8AAACAEAFB1B3B4B6F5
:10097000B8B9BBBCBEBFC1C2C3C5C6C7C9CACBCC50
:10098000CDCED0D1D2D2D3D4D5D6D7D7D8D9D9DA23
:10099000DADBDBDBDCDCDCDCDCDDDDDDDDDCDCDC98
:1009A000DCDCDBDBDBDADAD9D9D8D7D7D6D5D4D3C0
:1009B000D2D2D1D0CECDCCCBCAC9C7C6C5C3C2C195
:1009C000BFBEBCBBB9B8B6B4B3B1AFAEACAAA8A7F2
:1009D000A5A3A19F9E9C9A98969492908E8C8A89AA
:1009E000878583817F7D7B79777573716F6D6B6987
:1009F00068666462605E5C5A5957555351504E4C5C
:100A00004A4947454342403E3D3B3A38363533320A
:100A1000302F2D2C2A29282625232200AF00AE2B8B
:100A20000014001A00080015001700E0000400166A
:100A300000070009000A00E1001D001B0006001964
:100A4000000500000000000000E300105F2C002AF9
:100A500000130012000C0018001C00340033000FBB
:100A6000000E000D000B0029003800370036001082
:100A7000001100000000000000E600115F28002BBC
:100A8000001E001F00200021002200E000000000E6
:100A900000000000000000E1000000000000000075
:100AA000000000000000000000E30001002C002A0C
:100AB0000027002600250024002300000000004F2E
:100AC0000052005100500000000000000000000033
:100AD000000000000000000000E600010028002BDC
:100AE000001E021F02200221022202E0000000007C
:100AF00000000000000000E1000000000000000015
:100B0000000000000000000000E30001002C002AAB
:100B1000002702260225022402230235003100307C
:100B2000002F002E002D003502310230022F022E40
:100B3000022D02000000000000E600010028000075
:100B40005C00000000000000000000C25CC55CC743
:100B50005CC95C00000000C35CC65CC85CCA5C0089
:100B6000000000000000000000E30001002C000075
:100B70000000000000000000000000000000000075
:100B80000000000000000000000000000000000065
:100B9000000000000000000000E600010028000046
:100BA000010101010101010101020202020202022E
:100BB0000202030303030303030304040404040401
:100BC00004050505050506060606060707070707C7
:100BD00008080808090909090A0A0A0B0B0B0C0C7A
:100BE0000C0D0D0D0E0E0E0F0F0F10101111111216
:100BF0001213131414151516161717181819191A95
:100C00001A1B1B1C1D1D1E1E1F20202122222324F7
:100C100024252626272829292A2B2C2D2D2E2F3036
:100C2000313232333435363738393A3B3C3D3E3F4A
:100C3000404142434445464748494A4C4D4E4F5037
:100C4000515354555658595A5B5D5E5F61626465F5
:100C50006668696B6C6D6F7072737577787A7B7D7F
:100C60007E8082838587888A8C8E8F9193959698D3
:100C70009A9C9EA0A2A3A5A7A9ABADAFB1B3B5B7EF
:100C8000BABCBEC0C2C4C6C9CBCDCFD1D4D6D8DBC6
:100C9000DDDFE2E4E7E9EBEEF0F3F5F8FAFDFFFF64
:100CA000AA7F554011241FBECFEFDAE0DEBFCDBFD3
:100CB00004B603FE27C080911F0690912006A091E4
:100CC0002106B09122068730904BA740B04BD1F45B
:100CD00010921F06109220061092210610922206F2
:100CE00014BE84B7877F84BF0FB6F894A89580910F
:100CF0006000886180936000109260000FBEE0E0A9
:100D0000F8E3099512E0A0E0B1E0EAECF9E602C0F0
:100D100005900D92A831B107D9F726E0A8E1B2E01D
:100D200001C01D92AF31B207E1F70E94BB0E0C94D7
:100D3000E3340C940000882339F1682F8CEF860F80
:100D4000813A28F480EB95E00E9486240CC080E272
:100D5000860F883050F4677081E001C0880F6A9573
:100D6000EAF70E94FF260C9406278BE5860F833056
:100D700020F480E090E00C94F924685A673120F464
:100D800080E090E00C94E3240895CF93882309F445
:100D90006DC09CEF980F913AC8F5C82F80913C0127
:100DA0008823E1F08091AB0587FF18C0EC2FE69512
:100DB000E695E695F0E0E055FA4F8281282F30E085
:100DC0004C2F477081E090E002C0880F991F4A9530
:100DD000E2F782239323892B61F412C0E2EBF5E062
:100DE00088EB95E02191C21721F08E179F07D1F76C
:100DF00007C06C2F80EB95E00E9486240E94062796
:100E00006C2F80EB95E00E94AE2413C090E2980F07
:100E1000983090F4877021E030E0A90102C0440FBF
:100E2000551F8A95E2F7CA0190911D06892B809380
:100E30001D06CF910C940627EBE5E80FE33040F454
:100E4000F0E0ED54FE4F808190E0CF910C94F924B6
:100E5000885A873158F4E82FF0E0EE0FFF1FEA546C
:100E6000FE4F80819181CF910C94E324CF9108951E
:100E70001F93CF93DF93CDB7DEB767970FB6F89484
:100E8000DEBF0FBECDBF4B8B5C8B6D8B7E8B8F8B94
:100E9000611110921C0686E09E01235F3F4FD9012D
:100EA000E82F1D92EA95E9F795E0FE017396D901C6
:100EB00001900D929A95E1F79C894E895F897B8913
:100EC0007D879E876F87598B488BF901DE011796C6
:100ED00001900D928A95E1F7CE0107960E9438287D
:100EE00081113EC086E0FE013796DE011196019029
:100EF0000D928A95E1F7FF81E8856A857B8561150A
:100F0000710531F0EF3F31F481E0FF3F19F403C088
:100F100081E001C080E080FD23C02091E80530E041
:100F2000C9010196877099274091190650E08417EE
:100F3000950779F1F983EA837D836C8396E0929F2C
:100F4000D001939FB00D1124A751BA4FFE013196E5
:100F500001900D929A95E1F78093E8050E945A2737
:100F600016E0809119069091E8058917F9F0189F0D
:100F7000C001112487519A4F0E9438288823B1F06C
:100F80008091190690E00196877099278093190641
:100F9000E8CF0E948B2A1092E80510921906E2EE23
:100FA000F5E086E0DF011D928A95E9F767960FB6B6
:100FB000F894DEBF0FBECDBFDF91CF911F91089592
:100FC0003F924F925F926F927F928F929F92AF92D9
:100FD000BF92CF92DF92EF92FF920F931F93CF9326
:100FE000DF93CDB7DEB729970FB6F894DEBF0FBEFB
:100FF000CDBFFC018081918123813481232B31F08D
:101000009F3F31F491E08F3F19F403C091E001C09C
:1010100090E090FD98C67F0185E0DE011196019079
:101020000D928A95E1F7F701228189819A81222325
:1010300049F00E94D027182F682F89819A810E9439
:10104000062A03C00E94D929182F69817A81812F2D
:101050000E94FC258C01F7018281882309F4F1C0EC
:10106000C80182519F45409708F08DC58FEF93E0EE
:101070000E94F2308111EEC0025137EA832E99248A
:101080009394002379F08114F4E09F0609F4E2C000
:10109000C4010E94F230811101C001502FEF821A69
:1010A000920AEFCF1E821F82188619864424439429
:1010B0002AE0322E84010F5F1F4FC4010E94F230DC
:1010C0008E831F82882309F4C5C09FEF980F933049
:1010D00060F48F834E8232E0830E911CC8010E941F
:1010E000F2308887811102C0B5C048018E010A5FC5
:1010F0001F4FF80120812223E9F2213009F04CC072
:101100008181813049F46801F2E0CF0ED11CF801F1
:1011100082810E94B12A0AC0823051F46801F2E053
:10112000CF0ED11CF80182810E94C506860186C0BF
:10113000833049F46801F2E0CF0ED11CF8018281BE
:101140000E949B06F3CF843019F00F5F1F4F76C0CB
:10115000F80122810E5F1F4F80E090E030E02053C5
:1011600031092A30310568F4389EA001399E500DAE
:101170001124C901840F951F0F5F1F4FF8012081B3
:10118000EDCF009709F45AC0EFE9FFE03197F1F78E
:1011900000C000000197F5CFE22FF0E0E859FE4FC4
:1011A0005490822F86958695869590E0FC01E85AAA
:1011B000FE4F64902770712C022E02C075946794C4
:1011C0000A94E2F7F1E06F227724FC01E85BFE4F1E
:1011D000A490B12C022E02C0B594A7940A94E2F711
:1011E00031E0A322BB24FC01E85CFE4FC490D12C6B
:1011F00002C0D594C7942A95E2F781E0C822DD2485
:101200006114710419F081EE0E94C506A114B104A5
:1012100019F086EE0E94C506852D0E94B12AAB28E2
:1012200019F086EE0E949B06672819F081EE0E9455
:101230009B06CD2819F08CE20E94B12A0F5F1F4F48
:1012400058CF0031FFE51F0769F581E00E94362A7B
:101250000E94991B80911A06877009F474C5F701E2
:101260008281882309F46FC58091AC0582FD6BC52E
:1012700082E029960FB6F894DEBF0FBECDBFDF9196
:10128000CF911F910F91FF90EF90DF90CF90BF9083
:10129000AF909F908F907F906F905F904F903F9016
:1012A0000C94422A01312FE51207A1F582E0CECF3E
:1012B000C80190568115904230F0C80190548115B4
:1012C000904108F06FC4C80199278C33910508F04C
:1012D0006BC4FC01EF59FE4F20811F922F939F9307
:1012E0008F93F70180811F928F9381811F928F933B
:1012F00080E591E09F938F931F9288E18F938DE219
:1013000092E09F938F930E94EB310FB6F894DEBF6B
:101310000FBECDBF033F3CE5130759F190F4083DE4
:101320009CE51907E9F0093DECE51E07A1F1073D31
:10133000FCE51F07B1F506E221EE41EE67ED7CE525
:1013400014C0053F2CE5120701F1C8F0063F8CE5FB
:10135000180739F507E225EE46EE66EF7CE505C095
:1013600007E225EE45EE68ED7CE5C7010E941F25EA
:1013700071CF06E221EE40EE63EF7CE5F6CF07E2A7
:1013800025EE44EE64EF7CE5F0CF06E221EE42EE7E
:1013900065EF7CE5EACF08E221E045EE69ED7CE50A
:1013A000E4CFF7018281882309F445C110929F059B
:1013B0000330FDE51F0758F40A3F2CE5120760F4DF
:1013C000C80182509C45449708F01FC105C00136F2
:1013D0003DE5130709F019C10E94B2189093AC05BE
:1013E0008093AB0500318CE5180709F4CAC008F0FA
:1013F00041C00830ECE51E0709F4A4C0F0F4043045
:101400002CE5120709F48CC068F402308CE518074B
:1014100009F482C003301C4509F0E7C08091AB0598
:101420008260E1C00630ECE51E0709F483C008F0D5
:1014300085C08091AB058860D6C00C302CE51207C2
:1014400009F490C068F40A308CE5180709F47EC0EE
:1014500008F084C00E948B2A8091AB058068C3C0CD
:101460000E30ECE51E0709F481C008F086C08091BB
:10147000AB0594C00C3F2CE5120709F47BC038F58E
:1014800004318CE5180709F49AC058F40231ECE5F0
:101490001E0709F47AC008F07EC08091AB058F7BEF
:1014A000A2C00A3F2CE51207F1F108F03FC0053158
:1014B0001C4509F09AC08091AB0582FB222720F9D8
:1014C00091E0922790FB82F990FB83F98CC0011583
:1014D0009DE5190709F467C050F48091AC050E3FF3
:1014E000FCE51F07C1F108F05BC08D7F65C00230CD
:1014F0003DE5130709F471C008F46DC001361D45C0
:1015000009F073C08091AB0584FB222720F991E09C
:10151000922790FB84F967C08091AB05816063C01E
:101520008091AB0516C08091AC0516C08091AC05CA
:10153000826042C08091AB05806155C08091AB054F
:10154000806251C08091AB0580644DC08091AB0535
:101550008860846048C0826081602EC08091AB0545
:101560008E7F41C08091AB058D7F3DC08091AB05E2
:10157000877F39C08091AC0514C08091AB058F7E08
:1015800032C08091AB058F7D2EC00E948B2A809146
:10159000AB058F7728C08091AB05877F8B7F23C0F9
:1015A0008D7F8E7F09C08091AC05982F90959170AA
:1015B0008E7F892B90FB81F98093AC0516C00E9429
:1015C0008B2A8091AB0587FB222720F991E0922797
:1015D00090FB87F908C061E001C060E08EE090E018
:1015E0000E94063102C08093AB056091AB0510915B
:1015F000AC0584E090E00E940631612F82E290E029
:101600000E9406310E948B2A25CE0631FCE51F0779
:1016100021F580911D068A7A91E009F490E090937B
:101620001A02882311F065E301C069E280EB95E0BE
:101630000E94AE240FC00631ECE51E0709F040C041
:1016400080911A02882309F4B1C265E380EB95E02A
:101650000E9486240E940627FDCD0A353DE513072A
:1016600049F158F401159CE51907B1F00E3D1C45F0
:1016700009F042C00E94CE18EDCD0B35FDE51F07E5
:10168000D9F00C351D45C1F58091AC0582FB88274A
:1016900080F991E0892711C00E948B2A3FEF84E3F3
:1016A0009CE0315080409040E1F700C000000E9473
:1016B000FF23D0CD81E001C080E00E945F2A1CC0E2
:1016C00080911D0682720C3CECE51E0709F41DC3D7
:1016D00008F09EC2063C2CE5120709F402C308F08C
:1016E00075C2033C9CE5190709F4F1C208F060C219
:1016F000023C1C4509F4C1C2F701828100811181BD
:10170000882349F0C8010E94D027D82E682FC8012D
:101710000E94062A04C0C8010E94D929D82EB80107
:101720008D2D0E94FC250E942917B82E192F982E66
:10173000F7010281A580A2949FE0A92280911A0658
:101740008770B9F00023A9F0812F807F803421F0C9
:1017500080E28B0D883068F08091AC0582FD09C075
:1017600082E00E94422A80911A068770DD24D39479
:101770008111D12CC12EC2948FE0C8228C2D90E013
:101780008C30910508F0CAC1FC01EA5AFF4F0C9455
:101790008A31812F807F1F70882311F01295107F6E
:1017A0000023B9F0112309F4A7C180E28B0D883022
:1017B00010F0911006C080911D06182B10931D0685
:1017C00005C080911C06182B10931C060E9406274A
:1017D00093C18B2D0E949B06112309F49FC180E2C7
:1017E0008B0D883080F1992071F1109580911C0645
:1017F000182310931C062AC0812F807F1F7080320F
:1018000011F01295107F8B2D992021F0F1E09F1699
:10181000D9F149C08091AC0582FF1BC0002369F05B
:10182000112339F080911D06182B10931D060E947C
:10183000062780E00E94C50671C180E00E949B06D9
:10184000112309F46BC1812F0E94FF260E940627F5
:1018500065C1002381F080911E06AA2051F021E08D
:10186000A21207C0182B181709F458C110931E06AE
:1018700055C1812B10C0AA2021F031E0A31609F434
:101880004DC10E94F92627C0002341F085E08A154A
:1018900008F444C1812F0E94A72A40C194E09A1500
:1018A00008F43CC118C0002349F0AA2099F3F701BD
:1018B000858180FF21C18F708583ECCFAA2059F0EC
:1018C000893309F028C1FFEF27EE33E0F1502040C3
:1018D0003040E1F71EC1812F0E94A02A1FC1812F35
:1018E00086958695837019F0813061F017C10023C9
:1018F00021F08B2D912F937002C080E090E00E9428
:10190000F92412C1002321F08B2D912F937002C076
:1019100080E090E00E94E32407C1812F8370A9F545
:10192000011100C14B2D429546954770440F440F5D
:101930008B2D8F7090E09C01042E01C0220F0A9421
:10194000EAF7B4FE08C08FE090E001C0880F4A9526
:10195000EAF7809501C080E0169516951370123055
:1019600069F088F490917C02113019F0822B892360
:1019700002C0922B892B0E94872AD4C0822B90917F
:101980007C028927F8CF822BF6CF002319F0812F14
:10199000817001C08695882309F4C4C04B2D4295FF
:1019A00046954770440F440F8B2D8F7090E09C013B
:1019B000042E01C0220F0A94EAF7B4FE08C08FE09B
:1019C00090E001C0880F4A95EAF7809501C080E059
:1019D000169516951370123059F078F49091D9023B
:1019E000113019F0822B892309C0922B892B06C054
:1019F000822B9091D902892701C0822B0E94322A22
:101A000091C01F70002339F0812F0E947C2A8B2DFA
:101A10000E94A72A87C08B2D0E94A02A812F0E9496
:101A2000362A80C08B2D92EF991679F1991538F0EE
:101A3000E0EF9E1659F0F1EF9F1611F159C023EF18
:101A4000921651F134EF9316B9F052C0002379F099
:101A500084E08A1508F462C01F7181E090E001C043
:101A6000880F1A95EAF79091D90289271FC095E04F
:101A70009A1508F453C0F0CF8091AC0582FF19C0CD
:101A8000002329F0812F8F7126C00023D9F3812FE5
:101A90008F710E94362A42C0002339F01F7181E005
:101AA00001C0880F1A95EAF701C080E00E94322A2F
:101AB00035C0002399F01F71812F0E947C2A8091EC
:101AC000AC0582FD07C0E8E01E9FC00111248360C1
:101AD00080931A06812F0E947C2A20C081E00E94F8
:101AE000422AF1E0FA15D0F482E00E94422A16C0A0
:101AF000002321F0AA2031F28B2D9CCEAA2039F2AE
:101B0000893349F42FEF37EE83E021503040804095
:101B1000E1F700C000008B2D0E949B0688EF8C0D22
:101B2000843010F40E940F25DD2009F40CC180914F
:101B30001A0680FD08C1F701128285958595859565
:101B40000E947C2AC7010E94E00780911A068595B1
:101B50008595859529960FB6F894DEBF0FBECDBF4B
:101B6000DF91CF911F910F91FF90EF90DF90CF9079
:101B7000BF90AF909F908F907F906F905F904F90AD
:101B80003F900C94362A00318FE5180711F481E05C
:101B900006C001319FE5190709F08ACB82E00E9457
:101BA0007C2A56CBC80191CB20E297CB69E24ECD7F
:101BB000043C2CE5120709F48FC0053C1C4509F0D4
:101BC0009BCD48E25DE261E37DE2A3C0093C9CE578
:101BD000190709F490C070F4073CFCE51F0709F4ED
:101BE00085C0083C1C4509F087CD4CE15DE260E111
:101BF0007DE28FC00A3C3CE5130709F481C00B3C31
:101C00001C4509F079CD42E65BE263E77BE281C0E7
:101C1000013DECE51E0709F488C098F40E3C2CE564
:101C2000120709F47CC008F477C00F3C8CE5180754
:101C300009F478C0003D1C4509F05ECD6EE089E0F6
:101C40007FC0043DECE51E0709F478C060F4023D56
:101C50002CE5120709F46CC0033D1C4509F04CCD7E
:101C600061E088E168C0053D8CE5180709F4F2CA17
:101C70000D351D4509F4EECA3FCD8091920580FFD8
:101C800020C08E7F8093920560919205709193059C
:101C900080919405909195050E94502B0E94D72623
:101CA0008091ED0481608093ED04EFEFF0E722E096
:101CB000E150F0402040E1F700C000000E94CF2A30
:101CC000C9CA81608093920561E0869534C041E97C
:101CD0005DE26AE97DE21DC04AE95DE261E97DE21B
:101CE00018C041E35DE268E27DE213C040E15DE2DD
:101CF0006CE17DE20EC048EF5CE264E07DE209C089
:101D000044E05DE268EF7CE204C043E75BE262E648
:101D10007BE20E94D1269ECA61E081E00CC065E0B2
:101D200082E00EC068E086E00BC064E18FE008C08E
:101D300067E185E105C00E94512D8CCA62E289E10C
:101D40000E94BF2687CA29960FB6F894DEBF0FBE41
:101D5000CDBFDF91CF911F910F91FF90EF90DF905A
:101D6000CF90BF90AF909F908F907F906F905F903B
:101D70004F903F900895CF93DF93CDB7DEB7AE97E6
:101D80000FB6F894DEBF0FBECDBF84B7877F84BF88
:101D90000FB6F894A89580916000886180936000E8
:101DA000109260000FBE90E080E80FB6F894809328
:101DB0006100909361000FBE85B7806885BF85B7CD
:101DC000806885BF8BED94E190931902809318028F
:101DD0000E94FE1E0E941D1F8091E200846080937D
:101DE000E20078948091CF028823A1F01091E9005D
:101DF0001F709091EC00892F817090FD80E8182B66
:101E00001092E9008091E80083FD0E94E41B1F709E
:101E10001093E90082E084BD93E095BD9AEF97BDF1
:101E200080936E0010921B0210921C0210921D02F1
:101E300010921E020E94A626811102C00E949726BF
:101E40000E947A168093000180910001882321F07E
:101E500010924B018BE103C08BE180934B01809387
:101E60004C010E947A1681110E94102F809100016E
:101E700080910001882311F090E001C094E09093DC
:101E8000280284E0891B809327020DE911E051EAC2
:101E9000E52E51E0F52ED8018D918D018F3F11F087
:101EA0000E941217E016F106B1F705EA11E0F801F9
:101EB00081918F018F3F11F00E941217F1E00B3AD0
:101EC0001F07A9F788E0E3E7F2E0DF01282F1D9262
:101ED0002A95E9F7EFE1F2E0DF011D928A95E9F733
:101EE0000E94C318811102C00E94CE1882E090E0C7
:101EF0000E94F23080936A020E94B2189093AC055F
:101F00008093AB050E944119EFE3FCE93197F1F7AB
:101F100000C000000E9441190E947A16882311F027
:101F2000E0E001C0E4E0F0E0ED58FD4F808181FF8A
:101F300008C06FEF7FEF80E090E00E9424310E94A4
:101F4000FF2383E090E00E94F2300E94872A0E94E3
:101F50007A16811102C00E94132F0E947A168111F5
:101F600002C082E001C080E08093650280E8809337
:101F7000DA020E94A42D6DE070E08BEF91E00E94E8
:101F8000BB1B892B09F043C08091650263E070E0C0
:101F900081FD3AC088EF91E00E94BB1B892BB9F507
:101FA0006DE070E088EE91E00E94BB1B892B79F513
:101FB0000E944524DC01CB01805A9541AF4FBF4FB1
:101FC0008093970590939805A0939905B0939A05EF
:101FD000EDEDF2E080E092E0DF019C011D922150E6
:101FE0003040E1F7F093E404E093E3048FEF9FEFD8
:101FF0009093DC028093DB0281E080939C058093C8
:102000009B051092660203C085EF91E0C5CF8091D9
:102010002902811138C00E94C318811104C00E9496
:10202000CE180E94842B88E090E00E94FA306093E2
:1020300092057093930580939405909395058091F4
:10204000ED0483608093ED046E7F71F40E94842B15
:1020500088E090E00E94FA306093920570939305B7
:1020600080939405909395050E94362B0E94D72665
:102070008091920580FF04C060E086950E94512DFA
:1020800081E08093290281E091E09093A305809301
:10209000A205CE0101967C011E019BE0290E311C98
:1020A0008091CF02853009F046C000E112E18091B5
:1020B000CF02853009F03BC08091CF02843031F1EE
:1020C0000E9409261092A605A8E1B0E0E0E40FB650
:1020D000F894A895A09360000FBEE093600083B7CA
:1020E000817F846083BF83B7816083BF7894889544
:1020F00083B78E7F83BF0FB6F894A8958091600058
:10210000886180936000109260000FBE8091CE02C3
:10211000882309F4CCCF0E944119E3E7F2E08191D2
:1021200081112AC422E0EB37F207C9F7C0CF0E9421
:102130008B2A0E940F250E944119B82E81110E94FE
:10214000452483E792E09CA78BA7EBE6F2E0DC0155
:1021500000E010E0902EAD9081918A2549F1C12CCC
:10216000DD24D394982F9D21F1F00E947A168823C4
:1021700099F0C9A29AA2AD2081E009F480E08BA376
:102180000E9451248160782F9DA38CA349A15AA15C
:102190006BA18DA10E943807F801E559FD4F8081A0
:1021A000D826D0821AC0C394DD0C96E0C912DACFCB
:1021B0000F5F1F4F0830110569F68FEF8EA38FA3B5
:1021C00018A60E9451248160782F9AA789A74EA152
:1021D0005FA168A58AA50E9438078091EC04882336
:1021E00009F4A9C08091EB04E0919205E695E81B03
:1021F000E093E704823059F4F0E0EC5EFD4FE491A7
:102200000E2F10E049E3842E43E2942E45C0863021
:1022100059F4F0E0EF5EFD4FE4910E2F10E039E24B
:10222000832E33E2932E38C0893061F4E695F0E0D6
:10223000E25FFD4FE4910E2F10E02BEE822E22E2A2
:10224000922E2AC08F3061F4E695F0E0E55FFD4FF5
:10225000E4910E2F10E09CE4892E92E2992E1CC08E
:10226000853159F4F0E0E85FFD4FE4910E2F10E066
:1022700083EC882E81E2982E0FC0883139F000ED72
:1022800017E0B5EB8B2EB0E29B2E06C008E210E003
:10229000ADE28A2EA1E29A2E8091E804882361F0B3
:1022A0001092E8040E9438199093E6048093E504A4
:1022B0001092EA041092E9040E943819E091E504B2
:1022C000F091E6049C012E1B3F0B2F3F3F4798F5F2
:1022D00020912C022223B1F010922C0220912A028C
:1022E00030912B02821B930B8F3F9F4758F4205D48
:1022F0003A4830932B0220932A028091ED048860A3
:102300008093ED04C090E904D090EA040E0F1F1FE3
:102310001093E6040093E50485EE94E0F40109953A
:102320008091E9049091EA04892B29F4CD2819F0D1
:1023300081E080932C0280919C05882309F455C18B
:1023400080916702909168020E943624C29708F437
:1023500049C00E94512490936802809367028DEDDA
:1023600092E09093E4048093E3040E947A16882319
:10237000A9F183E392E00E948B1BE091D9028E2F9A
:1023800090E08F309105A8F4FC01EE59FF4F0C94BA
:102390008A318BE292E008C085E292E005C08FE1CD
:1023A00092E002C088E192E00E948B1B81E00E94D3
:1023B0004926EDE2F2E001900020E9F78F0101509B
:1023C0001109FDE2CF2EF2E0DF2EC016D10650F447
:1023D000D6018D916D010E940B1BF7CF8BE392E02C
:1023E0000E948B1B80919C05882309F4E3C02091F7
:1023F000DB023091DC022115310509F4DBC080914C
:1024000066028111D7C0482E512CCC24C394D12C04
:10241000082E02C0CC0CDD1C0A94E2F7A9014C2165
:102420005D21452B11F48F5FEECF909165029201F3
:1024300075E0220F331F7A95E1F790FD12C0829567
:10244000880F807680930F01220F232F221F330BDA
:10245000319520931201815E809310011092130137
:1024600012C055E0369527955A95E1F7220F220FB5
:10247000220F20930F0110921201295F2093100167
:1024800083E08093130124E630E047E050E06DE004
:1024900071E088E70E945B2E892B09F08BC0809148
:1024A000650280FD23C0C20145E0880F991F4A954F
:1024B000E1F7AC0143525D4F04E610E020E230E06A
:1024C00060E488E70E94822E892B09F073C00E9485
:1024D0002326C094D0948091DB029091DC02C82224
:1024E000D922D092DC02C092DB0264C080E2E5E433
:1024F000F2E0DF011D928A95E9F735E0440C551CA6
:102500003A95E1F7EFEAF1E0FEA7EDA76BEA71E09B
:10251000ADA5BEA58D91BEA7ADA7FB019191BF0151
:10252000A201490F511D43525D4F90E08B5B9D4FBF
:10253000FC0127E0922E9F01281B390B772473940E
:1025400001C0770C2A95EAF78A01812CD801AD9059
:102550008D01A720292D28192770622E022E000C2C
:10256000330BBA2D01C0BB0F6A94EAF76B2E31957D
:10257000219531092770332701C0A6942A95EAF7DF
:102580006A28A0806A286082839428E08212DECFC5
:102590009A9431963FEF9312CECF8DA59EA5835B83
:1025A000914009F0B5CF04E610E020E230E045E4C8
:1025B00052E086CF80919B058823B9F00E94452484
:1025C00000919705109198052091990530919A05F1
:1025D000DC01CB01801B910BA20BB30B8F3F9F4FF4
:1025E000AF4FBF4710F40E940926B1100E94232666
:1025F0000E940F2590916902891721F00E940F25F2
:10260000809369028091CF02843009F049CD83E044
:102610008093E9008091E80082FF42CD8091E8003C
:1026200085FF23C00E94552081111DC080E2C82E65
:10263000D12C8E010F5F1F4F09C08091F100D8018E
:102640008D938D01B1E0CB1AD10869F08091E8003B
:1026500085FDF3CF8091E8008B778093E8000E949E
:102660005520882399F391E001C090E08091E80023
:102670008B778093E800992309F412CDE9818E2F9E
:1026800090E0FC013197E331F10508F04DC1EF58BE
:10269000FF4F0C948A311A8289E0A7C08A81823068
:1026A00009F480C1833051F0813009F03DC10E94AE
:1026B00045249B838C837D836E8338C1FE013396D2
:1026C000ABA5BCA58D91BCA7ABA781932E163F06E9
:1026D000B9F72CC18A81823009F026C16B817C81D7
:1026E0008D819E810E94903186E290E024C04C81D1
:1026F0006B818A810E94D6259D835BC10D811E81DD
:102700001027012710278C81CB809A81BCE0CB9EBB
:1027100060011124E0E69E9FC00CD11C1124C80E5C
:10272000D11CC80ED11C612FC60187960E940631AC
:10273000602FC60188960E940631F8C00E94A2252B
:10274000F5C08A818138B1F050F4803809F0EEC0CC
:1027500020E04B81609194058091930523C08238DD
:10276000E9F0833809F0E2C020E0409195056C81E2
:102770008B8118C060E08B810E94512D8B8181116B
:1027800003C00E943A2DD2C080919205816080934F
:10279000920560E086950E94512DC8C08B81809380
:1027A0009605C4C00E944F2CC1C08A81813899F01F
:1027B00030F4803809F0BAC08091950516C082388F
:1027C00091F0833809F0B2C0809193058B8380919A
:1027D00094058C83ABC08091920580FF02C08695E2
:1027E00004C080E002C0809196058B839FC06091F9
:1027F00092057091930580919405909195050E94A2
:10280000502B94C080E14DC082E08A8389E5EDCFF2
:102810000A811B81102701271027AC80B12C67018A
:10282000C80189559E4F96012E193F092A153B056F
:1028300008F07CC00935F2E01F0730F40E94F23046
:10284000D60114968C9302C0F60114820F5F1F4FBD
:10285000FFEFCF1ADF0AE4CF0A811B81102701277F
:102860001027AC80B12C6701C80189559E4F960195
:102870002E193F092A153B0508F058C0093522E0FA
:10288000120728F4D60114966C910E9406310F5F4E
:102890001F4FBFEFCB1ADB0AE7CF0E94922546C03D
:1028A00084E08A8343C00A811B81102701271027F7
:1028B000AC80B12C6701C801879696012E193F099B
:1028C0002A153B0598F50038E1E01E0730F40E9418
:1028D000F230D60114968C9302C0F60114820F5F79
:1028E0001F4FFFEFCF1ADF0AE6CF0A811B811027A7
:1028F00001271027AC80B12C6701C801879696018B
:102900002E193F092A153B0588F4003821E01207EB
:1029100028F4D60114966C910E9406310F5F1F4F68
:10292000BFEFCB1ADB0AE9CF8FEF89838091CF020B
:10293000843009F0B5CB1091E9001F709091EC0044
:10294000892F817090FD80E8182B82E08093E90048
:102950008091E80080FF0CC040E050E060E270E051
:10296000C7010E9488208091E8008E778093E8005C
:102970001F701093E90094CB09BD19BD09B400FE86
:10298000FDCF8091D8008F7D8093D8008091E000AA
:1029900082608093E0008091E00081FDFCCF0E9486
:1029A0008B2A85CB86E290E00E94F2301B821C824B
:1029B0001D828E83BBCF80E008959091AB0592FF7E
:1029C0000DC0282F2871283019F4877F846006C035
:1029D000282F2471243011F48B7F886093FF0DC061
:1029E000282F2871283119F4877E846106C0282F8A
:1029F0002471243111F48B7E88612091AC0520FF75
:102A00000DC0382F3871383019F4877F816006C0C7
:102A1000382F3171313011F48E7F886021FF0DC065
:102A2000282F2871283119F4877E816106C0282F4C
:102A30002171213111F48E7E886194FD877E089585
:102A4000AF92BF92CF92DF92EF92FF920F931F93BC
:102A5000CF93DF937C015B016A018091A9028A30E8
:102A600018F001E010E002C00AE010E0C1E0D0E0A0
:102A7000F894B501C701F60109957894811115C044
:102A800021960C171D0794F0CC9F9001CD9F300D1F
:102A9000300D112480E090E045E34A95F1F7000005
:102AA000019682179307C1F7E3CF81E0DF91CF91C1
:102AB0001F910F91FF90EF90DF90CF90BF90AF905C
:102AC0000895CF93DF93CDB7DEB728970FB6F8946C
:102AD000DEBF0FBECDBF85E0E2E9F5E0DE01119675
:102AE00001900D928A95E1F78091EB049091EC04AE
:102AF000A091ED048E839F83A88728854091A5022D
:102B00005091A6026091A7027091A8023FB7F89475
:102B10008091A7059091A805A091A905B091AA055B
:102B20003FBF841B950BA60BB70B84369105A105FF
:102B3000B10510F4222329F18091350190913601DD
:102B40008C569D4F4091340150E04930510510F0B2
:102B500048E050E0BE016F5F7F4F0E94E23183E0AA
:102B600090E00E941D30892B11F080E00DC00E9482
:102B700045246093A5027093A6028093A7029093C8
:102B8000A8021092ED0481E028960FB6F894DEBFFB
:102B90000FBECDBFDF91CF910895EF92FF921F93AB
:102BA000CF93DF9300D000D01F92CDB7DEB77B016B
:102BB00080E090E00E941D30892B09F065C04091B3
:102BC000190150E04115510511F041E050E06091CC
:102BD0001A0170911B016C567D4FCE0105960E9423
:102BE000E23140918C0250918D0260918E02709181
:102BF0008F022FB7F8948091A7059091A805A09116
:102C0000A905B091AA052FBF841B950BA60BB70B86
:102C100084369105A105B10538F485E992E00E945A
:102C2000A41B9D81891791F181E090E00E941D30E5
:102C3000892BA1F44091230150E04530510510F05B
:102C400044E050E060912401709125016C567D4F65
:102C5000CE0101960E94E23111E001C010E085E949
:102C600092E00E94A41B91E02D81281390E019238B
:102C700041F10E94452460938C0270938D028093F1
:102C80008E0290938F020FC010E001C011E080917E
:102C9000950290919602A0919702B0919802898333
:102CA0009A83AB83BC83112361F089819A81AB81C4
:102CB000BC818093880290938902A0938A02B0938A
:102CC0008B028091880290918902A0918A02B09132
:102CD0008B02F70180839183A283B383812F0F90AE
:102CE0000F900F900F900F90DF91CF911F91FF9059
:102CF000EF90089580918702811118C08091D800CB
:102D000080618093D8008AE18A95F1F700C08091B4
:102D1000D90080FD02C082E001C081E0809387027B
:102D2000823021F40E94FE1E1092CF0281E0909129
:102D30008702913009F080E008950F931F930E945D
:102D40007A16882321F01F910F910C9445240E943C
:102D5000452400911B0210911C0220911D0230910C
:102D60001E02600F711F821F931F1F910F91089504
:102D7000CF93DF9300D000D0CDB7DEB74091900263
:102D80005091910260919202709193022FB7F89442
:102D90008091A7059091A805A091A905B091AA05D9
:102DA0002FBF841B950BA60BB70B84369105A1058D
:102DB000B10580F10E949D16DC01CB010296A11D98
:102DC000B11D89839A83AB83BC8380912B01909141
:102DD0002C018C569D4F40912A0150E04530510501
:102DE00010F044E050E0BE016F5F7F4F0E94E2317F
:102DF00082E090E00E941D30892B11F080E00BC032
:102E00000E944524609390027093910280939202F5
:102E10009093930281E00F900F900F900F90DF91AD
:102E2000CF910895F894E82FE295EF70F0E031A18A
:102E3000282F2F7081E090E001C0880F2A95EAF7D3
:102E4000982F9095932391A392A1892B82A3789494
:102E50000895CF93DF938238910569F1B0F48133FF
:102E6000910509F46FC048F48932910509F465C0F1
:102E70008A32910509F46BC08AC08533910509F443
:102E800057C089339105B9F082C0833E910571F135
:102E900038F4803E9105B1F0823E910511F177C082
:102EA000863E9105B9F1873E9105C9F1843E9105B1
:102EB00009F06DC024C02091AB0520FD53C021FD59
:102EC00051C065C08091AB0580FD46C08091AC05C6
:102ED00080FF48C08091AB0584FD3FC183EE90E048
:102EE0003EC18091AB0582FF3AC0F4CF8091AB0523
:102EF00082FD35C08091AC0580FD34C0EBCF809160
:102F0000AC0581FF35C08091AB0584FD26C187EEFD
:102F100090E025C18091AB0583FF27C0F4CF80915D
:102F2000AB0583FD22C08091AC0581FD21C0EBCFB4
:102F30008091AB0585FD1FC021C08091AB0585FD4B
:102F40001DC019C08091AB0586FD1BC01DC08091BE
:102F5000AB0586FD19C015C089E390E000C182EE83
:102F600090E0FDC080EE90E0FAC086EE90E0F7C001
:102F700084EE90E0F4C089E290E0F1C085E390E057
:102F8000EEC08AE290E0EBC081E390E0E8C08115FA
:102F900032E5930708F069C0811541E5940728F0F0
:102FA000982F8827816F906ADAC0883E910568F56E
:102FB000803E910508F0D3C0883A9105B8F4853A6F
:102FC000910548F0855AE82FF0E0ED54FE4F8081DE
:102FD00090E09064C4C08130910509F4BBC008F44E
:102FE000BCC08430910508F4B8C0B9C08F3B9105CE
:102FF00008F0B3C0885AE82FF0E0EE0FFF1FEA5444
:10300000FE4F808191819464AAC0811520E59207CA
:10301000F0F09C0174E0369527957A95E1F7922FB0
:103020009370482F437021E030E002C0220F331F1D
:103030004A95E2F73C68392B8F70982F96959695B4
:1030400040E2949FC0011124822B932B88C08115EC
:1030500030E4930718F09F70906A81C09C013A9504
:1030600021153F4108F47BC078C0EC01C11586E50D
:10307000D807E8F5C11525E5D20748F08C2F0E9446
:10308000DD148F7190E0982F8827906268C0C11579
:1030900034E5D30728F09C2F8827846F906A5FC09F
:1030A000AE01437055272C2F26952695C115D34583
:1030B00078F481E090E002C0880F991F4A95E2F70A
:1030C00040E2249F90011124822B932B9C6847C0DF
:1030D00081E090E002C0880F991F4A95E2F740E234
:1030E000249F90011124822B932B9A6838C0C1151C
:1030F0002AE5D207F8F4C11539E5D30790F08C2FF3
:103100008F700E94DD1494E0D695C7959A95E1F7EB
:10311000CF70D0E0DC2FCC27D0699E01282BC901CD
:103120001EC0C11548E5D407C0F09C2F8827806FCA
:10313000906A15C0CE0190568115904270F48D2F83
:103140008F710E94DD14282F2F71CE019927906274
:10315000922B05C081E090E002C080E090E0DF911A
:10316000CF910895CF9384E090E00E94F230C82F71
:1031700082E290E00E94F2302C2F30E0A901582B1F
:10318000CA01CF91089580E090E00E940031893E0D
:103190009E4F11F40C94A62680E0089569EE7EEF10
:1031A00080E090E00E94243160E082E090E00E94A4
:1031B000063160E083E090E00E94063110927C02CC
:1031C00060E084E090E00E94063160E082E290E0FE
:1031D0000E94063160E085E090E00E94063160E0E8
:1031E00086E090E00E9406316FEF87E090E00E9459
:1031F000063140E050E0BA0188E090E00E941831CA
:1032000060E08DE090E00E94063140E050E0BA01BD
:1032100088E190E00E94183160E087E190E00E9430
:10322000063140E050E0BA018CE190E00E94183194
:1032300060E070E080E290E00E94243140E050E0E5
:10324000BA0188E190E00E94183180E00E9479265E
:103250000E94972640E050E0BA018FE090E00E9483
:10326000183140E050E0BA0183E190E00C9418314D
:103270000E947A1681110C9451240E949D16CB0154
:1032800008957F928F929F92AF92BF92CF92DF92DA
:10329000EF92FF920F931F93CF93DF93CDB7DEB7DB
:1032A0002C970FB6F894DEBF0FBECDBFAE014F5FB7
:1032B0005F4F7A0188E0DA011D928A95E9F70DE9FE
:1032C00011E06A0181EAA82E81E0B82E8824839457
:1032D000912CF80180818F3F09F441C0F894E82FC8
:1032E000E295EF70F0E021A18F70A40102C0440FBD
:1032F000551F8A95E2F7CA01922F982B91A392A1AC
:103300008095892382A3789400C0E5EAF1E0712CCE
:1033100031E021912F3F89F0A22FA295AF70B0E04C
:1033200090968C9190E02F7002C0959587952A9584
:10333000E2F780FD02C0832F01C080E0782A330FBE
:1033400051E0EB3AF50729F7D8018C918F3F11F046
:103350000E941217B0EABA95F1F7F60170820F5F7A
:103360001F4FFFEFCF1ADF0AA016B10609F0B1CF49
:1033700048E050E0B7018FE192E00E94D5318C0126
:10338000892B41F088E0F701AFE1B2E001900D92A6
:103390008A95E1F7F09028020115110549F081E0C6
:1033A00080937F020E94512490937E0280937D023D
:1033B00080917F028823B9F080917D0290917E02F6
:1033C0000E943624059778F0AFE1B2E0EF2DF0E0EF
:1033D000ED58FD4F83E292E02D9121938A179B07D0
:1033E000D9F710927F020115110509F0FDC00E9466
:1033F0007A16E0912802882309F477C019861A8684
:103400001B861C860E2F10E00D581D4F8091A902BF
:103410008A3058F44DEC55E1BE01675F7F4FC8011B
:103420000E9420158823A1F10AC08091800290910A
:1034300081020E943624843F914060F73AC048EBF5
:1034400056E1BE01675F7F4FC8010E9420158823A7
:10345000F9F041E655E1BE01675F7F4FC8010E9468
:1034600020158823A9F01092A9028091270290E0EC
:1034700044E050E0BE01675F7F4F8D589D4F0E9432
:10348000D53121E020938602892B01F500E0AEC002
:103490008091A9028F3F19F08F5F8093A9028091DC
:1034A000A9028A3010F30E945124909381028093E4
:1034B000800280918602882349F3FE01399684E0D8
:1034C000DF011D928A95E9F710928602E0912702AA
:1034D000F0E0ED58FD4F89859A85AB85BC858083EA
:1034E0009183A283B38301E081C0F0E0ED58FD4FEA
:1034F000F89484E0A5E9B2E001900D928A95E1F795
:1035000085E992E00E94A41B809394027894F89439
:10351000C0909902D0909A02E0909B02F0909C0299
:103520008091820290918302A0918402B0918502E1
:10353000C816D906EA06FB06D1F0C0928202D092E4
:103540008302E0928402F09285020E947A16811131
:103550000EC00E944524C61AD70AE80AF90AC0928A
:103560001B02D0921C02E0921D02F0921E0278947F
:10357000F8948091A4028823A9F180FF10C0809163
:103580009D0280FF0AC090919205916090939205F0
:1035900060E086950E94512D02C00E943A2D8091D4
:1035A000A40281FF09C020E04091A00260919F0227
:1035B00080919E020E944F2C8091A40282FF09C03C
:1035C0008091A302882319F00E94DE2602C00E9487
:1035D000D7268091A40283FF03C081E08093E80492
:1035E0001092A402789402C001E010E0802F2C9683
:1035F0000FB6F894DEBF0FBECDBFDF91CF911F9104
:103600000F91FF90EF90DF90CF90BF90AF909F9081
:103610008F907F900895CF93DF938A3011F481E0EB
:1036200003C08D3029F480E0DF91CF910C944926BE
:10363000682F8091E3049091E40426E0FC01ADED55
:10364000B4E001900D922A95E1F7603E30F026E05B
:10365000FC0111922A95E9F70AC0F6E06F9FB001CC
:10366000112465527C4F46E050E00E94E930C09141
:10367000E304D091E40446E050E0BE018DED94E017
:103680000E94D531892B49F19E012D5D3240A9015F
:1036900085E0569547958A95E1F781E090E0BC0179
:1036A00002C0660F771F4A95E2F74091DB02509106
:1036B000DC02462B572B2B5F3F4F65E03695279555
:1036C0006A95E1F702C0880F991F2A95E2F7842BCB
:1036D000952B9093DC028093DB029E01275D3240A4
:1036E0004091DA02642F70E0C9010E94D530481B76
:1036F000463010F4240F311D211582E0380710F0F8
:1037000020E030E023523D4F3093E4042093E30463
:10371000DF91CF910895CF93DF93EC01FE01849167
:10372000882321F00E940B1B2196F8CFDF91CF91C7
:1037300008958091D902982F9670963011F4886080
:1037400001C0877F0C94322AFC01AC014C5F5F4FB3
:103750008FEF91E32191822728E030E087FF03C0BB
:10376000880F892701C0880F21503109B9F7E41764
:10377000F50781F70895EF92FF920F931F93CF9370
:10378000DF93EC017B0164E670E088E70E94AA2DDC
:103790008C01EC0EFD1ECE15DF0561F017FD0AC091
:1037A000FE01849164E670E00E942B2E8C0121962C
:1037B000892B89F30E94AF2EC801DF91CF911F9111
:1037C0000F91FF90EF9008951F93CF93DF93CDB7A4
:1037D000DEB7AA970FB6F894DEBF0FBECDBFE1EDFE
:1037E000F2E089ED92E02091F10021938E179F077E
:1037F000D1F78091D202833009F463C030F4813074
:1038000071F0823009F49DC0B4C08A3009F489C0D7
:103810008B3009F46EC0893009F0ABC020C08091B4
:10382000D102813A09F0A5C08091E800877F80939A
:10383000E8008091D5029091D602892B21F460E2B4
:103840008DEA92E003C060E080E090E070E00E94CA
:10385000A1238091E8008B778093E8008AC0809153
:10386000D102813209F085C08091D5029091D602B3
:10387000009719F0029709F07CC08091E800877FDB
:103880008093E8008091E80082FD05C08091CF021E
:103890008111F8CF6EC02091F3008091F20090E08A
:1038A000922B029731F48091F100813011F0863033
:1038B00021F48091F1008093AC028091E8008B7735
:1038C00054C08091D102813A09F053C08091D50251
:1038D0009091D602892B09F04CC08091E800877F37
:1038E0008093E8008091E80080FFFCCF80913C014C
:1038F00037C08091D1028132E1F58091D50290915B
:10390000D602892BB1F58091E800877F8093E8008B
:103910000E944D238091D30280933C010E948B2A08
:1039200028C08091D102813221F58091E800877F03
:103930008093E8000E944D238091D4028093AB02D3
:1039400018C08091D102813AA1F48091E800877F6C
:103950008093E8008091E80080FFFCCF8091AB026B
:103960008093F1008091E8008E778093E8000E94B8
:103970004D238091E80083FFDFC18091D1029091B7
:10398000D202492F50E04A30510508F0D5C1FA0162
:10399000EC57FF4F0C948A31803821F0823809F0BF
:1039A000CBC108C08091CD029091CE02992389F0BD
:1039B00082600FC08091D5028F70873008F0BCC143
:1039C0008093E9008091EB0085FB882780F91092B5
:1039D000E9009091E800977F9093E8008093F100D0
:1039E0001092F10070C1282F2D7F09F0A5C1882306
:1039F00019F0823061F0A0C18091D302813009F0CA
:103A00009BC1933009F080E08093CE022EC080915C
:103A1000D30281112AC08091D5028F702FEF280F19
:103A2000263008F089C18093E9002091EB0020FF47
:103A30001CC0933021F48091EB00806214C09091FF
:103A4000EB0090619093EB0021E030E0A90102C00F
:103A5000440F551F8A95E2F74093EA001092EA005E
:103A60008091EB0088608093EB001092E9008091D8
:103A7000E800877F8093E8000E944D235DC181119B
:103A80005BC11091D3021F778091E3008078812B76
:103A90008093E3008091E800877F8093E8000E9494
:103AA0004D238091E80080FFFCCF8091E300806887
:103AB0008093E300111102C082E001C083E0809393
:103AC000CF023AC18058823008F036C12091D3022B
:103AD0003091D4022C3D53E0350779F583E08A8399
:103AE0008AE289834FB7F894DE01139620E03EE026
:103AF00051E2E32FF0E050935700E49120FF03C020
:103B0000E295EF703F5FEF708E2F90E0EA3010F09B
:103B1000C79601C0C0968D939D932F5F243149F7BE
:103B20004FBF8091E800877F8093E8006AE270E0F1
:103B3000CE0101960E94A123B4C08091D50290913C
:103B4000D602432F552743305105A9F068F4413080
:103B5000510509F400C14230510509F0EDC08BE573
:103B600090E0EAE4F3E04BC04132510529F14232E2
:103B7000510589F1E1C0C901992781309105A1F072
:103B800058F0029709F0D8C0E7EBF3E0E4918E2FEC
:103B900090E0E7EBF3E030C0E7EDF3E0E4918E2F47
:103BA00090E0E7EDF3E028C0E5ECF3E0E4918E2F40
:103BB00090E0E5ECF3E020C08330910508F0BCC054
:103BC000880F991FFC01E151FE4F0190F081E02D1B
:103BD00089E090E014C08330910508F0ADC0FC018D
:103BE000EE0FFF1FE751FE4F0190F081E02DDC0149
:103BF000AA51BE4F8C9190E0009709F49DC020918E
:103C0000E800277F2093E8002091D7023091D80266
:103C10002817390708F4C90140E0009789F120917D
:103C2000CF02222309F43DC02530D9F12091E800CC
:103C300023FD37C02091E80022FD2FC02091E8002D
:103C400020FFEBCF4091F3002091F20030E0342BC5
:103C5000009759F02830310540F444914093F10029
:103C6000319601972F5F3F4FF3CF41E02830310568
:103C700009F040E02091E8002E772093E800CDCFB6
:103C80004111CDCF0AC08091CF02882351F08530F9
:103C900041F08091E80083FD04C08091E80082FF3C
:103CA000F2CF8091E8008B778093E80045C08038A0
:103CB00009F042C08091E800877F8093E8008091FE
:103CC000D0028093F1008091E8008E77D3CE8111ED
:103CD00033C08091D3029091D4029927029764F562
:103CE0008091E800877F8093E8001091D3021093C1
:103CF000D0020E944D23111106C08091E30087FD80
:103D000002C081E001C084E08093CF0242E061EC18
:103D100081E00E946C2342E261EC84E00E946C230B
:103D200042E261EC82E00E946C2342E260EC83E0BC
:103D30000E946C238091CF028091E80083FF10C025
:103D40008091E800877F8093E8008091EB0080629B
:103D50008093EB0005C082E190E0E5EAF3E04FCF0D
:103D6000AA960FB6F894DEBF0FBECDBFDF91CF91FC
:103D70001F9108951F920F920FB60F9211242F9347
:103D80003F934F935F936F937F938F939F93AF93E3
:103D9000BF93CF93DF93EF93FF93C091E900CF7070
:103DA0008091EC00D82FD17080FDD0E81092E9000E
:103DB0008091F000877F8093F00078940E94E41B4C
:103DC0001092E9008091F00088608093F000CD2B84
:103DD000CF70C093E900FF91EF91DF91CF91BF9138
:103DE000AF919F918F917F916F915F914F913F9193
:103DF0002F910F900FBE0F901F901895E8EDF0E0F7
:103E000080818E7F80831092E2001092DA001092FF
:103E1000E100A0EEB0E08C9181608C9380818F777F
:103E2000808319BCA7EDB0E08C918E7F8C9380814C
:103E30008F7E80831092AA020895CF92DF92EF9234
:103E4000FF920F931F93CF93DF93C8EDD0E088814B
:103E50008F7E8883E7EDF0E080818160808384E05D
:103E600082BF81E08093AA0288818E7F888302EEE0
:103E700010E0F80110821092DA0081EEC82ED12CE9
:103E8000F601108288818F77888388818068888393
:103E900088818F7D888319BC1092CF021092D00246
:103EA0001092CE021092CD0290EEE92EF12CF70185
:103EB00080818B7F808388818160888342E060E09D
:103EC00080E00E946C23F60180818E7F8083F80160
:103ED000808181608083808188608083F701808118
:103EE0008E7F8083888180618883DF91CF911F914D
:103EF0000F91FF90EF90DF90CF9008951F920F9257
:103F00000FB60F9211242F933F934F935F936F93AC
:103F10007F938F939F93AF93BF93EF93FF93809182
:103F2000E10082FF09C08091E20082FF05C080911C
:103F3000E1008B7F8093E1008091DA0080FF2AC04E
:103F40008091D80080FF26C08091DA008E7F809318
:103F5000DA008091D90080FF18C080E189BD82E13C
:103F600089BD09B400FEFDCF81E08093CF0280912E
:103F7000AA0281110FC00E94FE1E0E941D1F809187
:103F8000E20084608093E20005C019BC1092CF0269
:103F90001092AA028091E10080FF17C08091E20098
:103FA00080FF13C08091E2008E7F8093E2008091B9
:103FB000E20080618093E2008091D800806280936B
:103FC000D80019BC85E08093CF028091E10084FF86
:103FD00030C08091E20084FF2CC080E189BD82E185
:103FE00089BD09B400FEFDCF8091D8008F7D8093FC
:103FF000D8008091E1008F7E8093E1008091E20003
:104000008F7E8093E2008091E20081608093E200E5
:104010008091D002882311F084E007C08091E300F2
:1040200087FD02C081E001C083E08093CF028091D0
:10403000CF028091E10083FF27C08091E20083FFDF
:1040400023C08091E100877F8093E10082E080932C
:10405000CF021092D0028091E1008E7F8093E10028
:104060008091E2008E7F8093E2008091E200806187
:104070008093E20042E060E080E00E946C23809147
:10408000F00088608093F000FF91EF91BF91AF91B5
:104090009F918F917F916F915F914F913F912F9160
:1040A0000F900FBE0F901F9018952091E400309153
:1040B000E50095E64091EC00842F817040FF23C01D
:1040C0008091E80080FD1DC08091CF02882399F087
:1040D000853099F08091EB0085FD11C04091E4009E
:1040E0005091E5002417350729F3915011F09A01FA
:1040F000E1CF84E0089582E0089583E0089581E0AF
:10410000089580E008954091E80042FFDDCF0895D2
:10411000EF92FF920F931F93CF93DF937C018B015C
:104120000E945520811119C0E70101151105A1F068
:104130008091E80085FD0AC08091E8008E77809329
:10414000E8000E945520882381F307C0899180935D
:10415000F10001501109E9CF80E0DF91CF911F916B
:104160000F91FF90EF90089508950895089580911C
:10417000AC0208958093AD057093AF056093AE05D2
:104180008091CF028430F9F48093E9008FEF909111
:10419000E800815095FD06C095ED9A95F1F7000075
:1041A0008111F5CF8091E80085FF0DC040E050E01F
:1041B00063E070E08DEA95E00E9488208091E8003D
:1041C0008E778093E8000895BC0184E00C94BA20B7
:1041D000BC0183E00C94BA20CF93DF9320913C0183
:1041E000222339F02091AB0527FF03C060E224E0D1
:1041F00002C068E021E02093E9002FEF3091E80051
:10420000215035FD06C035ED3A95F1F7000021113A
:10421000F5CF2091E80025FF1DC0EC0180913C0105
:10422000811105C040E050E068E070E003C070E03C
:1042300040E050E0CE010E9488208091E8008E7717
:104240008093E80080E2FE01ADEAB2E001900D92B9
:104250008A95E1F7DF91CF9108958F929F92AF9267
:10426000BF92CF92DF92EF92FF920F931F93CF9363
:10427000DF938C01FC014481C42FD0E09E01DE015C
:104280000E949F319B01AC010E94B5316B017C0102
:10429000E0E2F0E0EC1BFD0BA5E5B0E09B01AC011A
:1042A0000E94B5314B015C019F01DF010E949731F3
:1042B0009B01AC010E94C0319B01AC012C0D3D1D46
:1042C0004E1D5F1DC501B4010E946831C22FD22F5F
:1042D0002A3228F4F3E02F9F900111240DC025E528
:1042E00030E02C1B3109C901880F991F280F391F95
:1042F00037FF02C02F5F3F4F35952795C22FC095DE
:10430000F12C85E5E82EED1A80914F01F816E0F4C6
:10431000F1FC02C08E2D01C08D2F90914D012F2DEB
:1043200030E0290F311DA901440F551F240F351FFF
:1043300020513B4F4C2FC93708F048E76091940556
:104340000E949C2BF394E0CF0E94CF2AF801848135
:10435000811102C091E003C0803219F49FEF909365
:104360004A0190914A01890FF8018483DF91CF912E
:104370001F910F91FF90EF90DF90CF90BF90AF9083
:104380009F908F9008951F93CF93DF93EC018C81C2
:10439000811109C081E08C831092EF0492E0909328
:1043A00049018093480180914D0190914E018917F8
:1043B00070F4E82FF0E09F01220F331FE20FF31F8C
:1043C000E051FB4F1182108212828F5FF0CF10E01C
:1043D00060914F011617D8F5E12FF0E070E0CF01A2
:1043E0000E94543120914D01820F2091EF04022E42
:1043F000000C330B90E0E217F307E4F02091490141
:10440000022E000C330B2E173F07A4F09C01220F45
:10441000331F820F931F9C0120513B4F4091950504
:10442000493708F048E760919405809193050E9410
:104430009C2B0BC0FC01EE0FFF1F8E0F9F1FFC017A
:10444000E051FB4F1182108212821F5FC1CF0E9488
:10445000CF2A809148012091EF04280F2093EF0488
:1044600090914901980F9093490119165CF4022E1E
:10447000000C330B40914F0150E04150510924177B
:10448000350734F0819580934801813009F41C820E
:10449000DF91CF911F9108957F928F929F92AF925B
:1044A000BF92CF92DF92EF92FF920F931F93CF9321
:1044B000DF93EC018A8180FF03C0BB24BA9402C061
:1044C000BB24B3948C8181110DC081E0B81206C069
:1044D00080914F0181508093EE0402C01092EE044F
:1044E00081E08C83A12C46E3742E80904F01A814A8
:1044F00008F044C080914D01CA2CD12C8601080FD0
:10450000111DC801880F991F080F191F00511B4F5B
:10451000F80111821082128234E0E32EF12C912CEA
:104520008091EE04890D87332CF0672D0E9446316F
:10453000892F02C087FD880D082E000C990BC81624
:10454000D906A9F4809195058E9DA0018F9D500DEF
:1045500011245595479555954795493708F048E7F3
:10456000980160919405809193050E949C2B9B0C6F
:10457000F1E0EF1AF108A1F6A394B7CF0E94CF2A79
:104580008091EE0491E0B9120EC0811107C08091B4
:104590004F0181508093EE041C820FC081508093A4
:1045A000EE04BC820AC090E0019660914F0170E079
:1045B0000E9454318093EE048C83DF91CF911F9140
:1045C0000F91FF90EF90DF90CF90BF90AF909F90B2
:1045D0008F907F900895FF920F931F93CF93DF9357
:1045E000EC01F12C0FEF10E060914F01F61608F589
:1045F00080914D012F2D30E0280F311DC901880F0A
:10460000991F280F391F20513B4F4091950549377D
:1046100008F048E770E0C8010E945431962F8C8161
:1046200060919405F99E800D11240E949C2BF394B7
:10463000DBCF0E94CF2A9A818C8190FF02C08F5FCE
:1046400001C081508C83DF91CF911F910F91FF901A
:104650000895CF93DF93EC01E2E9F5E043816281B5
:104660008C810E94322C8C818F5F8C83DF91CF9163
:104670000895CF93DF93EC01EC81F0E0E55EF64F17
:104680004491E2E9F5E0628181810E94322C8C81C3
:104690008F5F8C83DF91CF9108958091D10287FF46
:1046A00011C08091E80082FD05C08091CF02811188
:1046B000F8CF11C08091E8008B770BC08091CF02BA
:1046C000882349F08091E80080FFF8CF8091E800CE
:1046D0008E778093E8000895982F973068F590932F
:1046E000E900981739F07091EC002091ED0050919D
:1046F000F00003C0242F762F50E021FD02C09F5F01
:10470000ECCF3091EB003E7F3093EB003091ED0029
:104710003D7F3093ED003091EB0031603093EB0042
:104720007093EC002093ED005093F0002091EE0088
:1047300027FDE5CF80E008958F708093E90081E048
:1047400008952091D7023091D8022617370748F0F4
:104750006115710539F42091E8002E772093E80067
:1047600001C0B901FC0120E06115710579F180916A
:10477000CF028823F1F18530F1F18091E80083FDCB
:104780003CC08091E80082FD2EC08091E80080FF4F
:10479000EBCF2091F3008091F20090E0922B611515
:1047A000710551F08830910538F421912093F10082
:1047B000615071090196F3CF21E0089709F020E0DC
:1047C0008091E8008E778093E800CECF2111CFCF83
:1047D0000AC08091CF02882361F0853061F080911A
:1047E000E80083FD0AC08091E80082FFF2CF80E0FC
:1047F000089582E0089583E0089581E0089587E7B1
:1048000097E790930108809300089AE088E10FB63B
:10481000F894A895809360000FBE90936000FFCF3E
:1048200078941F920F920FB60F9211248F939F933B
:10483000AF93BF938091A7059091A805A091A9057A
:10484000B091AA050196A11DB11D8093A705909373
:10485000A805A093A905B093AA05BF91AF919F9118
:104860008F910F900FBE0F901F9018959C014FB71E
:10487000F8948091A7059091A805A091A905B09101
:10488000AA054FBF821B930B08952FB7F894609130
:10489000A7057091A8058091A9059091AA052FBF41
:1048A00008952FB7F8948091A7059091A805A0913D
:1048B000A905B091AA052FBF08951F920F920FB6B8
:1048C0000F9211248F939F93AF93BF938091A6056E
:1048D000811113C08091A7059091A805A091A90509
:1048E000B091AA054196A11DB11D8093A705909393
:1048F000A805A093A905B093AA05BF91AF919F9178
:104900008F910F900FBE0F901F90189520913C0132
:104910002223C9F02091AB0527FF15C0262F26952D
:10492000269526952E31C8F4FC01E20FF11D677023
:1049300081E090E001C0880F6A95EAF78095928146
:10494000892382830895FC0106962281621301C0A7
:1049500012823196E817F907C1F7089520913C01BA
:104960002223C1F02091AB0527FF14C0262F2695E6
:10497000269526952E3130F5FC01E20FF11D67706A
:1049800081E090E001C0880F6A95EAF79281892B57
:1049900082830895FC0132962FEF30E04191641735
:1049A00089F02F3F19F4411101C0232F3F5F3630AA
:1049B000A9F72F3F39F0FC01E20FF11D27FDFA9511
:1049C0006283089508952091A4053091A5052817C4
:1049D000390771F09093A5058093A405E091A20595
:1049E000F091A305309721F00084F185E02D099422
:1049F00008952091A0053091A1052817390771F07D
:104A00009093A1058093A005E091A205F091A305E4
:104A1000309721F00680F781E02D099408950E94D7
:104A20007A16882351F0E091A205F091A305309702
:104A300021F00190F081E02D099480E008950F931A
:104A40001F93CF93DF93C42FD22FFC018281882341
:104A5000C9F040939F050E94512490939E05809336
:104A60009D0580E28C0F883008F057C0C77081E048
:104A700001C0880FCA95EAF7DF91CF911F910F917E
:104A80000C94A72A80919F05481330C080919D0502
:104A900090919E050E943624883C910538F510E2DD
:104AA0001D0FCD17B9F080E28C0F883040F4C7702D
:104AB00081E001C0880FCA95EAF70E94A02A183049
:104AC00028F581E09D2F977001C0880F9A95EAF72D
:104AD0000E94A72A802F0E94B12A1830F0F4D770C4
:104AE00081E001C0880FDA95EAF70AC080E28C0FF6
:104AF000883098F4C77081E001C0880FCA95EAF742
:104B0000DF91CF911F910F910C94A02A802FDF91FC
:104B1000CF911F910F910C94B12ADF91CF911F91EA
:104B20000F910895CF93DF93C7EAD1E060E0CE0103
:104B30000E9406312196C11584E0D807B9F7DF91AC
:104B4000CF910895CF92DF92EF92FF920F931F9330
:104B5000CF93DF93C0E0D0E08E01005A1F4F6E016B
:104B60008CE0C80ED11CFE01E15EF54FE590F4909B
:104B70006F2DCE0187960E9406316E2DCE0188964C
:104B80000E9406312296CC15DD0569F70C171D072A
:104B900031F7E80100381140F9F6DF91CF911F910C
:104BA0000F91FF90EF90DF90CF9008950F931F9398
:104BB000CF93DF93C42FD0E0CC0FDD1F2CE0629F9A
:104BC000C00DD11D112430E6839FC00DD11D1124CD
:104BD000CE0187960E94F230082F10E0102F002798
:104BE000CE0188960E94F2309801282BC901DF91EE
:104BF000CF911F910F910895462F843038F478306B
:104C000028F4663018F4672F0C94D62580E090E0E5
:104C1000089580919C0590919B05882389F09923A4
:104C200069F062E070E08DE19AE00E94BB1B892B85
:104C300019F080919B05089510929B0590919B051A
:104C400081E08927089580919C058823F9F00E94CE
:104C50004524DC01CB01805A9541AF4FBF4F809373
:104C6000970590939805A0939905B0939A05809124
:104C70009B0581110BC062E070E08BE19AE00E941D
:104C8000BB1B892B19F481E080939B0580919B05C8
:104C90000895CF93E82F2091E3043091E4042D5D33
:104CA00032404091DA02642F70E0C9010E94D53091
:104CB000481B842FEE2351F066E00E943A31C82F42
:104CC000C150A8F080E20E940B1BFACFA901480F47
:104CD000511D4115524018F080E020E030E0280FCF
:104CE000311D23523D4F3093E4042093E304CF91D0
:104CF0000895CF93C82F811102C06FEF01C062E207
:104D000083E290E00E940631C11102C06FEF01C042
:104D100061E084E290E00E940631C11102C06FEFB1
:104D200001C063E285E290E0CF910C94063180E00F
:104D30000E94792660E086E290E00E9406310E949F
:104D4000A2250E94922581E00C94792683E290E0CE
:104D50000E94F230823281F484E290E00E94F230CC
:104D6000813051F485E290E00E94F23091E083328C
:104D700009F090E0892F01C080E081700895909142
:104D8000920590FF04C09695981740F003C08111DA
:104D900005C090E0961710F40C949A2D61E00C94E5
:104DA000512D882311F0FA0101C0FB010994EBEEAB
:104DB000F4E011828281846082830895609192057B
:104DC000669570E04BE050E08DE391E00E94C831C1
:104DD000892B19F481E08093EC040E943819909398
:104DE000E6048093E5048091ED0484608093ED04F3
:104DF000089580911E06811110921E0608958095D7
:104E000090911D06892380931D06089590911D069B
:104E100080911C06892B20911B06982F922B909332
:104E2000B00580911E068823D9F0892B8093B005A8
:104E300080913C01882331F08091AB0587FF02C04F
:104E40008EE101C086E0E2EBF5E090E0815028F0D1
:104E500021912223D9F39F5FF9CF91110E94F92666
:104E6000E091A205F091A3053097A9F080913C0153
:104E7000882359F08091AB0587FF07C08091B0056A
:104E80008093B10586E08093B0050280F381E02D28
:104E900080EB95E00994089580E090E00E94F92469
:104EA00080E090E00E94E32410921C0610921B0602
:104EB0000C940627809119069091E805891719F03E
:104EC0008F5F8770FBCF08950F931F93CF93DF936E
:104ED0008091E70582958F7009F05DC08091E405AF
:104EE000882309F458C0809119061091E805609153
:104EF000E2057091E305C091E505D091E60591E0EA
:104F00006F3F09F090E0292F06E0811709F443C0B4
:104F1000209721F07F3F21F030E003C031E001C055
:104F2000322F90E030FD34C0089FF001099FF00D52
:104F30001124DF01A751BA4F11963C9111973713F5
:104F400027C03C91361324C012963C911297311120
:104F50001FC013964D915C9114974C1B5D0B483C00
:104F60005105B0F48091E7058F7080618093E7056B
:104F7000E251FA4F80818F708061808382EE95E0EC
:104F80000E94E007DF91CF911F910F910C945A2757
:104F900001968770BACFDF91CF911F910F9108953D
:104FA000CF92DF92FF920F931F93CF93DF936C0109
:104FB0000091D90280917C02082BC7E0D0E010E07C
:104FC000C8010C2E02C0959587950A94E2F780FDE2
:104FD00004C02197A8F7F12C09C0FC2EB6018C2F34
:104FE0000E94FC250E942917019799F38F2DDF91CC
:104FF000CF911F910F91FF90DF90CF900895CF93A5
:10500000DF93EC010E94D027BE010E94FC250E9484
:105010002917DF91CF910895FC01808191810E9431
:10502000FF27292F2F70E92FE295EF704E2F50E0C8
:10503000FA013297EE30F105B8F4E257FF4F0C94C5
:105040008A31803F99F018F4883E70F40FC0843F95
:1050500059F40CC0883E50F0813F31F407C0822FD4
:10506000869586958695089580E0089581E0089557
:105070009F92AF92BF92CF92DF92EF92FF920F93E7
:105080001F93CF93DF93CDB7DEB761970FB6F89438
:10509000DEBF0FBECDBF8C0185E0F801DE011D969D
:1050A00001900D928A95E1F7F801E2809091E20576
:1050B0006091E3054091E5055091E60541155105E4
:1050C00031F06F3F31F481E09F3F19F403C081E07C
:1050D00001C080E0F82FF1709F2E80FD1AC1F80109
:1050E00030812181C380D48082EEA82E85E0B82E45
:1050F000F090E405F601E41BF50BFF2009F4C6C0AF
:105100008091E705E83CF10508F091C0482F407F09
:1051100009F050C0621311C093130FC0FE2CE110B0
:105120000CC08F7080618093E705C5010E94E00785
:105130008091E705F801858329C1CD2831F02F3F03
:1051400031F481E03F3F19F403C081E001C080E009
:1051500080FD03C081E08E2502C080E090E0F82F42
:10516000F170FF2E80FF1CC0809119064091E80568
:1051700056E0841709F4E8C090E0589FF001599F69
:10518000F00D1124E751FA4F6181261306C06081AA
:10519000631303C06281E61203C001968770E9CFF2
:1051A000FE2CEE2009F4F2C08091E7058160809327
:1051B000E70549C0621306C0931304C0E11002C0A2
:1051C000F80186C0C8010E940C28882351F1EE2006
:1051D00041F12091E705822F82958F7090E0029730
:1051E00074F08091E2059091E30598878F8319868A
:1051F000DB86CA862C87CE0107960E94E00786E0F0
:10520000F801A2EEB5E001900D928A95E1F70E94B7
:1052100064270AC06217C9F0C8010E940C288111D6
:105220001EC0C8010E94E007FF24F394AFC0482FBE
:10523000407F81F782EE95E00E94E00786E0F5016D
:1052400011928A95E9F7F12CA1C09313E5CFE110F3
:10525000E3CFF8018583C8010E94E00754C0EE2027
:1052600001F32091E705822F82958F7090E00297DD
:1052700034F28091E2059091E3059A8389831B8241
:10528000DD82CC822E83CE010196B7CFE83CF105BA
:10529000D0F5FE2CEE2029F2621327C0931325C00F
:1052A0002091E70520FD18C0822F82958F70482F2E
:1052B00050E04115510581F0F80125834F3051052B
:1052C00041F08F5F982F9295907F822F8F70892B5E
:1052D0008583C8010E94E00786E0F801A2EEB5E0F0
:1052E00001900D928A95E1F751C0C8010E940C28E7
:1052F000811185CF8091E70581608093E705C80122
:105300000E94E00743C086E0F50111928A95E9F713
:105310003DC0EE2009F485CFC8010E940C28F82E6C
:10532000882309F47ECF86E0F801A2EEB5E0019073
:105330000D928A95E1F78091E2059091E3050E9434
:10534000FF270E94642722C03D872E878D859E857A
:105350000E94FF27292F22952F70223028F49F705A
:1053600039F0811105C00BC0243028F49F7049F436
:10537000805E883020F0C8010E94E0079F2CF92C45
:1053800005C0F8019581907F99F7F9CF8F2D61962F
:105390000FB6F894DEBF0FBECDBFDF91CF911F9146
:1053A0000F91FF90EF90DF90CF90BF90AF909F90C4
:1053B0000895292F220F920F990F890F682F669554
:1053C00066956695982F977083E0689FB0011124C9
:1053D00040E050E080E0FB01E40FF51FE053FA4F9E
:1053E000208130E0092E02C0369527950A94E2F715
:1053F00021703327042E01C0220F0A94EAF7822B72
:105400004F5F5F4F4330510531F70895292F220F29
:10541000920F990F890FE82FE695E695E69587702C
:1054200051E001C0550F8A95EAF783E0E89FF0014B
:105430001124E053FA4F20E030E070E04081CB01CE
:10544000022E02C0969587950A94E2F781708195A5
:1054500084278523842781932F5F3F4F2330310595
:1054600069F708958093D9020C944C2721E030E02D
:1054700001C0220F8A95EAF720958091D9028223F4
:105480000C94322A20911A068095822380931A0662
:10549000982F977099F430E0482F082E000C550B88
:1054A0002417350759F09091AC0592FD07C08595FA
:1054B000859585950E94362A10921A060895CF93F5
:1054C000C091AC05C2FB992790F9981799F080FB21
:1054D000C2F9C093AC056091AB0584E090E00E94F6
:1054E00006316C2F82E290E00E94063182E0CF917B
:1054F0000C94422ACF91089521E030E001C0220FA0
:105500008A95EAF78091D902822B0C94322A8093F3
:105510007C020C944C2710921D0680913C0188233C
:1055200031F08091AB0587FF02C08EE101C086E0BB
:10553000E2EBF5E0DF011D928A95E9F70C944C2728
:10554000882321F00E94FF260C94062708958823C3
:1055500039F090911D06892B80931D060C94062727
:1055600008951F93CF93DF93182F893319F0C0E06C
:10557000D0E002C0C0E5D0E0812F0E94C506209790
:1055800041F08FE99FE00197F1F700C000002197FB
:10559000F6CF812FDF91CF911F910C949B06309114
:1055A0004C018091920580FF16C0E0914B0163E0B1
:1055B000E69FF0011124E051FB4F539A8BB1877F96
:1055C0009BB198602FB7F894AF0163E0369F400D10
:1055D000511D112414C080914D0190914E018917E5
:1055E00020F7E82FF0E0AF01440F551FE40FF51F3F
:1055F000E051FB4F1182108212828F5FF0CFE417CF
:10560000F50789F0319168E09BB9000000C037FFD1
:105610008BB9330F000000C000C000C08BB900C0C0
:105620006A9591F7ECCF2FBF8FE594E00197F1F7E2
:1056300000C0000008959091920590FF16C09091CF
:105640004D0120914E01921770F4E92FF0E0DF0137
:10565000AA0FBB1FEA0FFB1FE051FB4F8183608342
:1056600042839F5FF0CF0C94CF2A089580919205DA
:10567000282F269530E02115310519F481708260BC
:1056800005C02332310524F0817084648093920533
:1056900080919505893718F088E7809395050895DE
:1056A000CF92DF92EF92FF926B017C010E94362B2A
:1056B000B701A60188E090E0FF90EF90DF90CF90D7
:1056C0000C94183180919605882319F081508093AD
:1056D0009605609192057091930580919405909143
:1056E00095050C94502B80919605833018F48F5FAC
:1056F0008093960560919205709193058091940531
:10570000909195050C94502BE2E9F5E083E08083BD
:1057100011828FEF828388E783831482ABEEB4E03B
:1057200012968C911297836012968C93608171818E
:10573000828193810C94502BAF92BF92CF92DF92D3
:10574000EF92FF920F931F93CF93DF93E82EF62EE5
:10575000E901E42FF0E0611106C0E156F44FE49155
:105760004E2F2E2F71C0062F10E0E156F44F4491BA
:10577000F42FC42ED12C26E0829FC00111242FEFDC
:1057800030E0B9010E94D5305BEA5603C001579F53
:10579000900D11248E0D911D8E0D911D582F550FBA
:1057A000580FD901A01BB10BAC9DC001AD9D900D50
:1057B000BC9D900D1124E92FF59ED0011124AB2F33
:1057C000BB277901EA1AFB0AEC9CD001ED9CB00DD5
:1057D000FC9CB00D11245901A51AB108A09E7001BE
:1057E000A19EF00CB09EF00C1124EF2CFF242E197A
:1057F0003F092C9D80012D9D100D3C9D100D112405
:10580000212F6230710591F048F461157105E1F0C6
:1058100061307105B9F4242F4B2F16C06430710527
:1058200069F040F06630710579F00CC0242F492FE3
:10583000E12F0AC0492FEF2F2B2F06C0292FE42F6D
:10584000412F02C0292FEB2F49832883EA83DF9160
:10585000CF911F910F91FF90EF90DF90CF90BF906D
:10586000AF900895CF93DF9300D01F92CDB7DEB7EE
:105870009091920590FF0DC0493708F048E79E01CE
:105880002F5F3F4F0E949C2B4B8169818A810E9430
:105890001B2B0F900F900F90DF91CF910895AF9237
:1058A000BF92CF92DF92EF92FF920F931F93CF930D
:1058B000DF9300D01F92CDB7DEB7082FF62E142F3E
:1058C000E22E9091920590FF85C0E92FE695AE2FCC
:1058D000B0E0AB50BE4F8C918093EB049E7F923032
:1058E00081F4493708F048E79E012F5F3F4F6F2D45
:1058F000802F0E949C2B4B8169818A810E941B2BE7
:1059000046C0823019F41091950541C0863019F4D3
:10591000009193053CC08930D9F38931C1F5E95133
:105920008E2F8170D82EE695F0E0E156F34FA590CA
:10593000B490C12CBB2460914F01C61630F52C2DBC
:1059400030E0A29EC001A39E900DB29E900D112446
:1059500070E00E94D530802FD11002C0860F01C0A8
:10596000861B90914D01290F311DA901440F551F30
:10597000240F351F20513B4F412F193708F048E7BE
:105980006F2D0E949C2BC394D6CF0E94CF2A80916A
:105990009305081308C080919405F81204C0809103
:1059A0009505181729F08091ED0482608093ED042D
:1059B00000939305F092940510939505EE2051F015
:1059C0006091920570919305809194059091950551
:1059D0000E94502B0F900F900F90DF91CF911F914D
:1059E0000F91FF90EF90DF90CF90BF90AF90089510
:1059F000E2E9F5E0438121E1421B08F440E021E0C7
:105A0000628181810C944F2CE2E9F5E0438121E130
:105A1000420F08F44FEF21E0628181810C944F2CFA
:105A2000E2E9F5E0628121E1621B08F460E021E037
:105A3000438181810C944F2CE2E9F5E0628121E100
:105A4000620F08F46FEF21E0438181810C944F2CA9
:105A5000E2E9F5E0818121E0438162818A500C9482
:105A60004F2CE2E9F5E0818121E043816281865F8C
:105A70000C944F2CE2E9F5E080818E7F80830E94B8
:105A8000D726EBEEF4E08281816082832FEF80E7FE
:105A900092E0215080409040E1F700C000000C945B
:105AA000CF2A9091920590FF3BC09170811102C066
:105AB000926006C0833210F0946402C0880F982B65
:105AC000909392058091ED0481608093ED046623AC
:105AD00051F0609192057091930580919405909199
