:100000000C9453060C949A060C949A060C94EF2FB9
:100010000C949A060C949A060C949A060C949A06E0
:100020000C949A060C949A060C945C260C949825D1
:100030000C944D1F0C949A060C949A060C949A06F4
:100040000C949A060C949A060C949A060C949A06B0
:100050000C949A060C94001F0C949A060C949A0621
:100060000C949A060C949A060C949A060C949A0690
:100070000C949A060C949A060C949A060C949A0680
:100080000C949A060C949A060C949A060C949A0670
:100090000C949A060C949A060C949A060C949A0660
:1000A0000C949A060C949A060C949A06CA0BCA0BE6
:1000B000FD0BFD0B700C8F0D8F0D8F0D8E0C020D37
:1000C000130D130DE011F011E311F011E611F01111
:1000D000F011F011E911F011E911F011E911F0112D
:1000E000E9116213651381138E139513B513B813B9
:1000F000EC130E14AB14AB1419141B141F1443147B
:10010000641467146A148C14AA23D1237A25D1238A
:100110007A251D2440247A2535254525BA28BA2874
:10012000CD28CD28C328CD28CD28CD28BA28BA2857
:10013000C828CD28CD28C8280000000000000000F5
:1001400000000000000000000000000000000000AF
:100150000000000000000000000000007E0F00D43E
:10016000FFFFFFC700000078000000000000000053
:100170002A2B280000000000000000000000000002
:1001800000000029000000002C1E3420212224340D
:100190002627252E362D3738271E1F2021222324DF
:1001A00025263333362E37381F0405060708090A7B
:1001B0000B0C0D0E0F101112131415161718191A17
:1001C0001B1C1D2F3130232D350405060708090A95
:1001D0000B0C0D0E0F101112131415161718191AF7
:1001E0001B1C1D2F3130354C00DA0281FFD9F1DBA9
:1001F00020A4A62EAF00A0C000A1C800AED580A844
:100200001FD300408D14200000047F3F1F64321470
:10021000643214783C1E1E140A0541646A757374B6
:10022000005261697365004C6F77657200446566C2
:1002300061756C74004C617965723A20008081822E
:10024000838485868788898A8B8C8D8E8F90919206
:100250009394A0A1A2A3A4A5A6A7A8A9AAABACAD5C
:10026000AEAFB0B1B2B3B4C0C1C2C3C4C5C6C7C8D3
:10027000C9CACBCCCDCECFD0D1D2D3D40022232566
:100280002628292A2C2D2F3032333536383A3B3D5B
:100290003E4042434547494A4C4E505153555759A9
:1002A0005A5C5E6062646668696B6D6F71737577C6
:1002B000797B7D7F81838587898A8C8E90929496C5
:1002C000989A9C9E9FA1A3A5A7A8AAACAEAFB1B3D4
:1002D000B4B6B8B9BBBCBEBFC1C2C3C5C6C7C9CA24
:1002E000CBCCCDCED0D1D2D2D3D4D5D6D7D7D8D9E6
:1002F000D9DADADBDBDBDCDCDCDCDCDDDDDDDDDC44
:10030000DCDCDCDCDBDBDBDADAD9D9D8D7D7D6D555
:10031000D4D3D2D2D1D0CECDCCCBCAC9C7C6C5C317
:10032000C2C1BFBEBCBBB9B8B6B4B3B1AFAEACAA64
:10033000A8A7A5A3A19F9E9C9A98969492908E8C14
:100340008A89878583817F7D7B79777573716F6DEE
:100350006B6968666462605E5C5A595755535150C8
:100360004E4C4A4947454342403E3D3B3A3836357C
:100370003332302F2D2C2A29282625232200AF00A6
:10038000AE2B0014001A00080015001700E000044E
:10039000001600070009000A00E1001D001B00060E
:1003A0000019000500000000000000E300105F2CB1
:1003B000002A00130012000C0018001C0034003347
:1003C000000F000E000D000B00290038003700362A
:1003D0000010001100000000000000E600115F287E
:1003E000002B001E001F00200021002200E0000062
:1003F000000000000000000000E10000000000001C
:100400000000000000000000000000E30001002CDC
:10041000002A0027002600250024002300000000F9
:10042000004F00520051005000000000000000008A
:100430000000000000000000000000E600010028AD
:10044000002B001E021F02200221022202E00000F7
:10045000000000000000000000E1000000000000BB
:100460000000000000000000000000E30001002C7C
:10047000002A002702260225022402230235003129
:100480000030002F002E002D003502310230022FE7
:10049000022E022D02000000000000E600010028EC
:1004A00000005C00000000000000000000C25CC50D
:1004B0005CC75CC95C00000000C35CC65CC85CCA69
:1004C0005C00000000000000000000E30001002CC0
:1004D000000000000000000000000000000000001C
:1004E000000000000000000000000000000000000C
:1004F0000000000000000000000000E600010028ED
:100500000005010980A101850319012AB700150121
:1005100026B700950175108100C0050C0901A101E5
:10052000850419012AA002150126A0029501751063
:100530008100C005010906A1018506050719E0290A
:10054000E7150025019508750181020507190029A5
:10055000EF1500250195F0750181020508190129A3
:1005600005950575019102950175039101C006601D
:10057000FF0961A1010962150026FF009520750899
:1005800081020963150026FF00952075089102C0BD
:1005900005010906A101050719E029E71500250154
:1005A00095087501810295017508810105071900FB
:1005B00029FF150026FF009506750881000508191A
:1005C000012905950575019102950175039101C0F9
:1005D00009025B00030100A0FA0904000001030105
:1005E00001000921110100012240000705810308D3
:1005F000000A0904010002030000000921110100A2
:1006000001222200070582032000010705030320C1
:10061000000109040200010300000009211101008A
:1006200001226D000705840320000A120100020068
:10063000000008534601000100010200010C0343C1
:10064000006F0072006E0065000000100366006F0E
:10065000006F007300740061006E00000004030965
:10066000040000000000003E5B4F5B3E003E6B4F0D
:100670006B3E001C3E7C3E1C00183C7E3C18001C5F
:10068000577D571C001C5E7F5E1C0000183C180044
:1006900000FFE7C3E7FF00001824180000FFE7DBB6
:1006A000E7FF0030483A060E002629792926004047
:1006B0007F05050700407F05253F005A3CE73C5A6F
:1006C000007F3E1C1C0800081C1C3E7F0014227F7B
:1006D0002214005F5F005F5F0006097F017F00005A
:1006E0006689956A0060606060600094A2FFA294D1
:1006F0000008047E04080010207E20100008082A4C
:100700001C0800081C2A0808001E10101010000CFD
:100710001E0C1E0C0030383E383000060E3E0E0611
:100720000000000000000000005F00000000070063
:10073000070000147F147F1400242A7F2A1200234C
:100740001308646200364956205000000807030071
:1007500000001C224100000041221C00002A1C7FD6
:100760001C2A0008083E08080000807030000008BD
:10077000080808080000006060000020100804025B
:10078000003E5149453E0000427F40000072494909
:100790004946002141494D33001814127F100027AB
:1007A00045454539003C4A49493100412111090775
:1007B00000364949493600464949291E00000014BF
:1007C0000000000040340000000008142241001422
:1007D00014141414000041221408000201590906DF
:1007E000003E415D594E007C1211127C007F494948
:1007F0004936003E41414122007F4141413E007F58
:1008000049494941007F09090901003E41415173AD
:10081000007F0808087F0000417F41000020404120
:100820003F01007F08142241007F40404040007F8C
:10083000021C027F007F0408107F003E4141413EC0
:10084000007F09090906003E4151215E007F091918
:1008500029460026494949320003017F0103003F30
:100860004040403F001F2040201F003F4038403F95
:1008700000631408146300030478040300615949F9
:100880004D4300007F414141000204081020000058
:100890004141417F000402010204004040404040C9
:1008A000000003070800002054547840007F2844CB
:1008B000443800384444442800384444287F0038F1
:1008C000545454180000087E0902001824241C788F
:1008D000007F080404780000447D40000020404070
:1008E0003D00007F102844000000417F4000007C54
:1008F00004780478007C08040478003844444438C0
:10090000007C1824241800182424187C007C080477
:1009100004080048545454240004043F4424003C78
:100920004040207C001C2040201C003C4030403CCB
:10093000004428102844004C9090907C004464545B
:100940004C44000008364100000000770000000021
:1009500041360800000201020402003C2623263C26
:100960000000000000000000000000000000000087
:1009700000C0E0F0F8F81800C0F0FCFEFFFFFFFF39
:10098000FFFFFF7E00000000000000000080C0E0CC
:10099000E0E0E0E0E0E0E0C0800000000080C0E0D7
:1009A000E0E0E0E0E0E0E0C080000000E0E0C0C0A7
:1009B000E0E0E0E00000E0E0C0C0E0E0E0E0E0C057
:1009C000800000000080C0E0E0E0E0E0E0E0E0C0A7
:1009D000800000000000000000000000000000E0B7
:1009E000F0F0F0E0ECEEF7F37020007C7C7C7E0011
:1009F0007E7E7E7F7F7F000080C0E07E5B4F5BFE5F
:100A0000C00000C000DCD7DEDEDED7DC00C00000A6
:100A100000000000000000000000000000000000D6
:100A200000000000000000000000F8FCFEFFE000F5
:100A3000FFFFFFFFFFFF80FFFFFFFFFFFFFFFFFF45
:100A40001F0701000000000000000000FFFFFF8101
:100A500000000000000081C3C3C30000FFFFFF814E
:100A600000000000000081FFFFFF0000FFFFFF010A
:100A7000000000000000FFFFFF010000000001FF78
:100A8000FFFF0000FFFFFF9D1C1C1C1C1C1C9DDFAA
:100A9000DFDF000000000000000000000000000F89
:100AA0001F3F7F7F7F7F7F3F1E0C001F1F1F3F0068
:100AB0003F3F3F7F7F7F00307B7F78302020307842
:100AC0007F3B0003000F7F0F0F0F7F0F000300001D
:100AD0000000000000000000000000000000000016
:100AE00000000000000000000000030F1F3F3F3F18
:100AF0003F1F1F3F3F7F7F7F3F3F1F3F7F7F7F7FA6
:100B00007C7878381C0F000000000000000103070B
:100B10000707070707070703010000000001030795
:100B2000070707070707070301000000070707007B
:100B30000000000000000707070000000000000799
:100B40000707000000010307070707070707070358
:100B50000100000000000000000000000000000094
:100B60000000000000000000000000000000000085
:100B70000000000000000000000000000000000075
:100B80000000000000000000000000000000000065
:100B90000000000000000000000000000000000055
:100BA0000000010101010101010101020202020232
:100BB0000202020203030303030303030404040405
:100BC00004040405050505050606060606070707CD
:100BD000070708080808090909090A0A0A0B0B0B84
:100BE0000C0C0C0D0D0D0E0E0E0F0F0F1010111121
:100BF00011121213131414151516161717181819A5
:100C0000191A1A1B1B1C1D1D1E1E1F20202122220B
:100C1000232424252626272829292A2B2C2D2D2E4E
:100C20002F30313232333435363738393A3B3C3D68
:100C30003E3F404142434445464748494A4C4D4E59
:100C40004F50515354555658595A5B5D5E5F61621F
:100C500064656668696B6C6D6F7072737577787AAE
:100C60007B7D7E8082838587888A8C8E8F91939509
:100C700096989A9C9EA0A2A3A5A7A9ABADAFB1B32D
:100C8000B5B7BABCBEC0C2C4C6C9CBCDCFD1D4D60D
:100C9000D8DBDDDFE2E4E7E9EBEEF0F3F5F8FAFDAF
:100CA000FFFFAA7F554011241FBECFEFDAE0DEBF61
:100CB000CDBF04B603FE27C0809122069091230683
:100CC000A0912406B09125068730904BA740B04BE9
:100CD000D1F410922206109223061092240610924C
:100CE000250614BE84B7877F84BF0FB6F894A895F5
:100CF00080916000886180936000109260000FBE58
:100D0000E0E0F8E3099512E0A0E0B1E0ECEFFAE6EC
:100D100002C005900D92AA31B107D9F726E0AAE1E9
:100D2000B2E001C01D92A232B207E1F70E94BE0EEE
:100D30000C947C350C940000882339F1682F8CEFDB
:100D4000860F813A28F483EB95E00E94761F0CC051
:100D500080E2860F883050F4677081E001C0880F10
:100D60006A95EAF70E9498270C949F278BE5860FD7
:100D7000833020F480E090E00C94E91F685A6731DA
:100D800020F480E090E00C94D31F0895CF93882343
:100D900009F46DC09CEF980F913AC8F5C82F809167
:100DA0004F018823E1F08091730387FF18C0EC2F77
:100DB000E695E695E695F0E0ED54FA4F8281282F0E
:100DC00030E04C2F477081E090E002C0880F991FFF
:100DD0004A95E2F782239323892B61F412C0E5EB55
:100DE000F5E08BEB95E02191C21721F08E179F075C
:100DF000D1F707C06C2F83EB95E00E94761F0E940D
:100E00009F276C2F83EB95E00E949E1F13C090E2FA
:100E1000980F983090F4877021E030E0A90102C06B
:100E2000440F551F8A95E2F7CA0190912006892B3D
:100E300080932006CF910C949F27EBE5E80FE330D9
:100E400040F4F0E0ED54FE4F808190E0CF910C949F
:100E5000E91F885A873158F4E82FF0E0EE0FFF1FA2
:100E6000EA54FE4F80819181CF910C94D31FCF9192
:100E700008951F93CF93DF93CDB7DEB767970FB673
:100E8000F894DEBF0FBECDBF4B8B5C8B6D8B7E8B22
:100E90008F8B611110921F0686E09E01235F3F4FEA
:100EA000D901E82F1D92EA95E9F795E0FE017396C6
:100EB000D90101900D929A95E1F79C894E895F893D
:100EC0007B897D879E876F87598B488BF901DE016F
:100ED000179601900D928A95E1F7CE0107960E9430
:100EE000D12881113EC086E0FE013796DE011196C1
:100EF00001900D928A95E1F7FF81E8856A857B85EF
:100F00006115710531F0EF3F31F481E0FF3F19F4D5
:100F100003C081E001C080E080FD23C02091EB058B
:100F200030E0C90101968770992740911C0650E076
:100F30008417950779F1F983EA837D836C8396E0C2
:100F4000929FD001939FB00D1124A451BA4FFE017E
:100F5000319601900D929A95E1F78093EB050E94EE
:100F6000F32716E080911C069091EB058917F9F0A4
:100F7000189FC001112484519A4F0E94D1288823C0
:100F8000B1F080911C0690E00196877099278093BC
:100F90001C06E8CF0E94242B1092EB0510921C0631
:100FA000E5EEF5E086E0DF011D928A95E9F76796A8
:100FB0000FB6F894DEBF0FBECDBFDF91CF911F916A
:100FC00008953F924F925F926F927F928F929F927D
:100FD000AF92BF92CF92DF92EF92FF920F931F9347
:100FE000CF93DF93CDB7DEB729970FB6F894DEBF66
:100FF0000FBECDBFFC018081918123813481232BE1
:1010000031F09F3F31F491E08F3F19F403C091E03C
:1010100001C090E090FD9AC67F0185E0DE01119647
:1010200001900D928A95E1F7F701228189819A81D9
:10103000222349F00E946928182F682F89819A81FC
:101040000E949F2A03C00E94722A182F69817A8108
:10105000812F0E94EC208C01F7018281882309F402
:10106000F1C0C80182519F45409708F08DC58FEFB0
:1010700093E00E948B318111EEC0025137EA832E3A
:1010800099249394002379F08114F4E09F0609F4E5
:10109000E2C0C4010E948B31811101C001502FEFC9
:1010A000821A920AEFCF1E821F8218861986442464
:1010B00043942AE0322E84010F5F1F4FC4010E9427
:1010C0008B318E831F82882309F4C5C09FEF980F50
:1010D000933060F48F834E8232E0830E911CC801FE
:1010E0000E948B318887811102C0B5C048018E01F2
:1010F0000A5F1F4FF80120812223E9F2213009F015
:101100004CC08181813049F46801F2E0CF0ED11CDE
:10111000F80182810E944A2B0AC0823051F4680192
:10112000F2E0CF0ED11CF80182810E94C606860132
:1011300086C0833049F46801F2E0CF0ED11CF8017B
:1011400082810E949C06F3CF843019F00F5F1F4FFD
:1011500076C0F80122810E5F1F4F80E090E030E002
:10116000205331092A30310568F4389EA001399E98
:10117000500D1124C901840F951F0F5F1F4FF801F7
:101180002081EDCF009709F45AC0EFE9FFE03197D5
:10119000F1F700C000000197F5CFE22FF0E0E85929
:1011A000FE4F5490822F86958695869590E0FC019F
:1011B000E85AFE4F64902770712C022E02C075947D
:1011C00067940A94E2F7F1E06F227724FC01E85B70
:1011D000FE4FA490B12C022E02C0B594A7940A949D
:1011E000E2F731E0A322BB24FC01E85CFE4FC4908F
:1011F000D12C02C0D594C7942A95E2F781E0C82289
:10120000DD246114710419F081EE0E94C606A11458
:10121000B10419F086EE0E94C606852D0E944A2B65
:10122000AB2819F086EE0E949C06672819F081EE23
:101230000E949C06CD2819F08CE20E944A2B0F5F79
:101240001F4F58CF0031FFE51F0769F581E00E946D
:10125000CF2A0E94772280911D06877009F476C5F7
:10126000F7018281882309F471C58091740382FD9E
:101270006DC582E029960FB6F894DEBF0FBECDBFD4
:10128000DF91CF911F910F91FF90EF90DF90CF9062
:10129000BF90AF909F908F907F906F905F904F9096
:1012A0003F900C94DB2A01312FE51207A1F582E073
:1012B000CECFC80190568115904230F0C8019054AD
:1012C0008115904108F06FC4C80199278C339105AE
:1012D00008F06BC4FC01EF59FE4F20811F922F9341
:1012E0009F938F93F70180811F928F9381811F922B
:1012F0008F9380E591E09F938F931F9288E18F9366
:101300008FE292E09F938F930E9484320FB6F894FD
:10131000DEBF0FBECDBF033F3CE5130759F190F48C
:10132000083D9CE51907E9F0093DECE51E07A1F130
:10133000073DFCE51F07B1F506E221EE41EE67ED42
:101340007CE514C0053F2CE5120701F1C8F0063F0B
:101350008CE5180739F507E225EE46EE66EF7CE5E9
:1013600005C007E225EE45EE68ED7CE5C7010E9469
:101370000F2071CF06E221EE40EE63EF7CE5F6CF61
:1013800007E225EE44EE64EF7CE5F0CF06E221EEC5
:1013900042EE65EF7CE5EACF08E221E045EE69ED3B
:1013A0007CE5E4CFF7018281882309F445C11092DE
:1013B00067030330FDE51F0758F40A3F2CE51207C9
:1013C00060F4C80182509C45449708F01FC105C0D5
:1013D00001363DE5130709F019C10E94C918909321
:1013E00074038093730300318CE5180709F4CAC0B5
:1013F00008F041C00830ECE51E0709F4A4C0F0F481
:1014000004302CE5120709F48CC068F402308CE536
:10141000180709F482C003301C4509F0E7C0809129
:1014200073038260E1C00630ECE51E0709F483C057
:1014300008F085C0809173038860D6C00C302CE51D
:10144000120709F490C068F40A308CE5180709F413
:101450007EC008F084C00E94242B809173038068B2
:10146000C3C00E30ECE51E0709F481C008F086C049
:101470008091730394C00C3F2CE5120709F47BC0E4
:1014800038F504318CE5180709F49AC058F4023194
:10149000ECE51E0709F47AC008F07EC08091730362
:1014A0008F7BA2C00A3F2CE51207F1F108F03FC084
:1014B00005311C4509F09AC08091730382FB2227F5
:1014C00020F991E0922790FB82F990FB83F98CC080
:1014D00001159DE5190709F467C050F48091740364
:1014E0000E3FFCE51F07C1F108F05BC08D7F65C0B2
:1014F00002303DE5130709F471C008F46DC00136F0
:101500001D4509F073C08091730384FB222720F9E5
:1015100091E0922790FB84F967C08091730381600A
:1015200063C08091730316C08091740316C08091CC
:101530007403826042C080917303806155C08091C2
:101540007303806251C08091730380644DC08091A9
:1015500073038860846048C0826081602EC080917F
:1015600073038E7F41C0809173038D7F3DC0809156
:101570007303877F39C08091740314C08091730313
:101580008F7E32C0809173038F7D2EC00E94242BEA
:10159000809173038F7728C080917303877F8B7F3F
:1015A00023C08D7F8E7F09C080917403982F909502
:1015B00091708E7F892B90FB81F98093740316C004
:1015C0000E94242B8091730387FB222720F991E04E
:1015D000922790FB87F908C061E001C060E08EE0CF
:1015E00090E00E949F3102C0809373036091730367
:1015F0001091740384E090E00E949F31612F82E299
:1016000090E00E949F310E94242B25CE0631FCE5FC
:101610001F0721F5809120068A7A91E009F490E075
:1016200090931C02882311F065E301C069E283EB0B
:1016300095E00E949E1F0FC00631ECE51E0709F0E1
:1016400040C080911C02882309F4B1C265E383EB9A
:1016500095E00E94761F0E949F27FDCD0A353DE54B
:10166000130749F158F401159CE51907B1F00E3D37
:101670001C4509F042C00E94E518EDCD0B35FDE593
:101680001F07D9F00C351D45C1F58091740382FB0D
:10169000882780F991E0892711C00E94242B3FEF11
:1016A00084E39CE0315080409040E1F700C00000AE
:1016B0000E94EF1ED0CD81E001C080E00E94F82A98
:1016C0001CC08091200682720C3CECE51E0709F4D8
:1016D0001DC308F09EC2063C2CE5120709F402C3A4
:1016E00008F075C2033C9CE5190709F4F1C208F043
:1016F00060C2023C1C4509F4C1C2F701828100812D
:101700001181882349F0C8010E946928D82E682FCA
:10171000C8010E949F2A04C0C8010E94722AD82EC4
:10172000B8018D2D0E94EC200E944017B82E192F71
:10173000982EF7010281A580A2949FE0A9228091B2
:101740001D068770B9F00023A9F0812F807F8034B7
:1017500021F080E28B0D883068F08091740382FD67
:1017600009C082E00E94DB2A80911D068770DD247B
:10177000D3948111D12CC12EC2948FE0C8228C2D1C
:1017800090E08C30910508F0CAC1FC01EA5AFF4F85
:101790000C942332812F807F1F70882311F01295C3
:1017A000107F0023B9F0112309F4A7C180E28B0D4B
:1017B000883010F0911006C080912006182B1093ED
:1017C000200605C080911F06182B10931F060E944B
:1017D0009F2793C18B2D0E949C06112309F49FC162
:1017E00080E28B0D883080F1992071F11095809105
:1017F0001F06182310931F062AC0812F807F1F7099
:10180000803211F01295107F8B2D992021F0F1E09C
:101810009F16D9F149C08091740382FF1BC0002339
:1018200069F0112339F080912006182B10932006BF
:101830000E949F2780E00E94C60671C180E00E943E
:101840009C06112309F46BC1812F0E9498270E94E6
:101850009F2765C1002381F080912106AA2051F0C5
:1018600021E0A21207C0182B181709F458C11093D1
:10187000210655C1812B10C0AA2021F031E0A3160A
:1018800009F44DC10E94922727C0002341F085E052
:101890008A1508F444C1812F0E94402B40C194E076
:1018A0009A1508F43CC118C0002349F0AA2099F306
:1018B000F701858180FF21C18F708583ECCFAA203D
:1018C00059F0893309F028C1FFEF27EE33E0F150DA
:1018D00020403040E1F71EC1812F0E94392B1FC1EB
:1018E000812F86958695837019F0813061F017C13C
:1018F000002321F08B2D912F937002C080E090E0A7
:101900000E94E91F12C1002321F08B2D912F9370AB
:1019100002C080E090E00E94D31F07C1812F837036
:10192000A9F5011100C14B2D429546954770440F12
:10193000440F8B2D8F7090E09C01042E01C0220F6C
:101940000A94EAF7B4FE08C08FE090E001C0880F67
:101950004A95EAF7809501C080E0169516951370B8
:10196000123069F088F490917E02113019F0822BC8
:10197000892302C0922B892B0E94202BD4C0822B5A
:1019800090917E028927F8CF822BF6CF002319F0A1
:10199000812F817001C08695882309F4C4C04B2D26
:1019A000429546954770440F440F8B2D8F7090E001
:1019B0009C01042E01C0220F0A94EAF7B4FE08C06D
:1019C0008FE090E001C0880F4A95EAF7809501C04A
:1019D00080E0169516951370123059F078F49091B6
:1019E000A703113019F0822B892309C0922B892B70
:1019F00006C0822B9091A703892701C0822B0E94E9
:101A0000CB2A91C01F70002339F0812F0E94152B23
:101A10008B2D0E94402B87C08B2D0E94392B812F4C
:101A20000E94CF2A80C08B2D92EF991679F19915DB
:101A300038F0E0EF9E1659F0F1EF9F1611F159C002
:101A400023EF921651F134EF9316B9F052C00023F0
:101A500079F084E08A1508F462C01F7181E090E09B
:101A600001C0880F1A95EAF79091A70389271DC036
:101A700095E09A1508F453C0F0CF8091740382FF6B
:101A800019C0002329F0812F8F7126C00023D9F3BC
:101A9000812F8F710E94CF2A42C0002349F01F710D
:101AA00081E001C0880F1A95EAF70E94CB2A37C05F
:101AB00080E0FBCF002399F01F71812F0E94152B2E
:101AC0008091740382FD07C0E8E01E9FC0011124CD
:101AD000836080931D06812F0E94152B20C081E01A
:101AE0000E94DB2AF1E0FA15D0F482E00E94DB2AA2
:101AF00016C0002321F0AA2031F28B2D9CCEAA2003
:101B000039F2893349F42FEF37EE83E0215030402A
:101B10008040E1F700C000008B2D0E949C0688EFFA
:101B20008C0D843010F40E94FF1FDD2009F40EC1DB
:101B300080911D0680FD0AC1F70112828595859569
:101B400085950E94152BC7010E94E10780911D0613
:101B500085958595859529960FB6F894DEBF0FBEBD
:101B6000CDBFDF91CF911F910F91FF90EF90DF904C
:101B7000CF90BF90AF909F908F907F906F905F902D
:101B80004F903F900C94CF2A00318FE5180711F445
:101B900081E006C001319FE5190709F08ACB82E098
:101BA0000E94152B56CBC80191CB20E297CB69E25E
:101BB0004ECD043C2CE5120709F48FC0053C1C45B2
:101BC00009F09BCD41EC5DE26AEC7DE2A3C0093CEB
:101BD0009CE5190709F490C070F4073CFCE51F0769
:101BE00009F485C0083C1C4509F087CD45EB5DE252
:101BF00069EA7DE28FC00A3C3CE5130709F481C025
:101C00000B3C1C4509F079CD4BEF5BE26CE07CE2CC
:101C100081C0013DECE51E0709F488C098F40E3C34
:101C20002CE5120709F47CC008F477C00F3C8CE562
:101C3000180709F478C0003D1C4509F05ECD6EE040
:101C400089E07CC0043DECE51E0709F475C060F432
:101C5000023D2CE5120709F46CC0033D1C4509F058
:101C60004CCD61E088E16FC0053D8CE5180709F4B3
:101C700068C00D351D4509F4EECA3FCD80915A0369
:101C800080FF20C08E7F80935A0360915A03709129
:101C90005B0380915C0390915D030E94E92B0E949D
:101CA000C7218091B40281608093B402EFEFF0E726
:101CB00022E0E150F0402040E1F700C000000E9427
:101CC000682BC9CA816080935A0361E086953BC046
:101CD0004AE25EE263E37EE21DC043E35EE26AE263
:101CE0007EE218C04AEC5DE261EC7DE213C049EA95
:101CF0005DE265EB7DE20EC041E95DE26DE97DE20A
:101D000009C04DE95DE261E97DE204C04CE05CE2BE
:101D10006BEF7BE20E94C1219ECA61E081E013C0AB
:101D200065E082E00BC068E086E008C064E18FE017
:101D300005C067E185E102C062E289E10E94AF214E
:101D40008ACA61E083E20E94EA2D85CA29960FB60D
:101D5000F894DEBF0FBECDBFDF91CF911F910F91E1
:101D6000FF90EF90DF90CF90BF90AF909F908F90BB
:101D70007F906F905F904F903F900895CF93DF9347
:101D8000CDB7DEB7AE970FB6F894DEBF0FBECDBFAE
:101D900084B7877F84BF0FB6F894A89580916000C0
:101DA000886180936000109260000FBE90E080E830
:101DB0000FB6F89480936100909361000FBE85B7D1
:101DC000806885BF85B7806885BF82EF94E1909376
:101DD0001B0280931A020E94DC250E94FB25809141
:101DE000E20084608093E200789480919D038823D0
:101DF000A1F01091E9001F709091EC00892F817083
:101E000090FD80E8182B1092E9008091E80083FD96
:101E10000E94C2221F701093E90082E084BD93E00B
:101E200095BD9AEF97BD80936E0010921D0210929F
:101E30001E0210921F02109220020E949621811110
:101E400002C00E9487210E94911680930001809118
:101E50000001882321F010924A018BE103C08BE13D
:101E600080934A0180934B010E94911681110E9438
:101E7000A92F8091000180910001882311F090E04A
:101E800001C094E090932A0284E0891B8093290288
:101E90000DE911E071EAE72E71E0F72ED8018D917E
:101EA0008D018F3F11F00E942917E016F106B1F75E
:101EB00005EA11E0F80181918F018F3F11F00E9436
:101EC0002917F1E00B3A1F07A9F788E0E5E7F2E0F0
:101ED000DF01282F1D922A95E9F7E1E2F2E0DF0108
:101EE0001D928A95E9F70E94DA18811102C00E94BA
:101EF000E51882E090E00E948B3180936C020E9492
:101F0000C91890937403809373030E945819EFE3E8
:101F1000FCE93197F1F700C000000E9458190E94B7
:101F20009116882311F0E0E001C0E4E0F0E0EB5806
:101F3000FD4F808181FF08C06FEF7FEF80E090E070
:101F40000E94BD310E94EF1E83E090E00E948B3121
:101F50000E94202B0E949116811102C00E94AC2F7A
:101F60000E949116811102C082E001C080E080933E
:101F7000670280E88093A8030E943D2E6DE070E028
:101F80008BEF91E00E949922892B09F043C0809148
:101F9000670263E070E081FD3AC088EF91E00E9443
:101FA0009922892BB9F56DE070E088EE91E00E94EE
:101FB0009922892B79F50E94351FDC01CB01805ACB
:101FC0009541AF4FBF4F80935F0390936003A09301
:101FD0006103B0936203EBEAF3E080E092E0DF019B
:101FE0009C011D9221503040E1F7F093B205E0933F
:101FF000B1058FEF9FEF9093AA038093A90381E02F
:1020000080936403809363031092680203C085EF9A
:1020100091E0C5CF80912B02811138C00E94DA185F
:10202000811104C00E94E5180E941D2C88E090E0F8
:102030000E94933160935A0370935B0380935C0317
:1020400090935D038091B40283608093B4026E7FAD
:1020500071F40E941D2C88E090E00E9493316093FF
:102060005A0370935B0380935C0390935D030E941B
:10207000CF2B0E94C72180915A0380FF04C060E0EB
:1020800086950E94EA2D81E080932B0281E091E009
:1020900090936B0380936A03CE0101967C011E012D
:1020A0009BE0290E311C80919D03853009F046C0CC
:1020B00000E112E180919D03853009F03BC08091E1
:1020C0009D03843031F10E94F92010926E03A8E143
:1020D000B0E0E0E40FB6F894A895A09360000FBEBE
:1020E000E093600083B7817F846083BF83B78160A2
:1020F00083BF7894889583B78E7F83BF0FB6F8949B
:10210000A8958091600088618093600010926000C3
:102110000FBE80919C03882309F4CCCF0E945819EC
:10212000E5E7F2E0819181113EC422E0ED37F2074C
:10213000C9F7C0CF0E94242B0E94FF1F0E9458198C
:10214000B82E81110E94351F85E792E09CA78BA7CE
:10215000EDE6F2E0DC0100E010E0902EAD90819120
:102160008A2549F1C12CDD24D394982F9D21F1F0CB
:102170000E949116882399F0C9A29AA2AD2081E00D
:1021800009F480E08BA30E94411F8160782F9DA3FA
:102190008CA349A15AA16BA18DA10E943907F80116
:1021A000E359FD4F8081D826D0821AC0C394DD0C3C
:1021B00096E0C912DACF0F5F1F4F0830110569F69C
:1021C0008FEF8EA38FA318A60E94411F8160782FE6
:1021D0009AA789A74EA15FA168A58AA50E94390781
:1021E0008091B302882309F4BDC08091B202E091CE
:1021F0005A03E695E81BE093AE02823059F4F0E012
:10220000EA5EFD4FE4910E2F10E069E2862E6EE14A
:10221000962E59C0863059F4F0E0ED5EFD4FE49102
:102220000E2F10E059E1852E5EE1952E4CC08930CD
:1022300061F4E695F0E0E05FFD4FE4910E2F10E0D1
:102240004BE9842E4DE1942E3EC08F3061F4E6952B
:10225000F0E0E35FFD4FE4910E2F10E03CEF832EA2
:102260003CE1932E30C0853159F4F0E0E65FFD4F3C
:10227000E4910E2F10E023E7822E2CE1922E23C052
:102280008831A1F0833249F4E8E0F2E0059114913D
:1022900099ED892E9DE1992E16C0843271F000EDE2
:1022A00017E083E2882E8BE1982E0DC008E210E043
:1022B000BDED8B2EBBE19B2E06C004EF11E0ABE918
:1022C0008A2EABE19A2E8091AF02882361F01092A2
:1022D000AF020E944F199093AD028093AC0210920E
:1022E000B1021092B0020E944F19E091AC02F0913D
:1022F000AD029C012E1B3F0B2F3F3F4798F52091CD
:102300002E022223B1F010922E0220912C02309145
:102310002D02821B930B8F3F9F4758F4205D3A4854
:1023200030932D0220932C028091B4028860809318
:10233000B402C090B002D090B1020E0F1F1F1093D4
:10234000AD020093AC028CEA92E0F4010995809111
:10235000B0029091B102892B29F4CD2819F081E0C7
:1023600080932E0280916403882309F455C18091E3
:10237000690290916A020E94261FC29708F449C020
:102380000E94411F90936A02809369028BEA93E056
:102390009093B2058093B1050E9491168823A9F10C
:1023A00085E392E00E946922E091A7038E2F90E0DE
:1023B0008F309105A8F4FC01EE59FF4F0C942332A5
:1023C0008DE292E008C087E292E005C081E292E0EF
:1023D00002C08AE192E00E94692281E00E943921D4
:1023E000EFE2F2E001900020E9F78F0101501109BE
:1023F000FFE2CF2EF2E0DF2EC016D10650F4D60158
:102400008D916D010E94E921F7CF8DE392E00E944A
:10241000692280916403882309F4E3C02091A90311
:102420003091AA032115310509F4DBC080916802BF
:102430008111D7C0482E512CCC24C394D12C082E06
:1024400002C0CC0CDD1C0A94E2F7A9014C215D21ED
:10245000452B11F48F5FEECF90916702920175E0EA
:10246000220F331F7A95E1F790FD12C08295880FF5
:10247000807680930F01220F232F221F330B31957B
:1024800020931201815E809310011092130112C0FB
:1024900055E0369527955A95E1F7220F220F220F26
:1024A00020930F0110921201295F2093100183E005
:1024B0008093130124E630E047E050E06DE071E0E6
:1024C00088E70E94F42E892B09F08BC08091670267
:1024D00080FD23C0C20145E0880F991F4A95E1F7AE
:1024E000AC0145555C4F04E610E020E230E060E4CA
:1024F00088E70E941B2F892B09F073C00E941321CB
:10250000C094D0948091A9039091AA03C822D922A3
:10251000D092AA03C092A90364C080E2E7E4F2E08B
:10252000DF011D928A95E9F735E0440C551C3A9578
:10253000E1F7EFEAF1E0FEA7EDA76BEA71E0ADA5E8
:10254000BEA58D91BEA7ADA7FB019191BF01A201D0
:10255000490F511D45555C4F90E0895B9D4FFC0133
:1025600027E0922E9F01281B390B7724739401C01A
:10257000770C2A95EAF78A01812CD801AD908D015C
:10258000A720292D28192770622E022E000C330B4C
:10259000BA2D01C0BB0F6A94EAF76B2E31952195D5
:1025A00031092770332701C0A6942A95EAF76A28D3
:1025B000A0806A286082839428E08212DECF9A94F9
:1025C00031963FEF9312CECF8DA59EA5835B9140B0
:1025D00009F0B5CF04E610E020E230E047E452E035
:1025E00086CF809163038823B9F00E94351F009144
:1025F0005F03109160032091610330916203DC015D
:10260000CB01801B910BA20BB30B8F3F9F4FAF4FA2
:10261000BF4710F40E94F920B1100E9413210E94BC
:10262000FF1F90916B02891721F00E94FF1F80937A
:102630006B0280919D03843009F035CD83E0809357
:10264000E9008091E80082FF2ECD8091E80085FFAF
:1026500023C00E94332781111DC080E2C82ED12CD7
:102660008E010F5F1F4F09C08091F100D8018D933B
:102670008D01B1E0CB1AD10869F08091E80085FDA9
:10268000F3CF8091E8008B778093E8000E94332796
:10269000882399F391E001C090E08091E8008B7766
:1026A0008093E800992309F4FECCE9818E2F90E015
:1026B000FC013197E331F10508F04DC1EF58FF4FB0
:1026C0000C9423321A8289E0A7C08A81823009F4EF
:1026D00080C1833051F0813009F03DC10E94351F27
:1026E0009B838C837D836E8338C1FE013396ABA5BB
:1026F000BCA58D91BCA7ABA781932E163F06B9F759
:102700002CC18A81823009F026C16B817C818D8148
:102710009E810E94293286E290E024C04C816B8128
:102720008A810E94C6209D835BC10D811E81102776
:10273000012710278C81CB809A81BCE0CB9E600161
:102740001124E0E69E9FC00CD11C1124C80ED11CA0
:10275000C80ED11C612FC60187960E949F31602F41
:10276000C60188960E949F31F8C00E949220F5C051
:102770008A818138B1F050F4803809F0EEC020E051
:102780004B8160915C0380915B0323C08238E9F048
:10279000833809F0E2C020E040915D036C818B81B9
:1027A00018C060E08B810E94EA2D8B81811103C0EB
:1027B0000E94D32DD2C080915A03816080935A0326
:1027C00060E086950E94EA2DC8C08B8180935E03ED
:1027D000C4C00E94E82CC1C08A81813899F030F4CD
:1027E000803809F0BAC080915D0316C0823891F03C
:1027F000833809F0B2C080915B038B8380915C03C6
:102800008C83ABC080915A0380FF02C0869504C0C0
:1028100080E002C080915E038B839FC060915A0369
:1028200070915B0380915C0390915D030E94E92BA2
:1028300094C080E14DC082E08A8389E5EDCF0A81B2
:102840001B81102701271027AC80B12C6701C8011C
:1028500089559E4F96012E193F092A153B0508F010
:102860007CC00935F2E01F0730F40E948B31D6019D
:1028700014968C9302C0F60114820F5F1F4FFFEF76
:10288000CF1ADF0AE4CF0A811B8110270127102706
:10289000AC80B12C6701C80189559E4F96012E1955
:1028A0003F092A153B0508F058C0093522E01207F8
:1028B00028F4D60114966C910E949F310F5F1F4F30
:1028C000BFEFCB1ADB0AE7CF0E94822046C084E02C
:1028D0008A8343C00A811B81102701271027AC80FF
:1028E000B12C6701C801879696012E193F092A1558
:1028F0003B0598F50038E1E01E0730F40E948B316B
:10290000D60114968C9302C0F60114820F5F1F4FFC
:10291000FFEFCF1ADF0AE6CF0A811B8110270127BC
:102920001027AC80B12C6701C801879696012E193B
:102930003F092A153B0588F4003821E0120728F4E6
:10294000D60114966C910E949F310F5F1F4FBFEF0D
:10295000CB1ADB0AE9CF8FEF898380919D03843006
:1029600009F0A1CB1091E9001F709091EC00892F24
:10297000817090FD80E8182B82E08093E9008091BF
:10298000E80080FF0CC040E050E060E270E0C7016A
:102990000E9466278091E8008E778093E8001F7080
:1029A0001093E90080CB09BD19BD09B400FEFDCF2D
:1029B0008091D8008F7D8093D8008091E000826064
:1029C0008093E0008091E00081FDFCCF0E94242BE9
:1029D00071CB86E290E00E948B311B821C821D82AB
:1029E0008E83BBCF80E008959091730392FF0DC05A
:1029F000282F2871283019F4877F846006C0282F7B
:102A00002471243011F48B7F886093FF0DC0282F30
:102A10002871283119F4877E846106C0282F24711B
:102A2000243111F48B7E88612091740320FF0DC046
:102A3000382F3871383019F4877F816006C0382FFD
:102A40003171313011F48E7F886021FF0DC0282F45
:102A50002871283119F4877E816106C0282F2171E1
:102A6000213111F48E7E886194FD877E0895AF92A6
:102A7000BF92CF92DF92EF92FF920F931F93CF936B
:102A8000DF937C015B016A018091AB028A3018F010
:102A900001E010E002C00AE010E0C1E0D0E0F894EC
:102AA000B501C701F60109957894811115C02196E9
:102AB0000C171D0794F0CC9F9001CD9F300D300D69
:102AC000112480E090E045E34A95F1F7000001967B
:102AD00082179307C1F7E3CF81E0DF91CF911F9178
:102AE0000F91FF90EF90DF90CF90BF90AF9008953F
:102AF000CF93DF93CDB7DEB728970FB6F894DEBF3C
:102B00000FBECDBF85E0EAE5F3E0DE01119601904E
:102B10000D928A95E1F78091B2029091B302A09153
:102B2000B4028E839F83A88728854091A702509185
:102B3000A8026091A9027091AA023FB7F89480910F
:102B40006F0390917003A0917103B09172033FBF26
:102B5000841B950BA60BB70B84369105A105B10517
:102B600010F4222329F180913501909136018A5683
:102B70009D4F4091340150E04930510510F048E03C
:102B800050E0BE016F5F7F4F0E947B3283E090E098
:102B90000E94B630892B11F080E00DC00E94351FD5
:102BA0006093A7027093A8028093A9029093AA024F
:102BB0001092B40281E028960FB6F894DEBF0FBEE3
:102BC000CDBFDF91CF910895EF92FF921F93CF93E6
:102BD000DF9300D000D01F92CDB7DEB77B0180E03D
:102BE00090E00E94B630892B09F065C04091190130
:102BF00050E04115510511F041E050E060911A019B
:102C000070911B016A567D4FCE0105960E947B3262
:102C100040918E0250918F026091900270919102CA
:102C20002FB7F89480916F0390917003A091710376
:102C3000B09172032FBF841B950BA60BB70B843684
:102C40009105A105B10538F487E992E00E9482223E
:102C50009D81891791F181E090E00E94B630892B27
:102C6000A1F44091230150E04530510510F044E0BB
:102C700050E060912401709125016A567D4FCE018C
:102C800001960E947B3211E001C010E087E992E0DA
:102C90000E94822291E02D81281390E0192341F1B6
:102CA0000E94351F60938E0270938F028093900272
:102CB000909391020FC010E001C011E08091970243
:102CC00090919802A0919902B0919A0289839A8377
:102CD000AB83BC83112361F089819A81AB81BC8174
:102CE00080938A0290938B02A0938C02B0938D0202
:102CF00080918A0290918B02A0918C02B0918D02FA
:102D0000F70180839183A283B383812F0F900F906B
:102D10000F900F900F90DF91CF911F91FF90EF9048
:102D2000089580918902811118C08091D800806136
:102D30008093D8008AE18A95F1F700C08091D9008C
:102D400080FD02C082E001C081E080938902823070
:102D500021F40E94DC2510929D0381E0909189026C
:102D6000913009F080E008950F931F930E9491160F
:102D7000882321F01F910F910C94351F0E94351F5D
:102D800000911D0210911E0220911F02309120021D
:102D9000600F711F821F931F1F910F910895CF9392
:102DA000DF9300D000D0CDB7DEB7409192025091B2
:102DB000930260919402709195022FB7F8948091DC
:102DC0006F0390917003A0917103B09172032FBFB4
:102DD000841B950BA60BB70B84369105A105B10595
:102DE00080F10E94B416DC01CB010296A11DB11D39
:102DF00089839A83AB83BC8380912B0190912C01B2
:102E00008A569D4F40912A0150E04530510510F0FF
:102E100044E050E0BE016F5F7F4F0E947B3282E052
:102E200090E00E94B630892B11F080E00BC00E9428
:102E3000351F609392027093930280939402909353
:102E4000950281E00F900F900F900F90DF91CF913E
:102E50000895F894E82FE295EF70F0E031A1282F63
:102E60002F7081E090E001C0880F2A95EAF7982F33
:102E70009095932391A392A1892B82A3789408958E
:102E8000CF93DF938238910569F1B0F481339105D6
:102E900009F46FC048F48932910509F465C08A329B
:102EA000910509F46BC08AC08533910509F457C0B8
:102EB00089339105B9F082C0833E910571F138F4F0
:102EC000803E9105B1F0823E910511F177C0863EBA
:102ED0009105B9F1873E9105C9F1843E910509F04C
:102EE0006DC024C02091730320FD53C021FD51C04B
:102EF00065C08091730380FD46C08091740380FF9C
:102F000048C08091730384FD3FC183EE90E03EC1D1
:102F10008091730382FF3AC0F4CF8091730382FDE6
:102F200035C08091740380FD34C0EBCF8091740371
:102F300081FF35C08091730384FD26C187EE90E048
:102F400025C18091730383FF27C0F4CF8091730361
:102F500083FD22C08091740381FD21C0EBCF80915D
:102F6000730385FD1FC021C08091730385FD1DC0C3
:102F700019C08091730386FD1BC01DC0809173032F
:102F800086FD19C015C089E390E000C182EE90E093
:102F9000FDC080EE90E0FAC086EE90E0F7C084EECF
:102FA00090E0F4C089E290E0F1C085E390E0EEC0EB
:102FB0008AE290E0EBC081E390E0E8C0811532E561
:102FC000930708F069C0811541E5940728F0982F10
:102FD0008827816F906ADAC0883E910568F5803E47
:102FE000910508F0D3C0883A9105B8F4853A910567
:102FF00048F0855AE82FF0E0ED54FE4F808190E0D4
:103000009064C4C08130910509F4BBC008F4BCC011
:103010008430910508F4B8C0B9C08F3B910508F021
:10302000B3C0885AE82FF0E0EE0FFF1FEA54FE4FBE
:10303000808191819464AAC0811520E59207F0F007
:103040009C0174E0369527957A95E1F7922F93705D
:10305000482F437021E030E002C0220F331F4A9511
:10306000E2F73C68392B8F70982F9695969540E241
:10307000949FC0011124822B932B88C0811530E4CA
:10308000930718F09F70906A81C09C013A952115B2
:103090003F4108F47BC078C0EC01C11586E5D80734
:1030A000E8F5C11525E5D20748F08C2F0E94F414ED
:1030B0008F7190E0982F8827906268C0C11534E521
:1030C000D30728F09C2F8827846F906A5FC0AE01D9
:1030D000437055272C2F26952695C115D34578F496
:1030E00081E090E002C0880F991F4A95E2F740E224
:1030F000249F90011124822B932B9C6847C081E070
:1031000090E002C0880F991F4A95E2F740E2249FA1
:1031100090011124822B932B9A6838C0C1152AE59F
:10312000D207F8F4C11539E5D30790F08C2F8F70D2
:103130000E94F41494E0D695C7959A95E1F7CF7064
:10314000D0E0DC2FCC27D0699E01282BC9011EC0FE
:10315000C11548E5D407C0F09C2F8827806F906A7E
:1031600015C0CE0190568115904270F48D2F8F714D
:103170000E94F414282F2F71CE0199279062922B70
:1031800005C081E090E002C080E090E0DF91CF9147
:103190000895CF9384E090E00E948B31C82F82E2A3
:1031A00090E00E948B312C2F30E0A901582BCA01EE
:1031B000CF91089580E090E00E949931893E9E4F22
:1031C00011F40C94962180E0089569EE7EEF80E082
:1031D00090E00E94BD3160E082E090E00E949F316B
:1031E00060E083E090E00E949F3110927E0260E0F8
:1031F00084E090E00E949F3160E082E290E00E94D3
:103200009F3160E085E090E00E949F3160E086E0C1
:1032100090E00E949F316FEF87E090E00E949F3125
:1032200040E050E0BA0188E090E00E94B13160E0F7
:103230008DE090E00E949F3140E050E0BA0188E1CB
:1032400090E00E94B13160E087E190E00E949F3100
:1032500040E050E0BA018CE190E00E94B13160E0C2
:1032600070E080E290E00E94BD3140E050E0BA01A1
:1032700088E190E00E94B13180E00E9469210E94C3
:10328000872140E050E0BA018FE090E00E94B13128
:1032900040E050E0BA0183E190E00C94B1310E942B
:1032A000911681110C94411F0E94B416CB01089510
:1032B0007F928F929F92AF92BF92CF92DF92EF92C6
:1032C000FF920F931F93CF93DF93CDB7DEB72C9769
:1032D0000FB6F894DEBF0FBECDBFAE014F5F5F4F9C
:1032E0007A0188E0DA011D928A95E9F70DE911E08B
:1032F0006A0181EAA82E81E0B82E88248394912C5B
:10330000F80180818F3F09F441C0F894E82FE295DD
:10331000EF70F0E021A18F70A40102C0440F551F8F
:103320008A95E2F7CA01922F982B91A392A18095DA
:10333000892382A3789400C0E5EAF1E0712C31E0A2
:1033400021912F3F89F0A22FA295AF70B0E0909607
:103350008C9190E02F7002C0959587952A95E2F7A1
:1033600080FD02C0832F01C080E0782A330F51E036
:10337000EB3AF50729F7D8018C918F3F11F00E94A5
:103380002917B0EABA95F1F7F60170820F5F1F4F67
:10339000FFEFCF1ADF0AA016B10609F0B1CF48E05F
:1033A00050E0B70181E292E00E946E328C01892BDD
:1033B00041F088E0F701A1E2B2E001900D928A9518
:1033C000E1F7F0902A020115110549F081E08093A0
:1033D00081020E94411F9093800280937F0280911E
:1033E00081028823B9F080917F02909180020E942F
:1033F000261F059778F0A1E2B2E0EF2DF0E0EB5840
:10340000FD4F85E292E02D9121938A179B07D9F712
:10341000109281020115110509F0FDC00E9491165C
:10342000E0912A02882309F477C019861A861B8640
:103430001C860E2F10E00B581D4F8091AB028A3076
:1034400058F444EE55E1BE01675F7F4FC8010E940A
:1034500037158823A1F10AC08091820290918302DE
:103460000E94261F843F914060F73AC04FEC56E11E
:10347000BE01675F7F4FC8010E9437158823F9F0AE
:1034800048E755E1BE01675F7F4FC8010E943715CD
:103490008823A9F01092AB028091290290E044E0C9
:1034A00050E0BE01675F7F4F8B589D4F0E946E3288
:1034B00021E020938802892B01F500E0AEC08091C5
:1034C000AB028F3F19F08F5F8093AB028091AB020C
:1034D0008A3010F30E94411F9093830280938202EE
:1034E00080918802882349F3FE01399684E0DF0148
:1034F0001D928A95E9F710928802E0912902F0E086
:10350000EB58FD4F89859A85AB85BC858083918377
:10351000A283B38301E081C0F0E0EB58FD4FF89443
:1035200084E0A7E9B2E001900D928A95E1F787E97E
:1035300092E00E948222809396027894F894C09040
:103540009B02D0909C02E0909D02F0909E028091A0
:10355000840290918502A0918602B0918702C816DC
:10356000D906EA06FB06D1F0C0928402D092850209
:10357000E0928602F09287020E94911681110EC09D
:103580000E94351FC61AD70AE80AF90AC0921D021E
:10359000D0921E02E0921F02F09220027894F894DA
:1035A0008091A6028823A9F180FF10C080919F021C
:1035B00080FF0AC090915A03916090935A0360E093
:1035C00086950E94EA2D02C00E94D32D8091A6020A
:1035D00081FF09C020E04091A2026091A102809188
:1035E000A0020E94E82C8091A60282FF09C080916F
:1035F000A502882319F00E94CE2102C00E94C72193
:103600008091A60283FF03C081E08093AF021092F5
:10361000A602789402C001E010E0802F2C960FB62D
:10362000F894DEBF0FBECDBFDF91CF911F910F91F8
:10363000FF90EF90DF90CF90BF90AF909F908F90D2
:103640007F90089508950895089580917A030895CC
:1036500080937503709377036093760380919D0345
:103660008430F9F48093E9008FEF9091E800815065
:1036700095FD06C095ED9A95F1F700008111F5CF03
:103680008091E80085FF0DC040E050E063E070E00D
:1036900085E793E00E9466278091E8008E7780930B
:1036A000E8000895BC0184E00C94281BBC0183E071
:1036B0000C94281BCF93DF9320914F01222339F0E4
:1036C0002091730327FF03C060E224E002C068E09A
:1036D00021E02093E9002FEF3091E800215035FDE3
:1036E00006C035ED3A95F1F700002111F5CF209194
:1036F000E80025FF1DC0EC0180914F01811105C03C
:1037000040E050E068E070E003C070E040E050E06E
:10371000CE010E9466278091E8008E778093E800B2
:1037200080E2FE01ABE7B3E001900D928A95E1F7EC
:10373000DF91CF9108950F931F93CF93DF93EC0107
:1037400000E010E080914E01282F30E002171307AF
:103750003CF590914C019801290F311DA901440FAE
:10376000551F240F351F28543D4F869590E04C81FE
:10377000081719071CF4442349F002C0411106C080
:1037800040915D03493718F048E701C040E060917F
:103790005C0380915B030E94352C0F5F1F4FD2CFDB
:1037A0000E94682B8C8190E00196817099278C8310
:1037B000DF91CF911F910F9108958F929F92AF92B9
:1037C000BF92CF92DF92EF92FF920F931F93CF930E
:1037D000DF938C01FC014481C42FD0E09E01DE0107
:1037E0000E9438329B01AC010E944E326B017C0179
:1037F000E0E2F0E0EC1BFD0BA5E5B0E09B01AC01C5
:103800000E944E324B015C019F01DF010E94303269
:103810009B01AC010E9459329B01AC012C0D3D1D56
:103820004E1D5F1DC501B4010E940132C22FD22F6F
:103830002A3228F4F3E02F9F900111240DC025E5D2
:1038400030E02C1B3109C901880F991F280F391F3F
:1038500037FF02C02F5F3F4F35952795C22FC09588
:10386000F12C85E5E82EED1A80914E01F816E0F472
:10387000F1FC02C08E2D01C08D2F90914C012F2D97
:1038800030E0290F311DA901440F551F240F351FAA
:1038900028543D4F4C2FC93708F048E760915C032E
:1038A0000E94352CF394E0CF0E94682BF8018481AC
:1038B000811102C091E003C0803219F49FEF909310
:1038C000490190914901890FF8018483DF91CF91DB
:1038D0001F910F91FF90EF90DF90CF90BF90AF902E
:1038E0009F908F9008951F93CF93DF93EC018C816D
:1038F000811109C081E08C831092B60292E090930E
:1039000048018093470180914C0190914D018917A6
:1039100070F4E82FF0E09F01220F331FE20FF31F36
:10392000E854FD4F1182108212828F5FF0CF10E0B9
:1039300060914E011617D8F5E12FF0E070E0CF014D
:103940000E94ED3120914C01820F2091B602022E8F
:10395000000C330B90E0E217F307E4F020914801EC
:10396000022E000C330B2E173F07A4F09C01220FF0
:10397000331F820F931F9C0128543D4F40915D03DC
:10398000493708F048E760915C0380915B030E942F
:10399000352C0BC0FC01EE0FFF1F8E0F9F1FFC018B
:1039A000E854FD4F1182108212821F5FC1CF0E9426
:1039B000682B809147012091B602280F2093B60210
:1039C00090914801980F9093480119165CF4022ECB
:1039D000000C330B40914E0150E041505109241727
:1039E000350734F0819580934701813009F41C82BA
:1039F000DF91CF911F9108957F928F929F92AF9206
:103A0000BF92CF92DF92EF92FF920F931F93CF93CB
:103A1000DF93EC018A8180FF03C0BB24BA9402C00B
:103A2000BB24B3948C8181110DC081E0B81206C013
:103A300080914E0181508093B50202C01092B50270
:103A400081E08C83A12C46E3742E80904E01A81453
:103A500008F044C080914C01CA2CD12C8601080F7B
:103A6000111DC801880F991F080F191F08541D4FF9
:103A7000F80111821082128234E0E32EF12C912C95
:103A80008091B502890D87332CF0672D0E94DF31BC
:103A9000892F02C087FD880D082E000C990BC816CF
:103AA000D906A9F480915D038E9DA0018F9D500DD4
:103AB00011245595479555954795493708F048E79E
:103AC000980160915C0380915B030E94352C9B0CF4
:103AD000F1E0EF1AF108A1F6A394B7CF0E94682B8A
:103AE0008091B50291E0B9120EC0811107C080919A
:103AF0004E0181508093B5021C820FC0815080938B
:103B0000B502BC820AC090E0019660914E0170E05F
:103B10000E94ED318093B5028C83DF91CF911F918C
:103B20000F91FF90EF90DF90CF90BF90AF909F905C
:103B30008F907F900895FF920F931F93CF93DF9301
:103B4000EC01F12C0FEF10E060914E01F61608F534
:103B500080914C012F2D30E0280F311DC901880FB5
:103B6000991F280F391F28543D4F40915D03493755
:103B700008F048E770E0C8010E94ED31962F8C8173
:103B800060915C03F99E800D11240E94352CF39402
:103B9000DBCF0E94682B9A818C8190FF02C08F5FDF
:103BA00001C081508C83DF91CF911F910F91FF90C5
:103BB00008950F931F93CF93DF9300D01F92CDB73B
:103BC000DEB78C018091B70281110AC09E012F5F80
:103BD0003F4F48E76FEF0E94352C8A818093B702F0
:103BE000F8018481813051F028F0823061F44091F5
:103BF000B7020AC08091B70240E007C06091B702E7
:103C000040E080E003C040E080E060E00E94B42B30
:103C1000F801848190E0019663E070E00E94ED314C
:103C200084830F900F900F90DF91CF911F910F9190
:103C30000895CF93DF93EC01EAE5F3E043816281DD
:103C40008C810E94CB2C8C818F5F8C83DF91CF91F4
:103C50000895CF93DF93EC01EC81F0E0E358FD4F42
:103C60004491EAE5F3E0628181810E94CB2C8C8152
:103C70008F5F8C83DF91CF91089580919F0387FFA1
:103C800011C08091E80082FD05C080919D038111E3
:103C9000F8CF11C08091E8008B770BC080919D0315
:103CA000882349F08091E80080FFF8CF8091E800F8
:103CB0008E778093E8000895982F973068F5909359
:103CC000E900981739F07091EC002091ED005091C7
:103CD000F00003C0242F762F50E021FD02C09F5F2B
:103CE000ECCF3091EB003E7F3093EB003091ED0054
:103CF0003D7F3093ED003091EB0031603093EB006D
:103D00007093EC002093ED005093F0002091EE00B2
:103D100027FDE5CF80E008958F708093E90081E072
:103D200008952091A5033091A6032617370748F080
:103D30006115710539F42091E8002E772093E80091
:103D400001C0B901FC0120E06115710579F1809194
:103D50009D038823F1F18530F1F18091E80083FD26
:103D60003CC08091E80082FD2EC08091E80080FF79
:103D7000EBCF2091F3008091F20090E0922B61153F
:103D8000710551F08830910538F421912093F100AC
:103D9000615071090196F3CF21E0089709F020E006
:103DA0008091E8008E778093E800CECF2111CFCFAD
:103DB0000AC080919D03882361F0853061F0809175
:103DC000E80083FD0AC08091E80082FFF2CF80E026
:103DD000089582E0089583E0089581E0089587E7DB
:103DE00097E790930108809300089AE088E10FB666
:103DF000F894A895809360000FBE90936000FFCF69
:103E000078941F920F920FB60F9211248F939F9365
:103E1000AF93BF9380916F0390917003A091710352
:103E2000B09172030196A11DB11D80936F03909311
:103E30007003A0937103B0937203BF91AF919F91F0
:103E40008F910F900FBE0F901F9018959C014FB748
:103E5000F89480916F0390917003A0917103B091D9
:103E600072034FBF821B930B08952FB7F894609194
:103E70006F037091700380917103909172032FBF53
:103E800008952FB7F89480916F0390917003A091DB
:103E90007103B09172032FBF08951F920F920FB656
:103EA0000F9211248F939F93AF93BF9380916E03D2
:103EB000811113C080916F0390917003A0917103E1
:103EC000B09172034196A11DB11D80936F03909331
:103ED0007003A0937103B0937203BF91AF919F9150
:103EE0008F910F900FBE0F901F90189520914F014A
:103EF0002223C9F02091730327FF15C0262F269592
:103F0000269526952E31C8F4FC01E20FF11D67704D
:103F100081E090E001C0880F6A95EAF78095928170
:103F2000892382830895FC0106962281621301C0D1
:103F300012823196E817F907C1F7089520914F01D1
:103F40002223C1F02091730327FF14C0262F26954A
:103F5000269526952E3130F5FC01E20FF11D677094
:103F600081E090E001C0880F6A95EAF79281892B81
:103F700082830895FC0132962FEF30E0419164175F
:103F800089F02F3F19F4411101C0232F3F5F3630D4
:103F9000A9F72F3F39F0FC01E20FF11D27FDFA953B
:103FA00062830895089520916C0330916D03281762
:103FB000390771F090936D0380936C03E0916A036D
:103FC000F0916B03309721F00084F185E02D099486
:103FD000089520916803309169032817390771F01B
:103FE0009093690380936803E0916A03F0916B03F7
:103FF000309721F00680F781E02D099408950E9402
:104000009116882351F0E0916A03F0916B03309789
:1040100021F00190F081E02D099480E008950F9344
:104020001F93CF93DF93C42FD22FFC01828188236B
:10403000C9F0409367030E94411F909366038093E9
:10404000650380E28C0F883008F057C0C77081E0AC
:1040500001C0880FCA95EAF7DF91CF911F910F91A8
:104060000C94402B80916703481330C08091650306
:10407000909166030E94261F883C910538F510E256
:104080001D0FCD17B9F080E28C0F883040F4C77057
:1040900081E001C0880FCA95EAF70E94392B1830D9
:1040A00028F581E09D2F977001C0880F9A95EAF757
:1040B0000E94402B802F0E944A2B1830F0F4D770BA
:1040C00081E001C0880FDA95EAF70AC080E28C0F20
:1040D000883098F4C77081E001C0880FCA95EAF76C
:1040E000DF91CF911F910F910C94392B802FDF918D
:1040F000CF911F910F910C944A2BDF91CF911F917B
:104100000F910895CF93DF93C7EAD1E060E0CE012D
:104110000E949F312196C11584E0D807B9F7DF913D
:10412000CF910895CF92DF92EF92FF920F931F935A
:10413000CF93DF93C0E0D0E08E01005A1F4F6E0195
:104140008CE0C80ED11CFE01EF57FC4FE590F490B7
:104150006F2DCE0187960E949F316E2DCE018896DD
:104160000E949F312296CC15DD0569F70C171D07BB
:1041700031F7E80100381140F9F6DF91CF911F9136
:104180000F91FF90EF90DF90CF9008950F931F93C2
:10419000CF93DF93C42FD0E0CC0FDD1F2CE0629FC4
:1041A000C00DD11D112430E6839FC00DD11D1124F7
:1041B000CE0187960E948B31082F10E0102F002728
:1041C000CE0188960E948B319801282BC901DF917E
:1041D000CF911F910F910895462F843038F4783095
:1041E00028F4663018F4672F0C94C62080E090E025
:1041F00008958091640390916303882389F0992343
:1042000069F062E070E08FE793E00E949922892BC9
:1042100019F08091630308951092630390916303F2
:1042200081E089270895809164038823F9F00E9432
:10423000351FDC01CB01805A9541AF4FBF4F8093B2
:104240005F0390936003A0936103B0936203809136
:10425000630381110BC062E070E08DE793E00E9480
:104260009922892B19F481E0809363038091630381
:104270000895CF93E82F2091B1053091B2052B5AC4
:1042800033404091A803642F70E0C9010E946E3151
:10429000481B842FEE2351F066E00E94D331C82FD3
:1042A000C150A8F080E20E94E921FACFA901480F8D
:1042B000511D4115524018F080E020E030E0280FF9
:1042C000311D25553C4F3093B2052093B105CF9158
:1042D0000895CF93C82F811102C06FEF01C061E232
:1042E00083E290E00E949F31C11102C06FEF01C0D4
:1042F00062E184E290E00E949F31C11102C06FEF41
:1043000001C064E185E290E0CF910C949F3180E0A0
:104310000E94692160E086E290E00E949F310E9445
:1043200092200E94822081E00C94692183E290E037
:104330000E948B31813281F484E290E00E948B31C3
:10434000823151F485E290E00E948B3191E084311A
:1043500009F090E0892F01C080E08170089590916C
:104360005A0390FF04C09695981740F003C081113E
:1043700005C090E0961710F40C94332E61E00C9475
:10438000EA2D882311F0FA0101C0FB010994E2EB48
:10439000F2E01182828184608283089560915A03E1
:1043A000669570E04BE050E08CE391E00E94613252
:1043B000892B19F481E08093B3020E944F199093E6
:1043C000AD028093AC028091B40284608093B40209
:1043D0000895CF93DF938A3011F481E003C08D30CC
:1043E00029F480E0DF91CF910C943921682F8091DE
:1043F000B1059091B20526E0FC01ABEAB5E0019071
:104400000D922A95E1F7603E30F026E0FC01119212
:104410002A95E9F70AC0F6E06F9FB00111246F59A1
:10442000794F46E050E00E948231C091B105D091B1
:10443000B20546E050E0BE018BEA95E00E946E3284
:10444000892B49F19E012B5A3340A90185E05695ED
:1044500047958A95E1F781E090E0BC0102C0660FC4
:10446000771F4A95E2F74091A9035091AA03462B82
:10447000572B2B5F3F4F65E0369527956A95E1F7FF
:1044800002C0880F991F2A95E2F7842B952B9093F1
:10449000AA038093A9039E01255A33404091A803A3
:1044A000642F70E0C9010E946E31481B463010F441
:1044B000240F311D211582E0380710F020E030E094
:1044C00025553C4F3093B2052093B105DF91CF9134
:1044D0000895CF93DF93EC01FE018491882321F0AE
:1044E0000E94E9212196F8CFDF91CF910895809124
:1044F000A703982F9670963011F4886001C0877FCB
:104500000C94CB2AFC01AC014C5F5F4F8FEF91E321
:104510002191822728E030E087FF03C0880F892798
:1045200001C0880F21503109B9F7E417F50781F769
:104530000895EF92FF920F931F93CF93DF93EC01B7
:104540007B0164E670E088E70E94432E8C01EC0E4C
:10455000FD1ECE15DF0561F017FD0AC0FE01849136
:1045600064E670E00E94C42E8C012196892B89F3A9
:104570000E94482FC801DF91CF911F910F91FF90AA
:10458000EF9008951F93CF93DF93CDB7DEB7AA972F
:104590000FB6F894DEBF0FBECDBFEFE9F3E087EAB8
:1045A00093E02091F10021938E179F07D1F780911E
:1045B000A003833009F463C030F4813071F082309D
:1045C00009F49DC0B4C08A3009F489C08B3009F465
:1045D0006EC0893009F0ABC020C080919F03813A42
:1045E00009F0A5C08091E800877F8093E800809162
:1045F000A3039091A403892B21F460E28BE793E05D
:1046000003C060E080E090E070E00E94911E809125
:10461000E8008B778093E8008AC080919F03813205
:1046200009F085C08091A3039091A403009719F02D
:10463000029709F07CC08091E800877F8093E800B2
:104640008091E80082FD05C080919D038111F8CF23
:104650006EC02091F3008091F20090E0922B0297BF
:1046600031F48091F100813011F0863021F4809195
:10467000F10080937A038091E8008B7754C0809199
:104680009F03813A09F053C08091A3039091A40342
:10469000892B09F04CC08091E800877F8093E80067
:1046A0008091E80080FFFCCF80914F0137C080915E
:1046B0009F038132E1F58091A3039091A403892B9C
:1046C000B1F58091E800877F8093E8000E943D1E4D
:1046D0008091A10380934F010E94242B28C08091D8
:1046E0009F03813221F58091E800877F8093E80065
:1046F0000E943D1E8091A2038093790318C080918F
:104700009F03813AA1F48091E800877F8093E800BD
:104710008091E80080FFFCCF809179038093F100C5
:104720008091E8008E778093E8000E943D1E809182
:10473000E80083FFDFC180919F039091A003492F80
:1047400050E04A30510508F0D5C1FA01EC57FF4F4F
:104750000C942332803821F0823809F0CBC108C094
:1047600080919B0390919C03992389F082600FC0F4
:104770008091A3038F70873008F0BCC18093E9005B
:104780008091EB0085FB882780F91092E9009091D9
:10479000E800977F9093E8008093F1001092F10079
:1047A00070C1282F2D7F09F0A5C1882319F0823010
:1047B00061F0A0C18091A103813009F09BC19330C9
:1047C00009F080E080939C032EC08091A1038111A9
:1047D0002AC08091A3038F702FEF280F263008F096
:1047E00089C18093E9002091EB0020FF1CC0933029
:1047F00021F48091EB00806214C09091EB009061F5
:104800009093EB0021E030E0A90102C0440F551F56
:104810008A95E2F74093EA001092EA008091EB005B
:1048200088608093EB001092E9008091E800877F18
:104830008093E8000E943D1E5DC181115BC1109113
:10484000A1031F778091E3008078812B8093E300A0
:104850008091E800877F8093E8000E943D1E809150
:10486000E80080FFFCCF8091E30080688093E30044
:10487000111102C082E001C083E080939D033AC120
:104880008058823008F036C12091A1033091A203F4
:104890002C3D53E0350779F583E08A838AE28983EA
:1048A0004FB7F894DE01139620E03EE051E2E32F8B
:1048B000F0E050935700E49120FF03C0E295EF70C1
:1048C0003F5FEF708E2F90E0EA3010F0C79601C086
:1048D000C0968D939D932F5F243149F74FBF8091F0
:1048E000E800877F8093E8006AE270E0CE010196DD
:1048F0000E94911EB4C08091A3039091A403432F02
:10490000552743305105A9F068F44130510509F4A9
:1049100000C14230510509F0EDC08BE590E0E0EDBB
:10492000F5E04BC04132510529F14232510589F180
:10493000E1C0C901992781309105A1F058F0029793
:1049400009F0D8C0EDE3F6E0E4918E2F90E0EDE3BE
:10495000F6E030C0EDE5F6E0E4918E2F90E0EDE575
:10496000F6E028C0EBE4F6E0E4918E2F90E0EBE473
:10497000F6E020C08330910508F0BCC0880F991F75
:10498000FC01E151FE4F0190F081E02D89E090E0C3
:1049900014C08330910508F0ADC0FC01EE0FFF1F7D
:1049A000E751FE4F0190F081E02DDC01AA51BE4F8E
:1049B0008C9190E0009709F49DC02091E800277F3A
:1049C0002093E8002091A5033091A603281739070A
:1049D00008F4C90140E0009789F120919D0322234A
:1049E00009F43DC02530D9F12091E80023FD37C0FE
:1049F0002091E80022FD2FC02091E80020FFEBCF9E
:104A00004091F3002091F20030E0342B009759F0F0
:104A10002830310540F444914093F10031960197DC
:104A20002F5F3F4FF3CF41E02830310509F040E0E0
:104A30002091E8002E772093E800CDCF4111CDCF13
:104A40000AC080919D03882351F0853041F0809108
:104A5000E80083FD04C08091E80082FFF2CF8091DE
:104A6000E8008B778093E80045C0803809F042C0A9
:104A70008091E800877F8093E80080919E03809377
:104A8000F1008091E8008E77D3CE811133C0809100
:104A9000A1039091A2039927029764F58091E80001
:104AA000877F8093E8001091A10310939E030E94DA
:104AB0003D1E111106C08091E30087FD02C081E018
:104AC00001C084E080939D0342E061EC81E00E949C
:104AD0005C1E42E261EC84E00E945C1E42E261ECFA
:104AE00082E00E945C1E42E260EC83E00E945C1E59
:104AF00080919D038091E80083FF10C08091E800C1
:104B0000877F8093E8008091EB0080628093EB00C8
:104B100005C082E190E0EBE2F6E04FCFAA960FB637
:104B2000F894DEBF0FBECDBFDF91CF911F910895E6
:104B30001F920F920FB60F9211242F933F934F9312
:104B40005F936F937F938F939F93AF93BF93CF9315
:104B5000DF93EF93FF93C091E900CF708091EC0059
:104B6000D82FD17080FDD0E81092E9008091F0003C
:104B7000877F8093F00078940E94C2221092E9000F
:104B80008091F00088608093F000CD2BCF70C093AF
:104B9000E900FF91EF91DF91CF91BF91AF919F918C
:104BA0008F917F916F915F914F913F912F910F90D6
:104BB0000FBE0F901F901895E8EDF0E080818E7F7A
:104BC00080831092E2001092DA001092E100A0EED1
:104BD000B0E08C9181608C9380818F77808319BC49
:104BE000A7EDB0E08C918E7F8C9380818F7E808347
:104BF000109278030895CF92DF92EF92FF920F9375
:104C00001F93CF93DF93C8EDD0E088818F7E888398
:104C1000E7EDF0E080818160808384E082BF81E005
:104C20008093780388818E7F888302EE10E0F801FC
:104C300010821092DA0081EEC82ED12CF60110827B
:104C400088818F77888388818068888388818F7D39
:104C5000888319BC10929D0310929E0310929C03AE
:104C600010929B0390EEE92EF12CF70180818B7F4F
:104C7000808388818160888342E060E080E00E94D8
:104C80005C1EF60180818E7F8083F80180818160C7
:104C90008083808188608083F70180818E7F80831C
:104CA000888180618883DF91CF911F910F91FF9060
:104CB000EF90DF90CF9008951F920F920FB60F9252
:104CC00011242F933F934F935F936F937F938F9311
:104CD0009F93AF93BF93EF93FF938091E10082FF87
:104CE00009C08091E20082FF05C08091E1008B7FC6
:104CF0008093E1008091DA0080FF2AC08091D80083
:104D000080FF26C08091DA008E7F8093DA00809148
:104D1000D90080FF18C080E189BD82E189BD09B456
:104D200000FEFDCF81E080939D0380917803811187
:104D30000FC00E94DC250E94FB258091E200846068
:104D40008093E20005C019BC10929D031092780375
:104D50008091E10080FF17C08091E20080FF13C0C6
:104D60008091E2008E7F8093E2008091E20080617A
:104D70008093E2008091D80080628093D80019BCB3
:104D800085E080939D038091E10084FF30C0809195
:104D9000E20084FF2CC080E189BD82E189BD09B4B5
:104DA00000FEFDCF8091D8008F7D8093D800809148
:104DB000E1008F7E8093E1008091E2008F7E8093FE
:104DC000E2008091E20081608093E20080919E0386
:104DD000882311F084E007C08091E30087FD02C0C2
:104DE00081E001C083E080939D0380919D038091C9
:104DF000E10083FF27C08091E20083FF23C0809100
:104E0000E100877F8093E10082E080939D03109210
:104E10009E038091E1008E7F8093E1008091E2000B
:104E20008E7F8093E2008091E20080618093E200B7
:104E300042E060E080E00E945C1E8091F0008860AB
:104E40008093F000FF91EF91BF91AF919F918F916F
:104E50007F916F915F914F913F912F910F900FBE76
:104E60000F901F9018952091E4003091E50095E691
:104E70004091EC00842F817040FF23C08091E800B6
:104E800080FD1DC080919D03882399F0853099F0A5
:104E90008091EB0085FD11C04091E4005091E50048
:104EA0002417350729F3915011F09A01E1CF84E0DE
:104EB000089582E0089583E0089581E0089580E0F8
:104EC00008954091E80042FFDDCF0895EF92FF92F0
:104ED0000F931F93CF93DF937C018B010E943327A5
:104EE000811119C0E70101151105A1F08091E800B9
:104EF00085FD0AC08091E8008E778093E8000E94CB
:104F00003327882381F307C089918093F1000150F2
:104F10001109E9CF80E0DF91CF911F910F91FF90B0
:104F2000EF90089580912106811110922106089535
:104F30008095909120068923809320060895909172
:104F4000200680911F06892B20911E06982F922BF8
:104F50009093B305809121068823D9F0892B809303
:104F6000B30580914F01882331F08091730387FF4F
:104F700002C08EE101C086E0E5EBF5E090E08150F3
:104F800028F021912223D9F39F5FF9CF91110E943C
:104F90009227E0916A03F0916B033097A9F080911A
:104FA0004F01882359F08091730387FF07C08091D8
:104FB000B3058093B40586E08093B3050280F38146
:104FC000E02D83EB95E00994089580E090E00E9445
:104FD000E91F80E090E00E94D31F10921F061092FC
:104FE0001E060C949F2780911C069091EB05891753
:104FF00019F08F5F8770FBCF08950F931F93CF93A6
:10500000DF938091EA0582958F7009F05DC08091F1
:10501000E705882309F458C080911C061091EB0520
:105020006091E5057091E605C091E805D091E9052C
:1050300091E06F3F09F090E0292F06E0811709F415
:1050400043C0209721F07F3F21F030E003C031E0E2
:1050500001C0322F90E030FD34C0089FF001099F5D
:10506000F00D1124DF01A451BA4F11963C91119714
:10507000371327C03C91361324C012963C911297E7
:1050800031111FC013964D915C9114974C1B5D0B11
:10509000483C5105B0F48091EA058F70806180939F
:1050A000EA05EF50FA4F80818F708061808385EE32
:1050B00095E00E94E107DF91CF911F910F910C9431
:1050C000F32701968770BACFDF91CF911F910F918F
:1050D0000895CF92DF92FF920F931F93CF93DF93A8
:1050E0006C010091A70380917E02082BC7E0D0E0FD
:1050F00010E0C8010C2E02C0959587950A94E2F73E
:1051000080FD04C02197A8F7F12C09C0FC2EB60140
:105110008C2F0E94EC200E944017019799F38F2D4D
:10512000DF91CF911F910F91FF90DF90CF90089565
:10513000CF93DF93EC010E946928BE010E94EC200E
:105140000E944017DF91CF910895FC0180819181E9
:105150000E949828292F2F70E92FE295EF704E2F8B
:1051600050E0FA013297EE30F105B8F4E257FF4F04
:105170000C942332803F99F018F4883E70F40FC0ED
:10518000843F59F40CC0883E50F0813F31F407C091
:10519000822F869586958695089580E0089581E012
:1051A00008959F92AF92BF92CF92DF92EF92FF92BB
:1051B0000F931F93CF93DF93CDB7DEB761970FB6F1
:1051C000F894DEBF0FBECDBF8C0185E0F801DE0193
:1051D0001D9601900D928A95E1F7F801E280909179
:1051E000E5056091E6054091E8055091E905411516
:1051F000510531F06F3F31F481E09F3F19F403C056
:1052000081E001C080E0F82FF1709F2E80FD1AC16F
:10521000F80130812181C380D48085EEA82E85E0FD
:10522000B82EF090E705F601E41BF50BFF2009F41A
:10523000C6C08091EA05E83CF10508F091C0482F0E
:10524000407F09F050C0621311C093130FC0FE2CB1
:10525000E1100CC08F7080618093EA05C5010E9447
:10526000E1078091EA05F801858329C1CD2831F055
:105270002F3F31F481E03F3F19F403C081E001C0CA
:1052800080E080FD03C081E08E2502C080E090E0D8
:10529000F82FF170FF2E80FF1CC080911C064091FA
:1052A000EB0556E0841709F4E8C090E0589FF00140
:1052B000599FF00D1124E451FA4F6181261306C065
:1052C0006081631303C06281E61203C00196877098
:1052D000E9CFFE2CEE2009F4F2C08091EA0581604E
:1052E0008093EA0549C0621306C0931304C0E1101D
:1052F00002C0F80186C0C8010E94A528882351F188
:10530000EE2041F12091EA05822F82958F7090E086
:10531000029774F08091E5059091E60598878F8358
:105320001986DB86CA862C87CE0107960E94E10784
:1053300086E0F801A5EEB5E001900D928A95E1F7BF
:105340000E94FD270AC06217C9F0C8010E94A52863
:1053500081111EC0C8010E94E107FF24F394AFC071
:10536000482F407F81F785EE95E00E94E10786E0B7
:10537000F50111928A95E9F7F12CA1C09313E5CFBD
:10538000E110E3CFF8018583C8010E94E10754C012
:10539000EE2001F32091EA05822F82958F7090E034
:1053A000029734F28091E5059091E6059A8389830E
:1053B0001B82DD82CC822E83CE010196B7CFE83CE2
:1053C000F105D0F5FE2CEE2029F2621327C09313CD
:1053D00025C02091EA0520FD18C0822F82958F708C
:1053E000482F50E04115510581F0F80125834F30D9
:1053F000510541F08F5F982F9295907F822F8F708B
:10540000892B8583C8010E94E10786E0F801A5EE9B
:10541000B5E001900D928A95E1F751C0C8010E9454
:10542000A528811185CF8091EA0581608093EA05E6
:10543000C8010E94E10743C086E0F50111928A95F8
:10544000E9F73DC0EE2009F485CFC8010E94A528E8
:10545000F82E882309F47ECF86E0F801A5EEB5E0AA
:1054600001900D928A95E1F78091E5059091E6050E
:105470000E9498280E94FD2722C03D872E878D8597
:105480009E850E949828292F22952F70223028F47B
:105490009F7039F0811105C00BC0243028F49F7033
:1054A00049F4805E883020F0C8010E94E1079F2CFB
:1054B000F92C05C0F8019581907F99F7F9CF8F2DD0
:1054C00061960FB6F894DEBF0FBECDBFDF91CF91CE
:1054D0001F910F91FF90EF90DF90CF90BF90AF9012
:1054E0009F900895292F220F920F990F890F682FEF
:1054F000669566956695982F977083E0689FB001D2
:10550000112440E050E080E0FB01E40FF51FED5274
:10551000FA4F208130E0092E02C0369527950A9473
:10552000E2F721703327042E01C0220F0A94EAF714
:10553000822B4F5F5F4F4330510531F70895292F7C
:10554000220F920F990F890FE82FE695E695E695C1
:10555000877051E001C0550F8A95EAF783E0E89F14
:10556000F0011124ED52FA4F20E030E070E040816C
:10557000CB01022E02C0969587950A94E2F78170BE
:10558000819584278523842781932F5F3F4F233084
:10559000310569F708958093A7030C94E52721E06E
:1055A00030E001C0220F8A95EAF720958091A70389
:1055B00082230C94CB2A20911D0680958223809310
:1055C0001D06982F977099F430E0482F082E000C94
:1055D000550B2417350759F09091740392FD07C0BD
:1055E0008595859585950E94CF2A10921D06089570
:1055F000CF93C0917403C2FB992790F9981799F043
:1056000080FBC2F9C09374036091730384E090E05F
:105610000E949F316C2F82E290E00E949F3182E0D5
:10562000CF910C94DB2ACF91089521E030E001C0A6
:10563000220F8A95EAF78091A703822B0C94CB2A3C
:1056400080937E020C94E5271092200680914F01F2
:10565000882331F08091730387FF02C08EE101C07F
:1056600086E0E5EBF5E0DF011D928A95E9F70C9401
:10567000E527882321F00E9498270C949F270895FE
:10568000882339F090912006892B809320060C9472
:105690009F2708951F93CF93DF93182F893319F015
:1056A000C0E0D0E002C0C0E5D0E0812F0E94C60675
:1056B000209741F08FE99FE00197F1F700C00000CB
:1056C0002197F6CF812FDF91CF911F910C949C06EB
:1056D00030914B0180915A0380FF16C0E0914A013E
:1056E00063E0E69FF0011124E854FD4F539A8BB11B
:1056F000877F9BB198602FB7F894AF0163E0369F26
:10570000400D511D112414C080914C0190914D0108
:10571000891720F7E82FF0E0AF01440F551FE40F81
:10572000F51FE854FD4F1182108212828F5FF0CF77
:10573000E417F50789F0319168E09BB9000000C0DB
:1057400037FF8BB9330F000000C000C000C08BB919
:1057500000C06A9591F7ECCF2FBF8FE594E00197D9
:10576000F1F700C00000089590915A0390FF16C011
:1057700090914C0120914D01921770F4E92FF0E0C7
:10578000DF01AA0FBB1FEA0FFB1FE854FD4F818307
:10579000608342839F5FF0CF0C94682B08958091C3
:1057A0005A03282F269530E02115310519F4817010
:1057B000826005C02532310524F0817088648093B1
:1057C0005A0380915D03893718F088E780935D0361
:1057D0000895CF92DF92EF92FF926B017C010E94BD
:1057E000CF2BB701A60188E090E0FF90EF90DF900B
:1057F000CF900C94B13180915E03882319F08150D1
:1058000080935E0360915A0370915B0380915C0307
:1058100090915D030C94E92B80915E03833018F422
:105820008F5F80935E0360915A0370915B03809158
:105830005C0390915D030C94E92BEAE5F3E083E0CF
:10584000808311828FEF828388E783831482A2EBA7
:10585000B2E012968C911297836012968C936081BD
:105860007181828193810C94E92BAF92BF92CF9288
:10587000DF92EF92FF920F931F93CF93DF93E82E67
:10588000F62EE901E42FF0E0611106C0EF55F44F68
:10589000E4914E2F2E2F71C0062F10E0EF55F44FDC
:1058A0004491F42FC42ED12C26E0829FC0011124F4
:1058B0002FEF30E0B9010E946E315BEA5603C00160
:1058C000579F900D11248E0D911D8E0D911D582FF7
:1058D000550F580FD901A01BB10BAC9DC001AD9D58
:1058E000900DBC9D900D1124E92FF59ED00111243F
:1058F000AB2FBB277901EA1AFB0AEC9CD001ED9C87
:10590000B00DFC9CB00D11245901A51AB108A09E40
:105910007001A19EF00CB09EF00C1124EF2CFF241E
:105920002E193F092C9D80012D9D100D3C9D100DC1
:105930001124212F6230710591F048F46115710531
:10594000E1F061307105B9F4242F4B2F16C064309B
:10595000710569F040F06630710579F00CC0242FB4
:10596000492FE12F0AC0492FEF2F2B2F06C0292FD7
:10597000E42F412F02C0292FEB2F49832883EA838C
:10598000DF91CF911F910F91FF90EF90DF90CF901B
:10599000BF90AF900895CF93DF9300D01F92CDB703
:1059A000DEB790915A0390FF0DC0493708F048E7E1
:1059B0009E012F5F3F4F0E94352C4B8169818A8168
:1059C0000E94B42B0F900F900F90DF91CF9108950C
:1059D000AF92BF92CF92DF92EF92FF920F931F93FD
:1059E000CF93DF9300D01F92CDB7DEB7082FF62EEE
:1059F000142FE22E90915A0390FF85C0E92FE6956F
:105A0000AE2FB0E0AB50BE4F8C918093B2029E7F20
:105A1000923081F4493708F048E79E012F5F3F4FED
:105A20006F2D802F0E94352C4B8169818A810E94C5
:105A3000B42B46C0823019F410915D0341C086300A
:105A400019F400915B033CC08930D9F38931C1F569
:105A5000E9518E2F8170D82EE695F0E0EF55F34F87
:105A6000A590B490C12CBB2460914E01C61630F5B0
:105A70002C2D30E0A29EC001A39E900DB29E900DF1
:105A8000112470E00E946E31802FD11002C0860F69
:105A900001C0861B90914C01290F311DA901440FB3
:105AA000551F240F351F28543D4F412F193708F03B
:105AB00048E76F2D0E94352CC394D6CF0E94682BE7
:105AC00080915B03081308C080915C03F81204C046
:105AD00080915D03181729F08091B4028260809351
