:100000000C9453060C949A060C949A060C94B02FF8
:100010000C949A060C949A060C949A060C949A06E0
:100020000C949A060C949A060C9415200C94511F6B
:100030000C94B9240C949A060C949A060C949A0683
:100040000C949A060C949A060C949A060C949A06B0
:100050000C949A060C946C240C949A060C949A06B0
:100060000C949A060C949A060C949A060C949A0690
:100070000C949A060C949A060C949A060C949A0680
:100080000C949A060C949A060C949A060C949A0670
:100090000C949A060C949A060C949A060C949A0660
:1000A0000C949A060C949A060C949A06C90BC90BE8
:1000B000030C030C5C0C770D770D770D780CEC0CB2
:1000C000FD0CFD0CC011D011C311D011C611D011FF
:1000D000D011D011C911D011C911D011C911D0112D
:1000E000C911521355136F137C138313A313A61353
:1000F000DA13FC1399149914071409140D1431140C
:100100005214551458147A14651D8C1D331F8C1D00
:10011000331FD81DFB1D331FF01E001F79287928BF
:100120008C288C2882288C288C288C28792879285F
:1001300087288C288C2887280000000000000000F9
:1001400000000000000000000000000000000000AF
:100150000000000000000000000000007E0F00D43E
:10016000FFFFFFC700000078000000000000000053
:100170002A2B280000000000000000000000000002
:1001800000000029000000002C1E3420212224340D
:100190002627252E362D3738271E1F2021222324DF
:1001A00025263333362E37381F0405060708090A7B
:1001B0000B0C0D0E0F101112131415161718191A17
:1001C0001B1C1D2F3130232D350405060708090A95
:1001D0000B0C0D0E0F101112131415161718191AF7
:1001E0001B1C1D2F3130354C00DA0281FFD9F1DBA9
:1001F00020A4A62EAF00A0C000A1C800AED580A844
:100200001FD300408D14200000047F3F1F64321470
:10021000643214783C1E1E140A0541646A757374B6
:10022000005261697365004C6F77657200446566C2
:1002300061756C74004C617965723A20008081822E
:10024000838485868788898A8B8C8D8E8F90919206
:100250009394A0A1A2A3A4A5A6A7A8A9AAABACAD5C
:10026000AEAFB0B1B2B3B4C0C1C2C3C4C5C6C7C8D3
:10027000C9CACBCCCDCECFD0D1D2D3D40000AE051D
:10028000010980A101850319012AB700150126B7CC
:1002900000950175108100C0050C0901A1018504BC
:1002A00019012AA002150126A002950175108100EE
:1002B000C005010906A1018505050719E029E71513
:1002C0000025019508750181020507190029EF1520
:1002D00000250195F0750181020508190129059590
:1002E0000575019102950175039101C00660FF0932
:1002F00061A1010962150026FF00952075088102A1
:100300000963150026FF00952075089102C00501BC
:100310000906A101050719E029E71500250195083F
:10032000750181029501750881010507190029FFF2
:10033000150026FF0095067508810005081901299A
:1003400005950575019102950175039101C009029A
:100350005B00030100A0FA09040000010301010091
:100360000921110100012240000705810308000A4C
:10037000090401000203000000092111010001220B
:100380002200070582032000010705030320000166
:1003900009040200010300000009211101000122EB
:1003A0006D000705840320000A120100020000000E
:1003B00008534601000100010200010C0343006FD5
:1003C0000072006E0065000000100366006F006F91
:1003D000007300740061006E000000040309040053
:1003E00000000000003E5B4F5B3E003E6B4F6B3EEB
:1003F000001C3E7C3E1C00183C7E3C18001C577DB7
:10040000571C001C5E7F5E1C0000183C180000FF9B
:10041000E7C3E7FF00001824180000FFE7DBE7FF51
:100420000030483A060E00262979292600407F052B
:10043000050700407F05253F005A3CE73C5A007FF6
:100440003E1C1C0800081C1C3E7F0014227F221446
:10045000005F5F005F5F0006097F017F0000668923
:10046000956A0060606060600094A2FFA29400083A
:10047000047E04080010207E20100008082A1C08B2
:1004800000081C2A0808001E10101010000C1E0C7A
:100490001E0C0030383E383000060E3E0E060000BE
:1004A000000000000000005F0000000007000700DF
:1004B00000147F147F1400242A7F2A1200231308BB
:1004C000646200364956205000000807030000000F
:1004D0001C224100000041221C00002A1C7F1C2A13
:1004E0000008083E08080000807030000008080876
:1004F0000808000000606000002010080402003EB0
:100500005149453E0000427F40000072494949463A
:10051000002141494D33001814127F100027454532
:100520004539003C4A49493100412111090700364B
:100530004949493600464949291E00000014000077
:10054000000040340000000008142241001414147C
:100550001414000041221408000201590906003E4B
:10056000415D594E007C1211127C007F4949493689
:10057000003E41414122007F4141413E007F4949C7
:100580004941007F09090901003E41415173007F43
:100590000808087F0000417F4100002040413F01E2
:1005A000007F08142241007F40404040007F021C31
:1005B000027F007F0408107F003E4141413E007FE2
:1005C00009090906003E4151215E007F09192946AB
:1005D0000026494949320003017F0103003F4040A2
:1005E000403F001F2040201F003F4038403F006335
:1005F00014081463000304780403006159494D434F
:1006000000007F41414100020408102000004141E8
:10061000417F0004020102040040404040400000CD
:1006200003070800002054547840007F28444438D1
:1006300000384444442800384444287F0038545447
:1006400054180000087E0902001824241C78007F3A
:10065000080404780000447D4000002040403D0034
:10066000007F102844000000417F4000007C047897
:100670000478007C08040478003844444438007C42
:100680001824241800182424187C007C080404086A
:100690000048545454240004043F4424003C404087
:1006A000207C001C2040201C003C4030403C00448A
:1006B00028102844004C9090907C004464544C4492
:1006C00000000836410000000077000000004136BD
:1006D0000800000201020402003C2623263C000020
:1006E000000000000000000000000000000000C04A
:1006F000E0F0F8F81800C0F0FCFEFFFFFFFFFFFF7E
:10070000FF7E00000000000000000080C0E0E0E08C
:10071000E0E0E0E0E0C0800000000080C0E0E0E059
:10072000E0E0E0E0E0C080000000E0E0C0C0E0E029
:10073000E0E00000E0E0C0C0E0E0E0E0E0C0800019
:1007400000000080C0E0E0E0E0E0E0E0E0C0800029
:1007500000000000000000000000000000E0F0F0D9
:10076000F0E0ECEEF7F37020007C7C7C7E007E7E77
:100770007E7F7F7F000080C0E07E5B4F5BFEC0001D
:1007800000C000DCD7DEDEDED7DC00C000000000E9
:100790000000000000000000000000000000000059
:1007A0000000000000000000F8FCFEFFE000FFFF7A
:1007B000FFFFFFFF80FFFFFFFFFFFFFFFFFF1F07A0
:1007C00001000000000000000000FFFFFF810000AA
:1007D0000000000081C3C3C30000FFFFFF810000D1
:1007E0000000000081FFFFFF0000FFFFFF0100008D
:1007F00000000000FFFFFF010000000001FFFFFFFD
:100800000000FFFFFF9D1C1C1C1C1C1C9DDFDFDF6C
:10081000000000000000000000000000000F1F3F6B
:100820007F7F7F7F7F3F1E0C001F1F1F3F003F3FCA
:100830003F7F7F7F00307B7F7830202030787F3B88
:100840000003000F7F0F0F0F7F0F00030000000059
:100850000000000000000000000000000000000098
:100860000000000000000000030F1F3F3F3F3F1F3C
:100870001F3F3F7F7F7F3F3F1F3F7F7F7F7F7C7892
:1008800078381C0F00000000000000010307070774
:100890000707070707030100000000010307070718
:1008A000070707070703010000000707070000000C
:1008B000000000000707070000000000000707070E
:1008C00000000001030707070707070707030100E8
:1008D0000000000000000000000000000000000018
:1008E0000000000000000000000000000000000008
:1008F00000000000000000000000000000000000F8
:1009000000000000000000000000000000000000E7
:1009100000000000000000000000000000000022B5
:1009200023252628292A2C2D2F3032333536383AE4
:100930003B3D3E4042434547494A4C4E505153553A
:1009400057595A5C5E6062646668696B6D6F71735B
:100950007577797B7D7F81838587898A8C8E90925C
:100960009496989A9C9E9FA1A3A5A7A8AAACAEAF67
:10097000B1B3B4B6B8B9BBBCBEBFC1C2C3C5C6C7AC
:10098000C9CACBCCCDCED0D1D2D2D3D4D5D6D7D75D
:10099000D8D9D9DADADBDBDBDCDCDCDCDCDDDDDDA5
:1009A000DDDCDCDCDCDCDBDBDBDADAD9D9D8D7D7A1
:1009B000D6D5D4D3D2D2D1D0CECDCCCBCAC9C7C64E
:1009C000C5C3C2C1BFBEBCBBB9B8B6B4B3B1AFAE8C
:1009D000ACAAA8A7A5A3A19F9E9C9A989694929032
:1009E0008E8C8A89878583817F7D7B79777573710A
:1009F0006F6D6B6968666462605E5C5A59575553E7
:100A000051504E4C4A4947454342403E3D3B3A389F
:100A100036353332302F2D2C2A2928262523222B18
:100A20000014001A00080015001700E0000400166A
:100A300000070009000A00E1001D001B0006001964
:100A4000000500000000000000E300105F2C002AF9
:100A500000130012000C0018001C00340033000FBB
:100A6000000E000D000B0029003800370036001082
:100A7000001100000000000000E600115F28002BBC
:100A8000001E001F00200021002200E000000000E6
:100A900000000000000000E1000000000000000075
:100AA000000000000000000000E30001002C002A0C
:100AB0000027002600250024002300000000004F2E
:100AC0000052005100500000000000000000000033
:100AD000000000000000000000E600010028002BDC
:100AE000001E021F02200221022202E0000000007C
:100AF00000000000000000E1000000000000000015
:100B0000000000000000000000E30001002C002AAB
:100B1000002702260225022402230235003100307C
:100B2000002F002E002D003502310230022F022E40
:100B3000022D02000000000000E600010028000075
:100B40005C00000000000000000000C25CC55CC743
:100B50005CC95C00000000C35CC65CC85CCA5C0089
:100B6000000000000000000000E30001002C000075
:100B70000000000000000000000000000000000075
:100B80000000000000000000000000000000000065
:100B9000000000000000000000E600010028000046
:100BA000AF00010101010101010101020202020283
:100BB0000202020203030303030303030404040405
:100BC00004040405050505050606060606070707CD
:100BD000070708080808090909090A0A0A0B0B0B84
:100BE0000C0C0C0D0D0D0E0E0E0F0F0F1010111121
:100BF00011121213131414151516161717181819A5
:100C0000191A1A1B1B1C1D1D1E1E1F20202122220B
:100C1000232424252626272829292A2B2C2D2D2E4E
:100C20002F30313232333435363738393A3B3C3D68
:100C30003E3F404142434445464748494A4C4D4E59
:100C40004F50515354555658595A5B5D5E5F61621F
:100C500064656668696B6C6D6F7072737577787AAE
:100C60007B7D7E8082838587888A8C8E8F91939509
:100C700096989A9C9EA0A2A3A5A7A9ABADAFB1B32D
:100C8000B5B7BABCBEC0C2C4C6C9CBCDCFD1D4D60D
:100C9000D8DBDDDFE2E4E7E9EBEEF0F3F5F8FAFDAF
:100CA000FFFFAA7F554011241FBECFEFDAE0DEBF61
:100CB000CDBF04B603FE27C080911F069091200689
:100CC000A0912106B09122068730904BA740B04BEF
:100CD000D1F410921F061092200610922106109255
:100CE000220614BE84B7877F84BF0FB6F894A895F8
:100CF00080916000886180936000109260000FBE58
:100D0000E0E0F8E3099512E0A0E0B1E0EEE7FAE6F2
:100D100002C005900D92A831B107D9F726E0A8E1ED
:100D2000B2E001C01D92AF31B207E1F70E94A60EFA
:100D30000C943D350C940000882379F19CEF980FBA
:100D4000913A30F4682F8BEA95E00E94062514C092
:100D500090E2980F983090F4877021E030E0A9017C
:100D600002C0440F551F8A95E2F7CA018095909101
:100D700018068923809318060C9444279BE5980F46
:100D8000933020F480E090E00C947925885A8731E4
:100D900020F480E090E00C9463250895CF9388239D
:100DA00009F46DC09CEF980F913AC8F5C82F809157
:100DB0003A018823E1F08091A60587FF18C0EC2F47
:100DC000E695E695E695F0E0E555FA4F8281282F05
:100DD00030E04C2F477081E090E002C0880F991FEF
:100DE0004A95E2F782239323892B61F412C0EDEA3E
:100DF000F5E083EB95E02191C21721F08E179F0754
:100E0000D1F707C06C2F8BEA95E00E9406250E945F
:100E100044276C2F8BEA95E00E942E2513C090E2A8
:100E2000980F983090F4877021E030E0A90102C05B
:100E3000440F551F8A95E2F7CA0190911806892B35
:100E400080931806CF910C944427EBE5E80FE3302C
:100E500040F4F0E0EF54FE4F808190E0CF910C948D
:100E60007925885A873158F4E82FF0E0EE0FFF1FFC
:100E7000EC54FE4F80819181CF910C946325CF91EA
:100E800008951F93CF93DF93CDB7DEB767970FB663
:100E9000F894DEBF0FBECDBF4B8B5C8B6D8B7E8B12
:100EA0008F8B61111092170686E09E01235F3F4FE2
:100EB000D901E82F1D92EA95E9F795E0FE017396B6
:100EC000D90101900D929A95E1F79C894E895F892D
:100ED0007B897D879E876F87598B488BF901DE015F
:100EE000179601900D928A95E1F7CE0107960E9420
:100EF000902881113EC086E0FE013796DE011196F2
:100F000001900D928A95E1F7FF81E8856A857B85DE
:100F10006115710531F0EF3F31F481E0FF3F19F4C5
:100F200003C081E001C080E080FD23C02091E30583
:100F300030E0C9010196877099274091140650E06E
:100F40008417950779F1F983EA837D836C8396E0B2
:100F5000929FD001939FB00D1124AC51BA4FFE0166
:100F6000319601900D929A95E1F78093E3050E94E6
:100F7000B22716E0809114069091E3058917F9F0E5
:100F8000189FC00111248C519A4F0E9490288823E9
:100F9000B1F08091140690E00196877099278093B4
:100FA0001406E8CF0E94C62A1092E3051092140698
:100FB000EDEDF5E086E0DF011D928A95E9F7679691
:100FC0000FB6F894DEBF0FBECDBFDF91CF911F915A
:100FD00008953F924F925F926F927F928F929F926D
:100FE000AF92BF92CF92DF92EF92FF920F931F9337
:100FF000CF93DF93CDB7DEB729970FB6F894DEBF56
:101000000FBECDBFFC018081918123813481232BD0
:1010100031F09F3F31F491E08F3F19F403C091E02C
:1010200001C090E090FD7AC67F0185E0DE01119657
:1010300001900D928A95E1F7F701228189819A81C9
:10104000222349F00E942828182F682F89819A812D
:101050000E945E2A03C00E94312A182F69817A817A
:10106000812F0E94D2268C01F7018281882309F406
:10107000F1C0C80182519F45409708F06DC58FEFC0
:1010800093E00E944C318111EEC0025137EA832E69
:1010900099249394002379F08114F4E09F0609F4D5
:1010A000E2C0C4010E944C31811101C001502FEFF8
:1010B000821A920AEFCF1E821F8218861986442454
:1010C00043942AE0322E84010F5F1F4FC4010E9417
:1010D0004C318E831F82882309F4C5C09FEF980F7F
:1010E000933060F48F834E8232E0830E911CC801EE
:1010F0000E944C318887811102C0B5C048018E0121
:101100000A5F1F4FF80120812223E9F2213009F004
:101110004CC08181813049F46801F2E0CF0ED11CCE
:10112000F80182810E94F02A0AC0823051F46801DD
:10113000F2E0CF0ED11CF80182810E94CE0686011A
:1011400086C0833049F46801F2E0CF0ED11CF8016B
:1011500082810E949C06F3CF843019F00F5F1F4FED
:1011600076C0F80122810E5F1F4F80E090E030E0F2
:10117000205331092A30310568F4389EA001399E88
:10118000500D1124C901840F951F0F5F1F4FF801E7
:101190002081EDCF009709F45AC0EFE9FFE03197C5
:1011A000F1F700C000000197F5CFE22FF0E0E85919
:1011B000FE4F5490822F86958695869590E0FC018F
:1011C000E85AFE4F64902770712C022E02C075946D
:1011D00067940A94E2F7F1E06F227724FC01E85B60
:1011E000FE4FA490B12C022E02C0B594A7940A948D
:1011F000E2F731E0A322BB24FC01E85CFE4FC4907F
:10120000D12C02C0D594C7942A95E2F781E0C82278
:10121000DD246114710419F081EE0E94CE06A11440
:10122000B10419F086EE0E94CE06852D0E94F02AA8
:10123000AB2819F086EE0E949C06672819F081EE13
:101240000E949C06CD2819F08CE20E94F02A0F5FC4
:101250001F4F58CF0031FFE51F0749F581E00E947D
:101260008E2A0E94341C80911506877009F456C599
:10127000F7018281882309F451C582E029960FB6CF
:10128000F894DEBF0FBECDBFDF91CF911F910F91BC
:10129000FF90EF90DF90CF90BF90AF909F908F9096
:1012A0007F906F905F904F903F900C949A2A0131FD
:1012B0002FE51207A1F582E0D2CFC8019056811523
:1012C000904230F0C80190548115904108F053C409
:1012D000C80199278C33910508F04FC4FC01E15AED
:1012E000FE4F20811F922F939F938F93F701808150
:1012F0001F928F9381811F928F938EE491E09F9331
:101300008F931F9288E18F9389E292E09F938F934E
:101310000E9445320FB6F894DEBF0FBECDBF033F2B
:101320003CE5130759F190F4083D9CE51907E9F0F5
:10133000093DECE51E07A1F1073DFCE51F07B1F5EE
:1013400006E221EE41EE67ED7CE514C0053F2CE599
:10135000120701F1C8F0063F8CE5180739F507E2DE
:1013600025EE46EE66EF7CE505C007E225EE45EE8C
:1013700068ED7CE5C7010E949F2575CF06E221EE4E
:1013800040EE63EF7CE5F6CF07E225EE44EE64EF36
:101390007CE5F0CF06E221EE42EE65EF7CE5EACF98
:1013A00008E221E045EE69ED7CE5E4CFF7018281BA
:1013B000882309F445C1109296050330FDE51F0707
:1013C00058F40A3F2CE5120760F4C80182509C458E
:1013D000449708F01FC105C001363DE5130709F029
:1013E00019C10E949C189093A7058093A60500310F
:1013F0008CE5180709F4CAC008F041C00830ECE5D4
:101400001E0709F4A4C0F0F404302CE5120709F417
:101410008CC068F402308CE5180709F482C00330F0
:101420001C4509F0E7C08091A6058260E1C0063046
:10143000ECE51E0709F483C008F085C08091A6057D
:101440008860D6C00C302CE5120709F490C068F40F
:101450000A308CE5180709F47EC008F084C00E94A9
:10146000C62A8091A6058068C3C00E30ECE51E0731
:1014700009F481C008F086C08091A60594C00C3F95
:101480002CE5120709F47BC038F504318CE5180708
:1014900009F49AC058F40231ECE51E0709F47AC049
:1014A00008F07EC08091A6058F7BA2C00A3F2CE584
:1014B0001207F1F108F03FC005311C4509F09AC050
:1014C0008091A60582FB222720F991E0922790FBCC
:1014D00082F990FB83F98CC001159DE5190709F489
:1014E00067C050F48091A7050E3FFCE51F07C1F1CE
:1014F00008F05BC08D7F65C002303DE5130709F43D
:1015000071C008F46DC001361D4509F073C08091AB
:10151000A60584FB222720F991E0922790FB84F90D
:1015200067C08091A605816063C08091A60516C042
:101530008091A70516C08091A705826042C0809166
:10154000A605806155C08091A605806251C080913A
:10155000A60580644DC08091A6058860846048C05F
:10156000826081602EC08091A6058E7F41C08091EF
:10157000A6058D7F3DC08091A605877F39C08091EB
:10158000A70514C08091A6058F7E32C08091A60564
:101590008F7D2EC00E94C62A8091A6058F7728C015
:1015A0008091A605877F8B7F23C08D7F8E7F09C0AA
:1015B0008091A705982F909591708E7F892B90FB35
:1015C00081F98093A70516C00E94C62A8091A605BE
:1015D00087FB222720F991E0922790FB87F908C02A
:1015E00061E001C060E08EE090E00E94603102C0E6
:1015F0008093A6056091A6051091A70584E090E070
:101600000E946031612F82E290E00E9460310E946E
:10161000C62A29CE0631FCE51F0721F58091180660
:101620008A7A91E009F490E090931A02882311F0ED
:1016300065E301C069E28BEA95E00E942E250FC0A8
:101640000631ECE51E0709F040C080911A0288239C
:1016500009F495C265E38BEA95E00E9406250E9495
:10166000442701CE0A353DE5130749F158F4011529
:101670009CE51907B1F00E3D1C4509F042C00E94DF
:10168000B818F1CD0B35FDE51F07D9F00C351D4518
:10169000C1F58091A70582FB882780F991E0892711
:1016A00011C00E94C62A3FEF84E39CE03150804085
:1016B0009040E1F700C000000E945B24D4CD81E09F
:1016C00001C080E00E9498271CC080911806827299
:1016D0000C3CECE51E0709F401C308F082C2063C8D
:1016E0002CE5120709F4E6C208F059C2033C9CE558
:1016F000190709F4D5C208F044C2023C1C4509F49C
:10170000A5C2F701828100811181882349F0C801B7
:101710000E942828D82E682FC8010E945E2A04C083
:10172000C8010E94312AD82EB8018D2D0E94D226E0
:101730000E9413178C01982EF701B280A580A29405
:101740009FE0A92280911506877099F0BB2089F04F
:10175000812F807F803421F080E2800F883048F034
:1017600082E00E949A2A809115068770DD24D39426
:101770008111D12CC12EC2948FE0C8228C2D90E013
:101780008C30910508F0B3C1FC01EA5AFF4F0C946C
:10179000E431812F807F1F70882311F01295107F14
:1017A000BB20B9F0112309F48EC180E2800F88308C
:1017B00010F0911006C080911806182B109318068F
:1017C00005C080911706182B109317060E94442716
:1017D0007AC1802F0E949C06112309F488C1005E03
:1017E0001095083010F0911006C08091180618234B
:1017F0001093180605C0809117061823109317063A
:101800000E94442774C1812F807F1F70803211F0A5
:101810001295107F992021F0F1E09F1611F130C050
:10182000BB20B1F0AA2081F021E0A2120DC080916E
:10183000A70582FD5CC180917802182B181709F466
:1018400056C11093780253C180917802812B10C049
:10185000AA2021F031E0A31609F449C10E942219FF
:1018600027C0BB2041F085E08A1508F440C1812FD4
:101870000E94E62A3CC194E09A1508F438C118C0C9
:10188000BB2049F0AA2099F3F701858180FF1BC195
:101890008F708583ECCFAA2059F0093309F024C159
:1018A000FFEF27EE33E0F15020403040E1F71AC15E
:1018B000812F0E94DB2A1BC1812F8695869583701C
:1018C00019F0813059F013C1BB2019F0C801937091
:1018D00002C080E090E00E9479250FC1BB2019F082
:1018E000C801937002C080E090E00E94632505C1AA
:1018F000812F8370A9F5B110FEC0402F4295469507
:101900004770440F440F802F8F7090E09C01042E8D
:1019100001C0220F0A94EAF704FF08C08FE090E0AC
:1019200001C0880F4A95EAF7809501C080E01695BE
:1019300016951370123069F088F490917902113085
:1019400019F0822B892302C0922B892B0E94C22A74
:10195000D2C0822B909179028927F8CF822BF6CFC3
:10196000BB2019F0812F817001C08695882309F46E
:10197000C2C0402F429546954770440F440F802FB8
:101980008F7090E09C01042E01C0220F0A94EAF7A8
:1019900004FF08C08FE090E001C0880F4A95EAF785
:1019A000809501C080E0169516951370123059F09D
:1019B00078F49091D502113019F0822B892309C057
:1019C000922B892B06C0822B9091D502892701C0CA
:1019D000822B0E948A2A8FC01F70BB2039F0812F72
:1019E0000E94B72A802F0E94E62A85C0802F0E947D
:1019F000DB2A812F0E948E2A7EC0802F92EF9916BB
:101A000059F1991538F0E0EF9E1659F0F1EF9F1655
:101A1000F1F055C023EF921631F134EF931681F1B6
:101A20004EC0BB2079F084E08A1508F460C01F71B5
:101A300081E090E001C0880F1A95EAF79091D502F5
:101A400089271BC095E09A1508F451C0F0CFBB2040
:101A500029F0812F8F7126C0BB20D9F3812F8F7180
:101A60000E948E2A44C0BB2039F01F7181E001C062
:101A7000880F1A95EAF701C080E00E948A2A37C0D1
:101A8000BB2099F01F71812F0E94B72A8091A70572
:101A900082FD07C0E8E01E9FC0011124836080938F
:101AA0001506812F0E94B72A22C081E00E949A2A3F
:101AB000F1E0FA15E0F482E00E949A2A18C0BB20F7
:101AC00031F0AA2031F2802F0E94CE0610C0AA2049
:101AD00029F2893349F42FEF37EE83E0215030406B
:101AE0008040E1F700C00000802F0E949C0688EF34
:101AF0008C0D843010F40E948F25DD2009F40EC176
:101B00008091150680FD0AC1F701128285958595A1
:101B100085950E94B72AC7010E94E90780911506A2
:101B200085958595859529960FB6F894DEBF0FBEED
:101B3000CDBFDF91CF911F910F91FF90EF90DF907C
:101B4000CF90BF90AF909F908F907F906F905F905D
:101B50004F903F900C948E2A00318FE5180711F4B6
:101B600081E006C001319FE5190709F0A6CB82E0AC
:101B70000E94B72A76CBC801ADCB20E2B3CB69E295
:101B80006ACD043C2CE5120709F48FC0053C1C45C6
:101B900009F0B7CD42E85DE26BE87DE2A3C0093C05
:101BA0009CE5190709F490C070F4073CFCE51F0799
:101BB00009F485C0083C1C4509F0A3CD46E75DE269
:101BC0006AE67DE28FC00A3C3CE5130709F481C058
:101BD0000B3C1C4509F095CD4CEB5BE26DEC7BE2D8
:101BE00081C0013DECE51E0709F488C098F40E3C65
:101BF0002CE5120709F47CC008F477C00F3C8CE593
:101C0000180709F478C0003D1C4509F07ACD6EE054
:101C100089E07CC0043DECE51E0709F475C060F462
:101C2000023D2CE5120709F46CC0033D1C4509F088
:101C300068CD61E088E16FC0053D8CE5180709F4C7
:101C400068C00D351D4509F40ECB5BCD809189052B
:101C500080FF20C08E7F80938905609189057091F7
:101C60008A0580918B0590918C050E94AA2B0E9479
:101C70003D278091E30481608093E304EFEFF0E778
:101C800022E0E150F0402040E1F700C000000E9457
:101C9000292BE9CA81608093890561E086953BC064
:101CA0004BEE5DE264EF7DE21DC044EF5DE26BEE62
:101CB0007DE218C04BE85DE262E87DE213C04AE6CF
:101CC0005DE266E77DE20EC042E55DE26EE57DE243
:101CD00009C04EE55DE262E57DE204C04DEC5BE2E9
:101CE0006CEB7BE20E943727BECA61E081E013C043
:101CF00065E082E00BC068E086E008C064E18FE048
:101D000005C067E185E102C062E289E10E94252702
:101D1000AACA61E083E20E94AB2DA5CA29960FB63C
:101D2000F894DEBF0FBECDBFDF91CF911F910F9111
:101D3000FF90EF90DF90CF90BF90AF909F908F90EB
:101D40007F906F905F904F903F900895CF93DF9377
:101D5000CDB7DEB7AC970FB6F894DEBF0FBECDBFE0
:101D600084B7877F84BF0FB6F894A89580916000F0
:101D7000886180936000109260000FBE90E080E860
:101D80000FB6F89480936100909361000FBE85B701
:101D9000806885BF85B7806885BF80EE94E19093A9
:101DA0001902809318020E94951F0E94B41F80910F
:101DB000E20084608093E20078948091CB028823D3
:101DC000A1F01091E9001F709091EC00892F8170B3
:101DD00090FD80E8182B1092E9008091E80083FDC7
:101DE0000E947F1C1F701093E90082E084BD93E085
:101DF00095BD9AEF97BD80936E0010929D0510924D
:101E00009E0510929F051092A0050E940C2781113B
:101E100002C00E94FD260E94D91680930001809185
:101E20000001882321F010923E018BE103C08BE179
:101E300080933E0180933F010E94D91681110E9438
:101E40006A2F8091000180910001882311F090E0B9
:101E500001C094E09093240284E0891B80932302C4
:101E60000BE911E0D8018D918D018F3F11F00E9497
:101E7000FC16B1E00F391B07A9F703EA11E079EA74
:101E8000E72E71E0F72EF80181918F018F3F11F05D
:101E90000E94FC16E016F106B1F7EBE1F2E083E2F6
:101EA00092E0AFE6B2E011921D928E179F07D9F72C
:101EB0000E94AD18811102C00E94B81882E090E023
:101EC0000E944C31809366020E949C189093A70553
:101ED0008093A6050E9428198FE39CE90197F1F7EA
:101EE00000C000000E9428190E94D916882311F012
:101EF000E0E001C0E4E0F0E0E159FD4F808181FFC6
:101F000008C06FEF7FEF80E090E00E947E310E947A
:101F10005B2483E090E00E944C310E94C22A0E9420
:101F2000D916811102C00E946D2F0E94D91681110D
:101F300002C082E001C080E08093610280E880936B
:101F4000D6020E94FE2D6DE070E08BEF91E00E94C2
:101F5000561C892B09F043C08091610263E070E058
:101F600081FD3AC088EF91E00E94561C892BB9F59B
:101F70006DE070E088EE91E00E94561C892B79F5A7
:101F80000E94A124DC01CB01805A9541AF4FBF4F85
:101F900080938E0590938F05A0939005B093910543
:101FA000E9EDF2E080E092E0DF019C011D9221501A
:101FB0003040E1F7F093E004E093DF048FEF9FEF10
:101FC0009093D8028093D70281E080939305809309
:101FD00092051092620203C085EF91E0C5CF809117
:101FE0002502811138C00E94AD18811104C00E94E1
:101FF000B8180E94DE2B88E090E00E945431609374
:10200000890570938A0580938B0590938C05809148
:10201000E30483608093E3046E7F71F40E94DE2BFF
:1020200088E090E00E9454316093890570938A059E
:1020300080938B0590938C050E94902B0E943D27E6
:102040008091890580FF04C060E086950E94AB2DD9
:1020500081E08093250281E091E090939A0580933E
:102060009905CE0101967C011E019BE0290E311CD1
:102070008091CB02853009F044C000E112E18091EB
:10208000CB02853009F039C08091CB02843021F138
:102090001092A105A8E1B0E0E0E40FB6F894A8958D
:1020A000A09360000FBEE093600083B7817F8460DF
:1020B00083BF83B7816083BF7894889583B78E7F11
:1020C00083BF0FB6F894A8958091600088618093D3
:1020D0006000109260000FBE8091CA02882309F44C
:1020E000CECF0E942819EFE6F2E08191811149C418
:1020F00022E0E737F207C9F7C2CF0E94C62A0E9442
:102100008F250E942819B82E81110E94A124E7E68C
:10211000F2E0AFE6B2E000E010E0902EAD908191E9
:102120008A2549F1C12CDD24D394982F9D21F1F00B
:102130000E94D916882399F0C9A29AA2AD2081E005
:1021400009F480E08BA30E94AD248160782F9DA3C9
:102150008CA349A15AA16BA18DA10E944107F8014E
:10216000E959FD4F8081D826D0821AC0C394DD0C76
:1021700036E0C312DACF0F5F1F4F0830110569F642
:102180008FEF8EA38FA318A60E94AD248160782FB5
:102190009AA789A74EA15FA168A58AA50E944107B9
:1021A0008091E204882309F4BDC08091E104E091AC
:1021B0008905E695E81BE0931B06823059F4F0E0B0
:1021C000EA5EFD4FE4910E2F10E06DE1862E64E291
:1021D000962E59C0863059F4F0E0ED5EFD4FE49143
:1021E0000E2F10E05DE0852E54E2952E4CC0893014
:1021F00061F4E695F0E0E05FFD4FE4910E2F10E012
:102200004FE8842E43E2942E3EC08F3061F4E69571
:10221000F0E0E35FFD4FE4910E2F10E030EF832EEE
:1022200032E2932E30C0853159F4F0E0E65FFD4F85
:10223000E4910E2F10E027E6822E22E2922E23C098
:102240008831A1F0833249F4E8E0F2E0059114917D
:102250009DEC892E93E2992E16C0843271F000ED28
:1022600017E089E4882E81E2982E0DC008E210E084
:10227000B1ED8B2EB1E29B2E06C004EF11E0AFE86A
:102280008A2EA1E29A2E80911C06882361F010927A
:102290001C060E94FD2490931A0680931906109242
:1022A0001E0610921D060E94FD24E0911906F09171
:1022B0001A069C012E1B3F0B2F3F3F4798F520919C
:1022C00028022223B1F01092280220912602309198
:1022D0002702821B930B8F3F9F4758F4205D3A489B
:1022E00030932702209326028091E3048860809334
:1022F000E304C0901D06D0901E060E0F1F1F109302
:102300001A060093190689E196E0F4010995809177
:102310001D0690911E06892B29F4CD2819F081E025
:102320008093280280919305882309F465C18091E8
:102330006302909164020E949224C29708F449C0FB
:102340000E94AD24909364028093630289ED92E031
:102350009093E0048093DF040E94D9168823A9F1AA
:1023600085E392E00E94261CE091D5028E2F90E03A
:102370008F309105A8F4FC01EE59FF4F0C94E43125
:102380008DE292E008C087E292E005C081E292E02F
:1023900002C08AE192E00E94261C81E00E94382659
:1023A000E9E2F2E001900020E9F78F010150110904
:1023B000F9E2CF2EF2E0DF2EC016D10650F4D6019E
:1023C0008D916D010E94A61BF7CF8DE392E00E94D4
:1023D000261C80919305882309F4E3C02091D7023D
:1023E0003091D8022115310509F4DBC080916202D9
:1023F0008111D7C0482E512CCC24C394D12C082E47
:1024000002C0CC0CDD1C0A94E2F7A9014C215D212D
:10241000452B11F48F5FEECF90916102920175E030
:10242000220F331F7A95E1F790FD12C08295880F35
:10243000807680930D01220F232F221F330B3195BD
:1024400020931001815E80930E011092110112C041
:1024500055E0369527955A95E1F7220F220F220F66
:1024600020930D0110921001295F20930E0183E04B
:102470008093110124E630E047E050E06BE071E02A
:1024800088E70E94B52E892B09F08BC080916102EC
:1024900080FD23C0C20145E0880F991F4A95E1F7EE
:1024A000AC0147525D4F04E610E020E230E060E40A
:1024B00088E70E94DC2E892B09F073C00E94122647
:1024C000C094D0948091D7029091D802C822D9228A
:1024D000D092D802C092D70264C080E2E1E4F2E078
:1024E000DF011D928A95E9F735E0440C551C3A95B9
:1024F000E1F7EDEAF1E0FCA7EBA769EA71E0ABA533
:10250000BCA58D91BCA7ABA7FB019191BF01A20116
:10251000490F511D47525D4F90E08F5B9D4FFC016D
:1025200027E0922E9F01281B390B7724739401C05A
:10253000770C2A95EAF78A01812CD801AD908D019C
:10254000A720292D28192770622E022E000C330B8C
:10255000BA2D01C0BB0F6A94EAF76B2E3195219515
:1025600031092770332701C0A6942A95EAF76A2813
:10257000A0806A286082839428E08212DECF9A9439
:1025800031963FEF9312CECF8BA59CA5815B9140F6
:1025900009F0B5CF04E610E020E230E041E452E07B
:1025A00086CF80919205882339F10E94A124009161
:1025B0008E0510918F052091900530919105DC01D9
:1025C000CB01801B910BA20BB30B8F3F9F4FAF4FE3
:1025D000BF4790F480919305882371F08091920514
:1025E000882351F062E070E08DE792E00E94561C73
:1025F000892B11F410929205B1100E9412260E94AC
:102600008F2590916502891721F00E948F25809374
:1026100065028091CB02843009F02ACD83E080935B
:10262000E9008091E80082FF23CD8091E80085FFDA
:1026300023C00E94EA2081111DC080E2C82ED12C47
:102640008E010F5F1F4F09C08091F100D8018D935B
:102650008D01B1E0CB1AD10869F08091E80085FDC9
:10266000F3CF8091E8008B778093E8000E94EA2006
:10267000882399F391E001C090E08091E8008B7786
:102680008093E800992309F4F3CCE9818E2F90E040
:10269000FC013197E331F10508F04BC1EF58FF4FD2
:1026A0000C94E4311A8289E0A5C08A81823009F451
:1026B0007EC1833051F0813009F03BC10E94A124DA
:1026C0009B838C837D836E8336C1FE013396AFE698
:1026D000B2E08D9181932E163F06D9F72CC18A81E5
:1026E000823009F026C16B817C818D819E810E94A0
:1026F000EA3186E290E024C04C816B818A810E949D
:10270000AC269D835BC10D811E81102701271027F8
:102710008C81CB809A81ECE0CE9E60011124F0E6A2
:102720009F9FC00CD11C1124C80ED11CC80ED11CF7
:10273000612FC60187960E946031602FC60188967E
:102740000E946031F8C00E947826F5C08A818138E5
:10275000B1F050F4803809F0EEC020E04B81609178
:102760008B0580918A0523C08238E9F0833809F00F
:10277000E2C020E040918C056C818B8118C060E044
:102780008B810E94AB2D8B81811103C00E94942DFF
:10279000D2C08091890581608093890560E086952B
:1027A0000E94AB2DC8C08B8180938D05C4C00E9450
:1027B000A92CC1C08A81813899F030F4803809F0A1
:1027C000BAC080918C0516C0823891F0833809F028
:1027D000B2C080918A058B8380918B058C83ABC0BE
:1027E0008091890580FF02C0869504C080E002C008
:1027F00080918D058B839FC06091890570918A05BA
:1028000080918B0590918C050E94AA2B94C080E149
:102810004DC082E08A8389E5EDCF0A811B811027B4
:1028200001271027AC80B12C6701C80189559E4F44
:1028300096012E193F092A153B0508F07CC0093581
:1028400022E0120730F40E944C31D60114968C938A
:1028500002C0F60114820F5F1F4FFFEFCF1ADF0A8D
:10286000E4CF0A811B81102701271027AC80B12CEF
:102870006701C80189559E4F96012E193F092A15F7
:102880003B0508F058C0093522E0120728F4D601AC
:1028900014966C910E9460310F5F1F4FBFEFCB1AEF
:1028A000DB0AE7CF0E94682646C084E08A8343C0E3
:1028B0000A811B81102701271027AC80B12C6701EA
:1028C000C801879696012E193F092A153B0598F5F0
:1028D0000038E1E01E0730F40E944C31D601149616
:1028E0008C9302C0F60114820F5F1F4FFFEFCF1AC7
:1028F000DF0AE6CF0A811B81102701271027AC8051
:10290000B12C6701C801879696012E193F092A1537
:102910003B0588F4003821E0120728F4D60114960C
:102920006C910E9460310F5F1F4FBFEFCB1ADB0A23
:10293000E9CF8FEF89838091CB02843009F098CB67
:102940001091E9001F709091EC00892F817090FD2B
:1029500080E8182B82E08093E9008091E80080FFF6
:102960000CC040E050E060E270E0C7010E941D2111
:102970008091E8008E778093E8001F701093E90043
:1029800077CB09BD19BD09B400FEFDCF8091D800F9
:102990008F7D8093D8008091E00082608093E0007A
:1029A0008091E00081FDFCCF0E94C62A68CB86E2C0
:1029B00090E00E944C311B821C821D828E83BBCF13
:1029C00080E008959091A60592FF0DC0282F2871F0
:1029D000283019F4877F846006C0282F24712430A2
:1029E00011F48B7F886093FF0DC0282F2871283148
:1029F00019F4877E846106C0282F2471243111F4D4
:102A00008B7E88612091A70520FF0DC0382F38717B
:102A1000383019F4877F816006C0382F317131302A
:102A200011F48E7F886021FF0DC0282F2871283176
:102A300019F4877E816106C0282F2171213111F49C
:102A40008E7E886194FD877E0895AF92BF92CF926B
:102A5000DF92EF92FF920F931F93CF93DF937C014E
:102A60005B016A018091A5028A3018F001E010E054
:102A700002C00AE010E0C1E0D0E0F894B501C7015F
:102A8000F60109957894811115C021960C171D0740
:102A900094F0CC9F9001CD9F300D300D112480E03B
:102AA00090E045E34A95F1F70000019682179307FD
:102AB000C1F7E3CF81E0DF91CF911F910F91FF909C
:102AC000EF90DF90CF90BF90AF900895CF93DF93BA
:102AD000CDB7DEB728970FB6F894DEBF0FBECDBFD7
:102AE00085E0E9E8F5E0DE01119601900D928A9506
:102AF000E1F78091E1049091E204A091E3048E83D8
:102B00009F83A88728854091A1025091A2026091DD
:102B1000A3027091A4023FB7F8948091A20590910E
:102B2000A305A091A405B091A5053FBF841B950BFB
:102B3000A60BB70B84369105A105B10510F422232D
:102B400029F1809133019091340180579D4F40913C
:102B5000320150E04930510510F048E050E0BE012C
:102B60006F5F7F4F0E943C3283E090E00E9477309D
:102B7000892B11F080E00DC00E94A1246093A10276
:102B80007093A2028093A3029093A4021092E30494
:102B900081E028960FB6F894DEBF0FBECDBFDF915F
:102BA000CF910895CF93DF9300D000D0CDB7DEB79B
:102BB00040918C0250918D0260918E0270918F0233
:102BC0002FB7F8948091A2059091A305A091A40538
:102BD000B091A5052FBF841B950BA60BB70B8436B0
:102BE0009105A105B10580F10E94E224DC01CB0131
:102BF0000296A11DB11D89839A83AB83BC8380910A
:102C0000290190912A0180579D4F4091280150E061
:102C10004530510510F044E050E0BE016F5F7F4F3A
:102C20000E943C3282E090E00E947730892B11F0C4
:102C300080E00BC00E94A12460938C0270938D02EF
:102C400080938E0290938F0281E00F900F900F90EF
:102C50000F90DF91CF910895EF92FF921F93CF9342
:102C6000DF9300D000D01F92CDB7DEB77B0180E0AC
:102C700090E00E947730892B09F065C040911701E0
:102C800050E04115510511F041E050E0609118010C
:102C90007091190160577D4FCE0105960E943C321C
:102CA000409188025091890260918A0270918B0252
:102CB0002FB7F8948091A2059091A305A091A40547
:102CC000B091A5052FBF841B950BA60BB70B8436BF
:102CD0009105A105B10538F481E992E00E943F1CFD
:102CE0009D81891791F181E090E00E947730892BD6
:102CF000A1F44091210150E04530510510F044E02D
:102D000050E0609122017091230160577D4FCE0108
:102D100001960E943C3211E001C010E081E992E08E
:102D20000E943F1C91E02D81281390E0192341F16E
:102D30000E94A124609388027093890280938A0282
:102D400090938B020FC010E001C011E080919102BE
:102D500090919202A0919302B091940289839A83F8
:102D6000AB83BC83112361F089819A81AB81BC81E3
:102D70008093840290938502A0938602B093870289
:102D80008091840290918502A0918602B091870281
:102D9000F70180839183A283B383812F0F900F90DB
:102DA0000F900F900F90DF91CF911F91FF90EF90B8
:102DB000089580918302811118C08091D8008061AC
:102DC0008093D8008AE18A95F1F700C08091D900FC
:102DD00080FD02C082E001C081E0809383028230E6
:102DE00021F40E94951F1092CB0281E09091830202
:102DF000913009F080E00895F894E82FE295EF70A3
:102E0000F0E031A1282F2F7081E090E001C0880F01
:102E10002A95EAF7982F9095932391A392A1892B55
:102E200082A378940895CF93DF938238910569F156
:102E3000B0F48133910509F46FC048F489329105EB
:102E400009F465C08A32910509F46BC08AC08533E4
:102E5000910509F457C089339105B9F082C0833ECA
:102E6000910571F138F4803E9105B1F0823E9105F3
:102E700011F177C0863E9105B9F1873E9105C9F100
:102E8000843E910509F06DC024C02091A60520FD67
:102E900053C021FD51C065C08091A60580FD46C08C
:102EA0008091A70580FF48C08091A60584FD3FC1A1
:102EB00083EE90E03EC18091A60582FF3AC0F4CF38
:102EC0008091A60582FD35C08091A70580FD34C0A4
:102ED000EBCF8091A70581FF35C08091A60584FDC9
:102EE00026C187EE90E025C18091A60583FF27C00B
:102EF000F4CF8091A60583FD22C08091A70581FDB6
:102F000021C0EBCF8091A60585FD1FC021C0809117
:102F1000A60585FD1DC019C08091A60586FD1BC0B4
:102F20001DC08091A60586FD19C015C089E390E0FB
:102F300000C182EE90E0FDC080EE90E0FAC086EE27
:102F400090E0F7C084EE90E0F4C089E290E0F1C038
:102F500085E390E0EEC08AE290E0EBC081E390E090
:102F6000E8C0811532E5930708F069C0811541E595
:102F7000940728F0982F8827816F906ADAC0883EDE
:102F8000910568F5803E910508F0D3C0883A910517
:102F9000B8F4853A910548F0855AE82FF0E0EF54EF
:102FA000FE4F808190E09064C4C08130910509F4A7
:102FB000BBC008F4BCC08430910508F4B8C0B9C0E7
:102FC0008F3B910508F0B3C0885AE82FF0E0EE0F70
:102FD000FF1FEC54FE4F808191819464AAC081153B
:102FE00020E59207F0F09C0174E0369527957A95DC
:102FF000E1F7922F9370482F437021E030E002C038
:10300000220F331F4A95E2F73C68392B8F70982FB7
:103010009695969540E2949FC0011124822B932BA4
:1030200088C0811530E4930718F09F70906A81C0C2
:103030009C013A9521153F4108F47BC078C0EC0112
:10304000C11586E5D807E8F5C11525E5D20748F092
:103050008C2F0E94E2148F7190E0982F8827906245
:1030600068C0C11534E5D30728F09C2F8827846FEA
:10307000906A5FC0AE01437055272C2F2695269588
:10308000C115D34578F481E090E002C0880F991F04
:103090004A95E2F740E2249F90011124822B932B62
:1030A0009C6847C081E090E002C0880F991F4A9554
:1030B000E2F740E2249F90011124822B932B9A681F
:1030C00038C0C1152AE5D207F8F4C11539E5D30790
:1030D00090F08C2F8F700E94E21494E0D695C795E3
:1030E0009A95E1F7CF70D0E0DC2FCC27D0699E0114
:1030F000282BC9011EC0C11548E5D407C0F09C2F7C
:103100008827806F906A15C0CE0190568115904235
:1031100070F48D2F8F710E94E214282F2F71CE0131
:1031200099279062922B05C081E090E002C080E078
:1031300090E0DF91CF910895CF9384E090E00E94DA
:103140004C31C82F82E290E00E944C312C2F30E0AD
:10315000A901582BCA01CF91089580E090E00E9408
:103160005A31893E9E4F11F40C940C2780E008954B
:1031700069EE7EEF80E090E00E947E3160E082E0C8
:1031800090E00E94603160E083E090E00E94603156
:103190001092790260E084E090E00E94603160E08B
:1031A00082E290E00E94603160E085E090E00E9461
:1031B000603160E086E090E00E9460316FEF87E070
:1031C00090E00E94603140E050E0BA0188E090E079
:1031D0000E94723160E08DE090E00E94603140E03A
:1031E00050E0BA0188E190E00E94723160E087E12E
:1031F00090E00E94603140E050E0BA018CE190E044
:103200000E94723160E070E080E290E00E947E31C6
:1032100040E050E0BA0188E190E00E94723180E025
:103220000E94DF260E94FD2640E050E0BA018FE0B8
:1032300090E00E94723140E050E0BA0183E190E0FA
:103240000C94723180917802811110927802089565
:103250007F928F929F92AF92BF92CF92DF92EF9226
:10326000FF920F931F93CF93DF93CDB7DEB72C97C9
:103270000FB6F894DEBF0FBECDBFAE014F5F5F4FFC
:103280007A0188E0DA011D928A95E9F70BE911E0ED
:103290006A018FE9882E81E0982EAA24A394B12C8C
:1032A000F80180818F3F09F448C0F894E82FE29537
:1032B000EF70F0E021A18F70A50102C0440F551FEF
:1032C0008A95E2F7CA01922F982B91A392A180953B
:1032D000892382A3789400C0E3EAF1E020E030E0A3
:1032E000712C81918F3FB9F0A82FA295AF70B0E0FB
:1032F00090964C9150E08F70DA0102C0B595A79579
:103300008A95E2F7A0FD07C08A2D022E01C0880F22
:103310000A94EAF701C080E0782A2F5F3F4F2630F9
:103320003105F9F6F80180818F3F11F00E94FC16FB
:10333000F0EAFA95F1F7D6017C920F5F1F4FBFEFCD
:10334000CB1ADB0A8016910609F0AACF48E050E0BC
:10335000B7018BE192E00E942F328C01892B41F062
:1033600088E0F701ABE1B2E001900D928A95E1F7B8
:10337000F09024020115110549F081E080937C0250
:103380000E94AD2490937B0280937A0280917C020C
:103390008823B9F080917A0290917B020E94922456
:1033A000059778F0ABE1B2E0EF2DF0E0E159FD4F89
:1033B0008FE192E02D9121938A179B07D9F7109204
:1033C0007C020115110509F0F0C00E94D916E091A8
:1033D0002402882309F46AC019861A861B861C8673
:1033E0000E2F10E001591D4F8091A5028A3058F42C
:1033F0004CE256E1BE01675F7F4FC8010E94251570
:10340000882311F10AC080917D0290917E020E9472
:103410009224843F914060F728C042ED55E1BE01FF
:10342000675F7F4FC8010E942515882369F046E633
:1034300055E1BE01675F7F4FC8010E9425158823B3
:1034400019F01092A5021CC08091A5028F3F19F0BF
:103450008F5F8093A5028091A5028A3088F00E9438
:10346000AD2490937E0280937D02E0912302F0E0F0
:10347000E159FD4F108211821282138201E097C040
:10348000E0912302F0E0E159FD4FDE0119969E0123
:10349000235F3F4F00E08D919081981711F080835A
:1034A00001E03196A217B307B1F781C0F0E0E1590E
:1034B000FD4FF89484E0A1E9B2E001900D928A9565
:1034C000E1F781E992E00E943F1C8093900278949A
:1034D000F894C0909502D0909602E0909702F090F8
:1034E000980280917F0290918002A0918102B09118
:1034F0008202C816D906EA06FB06D1F0C0927F0206
:10350000D0928002E0928102F09282020E94D9164B
:1035100081110EC00E94A124C61AD70AE80AF90A2E
:10352000C0929D05D0929E05E0929F05F092A00565
:103530007894F8948091A0028823A9F180FF10C0AC
:103540008091990280FF0AC09091890591609093C3
:10355000890560E086950E94AB2D02C00E94942DE3
:103560008091A00281FF09C020E040919C026091FF
:103570009B0280919A020E94A92C8091A00282FF56
:1035800009C080919F02882319F00E940E2B02C06F
:103590000E943D278091A00283FF03C081E08093B9
:1035A0001C061092A002789402C001E010E0802F67
:1035B0002C960FB6F894DEBF0FBECDBFDF91CF9132
:1035C0001F910F91FF90EF90DF90CF90BF90AF9041
:1035D0009F908F907F9008958091CD0287FF11C0BA
:1035E0008091E80082FD05C08091CB028111F8CF67
:1035F00011C08091E8008B770BC08091CB028823AB
:1036000049F08091E80080FFF8CF8091E8008E7744
:103610008093E8000895982F973068F59093E9001B
:10362000981739F07091EC002091ED005091F00066
:1036300003C0242F762F50E021FD02C09F5FECCF06
:103640003091EB003E7F3093EB003091ED003D7FF9
:103650003093ED003091EB0031603093EB007093CC
:10366000EC002093ED005093F0002091EE0027FD38
:10367000E5CF80E008958F708093E90081E00895A0
:103680002091D3023091D4022617370748F06115F4
:10369000710539F42091E8002E772093E80001C0ED
:1036A000B901FC0120E06115710579F18091CB022F
:1036B0008823F1F18530F1F18091E80083FD3CC071
:1036C0008091E80082FD2EC08091E80080FFEBCF62
:1036D0002091F3008091F20090E0922B611571052A
:1036E00051F08830910538F421912093F100615018
:1036F00071090196F3CF21E0089709F020E080914D
:10370000E8008E778093E800CECF2111CFCF0AC09A
:103710008091CB02882361F0853061F08091E800D0
:1037200083FD0AC08091E80082FFF2CF80E0089517
:1037300082E0089583E0089581E00895BC0184E06B
:103740000C943124BC0183E00C943124CF93DF939B
:103750008A3011F481E003C08D3029F480E0DF91DC
:10376000CF910C943826682F8091DF049091E0046B
:1037700026E0FC01A9EDB4E001900D922A95E1F755
:10378000603E30F026E0FC0111922A95E9F70AC06C
:10379000F6E06F9FB001112461527C4F46E050E08B
:1037A0000E944331C091DF04D091E00446E050E034
:1037B000BE0189ED94E00E942F32892B49F19E01D0
:1037C000295D3240A90185E0569547958A95E1F734
:1037D00081E090E0BC0102C0660F771F4A95E2F7D6
:1037E0004091D7025091D802462B572B2B5F3F4F69
:1037F00065E0369527956A95E1F702C0880F991F15
:103800002A95E2F7842B952B9093D8028093D702C8
:103810009E01235D32404091D602642F70E0C901C1
:103820000E942F31481B463010F4240F311D211502
:1038300082E0380710F020E030E027523D4F30930F
:10384000E0042093DF04DF91CF910895CF93DF93BD
:10385000EC01FE018491882321F00E94A61B219691
:10386000F8CFDF91CF9108958091D502982F96706F
:10387000963011F4886001C0877F0C948A2AFC017D
:10388000AC014C5F5F4F8FEF91E32191822728E0DD
:1038900030E087FF03C0880F892701C0880F2150BF
:1038A0003109B9F7E417F50781F70895EF92FF9210
:1038B0000F931F93CF93DF93EC017B0164E670E0DD
:1038C00088E70E94042E8C01EC0EFD1ECE15DF054C
:1038D00061F017FD0AC0FE01849164E670E00E9469
:1038E000852E8C012196892B89F30E94092FC8010E
:1038F000DF91CF911F910F91FF90EF9008951F934B
:10390000CF93DF93CDB7DEB7AA970FB6F894DEBF9B
:103910000FBECDBFEDECF2E08091F100819342E06B
:10392000E53DF407C9F78091CE02833009F462C007
:1039300030F4813071F0823009F49CC0B3C08A3019
:1039400009F488C08B3009F46DC0893009F0AAC031
:1039500020C08091CD02813A09F0A4C08091E80096
:10396000877F8093E8008091D1029091D202892BC9
:1039700021F460E289EA92E003C060E080E090E038
:1039800070E00E94401B8091E8008B778093E800F4
:1039900089C08091CD02813209F084C08091D1022A
:1039A0009091D202009719F0029709F07BC08091A4
:1039B000E800877F8093E8008091E80082FD05C0E1
:1039C0008091CB028111F8CF6DC02091F3008091DE
:1039D000F20090E0922B029729F48091F1008B7F06
:1039E000813021F48091F1008093A8028091E80059
:1039F0008B7754C08091CD02813A09F053C08091F9
:103A0000D1029091D202892B09F04CC08091E8003C
:103A1000877F8093E8008091E80080FFFCCF809151
:103A20003A0137C08091CD028132E1F58091D10217
:103A30009091D202892BB1F58091E800877F809325
:103A4000E8000E94EC1A8091CF0280933A010E9414
:103A5000C62A28C08091CD02813221F58091E800EC
:103A6000877F8093E8000E94EC1A8091D0028093B7
:103A7000A70218C08091CD02813AA1F48091E8009C
:103A8000877F8093E8008091E80080FFFCCF8091E1
:103A9000A7028093F1008091E8008E778093E80080
:103AA0000E94EC1A8091E80083FFDDC18091CD0275
:103AB0009091CE02492F50E04A30510508F0D3C111
:103AC000FA01EC57FF4F0C94E431803821F0823832
:103AD00009F0C9C108C08091C9029091CA02992316
:103AE00089F082600FC08091D1028F70873008F01A
:103AF000BAC18093E9008091EB0085FB882780F9AB
:103B00001092E9009091E800977F9093E8008093ED
:103B1000F1001092F10070C1282F2D7F09F0A3C190
:103B2000882319F0823061F09EC18091CF028130EC
:103B300009F099C1933009F080E08093CA022EC049
:103B40008091CF0281112AC08091D1028F702FEF16
:103B5000280F263008F087C18093E9002091EB0000
:103B600020FF1CC0933021F48091EB00806214C0D0
:103B70009091EB0090619093EB0021E030E0A9017F
:103B800002C0440F551F8A95E2F74093EA00109255
:103B9000EA008091EB0088608093EB001092E900CE
:103BA0008091E800877F8093E8000E94EC1A5BC157
:103BB000811159C11091CF021F778091E300807865
:103BC000812B8093E3008091E800877F8093E80059
:103BD0000E94EC1A8091E80080FFFCCF8091E30006
:103BE00080688093E300111102C082E001C083E08D
:103BF0008093CB0238C18058823008F034C12091C4
:103C0000CF023091D0022C3D53E0350779F583E0A7
:103C10008A838AE289834FB7F894DE01139620E005
:103C20003EE051E2E32FF0E050935700E49120FF93
:103C300003C0E295EF703F5FEF708E2F90E0EA30A7
:103C400010F0C79601C0C0968D939D932F5F2431CD
:103C500049F74FBF8091E800877F8093E8006AE2D0
:103C600070E0CE0101960E94401BB4C08091D10249
:103C70009091D202432F552743305105A9F068F4A3
:103C80004130510509F4FEC04230510509F0EBC046
:103C90008BE590E0EEE4F3E04BC04132510529F1B1
:103CA0004232510589F1DFC0C90199278130910560
:103CB000A1F058F0029709F0D6C0EBEBF3E0E491E5
:103CC0008E2F90E0EBEBF3E030C0EBEDF3E0E4910E
:103CD0008E2F90E0EBEDF3E028C0E9ECF3E0E49107
:103CE0008E2F90E0E9ECF3E020C08330910508F0DE
:103CF000BAC0880F991FFC01E351FE4F0190F0817B
:103D0000E02D89E090E014C08330910508F0ABC04D
:103D1000FC01EE0FFF1FE951FE4F0190F081E02DF5
:103D2000DC01AC51BE4F8C9190E0009709F49BC030
:103D30002091E800277F2093E8002091D302309162
:103D4000D4022817390708F4C90140E0009789F127
:103D50002091CB02222309F43DC02530D9F12091D6
:103D6000E80023FD37C02091E80022FD2FC02091FC
:103D7000E80020FFEBCF4091F3002091F20030E00B
:103D8000342B009759F02830310540F4449140938A
:103D9000F100319601972F5F3F4FF3CF41E028307C
:103DA000310509F040E02091E8002E772093E800EB
:103DB000CDCF4111CDCF0AC08091CB02882351F0E5
:103DC000853041F08091E80083FD04C08091E800D7
:103DD00082FFF2CF8091E8008B778093E80043C0A8
:103DE000803809F040C08091E800877F8093E80028
:103DF0008091CC028093F1008091E8008E77D3CE41
:103E0000811131C08091CF029091D0029927029701
:103E100054F58091E800877F8093E8001091CF02ED
:103E20001093CC020E94EC1A111106C08091E3009D
:103E300087FD02C081E001C084E08093CB0242E0B4
:103E400061EC81E00E940B1B42E261EC84E00E9485
:103E50000B1B42E261EC82E00E940B1B42E260EC31
:103E600083E00E940B1B8091E80083FF10C08091CB
:103E7000E800877F8093E8008091EB008062809368
:103E8000EB0005C082E190E0E9EAF3E051CFAA96A9
:103E90000FB6F894DEBF0FBECDBFDF91CF911F915B
:103EA00008951F920F920FB60F9211242F933F93F4
:103EB0004F935F936F937F938F939F93AF93BF9332
:103EC000CF93DF93EF93FF93C091E900CF70809180
:103ED000EC00D82FD17080FDD0E81092E9008091DD
:103EE000F000877F8093F00078940E947F1C1092EE
:103EF000E9008091F00088608093F000CD2BCF70B6
:103F0000C093E900FF91EF91DF91CF91BF91AF9105
:103F10009F918F917F916F915F914F913F912F91E1
:103F20000F900FBE0F901F901895E8EDF0E0808184
:103F30008E7F80831092E2001092DA001092E100EE
:103F4000A0EEB0E08C9181608C9380818F7780832C
:103F500019BCA7EDB0E08C918E7F8C9380818F7E11
:103F600080831092A6020895CF92DF92EF92FF9283
:103F70000F931F93CF93DF93C8EDD0E088818F7E9E
:103F80008883E7EDF0E080818160808384E082BFF8
:103F900081E08093A60288818E7F888302EE10E004
:103FA000F80110821092DA0081EEC82ED12CF601B1
:103FB000108288818F778883888180688883888150
:103FC0008F7D888319BC1092CB021092CC02109284
:103FD000CA021092C90290EEE92EF12CF7018081FD
:103FE0008B7F808388818160888342E060E080E00D
:103FF0000E940B1BF60180818E7F8083F8018081F7
:1040000081608083808188608083F70180818E7FDA
:104010008083888180618883DF91CF911F910F9188
:10402000FF90EF90DF90CF9008951F920F920FB600
:104030000F9211242F933F934F935F936F937F932E
:104040008F939F93AF93BF93EF93FF938091E10082
:1040500082FF09C08091E20082FF05C08091E100EB
:104060008B7F8093E1008091DA0080FF2AC08091ED
:10407000D80080FF26C08091DA008E7F8093DA001E
:104080008091D90080FF18C080E189BD82E189BD9F
:1040900009B400FEFDCF81E08093CB028091A6029F
:1040A00081110FC00E94951F0E94B41F8091E200F1
:1040B00084608093E20005C019BC1092CB0210927C
:1040C000A6028091E10080FF17C08091E20080FF8E
:1040D00013C08091E2008E7F8093E2008091E20025
:1040E00080618093E2008091D80080628093D80044
:1040F00019BC85E08093CB028091E10084FF2EC043
:104100008091E20084FF2AC080E189BD82E189BDFF
:1041100009B400FEFDCF8091D8008F7D8093D80038
:104120008091E1008F7E8093E1008091E2008F7E9C
:104130008093E2008091E20081608093E2008091B0
:10414000CC02882311F084E007C08091E30087FD52
:1041500002C081E001C083E08093CB028091E10046
:1041600083FF27C08091E20083FF23C08091E1009C
:10417000877F8093E10082E08093CB021092CC0293
:104180008091E1008E7F8093E1008091E2008E7F3C
:104190008093E2008091E20080618093E20042E03F
:1041A00060E080E00E940B1B8091F00088608093AB
:1041B000F000FF91EF91BF91AF919F918F917F910F
:1041C0006F915F914F913F912F910F900FBE0F9084
:1041D0001F9018952091E4003091E50095E64091FC
:1041E000EC00842F817040FF23C08091E80080FDA7
:1041F0001DC08091CB02882399F0853099F0809181
:10420000EB0085FD11C04091E4005091E5002417BA
:10421000350729F3915011F09A01E1CF84E0089518
:1042200082E0089583E0089581E0089580E0089594
:104230004091E80042FFDDCF0895EF92FF920F9387
:104240001F93CF93DF937C018B010E94EA208111A1
:1042500019C0E70101151105A1F08091E80085FD65
:104260000AC08091E8008E778093E8000E94EA20DF
:10427000882381F307C089918093F10001501109CF
:10428000E9CF80E0DF91CF911F910F91FF90EF90E8
:104290000895089508958091A8020895CF93DF931B
:1042A00020913A01222339F02091A60527FF03C06F
:1042B00060E224E002C068E021E02093E9002FEFF3
:1042C0003091E800215035FD06C035ED3A95F1F703
:1042D00000002111F5CF2091E80025FF1DC0EC0161
:1042E00080913A01811105C040E050E068E070E043
:1042F00003C070E040E050E0CE010E941D2180919B
:10430000E8008E778093E80080E2FE01A9EAB2E03F
:1043100001900D928A95E1F7DF91CF9108950F9367
:104320001F93CF93DF93EC0100E010E080914201F6
:10433000282F30E0021713073CF5909140019801B7
:10434000290F311DA901440F551F240F351F295175
:104350003B4F869590E04C81081719071CF44423C5
:1043600049F002C0411106C040918C05493718F050
:1043700048E701C040E060918B0580918A050E946A
:10438000F62B0F5F1F4FD2CF0E94292B8C8190E01C
:104390000196817099278C83DF91CF911F910F91A6
:1043A00008958F929F92AF92BF92CF92DF92EF9239
:1043B000FF920F931F93CF93DF938C01FC014481F5
:1043C000C42FD0E09E01DE010E94F9319B01AC01B7
:1043D0000E940F326B017C01E0E2F0E0EC1BFD0B70
:1043E000A5E5B0E09B01AC010E940F324B015C01DE
:1043F0009F01DF010E94F1319B01AC010E941A3242
:104400009B01AC012C0D3D1D4E1D5F1DC501B4016E
:104410000E94C231C22FD22F2A3228F4F3E02F9FFC
:10442000900111240DC025E530E02C1B3109C90194
:10443000880F991F280F391F37FF02C02F5F3F4F8A
:1044400035952795C22FC095F12C85E5E82EED1AFC
:1044500080914201F816E0F4F1FC02C08E2D01C0FB
:104460008D2F909140012F2D30E0290F311DA90192
:10447000440F551F240F351F29513B4F4C2FC9376F
:1044800008F048E760918B050E94F62BF394E0CF8B
:104490000E94292BF8018481811102C091E003C0A0
:1044A000803219F49FEF90933D0190913D01890F67
:1044B000F8018483DF91CF911F910F91FF90EF90CE
:1044C000DF90CF90BF90AF909F908F9008951F93F3
:1044D000CF93DF93EC018C81811109C081E08C8343
:1044E0001092E50492E090933C0180933B0180910F
:1044F000400190914101891770F4E82FF0E09F018D
:10450000220F331FE20FF31FE951FB4F118210827C
:1045100012828F5FF0CF10E0609142011617D8F53C
:10452000E12FF0E070E0CF010E94AE312091400118
:10453000820F2091E504022E000C330B90E0E2176D
:10454000F307E4F020913C01022E000C330B2E17F0
:104550003F07A4F09C01220F331F820F931F9C0181
:1045600029513B4F40918C05493708F048E760914D
:104570008B0580918A050E94F62B0BC0FC01EE0F83
:10458000FF1F8E0F9F1FFC01E951FB4F118210820C
:1045900012821F5FC1CF0E94292B80913B01209185
:1045A000E504280F2093E50490913C01980F909327
:1045B0003C0119165CF4022E000C330B40914201B1
:1045C00050E0415051092417350734F0819580930C
:1045D0003B01813009F41C82DF91CF911F91089536
:1045E0007F928F929F92AF92BF92CF92DF92EF9283
:1045F000FF920F931F93CF93DF93EC018A8180FF8B
:1046000003C0BB24BA9402C0BB24B3948C81811133
:104610000DC081E0B81206C08091420181508093A4
:10462000E40402C01092E40481E08C83A12C46E3F0
:10463000742E80904201A81408F044C0809140017B
:10464000CA2CD12C8601080F111DC801880F991F93
:10465000080F191F09511B4FF80111821082128295
:1046600034E0E32EF12C912C8091E404890D873302
:104670002CF0672D0E94A031892F02C087FD880D84
:10468000082E000C990BC816D906A9F480918C0548
:104690008E9DA0018F9D500D1124559547955595E0
:1046A0004795493708F048E7980160918B0580915C
:1046B0008A050E94F62B9B0CF1E0EF1AF108A1F697
:1046C000A394B7CF0E94292B8091E40491E0B91202
:1046D0000EC0811107C08091420181508093E40493
:1046E0001C820FC081508093E404BC820AC090E019
:1046F00001966091420170E00E94AE318093E40423
:104700008C83DF91CF911F910F91FF90EF90DF90FD
:10471000CF90BF90AF909F908F907F900895FF9221
:104720000F931F93CF93DF93EC01F12C0FEF10E069
:1047300060914201F61608F5809140012F2D30E07E
:10474000280F311DC901880F991F280F391F2951C2
:104750003B4F40918C05493708F048E770E0C801AD
:104760000E94AE31962F8C8160918B05F99E800D51
:1047700011240E94F62BF394DBCF0E94292B9A81FF
:104780008C8190FF02C08F5F01C081508C83DF91CC
:10479000CF911F910F91FF9008950F931F93CF9387
:1047A000DF9300D01F92CDB7DEB78C018091E60475
:1047B00081110AC09E012F5F3F4F48E76FEF0E94B3
:1047C000F62B8A818093E604F8018481813051F0D0
:1047D00028F0823061F44091E6040AC08091E6043A
:1047E00040E007C06091E60440E080E003C040E0A4
:1047F00080E060E00E94752BF801848190E00196D2
:1048000063E070E00E94AE3184830F900F900F90B0
:10481000DF91CF911F910F910895CF93DF93EC011A
:10482000E9E8F5E0438162818C810E948C2C8C81C7
:104830008F5F8C83DF91CF910895CF93DF93EC014D
:10484000EC81F0E0E15EF64F4491E9E8F5E0628149
:1048500081810E948C2C8C818F5F8C83DF91CF9122
:1048600008959091CB02943029F58093A805709318
:10487000AA056093A9059093E9008FEF9091E80055
:10488000815095FD06C095ED9A95F1F700008111D4
:10489000F5CF8091E80085FF0DC040E050E063E077
:1048A00070E088EA95E00E941D218091E8008E77F3
:1048B0008093E800089587E797E790930108809335
:1048C00000089AE088E10FB6F894A89580936000FC
:1048D0000FBE90936000FFCF78941F920F920FB697
:1048E0000F9211248F939F93AF93BF938091A20552
:1048F0009091A305A091A405B091A5050196A11DD5
:10490000B11D8093A2059093A305A093A405B09335
:10491000A505BF91AF919F918F910F900FBE0F9002
:104920001F9018959C014FB7F8948091A205909123
:10493000A305A091A405B091A5054FBF821B930BC1
:1049400008952FB7F8946091A2057091A305809106
:10495000A4059091A5052FBF08952FB7F8948091D5
:10496000A2059091A305A091A405B091A5052FBF24
:1049700008951F920F920FB60F9211248F939F9359
:10498000AF93BF938091A105811113C08091A205BF
:104990009091A305A091A405B091A5054196A11DF4
:1049A000B11D8093A2059093A305A093A405B09395
:1049B000A505BF91AF919F918F910F900FBE0F9062
:1049C0001F9018950F931F930E94D916882321F0EA
:1049D0001F910F910C94A1240E94A12400919D0588
:1049E00010919E0520919F053091A005600F711FC9
:1049F000821F931F1F910F9108950E94D916811154
:104A00000C94AD240E94E224CB01089520913A0138
:104A10002223C9F02091A60527FF15C0262F269531
:104A2000269526952E31C8F4FC01E20FF11D677022
:104A300081E090E001C0880F6A95EAF78095928145
:104A4000892382830895FC0106962281621301C0A6
:104A500012823196E817F907C1F7089520913A01BB
:104A60002223C1F02091A60527FF14C0262F2695EA
:104A7000269526952E3130F5FC01E20FF11D677069
:104A800081E090E001C0880F6A95EAF79281892B56
:104A900082830895FC0132962FEF30E04191641734
:104AA00089F02F3F19F4411101C0232F3F5F3630A9
:104AB000A9F72F3F39F0FC01E20FF11D27FDFA9510
:104AC00062830895089520919B0530919C052817D5
:104AD000390771F090939C0580939B05E0919905AF
:104AE000F0919A05309721F00084F185E02D09942A
:104AF000089520919705309198052817390771F08E
:104B00009093980580939705E0919905F0919A0507
:104B1000309721F00680F781E02D099408950E94D6
:104B2000D916882351F0E0919905F0919A053097B4
:104B300021F00190F081E02D099480E008950F9319
:104B40001F93CF93DF93C42FD22FFC018281882340
:104B5000C9F0409396050E94AD24909395058093EB
:104B6000940580E28C0F883008F057C0C77081E050
:104B700001C0880FCA95EAF7DF91CF911F910F917D
:104B80000C94E62A80919605481330C080919405D4
:104B9000909195050E949224883C910538F510E289
:104BA0001D0FCD17B9F080E28C0F883040F4C7702C
:104BB00081E001C0880FCA95EAF70E94DB2A18300D
:104BC00028F581E09D2F977001C0880F9A95EAF72C
:104BD0000E94E62A802F0E94F02A1830F0F4D77045
:104BE00081E001C0880FDA95EAF70AC080E28C0FF5
:104BF000883098F4C77081E001C0880FCA95EAF741
:104C0000DF91CF911F910F910C94DB2A802FDF91C0
:104C1000CF911F910F910C94F02ADF91CF911F91AA
:104C20000F910895809193058823F9F00E94A124A3
:104C3000DC01CB01805A9541AF4FBF4F80938E0569
:104C400090938F05A0939005B09391058091920564
:104C500081110BC062E070E08FE99BE00E94561C5E
:104C6000892B19F481E08093920580919205089533
:104C7000CF93E82F2091DF043091E004295D32408A
:104C80004091D602642F70E0C9010E942F31481B69
:104C9000842FEE2351F066E00E949431C82FC1505A
:104CA000A8F080E20E94A61BFACFA901480F511D6F
:104CB0004115524018F080E020E030E0280F311D0F
:104CC00027523D4F3093E0042093DF04CF910895A5
:104CD000CF93DF93C7EAD1E060E0CE010E9460315C
:104CE0002196C11584E0D807B9F7DF91CF910895D7
:104CF000CF92DF92EF92FF920F931F93CF93DF93A8
:104D0000C0E0D0E08E01005A1F4F6E018CE0C80E4B
:104D1000D11CFE01E15EF54FE590F4906F2DCE01C0
:104D200087960E9460316E2DCE0188960E94603178
:104D30002296CC15DD0569F70C171D0731F7E80140
:104D400000381140F9F6DF91CF911F910F91FF903C
:104D5000EF90DF90CF9008950F931F93CF93DF9341
:104D6000C42FD0E0CC0FDD1F2CE0629FC00DD11D01
:104D7000112430E6839FC00DD11D1124CE018796EA
:104D80000E944C31082F10E0102F0027CE0188968A
:104D90000E944C319801282BC901DF91CF911F91BE
:104DA0000F910895462F843038F4783028F4663017
:104DB00018F4672F0C94AC2680E090E00895CF9310
:104DC000C82F811102C06FEF01C061E283E290E061
:104DD0000E946031C11102C06FEF01C060E184E246
:104DE00090E00E946031C11102C06FEF01C063E228
:104DF00085E290E0CF910C94603180E00E94DF2644
:104E000060E086E290E00E9460310E9478260E9475
:104E1000682681E00C94DF2683E290E00E944C310A
:104E2000813281F484E290E00E944C31803151F46F
:104E300085E290E00E944C3191E0833209F090E0ED
:104E4000892F01C080E0817008959091890590FFBD
:104E500004C09695981740F003C0811105C090E0FA
:104E6000961710F40C94F42D61E00C94AB2D88236C
:104E700011F0FA0101C0FB010994E1EEF4E01182A6
:104E8000828184608283089590911806809117062C
:104E9000892B20911606982F922B9093AB05809129
:104EA00078028823D9F0892B8093AB0580913A0151
:104EB000882331F08091A60587FF02C08EE101C0F2
:104EC00086E0EDEAF5E090E0815028F02191222380
:104ED000D9F39F5FF9CF91110E942219E0919905B2
:104EE000F0919A053097A9F080913A01882359F002
:104EF0008091A60587FF07C08091AB058093AC0524
:104F000085E08093AB050280F381E02D8BEA95E08C
:104F10000994089580E090E00E94792580E090E077
:104F20000E94632510921706109216060C944427CF
:104F3000CF93C091A705C2FB992790F9981781F0EC
:104F400080FBC2F9C093A7056091A60584E090E0BC
:104F50000E9460316C2F82E290E0CF910C9460311E
:104F6000CF910895809114069091E305891719F067
:104F70008F5F8770FBCF08950F931F93CF93DF93BD
:104F80008091E20582958F7009F05DC08091DF0508
:104F9000882309F458C0809114061091E3056091AC
:104FA000DD057091DE05C091E005D091E10591E04D
:104FB0006F3F09F090E0292F06E0811709F443C004
:104FC000209721F07F3F21F030E003C031E001C0A5
:104FD000322F90E030FD34C0089FF001099FF00DA2
:104FE0001124DF01AC51BA4F11963C911197371340
:104FF00027C03C91361324C012963C911297311170
:105000001FC013964D915C9114974C1B5D0B483C4F
:105010005105B0F48091E2058F7080618093E205C4
:10502000E751FA4F80818F70806180838DED95E02C
:105030000E94E907DF91CF911F910F910C94B22745
:1050400001968770BACFDF91CF911F910F9108958C
:10505000CF92DF92FF920F931F93CF93DF936C0158
:105060000091D50280917902082BC7E0D0E010E0D2
:10507000C8010C2E02C0959587950A94E2F780FD31
:1050800004C02197A8F7F12C09C0FC2EB6018C2F83
:105090000E94D2260E941317019799F38F2DDF915A
:1050A000CF911F910F91FF90DF90CF900895CF93F4
:1050B000DF93EC010E942828BE010E94D2260E94A4
:1050C0001317DF91CF910895FC01808191810E9497
:1050D0005728292F2F70E92FE295EF704E2F50E0BF
:1050E000FA013297EE30F105B8F4E257FF4F0C9415
:1050F000E431803F99F018F4883E70F40FC0843F8B
:1051000059F40CC0883E50F0813F31F407C0822F23
:10511000869586958695089580E0089581E00895A6
:105120009F92AF92BF92CF92DF92EF92FF920F9336
:105130001F93CF93DF93CDB7DEB761970FB6F89487
:10514000DEBF0FBECDBF8C0185E0F801DE011D96EC
:1051500001900D928A95E1F7F801E2809091DD05CA
:105160006091DE054091E0055091E1054115510542
:1051700031F06F3F31F481E09F3F19F403C081E0CB
:1051800001C080E0F82FF1709F2E80FD1AC1F80158
:1051900030812181C380D4808DEDA82E85E0B82E8A
:1051A000F090DF05F601E41BF50BFF2009F4C6C003
:1051B0008091E205E83CF10508F091C0482F407F5E
:1051C00009F050C0621311C093130FC0FE2CE11000
:1051D0000CC08F7080618093E205C5010E94E907D1
:1051E0008091E205F801858329C1CD2831F02F3F58
:1051F00031F481E03F3F19F403C081E001C080E059
:1052000080FD03C081E08E2502C080E090E0F82F91
:10521000F170FF2E80FF1CC0809114064091E305C1
:1052200056E0841709F4E8C090E0589FF001599FB8
:10523000F00D1124EC51FA4F6181261306C06081F4
:10524000631303C06281E61203C001968770E9CF41
:10525000FE2CEE2009F4F2C08091E205816080937B
:10526000E20549C0621306C0931304C0E11002C0F6
:10527000F80186C0C8010E946428882351F1EE20FD
:1052800041F12091E205822F82958F7090E0029784
:1052900074F08091DD059091DE0598878F831986E3
:1052A000DB86CA862C87CE0107960E94E90786E036
:1052B000F801ADEDB5E001900D928A95E1F70E94FD
:1052C000BC270AC06217C9F0C8010E946428811176
:1052D0001EC0C8010E94E907FF24F394AFC0482F05
:1052E000407F81F78DED95E00E94E90786E0F501AA
:1052F00011928A95E9F7F12CA1C09313E5CFE11043
:10530000E3CFF8018583C8010E94E90754C0EE206D
:1053100001F32091E205822F82958F7090E0029731
:1053200034F28091DD059091DE059A8389831B829A
:10533000DD82CC822E83CE010196B7CFE83CF10509
:10534000D0F5FE2CEE2029F2621327C0931325C05E
:105350002091E20520FD18C0822F82958F70482F82
:1053600050E04115510581F0F80125834F3051057A
:1053700041F08F5F982F9295907F822F8F70892BAD
:105380008583C8010E94E90786E0F801ADEDB5E02C
:1053900001900D928A95E1F751C0C8010E946428DE
:1053A000811185CF8091E20581608093E205C8017B
:1053B0000E94E90743C086E0F50111928A95E9F75A
:1053C0003DC0EE2009F485CFC8010E946428F82E64
:1053D000882309F47ECF86E0F801ADEDB5E00190B9
:1053E0000D928A95E1F78091DD059091DE050E948E
:1053F00057280E94BC2722C03D872E878D859E8519
:105400000E945728292F22952F70223028F49F7050
:1054100039F0811105C00BC0243028F49F7049F485
:10542000805E883020F0C8010E94E9079F2CF92C8B
:1054300005C0F8019581907F99F7F9CF8F2D61967E
:105440000FB6F894DEBF0FBECDBFDF91CF911F9195
:105450000F91FF90EF90DF90CF90BF90AF909F9013
:105460000895292F220F920F990F890F682F6695A3
:1054700066956695982F977083E0689FB001112418
:1054800040E050E080E0FB01E40FF51FE553FA4FE8
:10549000208130E0092E02C0369527950A94E2F764
:1054A00021703327042E01C0220F0A94EAF7822BC1
:1054B0004F5F5F4F4330510531F70895292F220F79
:1054C000920F990F890FE82FE695E695E69587707C
:1054D00051E001C0550F8A95EAF783E0E89FF0019B
:1054E0001124E553FA4F20E030E070E04081CB0119
:1054F000022E02C0969587950A94E2F781708195F5
:1055000084278523842781932F5F3F4F23303105E4
:1055100069F708958093D5020C948A2721E030E042
:1055200001C0220F8A95EAF720958091D502822347
:105530000C948A2A20911506809582238093150663
:10554000982F977041F430E0482F082E000C550B2F
:105550002417350721F49091A70592FF07C0859580
:10556000859585950E948E2A10921506089521E052
:1055700030E001C0220F8A95EAF78091D502822B94
:105580000C948A2A809379020C948A271092180628
:1055900080913A01882331F08091A60587FF02C0EF
:1055A0008EE101C086E0EDEAF5E0DF011D928A950B
:1055B000E9F70C948A27882341F08095909118068A
:1055C0008923809318060C9444270895882339F082
:1055D00090911806892B809318060C9444270895FF
:1055E0001F93CF93DF93182F893319F0C0E0D0E0D9
:1055F00002C0C0E5D0E0812F0E94CE06209741F086
:105600008FE99FE00197F1F700C000002197F6CFE6
:10561000812FDF91CF911F910C949C066091890599
:10562000669570E04BE050E083E491E00E94223206
:10563000892B19F481E08093E2040E94FD24909369
:105640001A06809319068091E30484608093E30432
:10565000089530913F018091890580FF16C0E09147
:105660003E0163E0E69FF0011124E951FB4F539A9C
:105670008BB1877F9BB198602FB7F894AF0163E03F
:10568000369F400D511D112414C08091400190910E
:105690004101891720F7E82FF0E0AF01440F551FB3
:1056A000E40FF51FE951FB4F1182108212828F5FC8
:1056B000F0CFE417F50789F0319168E09BB900005D
:1056C00000C037FF8BB9330F000000C000C000C01E
:1056D0008BB900C06A9591F7ECCF2FBF8FE594E0AE
:1056E0000197F1F700C0000008959091890590FF9F
:1056F00016C09091400120914101921770F4E92F5A
:10570000F0E0DF01AA0FBB1FEA0FFB1FE951FB4FBF
:105710008183608342839F5FF0CF0C94292B08958F
:1057200080918905282F269530E02115310519F43F
:105730008170826005C02532310524F08170886453
:105740008093890580918C05893718F088E78093CC
:105750008C050895CF92DF92EF92FF926B017C014E
:105760000E94902BB701A60188E090E0FF90EF9097
:10577000DF90CF900C94723180918D05882319F0C1
:10578000815080938D056091890570918A05809183
:105790008B0590918C050C94AA2B80918D058330FC
:1057A00018F48F5F80938D056091890570918A054B
:1057B00080918B0590918C050C94AA2BE9E8F5E07B
:1057C00083E0808311828FEF828388E78383148252
:1057D000A1EEB4E012968C911297836012968C938E
:1057E00060817181828193810C94AA2BAF92BF92C8
:1057F000CF92DF92EF92FF920F931F93CF93DF939D
:10580000E82EF62EE901E42FF0E0611106C0EF5515
:10581000F44FE4914E2F2E2F71C0062F10E0EF555C
:10582000F44F4491F42FC42ED12C26E0829FC00166
:1058300011242FEF30E0B9010E942F315BEA5603AB
:10584000C001579F900D11248E0D911D8E0D911D3D
:10585000582F550F580FD901A01BB10BAC9DC0019B
:10586000AD9D900DBC9D900D1124E92FF59ED001AA
:105870001124AB2FBB277901EA1AFB0AEC9CD0015B
:10588000ED9CB00DFC9CB00D11245901A51AB10876
:10589000A09E7001A19EF00CB09EF00C1124EF2C84
:1058A000FF242E193F092C9D80012D9D100D3C9D3C
:1058B000100D1124212F6230710591F048F461150B
:1058C0007105E1F061307105B9F4242F4B2F16C03A
:1058D0006430710569F040F06630710579F00CC0F4
:1058E000242F492FE12F0AC0492FEF2F2B2F06C05D
:1058F000292FE42F412F02C0292FEB2F4983288322
:10590000EA83DF91CF911F910F91FF90EF90DF908D
:10591000CF90BF90AF900895CF93DF9300D01F92A8
:10592000CDB7DEB79091890590FF0DC0493708F0DB
:1059300048E79E012F5F3F4F0E94F62B4B81698104
:105940008A810E94752B0F900F900F90DF91CF915D
:105950000895AF92BF92CF92DF92EF92FF920F9392
:105960001F93CF93DF9300D01F92CDB7DEB7082FE0
:10597000F62E142FE22E9091890590FF85C0E92F15
:10598000E695AE2FB0E0AD50BE4F8C918093E10410
:105990009E7F923081F4493708F048E79E012F5FDF
:1059A0003F4F6F2D802F0E94F62B4B8169818A819A
:1059B0000E94752B46C0823019F410918C0541C0AD
:1059C000863019F400918A053CC08930D9F38931B9
:1059D000C1F5E9518E2F8170D82EE695F0E0EF5594
:1059E000F34FA590B490C12CBB2460914201C61620
:1059F00030F52C2D30E0A29EC001A39E900DB29EEA
:105A0000900D112470E00E942F31802FD11002C020
:105A1000860F01C0861B90914001290F311DA901FD
:105A2000440F551F240F351F29513B4F412F193764
:105A300008F048E76F2D0E94F62BC394D6CF0E9442
:105A4000292B80918A05081308C080918B05F812D4
:105A500004C080918C05181729F08091E3048260BE
:105A60008093E30400938A05F0928B0510938C05D4
:105A7000EE2051F06091890570918A0580918B0527
:105A800090918C050E94AA2B0F900F900F90DF91A0
:105A9000CF911F910F91FF90EF90DF90CF90BF902B
:105AA000AF900895E9E8F5E0438121E1421B08F455
:105AB00040E021E0628181810C94A92CE9E8F5E0C5
:105AC000438121E1420F08F44FEF21E0628181819F
:105AD0000C94A92CE9E8F5E0628121E1621B08F44D
