:100000000C94F3060C942B070C942B070C9487325A
:100010000C942B070C942B070C942B070C942B0798
:100020000C942B070C942B070C945E1C0C941A1C3C
:100030000C94CC290C942B070C942B070C942B07B5
:100040000C942B070C942B070C942B070C942B0768
:100050000C942B070C94371D0C942B070C942B0736
:100060000C942B070C942B070C942B070C942B0748
:100070000C942B070C942B070C942B070C942B0738
:100080000C942B070C942B070C942B070C942B0728
:100090000C942B070C942B070C942B070C942B0718
:1000A0000C942B070C942B070C942B07050109804B
:1000B000A101850319012AB700150126B700950192
:1000C00075108100C0050C0901A101850419012AE0
:1000D000A002150126A002950175108100C005013E
:1000E0000906A1018506050719E029E71500250184
:1000F0009508750181020507190029EF15002501F2
:1001000095F075018102050819012905950575010C
:100110009102950175039101C00660FF0961A1017B
:100120000962150026FF00952075088102096315F4
:100130000026FF00952075089102C005010906A15F
:1001400001050719E029E7150025019508750181CA
:10015000029501750881010507190029FF15002680
:10016000FF00950675088100050819012905950508
:1001700075019102950175039101C0000000000016
:10018000000000000000000000000000000000006F
:100190000000000000000000000000000000007EE1
:1001A0000F00D4FFFFFFC700000078000000000030
:1001B0000000002A2B2800000000000000000000C2
:1001C00000000000000029000000002C1E34202147
:1001D0002224342627252E362D3738271E1F20218E
:1001E00022232425263333362E37381F04050607ED
:1001F00008090A0B0C0D0E0F101112131415161707
:1002000018191A1B1C1D2F3130232D350405060724
:1002100008090A0B0C0D0E0F1011121314151617E6
:1002200018191A1B1C1D2F3130354C00DA0281FFC2
:10023000D9F1DB20A4A62EAF00A0C000A1C800AE5B
:10024000D580A81FD300408D1420001E0F05000488
:100250007F3F1F643214643214783C1E1E140A055A
:1002600041646A757374005261697365004C6F77FD
:1002700065720044656661756C74004C61796572E5
:100280003A20003A002C206B0078000000000000AB
:10029000FEFFFFFFFFFFFFFFFFFFFFFFFFFFFFFF6F
:1002A000FFFFFFFFFFFFFFFFFFFFFFFFFFFFFFFF5E
:1002B000FFFFFFFFFFFFFF0F0F0F0F0FFFFFFFFFFE
:1002C000FFFFFFFFFFFFFFFFFFFFFFFFFE0000003C
:1002D000000000000000000000000000000000001E
:1002E000000000000000000000000000000000000E
:1002F00000000000000000000000000000000000FE
:1003000000000000000000000000000000000000ED
:10031000FFFFFFFF8383838383FFFF83838383FF49
:10032000FF8383838383FFFF83838383FFFF838331
:10033000838383FFFFFFFF8282828282FFFF8383AA
:100340008383FFFF8383838383FFFFFFFF0000001E
:1003500000000000000000F8FCFCFC9C9CFCFCF889
:10036000F870000000000030787C3C9CFCFCF8F049
:100370000000000000C0F0F8F83C3C9CBCFCB8B8A1
:10038000A0000000000000000000000000000000CD
:10039000FFFFFFFF4141414141FFFFFFFFFFFFFF23
:1003A000FF4141414141FFFFFFFFFFFFFFFF41418F
:1003B000414141FFFFFFFF4141414141FFFF7F7F3D
:1003C0007F7FFFFF4141414141FFFFFFFF000000F0
:1003D000000000000000003F3F3F3F03070F3F3F8A
:1003E0003E382000000000383C3E3F3F3F3B39385C
:1003F0000000000000070F1F3F3C383B3B3F1F1F22
:100400000F000000000000000000000000000000DD
:100410007FFFFFFFF0F0F0F0F0FFFFFFFFFFFFFFB7
:10042000FFF0F0F0F0F0FFFFFFFFFFFFFFFFF0F045
:10043000F0F0F0FFFFFFFFF0F0F0F0F0FFFFF0F062
:10044000F0F0FFFFF0F0F0F0F0FFFFFF7F000000A2
:10045000000000000000000000000000000000009C
:10046000000000000000000000000000000000008C
:10047000000000000000000000000000000000007C
:100480000000000000000000000000000101010168
:10049000010101010102020202020202020203033F
:1004A000030303030303040404040404040505050F
:1004B00005050606060606070707070708080808D1
:1004C000090909090A0A0A0B0B0B0C0C0C0D0D0D7E
:1004D0000E0E0E0F0F0F1010111111121213131414
:1004E00014151516161717181819191A1A1B1B1C8C
:1004F0001D1D1E1E1F2020212222232424252626E6
:10050000272829292A2B2C2D2D2E2F30313232331A
:100510003435363738393A3B3C3D3E3F4041424323
:100520004445464748494A4C4D4E4F505153545507
:100530005658595A5B5D5E5F616264656668696BB7
:100540006C6D6F7072737577787A7B7D7E80828335
:100550008587888A8C8E8F91939596989A9C9EA079
:10056000A2A3A5A7A9ABADAFB1B3B5B7BABCBEC086
:10057000C2C4C6C9CBCDCFD1D4D6D8DBDDDFE2E44F
:10058000E7E9EBEEF0F3F5F8FAFDFFFFAA7F55403F
:100590002223252628292A2C2D2F30323335363890
:1005A0003A3B3D3E4042434547494A4C4E505153E9
:1005B0005557595A5C5E6062646668696B6D6F710D
:1005C000737577797B7D7F81838587898A8C8E900F
:1005D000929496989A9C9E9FA1A3A5A7A8AAACAE18
:1005E000AFB1B3B4B6B8B9BBBCBEBFC1C2C3C5C658
:1005F000C7C9CACBCCCDCED0D1D2D2D3D4D5D6D701
:10060000D7D8D9D9DADADBDBDBDCDCDCDCDCDDDD3E
:10061000DDDDDCDCDCDCDCDBDBDBDADAD9D9D8D72E
:10062000D7D6D5D4D3D2D2D1D0CECDCCCBCAC9C7D0
:10063000C6C5C3C2C1BFBEBCBBB9B8B6B4B3B1AF07
:10064000AEACAAA8A7A5A3A19F9E9C9A98969492A7
:10065000908E8C8A89878583817F7D7B797775737E
:10066000716F6D6B6968666462605E5C5A5957555C
:100670005351504E4C4A4947454342403E3D3B3A18
:100680003836353332302F2D2C2A2928262523229F
:1006900000AF00AE2B0014001A0008001500170070
:1006A000E00004001600070009000A00E1001D0038
:1006B0001B00060019000500000000000000E30018
:1006C000105F2C002A00130012000C0018001C0000
:1006D000340033000F000E000D000B00290038001D
:1006E0003700360010001100000000000000E60096
:1006F000115F28002B001E001F0020002100220097
:10070000E00000000000000000000000E100000028
:100710000000000000000000000000000000E300F6
:1007200001002C002A0027002600250024002300B9
:10073000000000004F005200510050000000000077
:100740000000000000000000000000000000E600C3
:10075000010028002B001E021F022002210222029B
:10076000E00000000000000000000000E1000000C8
:100770000000000000000000000000000000E30096
:1007800001002C002A00270226022502240223024F
:100790003500310030002F002E002D0035023102CF
:1007A00030022F022E022D02000000000000E600A1
:1007B00001002800005C00000000000000000000B4
:1007C000C25CC55CC75CC95C00000000C35CC65C61
:1007D000C85CCA5C00000000000000000000E300EC
:1007E00001002C00000000000000000000000000DC
:1007F00000000000000000000000000000000000F9
:100800000000000000000000000000000000E60002
:100810000100280009025B00030100A0FA0904009E
:10082000000103010100092111010001224000071C
:10083000058103080001090401000203000000090A
:100840002111010001222200070582032000010777
:100850000503032000010904020001030000000950
:100860002111010001226D000705840320000112FF
:1008700001000200000008534601000100010200CF
:10088000010C0343006F0072006E00650000001051
:100890000366006F006F007300740061006E00005B
:1008A00000040309040000000000003E5B4F5B3EB3
:1008B000003E6B4F6B3E001C3E7C3E1C00183C7E95
:1008C0003C18001C577D571C001C5E7F5E1C0000FE
:1008D000183C180000FFE7C3E7FF000018241800C9
:1008E00000FFE7DBE7FF0030483A060E00262979D3
:1008F000292600407F05050700407F05253F005A57
:100900003CE73C5A007F3E1C1C0800081C1C3E7F34
:100910000014227F2214005F5F005F5F0006097FE2
:10092000017F00006689956A0060606060600094E5
:10093000A2FFA2940008047E04080010207E20106C
:100940000008082A1C0800081C2A0808001E1010AD
:100950001010000C1E0C1E0C0030383E3830000603
:100960000E3E0E060000000000000000005F0000C8
:1009700000000700070000147F147F1400242A7F62
:100980002A120023130864620036495620500000E2
:100990000807030000001C224100000041221C0047
:1009A000002A1C7F1C2A0008083E080800008070EE
:1009B00030000008080808080000006060000020FF
:1009C00010080402003E5149453E0000427F4000AD
:1009D000007249494946002141494D33001814121B
:1009E0007F10002745454539003C4A4949310041BF
:1009F0002111090700364949493600464949291E4F
:100A00000000001400000000403400000000081442
:100A1000224100141414141400004122140800028E
:100A200001590906003E415D594E007C1211127CAD
:100A3000007F49494936003E41414122007F414102
:100A4000413E007F49494941007F09090901003EB3
:100A500041415173007F0808087F0000417F410039
:100A6000002040413F01007F08142241007F4040A8
:100A70004040007F021C027F007F0408107F003E80
:100A80004141413E007F09090906003E4151215E76
:100A9000007F091929460026494949320003017F90
:100AA0000103003F4040403F001F2040201F003F07
:100AB0004038403F006314081463000304780403C3
:100AC000006159494D4300007F4141410002040843
:100AD000102000004141417F000402010204004057
:100AE0004040404000000307080000205454784074
:100AF000007F2844443800384444442800384444A3
:100B0000287F0038545454180000087E0902001849
:100B100024241C78007F080404780000447D4000F1
:100B2000002040403D00007F102844000000417F2D
:100B30004000007C04780478007C080404780038C5
:100B400044444438007C1824241800182424187CB9
:100B5000007C080404080048545454240004043F52
:100B60004424003C4040207C001C2040201C003CD1
:100B70004030403C004428102844004C9090907C29
:100B8000004464544C4400000836410000000077E3
:100B90000000000041360800000201020402003C8F
:100BA0002623263C0000000000000000000000009A
:100BB0000000000000C0E0F0F8F81800C0F0FCFEF3
:100BC000FFFFFFFFFFFFFF7E0000000000000000AE
:100BD0000080C0E0E0E0E0E0E0E0E0C08000000095
:100BE0000080C0E0E0E0E0E0E0E0E0C08000000085
:100BF000E0E0C0C0E0E0E0E00000E0E0C0C0E0E035
:100C0000E0E0E0C0800000000080C0E0E0E0E0E064
:100C1000E0E0E0C0800000000000000000000000F4
:100C2000000000E0F0F0F0E0ECEEF7F37020007C64
:100C30007C7C7E007E7E7E7F7F7F000080C0E07EA9
:100C40005B4F5BFEC00000C000DCD7DEDEDED7DC21
:100C500000C00000000000000000000000000000D4
:100C60000000000000000000000000000000F8FC90
:100C7000FEFFE000FFFFFFFFFFFF80FFFFFFFFFF22
:100C8000FFFFFFFF1F070100000000000000000041
:100C9000FFFFFF8100000000000081C3C3C300000C
:100CA000FFFFFF8100000000000081FFFFFF000048
:100CB000FFFFFF01000000000000FFFFFF01000038
:100CC000000001FFFFFF0000FFFFFF9D1C1C1C1C1C
:100CD0001C1C9DDFDFDF00000000000000000000A2
:100CE0000000000F1F3F7F7F7F7F7F3F1E0C001F94
:100CF0001F1F3F003F3F3F7F7F7F00307B7F78306B
:100D0000202030787F3B0003000F7F0F0F0F7F0FF5
:100D100000030000000000000000000000000000D0
:100D20000000000000000000000000000000030FB1
:100D30001F3F3F3F3F1F1F3F3F7F7F7F3F3F1F3F83
:100D40007F7F7F7F7C7878381C0F000000000000D8
:100D50000001030707070707070707030100000053
:100D60000001030707070707070707030100000043
:100D70000707070000000000000007070700000049
:100D80000000000707070000000103070707070727
:100D9000070707030100000000000000000000003A
:100DA0000000000000000000000000000000000043
:100DB0000000000000000000000000000000000033
:100DC0000000000000000000000000000000000023
:100DD0000000000000000000000000000000000013
:100DE00000000000000011241FBECFEFDAE0DEBFDC
:100DF000CDBF04B603FE18C0809138079091390723
:100E0000A0913A07B0913B078730904BA740B04B79
:100E100059F4109238071092390710923A0710923D
:100E20003B07E0E0F8E3099527E0ACE0B2E001C061
:100E30001D92A833B207E1F712E0A0E0B1E0EEEBBB
:100E4000FAE602C005900D92AC30B107D9F70E94C6
:100E5000F3290C9434350C9400008F929F92AF923A
:100E6000BF92CF92DF92EF92FF9290914F01981331
:100E700005C090912C05903209F44BC080934F012E
:100E800090E290932C05C82ED12CF12CE12C1092DD
:100E90002B05C701B6012AE030E040E050E00E9497
:100EA0000335605D603331F0C114D104E104F10415
:100EB00009F460E260932A0560E28AE0C816D10472
:100EC000E104F10490F08AE0882E912CA12CB12C41
:100ED000C701B601A50194010E940335CA01B901F9
:100EE000A50194010E940335605D6093290520E20D
:100EF00084E6C816D104E104F10448F0C701B60144
:100F000024E630E040E050E00E940335205D20936D
:100F1000280588E295E0FF90EF90DF90CF90BF909A
:100F2000AF909F908F900895FC01AC014C5F5F4F94
:100F30008FEF91E32191822728E030E087FF09C0FD
:100F4000880F892721503109C9F7E417F50791F770
:100F50000895880FF7CFE8EDF0E080818E7F8083E1
:100F60001092E2001092DA001092E100A0EEB0E0E0
:100F70008C9181608C9380818F77808319BCA7EDE1
:100F8000B0E08C918E7F8C9380818F7E80831092D5
:100F9000F50408952091E4003091E50095E6A9015B
:100FA0002091EC00822F817020FF06C08091E80024
:100FB00080FF06C080E008952091E80022FD1AC05D
:100FC00080911A05882389F0853089F08091EB00A3
:100FD00085FD0FC02091E4003091E50042175307D2
:100FE000F9F29150E1F684E0089582E0089583E0FB
:100FF000089581E00895EF92FF920F931F93CF938E
:101000007C018B010E94CA07C82F811117C08091F3
:10101000E80085FD0BC08091E8008E778093E800A2
:101020000E94CA07882399F3C82F08C0F70181914D
:101030007F018093F1000150110949F78C2FCF9166
:101040001F910F91FF90EF90089580911C0587FFED
:1010500013C08091E80082FF06C08091E8008B7782
:101060008093E80004C080911A058111F2CF0895A1
:1010700080911A058823D9F38091E80080FFF8CF8A
:101080008091E8008E77ECCF982F9093E900242F81
:10109000762F50E0891731F07091EC002091ED002F
:1010A0005091F00021FD07C09F5F973071F780934A
:1010B000E90081E008953091EB003E7F3093EB0032
:1010C0003091ED003D7F3093ED003091EB003160C9
:1010D0003093EB007093EC002093ED005093F00000
:1010E0002091EE0027FDE0CF80E00895CF92DF92BF
:1010F000EF92FF920F931F93CF93DF93C8EDD0E051
:1011000088818F7E8883E7EDF0E080818160808335
:1011100084E082BF81E08093F50488818E7F88839C
:1011200002EE10E0F80110821092DA0081EEC82E73
:10113000D12CF601108288818F778883888180681E
:10114000888388818F7D888319BC10921A0510923C
:101150001B05109219051092180590EEE92EF12C3E
:10116000F70180818B7F808388818160888342E062
:1011700060E080E00E944408F60180818E7F8083D9
:10118000F801808181608083808188608083F7019D
:1011900080818E7F8083888180618883DF91CF9179
:1011A0001F910F91FF90EF90DF90CF900895FC0179
:1011B000809122059091230586179707A0F061156D
:1011C000710529F49091E8009E779093E80090E0F3
:1011D0006115710551F4911108C08091E80082FFFA
:1011E00034C080E00895BC01F2CF80911A058823B5
:1011F000C1F18530C1F18091E80083FD30C080915C
:10120000E80082FDEACF8091E80080FFE1CF809185
:10121000F3002091F200382F6115710519F0283084
:10122000310558F091E02830310509F090E0209127
:10123000E8002E772093E800CBCF81918093F100D6
:10124000615071092F5F3F4FE7CF80911A058823C6
:1012500041F0853041F08091E80083FFBECF81E00E
:10126000089582E0089583E008950895089508950B
:101270008091F70408952FB7F8946091EC04709171
:10128000ED048091EE049091EF042FBF089520911A
:101290004E012223C9F02091F00427FF15C0E62F4C
:1012A000E695E695E695EE31D8F4E80FF92FF11DB5
:1012B000677021E030E001C0220F6A95EAF72095BF
:1012C0008281282322830895FC0132960896219179
:1012D000621303C0DF0111971C92E817F907B9F7F1
:1012E000089520914E012223C1F02091F00427FFA0
:1012F00014C0E62FE695E695E695EE31F8F4E80F92
:10130000F92FF11D677021E030E001C0220F6A95CE
:10131000EAF78281822B82830895FC0132962FEFB7
:1013200030E04191641751F02F3F19F4411101C091
:10133000232F3F5F3630A9F72F3F09F40895820F1E
:10134000911D27FD9A95FC01628308952091E9047F
:101350003091EA042817390771F09093EA048093DA
:10136000E904E091E704F091E804309721F000846B
:10137000F185E02D099408952091E5043091E6046B
:101380002817390771F09093E6048093E504E09103
:10139000E704F091E804309721F00680F781E02D12
:1013A00009940895FA01811101C0FB010994E4E256
:1013B000F3E0118282818460828308958091DA044F
:1013C000982F9E7F61F4817082608093DA0480910F
:1013D000DD04893718F088E78093DD0408958635A9
:1013E000B0F381708465F1CFAF92BF92DF92EF923C
:1013F000FF920F931F93CF93DF93182F062FE901CE
:10140000493708F048E7E42FF0E0E557FB4F0111BA
:1014100010C0E4915E2F4E2F4983E8835A83DF91F9
:10142000CF911F910F91FF90EF90DF90BF90AF9001
:101430000895202F30E04491D42EE42EF12C56E074
:10144000159FC0011124EFEFF0E0BF010E94A3330C
:10145000812F90E0880F991F55E5569FD001579F27
:10146000B00D11248A1B9B0B982F990F890F5F01D8
:10147000A21AB30AAE9CD001AF9CB00DBE9CB00DB9
:1014800011245B2F089F80011124012F11275F0178
:10149000A01AB10AAE9C8001AF9C100DBE9C100D2D
:1014A00011245F01A81AB108A29EC001A39E900D4D
:1014B000B29E900D1124892F9927E81BF90BEE9D00
:1014C000C001EF9D900DFE9D900D1124E92F62301B
:1014D0007105A1F050F46115710509F49DCF6130DB
:1014E000710581F0EB2F512F97CF6430710569F0B2
:1014F00080F06630710509F48FCFF4CFE42F4B2FC5
:10150000592F8ACFE42F412F87CFEB2F542F492F0C
:1015100083CF4B2F5D2DE12F7FCF80E0089578940E
:101520000895F894E82FE295EF70F0E031A1282FAC
:101530002F7081E090E001C0880F2A95EAF7982F7C
:101540009095932391A392A1892B82A30C948F0A47
:101550009091F00492FF06C0282F28712830F9F4EA
:10156000877F846093FF06C0282F28712831F1F40B
:10157000877E84612091F10420FF06C0382F3871E6
:101580003830D9F4877F816021FF06C0282F287169
:101590002831D1F4877E816194FD877E0895282FBC
:1015A00024712430F9F68B7F8860DCCF282F2471DA
:1015B000243101F78B7E8861DDCF382F31713130D6
:1015C00019F78E7F8860E0CF282F2171213121F714
:1015D0008E7E8861E1CFCF93DF93EC018238910555
:1015E000A9F1D8F58133910509F496C048F58932FF
:1015F000910509F48AC08A9709F495C0C11522E5BE
:10160000D20708F0B6C0C11531E5D30708F026C1EE
:10161000C83ED10508F09CC0C03ED10560F5C83A6F
:10162000D10508F087C0C53AD10508F0EFC0C13038
:10163000D10509F12097F9F0C430D105E0F440C09C
:101640008533910509F45AC0C997C1F68091F00419
:10165000837089F0C0EED0E00EC0833E910599F111
:1016600070F4803E910501F1823E910539F680913A
:10167000F00482FD21C0CE01DF91CF910895863E16
:10168000910561F1873E910571F1843E910509F064
:10169000B5CF8091F10481FFEECF8091F004C7EEC9
:1016A000D0E084FD0DC0E7CF8091F00480FD07C13C
:1016B0009091F10490FFDFCFC3EED0E084FFDBCF49
:1016C000D0E0C0E0D8CF8091F00482FDFBC09091C3
:1016D000F10490FDBFCF84FFCECFF2CF8091F00414
:1016E00083FDDDCFC8CF8091F00483FDEEC09091E3
:1016F000F10491FFF0CFC4EED0E0BDCF8091F004B3
:1017000085FFB9CFC9E2D0E0B6CF8091F00485FF64
:10171000B2CFC5E3D0E0AFCF8091F00486FFABCF6E
:10172000CAE2D0E0A8CF8091F00486FFA4CFC1E345
:10173000D0E0A1CFCF3BD10518F6C85AD0E0CC0FEE
:10174000DD1FC157DE4F0990D881C02DD46493CFDF
:10175000C11540E5D40708F064C0C11580E4D8077E
:1017600008F05CC0CE019A9581159F4108F483CFA3
:10177000A7CFC11536E5D30718F5C11545E5D40740
:1017800008F084C0C11584E5D80708F07AC09C2F02
:10179000969596959E0123703327C115D34508F47D
:1017A00062C0C1E0D0E002C0CC0FDD1F2A95E2F795
:1017B00030E2939FC0011124C82BD92BDA685BCF8C
:1017C000C1158AE5D80778F4C11599E5D90708F05D
:1017D00068C0C11528E5D20708F472CFDC2FCC27EA
:1017E000C06FD06A48CFCE0190568115904208F064
:1017F00067CF8D2F8F710E94A80A90E0982F8827BD
:1018000088279F719C012C2BE90149C0C55AD0E063
:10181000C457DE4FC881D0E0D0642DCFDF70D06ACE
:101820002ACFCE01E4E096958795EA95E1F783709B
:101830002C2F26952695237040E2249F9001112499
:10184000382B8C2F8370C1E0D0E002C0CC0FDD1F9D
:101850008A95E2F7C22BD32BDC680DCFDC2FCC2787
:10186000C16FD06A08CFC1E0D0E002C0CC0FDD1F4D
:101870002A95E2F720E2929FC0011124C82BD92BB0
:10188000EBCFDC2FCC27C46FD06AF5CE8C2F0E9413
:10189000A80AC82FD0E0DC2FCC27CC27DF71D0627C
:1018A000EACE8C2F8F700E94A80A34E0D695C79597
:1018B0003A95E1F7CF709C2FEC01D069DCCEC9E3FB
:1018C000D0E0D9CEC2EED0E0D6CEC6EED0E0D3CEB8
:1018D00080919C02811110929C02089580959091B4
:1018E0009B02982390939B02089580917802909197
:1018F0004702981301C008958F5F8770FACFE92FD0
:10190000EE0FE90FEE0F8E0F982F97708695869544
:10191000869523E0829FF0011124E15DFD4F50E0A8
:1019200040E080E0219130E0092E02C036952795F5
:101930000A94E2F721703327042E01C0220F0A9483
:10194000EAF7822B4F5F5F4F4330510559F70895F7
:10195000E92FEE0FE90FEE0F8E0F982F977041E0F1
:1019600001C0440F9A95EAF786958695869593E08F
:10197000899FF0011124E15DFD4F30E020E070E02F
:101980005191DF011197CB01022E02C096958795E8
:101990000A94E2F7817081958527842385278C93AB
:1019A0002F5F3F4F2330310559F70895982F9295B7
:1019B0009F7011F0892F94E0282F2695269511F01D
:1019C0009E5F822F869509F09F5F892F0895CF93A0
:1019D000DF93682F81E06A3019F06D3029F480E0E0
:1019E000DF91CF910C94760D809136079091370757
:1019F00026E0FC01A0E3B7E001900D922A95E1F703
:101A0000603E08F45AC026E0FC0111922A95E9F7DD
:101A1000C0913607D091370746E050E0BE0180E321
:101A200097E00E9473349E0120533540892B41F189
:101A3000C90145E0969587954A95E1F741E050E068
:101A4000BA0102C0660F771F8A95E2F7CB01609159
:101A50002E0570912F05862B972BB9016B5F7F4F59
:101A6000E5E076956795EA95E1F702C0440F551FCA
:101A70006A95E2F7842B952B90932F0580932E0582
:101A80002A5F3F4F40912D05642F70E0C9010E94ED
:101A9000A333481B463010F4240F311D211572E08A
:101AA000370710F030E020E0205D3A4F30933707E1
:101AB00020933607DF91CF910895F6E06F9FB00134
:101AC00011246B55774F46E050E00E945D34A0CF63
:101AD000CF93DF93EC01FE018491811103C0DF916C
:101AE000CF9108950E94E70C2196F5CFCF93382F20
:101AF000E0913607F0913707E053F54020912D052E
:101B0000622F70E0CF010E94A333281B822F332362
:101B100061F066E00E94B733C82FC15010F4CF9136
:101B2000089580E20E94E70CF8CF9F01280F311D35
:101B30002115324018F080E0F0E0E0E08E0F9F2F9A
:101B4000911D805D9A4F9093370780933607E7CFBA
:101B500080919B0290919A02892B80930E02909122
:101B60009C029923A1F0892B80930E0280914E0153
:101B70008823D9F18091F00487FF37C08EE1E0E13E
:101B8000F2E090E0815098F591110E94680C40E2DB
:101B900050E06AE772E08EE092E00E947334892B95
:101BA00059F180E2EEE0F2E0AAE7B2E001900D9296
:101BB0008A95E1F7E091E704F091E8043097E1F0CD
:101BC00080914E01882359F08091F00487FF07C06F
:101BD00080910E0280930F0286E080930E020280B5
:101BE000F381E02D8EE092E0099486E0C8CF219148
:101BF000222341F29F5FC6CF089590E080E00E94CB
:101C0000BC0990E080E00E94A60910929A020C9410
:101C1000A80D809327050C94FD0D80912705982F22
:101C20009670963019F488600C94090E877FFCCF6B
:101C300021E030E001C0220F8A95EAF720958091DB
:101C4000270582230C94090E9091790280958923AF
:101C500080937902282F277091F4282F082E000CEA
:101C6000330B9217130659F09091F10492FD07C0BF
:101C70008595859585950E94180E10927902089594
:101C800021E030E001C0220F8A95EAF78091270514
:101C9000822B0C94090E80939D020C94FD0D1092E2
:101CA0009B0280914E01E0E1F2E0882359F080919F
:101CB000F00487FF07C08EE1DF011D928A95E9F7E6
:101CC0000C94FD0D86E0F8CF1F93CF93DF93CDB733
:101CD000DEB7AA970FB6F894DEBF0FBECDBF8CE17A
:101CE00095E02091F100DC012D93CD01B5E0843227
:101CF0009B07B9F780911D05833009F472C0B8F4D1
:101D0000813009F449C0823009F4B3C08091E80001
:101D100083FF8BC280911C0590911D059A3008F0BD
:101D200084C2E92FF0E0EA5CFA4C0C94E5338A3087
:101D300009F48EC08B3009F471C0893039F7809175
:101D40001C05813219F7809120059091210500979B
:101D500011F00297D9F68091E800877F8093E80020
:101D60008091E80082FF38C09091F3008091F200EA
:101D7000029731F48091F100813011F0863021F426
:101D80008091F1008093F7048091E8008B77809335
:101D9000E8000E942508BACF80911C05813A09F01D
:101DA000B5CF8091E800877F8093E800809120057F
:101DB00090912105892B61F460E288EF94E070E056
:101DC0000E94D7088091E8008B778093E8009ECF2F
:101DD00060E090E080E0F3CF80911A058111C0CFE0
:101DE00095CF80911C05813A09F090CF8091200514
:101DF00090912105892B09F089CF8091E800877F98
:101E00008093E8008091E80080FFFCCF80914E0134
:101E10008093F1008091E8008E77B9CF80911C0506
:101E2000813209F073CF8091200590912105892B93
:101E300009F06CCF8091E800877F8093E8000E94D2
:101E4000250880911E0580934E010E944F0E5ECFA3
:101E500080911C05813209F059CF8091E800877F7D
:101E60008093E8000E94250880911F058093F60466
:101E70004DCF80911C05813A09F048CF8091E80050
:101E8000877F8093E8008091E80080FFFCCF8091FD
:101E9000F604BECF803899F0823809F0C6C180912F
:101EA00020058F70873008F0C0C18093E9008091D1
:101EB000EB0085FB882780F91092E90006C080912D
:101EC000180590911905911182609091E800977F13
:101ED0009093E8008093F1001092F1008091E80067
:101EE0008E779FC1882309F48DC1823009F09DC18E
:101EF00080911E05811190C1809120058F702FEF78
:101F0000280F263008F091C18093E9002091EB0062
:101F100020FF82C1933031F48091EB008062809386
:101F2000EB007AC19091EB0090619093EB0021E07F
:101F300030E001C0220F8A95EAF72093EA00109260
:101F4000EA008091EB008860EACF81116EC11091A8
:101F50001E051F778091E3008078812B8093E3003A
:101F60008091E800877F8093E8000E942508809197
:101F7000E80080FFFCCF8091E30080688093E3005D
:101F800082E0111183E080931A054FC1805882309E
:101F900008F04BC120911E0530911F052C3DE3E058
:101FA0003E07A1F583E08A838AE289834FB7F894DC
:101FB000DE01139620E03EE051E2E32FF0E0509383
:101FC0005700E49120FF03C0E295EF703F5FEF7090
:101FD0008E2F90E0EA30C0F0C7968D939D932F5FCF
:101FE000243159F74FBF8091E800877F8093E80044
:101FF0006AE270E0CE0101960E94D7088091E80065
:102000008B778093E80011C1C096E7CF80912005BF
:1020100090912105432F55274330510509F44AC0BB
:1020200078F54130510509F47AC08BE590E0E4E1A0
:10203000F8E04230510509F0F8C02091E800277F10
:102040002093E80020912205309123058217930701
:1020500008F49C0140E02115310509F065C04111EB
:1020600063C08091E80082FDC9CF80911A05882362
:1020700029F2853019F28091E80083FFF2CFBECFBC
:102080004132510509F43CC04232510509F0CDC03E
:102090008330910508F0C9C0FC01EE0FFF1FE1502D
:1020A000FE4F0190F081E02D84509E4FDC018C9119
:1020B00090E01AC0332721303105D1F021153105C8
:1020C00061F02230310509F0B0C0E1E8F8E0E491B8
:1020D0008E2F90E0E1E8F8E007C0E1EAF8E0E49153
:1020E0008E2F90E0E1EAF8E0009709F49EC0A5CFBA
:1020F000EFE8F8E0E4918E2F90E0EFE8F8E0F4CF1D
:102100008330910508F091C0880F991FFC01EB5FA7
:10211000FD4F0190F081E02D89E090E08ECF82E1CB
:1021200090E0EFE6F8E089CF80911A05882309F462
:1021300065CF853009F462CF8091E80083FD5ECFE2
:102140008091E80082FD8DCF8091E80080FF83CFF1
:102150009091F3008091F2002115310519F088303B
:10216000910550F041E0089709F040E08091E800C7
:102170008E778093E8006FCF44914093F1003196C1
:10218000215031090196E8CF803809F04EC0809186
:10219000E800877F8093E80080911B058093F10021
:1021A0009DCE811142C010911E051230F0F5809134
:1021B000E800877F8093E80010931B050E942508A4
:1021C000112311F084E005C08091E30087FDFACF70
:1021D00081E080931A0542E061EC81E00E944408AE
:1021E00042E261EC84E00E94440842E261EC82E059
:1021F0000E94440842E260EC83E00E94440880911F
:102200001A0513C080911E05813079F481E0933066
:1022100009F080E0809319051092E9008091E800B0
:10222000877F8093E8000E9425088091E80083FF63
:102230000AC08091E800877F8093E8008091EB00DE
:1022400080628093EB00AA960FB6F894DEBF0FBEB3
:10225000CDBFDF91CF911F910895882321F00E9477
:102260006E0C0C94A80D0895882339F090919B0270
:10227000982B90939B020C94A80D0895882341F10C
:102280009CEF980F913A38F4682F8EE092E00E940C
:1022900047090C94A80D90E2980F983050F487707D
:1022A00091E001C0990F8A95EAF7892F0E946E0C80
:1022B000F0CF9BE5980F933020F490E080E00C94F1
:1022C000BC09885A873120F490E080E00C94A6097C
:1022D0000895CF93C82F882309F467C08CEF8C0F23
:1022E000813AC0F580914E01882311F18091F0046C
:1022F00087FF1EC0EC2FE695E695E695F0E0E25FDD
:10230000FD4F828190E04C2F477021E030E002C009
:10231000220F331F4A95E2F782239323892B91F0F2
:102320006C2F8EE092E00E9447090E94A80D0AC01F
:10233000E0E1F2E086E192E02191C21789F38E1785
:102340009F07D1F76C2F8EE092E00E947109CF9128
:102350000C94A80D80E28C0F883068F4C77021E0DF
:1023600030E001C0220FCA95EAF780919B02822BD0
:1023700080939B02ECCFEBE5EC0FE33040F4F0E010
:10238000E457FE4F808190E0CF910C94BC09C85A6D
:10239000C73158F4EC2FF0E0EE0FFF1FE157FE4F6E
:1023A00080819181CF910C94A609CF9108950F93CC
:1023B0001F93CF93DF93EC01FC0101900020E9F71C
:1023C0008F0101501109C017D10728F0DF91CF917B
:1023D0001F910F91089589910E94E70CF4CFCF923D
:1023E000DF92EF92FF920F931F93CF93DF936C01D5
:1023F0007B0164E670E088E70E94DE30EC0197FD27
:1024000012C010E000E0F601E00FF11F849164E6D5
:1024100070E00E945831EC01892B29F40F5F1F4FA7
:102420000E151F0581F70E94DB31CE01DF91CF91A0
:102430001F910F91FF90EF90DF90CF9008958091C2
:10244000E3049091E404911103C091E08927089579
:10245000882369F062E070E082E996E00E94EF1163
:10246000892B19F08091E30408951092E304809180
:10247000E304EBCFCF93C091E3048091E40488237D
:10248000D1F00E943B09605A75418F4F9F4F609376
:10249000DF047093E0048093E1049093E204C1119F
:1024A00008C062E070E080E996E00E94EF11892B9D
:1024B00029F0C091E3048C2FCF91089581E080939F
:1024C000E304F7CF8093F2047093F4046093F30471
:1024D00080911A058430F9F48093E9008FEF909190
:1024E000E800815095FD06C095ED9A95F1F7000042
:1024F0008111F5CF8091E80085FF0DC050E040E0EC
:1025000063E070E082EF94E00E94FB078091E800B6
:102510008E778093E8000895BC0184E00C946212E9
:10252000BC0183E00C946212CF93DF93EC018091A5
:102530004E018823B1F18091F00487FF32C060E240
:1025400084E08093E9008FEF9091E800815095FD41
:1025500006C095ED9A95F1F700008111F5CF8091B5
:10256000E80085FF1BC080914E0170E050E040E024
:10257000811104C050E040E068E070E0CE010E94AC
:10258000FB078091E8008E778093E80080E2FE01EF
:10259000A8EFB4E001900D928A95E1F7DF91CF9119
:1025A000089568E081E0CDCF81E08093E00080E293
:1025B0008093D8001092C9008FE19EE40197F1F753
:1025C00000C0000087E090EBDC0180933807909317
:1025D0003907A0933A07B0933B0788E19CE00FB618
:1025E000F894A895809360000FBE90936000FFCF91
:1025F00060914A018091DA0480FF20C080914901F6
:1026000043E0849FC0011124865D9C4F539A2BB1F7
:10261000277F3BB138605FB7F894FC01649FE00D01
:10262000F11D1124BF0168177907D1F45FBF8FE551
:1026300094E00197F1F700C00000089580914B01EC
:1026400090914C0123E0829FF0011124E65DFC4F44
:102650008917A0F61182108212828F5F3396F8CF0D
:10266000FC014191CF01E8E03BB9000000C047FF09
:102670002BB9440F000000C000C000C02BB900C03F
:10268000EA9591F7D0CF0F931F93CF93DF93EC018F
:1026900010E000E090914D019017110609F06CF4E4
:1026A0000E94F8128C8190E00196817099278C83AA
:1026B000DF91CF911F910F91089520914B01A801B7
:1026C000420F511D9A01220F331F240F351F265D23
:1026D0003C4F4C816091DC048091DB04969590170F
:1026E000110651F04CF0442349F04091DD040E9462
:1026F000F4090F5F1F4FCECF4423B9F340E0F7CF6B
:102700008F929F92AF92BF92CF92DF92EF92FF9201
:102710000F931F93CF93DF93EC014C81042F10E0B4
:102720009801D8010E9425359B01AC010E94F0342C
:102730004B015C01E0E2F0E0E01BF10BA5E5B0E04D
:10274000AC019B010E94F0346B017C019F01DF0111
:102750000E94F2339B01AC010E94FB349B01AC014F
:10276000280D391D4A1D5B1DC701B6010E940335A6
:10277000F22E822F90E039E23F1560F143E0249F72
:102780009001112435952795122F109500E085E5CD
:10279000E82EEF1880914D01081758F10E94F812A9
:1027A0009C8181E0992319F0903219F48FEF809386
:1027B000480180914801890F8C83DF91CF911F914F
:1027C0000F91FF90EF90DF90CF90BF90AF909F90D0
:1027D0008F90089525E530E0B901681B790B9B01C6
:1027E000220F331F260F371F37FFCCCF2F5F3F4FEE
:1027F000C9CF8E2D01FD8F2D20914B01622F600FCF
:102800007727771F9B01220F331F260F371F265D67
:102810003C4F412F6091DC040E94F4090F5FBACF56
:10282000EF92FF920F931F93CF93DF93EC018C8174
:10283000811109C081E08C831092280392E090936B
:1028400047018093460180914B0190914C0123E018
:10285000829FF0011124E65DFC4F891768F110E0BA
:1028600003E060914D01161768F10E94F812809103
:10287000460120912803280F2093280390914701B7
:10288000980F90934701191654F4022E000C330B45
:1028900040914D014150550B2417350734F0819577
:1028A00080934601813009F41C82DF91CF911F9102
:1028B0000F91FF90EF9008951182108212828F5F26
:1028C0003396CBCFE12EF12C70E0C7010E94D133BB
:1028D00020914B01820F482F50E020912803022EB7
:1028E000000C330BE216F306BCF020914701022ED8
:1028F000000C330B2E153F057CF0809F90011124B6
:10290000265D3C4F4091DD046091DC048091DB0446
:102910000E94F4091F5FA5CFFA01EE0FFF1FE40F1D
:10292000F51FE65DFC4F118210821282F3CF8F9269
:102930009F92AF92BF92CF92DF92EF92FF920F934E
:102940001F93CF93DF93EC018A81BB24BA9480FD5F
:1029500002C0BB24B394A0904D018C81811109C0A9
:1029600081E0B81228C08FEF8A0D8093270381E0A1
:102970008C83F12CE12C46E3942EEA14F8F00E94AB
:10298000F8128091270391E0B9125FC0811158C0FD
:1029900080914D018150809327031C82DF91CF915C
:1029A0001F910F91FF90EF90DF90CF90BF90AF906D
:1029B0009F908F90089510922703D9CF00914B01DB
:1029C0000E0D1F2D111DC801880F991F080F191F0B
:1029D000065D1C4FF80111821082128234E0C32E72
:1029E000D12C812C80912703880D87332CF1692D00
:1029F0000E94C333892F082E000C990B8E159F055A
:102A000091F48091DD048C9DA0018D9D500D1124C9
:102A1000559547955595479598016091DC048091AF
:102A2000DB040E94F4098B0CF1E0CF1AD108D1F637
:102A30008FEFE81AF80AA1CF87FFDDCF8A0DDBCF31
:102A4000815080932703BC82A9CF90E001966091CA
:102A50004D0170E00E94D133809327038C839ECF79
:102A6000EF92FF921F93CF93DF93EC0110E0EE24DF
:102A7000EA94F12C60914D01161770F00E94F81243
:102A80009A818C8190FF27C08F5F8C83DF91CF91DB
:102A90001F91FF90EF90089520914B01422F410F1D
:102AA0005527551FCA019A01220F331F280F391FBE
:102AB000265D3C4F70E0C7010E94D133962F8C8178
:102AC0004091DD046091DC04199F800D11240E9467
:102AD000F4091F5FCFCF8150D8CF9091DA0490FFD7
:102AE00014C090914B0120914C0133E0939FF00171
:102AF0001124E65DFC4F921710F00C94F8128183BC
:102B0000608342839F5F3396F6CF08950F931F93A0
:102B1000CF93DF9300D00F92CDB7DEB78C018091B9
:102B2000290381110AC09E012F5F3F4F48E76FEFD5
:102B30000E94F4098A8180932903F801648161303D
:102B400069F08091290340E0662361F040E0623043
:102B500011F44091290380E060E004C060912903F2
:102B600040E080E00E946D15F801848190E00196BC
:102B700063E070E00E94D13384830F900F900F9038
:102B8000DF91CF911F910F910895CF93DF9300D0E4
:102B90000F92CDB7DEB79091DA0490FF0AC09E0184
:102BA0002F5F3F4F0E94F4094B8169818A810E9407
:102BB0006D150F900F900F90DF91CF910895CF93E7
:102BC000DF93EC01EAEDF4E0438162818C810E94A5
:102BD000C5158C818F5F8C83DF91CF910895CF9342
:102BE000DF93EC01EC81F0E0E057FA4F4491EAED1D
:102BF000F4E0628181810E94C5158C818F5F8C8396
:102C0000DF91CF910895EAEDF4E080818E7F80839B
:102C10000E94D709E4E2F3E08281816082832FEF92
:102C200080E792E0215080409040E1F700C0000032
:102C30000C94F8129F92AF92BF92CF92DF92EF92D4
:102C4000FF920F931F93CF93DF937C015B016A0187
:102C50008091CA0201E010E08A3010F40AE010E02E
:102C6000C1E0D0E0F894B501C701F6010995982EAE
:102C70000E948F0A911004C021960C171D076CF456
:102C8000892DDF91CF911F910F91FF90EF90DF90F1
:102C9000CF90BF90AF909F900895CC9F9001CD9F13
:102CA000300D300D112490E080E045E34A95F1F7B6
:102CB0000000019682179307C1F7D4CF8091A80234
:102CC000811118C088EC9091E30097FD10C0EFE3EC
:102CD000FCE93197F1F700C000008150A1F782E0D4
:102CE0008093A8020E94AB0710921A0503C081E0EE
:102CF0008093A80281E09091A802913011F080E0C9
:102D0000089508950E945E16882351F0E091E7042B
:102D1000F091E804309721F00190F081E02D0994C2
:102D200080E008950F931F930E945E16882321F080
:102D30001F910F910C943B090E943B090091CB021B
:102D40001091CC022091CD023091CE02600F711F04
:102D5000821F931F1F910F9108951F93CF93DF93AD
:102D6000182FD0E0C0E0893311F4C0E5D0E0812F06
:102D70000E946911209731F4812FDF91CF911F912B
:102D80000C943E118FE99FE00197F1F700C000001D
:102D90002197F0CFCF93DF93C7EAD1E060E0CE0177
:102DA0000E949D342196C11584E0D807B9F7DF91C0
:102DB000CF9108956F927F928F929F92AF92BF9220
:102DC000CF92DF92EF92FF920F931F93CF93DF93F7
:102DD00084E9C82E86E0D82E93E9E92EF12CE7018C
:102DE000C056D10936011BC0F50185909490692D1C
:102DF000C8010E949D34682DC80101960E949D342F
:102E000082E0A80EB11C0E5F1F4FC017D10761F7FB
:102E10008CE0680E711C2C96CE15DF0529F08E0112
:102E20000C5011095301E0CF7E0180E6E80EF11C41
:102E300080E6C80ED11C83E1E81682E0F80679F638
:102E4000DF91CF911F910F91FF90EF90DF90CF9086
:102E5000BF90AF909F908F907F906F900895CF9389
:102E6000C82F6FEF811162E283E290E00E949D34EF
:102E70006FEFC11164E084E290E00E949D346FEF37
:102E8000C11168E285E290E0CF910C949D3480E01E
:102E90000E942F1760E086E290E00E949D340E941D
:102EA000DA160E94CA1681E00C942F17CF93C091B6
:102EB000F104C2FB992790F9981799F080FBC2F9A9
:102EC000C093F1046091F00484E090E00E949D348E
:102ED0006C2F82E290E00E949D3482E0CF910C94AE
:102EE000240ECF9108950F931F93CF93DF93C42F98
:102EF000D0E0CC0FDD1F2CE0629FC00DD11D11244E
:102F000030E6839FC00DD11D1124CE0187960E940B
:102F10008934082F10E0102F0027CE0188960E94D8
:102F200089349801282BC901DF91CF911F910F910E
:102F30000895462F843038F4783028F4663018F439
:102F4000672F0C94731790E080E00895CF92DF9282
:102F5000FF920F931F93CF93DF936C01009127058E
:102F600080919D02082BC7E0D0E010E0FC2EC80144
:102F70000C2E02C0959587950A94E2F780FD0CC04F
:102F80002197A0F7F12C8F2DDF91CF911F910F91F9
:102F9000FF90DF90CF900895B6018C2F0E94991773
:102FA0000E94EB0A019761F3EECFCF93DF93EC0120
:102FB0000E94A617BE010E949917DF91CF910C9431
:102FC000EB0AFC01808191810E94D51792959F7038
:102FD000963091F058F4925F9F70923058F4803F91
:102FE00019F030F4883E30F481E008959A5FF4CF10
:102FF000843FD1F380E00895883EB0F3813FD1F75C
:10300000F3CF83E290E00E948934823289F484E233
:1030100090E00E948934843059F485E290E00E9467
:10302000893491E0883209F090E0892F8170089509
:1030300080E0FCCFCF9384E090E00E948934C82FD9
:1030400082E290E00E948934982F8C2FCF910895CE
:103050004F925F926F927F928F929F92AF92BF92A8
:10306000CF92DF92EF92FF920F931F93CF93DF9354
:10307000FC016280448081E08483E0E9F5E07490A3
:10308000EFE0F6E0E491812C75E0972EF2E0CF2E90
:10309000DD24D394AA24AA94B12C55245A94E71978
:1030A0000E2F10E080914D01881690F0DF91CF91A6
:1030B0001F910F91FF90EF90DF90CF90BF90AF9056
:1030C0009F908F907F906F905F904F900C94F8122C
:1030D000E82CF12C82E0861568F09E9CF0019F9C04
:1030E000F00D1124E453FC4F8091DB048083809128
:1030F000DC048183411023C09E9CF0019F9CF00D55
:103100001124E453FC4F1382128220914B01C7011A
:10311000820F911D9C01220F331F280F391F265D3E
:103120003C4F9E9CF0019F9CF00D1124E453FC4FFA
:103130004281618180810E94F4098394B3CF9E9C77
:10314000E0019F9CD00D1124C453DC4F8B81882358
:10315000E9F081508B83859DC00111246C8170E062
:103160000E94A333FB01FF27E057FA4F8491E82F19
:10317000E719E59DC0011124B8010E94A333809195
:10318000DD04689FB00111247A83BFCF0E944D34C3
:103190002091DD04269521582C9DA0012D9D500DD8
:1031A0001124452F5527841795070CF0AECF82E0E8
:1031B000861588F40E944D34B5010E94D13388836E
:1031C0000E944D342091DC042695622F70E00E940D
:1031D000D133280F29839E9CF0019F9CF00D112470
:1031E000E453FC4F12828091DD04893C58F088EC56
:1031F0009E9CF0019F9CF00D1124E453FC4F8483AE
:10320000838383CF8431A0F784E1F2CFCF92DF9222
:10321000EF92FF926B017C010E94DE09B701A601CB
:1032200088E090E0FF90EF90DF90CF900C94AF3467
:10323000AF92BF92CF92DF92EF92FF920F931F93C4
:10324000CF93DF9300D00F92CDB7DEB7182FF62EB5
:10325000042FE22E9091DA0490FF3AC0E92FE69510
:10326000AE2FB0E0AF52BE4F8C91809324039E7F6F
:103270009230E1F59E012F5F3F4F812F0E94F409AC
:103280004B8169818A810E946D158091DB048113D5
:1032900008C08091DC048F1104C08091DD04801788
:1032A00029F0809126038260809326031093DB042B
:1032B000F092DC040093DD04EE2051F06091DA041A
:1032C0007091DB048091DC049091DD040E9406196A
:1032D0000F900F900F90DF91CF911F910F91FF9062
:1032E000EF90DF90CF90BF90AF900895823019F4A7
:1032F0000091DD04CACF863019F41091DB04C5CFEC
:103300008930D9F3893109F6E9518E2F8170D82E91
:10331000E695F0E0E557FA4FA590B490C12CBB2498
:1033200060914D01C61618F00E94F812AECF2C2DF8
:1033300030E0A29EC001A39E900DB29E900D11247C
:1033400070E00E94A333812FD11013C0860F4091EB
:103350004B01420F532F511D9A01220F331F240F8F
:10336000351F265D3C4F402F6F2D0E94F409C394FA
:10337000D7CF861BECCFEAEDF4E0438121E1421B7D
:1033800008F440E021E0628181810C941819EAED93
:10339000F4E0438121E1420F08F44FEF21E0628124
:1033A00081810C941819EAEDF4E0628121E1621B3D
:1033B00008F460E021E0438181810C941819EAED62
:1033C000F4E0628121E1620F08F46FEF21E04381B4
:1033D00081810C941819EAEDF4E0818121E04381A8
:1033E000628188500C941819EAEDF4E0818121E0A3
:1033F00043816281885F0C9418198091DE048823D0
:1034000019F081508093DE046091DA047091DB043E
:103410008091DC049091DD040C9406198091DE0407
:10342000833018F48F5F8093DE046091DA0470912A
:10343000DB048091DC049091DD040C940619EAED24
:10344000F4E083E0808311828FEF828388E78383B7
:103450001482A4E2B3E012968C91129783601296C4
:103460008C9360817181828193810C94061969EE3D
:103470007EEF90E080E00E94BB3460E082E090E06C
:103480000E949D3460E083E090E00E949D341092A1
:103490009D0260E084E090E00E949D3460E082E262
:1034A00090E00E949D3460E085E090E00E949D34B1
:1034B00060E086E090E00E949D346FEF87E090E04E
:1034C0000E949D3440E050E0BA0188E090E00E9404
:1034D000AF3460E08DE090E00E949D3440E050E029
:1034E000BA0188E190E00E94AF3460E087E190E0AB
:1034F0000E949D3440E050E0BA018CE190E00E94CF
:10350000AF3470E060E080E290E00E94BB3440E0C5
:1035100050E0BA0188E190E00E94AF3480E00E9460
:103520002F170E94471740E050E0BA018FE090E06B
:103530000E94AF3440E050E0BA0183E190E00C9487
:10354000AF341F93CF93DF9300D000D0CDB7DEB759
:103550004091B1025091B2026091B3027091B402F5
:103560002FB7F8948091EC049091ED04A091EE04B3
:10357000B091EF042FBF841B950BA60BB70B11E086
:1035800084369105A105B10570F10E9492166E5F17
:103590007F4F8F4F9F4F69837A838B839C8380916A
:1035A0001501909116018B549D4F4091140150E0EC
:1035B0004530510510F044E050E0BE016F5F7F4F91
:1035C0000E94803482E090E00E942D33182F8823DF
:1035D00051F00E943B096093B1027093B202809354
:1035E000B3029093B402812F0F900F900F900F9021
:1035F000DF91CF911F910895CF93DF93CDB7DEB7C1
:1036000028970FB6F894DEBF0FBECDBF85E0EAED78
:10361000F4E0DE01119601900D928A95E1F7809118
:10362000240390912503A09126038E839F83A8876E
:1036300028854091C6025091C7026091C8027091DE
:10364000C9023FB7F8948091EC049091ED04A091E9
:10365000EE04B091EF043FBF841B950BA60BB70B94
:1036600084369105A105B10510F4222319F180914A
:103670001D0190911E018B549D4F40911C0150E003
:103680004930510510F048E050E0BE016F5F7F4FB8
:103690000E94803483E090E00E942D33882369F0FB
:1036A0000E943B096093C6027093C7028093C802D0
:1036B0009093C9021092260381E028960FB6F894E1
:1036C000DEBF0FBECDBFDF91CF910895EF92FF9285
:1036D0001F93CF93DF9300D000D00F92CDB7DEB70A
:1036E0007B0190E080E00E942D33182F882309F49D
:1036F0006DC04091070150E04115510511F041E0C6
:1037000050E060910801709109016B547D4FCE012A
:1037100005960E9480344091AD025091AE026091B6
:10372000AF027091B0022FB7F8948091EC049091A1
:10373000ED04A091EE04B091EF042FBF841B950B14
:10374000A60BB70B84369105A105B10538F486EBBD
:1037500092E00E9494079D818917C1F181E090E079
:103760000E942D33882309F458C040910F0150E086
:103770004530510510F044E050E060911001709127
:1037800011016B547D4FCE0101960E94803486EB6F
:1037900092E00E9494079D8189133FC00E943B09DB
:1037A0006093AD027093AE028093AF029093B0022B
:1037B00089819A81AB81BC818093A9029093AA02EE
:1037C000A093AB02B093AC0211E00EC08091B602A0
:1037D0009091B702A091B802B091B90289839A83FF
:1037E000AB83BC831111E4CF8091A9029091AA020E
:1037F000A091AB02B091AC02F70180839183A283C8
:10380000B383812F0F900F900F900F900F90DF9147
:10381000CF911F91FF90EF90089510E0E5CF90E0D9
:1038200080E00E949734893E9E4F11F40C94011859
:1038300080E008951F920F920FB60F9211242F93DC
:103840003F934F935F936F937F938F939F93AF9328
:10385000BF93CF93DF93EF93FF93D091E900DF7095
:103860008091EC00C82FC17080FDC0E81092E90083
:103870008091F000877F8093F00078940E94640E1E
:103880001092E9008091F00088608093F000CD2BC9
:10389000CF70C093E900FF91EF91DF91CF91BF917D
:1038A000AF919F918F917F916F915F914F913F91D8
:1038B0002F910F900FBE0F901F9018951F920F928F
:1038C0000FB60F9211242F933F934F935F936F93F3
:1038D0007F938F939F93AF93BF93EF93FF938091C9
:1038E000E10082FF09C08091E20082FF05C0809163
:1038F000E1008B7F8093E1008091DA0080FF24C09B
:103900008091D80080FF20C08091DA008E7F809364
:10391000DA008091D90080FF9DC080E189BD82E1FD
:1039200089BD09B400FEFDCF81E080931A05809126
:10393000F504811109C00E94AB070E9476088091AE
:10394000E20084608093E2008091E10080FF17C074
:103950008091E20080FF13C08091E2008E7F80930F
:10396000E2008091E20080618093E2008091D800C3
:1039700080628093D80019BC85E080931A058091FD
:10398000E10084FF2BC08091E20084FF27C080E12A
:1039900089BD82E189BD89B5982F917080FFFBCFE9
:1039A0008091D8008F7D8093D8008091E1008F7E38
:1039B0008093E1008091E2008F7E8093E20080910D
:1039C000E20081608093E20080911B05882309F466
:1039D00047C084E080931A0580911A058091E10028
:1039E00083FF27C08091E20083FF23C08091E10024
:1039F000877F8093E10082E080931A0510921B0577
:103A00008091E1008E7F8093E1008091E2008E7FC3
:103A10008093E2008091E20080618093E20042E0C6
:103A200060E080E00E9444088091F000886080930C
:103A3000F000FF91EF91BF91AF919F918F917F9196
:103A40006F915F914F913F912F910F900FBE0F900B
:103A50001F90189519BC10921A051092F50474CF96
:103A60008091E30087FD93E090931A05B5CF789499
:103A70001F921FB61F9211248F939F93AF93BF93F2
:103A80008091EC049091ED04A091EE04B091EF04CC
:103A90000196A11DB11D8093EC049093ED04A093B9
:103AA000EE04B093EF04BF91AF919F918F911F905F
:103AB0001FBE1F9018959C014FB7F8948091EC049D
:103AC0009091ED04A091EE04B091EF044FBF821BE2
:103AD000930B08952FB7F8948091EC049091ED0426
:103AE000A091EE04B091EF042FBF08950F931F93A0
:103AF000CF93DF93C62FD42F022FFC01828188231E
:103B0000A1F0609326050E946A1D9093250580937D
:103B10002405C77081E001C0880FCA95EAF7DF91DC
:103B2000CF911F910F910C94341180912605681349
:103B300035C080912405909125050E945B1D883C2D
:103B4000910560F510E21D0FCD17B9F080E28C0FE2
:103B5000883040F4C77081E001C0880FCA95EAF749
:103B60000E942D11183048F481E09D2F977001C0FC
:103B7000880F9A95EAF70E943411802F0E94AD16A3
:103B8000183098F4D77081E001C0880FDA95EAF711
:103B9000DF91CF911F910F910C942D11C77081E08F
:103BA00001C0880FCA95EAF7F3CFDF91CF911F913B
:103BB0000F9108950E945E1681110C946A1D0E9457
:103BC0009216CB0108956091DA04669570E04BE09F
:103BD00050E08BE391E00E946634892B19F481E078
:103BE000809325030E94DA1D90931F0380931E0388
:103BF0008091260384608093260308959091DA04CF
:103C000090FF3BC0917081112EC092609093DA04B6
:103C100080912603816080932603662351F0609192
:103C2000DA047091DB048091DC049091DD040E9441
:103C300006196091DA04669570E04BE050E08BE382
:103C400091E00E946634892BA9F00E94D70981E097
:103C50008093210320E04091DD046091DC04809199
:103C6000DB040C9418198B3210F09465CFCF880FB9
:103C7000982BCCCF0E94E31DEACF08958091DA04FF
:103C80008695815009F48AE261E00C94FE1D8091D2
:103C9000DA0486958F5F8B3208F081E061E00C9446
:103CA000FE1D9091DA0490FF07C09695981720F0BA
:103CB000961710F40C94471E61E00C94FE1D3F9281
:103CC0004F925F926F927F928F929F92AF92BF922C
:103CD000CF92DF92EF92FF920F931F93CF93DF93D8
:103CE00000D000D00F92CDB7DEB78C01FC018381EC
:103CF0009481892B31F08081918189238F3F09F054
:103D000009C70F900F900F900F900F90DF91CF91F8
:103D10001F910F91FF90EF90DF90CF90BF90AF90E9
:103D20009F908F907F906F905F904F903F900895FD
:103D30000E94A617F82E682F89819A810E94A80CEC
:103D400069817A818F2D0E9499177C01F801828107
:103D5000882309F459C6970122513F452031310586
:103D600008F087C68FEF93E00E948934FEEEEF0ED5
:103D700057EA852E992493948823A1F180917902A2
:103D8000877009F4BECFF8018281882309F4B9CF86
:103D90008091F10482FDB5CF82E00F900F900F90DB
:103DA0000F900F90DF91CF911F910F91FF90EF90A7
:103DB000DF90CF90BF90AF909F908F907F906F904B
:103DC0005F904F903F900C94240E811424E0920653
:103DD000A9F2C4010E948934811101C0EA943FEF25
:103DE000831A930AE110F1CF1C821B82442443946E
:103DF0004AE0342E74018FEFE81AF80AC4010E94D9
:103E0000893489831A82882309F4B8CF9FEF980FE9
:103E1000933000F58A83498292E0890E911CC70194
:103E20000E9489348B83882309F4A8CFFE01319640
:103E30007F01F70120812223E9F2213009F049C0F6
:103E400091818281913041F4F2E0EF0EF11C0E94E9
:103E5000AD1609C04701EACF923049F422E0E20EE4
:103E6000F11C0E9469113FEFE31AF30AE2CF93308D
:103E700031F432E0E30EF11C0E943E11F4CF943095
:103E800021F08FEFE81AF80AEECF92E0E90EF11C6C
:103E900030E020E0B7016F5F7F4FF7014181805331
:103EA000990B8A30910550F021503109E0F28FE9E9
:103EB0009FE00197F1F700C00000F6CF329EF001BD
:103EC000339EF00D11249C012E0F3F1F842F7B0188
:103ED000E1CFE22FF0E0E555FE4F5490822F86951A
:103EE0008695869590E0FC01E556FE4F649027701C
:103EF000712C022E02C0759467940A94E2F7E1E0F7
:103F00006E227724FC01E557FE4FA490B12C022EBF
:103F100002C0B594A7940A94E2F7F1E0AF22BB2463
:103F2000FC01E558FE4FC490D12C02C0D594C79433
:103F30002A95E2F721E0C222DD246114710419F010
:103F400081EE0E946911A114B10419F086EE0E945D
:103F50006911852D0E94AD16AB2819F086EE0E94DE
:103F60003E11672819F081EE0E943E11CD2809F418
:103F70007ACF8CE26CCF81E00E94400E0E940D0E41
:103F8000FDCE81E00E94180EF9CF82E0F5CF82E0ED
:103F9000F9CF970133273093EE022093ED0288C5C5
:103FA000F5EFEF16FCE5FF0609F467C008F461C001
:103FB00036EFE3163CE5F30609F422C51092260518
:103FC00093E0E9169DE5F90608F05EC0EAEFEE160B
:103FD000ECE5FE0638F4970122503C4524313105CA
:103FE00008F05EC00E941A189093F1048093F004C8
:103FF00081E1E8168CE5F80609F443C108F0B7C082
:10400000E9E0EE16ECE5FE0609F42DC108F079C0F2
:1040100025E0E2162CE5F20609F41DC108F05BC0AC
:1040200083E0E8168CE5F80609F40BC108F00FC12F
:104030008091F0048160E2E0EE16ECE5FE0609F402
:1040400003C16091F004F090F10484E090E00E94DC
:104050009D346F2D82E290E00E949D340E944F0EAD
:104060008DCE27E245EE65EE51C526E241EE60EECB
:104070004DC527E245EE64EE49C526E241EE62EE0B
:1040800045C528E241E0EFCFF1E6EF16FDE5FF067A
:1040900009F4A8CF25EAE2162DE5F20609F4A2CF2D
:1040A000F6E1EF16FCE5FF0609F015C1882309F4D7
:1040B000D6C480919B028A7A91E009F490E09093B3
:1040C0002E0269E2811165E38EE092E00E9471099F
:1040D0000E94A80D53CE8091F0048062F7E0EF16A5
:1040E000FCE5FF0609F4B0C08091F004806128E08F
:1040F000E2162CE5F20608F4A7C08091F004806473
:10410000A3C08091F0048B7F3DE0E3163CE5F3060D
:1041100009F49AC0B0F48091F0048E7F9BE0E91618
:104120009CE5F90609F490C08091F0048C60ECE005
:10413000EE16ECE5FE0608F487C08091F0048D7F52
:1041400083C08091F0048F7EFFE0EF16FCE5FF0650
:1041500009F47AC08091F004877F20E1E2162CE513
:10416000F20608F471C08091F0048F7D6DC03DEFC0
:10417000E3163CE5F30609F480C078F595E1E9160D
:104180009CE5F90609F487C0A0F48091F004837FD0
:10419000F3E1EF16FCE5FF0609F456C008F475C01C
:1041A0000E944F0E9091F004892F97FB87F9805859
:1041B0004BC03BEFE3163CE5F30609F450C008F0B2
:1041C00058C08091F10481609AEFE9169CE5F906E8
:1041D00009F037CF8093F10434CFE1E0EE16EDE53E
:1041E000FE0609F464C0C8F48091F1048C7F2FEFBF
:1041F000E2162CE5F20671F38091F1048360E1147C
:104200003DE5F30638F38091F104982F9095917075
:104210008E7F892B90FB81F9DDCF81E6E8168DE555
:10422000F80609F44AC095EAE9169DE5F90609F48D
:104230004BC0E2E0EE16EDE5FE0609F002CF60E0CD
:1042400037C08091F00482608093F004FACE8091B0
:10425000F0048460F9CF8091F0048860F5CF8091FC
:10426000F1048260B7CF0E944F0E8091F004806805
:10427000EBCF8091F1048E7FADCF8091F1048D7FE3
:10428000A9CF8091F0048F7BDFCF0E944F0E8091E9
:10429000F0048F77D9CF8091F00482FB992790F9B1
:1042A00021E0922790FB82F990FB83F9CDCF61E06A
:1042B0008EE090E00E949D34C4CE9091F004892F4E
:1042C0008F7E94FF8061C0CF9091F004892F8E7F04
:1042D00090FF8160B9CF81114AC180919B028272A7
:1042E0002CECE2162CE5F20609F427C108F098C080
:1042F00096ECE9169CE5F90609F40BC108F069C0D3
:10430000F3ECEF16FCE5FF0609F4F9C008F04EC027
:1043100032ECE3163CE5F30609F4C7C0F8018281EC
:10432000E080F180882309F45BC1C7010E94A617D1
:10433000D82E682FC7010E94A80CB7018D2D0E94AE
:1043400099170E94EB0A7C01882EF801D280B58073
:10435000B2943FE0B322809179028770C1F0AD2C16
:10436000DD20B1F08F2D807F803421F080E28E0D32
:10437000883068F08091F10482FD09C082E00E94DB
:10438000240E809179028770AA24A3948111A12C14
:104390009F2C92942FE09222FBE0F91508F490C133
:1043A000E92DF0E0E05CFA4C0C94E53394ECE9166E
:1043B0009CE5F90609F4A8C04BEE59E164EF79E1F8
:1043C000E5ECEE16ECE5FE0609F0A8CF0E94D20956
:1043D000D5CCF9ECEF16FCE5FF0609F4A4C080F497
:1043E00037ECE3163CE5F30609F498C04FED59E1CC
:1043F00063ED79E198ECE9169CE5F90639F38ECF87
:10440000EAECEE16ECE5FE0609F492C04DEF59E138
:104410006EE07AE1FBECEF16FCE5FF06B9F27ECF29
:1044200021EDE2162CE5F20609F495C0C8F48EECF5
:10443000E8168CE5F80609F488C008F483C0EFECB0
:10444000EE16ECE5FE0609F483C06EE089E0F0EDBF
:10445000EF16FCE5FF0609F061CF0E94511E8ECCDD
:1044600024EDE2162CE5F20609F47BC088F482ED17
:10447000E8168CE5F80609F471C061E088E193ED77
:10448000E9169CE5F90609F049CF0E94FE1D76CC9D
:10449000E5EDEE16ECE5FE0609F466C06AE285E29B
:1044A000FDE5EF16FF06C9F239CF8091DA0480FFEF
:1044B00020C08E7F8093DA046091DA047091DB046F
:1044C0008091DC049091DD040E9406190E94D709B6
:1044D000809126038160809326032FEF30E782E0EE
:1044E000215030408040E1F700C000000E94F812E7
:1044F00045CC81608093DA0461E08695C6CF4EE3B7
:104500005EE167E47EE162CF47E45EE16EE37EE177
:104510005DCF44EF59E16BEE79E158CF43ED59E1BE
:104520006FED79E153CF4BEB59E167EC79E14ECF79
:1045300047EC59E16BEB79E149CF4EE05AE16DEF81
:1045400079E144CF61E081E0A0CF65E082E085CFF2
:1045500068E086E082CF64E18FE07FCF67E185E1AC
:104560007CCF62E289E179CF61E083E28ECF9AE588
:10457000E9169DE5F90681F168F4E114FCE5FF0612
:10458000F1F02EEDE2162CE5F20609F0C7CE0E94FE
:10459000371AF4CB3BE5E3163DE5F306F9F08CE57D
:1045A000E8168DE5F80609F0B9CE8091F10482FB9A
:1045B000882780F991E089270E945617AFCE0E9484
:1045C0004F0E9FEFE4E3FCE09150E040F040E1F754
:1045D00000C000000E94D41281E0EECF80E0ECCF5A
:1045E000C7010E947F0CD82EA8CE2F2D2F70C22E6F
:1045F0008F2D807F19F0C29490EFC922DD20B9F091
:10460000CC2069F080E28E0D883010F0811009C056
:1046100080919B02C82AC0929B020E94A80D8E2DF9
:104620004DC080919A02C82AC0929A02F6CF8E2D70
:104630000E943E11CC2009F443C080E28E0D8830E8
:1046400010F0811004C08C2D0E946E0C06C0C09426
:1046500080919A02C822C0929A020E94A80D30C08E
:104660003F2D3F70C32E8F2D807F803219F0C29472
:1046700080EFC822882089F081E0881609F47FC085
:10468000DD2009F489C0BB2009F47FC0F8018581D1
:1046900080FFC5CF8F70858378C02091F10422FF01
:1046A0004BC0DD2009F442C0CC2039F080919B0240
:1046B000C82AC0929B020E94A80D80E00E94691146
:1046C000292D2850330B2430310510F40E94821616
:1046D000AA2009F416CB8091790280FD12CBF80153
:1046E00012828595859585950E94400EC8010E948D
:1046F0005F1E809179028595859585950F900F9025
:104700000F900F900F90DF91CF911F910F91FF901D
:10471000EF90DF90CF90BF90AF909F908F907F9061
:104720006F905F904F903F900C94180E80E00E9425
:104730003E11CC2029F287CFDD20A1F090919C0280
:104740008C2D892BB11003C00E943411B9CFE1E048
:10475000BE12FACF22FDB4CF891709F4B1CF8093EE
:104760009C02AECFB11006C00E94680C8C2D0E9436
:104770002D11A6CFF1E0BF1609F4A2CFF5CFDD20B1
:1047800031F025E02B1508F49BCF8C2DDDCF34E0E4
:104790003B1508F495CFEACFBB2041F3F9E38F1224
:1047A00009C02FEF37EE83E0215030408040E1F721
:1047B00000C000008E2D0E943E1182CF8F2D869565
:1047C0008695837061F0813009F07ACFC7019370CC
:1047D000D11002C090E080E00E94A60971CFC7010D
:1047E0009370D11002C090E080E00E94BC0968CFB5
:1047F0008F2D837091F5D11063CF4E2D4295469544
:104800004770440F440F8E2D8F70042E01C0880F07
:104810000A94EAF72E2D2071E4FE07C02FE030E065
:1048200001C0220F4A95EAF720953F2D369536951F
:104830003370323069F050F440919D02313029F0EC
:10484000822B84230E944B0E3BCF842B822BFACFEA
:10485000282B80919D028227F5CF8695DD2011F0CF
:104860008F2D8170882309F42BCF4E2D42954695CC
:104870004770440F440F8E2D8F70042E01C0880F97
:104880000A94EAF72E2D2071E4FE07C02FE030E0F5
:1048900001C0220F4A95EAF720953F2D36953695AF
:1048A0003370323069F050F440912705313029F0EF
:1048B000822B84230E94090E03CF842B822BFACFF4
:1048C000282B809127058227F5CF9F2D9F70F92EE9
:1048D000DD2029F0892F0E94400E8E2D35CF8E2DA0
:1048E0000E942D118F2D0E94180EEACE8E2DE2EF20
:1048F0008E16B1F1E81570F0F0EF8F16D1F021EFC0
:10490000821691F0DD2009F45EC0B11088CE8F2DA3
:104910008F712AC033EF831651F194EF8912F2CFD1
:104920008091F10482FF2FC08F2D8F71DD20D9F28D
:104930001BC0DD2081F0E4E0EB1508F4C1CE2F2D83
:104940002F7181E090E001C0880F2A95EAF79091DD
:1049500027058927AFCFF5E0FB1508F4B1CEEFCFDF
:104960008F2D8F71D110BFCF0E94400EA9CE80E055
:10497000DD2009F49FCF9F2D9F7181E001C0880F3A
:104980009A95EAF797CFDD2099F02F2D2F71F22E0F
:10499000822F0E94400E8091F10482FD07C038E012
:1049A000F39EC00111248360809379028F2DDCCFA8
:1049B00081E00E94240E81E08B1508F081CE82E018
:1049C0000E94240E7DCEBB2059F0893309F0F2CE2F
:1049D0009FEFE7EEF3E09150E040F040E1F7E8CEE2
:1049E0008F2D8F7180CFE5EFEE16ECE5FE0609F412
:1049F00044CB08F43ECB26EFE2162CE5F20649F54F
:104A000027E245EE66EE82C030E1E3163FE5F306AD
:104A100009F4B7CA81E1E8168FE5F80609F4B7CAC8
:104A2000F3EFEF16FCE5FF0609F41FCBE0F638EDD7
:104A3000E3163CE5F30609F414CB89EDE8168CE5A2
:104A4000F80609F41ECB97EDE9169CE5F90609F482
:104A50005AC036E1E3163CE5F30609F03ECC8091FE
:104A60002E0269E2811165E38EE092E00E9447091F
:104A70002FCB90E1E9169FE5F90609F47CCAE1E144
:104A8000EE16EFE5FE0609F480CA90E2909333013A
:104A900097013056211590E2390708F47ACA305E42
:104AA0002115304108F475CAF092EE02E092ED0251
:104AB000FCE3EF16F10430F4F701E05BFE4F908168
:104AC00090933301F80191819093F002908190933B
:104AD000EF02F3EFEF16FCE5FF0609F4C6CA08F093
:104AE0005FCA38EDE3163CE5F30609F4BACA99ED5E
:104AF000E9169CE5F90609F4C4CAE7EDEE16ECE503
:104B0000FE0609F05BCA26E241EE61EEC8010E9492
:104B1000761D34C985E0DE01119601900D928A95CB
:104B2000E1F7F801228189819A81211101C90E944E
:104B30007F0CF82E05C91F93CF93DF938091460217
:104B4000807FA9F480914302882389F080917802C4
:104B5000D09147026091410270914202A0914402BB
:104B6000B0914502C62FC72316E0D81304C0DF91C9
:104B7000CF911F91089590E0109711F0CF3F19F455
:104B800001968770F2CF189F9001199F300D112464
:104B9000F901E85BFD4F41814713F2CF4081461395
:104BA000EFCF42814111ECCF438154814A1B5B0B13
:104BB000483C510528F7809146028F7080618093B0
:104BC0004602F901E35BFD4F80818F708061808335
:104BD00081E492E00E945F1EDF91CF911F910C94BF
:104BE000750CAF92BF92CF92DF92EF92FF920F932C
:104BF0001F93CF93DF93CDB7DEB761970FB6F894CD
:104C0000DEBF0FBECDBF8C0185E0F801DE011D9631
:104C100001900D928A95E1F7F801E28081E4A82ED7
:104C200082E0B82E609144027091450261157105D1
:104C300009F432C19091410240914202892F8423AC
:104C40008F3F09F429C120813181C380D480F09045
:104C50004302F601E61BF70BFF2009F4E8C0809140
:104C60004602582F507FE83CF10508F0ABC05111C7
:104C700077C0FE2C431321C092131FC0E1101DC04A
:104C80008F70806180934602C5010E945F1E8091F3
:104C90004602F80185838F2D61960FB6F894DEBF2A
:104CA0000FBECDBFDF91CF911F910F91FF90EF907D
:104CB000DF90CF90BF90AF900895CD2829F0822F3C
:104CC00083238F3F09F003C180E0F82FF170DF2EBE
:104CD00080FF3CC0809178024091470256E08413E7
:104CE00015C02D873E878D859E850E94D517292F5B
:104CF00022952F702230F0F0243018F59F70F1F0DB
:104D0000F8019581907FD1F4D12C1EC090E0589F7E
:104D1000F001599FF00D1124E85BFD4F61813613BE
:104D200006C06081261303C06281E6120FC001969F
:104D30008770D5CF9F7011F0882331F3805E883063
:104D400018F3C8010E945F1EFD2CA5CFEE2009F4C8
:104D5000A2CF80914602816080934602F12C9BCFC6
:104D6000431306C0921304C0F801EE2009F479C081
:104D7000C8010E94E117882309F1EE20F9F0809123
:104D80004602803270F02091410230914202388711
:104D90002F831986DB86CA868C87CE0107960E94F0
:104DA0005F1E86E0F801A1E4B2E001900D928A95C1
:104DB000E1F70E949B25FF24F3946DCFC8010E9468
:104DC0005F1EF9CF51110AC081E492E00E945F1E7C
:104DD00086E0F50111928A95E9F7C0CF43130FC021
:104DE00092130DC0E1100BC0F8018583C8010E9429
:104DF0005F1E86E0F50111928A95E9F74CCFC80154
:104E00000E94E1178823D1F2EE20C1F28091460280
:104E1000803238F220914102309142023A83298354
:104E20001B82DD82CC828E83CE010196B8CFE83C16
:104E3000F105F8F6FE2CEE2009F243131FC0921381
:104E40001DC08091460280FD10C0982F907F69F0B0
:104E5000F8018583903F31F0982F907F905F8F709D
:104E6000892B8583C8010E945F1E86E0F801A1E4BA
:104E7000B2E001900D928A95E1F70DCFC8010E9432
:104E8000E11781118ECF80914602816080934602A6
:104E9000C8010E945F1EFFCEEE2009F48FCFC8012B
:104EA0000E94E117F82E882309F488CF86E0F801E4
:104EB000A1E4B2E001900D928A95E1F78091410260
:104EC000909142020E94D5170E949B25E4CE81E07A
:104ED0008E25FBCE1F93CF93DF93CDB7DEB76797B9
:104EE0000FB6F894DEBF0FBECDBF4B8B5C8B6D8BC6
:104EF0007E8B8F8B611110929A021A8A198A85E033
:104F0000FE017396DE011D9601900D928A95E1F7E0
:104F100086E0FE013D96DE01179601900D928A957E
:104F2000E1F7CE0107960E94F125811112C086E0BB
:104F3000FE013796DE01119601900D928A95E1F7F8
:104F40008A859B85892B29F088859F8189238F3FBE
:104F5000B1F516E0809178029091470289131DC047
:104F600067960FB6F894DEBF0FBECDBFDF91CF912D
:104F70001F91089596E0929FD001939FB00D112448
:104F8000A85BBD4FFE01319601900D929A95E1F715
:104F9000809347020E94750CDCCF819FC0011124D1
:104FA000885B9D4F0E94F1258823D1F28091780281
:104FB00090E001968770992780937802CBCF20915B
:104FC000470230E0C9010196877099274091780225
:104FD0004817190679F60E944F0E10924702109258
:104FE000780286E0E1E4F2E0DF011D928A95E9F7BC
:104FF000B0CF7F928F929F92AF92BF92CF92DF926B
:10500000EF92FF920F931F93CF93DF93CDB7DEB74D
:105010002C970FB6F894DEBF0FBECDBF8E010F5F89
:105020001F4F88E0D8011D928A95E9F78FEBC82EB3
:1050300081E0D82EF12CE12CAA24A394B12C29ECE8
:10504000822E21E0922EF60181916F018F3F09F4AB
:1050500043C0F894E82FE295EF70F0E021A18F7043
:10506000A50102C0440F551F8A95E2F7CA01922F8D
:10507000982B91A392A18095892382A30E948F0AE5
:1050800000C0E3ECF1E0712C31E021912F3F09F4F5
:105090007DC0A22FA295AF70B0E090968C9190E069
:1050A0002F7002C0959587952A95E2F780FD6EC016
:1050B000832F782A330F8E169F0639F7F601319722
:1050C00080818F3F11F00E94910A50EA5A95F1F7C2
:1050D000F801EE0DFF1D70828FEFE81AF80AA4E0C8
:1050E000EA16F10409F0AFCF48E050E0B8018FECC8
:1050F00092E00E9473347C01892B41F088E0F80132
:10510000AFECB2E001900D928A95E1F71091D802D0
:10511000E114F104E9F181E08093A0020E946A1D8C
:1051200090939F0280939E0280919E0290919F0295
:105130000E945B1D059790F0E12FF0E0EA5EFC4FC6
:105140008091CF0280838091D00281838091D102AF
:1051500082838091D20283831092A00281E090E04A
:10516000EF28D1F02C960FB6F894DEBF0FBECDBF5E
:10517000DF91CF911F910F91FF90EF90DF90CF9033
:10518000BF90AF909F908F907F90089580E091CFD7
:105190008091A0028111C8CF0E945E16F82EE09186
:1051A000D802882309F476C019861A861B861C86C5
:1051B0000E2F10E00A5E1C4F8091CA028A30A0F5C3
:1051C00046E65BE1BE01675F7F4FC8010E941A1689
:1051D0008823C9F141EA5AE1BE01675F7F4FC801E8
:1051E0000E941A16882379F14CEF5AE1BE01675FDD
:1051F0007F4FC8010E941A16882329F11092CA0213
:105200008091D70290E044E050E0BE01675F7F4F9D
:105210008A5E9C4F0E94733421E02093A702892B61
:1052200059F5F12C8F2D9ECF8091A1029091A20271
:105230000E945B1D843F914018F68091A702811166
:1052400012C080E08FCF8091CA028F3F29F08F5F1C
:105250008093CA028A30A0F20E946A1D9093A20233
:105260008093A102EACFFE01399684E0DF011D920E
:105270008A95E9F71092A702E091D702F0E0EA5E82
:10528000FC4F89859A85AB85BC8580839183A283F9
:10529000B383C8CFF0E0EA5EFC4FF89484E0A6EB5D
:1052A000B2E001900D928A95E1F786EB92E00E94C0
:1052B00094078093B5020E948F0AF894C090BA02B6
:1052C000D090BB02E090BC02F090BD028091A3029E
:1052D0009091A402A091A502B091A602C816D90689
:1052E000EA06FB06D1F0C092A302D092A402E0929B
:1052F000A502F092A6020E945E1681110EC00E94C5
:105300003B09C61AD70AE80AF90AC092CB02D09222
:10531000CC02E092CD02F092CE020E948F0AF89465
:105320008091C502882379F180FF0DC08091BE0273
:1053300080FF2CC09091DA0491609093DA0460E0D1
:1053400086950E94FE1D8091C50281FF09C020E064
:105350004091C1026091C0028091BF020E94181961
:105360008091C50282FF06C08091C402882389F023
:105370000E94E31D8091C50283FF03C081E08093FA
:1053800021031092C5020E948F0A5BCF0E94031670
:10539000DACF0E94D709EECF1F921FB61F921124B9
:1053A0008F939F93AF93BF938091EB04811113C0B0
:1053B0008091EC049091ED04A091EE04B091EF0483
:1053C0004196A11DB11D8093EC049093ED04A09330
:1053D000EE04B093EF04BF91AF919F918F911F9016
:1053E0001FBE1F901895CDB7DEB7E0970FB6F894A3
:1053F000DEBF0FBECDBF84B7877F84BF0FB6F894E2
:10540000A895809160008861809360001092600090
:105410000FBE80E890E00FB6F894809361009093FF
:1054200061000FBE85B7806885BF85B7806885BF7E
:105430008DE89AE090930D0280930C020E94AB07D6
:105440000E9476088091E20084608093E200789464
:1054500080911A058823A1F01091E9001F709091A6
:10546000EC00892F817090FD80E8182B1092E900E4
:105470008091E80083FD0E94640E1F701093E90084
:1054800082E084BD93E095BD9AEF97BD80936E0056
:105490001092CB021092CC021092CD021092CE024A
:1054A0000E940118811102C00E9447170E945E16D7
:1054B0008093240180912401882309F46DC0109207
:1054C00049018BE180934A010E945E1681110E947E
:1054D0004032809124018091240194E0811190E078
:1054E0009093D80284E0891B8093D70284E90E94BC
:1054F000910A86E60E94910A87E90E94910A86EC49
:105500000E94910A03EC11E0D8018D918D018F3F2B
:1055100011F00E94910AB1E0093C1B07A9F788E04D
:10552000E6E1F3E0DF01082F1D920A95E9F7EFECC1
:10553000F2E0DF011D928A95E9F70E940F1C8111AC
:1055400002C00E94371A82E090E00E948934809362
:10555000DA020E941A189093F1048093F0040E94DA
:10556000F927EFE3FCE93197F1F700C000000E9452
:10557000F9270E945E16E4E08111E0E0F0E0EA5EC7
:10558000FC4F808181FF0CC06FEF7FEF90E080E0E7
:105590000E94BB340E94D4128BE18093490192CFC8
:1055A00083E090E00E9489340E944B0E0E945E16B8
:1055B0008111ADC182E08093110380E880932D05B5
:1055C0000E94D8306DE070E08EE392E00E94EF110F
:1055D000892BE9F58091110363E070E081FD99C1A9
:1055E0008BE392E00E94EF11892B89F56DE070E06A
:1055F0008BE292E00E94EF11892B49F50E943B0952
:10560000605A75418F4F9F4F6093DF047093E004A1
:105610008093E1049093E204E0E3F5E080E092E01F
:10562000DF018C011D9201501040E1F7F093370724
:10563000E09336078FEF9FEF90932F0580932E0511
:1056400081E08093E4048093E3041092120380913C
:10565000D902811138C00E940F1C811104C00E9420
:10566000371A0E941F1A88E090E00E9491346093DC
:10567000DA047093DB048093DC049093DD04809162
:1056800026038360809326036E7F71F40E941F1AA5
:1056900088E090E00E9491346093DA047093DB0418
:1056A0008093DC049093DD040E94DE090E94D709F8
:1056B0008091DA0480FF04C060E086950E94FE1DA0
:1056C00081E08093D9020E945E16811102C00E947F
:1056D000433285E291E09093E8048093E704BAE0D6
:1056E0008B2E912CA12CB12C80911A0500E112E196
:1056F000853009F44BC10E94F927782E81110E9450
:105700003B09A6E12A2EA3E03A2EABEDB2E0F1016F
:1057100010E000E0C02EE1908D918E1509F445C196
:10572000D12CFF24F3948E25982F9F2109F438C1A2
:105730000E945E16882399F0D9A2CAA2EF2081E0C8
:1057400009F480E08BA30E946A1D8160782F9DA3DD
:105750008CA349A15AA16BA18DA10E946A27F801CF
:10576000E552FD4F8081F826F0820E945E168091FE
:105770002503882309F464C080912403E091DA04AE
:10578000E695E81BE0932003823009F025C1F0E0A4
:10579000E45AFD4FE4910E2F10E0FFEEEF2EF5E1FD
:1057A000FF2E80912103882361F0109221030E9433
:1057B000DA1D90931F0380931E031092230310920F
:1057C00022030E94DA1DE0911E03F0911F039C0149
:1057D0002E1B3F0B2F3F3F4798F52091E5022223D8
:1057E000B1F01092E5022091E3023091E402821BB5
:1057F000930B8F3F9F4758F4205D3A483093E40263
:105800002093E30280912603886080932603C09052
:105810002203D0902303E00FF11FF0931F03E093C6
:105820001E038EE193E0F701099580912203909188
:105830002303892B29F4CD2819F081E08093E50218
:105840008091E404882351F1809113039091140313
:105850000E945B1DC29708F02BC120912E0530914C
:105860002F052115310509F013C28091E304882327
:10587000A9F00E943B090091DF041091E0042091FF
:10588000E1043091E204601B710B820B930B6F3FBC
:105890007F4F8F4F9F4710F40E941F1271100E947C
:1058A0003A120E9482169091150389138093150372
:1058B00080911A05843009F017CF83E08093E900C6
:1058C0008091E80082FF10CF8091E80090E085FF92
:1058D0000CC00E94CA0730E2E32EF12C8E010F5F4C
:1058E0001F4F882309F4B6C291E08091E8008B77BE
:1058F0008093E800992309F4F7CEE981E150E33180
:1059000008F00CC3F0E0E45BFA4C0C94E53380E063
:1059100052CE88E392E066CE80911A05843031F150
:105920000E941F121092EB0428E130E040E40FB611
:10593000F894A895209360000FBE4093600083B751
:10594000817F846083BF83B7816083BF78948895AB
:1059500083B78E7F83BF0FB6F894A89580916000BF
:10596000886180936000109260000FBE80911905DD
:10597000882361F00E94F927E6E1F3E0819181112B
:10598000F8C38EE193E08E179F07C1F780911A0547
:10599000853009F4C1CF0E944F0E0E948216ABCE13
:1059A000D394FF0C96E0D912BFCE0F5F1F4F083083
:1059B000110509F0AFCE8FEF8EA38FA318A60E941A
:1059C0006A1D8160782F9AA789A74EA15FA168A55B
:1059D0008AA50E946A27C9CE863059F4F0E0E75ABA
:1059E000FD4FE4910E2F10E0EFEDEE2EE5E1FE2EDF
:1059F000D8CE893061F4E695F0E0EA5AFD4FE491A3
:105A00000E2F10E070E3E72E75E1F72ECACE8F302F
:105A100061F4E695F0E0ED5AFD4FE4910E2F10E0B1
:105A200067E9E62E64E1F62EBCCE853159F4F0E04C
:105A3000E05BFD4FE4910E2F10E050E1E52E54E1C4
:105A4000F52EAFCE08E210E020E8E22E23E1F22EA0
:105A5000883109F4A6CE833249F4EEE4F2E00591F0
:105A6000149146E8E42E45E1F42E9BCE04EF11E0BC
:105A700093E4E92E93E1F92E843209F492CE853233
:105A800081F48E2F63E00E94B733E92FF0E0E55BED
:105A9000FD4FE4910E2F10E038E2E32E38E1F32EB3
:105AA00080CE00ED17E086E3E82E89E0F82E79CE6F
:105AB0000E946A1D909314038093130380E395E082
:105AC00090933707809336070E945E16882309F467
:105AD000A1C08BE792E00E94680D809127050E948B
