:100000000C94B4010C94EC010C94EC010C94EC01F4
:100010000C94EC010C94EC010C94EC010C94EC01AC
:100020000C94EC010C94EC010C94031C0C94D71C64
:100030000C9420170C94EC010C94EC010C94EC0142
:100040000C94EC010C94EC010C94EC010C94EC017C
:100050000C94EC010C94A7170C94EC010C94EC019B
:100060000C94EC010C94EC010C94EC010C94EC015C
:100070000C94EC010C94EC010C94EC010C94EC014C
:100080000C94EC010C94EC010C94EC010C94EC013C
:100090000C94EC010C94EC010C94EC010C94EC012C
:1000A0000C94EC010C94EC010C94EC012B0014006A
:1000B0001A000800150017001C0018000C001200A0
:1000C00013002A00290004001600070009000A0096
:1000D0000B000D000E000F0033003400E1001D0086
:1000E0001B00060019000500110010003600370043
:1000F0003800E5000000E000E300E20021522C009F
:1001000028002252E600E700E400000001001E0083
:100110001F002000210022002300240025002600CB
:1001200027002A000100000000000000000000007D
:100130005000510052004F0000000000010000007C
:1001400000000000000000000000000000000000AF
:100150000000000001000100010001002152010027
:1001600001002352010001000100010001001E02F4
:100170001F0220022102220223022402250226025B
:1001800027022A000100000000000000000000001B
:100190002D002E002F023002310235000100000038
:1001A00000000000000000002D022E022F00300091
:1001B000310035020100010001000100235201005D
:1001C00001002252010001000100010001000000B5
:1001D000000000000000000000000000000000001F
:1001E000000000000100000000000000000000000E
:1001F00000000000000000000000000001000000FE
:1002000000000000000000000000000000000000EE
:100210000000000001000100010001002352010064
:1002200001002352010001000100010014034300FA
:100230006F0072006E0065006C006900750073004D
:1002400000001403590075007300680061006B0022
:100250006F0062006F0000000403090409023B0004
:10026000020100A0FA0904000001030101000921B4
:10027000110100012244000705810308000109045F
:1002800001000103000000092111010001227B008F
:10029000070582032000011201000200000008652A
:1002A00032050001000102000105010902A10185DA
:1002B000020901A100050919012908150025019568
:1002C00008750181020501093009311581257F95E5
:1002D000027508810609381581257F950175088109
:1002E00006050C0A38021581257F950175088106DF
:1002F000C0C005010980A101850319012AB70015B5
:100300000126B700950175108100C0050C0901A1F7
:1003100001850419012AA002150126A00295017584
:10032000108100C005010906A101050719E029E7B0
:100330001500250195087501810295017508810157
:100340000507190029FF150026FF0095067508818D
:10035000000508190129051500250195057501916C
:1003600002950175039101C011241FBECFEFDAE0A1
:10037000DEBFCDBF04B603FE18C080916C02909121
:100380006D02A0916E02B0916F028730904BA74032
:10039000B04B59F410926C0210926D0210926E02E2
:1003A00010926F02E0E0F8E3099511E0A0E0B1E0FF
:1003B000E8E1FFE302C005900D92A639B107D9F735
:1003C00022E0A6E9B1E001C01D92AC36B207E1F728
:1003D0000E949C110C944B1F0C9400008430B8F4C4
:1003E0006430A8F44C3098F450E09CE0699F400DD4
:1003F000511D1124FA0190E3899FE00DF11D112494
:10040000EE0FFF1FE455FF4F85919491089581E011
:1004100090E008950E94EE01089581E008950E9401
:100420000D02089581E008950E940D0208950E9432
:100430001402089508950E941A020895A6E0B0E0FB
:10044000E4E2F2E00C94A71E49835A839E83309124
:100450009D0189819A8131111AC03E81332399F01F
:10046000222389F00E941A08182F682F89819A8107
:100470000E94F60769817A81812F0E94010F2696DA
:10048000E3E00C94C31E0E940808182FF3CF0E94CB
:100490001A0869817A81F1CFFC01262F40815181B0
:1004A00062817381848195810E941E020895CF9399
:1004B000DF93EC0161E00E944C02BE010E940F023A
:1004C000DF91CF910895CF93DF93EC0160E00E941C
:1004D0004C02BE010E941B02DF91CF910895089546
:1004E0000E94CB060E946F022FEF84E39CE0215014
:1004F00080409040E1F700C0000008950E94700223
:100500000E94CB1708950E9470020E94EF17089571
:100510000F931F93CF93DF938C0161E00E944C02F5
:10052000EC01B8010E941702811106C080E0DF9142
:10053000CF911F910F910895B801CE010E949C1593
:100540008823A1F3B801CE010E943214882371F3ED
:10055000B801CE010E940E15882341F3F801858170
:10056000882361F0C330FCE7DF07E9F058F4C115D8
:10057000ECE7DE07A9F0C130DC47B9F0C8010E9402
:100580001202D5CFCB358CE7D807A9F0CC35ECE7F4
:10059000DE0771F0CA35DC4789F70E94500CEECFB8
:1005A0000E947E02C3CF0E94580C0E948302BECFDD
:1005B0000E94460CE3CF0E94540CE0CF0E94FC1630
:1005C0000E94050308950E9409030E9401170895DF
:1005D000089581E008950895CF93DF93D82F0E9466
:1005E000E902C82F882319F08D2F0E94EB028C2F6F
:1005F000DF91CF9108950895CF93C82F0E94E8020C
:100600008C2F0E94EC02CF91089580E00E94FC02A2
:1006100008950E94E5150E94FC020895CF930E9460
:10062000E515C82F809198018C1779F0C093980137
:100630000E948C176093990170939A0180939B019B
:1006400090939C018C2F0E94FC02CF910895ADE005
:10065000B0E0EDE2F3E00C94A81E488759876A8762
:100660007B878C879D8791110E947E0B1F8286E07D
:10067000FE013896DE01119601900D928A95E1F700
:100680008D8181110DC029813A814B815C816D8101
:100690007E818F810E94B10A2D96E2E00C94C41EE7
:1006A000CE0101960E9457028111EDCFF5CFFC01DA
:1006B0002481213021F4808191810E944C08089589
:1006C000662329F00E9433120E94061308950E94A7
:1006D0008D12FACFCF93C82F8823C9F08238C9F47E
:1006E0000E94F21581FD13C089E30E94360B0E941F
:1006F000B70B2FEF87EE93E0215080409040E1F759
:1007000000C0000089E30E943E0B0E94B70BCF910E
:1007100008958338A1F40E94F21580FDF8CF83E597
:100720000E94360B0E94B70B2FEF81EE94E0215010
:1007300080409040E1F700C0000083E5E4CF8438BA
:10074000A1F40E94F21582FDE2CF87E40E94360BED
:100750000E94B70B2FEF81EE94E021508040904033
:10076000E1F700C0000087E4CECF8CEF8C0F813A18
:1007700090F46C2F80910001909101010E946A1603
:10078000882329F08C2F0E943E0B0E94B70B8C2FE0
:100790000E94360BBACF80E28C0F883048F4C770C5
:1007A00081E001C0880FCA95EAF70E94610BADCFC6
:1007B000EBE5EC0FE33040F4F0E0E75BFE4F8081C7
:1007C00090E00E940E16A3CFE8E5EC0FEB3150F459
:1007D000F0E0EE0FFF1FED5EFE4F808191810E94E1
:1007E000331695CF83E38C0F833108F090CF61E00F
:1007F0008C2F0E9460038BCF882309F456C0823867
:1008000079F40E94F21581FF50C089E30E94360BF3
:100810000E94B70B89E30E943E0B0E94B70B08951C
:10082000833859F40E94F21580FF3FC083E50E948F
:10083000360B0E94B70B83E5EECF843859F40E9443
:10084000F21582FF32C087E40E94360B0E94B70B7C
:1008500087E4E1CF9CEF980F913AE8F290E2980F8D
:10086000983050F4877091E001C0990F8A95EAF7AB
:10087000892F0E94670BD1CF9BE5980F933028F406
:1008800090E080E00E940E16089598E5980F9B3145
:1008900028F490E080E00E943316089593E3980FC7
:1008A000933118F460E00E94600308951F93CF9382
:1008B000DF93182FEB010E946A03209739F4812FF0
:1008C0000E94FC03DF91CF911F9108958FE99FE073
:1008D0000197F1F700C000002197EFCF70E060E0D2
:1008E000893311F460E570E00E945604089588236E
:1008F00021F00E94610B0E94B70B0895882321F01C
:100900000E94670B0E94B70B0895B0E0A0E0EBE8EF
:10091000F4E00C94A11E6C01D62FC72FFC011581A9
:10092000068102950F700E94570BE82E8823E9F08C
:10093000E12E1123D1F08C2F807F803451F080E2A2
:100940008D0F8830F8F0011104C08C2F807E80322A
:10095000C9F080914A0282FF15C082E00E941A0C01
:100960000E94570B91E0E82EE926BC2EB2949FE03E
:10097000B922FBE0FB15B8F1EB2DF0E0E35BF04EA4
:100980000C94921EE12CF1CF0C2F0F70C07F11F050
:100990000295007F112399F0002359F080E28D0F1A
:1009A000883010F0D11107C0802F0E94610B0E9487
:1009B000B70B8D2F5AC0802F0E94710BF8CF8D2F4F
:1009C0000E94FC03002379F080E28D0F883010F044
:1009D000D11104C0802F0E94670B03C0802F0E949A
:1009E000770B0E94B70BEB2DE850FF0B349720F4E8
:1009F0000E94E5150E94FC02EE2089F00E94530B34
:100A000080FD0DC0F60115820E944D0B0E94540717
:100A1000C6010E9492060E944D0B0E946407CDB74A
:100A2000DEB7E9E00C94BD1E2C2F2F70F22EC07F94
:100A3000C03219F0F29480EFF822DD2341F0D1307A
:100A4000D1F1112309F444C00023F1F0B2CF809119
:100A50004A0282FD15C0112359F0FF2029F08F2D85
:100A60000E94610B0E94B70B80E00E946A03BBCF1B
:100A700080E00E94FC03FF2009F4B5CF8F2DABCF9F
:100A8000112369F0011104C08F2D0E947704ABCFB0
:100A9000013009F0A8CF8F2D0E94950BA4CF011132
:100AA000A2CF8F2D0E947E048F2D0E94A10B8F2D2F
:100AB0000E94850B98CF112321F0063008F093CFC8
:100AC000E3CF053008F08FCF8F2D0E947E048BCFAF
:100AD0000023D1F3D93349F43FEF87EE93E031504F
:100AE00080409040E1F700C000008D2F0E94FC0381
:100AF0007ACF8C2F86958695837069F0813009F0C6
:100B000072CF8D2F9C2F9370111102C080E090E066
:100B10000E94331668CF8D2F9C2F9370111102C045
:100B200080E090E00E940E165ECF612F8D2F0E9414
:100B3000600359CF8C2F8370A1F5111154CF4D2F25
:100B4000429546954770440F440F2D2F2F7030E08B
:100B5000042E02C0220F331F0A94E2F790E080E0D7
:100B6000D4FF09C08FE090E002C0880F991F4A951A
:100B7000E2F780959095C695C695C370822B932B0E
:100B8000C23049F058F4C13019F00E9424072BCF2D
:100B90000E941B0728CF0E942D0725CF0E9418070F
:100BA00022CF8695112311F08C2F8170882309F4B0
:100BB0001ACF4D2F429546954770440F440F2D2F65
:100BC0002F7030E0042E02C0220F331F0A94E2F788
:100BD00090E080E0D4FF09C08FE090E002C0880F71
:100BE000991F4A95E2F780959095C695C695C37072
:100BF000822B932BC23049F058F4C13019F00E9477
:100C00008F07F1CE0E948607EECE0E949807EBCEAA
:100C10000E943C07E8CECF70112329F08C2F0E9450
:100C200054078D2F32CF8D2F0E947E048C2F0E946F
:100C30006407D9CED23F41F160F4D03FB9F0D13F43
:100C400081F0112309F446C00111B3CE8C2F8F71AE
:100C50001FC0D33F01F1D43FA1F780914A0282FD2A
:100C600024C08C2F8F71112311F312C0112341F076
:100C7000053008F0B8CE8C2F8F710E947607B3CE66
:100C8000063008F0B0CEF7CF8C2F8F711111CFCF77
:100C90000E945407A8CE112329F08C2F8F710E9437
:100CA0004807A1CE0E9443079ECE112349F0CF7181
:100CB0008C2F0E94540763E08C2F0E94FC0B93CE74
:100CC00081E00E941A0C023008F48DCE82E00E946E
:100CD0001A0C89CE002359F0D93309F006CFEFEF73
:100CE000F7EE23E0E150F0402040E1F7FCCE8C2FFE
:100CF0008F719DCF0F931F93CF93DF93EC0168818A
:100D000079818D810E9457088C010E94A1070E9461
:100D10001707B801CE010E948504DF91CF911F9182
:100D20000F910895CF93DF93EC018C81882399F084
:100D3000CE010E948802811111C00E94570B8823A6
:100D400051F08D81882339F080914A0282FF03C0DF
:100D500082E00E941A0CDF91CF910895CE010E948B
:100D60007A06CE010E946302F6CF90E080E00E94F6
:100D70000E1690E080E00E9433160E947E0B0E94C7
:100D8000B70B0E9422130E94061308950E94460B7F
:100D90000E94B50608950E946E0B0E94C606089533
:100DA00092959F70963091F058F4925F9F709230B8
:100DB00058F4803F19F030F4883E30F481E0089513
:100DC0009A5FF4CF843FD1F380E00895883EB0F37A
:100DD000813FD1F7F3CFFC012481222339F08081B8
:100DE00091810E944C080E94D006089580E00895E9
:100DF000A6E0B0E0EEEFF6E00C94A81E2696E2E046
:100E00000C94C41EA7E0B0E0E8E0F7E00C94A81E44
:100E10002796E2E00C94C41E08950E940C070895E2
:100E20000E940D079093B9018093B8010895089529
:100E30000E94100708952091B8013091B901822BCA
:100E4000932B0E94100708952091B8013091B901A9
:100E5000822393230E94100708952091B8013091B6
:100E6000B901822793270E94100708950E940C075A
:100E700008950E94360708950E9439079093B7019C
:100E80008093B601089590E080E00E943C070895A9
:100E900021E030E0A90102C0440F551F8A95E2F716
:100EA000CA010E943C07089521E030E002C0220FF1
:100EB000331F8A95E2F78091B6019091B701822B9A
:100EC000932B0E943C07089521E030E002C0220FDE
:100ED000331F8A95E2F7209530958091B601909165
:100EE000B701822393230E943C07089521E030E05C
:100EF00002C0220F331F8A95E2F78091B6019091CC
:100F0000B701822793270E943C0708952091B601DC
:100F10003091B701822B932B0E943C0708952091BA
:100F2000B6013091B701822393230E943C070895B4
:100F30002091B6013091B701822793270E943C0788
:100F400008950895262F277091E001C0990F2A95E2
:100F5000EAF723E0769567952A95E1F7660F771F04
:100F6000660F771FFA01E60FF71F50E040E0682F89
:100F700070E08191DF0111979B01042E02C036952C
:100F800027950A94E2F721702195282729232827FD
:100F90002C934F5F5F4F4430510559F70895A82FA8
:100FA000A77023E0969587952A95E1F7880F991FFA
:100FB000880F991FFB01E80FF91F50E040E080E027
:100FC000219130E00A2E02C0369527950A94E2F767
:100FD00021703327042E01C0220F0A94EAF7822BD6
:100FE0004F5F5F4F4430510559F70895262F9430D5
:100FF00070F48C3060F4682F70E08CE0989F600D86
:10100000711D11244EE951E0822F0E94A20708951C
:10101000292F943068F48C3058F490E06EE971E038
:101020003CE0239F800D911D11240E94CF0708955D
:1010300080E00895B0E0A0E0E0E2F8E00C94A11EAA
:101040007C010091B6011091B7018091B801909197
:10105000B901082B192BCFE0D0E0CC24C394D12CBC
:10106000BC2EC6010C2E02C0880F991F0A94E2F70D
:1010700080239123892B49F4219790F7B12C8B2D54
:10108000CDB7DEB7E9E00C94BD1EB7018C2F0E94EE
:101090000D0F019789F3F3CFCF93DF93EC010E94FB
:1010A0001A08BE010E940D0FDF91CF9108951F9382
:1010B000CF93DF93EB0190919D01992339F0CB0100
:1010C0000E944C08DF91CF911F910895882369F009
:1010D000CB010E941A08182F682FCE010E94F60734
:1010E000BE01812F0E940D0FEDCFCB010E94080899
:1010F000182FF6CF1F93CF93DF93C091BA0117E05B
:101100008091BB018C1304C0DF91CF911F91089592
:10111000D0E01C9FF0011D9FF00D1124E454FE4F00
:1011200020813181428153816481758186810E9451
:1011300002072196C770E4CF2091F4013091F501A8
:101140004091F6015091F7016091F8017091F90119
:101150008091FA010E9402070895CF93DF93809156
:10116000FA01807F09F04DC08091F901882309F4CC
:1011700048C0E091BA015091BB01C091F501D091F6
:10118000F4016091F6017091F70147E05E17C9F133
:101190008E2F90E0E49FF0011124E454FE4F24814F
:1011A000222391F1489FF001499FF00D1124DF01A6
:1011B000A454BE4F11962C9111972C1325C02C913D
:1011C0002D1322C015962C91159721111DC0129632
:1011D0002D913C91261B370B283C3105A8F48091BA
:1011E000FA018F7080618093FA01EE53FE4F808187
:1011F0008F708061808384EF91E00E9492060E944C
:101200007A08DF91CF910895FC013196E770BECF47
:10121000482F2091BA019091BB0157E0291302C0D9
:1012200080E0089530E0529FF001539FF00D1124AB
:10123000E454FE4F8181681306C08081481303C0C7
:1012400085818111EECF2F5F3F4F2770E7CFA4E15B
:10125000B0E0EDE2F9E00C949E1E8C0186E0F8010E
:10126000DE011F9601900D928A95E1F7F8018481C5
:10127000E58094EFA92E91E0B92E9091F80191119B
:101280001FC08823D1F0EE20A9F0C8010E94EB0610
:10129000F82E882379F087E0F801D50101900D92AE
:1012A0008A95E1F7C5010E9457030E94AD080E948C
:1012B0009C085FC0C8010E949206FF24F39459C0A5
:1012C000C080D18082809380F090F9012091F60156
:1012D0003091F701A401421B530BFF2009F4F9C020
:1012E000483C510508F0A7C0882309F442C09091FA
:1012F000F5018091FA01282F207F09F05CC09D1133
:1013000016C09091F401C91212C0E1104EC08F7046
:1013100080618093FA010E949C0884EF91E00E9412
:1013200092068091FA01F8018683F12C22C0E11027
:101330003CC06D2D8C2D0E9408096D2D8C2D0E94B6
:101340000809E82E8111F1CFCF86D88A8F85988938
:101350000E944C08292F22952F70243078F49F701A
:101360002230A8F09923B9F0F8019681907F99F482
:10137000FE2C8F2D6496ECE00C94BA1E2A5F2F7021
:10138000223068F0C8010E949206EF2CF1CF992319
:1013900011F0882369F3805E883050F3F3CF803FEB
:1013A00038F3815F833070F7E3CF8091FA01816079
:1013B0008093FA01BACF9D1113C09091F401C91224
:1013C0000FC0E1100DC08683C8010E94920687E01D
:1013D000F801A4EFB1E001900D928A95E1F767CF93
:1013E000C8010E94EB06882309F464CFEE2009F4BB
:1013F00061CF8091FA01803288F02091F401309120
:10140000F501398728879B868A869091F8019C8709
:101410001D868E87CE0108960E94920687E0F8010D
:10142000A4EFB1E001900D928A95E1F70E94AD081A
:101430000E949C0842CF9091FA01292F207FA1F4AD
:10144000682D9A8A898AA6017A899E2D0E94F806BB
:1014500084EF91E00E94920687E0F50111928A954F
:10146000E9F70E949C0861CF882309F482CF80911C
:10147000F5018D1110C08091F401C8120CC0E1106B
:101480000AC09683C8010E94920687E0F501119276
:101490008A95E9F76ECFC8010E94EB06882309F40C
:1014A00009CFEE2009F406CF8091FA01803208F4CA
:1014B000B5CF2091F4013091F5013A8329839C82C4
:1014C0008B829091F8019D831E828F83CE010196BD
:1014D000A3CF483C5105B8F5882309F4EECEFE2C85
:1014E000EE2009F4E7CE8091F5018D111EC08091A8
:1014F000F401C8121AC08091FA0180FD0DC0982F26
:10150000907F51F08683903F09F45ECF982F907FB3
:10151000905F8F70892B57CF87E0F801A4EFB1E07F
:1015200001900D928A95E1F724CFC8010E94EB0645
:10153000811174CF8091FA0181608093FA01C80112
:101540000E94920616CF682D9A8A898AA6017A8906
:101550009E2D0E94F80687E0F50111928A95E9F721
:10156000A6CEAEE0B0E0E7EBFAE00C94A71E288729
:1015700039874A875B876C877D878E87CE0108967F
:101580000E9427098823B1F06C85662341F02885E5
:1015900039854A855B857D858E850E94020717E027
:1015A0008091BA019091BB0189133DC02E96E3E072
:1015B0000C94C31E87E0FE013896DE01119601905F
:1015C0000D928A95E1F78C85882349F32091BB0120
:1015D00030E0C9010196877099274091BA014817F8
:1015E000190699F097E0929FD001939FB00D1124B6
:1015F000A454BE4FFE01319601900D929A95E1F7E9
:101600008093BB010E947A08CACF0E94CB06109239
:10161000BB011092BA0187E0E4EFF1E0DF011D9217
:101620008A95E9F7BCCF819FC001112484549E4F55
:101630000E942709882309F4B9CFE091BA011E9FBF
:10164000F0011124E454FE4F208131814281538105
:101650006481758186810E9402078091BA0190E0C1
:101660000196877099278093BA019ACF682F80914D
:101670000001909101010E94A0160895682F8091A9
:101680000001909101010E94A3160895809100012C
:10169000909101010E94A6160895809103028695FB
:1016A000869586950895809103028770089590919C
:1016B0000302977081E009F480E0089580910F02A1
:1016C000089590910F02892B80930F0208958095C1
:1016D00090910F02982390930F02089510920F0299
:1016E000089590910E02892B80930E0208958095A3
:1016F00090910E02982390930E02089510920E027C
:10170000089508950E94810B089590910402292F55
:10171000282331F080958923809304020E94820B54
:10172000089508950E94910B089590910502292F24
:101730002823281729F0982B909305020E94920BDA
:10174000089590910502292F282331F0809589234F
:10175000809305020E94920B0895809105028823D0
:1017600029F01092050280E00E94920B0895CF9319
:10177000DF93E0910001F091010180910F028083DD
:10178000E0910001F0910101808190910E02892B7E
:10179000808390910502992381F0E0910001F091FE
:1017A00001018081892B808380910001909101014A
:1017B0000E94581681110E94AD0BC0910001D0917A
:1017C000010148E050E06BEF71E0CE010E94E31EA2
:1017D000892B59F088E0FE01ABEFB1E001900D924A
:1017E0008A95E1F7CE010E94F515DF91CF9108951A
:1017F00008950E94F80B089590914A0292FF11C03B
:1018000098E0899F90011124622B609303020E944B
:101810005407809103028695869586950E94F90B60
:1018200008950E94540708951092030280E00E94D8
:10183000F90B089590910302809589238093030208
:10184000282F277069F4891759F090914A0292FF66
:1018500007C08695869586950E9464070E94140CA1
:10186000089590914A0292FB222720F9281769F0E7
:1018700080FB92F990934A028091490290914A022A
:101880000E94790C82E00E941A0C089580914A020D
:1018900082FB882780F991E089270E94310C089506
:1018A00081E00E94310C089580E00E94310C08957F
:1018B0006FEF7FEF90E080E00E94351F089590E089
:1018C00080E00E94011F21E0863E9E4F09F020E04B
:1018D000822F089582E090E00E94F91E089583E02F
:1018E00090E00E94F91E089584E090E00E94011F9C
:1018F0000895BC0184E090E00E94351F0895AB017B
:10190000BC018FE090E00E94291F0895AB01BC014B
:1019100083E190E00E94291F089560E070E0CB0110
:101920000E94860C089560E070E0CB010E947F0C5D
:101930000E948D0C0895A8E0B0E0E1EAFCE00C9470
:10194000A81E66EE7EEF90E080E00E94351F60E00A
:1019500082E090E00E94171F60E083E090E00E9428
:10196000171F1092B9011092B80160E074E184E091
:1019700090E00E94351F60E086E090E00E94171F13
:101980006FEF87E090E00E94171F40E050E0BA013F
:1019900088E090E00E94291F60E084E290E00E94CD
:1019A000171F60E087E190E00E94171F60E08CE065
:1019B00090E00E94171F60E08DE090E00E94171FEA
:1019C00019821A821B821C821D821E821F82188627
:1019D00048E050E068E170E0CE0101960E94071FE8
:1019E00040E050E0BA0180E290E00E94291F0E948E
:1019F000930C2896E2E00C94C41E0E949B0C089560
:101A0000682F8EE090E00E94171F0895A6E0B0E0D6
:101A1000ECE0FDE00C94A61E0E9480178C018091E2
:101A20001002909111028017910781F019821A8299
:101A30000E948017682F49815A81792F80E090E0B9
:101A40000E94270310931102009310022696E4E0EF
:101A50000C94C21E0E948C1760931E0270931F028A
:101A6000809320029093210260931A0270931B02CC
:101A700080931C0290931D020895089508950E947A
:101A80003D0D089508950E94420D089583E090E170
:101A90000E94A9110E943E0D0E943F0D089581E011
:101AA00008950E944F0D08950E944F0D08950895C6
:101AB00008950E94570D0E94580D08950E9422100B
:101AC0000E94FB0208950E9477170E94FD100E9459
:101AD0005E0D0E94430D0895A6E0B0E0E2E7FDE050
:101AE0000C949C1E0E94510D81110AC00E94060D8B
:101AF0000E9444130E940E032696EEE00C94B81E3A
:101B00000E94131122E1822E22E0922E640110E045
:101B1000F601E190F1906F01812F0E9448101F5F44
:101B2000143009F44BC0E816F90691F380912202B3
:101B300081FD0E9451100E94540D782E10E0662401
:101B40006394812F0E9448107C01F401A190B19010
:101B50004F018A159B0561F100E0CC24C394D12C80
:101B6000AE24BF24C5018C219D21892BC1F0772093
:101B7000B1F009831A830E9480179C838B836D8246
:101B800021E0C7018C219D21892B09F420E04981A6
:101B90005A816B817C818D81922F0E9427030F5F78
:101BA000CC0CDD1C0C30F1F6F4013297F182E082AE
:101BB0001F5F143031F60E942A0D9ACFE816F906FD
:101BC00009F0B4CF93CF1F93CF93DF930E94120FEE
:101BD000EC01C11580E5D807F0F5C11580E4D80700
:101BE00008F09CC0C03ED10520F5CD3CD10508F0E1
:101BF00082C0C83AD10578F4C53AD10508F073C05F
:101C0000C130D10519F1209709F1C430D105F0F4A4
:101C1000D0E0C0E01BC0C33CD105D0F7C85AD0E02B
:101C2000CC0FDD1FC45BDE4F0990D881C02DD4647A
:101C30000DC0C11580E2D80708F0D1C0C11581E000
:101C4000D80708F05AC0C83ED10510F7CE01DF9181
:101C5000CF911F910895C03682E5D80718F5C0349A
:101C600082E5D80708F06BC0C03282E5D80708F0DB
:101C70005FC0C11582E5D80708F497C02C2F2695C0
:101C8000269580E2289F900111248C2F8370C1E05B
:101C9000D0E002C0CC0FDD1F8A95E2F7C22BD32B18
:101CA000DD68D4CFC03A82E5D80760F4C03882E559
:101CB000D80708F459C0CF71D0E0DC2FCC27C46F0F
:101CC000D06AC4CFC03C82E5D80708F462C0C03EE9
:101CD00082E5D80708F09CCFDC2FCC27CC27DF711A
:101CE000C06FD06AB3CFC55AD0E0CE57DE4FC8819F
:101CF000D0E0D064ABCFD065A9CF8D2F0E94B40FB8
:101D0000182FCE0199270E94120FC12FD0E0DC2F8F
:101D1000CC27CC27DF71C82BD92B98CFCE019927A0
:101D20000E94120FCC27DF70C82BD92BD06A8ECF20
:101D3000CF71D0E0DC2FCC27C16FD06A87CF2C2F9A
:101D400026952695277080E2289F900111248C2FDC
:101D50008370C1E0D0E002C0CC0FDD1F8A95E2F7AE
:101D6000C22BD32BDC6872CF2C2F2695269527709B
:101D700080E2289F900111248C2F8370C1E0D0E075
:101D800002C0CC0FDD1F8A95E2F7C22BD32BDA6895
:101D90005DCF8C2F8F710E94B40FC82FD0E0DC2F45
:101DA000CC27CC27DF71D06251CF8C2F8F710E944E
:101DB000B40F55E0D695C7955A95E1F7CF70D0E0AE
:101DC000DC2FCC27282F30E084FF05C044E0220F11
:101DD000331F4A95E1F7C22BD32BD06937CF8D2F14
:101DE0008F710E94B40F182FCE0199270E94120FF5
:101DF000C12FD0E0DC2FCC27CC27DF71C82BD92B0B
:101E0000D2CF462F743030F46C3020F4672F0E940C
:101E10000A02089590E080E008950E94010F0E9458
:101E2000E30D089582389105B9F1B0F4813391053D
:101E300009F47DC048F48932910509F46DC08A32F5
:101E4000910509F47BC008958533910509F45FC0BD
:101E50008933910509F10895833E9105D9F138F44C
:101E6000803E910529F1823E910579F10895863EE3
:101E70009105D9F1873E910509F43EC0843E910554
:101E800041F520914A0221FF24C08091490284FD3E
:101E900019C087EE90E0089520914902237009F05F
:101EA0005AC020914A0223FF14C089E290E00895AD
:101EB0002091490220FD38C030914A0230FF09C00C
:101EC00024FF43C090E080E008952091490222FD64
:101ED000F7CF08952091490222FD3AC030914A027D
:101EE00030FD39C024FFF5CFEDCF2091490223FF0B
:101EF000F0CF24FDE7CFCDCF2091490223FD2EC0A6
:101F000030914A0231FFEECF84EE90E008952091A7
:101F1000490225FFDECFC9CF2091490225FD21C00E
:101F200020914A0223FFD5CF89E390E0D2CF2091C0
:101F3000490226FFCECF8AE290E00895209149021F
:101F400026FFC7CF81E390E0089583EE90E00895E7
:101F500082EE90E0089580EE90E0089586EE90E0A5
:101F6000089585E390E008959091490292FF10C092
:101F700041E0282F2471243009F040E031E0282F7F
:101F80002871283009F030E0431711F02CE0822747
:101F900093FF10C041E0282F2471243109F040E064
:101FA00031E0282F2871283109F030E0431711F073
:101FB0002CE0822730914A0230FF10C051E0282FD8
:101FC0002171213009F050E041E0282F287128309C
:101FD00009F040E0541711F029E0822731FF10C0CA
:101FE00041E0282F2171213109F040E031E0282F14
:101FF0002871283109F030E0431711F029E08227D9
:1020000094FD877E089580E008950E94580C0895FD
:102010000E9413112FEF86E791E0215080409040FD
:10202000E1F700C000000E94131180E00E944810F8
:1020300080FF04C00E9405100E94CB1708950E94E3
:10204000081008950E945F0C811102C00E94FD0CCF
:102050000E946A0C809322020E94740C90934A02A0
:10206000809349020E941F100E946F0C90E00E9412
:1020700018078091B6019091B7010E943907089521
:1020800008950E944010089508950E9444100895F4
:10209000E82FF0E0EE0FFF1FED5AFD4F8081918198
:1020A0000895089580EA8A95F1F7089500C008958B
:1020B0000E9452100895F894E82FE295EF70F0E036
:1020C00031A1282F2F7081E090E001C0880F2A9560
:1020D000EAF7982F9095932391A392A1892B82A33D
:1020E00078940895CF93DF9380E30E945B1081E39F
:1020F0000E945B1082E30E945B1087E60E945B10E7
:10210000C5E8D1E089918F3F11F00E945B1081E01A
:10211000C139D807B9F7DF91CF910895AF92BF9237
:10212000DF92EF92FF920F931F93CF93DF938C0177
:10213000D62EC62FD0E0CE018F569E4F7C01FC01DB
:1021400020812F3F09F44CC0F894E22FE295EF7004
:10215000F0E031A12F7081E090E001C0880F2A9556
:10216000EAF7932F982B91A392A18095892382A3BC
:1021700078940E945610E5E8F1E041E050E0B12C7F
:10218000A12C21912F3FB1F1A22FA295AF70B0E009
:1021900090968C9190E02F7002C0959587952A9526
:1021A000E2F780FD27C0CA01A82AB92A440F551FAB
:1021B00081E0E139F80729F7F70180818F3F11F0BD
:1021C0000E945B1061E0A114B10409F460E08D2D60
:1021D0000E945810CC0FDD1FC00FD11FB982A882FA
:1021E000DF91CF911F910F91FF90EF90DF90BF9003
:1021F000AF90089590E080E0D7CF0E94721088E001
:10220000E3E5F2E0DF01982F1D929A95E9F7EBE400
:10221000F2E0DF011D928A95E9F784E00E944E11F9
:102220000E9441100895A8E0B0E0E9E1F1E10C94CA
:10223000A51E8E010F5F1F4F88E0F80111928A954D
:10224000E9F7F12C6F2DC8010E948E10F394F4E091
:10225000FF12F8CF48E050E0B8018BE492E00E9412
:10226000E31E21E0009709F420E0892B41F088E08B
:10227000F801ABE4B2E001900D928A95E1F744E0F9
:1022800063E572E08BE492E00E944F11182F0E94E8
:102290004510812F2896E5E00C94C11E0895CF9239
:1022A000DF92EF92FF921F93CF93DF936C017B013C
:1022B000C42F222349F081E0809325020E948017D9
:1022C00090932402809323021091250211110AC0D9
:1022D00010E0812FDF91CF911F91FF90EF90DF9061
:1022E000CF90089580912302909124020E94981724
:1022F000059770F3D0E0CC0FDD1FAE01B601C7012A
:102300000E94E31E892B41F0AE01B601C7010E9475
:10231000F01E10922502DDCF10E0FBCF0E94541971
:102320000E94630D0E94611908950E9466190E941F
:102330006C0D0E94801908950E9419170E943A1985
:102340000E94460D0E948E110E9495110E94590D07
:10235000FBCF90939701809396010895282F35EB3A
:102360002303C001112497FF04C080589109892FCD
:10237000089580589F4FFBCF80912C0280FF0DC0A5
:102380006091070170E0660F771F6038710570F586
:102390006115710569F1862F089581FF07C060916D
:1023A000070184E0689FB0011124EFCF609107011D
:1023B00082FD0AC080912B028823A9F0209106019A
:1023C00060910701821710F088E0ECCF869FC00172
:1023D000112433E0880F991F3A95E1F7622F70E0DE
:1023E0000E947E1ED2CF68E070E0D5CF8FE70895BF
:1023F00081E0089580912C0280FF0CC06091030160
:1024000070E075956795759567956115710549F14A
:10241000862F089581FF06C06091030170E07595D5
:102420006795F3CF6091030182FD0BC090912A0262
:102430009923A1F06091020180910301961738F071
:10244000682F70E06038710500F38FE70895899F69
:10245000C001112470E00E947E1EF4CF61E070E0A4
:10246000D7CF81E008958D3C31F40E94BC11819555
:102470008093300208958E3C19F40E94BC11F8CF6D
:102480008F3C31F40E94BC11819580932F020895F6
:10249000803D19F40E94BC11F8CF893D29F40E94B7
:1024A000FA118093310208958A3D21F40E94FA11B5
:1024B0008195F7CF8B3D31F40E94FA11819580937D
:1024C000320208958C3D19F40E94FA11F8CF9FE270
:1024D000980F983070F4815D990B21E030E001C0D5
:1024E000220F8A95EAF780912E02822B80932E028A
:1024F00008958D3D31F480912C02816080932C02EF
:1025000008958E3D21F480912C028260F7CF8F3D9B
:10251000B9F780912C028460F1CF40912F028D3C5D
:1025200059F48091300287FF0DC0109230024111A2
:102530000BC010922B0208C08E3C81F480913002B7
:1025400018169CF3442381F080913102909132025D
:10255000892B09F05AC010922A0208958F3C49F441
:1025600047FFF0CF10922F02809130028111ECCF03
:10257000E0CF803D19F41416ACF3E4CF9091310212
:10258000893D29F41916F4F610923102DBCF8A3D09
:1025900019F497FFD7CFF8CF909132028B3D29F4F1
:1025A00097FFD0CF10923202CDCF8C3D19F419167F
:1025B000CCF3C8CF9FE2980F983090F4815D990BCF
:1025C00021E030E0B90102C0660F771F8A95E2F77B
:1025D000CB01809590912E02892380932E02B2CF59
:1025E0008D3D31F480912C028E7F80932C02AACFF6
:1025F0008E3D21F480912C028D7FF7CF8F3D09F025
:10260000A1CF80912C028B7FF0CF08950E9480177C
:102610009C0190912F0280913002982B21F03093F1
:102620002902209328029091310280913202982B46
:1026300021F030932702209326028DE292E00E943F
:102640000016089586E0EDE2F2E0DF011D928A9522
:10265000E9F710922B0210922A0210922C02089590
:10266000FC01828181110EC0838181110BC08481A4
:10267000811108C091E08581811101C090E0892F0E
:102680008170089581E0FCCFA6E0B0E0EAE4F3E1D8
:102690000C94A71E86E0EDE2F2E0DE0111960190B7
:1026A0000D928A95E1F710922F021092300210924B
:1026B0003102109232028B819C81892B89F08091AA
:1026C0002802909129020E949817AC0190912B0248
:1026D0009923C9F1809108018417150608F440C0B8
:1026E0008D819E81892B91F0809126029091270205
:1026F0000E949817AC0190912A02992309F46AC0AC
:10270000809104018417150608F472C0BE016F5F42
:102710007F4F8DE292E00E94AD16811105C08DE2DF
:1027200092E00E94301381110E94061386E0FE01A0
:102730003196ADE2B2E001900D928A95E1F72696CE
:10274000E3E00C94C31E209109018AE0289F9001C8
:1027500011242417350720F69F5F90932B0202C0A7
:102760009F3FD1F71B81112359F00E94BC119FEFAD
:1027700011160CF491E0899F802D112480932F0273
:102780001C81112359F00E94BC119FEF11160CF40B
:1027900091E0899F802D11248093300280912F0237
:1027A000882309F49DCF10913002112309F498CFAA
:1027B0000E94AE11882351F080932F02812F0E9436
:1027C000AE11882329F0809330028ACF81E0F4CFC4
:1027D00081E0F9CF209105018AE0289F9001112422
:1027E0002417350708F092CF9F5F90932A0202C00A
:1027F0009F3FD1F71D81112359F00E94FA119FEFDD
:1028000011160CF491E0899F802D112480933102E0
:102810001E81112359F00E94FA119FEF11160CF43A
:1028200091E0899F802D11248093320280913102A2
:10283000882309F46BCF10913202112309F466CF7B
:102840000E94AE11882351F080933102812F0E94A3
:10285000AE11882329F08093320258CF81E0F4CF63
:1028600081E0F9CFCF93DF93EC01FB0185818823D1
:1028700009F4D2C09E0130572332310508F0B2C0AE
:102880000E94740C90934A0280934902FE01E15029
:10289000F047E232F10520F4E75AF04E0C94921E14
:1028A0008091490281608093490293C080914A02DD
:1028B000886080934A028DC0809149028260F3CF84
:1028C000809149028460EFCF809149028860EBCF0C
:1028D00080914A028160EDCF80914A028260E9CF07
:1028E000809149028061DFCF809149028062DBCF15
:1028F000809149028064D7CF0E94CB068091490223
:102900008068D1CF809149028C60CDCF80914A02FE
:102910008360CFCF809149028E7FC5CF80914A02DC
:10292000877FC7CF809149028D7FBDCF80914902BB
:102930008B7FB9CF80914902877FB5CF80914A02C2
:102940008E7FB7CF80914A028D7FB3CF80914902AD
:102950008F7EA9CF809149028F7DA5CF80914902BA
:102960008F7BA1CF0E94CB06809149028F779BCFAE
:1029700080914902837F97CF80914A028C7F99CFC3
:102980008091490282FB992790F921E0922790FBE0
:1029900082F990FB83F987CF80914A02982F909516
:1029A00091708E7F892B90FB81F983CF90914902A2
:1029B000892F8F7B96FF806476CF0E94CB06909103
:1029C0004902892F97FB87F980586DCF81E00E94DB
:1029D000000D8091490290914A020E94790C0E9458
:1029E000CB0680E0DF91CF91089580E0F0CF909109
:1029F0004902892F8F7E94FF806155CF90914902C3
:102A0000892F8E7F90FF81604ECF90914A02892F4F
:102A1000877F93FF88604DCF81E0E4CFCF93DF9332
:102A2000EB0186319C4711F50E945E0B9D81992335
:102A300099F08A7A91E009F490E090933302811141
:102A400009C089E20E94360B0E94B70B80E0DF913B
:102A5000CF91089585E3F6CF80913302811104C0B0
:102A600089E20E943E0BF0CF85E3FBCF81E0EFCF00
:102A70000F931F93CF93DF93C42FD22FFC01858137
:102A80008823C9F0409336020E9480179093350244
:102A90008093340280E28C0F883040F4C77081E06C
:102AA00001C0880FCA95EAF70E947704DF91CF91A1
:102AB0001F910F91089510913602141332C0809126
:102AC0003402909135020E949817883C910548F590
:102AD000C0E2CD0F1D17B9F080E2810F883040F4BD
:102AE000177081E001C0880F1A95EAF70E947E04F2
:102AF000C83048F481E09D2F977001C0880F9A95E7
:102B0000EAF70E947704802F0E946E04C83070F6A6
:102B1000D77081E001C0880FDA95EAF70E947E0441
:102B2000C5CF80E28C0F883008F6C77081E001C005
:102B3000880FCA95EAF7F2CF0F93DB0188519C47C3
:102B400087309105A0F5FC01E558F04E0C94921EDB
:102B500006E221EE41EE6AE17CE7CD010E943815E4
:102B600080E00F91089507E225EE45EE6BE17CE7EA
:102B7000F4CF06E221EE40EE68E17CE7EECF07E21B
:102B800025EE44EE69E17CE7E8CF06E221EE42EE75
:102B90006CE17CE7E2CF07E225EE46EE6DE17CE7F3
:102BA000DCCF08E221E045EE6EE17CE7D6CF15965A
:102BB0008C91882319F010923602D3CF81E0D1CFC7
:102BC00090933C0280933B020895E0913B02F09188
:102BD0003C02309729F00190F081E02D099508958D
:102BE00080E008950E94E5150895E0913B02F09180
:102BF0003C02309721F00280F381E02D0995089581
:102C0000E0913B02F0913C02309739F022E0DC0188
:102C10002C930480F581E02D09950895A3E0B0E0A0
:102C2000E4E1F6E10C94A81E2091390230913A02B9
:102C300028173907A1F090933A0280933902E09166
:102C40003B02F0913C02309751F023E029839B83B3
:102C50008A830680F781E02DCE010196099523969F
:102C6000E2E00C94C41EA3E0B0E0E9E3F6E10C94CA
:102C7000A81E209137023091380228173907A1F099
:102C80009093380280933702E0913B02F0913C022E
:102C9000309751F024E029839B838A830680F78153
:102CA000E02DCE01019609952396E2E00C94C41E16
:102CB0009C012E5F3F4FAC01485F5F4F80E02417BF
:102CC000350709F40895F90191919F019923B9F30A
:102CD0008F5FF5CF662349F0FC013296089621916B
:102CE000261729F0E817F907D1F780E0089581E069
:102CF00008959C01FC0132969FEF80E041914617B8
:102D000051F09F3F19F4411101C0982F8F5F863019
:102D1000A9F79F3F09F40895290F311D97FD3A95B2
:102D2000F90162830895FC013296089621912613D9
:102D300003C0DF0111971C92E817F907B9F708954E
:102D40000E94791608950E9493160895029626E02F
:102D5000FC0111922A95E9F70895DC01FB01119617
:102D60009C9111978181981322C012968C91129791
:102D7000882319F0928189131AC013968C911397A6
:102D8000882319F09381891312C015968C91159799
:102D9000882319F0958189130AC014969C91992370
:102DA00021F081E02481291303C080E001C081E08B
:102DB0008170089508950E94DA160895811106C061
:102DC00081E080933D020E94DB16089582E0F9CFF6
:102DD00083E080933D020E94DB1608950E94DE1678
:102DE000089581E080933D020E94DB1608950E94C1
:102DF000F1160895089508950E94FB160895089508
:102E000008950E94FA160895CF930E94FF160E941B
:102E100013110E940017C0E08C2F0E944810892BCC
:102E200031F4CF5FC430C1F780E0CF91089581E0E5
:102E3000FCCF85B7806885BF85B7806885BF08955A
:102E40001F921FB61F9211248F939F93AF93BF932E
:102E500080913E02811113C080915B0290915C02CF
:102E6000A0915D02B0915E024196A11DB11D8093BB
:102E70005B0290935C02A0935D02B0935E02BF91EF
:102E8000AF919F918F911F901FBE1F9018958091B9
:102E90006302843031F10E94DE0210923E0288E12A
:102EA00090E020E40FB6F894A895809360000FBEE0
:102EB0002093600083B7817F846083BF83B7816084
:102EC00083BF7894889583B78E7F83BF0FB6F894BD
:102ED000A8958091600088618093600010926000E6
:102EE0000FBE08950E94CB060E94E302089582E07F
:102EF00084BD93E095BD9AEF97BD80936E000895D1
:102F00002FB7F89480915B0290915C02A0915D02D2
:102F1000B0915E022FBF08952FB7F89460915B02C5
:102F200070915C0280915D0290915E022FBF0895C6
:102F30009C014FB7F89480915B0290915C02A09144
:102F40005D02B0915E024FBF821B930B089578948F
:102F50001F921FB61F9211248F939F93AF93BF931D
:102F600080915B0290915C02A0915D02B0915E0243
:102F70000196A11DB11D80935B0290935C02A0930A
:102F80005D02B0935E02BF91AF919F918F911F90B0
:102F90001FBE1F90189581E08093E00080E280932F
:102FA000D8001092C9008FE19EE40197F1F700C0AC
:102FB000000087E090EBDC0180936C0290936D023F
:102FC000A0936E02B0936F0288E19CE00FB6F89474
:102FD000A895809360000FBE90936000FFCF88E1BA
:102FE0009CE00FB6F894A895809360000FBE909374
:102FF0006000FFCF8091470208959B01BA01909134
:1030000063029430E9F48F708093E9009FEF809120
:10301000E800915085FD06C085ED8A95F1F7000026
:103020009111F5CF8091E80085FF0AC050E040E0A3
:10303000C9010E94F7198091E8008E778093E8001B
:10304000089543E050E0BC0182E00E94FD1708951E
:1030500046E050E0BC0182E00E94FD170895CF9346
:10306000DF93EC0148E050E0BC0181E00E94FD17D5
:1030700088E0FE01AFE3B2E001900D928A95E1F79E
:10308000DF91CF91089580916202811109C00E9461
:10309000871B0E94E41B8091E20084608093E20021
:1030A00008951092620208950E94F11608956091A9
:1030B0005F0281E0611101C080E00E94E81608957E
:1030C0009091630281E0943009F080E060915F02AA
:1030D0000E94EE16089542E061EC81E00E94031B1D
:1030E00042E261EC82E00E94031B9091630281E066
:1030F000943009F080E060915F020E94DE1608952E
:1031000080916502833009F461C030F48130D1F1DF
:10311000823009F49EC008958A3009F48AC08B3049
:1031200009F46FC0893009F050C080916402813287
:1031300009F04BC08091680290916902029708F0F3
:1031400044C08091E800877F8093E8008091E80088
:1031500082FF37C09091F3008091F200029731F422
:103160008091F100813011F0863021F48091F100DE
:10317000809347028091E8008B778093E8000E945B
:10318000371B23C080916402813AF9F48091E800F2
:10319000877F8093E8008091680290916902892B73
:1031A00061F468E08FE392E070E00E94461A80913B
:1031B000E8008B778093E800089560E090E080E07D
:1031C000F3CF809163028111C1CF08958091640291
:1031D000813AD9F78091680290916902892BA9F709
:1031E0008091E800877F8093E8008091E80080FF6D
:1031F000FCCF809112018093F1008091E8008E77DE
:10320000BCCF80916402813201F780916802909175
:103210006902892BD1F68091E800877F8093E800CE
:103220000E94371B80916602809312010E94CB0698
:10323000089580916402813241F68091E800877F91
:103240008093E8000E94371B8091670280934802B8
:10325000089580916402813A09F0B7CF8091E80027
:10326000877F8093E8008091E80080FFFCCF809109
:103270004802C1CF84B7877F84BF0FB6F894A89562
:1032800080916000886180936000109260000FBEA2
:1032900080E890E00FB6F89480936100909361000D
:1032A0000FBE0E94F71608950E94871B0E94E41B20
:1032B000E2EEF0E080818460808378940E94631E57
:1032C00008958AE091E00E94E015089580916302DC
:1032D000853031F480916302853019F00E947217B5
:1032E00008950E94471780916102882399F30E94F4
:1032F0000417882379F30E94E1190E94CB06EACFD4
:1033000008959A0140916A0250916B020E948919B6
:103310000895492F55274330510519F168F441307C
:10332000510509F444C04230510509F445C090E00C
:1033300080E050E040E025C04132510549F1423281
:103340005105A9F784E490E044E253E0611571056A
:10335000C1F08BE790E049EA52E06130710589F0F5
:10336000E6CF99278130910581F0009729F00297E7
:10337000F1F6ECE2F2E002C0E8E5F2E0849190E0E0
:10338000AF01F901518340830895E2E4F2E0F6CF02
:1033900089E090E04EE652E06115710591F389E015
:1033A00090E047E852E06130710559F3C0CF82E107
:1033B00090E047E952E0E5CF8BE390E04CE552E046
:1033C000E0CF80E189BD82E189BD09B400FEFDCF77
:1033D0008091D8008F7D8093D8008091E00082603A
:1033E0008093E0008091E00081FDFCCF0895AF92D2
:1033F000BF92CF92DF92FF920F931F93CF93DF93F1
:103400006C01EB018A010E94561BF82E811123C02A
:103410000115110539F0F80180819181C81BD90B84
:10342000C80ED91EB12CA12C2097A9F08091E800DC
:1034300085FD22C08091E8008E778093E800011519
:103440001105A1F0F80180819181A80EB91EB18209
:10345000A08285E0F82E8F2DDF91CF911F910F91E3
:10346000FF90DF90CF90BF90AF9008950E94561BC1
:103470008823D1F2F82EEFCFF60181916F0180936E
:10348000F1002197FFEFAF1ABF0ACECFFC01809168
:103490006A0290916B0286179707A0F0611571057B
:1034A00029F49091E8009E779093E80090E06115F0
:1034B000710551F4911108C08091E80082FF34C079
:1034C00080E00895BC01F2CF809163028823C1F1AE
:1034D0008530C1F18091E80083FD30C08091E80023
:1034E00082FDEACF8091E80080FFE1CF8091F30078
:1034F0002091F200382F6115710519F0283031053F
:1035000058F091E02830310509F090E02091E80072
:103510002E772093E800CBCF81918093F10061500A
:1035200071092F5F3F4FE7CF80916302882341F0FD
:10353000853041F08091E80083FFBECF81E008959F
:1035400082E0089583E00895FC0180916A029091E1
:103550006B0286179707A0F06115710529F4809119
:10356000E8008E778093E80090E06115710551F4D2
:10357000911108C08091E80082FF35C080E0089575
:10358000BC01F2CF809163028823C9F18530C9F173
:103590008091E80083FD31C08091E80082FDEACF90
:1035A0008091E80080FFE1CF8091F3002091F2004C
:1035B000382F6115710519F02830310558F091E068
:1035C0002830310509F090E08091E8008E778093F3
:1035D000E800CBCF84918093F1003196615071095E
:1035E0002F5F3F4FE6CF80916302882341F0853003
:1035F00041F08091E80083FFBDCF81E0089582E033
:10360000089583E00895982F973028F08F70809365
:10361000E90081E008959093E900242F762F50E08F
:10362000981731F07091EC002091ED005091F0006E
:1036300021FD02C09F5FE8CF3091EB003E7F3093C9
:10364000EB003091ED003D7F3093ED003091EB00C9
:1036500031603093EB007093EC002093ED005093B9
:10366000F0002091EE0027FDE5CF80E008958091E5
:10367000640287FF13C08091E80082FF06C080913A
:10368000E8008B778093E80004C080916302811189
:10369000F2CF0895809163028823D9F38091E800E6
:1036A00080FFF8CF8091E8008E77ECCF2091E40086
:1036B0003091E50095E6A9012091EC00822F817000
:1036C00020FF06C08091E80080FF06C080E00895DA
:1036D0002091E80022FD1AC080916302882389F0BE
:1036E000853089F08091EB0085FD0FC02091E400CA
:1036F0003091E50042175307F9F29150E1F684E06A
:10370000089582E0089583E0089581E008950E947D
:10371000F61B0E94FE1BE0EEF0E08081816080835A
:10372000E8EDF0E080818F77808319BCA7EDB0E0F1
:103730008C918E7F8C9380818F7E80831092620229
:1037400008950F931F93CF93DF930E94F61B0E945F
:10375000FE1BC8EDD0E088818F77888388818068E0
:10376000888388818F7D888319BC109263021092B0
:103770005F02109261021092600200EE10E0F80108
:1037800080818B7F808388818160888342E060E0D4
:1037900080E00E94031BE1EEF0E080818E7F808359
:1037A000E2EEF0E0808181608083808188608083A8
:1037B000F80180818E7F8083888180618883DF919A
:1037C000CF911F910F910895E8EDF0E080818F7EF9
:1037D0008083E7EDF0E080818160808384E082BFB8
:1037E00081E0809362020E94A11B0895E8EDF0E061
:1037F00080818E7F80831092E20008951092DA001B
:103800001092E10008951F920F920FB60F921124AB
:103810002F933F934F935F936F937F938F939F93D8
:10382000AF93BF93EF93FF938091E10082FF0BC0B2
:103830008091E20082FF07C08091E1008B7F80933E
:10384000E1000E94621E8091DA0080FF19C0809121
:10385000D80080FF15C08091DA008E7F8093DA0057
:103860008091D90080FF96C080E189BD82E189BD49
:1038700009B400FEFDCF81E0809363020E944318EB
:103880008091E10080FF19C08091E20080FF15C0A7
:103890008091E2008E7F8093E2008091E20080615F
:1038A0008093E2008091D80080628093D80019BC98
:1038B00085E0809363020E9457188091E10084FFA5
:1038C0002BC08091E20084FF27C080E189BD82E1A6
:1038D00089BD89B5982F917080FFFBCF8091D8006A
:1038E0008F7D8093D8008091E1008F7E8093E100EE
:1038F0008091E2008F7E8093E2008091E2008160FF
:103900008093E20080915F02882309F449C084E03B
:10391000809363020E9460188091E10083FF29C0B8
:103920008091E20083FF25C08091E100877F809332
:10393000E10082E08093630210925F028091E100D7
:103940008E7F8093E1008091E2008E7F8093E20081
:103950008091E20080618093E20042E060E080E0DC
:103960000E94031B8091F00088608093F0000E9409
:103970005418FF91EF91BF91AF919F918F917F91DB
:103980006F915F914F913F912F910F900FBE0F90CC
:103990001F90189519BC109263020E94511870CFA5
:1039A0008091E30087FD93E090936302B3CF1F9271
:1039B0000F920FB60F9211242F933F934F935F9363
:1039C0006F937F938F939F93AF93BF93CF93DF9327
:1039D000EF93FF93D091E900DF708091EC00C82F46
:1039E000C17080FDC0E81092E9008091F000877FEF
:1039F0008093F00078940E941B1D1092E900809142
:103A0000F00088608093F000CD2BCF70C093E90068
:103A1000FF91EF91DF91CF91BF91AF919F918F91E6
:103A20007F916F915F914F913F912F910F900FBEBA
:103A30000F901F901895AAE2B0E0E1E2FDE10C942E
:103A4000A71E84E692E02091F100FC012193CF01B2
:103A5000F2E08C369F07B9F70E9480188091E80049
:103A600083FF1EC180916402909165029A3008F034
:103A700017C1E92FF0E0EE57F04E0C94921E8038FB
:103A800099F0823809F00CC1809168028F708730FC
:103A900008F006C18093E9008091EB0085FB882740
:103AA00080F91092E90006C0809160029091610255
:103AB000911182609091E800977F9093E800809345
:103AC000F1001092F1008091E8008E77E5C0882324
:103AD00009F4D3C0823009F0E3C0809166028111FD
:103AE000D6C0809168028F702FEF280F263008F023
:103AF000D7C08093E9002091EB0020FFC8C093302D
:103B000031F48091EB0080628093EB00C0C0909113
:103B1000EB0090619093EB0021E030E001C0220FB8
:103B20008A95EAF72093EA001092EA008091EB0070
:103B30008860EACF8111B4C0109166021F7780912E
:103B4000E3008078812B8093E3008091E800877FF9
:103B50008093E8000E94371B8091E80080FFFCCF33
:103B60008091E30080688093E30082E0111183E09C
:103B70008093630295C08058823008F091C0809194
:103B80006602909167028C3D23E09207A1F583E0E5
:103B90008A838AE289834FB7F894DE01139620E086
:103BA0003EE051E2E32FF0E050935700E49120FF14
:103BB00003C0E295EF703F5FEF708E2F90E0EA3028
:103BC000C0F0C7968D939D932F5F243159F74FBF57
:103BD0008091E800877F8093E8006AE270E0CE0180
:103BE00001960E94461A8091E8008B778093E80046
:103BF00057C0C096E7CF6091680270916902AE012C
:103C00004F5F5F4F0E948119BC01892B09F448C0A6
:103C10009091E800977F9093E80089819A810E94B3
:103C2000A41AE1CF8038E1F58091E800877F809386
:103C3000E80080915F028093F10045CF811130C090
:103C400090916602923060F58091E800877F8093C2
:103C5000E80090935F020E94371B80915F028823E7
:103C600011F084E005C08091E30087FDFACF81E088
:103C7000809363020E946B1813C0809166028130AA
:103C800079F481E0933009F080E080936102109232
:103C9000E9008091E800877F8093E8000E94371B4D
:103CA0008091E80083FF0AC08091E800877F8093BD
:103CB000E8008091EB0080628093EB00AA96E3E03D
:103CC0000C94C31E0895CF93809163028823A1F0C2
:103CD000C091E900CF709091EC00892F817090FD28
:103CE00080E8C82B1092E9008091E80083FD0E94D3
:103CF0001B1DCF70C093E900CF91089597FB072E4D
:103D000016F4009407D077FD09D00E94CF1E07FC5F
:103D100005D03EF4909581959F4F089570956195DB
:103D20007F4F0895EE0FFF1F0590F491E02D099449
:103D30002F923F924F925F926F927F928F929F92BB
:103D4000AF92BF92CF92DF92EF92FF920F931F93A9
:103D5000CF93DF93CDB7DEB7CA1BDB0B0FB6F8945A
:103D6000DEBF0FBECDBF09942A88398848885F849A
:103D70006E847D848C849B84AA84B984C884DF800B
:103D8000EE80FD800C811B81AA81B981CE0FD11DEF
:103D90000FB6F894DEBF0FBECDBFED010895AA1B8C
:103DA000BB1B51E107C0AA1FBB1FA617B70710F026
:103DB000A61BB70B881F991F5A95A9F78095909558
:103DC000BC01CD010895FB01DC0104C08D9101907F
:103DD000801921F441505040C8F7881B990B089571
:103DE000FB01DC0102C001900D9241505040D8F718
:103DF0000895F999FECF92BD81BDF89A992780B5B3
:103E00000895A8E1B0E042E050E00C943D1FDC01D1
:103E1000A40FB51F4150504048F0CB01840F951FAF
:103E20002E910E94181F41505040D0F70895262F20
:103E3000F999FECF92BD81BDF89A019700B40216A0
:103E400039F01FBA20BD0FB6F894FA9AF99A0FBE4E
:103E500008950396272F0E94181F0E94171F252FD1
:103E60000E94181F242F0C94181F0196272F0E94C0
:103E7000181F0C94171FDC01CB01FC01F999FECF30
:103E800006C0F2BDE1BDF89A319600B40D924150E2
:103E90005040B8F70895F894FFCFC404C404140543
:103EA000140579059505F304F3049A050B061A0623
:103EB0001A068A14FE1492145C1460149614641486
:103EC0009A14A6147014F7147414AA147814AE1467
:103ED000D6147C14B214DD148214B814C0146814FF
:103EE0009E146C14A2148614BC14CC14E614F5149D
:103EF00056148E140515B915BF15A815B315C5159B
:103F0000CB15D1153F1D671D501E671D501E9A1DF4
:083F1000BB1D501E121E1E1EF7
:103F18000602280850011E0A1401FA172F1828183B
:103F2800211801E200E900EA00B500B600B700CDAB
:103F3800008301CC008A019201940121022302240A
:103F4800022502260227022A02B300B4006F00707D
:103F5800009F01CB019F02A002818283E200E90059
:103F6800EA00B500B600B700CD008301CC008A0195
:103F7800920194012102230224022502260227022B
:103F88002A02B300B4006F0070009F01CB019F02AA
:103F9800A002818283F0F1F4F5F6F766363534979E
:063FA80096303132670083
:00000001FF
