:100000000C94D6010C941D020C941D020C941D023C
:100010000C941D020C941D020C941D020C941D02E4
:100020000C941D020C941D020C94521D0C94241E61
:100030000C9475180C941D020C941D020C941D0256
:100040000C941D020C941D020C941D020C941D02B4
:100050000C941D020C94CE180C941D020C941D02DD
:100060000C941D020C941D020C941D020C941D0294
:100070000C941D020C941D020C941D020C941D0284
:100080000C941D020C941D020C941D020C941D0274
:100090000C941D020C941D020C941D020C941D0264
:1000A0000C941D020C941D020C941D02C404C40483
:1000B000F004F004580576058E068E0681051A06B2
:1000C0002B062B0632073207440744073B07440739
:1000D00044074407320732074007440744074007F4
:1000E000911EB81EB01FB81EB01F041F271FB01FDF
:1000F0007E1F8D1F2B0014001A000800150017002A
:100100001C0018000C00120013002A002900040033
:100110001600070009000A000B000D000E000F007A
:1001200033003400E1001D001B000600190005002B
:1001300011001000360037003800E5000000E00034
:10014000E300E20001512C0028000251E600E70024
:10015000E400000001001E001F002000210022001A
:10016000230024002500260027002A0001000000AB
:1001700000000000000000005000510052004F003D
:10018000000000000100000000000000000000006E
:10019000000000000000000000000000010001005D
:1001A00001000100015101000100035101000100A3
:1001B0000100010001001E021F0220022102220292
:1001C000230224022502260227022A000100000041
:1001D00000000000000000002D002E002F02300261
:1001E00031023500010000000000000000000000A6
:1001F0002D022E022F0030003100350201000100D7
:100200000100010003510100010002510100010041
:1002100001000100010000000000000000000000DB
:1002200000000000000000000000000001000000CD
:1002300000000000000000000000000000000000BE
:1002400000000000010000000000000000000000AD
:10025000000000000000000000000000010001009C
:1002600001000100035101000100035101000100E0
:1002700001000100140343006F0072006E0065006E
:100280006C006900750073000000140359007500CC
:100290007300680061006B006F0062006F00000077
:1002A0000403090409023B00020100A0FA0904004A
:1002B0000001030101000921110100012240000792
:1002C00005810308000A0904010001030000000978
:1002D0002111010001227B000705820320000A1280
:1002E0000100020000000865320500010001020063
:1002F0000105010902A10185020901A100050919F1
:1003000001290815002501950875018102050109DB
:100310003009311581257F95027508810609381548
:1003200081257F950175088106050C0A3802158123
:10033000257F950175088106C0C005010980A101CE
:10034000850319012AB700150126B700950175101C
:100350008100C0050C0901A101850419012AA00230
:10036000150126A002950175108100C0050109063E
:10037000A101050719E029E7150025019508750178
:1003800081029501750881010507190029FF1500F3
:1003900026FF0095067508810005081901290595B5
:1003A0000575019102950175039101C011241FBECD
:1003B000CFEFDAE0DEBFCDBF04B603FE27C08091E9
:1003C000580290915902A0915A02B0915B02873075
:1003D000904BA740B04BD1F41092580210925902A2
:1003E00010925A0210925B0214BE84B7877F84BFBA
:1003F0000FB6F894A89580916000886180936000A2
:10040000109260000FBEE0E0F8E3099511E0A0E073
:10041000B1E0E6ECF0E402C005900D92AC38B10713
:10042000D9F722E0ACE8B1E001C01D92A835B207CF
:10043000E1F70E94A3120C9461200C94000081E06B
:10044000089581E008950C94210208950C942502EA
:100450001F93CF93DF9300D000D01F92CDB7DEB7AC
:1004600049835A836B8330918E0189819A8131113E
:1004700014C0662359F0222349F00E94D608182F91
:10048000682F89819A810E947F0803C00E94AA0870
:10049000182F69817A81812F04C00E94D608698152
:1004A0007A810F900F900F900F900F90DF91CF9166
:1004B0001F910C940E10FC01262F40815181628106
:1004C000738184810C94280281E00895CF93DF9397
:1004D000EC0160E00E945B02BE01DF91CF910C94C1
:1004E00026020E9417110E94EF020C9454110C94E2
:1004F000501180E00C94F00208950C947C020E944C
:1005000020070E947D022FEF84E39CE02150804071
:100510009040E1F700C000000C94F4180F931F9373
:10052000CF93DF938C0161E00E945B02EC01B80184
:100530000E9423028823F1F1B801CE010E9419170D
:100540008823C1F1B801CE010E944315882391F19F
:10055000B801CE010E947516882361F1F8018281ED
:10056000882309F1CB358DE5D807C1F050F4C115CA
:10057000FCE5DF0781F0CF3DDC45A9F40E94000EC9
:1005800019C0CC35EDE5DE0761F0CD35DD4559F418
:100590000E94430D08C00E947F020CC00E944C0DB7
:1005A00002C00E944F0DC801DF91CF911F910F91A2
:1005B0000C941F0280E0DF91CF911F910F9108955D
:1005C0000C947C020E9475170E94F0020C94E002C9
:1005D00008950C94E80281E008950C94EB020895CC
:1005E000CF93C82F0E94E9028C2F0E94ED02CF9179
:1005F0000895CF93DF93CDB7DEB72B970FB6F8945E
:10060000DEBF0FBECDBF4F83588769877A878B8740
:1006100061110E949C0C9E012F5F3F4F86E0F90103
:1006200011928A95E9F785E0FE013796D90101908C
:100630000D928A95E1F789819A814C815D81452BE4
:1006400031F09F3F31F491E08F3F19F403C091E006
:1006500001C090E090FF09C049815A816B817C8183
:100660008D819E810E94BD0B05C0C9010E9464025C
:100670008111F2CF2B960FB6F894DEBF0FBECDBF1F
:10068000DF91CF910895FC01808191810E9418092A
:100690000895CF93882309F4A4C0C82F8238C1F4E9
:1006A0000E94751781FD9DC069E3809102019091C0
:1006B00003010E9408180E94C10C2FEF81EE94E004
:1006C000215080409040E1F700C0000069E319C06C
:1006D000833801F50E94751780FD83C063E5809122
:1006E0000201909103010E9408180E94C10C2FEF93
:1006F00081EE94E0215080409040E1F700C000007E
:1007000063E580910201909103010E940A18CF9144
:100710000C94C10C8438C1F40E94751782FD61C02D
:1007200067E480910201909103010E9408180E94E1
:10073000C10C2FEF81EE94E0215080409040E1F712
:1007400000C0000067E4DDCF8CEF8C0F813AD0F45D
:100750006C2F80910201909103010E94D21788238F
:1007600049F06C2F80910201909103010E940A18B8
:100770000E94C10C6C2F80910201909103010E9494
:100780000818C5CF80E28C0F883048F4C77081E02C
:1007900001C0880FCA95EAF70E947F0CB8CFEBE53D
:1007A000EC0FE33040F4F0E0E95BFE4F808190E035
:1007B000CF910C949A17E8E5EC0FE73150F4F0E094
:1007C000EE0FFF1FE75EFE4F80819181CF910C9469
:1007D000B017CD3E30F08C2F0E943213CF910C9485
:1007E0000414CF910895882309F464C0823879F401
:1007F0000E94751781FF5EC069E3809102019091AC
:1008000003010E9408180E94C10C69E310C08338DC
:10081000B1F40E94751780FF4DC063E5809102011D
:10082000909103010E9408180E94C10C63E5809119
:100830000201909103010E940A180C94C10C8438A3
:1008400079F40E94751782FF35C067E48091020138
:10085000909103010E9408180E94C10C67E4E7CF41
:100860009CEF980F913A10F4682FE1CF90E2980F27
:10087000983050F4877091E001C0990F8A95EAF79B
:10088000892F0E94850CD9CF9BE5980F933020F4D7
:1008900080E090E00C949A1798E5980F973120F437
:1008A00080E090E00C94B0178D3E20F00E948D13F4
:1008B0000C94041408951F93CF93DF93182FEB012A
:1008C0000E944903209741F08FE99FE00197F1F7DB
:1008D00000C000002197F6CF812FDF91CF911F91AB
:1008E0000C94F303893319F060E070E002C060E516
:1008F00070E00C945B04882321F00E947F0C0C9420
:10090000C10C0895882321F00E94850C0C94C10C21
:100910000895CF92DF92EF92FF920F931F93CF93A0
:10092000DF937C01D62FC72FFC0112810581029530
:100930000F700E94750C8823B9F01123A9F08C2F39
:10094000807F803421F080E28D0F883068F08091C4
:10095000360282FD09C082E00E94110D0E94750CD2
:1009600091E0D82ED92601C0D12CCC2EC2948FE094
:10097000C8228C2D90E08C30910508F0CFC1FC018D
:10098000EA5AFF4F0C94F81F8C2F807FCF7088237A
:1009900011F0C295C07F112399F0CC2309F4AAC1AC
:1009A00080E28D0F883010F0D11104C08C2F0E948E
:1009B0007F0C03C08C2F0E948F0C0E94C10C9AC127
:1009C0008D2F0E94F303CC2309F4A8C180E28D0F80
:1009D000883038F1DD2329F18C2F0E94950C24C03A
:1009E0008C2F807FCF70803211F0C295C07FDD23C5
:1009F00019F0D130A1F13DC08091360282FF17C0BD
:100A0000112349F0CC2329F08C2F0E947F0C0E94E7
:100A1000C10C80E070C180E00E94F303CC2309F494
:100A20007DC18C2F0E94850C0E94C10C77C11123BF
:100A300071F0002341F0013031F40E94A20C8C2BA4
:100A40000E94AA0C6BC10E94A20C8C2B1DC000231B
:100A500019F0013009F462C10E94B70C25C01123BE
:100A600021F0063008F05AC10EC0053008F056C11A
:100A70001BC0112361F0002331F0F701858180FF55
:100A800039C18F7085838C2F0E947B0447C100235E
:100A900059F0D93309F03FC1FFEF07EE13E0F150F1
:100AA00000401040E1F735C18C2F0E94820436C10E
:100AB0008C2F86958695837019F0813061F02EC158
:100AC000112321F08D2F9C2F937002C080E090E0C5
:100AD0000E949A172BC1112321F08D2F9C2F937008
:100AE00002C080E090E00E94B01720C18D2F11233A
:100AF00019F00E94321302C00E948D130E94041448
:100B000015C18C2F837009F047C011110BC12D2F17
:100B1000229526952770220F220F6D2F6F70862F3A
:100B200090E0A0E0B0E0022E04C0880F991FAA1F39
:100B3000BB1F0A94D2F7D4FF10C04FE050E060E032
:100B400070E004C0440F551F661F771F2A95D2F727
:100B5000409550956095709503C040E050E0BA0113
:100B6000C695C695C3708A019B01082B192B2A2BA9
:100B70003B2BC901B801C23049F058F4C13019F01B
:100B80000E949507CFC00E948307CCC00E94A70790
:100B9000C9C00E948107C6C0112319F08C2F817033
:100BA00001C08695882309F4BDC02D2F2295269576
:100BB0002770220F220F6D2F6F70862F90E0A0E01C
:100BC000B0E0022E04C0880F991FAA1FBB1F0A9411
:100BD000D2F7D4FF10C04FE050E060E070E004C0F6
:100BE000440F551F661F771F2A95D2F740955095E1
:100BF0006095709503C040E050E0BA01C695C69577
:100C0000C3708A019B01082B192B2A2B3B2BC9018E
:100C1000B801C23049F058F4C13019F00E945A08A6
:100C200081C00E9448087EC00E946C087BC00E9460
:100C3000BB0778C0CF70112339F08C2F0E94E107D9
:100C40008D2F0E947B046EC08D2F0E9482048C2FFA
:100C50000E94020867C0D23F21F128F4D03F41F042
:100C6000D13FC1F043C0D33F19F1D43F79F03EC02A
:100C7000112341F0053008F051C08C2F8F710E9474
:100C800027084CC0063008F049C0F7CF80913602E3
:100C900082FF18C0112339F08C2F8F710E94E10759
:100CA0003DC01123C9F38C2F8F710E94020836C0FA
:100CB000112329F08C2F8F710E94CC072FC00E9426
:100CC000C7072CC0112349F0CF718C2F0E94E10778
:100CD00063E08C2F0E94F60C21C081E00E94110D70
:100CE0000230E0F082E00E94110D18C0112331F0B3
:100CF000002391F28D2F0E94490310C0002399F226
:100D0000D93349F41FEF27EE33E011502040304033
:100D1000E1F700C000008D2F0E94F30388EF8C0DD7
:100D2000843020F40E9475170E94F002DD20C9F083
:100D30000E94710C80FD15C0F70112820E946B0C9D
:100D40000E94E107C7010E94D2060E946B0CDF914E
:100D5000CF911F910F91FF90EF90DF90CF900C9467
:100D60000208DF91CF911F910F91FF90EF90DF90DC
:100D7000CF9008950F931F93CF93DF93EC01688179
:100D800079818A810E9423098C010E947E080E9439
:100D90006F07B801CE010E948904DF91CF911F91A6
:100DA0000F910895CF93DF93EC01988189812B8176
:100DB0003C81232B31F08F3F31F481E09F3F19F4C8
:100DC00003C081E001C080E080FD1DC0CE010E9413
:100DD0008E02811110C00E94750C8823A1F08A81B7
:100DE000882389F08091360282FD0DC082E0DF9178
:100DF000CF910C94110DCE010E94BA06CE01DF9165
:100E0000CF910C946602DF91CF91089580E090E03D
:100E10000E949A1780E090E00E94B0170E949C0CFC
:100E20000E949F0C0E94C10C0E9435150C94041462
:100E300080910201909103010E940C180C94060706
:100E40000E948C0C0C941807E92FE295EF704E2F3E
:100E500050E0FA013297EE30F105B0F4EE59FF4F51
:100E60000C94F81F803F91F018F4883E68F40EC08F
:100E7000843F51F40BC0883E48F0813F29F406C0FE
:100E800093FB882780F9089580E0089581E0089514
:100E9000FC01808191810E9418090E942407089515
:100EA000CF93DF9300D000D01F92CDB7DEB70F9065
:100EB0000F900F900F900F90DF91CF910895CF93E7
:100EC000DF9300D000D000D0CDB7DEB726960FB6A6
:100ED000F894DEBF0FBECDBFDF91CF910895089586
:100EE00008950C9470070C9471070E947307609327
:100EF000B1017093B2018093B3019093B4010C944B
:100F000006070C9475070F931F930091B101109180
:100F1000B2012091B3013091B401602B712B822B6F
:100F2000932B1F910F910C9475070F931F930091B2
:100F3000B1011091B2012091B3013091B40160234D
:100F40007123822393231F910F910C9475070F93A4
:100F50001F930091B1011091B2012091B301309122
:100F6000B40160277127822793271F910F910C945A
:100F700075070C9470070E94B9076093AD017093D8
:100F8000AE018093AF019093B0010C94060760E02E
:100F900070E0CB010C94BB070F931F9341E050E02E
:100FA00060E070E08A019B0104C0000F111F221F46
:100FB000331F8A95D2F7C901B8011F910F910C9484
:100FC000BB070F931F9341E050E060E070E004C066
:100FD000440F551F661F771F8A95D2F78091AD0188
:100FE0009091AE01A091AF01B091B0018A019B0137
:100FF000082B192B2A2B3B2BC901B8011F910F91EC
:101000000C94BB070F931F9341E050E060E070E049
:1010100004C0440F551F661F771F8A95D2F740956D
:101020005095609570958091AD019091AE01A09121
:10103000AF01B091B0018A019B01082319232A2333
:101040003B23C901B8011F910F910C94BB070F936B
:101050001F9341E050E060E070E004C0440F551F72
:10106000661F771F8A95D2F78091AD019091AE01EE
:10107000A091AF01B091B0018A019B010827192707
:101080002A273B27C901B8011F910F910C94BB0778
:101090000F931F930091AD011091AE012091AF010C
:1010A0003091B001602B712B822B932B1F910F91EC
:1010B0000C94BB070F931F930091AD011091AE01EB
:1010C0002091AF013091B0016023712382239323DB
:1010D0001F910F910C94BB070F931F930091AD01CB
:1010E0001091AE012091AF013091B00160277127BE
:1010F000822793271F910F910C94BB0708952CE032
:10110000929F800D1124E82FE695E695E69587706D
:1011100051E001C0550F8A95EAF785E0E89FF0019C
:101120001124E157FE4F20E030E070E04081CB0118
:10113000022E02C0969587950A94E2F781708195F8
:1011400084278523842781932F5F3F4F25303105E6
:1011500069F708952CE0929F800D1124682F669501
:1011600066956695982F977085E0689FB001112469
:1011700040E050E080E0FB01E40FF51FE157FE4F37
:10118000208130E0092E02C0369527950A94E2F7B7
:1011900021703327042E01C0220F0A94EAF7822B14
:1011A0004F5F5F4F4530510531F70895BF92CF92A1
:1011B000DF92EF92FF920F931F93CF93DF938C01F7
:1011C000C090AD01D090AE01E090AF01F090B001C1
:1011D0008091B1019091B201A091B301B091B4019D
:1011E000C82AD92AEA2AFB2ACFE1D0E0D701C601D2
:1011F0000C2E04C0B695A795979587950A94D2F7BB
:1012000080FD04C0219790F7B12C07C0BC2EB80117
:101210008C2F0E9421100197A9F38B2DDF91CF9184
:101220001F910F91FF90EF90DF90CF90BF900895A6
:10123000CF93DF93EC010E94D608BE010E942110DB
:10124000DF91CF9108951F93CF93DF93EB0190919E
:101250008E01992321F0CB010E94180913C0882325
:1012600049F0CB010E94D608182F682FCE010E94AA
:101270007F0804C0CB010E94AA08182FBE01812F4D
:101280000E942110DF91CF911F9108951F93CF935A
:10129000DF93C091B50116E08091B601C81799F0AF
:1012A000D0E01C9FF0011D9FF00D1124E954FE4F6A
:1012B0004081518162817381848195810E945F07A1
:1012C0002196C770E9CFDF91CF911F91089540918A
:1012D000E7015091E8016091E9017091EA01809184
:1012E000EB019091EC010C945F07EF92FF920F934A
:1012F0001F93CF93DF938091EC0182958F7009F05B
:1013000065C08091E901882309F460C08091B5012E
:10131000F090B6011091E7010091E8016091EA01B7
:101320007091EB0191E01F3F09F090E0C091000146
:10133000D0910101292F96E0E92E8F1509F446C0BE
:101340006115710521F00F3F21F030E003C031E05D
:1013500001C0322F90E030FD36C0E89EF001E99EDA
:10136000F00D1124DF01A954BE4F11963C91119745
:10137000301329C03C91311326C012963C9112972C
:10138000311121C013964D915C911497461B570B58
:101390004C175D07C0F48091EC018F7080618093E1
:1013A000EC01E454FE4F80818F708061808387EE72
:1013B00091E00E94D206DF91CF911F910F91FF9093
:1013C000EF900C94460901968770B7CFDF91CF91CB
:1013D0001F910F91FF90EF9008959F92AF92BF924F
:1013E000CF92DF92EF92FF920F931F93CF93DF93F1
:1013F000CDB7DEB761970FB6F894DEBF0FBECDBF95
:101400008C0185E0F801DE011D9601900D928A9510
:10141000E1F7D8011296EC909091E701E091E80194
:101420002091EA013091EB012115310531F0EF3FB8
:1014300031F481E09F3F19F403C081E001C080E0F6
:10144000B82FB1709B2E80FD47C1D8014C911196E9
:101450005C9111971396AD90BC90149787EEC82EAF
:1014600081E0D82EF090E901B501621B730B209149
:10147000000130910101FF2009F4D9C08091EC01F5
:101480006217730708F095C0282F207F09F052C01B
:101490005E1313C0491311C0FE2CE1100EC08F70F3
:1014A00080618093EC010E946709C6010E94D20608
:1014B0008091EC01F80185834DC1AB2831F05F3F8D
:1014C00031F481E04F3F19F403C081E001C080E0B6
:1014D00080FD03C081E08E2502C080E090E0F82FFF
:1014E000F170FF2E80FF1CC08091B5012091B601E4
:1014F00036E0821709F40BC190E0389FF001399F64
:10150000F00D1124E954FE4F6181561306C060812D
:10151000461303C06281E61203C001968770E9CFCB
:10152000FE2CEE2009F416C18091EC0181608093BD
:10153000EC0154C05E1306C0491304C0E11002C0A0
:10154000F80199C0C8010E944807882361F1EE2084
:1015500051F12091EC01822F82958F7090E00297DB
:1015600074F08091E7019091E80198878F83198644
:10157000BB86AA862C87CE0107960E94D20686E0FB
:10158000F801A7EEB1E001900D928A95E1F70E9473
:1015900075090E9467090AC05E1711F1C8010E940F
:1015A000480781112CC0C8010E94D206FF24F39481
:1015B000D1C0282F207F81F77A2DB98AA88A6E2D75
:1015C00089890E94500787EE91E00E94D20686E04A
:1015D000D6011D928A95E9F70E946709F12CBAC0DD
:1015E0004913DCCFE110DACFF8018583C8010E94EE
:1015F000D20686E0D6011D928A95E9F7ABC0EE20AF
:1016000091F22091EC01822F82958F7090E00297E9
:101610000CF4B5CF8091E7019091E8019A8389831A
:101620001B82BD82AC822E83CE010196A6CF6217AB
:10163000730708F044C0FE2CEE2009F4B4CF5E130B
:1016400030C049132EC02091EC0120FD21C0822F13
:1016500082958F70482F50E041155105C9F0F8016F
:1016600025834F30510541F08F5F982F9295907FE1
:10167000822F8F70892B8583C8010E94D20686E055
:10168000F801A7EEB1E001900D928A95E1F73CC018
:1016900086E0F801A7EEB1E001900D928A95E1F79E
:1016A00059C0C8010E944807811169CF8091EC019F
:1016B00081608093EC01C8010E94D2064BC07A2D54
:1016C000B98AA88A6E2D89890E94500786E0D601C2
:1016D0001D928A95E9F718C0EE2009F464CFC8017D
:1016E0000E944807F82E882309F45DCF86E0F801B0
:1016F000A7EEB1E001900D928A95E1F787EE91E0B7
:101700000E9443030E9475090E94670923C04D8708
:101710005E878D859E850E941809292F22952F703E
:10172000223028F49F7039F0811105C00BC024309D
:1017300028F49F7049F4805E883020F0C8010E9430
:10174000D2069F2CF92C06C0D80115969C91907F4B
:1017500091F7F8CF8F2D61960FB6F894DEBF0FBECC
:10176000CDBFDF91CF911F910F91FF90EF90DF9050
:10177000CF90BF90AF909F9008951F93CF93DF932A
:10178000CDB7DEB72C970FB6F894DEBF0FBECDBF36
:101790004F83588769877A878B879C87CE01079606
:1017A0000E94ED098823D1F09F8188852A853B8599
:1017B000232B31F08F3F31F481E09F3F19F403C0B8
:1017C00081E001C080E080FD47C04F815885698578
:1017D0007A858B859C850E945F073EC086E0FE016E
:1017E0003796DE01119601900D928A95E1F7FF81FF
:1017F000E8856A857B856115710531F0EF3F31F42D
:1018000081E0FF3F19F403C081E001C080E080FD6A
:1018100023C02091B60130E0C90101968770992755
:101820004091B50150E084179507F1F1F983EA83FF
:101830007D836C8396E0929FD001939FB00D11241D
:10184000A954BE4FFE01319601900D929A95E1F791
:101850008093B6010E94460916E08091B5019091EF
:10186000B601891771F1189FC001112489549E4F48
:101870000E94ED09882329F1E091B5011E9FF00136
:101880001124E954FE4F408151816281738184812A
:1018900095810E945F078091B50190E00196877065
:1018A00099278093B501D9CF0E9420071092B601E5
:1018B0001092B501E7EEF1E086E0DF011D928A9516
:1018C000E9F72C960FB6F894DEBF0FBECDBFDF91BF
:1018D000CF911F9108958091ED018595859585950E
:1018E00008958091ED01877008959091ED019770B2
:1018F00081E009F480E008958091F90108959091C4
:10190000F901892B8093F901089580959091F9014F
:1019100089238093F90108951092F9010895909117
:10192000F801892B8093F801089580959091F80132
:1019300089238093F80108951092F8010895109278
:10194000F70108958091EE01089508950C94A50C77
:101950000C94A60C9091360292FD08C09091EE0175
:10196000981721F08093EE010C94A80C08958091B3
:10197000EE01882329F01092EE0180E00C94A80C6F
:101980000895E0910201F09103018091F9018083B3
:10199000E0910201F091030190818091F801892B7F
:1019A0008083E0910201F091030190818091F70121
:1019B000892B80838091EE01882381F0E0910201E0
:1019C000F09103019081892B808380910201909195
:1019D00003010E94C61781110E94B70C8091020179
:1019E000909103010C9481170C94A50C90913602F0
:1019F00092FD10C098E0899F90011124262B20931E
:101A0000ED010E94E1078091ED0185958595859511
:101A10000C94F40C0C94E1071092ED0180E00C940E
:101A2000F40C2091ED01809582238093ED01982F95
:101A3000977099F430E0482F082E000C550B2417AE
:101A4000350759F09091360292FD07C0859585952E
:101A500085950E9402080C940C0D08959091360211
:101A600092FB222720F9281769F080FB92F99093C6
:101A7000360280913502909136020E947C0D82E000
:101A80000C94110D08958091360282FB882780F90D
:101A900091E089270C942E0D81E00C942E0D80E0AE
:101AA0000C942E0D6FEF7FEF80E090E00C944B20B4
:101AB00080E090E00E94272021E0893E9E4F09F0BF
:101AC00020E0822F089582E090E00C941F2083E0B4
:101AD00090E00C941F20CF9384E090E00E941F20A0
:101AE000C82F82E290E00E941F202C2F30E0A90135
:101AF000582BCA01CF910895CF93C92F682F84E046
:101B000090E00E942D206C2F82E290E0CF910C9407
:101B10002D20AB01BC018FE090E00C943F20AB0185
:101B2000BC0183E190E00C943F2060E070E0CB01C9
:101B30000C948F0D60E070E0CB010E94890D0C9435
:101B4000950D69EE7EEF80E090E00E944B2060E012
:101B500082E090E00E942D2060E083E090E00E940F
:101B60002D201092B1011092B2011092B301109287
:101B7000B40160E084E090E00E942D2060E082E209
:101B800090E00E942D2060E085E090E00E942D20F2
:101B900060E086E090E00E942D206FEF87E090E00B
:101BA0000E942D2040E050E0BA0188E090E00E94C1
:101BB0003F2060E08DE090E00E942D2040E050E06A
:101BC000BA0188E190E00E943F2060E087E190E068
:101BD0000E942D2040E050E0BA018CE190E00E948C
:101BE0003F2060E070E080E290E00E944B2040E007
:101BF00050E0BA0188E190E00E943F200C949A0DD9
:101C00000C94A10D682F8EE090E00C942D200E9482
:101C1000B3186093070270930802809309029093AF
:101C20000A0260930302709304028093050290936A
:101C30000602089585B7806885BF85B7806885BF2F
:101C4000089581E008950C94210E08950C94250EBA
:101C50000C94250E0C94280E0C94250E0C942C0E2E
:101C60000C94250E0E941A0E8DEF90E10E946B17C6
:101C70000E94300E0C942E0E0E94260E0C94250EFF
:101C80000E949E180E94FC110C942A0E6F927F9263
:101C90008F929F92AF92BF92CF92DF92EF92FF927C
:101CA0000F931F93CF93DF93CDB7DEB72A970FB66D
:101CB000F894DEBF0FBECDBF0E94111281110E94A9
:101CC000070E3BEF832E31E0932E00E010E0C02E94
:101CD000802F0E943B115C01F401619071904F01D3
:101CE0006826792661147104B1F40F5F1F4F043028
:101CF000110569F78FEF89838A831B820E94A718D9
:101D00008160782F9D838C8349815A816B818D817D
:101D10000E94F9023AC080910B0281FD0E94441199
:101D2000D12CEE24E394F12CC3018E219F21892B29
:101D300029F10E94230E8823A9F0DE82CF82AE20F3
:101D4000BF2081E0AB2809F480E088870E94A718B3
:101D50008160782F9A8789874E815F8168858A851F
:101D60000E94F902000F111FF801E550FE4F80811B
:101D70009181E826F926F182E08207C0D394EE0C27
:101D8000FF1CFCE0DF12D0CFB0CF0E9422140E94D3
:101D900075179091FA018917D1F00E9475178093F9
:101DA000FA012A960FB6F894DEBF0FBECDBFDF91C1
:101DB000CF911F910F91FF90EF90DF90CF90BF9048
:101DC000AF909F908F907F906F900C94F0022A9626
:101DD0000FB6F894DEBF0FBECDBFDF91CF911F913C
:101DE0000F91FF90EF90DF90CF90BF90AF909F90BA
:101DF0008F907F906F900895CF93DF930E9426106D
:101E0000EC01811521E5920708F045C0811530E508
:101E1000930708F094C0883E910528F5803E91050F
:101E200008F0F8C0883A910570F4853A910508F0F9
:101E30007CC08130910509F475C008F4E8C00497AE
:101E400008F0E8C0E4C08F3B910508F0E0C0C85A34
:101E5000D0E0CC0FDD1FC65BDE4F0990D881C02DCE
:101E6000CE019464D8C0811540E2940758F48115DE
:101E700051E0950708F0CEC08D3E910508F4C7C02B
:101E80009065C9C0C11580E4D80708F4C0C0DF70F0
:101E9000CE01906AC0C0811525E59207A8F481158E
:101EA00034E5930708F095C0811543E5940708F0E1
:101EB0007BC0811552E5950708F061C0D82FCC276B
:101EC000CE01816F906AA7C0C11589E5D807A0F43B
:101ED000C11528E5D20708F082C0C11536E5D30741
:101EE00008F095C08C2F0E94BA108F7190E0D82F07
:101EF000CC27CE0190628FC0C1154AE5D40708F403
:101F000074C0CE0190568115904208F080C08D2F8C
:101F10008F710E94BA10DD27D0628F71AE01582BED
:101F2000CA0179C081E090E076C0C55AD0E0C858B7
:101F3000DE4F8881C82FD0E0CE0190646CC074E081
:101F4000969587957A95E1F7282F23703C2F33706B
:101F500081E090E002C0880F991F3A95E2F79C68F3
:101F6000AC01522B9A019C2F9F709695969550E24A
:101F7000959FE0011124C9018C2B9D2B4CC08370CF
:101F8000992721E030E002C0220F331F8A95E2F743
:101F90009C2F9695969580E2989FE0011124C22B84
:101FA000D32BCE019C6837C08370992721E030E0A5
:101FB00002C0220F331F8A95E2F79C2F96959695C3
:101FC00040E2949FE0011124C22BD32BCE019A68EA
:101FD00022C0D82FCC27CE01846F906A1CC0DC2F82
:101FE000CC27CE01806F906A16C08C2F8F700E9414
:101FF000BA1094E0D695C7959A95E1F7CF70D0E0E6
:10200000DC2FCC27D0699E01282BC90104C080E0B9
:1020100090E001C0CE01DF91CF91089520E3829F2F
:10202000C0011124FC012CE0729FE00DF11D112470
:10203000E60FF11DEE0FFF1FEC50FF4F85919491BD
:1020400008950E940E100E94FC0E0895823891059A
:1020500069F1B0F48133910509F46DC048F4893217
:10206000910509F463C08A32910509F469C00895A5
:102070008533910509F455C089339105B9F0089568
:10208000833E910569F138F4803E9105B1F0823EBE
:10209000910509F10895863E9105A9F1873E9105C4
:1020A000B9F1843E910509F064C023C02091350246
:1020B00020FD4FC021FD4DC008958091350280FD67
:1020C00044C08091360280FF44C08091350284FD77
:1020D00042C083EE4DC08091350282FF38C0F5CFFB
:1020E0008091350282FD33C08091360280FD31C07F
:1020F000ECCF8091360281FF32C08091350284FDA1
:102100002AC087EE35C08091350283FF26C0F5CF07
:102110008091350283FD21C08091360281FD1FC070
:10212000ECCF8091350285FD1CC01DC08091350229
:1021300085FD19C016C08091350286FD16C017C0F6
:102140008091350286FD13C010C089E311C082EE74
:102150000FC080EE0DC080E00BC086EE09C084EE9B
:1021600007C089E205C085E303C08AE201C081E3BC
:1021700090E008959091350292FF0DC0282F2871AC
:10218000283019F4877F846006C0282F24712430FA
:1021900011F48B7F886093FF0DC0282F28712831A0
:1021A00019F4877E846106C0282F2471243111F42C
:1021B0008B7E88612091360220FF0DC0382F387148
:1021C000383019F4877F816006C0382F3171313083
:1021D00011F48E7F886021FF0DC0282F28712831CF
:1021E00019F4877E816106C0282F2171213111F4F5
:1021F0008E7E886194FD877E089580E008950C941A
:10220000520D0E9411128FE39CE90197F1F700C073
:1022100000000E94111280E00E943B1180FF04C068
:102220000E94FF100C94F41808950C9401110E9460
:10223000580D811102C00E94000E0E94630D809310
:102240000B020E946B0D90933602809335020E9420
:1022500015110E94670D682F70E080E090E00E94E9
:1022600081076091AD017091AE018091AF019091B5
:10227000B0010C94B907E82FF0E0EE0FFF1FE15C0E
:10228000FD4F808191810895089580EA8A95F1F744
:10229000089500C008950C94451108950C944D11B3
:1022A0000C944E110C944D110C945211F894E82F8B
:1022B000E295EF70F0E031A1282F2F7081E090E0DF
:1022C00001C0880F2A95EAF7982F9095932391A340
:1022D00092A1892B82A3789408950F931F93CF9393
:1022E000DF93C7E8D1E089918F3F11F00E9456112A
:1022F00081E0CB38D807B9F7CBE7D1E007E811E0A8
:1023000089918F3F11F00E9456110C171D07C1F7DC
:10231000DF91CF911F910F910895BF92CF92DF92DD
:10232000EF92FF920F931F93CF93DF938C01C62FF1
:10233000D0E0CE0189579E4F6C01FC0190819F3FF8
:1023400009F450C0B62EF894E92FE295EF70F0E052
:1023500081A19F7021E030E001C0220F9A95EAF739
:10236000822B81A382A12095282322A378940E9406
:102370004911EBE7F1E047E851E021E030E0E12CE2
:10238000F12C61916F3F89F0A62FA295AF70B0E05C
:1023900090968C9190E06F7002C0959587956A95A4
:1023A000E2F780FD02C0C90102C080E090E0E82AA7
:1023B000F92A220F331F4E175F0719F7F6018081A4
:1023C0008F3F11F00E94561161E0E114F10409F40D
:1023D00060E08B2D0E944B11CC0FDD1FC00FD11F71
:1023E000F982E882DF91CF911F910F91FF90EF90DA
:1023F000DF90CF90BF9008950E946D1188E0EFE3C9
:10240000F2E0DF01982F1D929A95E9F7E7E3F2E0F9
:10241000DF011D928A95E9F784E00E945C120C941A
:102420007102FF920F931F93CF93DF93CDB7DEB767
:1024300028970FB6F894DEBF0FBECDBF8E010F5F99
:102440001F4F88E0F80111928A95E9F7F12C6F2D62
:10245000C8010E948D11F394F4E0FF12F8CF48E018
:1024600050E0B80187E392E00E941220FF24F39429
:10247000009709F4F12C892B41F088E0F801A7E3DB
:10248000B2E001900D928A95E1F72F2D44E06FE3C1
:1024900072E087E392E00E945D120E9477028F2D26
:1024A00028960FB6F894DEBF0FBECDBFDF91CF9157
:1024B0001F910F91FF9008950895FF920F931F931E
:1024C000CF93DF93F82E092F162FD72FC42F222357
:1024D00049F081E080930E020E94A71890930D02AC
:1024E00080930C0280910E028823D9F080910C0217
:1024F00090910D020E94BF18059798F0EF2DF02FD4
:10250000A12FBD2F80E090E04C2F50E0841795075D
:1025100034F4219131912D933D930196F7CF109290
:102520000E02DF91CF911F910F91FF9008950E94AD
:10253000AA1A0E94400E0C94B61A0E94BA1A0E945F
:10254000460E0C94D41A0E942D180E94911A0E94D3
:10255000320E0E9497120E949D120E943C0EFBCFE9
:102560008091150280FF0BC06091090185E0689F92
:10257000B001112475956795759567952BC081FFFE
:1025800009C06091090185E0689FB001112475952B
:10259000679520C082FF07C06091090185E0689FB0
:1025A000B001112417C0909114029923D1F06091C9
:1025B0000801961788F72091090185E0289F90016E
:1025C0001124929FA001939F500D112470E0CA0125
:1025D0000E94E41F6038710540F46115710519F41B
:1025E00006C065E070E0862F08958FE7089581E0CA
:1025F00008958091150280FF08C06091050170E088
:10260000759567957595679521C081FF06C06091A6
:10261000050170E07595679519C082FF04C060914F
:10262000050170E010C090911302992399F0609118
:1026300004019617A0F780910501899FC00111241C
:1026400070E00E94E41F6038710540F46115710567
:1026500019F406C061E070E0862F08958FE70895B1
:1026600081E008958D3E21F40E94B012819504C04E
:102670008E3E29F40E94B0128093190208958F3E75
:1026800021F40E94B012819504C0803F29F40E9479
:10269000B012809318020895893F19F40E94F9122C
:1026A00005C08A3F31F40E94F912819580931A0285
:1026B00008958B3F21F40E94F912819504C08C3F4C
:1026C00029F40E94F91280931B0208959FE0980F4D
:1026D000983078F421E030E0A90102C0440F551F82
:1026E0009A95E2F7CA0190911702892B80931702FD
:1026F00008958D3F21F48091150281600BC08E3FBB
:1027000021F480911502826005C08F3F29F48091E9
:10271000150284608093150208958D3E39F49091DE
:10272000190297FF35C01092190259C08E3E29F444
:10273000909119021916BCF32BC0909118028F3E8C
:1027400029F497FF25C01092180249C0803F19F460
:102750001916CCF31DC090911A02893F29F419165D
:10276000BCF410921A023BC08A3F19F497FF10C0C4
:10277000F8CF8B3F39F490911B0297FF09C010925C
:102780001B022DC08C3F21F490911B021916BCF343
:102790009FE0980F983080F421E030E0A90102C05A
:1027A000440F551F9A95E2F7CA0180959091170240
:1027B00089238093170213C08D3F21F48091150265
:1027C0008E7F0BC08E3F21F4809115028D7F05C056
:1027D0008F3F29F4809115028B7F809315028091A1
:1027E0001802811106C080911902811102C0109255
:1027F000140280911A02811106C080911B0281117E
:1028000002C01092130208950E94A7182091180286
:10281000211104C020911902222321F09093120269
:102820008093110220911A02211104C020911B02F1
:10283000222321F09093100280930F0286E192E010
:102840000C948C17EF92FF920F931F93CF93DF930B
:1028500000D000D000D0CDB7DEB786E0E6E1F2E0F0
:10286000DE01119601900D928A95E1F7E090180231
:10287000F090190200911A0210911B021092180296
:102880001092190210921A0210921B02E11003C05A
:10289000FF2009F45DC080911102909112020E9404
:1028A000BF18AC0190911402992339F020910A01CC
:1028B00030E02417350758F04BC020910B018AE017
:1028C000289F900111242417350718F041C09F3F1D
:1028D00019F09F5F90931402EE2061F00E94B012F5
:1028E0001E1414F09FEF01C091E0989F902D1124C9
:1028F00090931802FF2061F00E94B0121F1414F090
:102900009FEF01C091E0989F902D112490931902A0
:10291000309118023323E1F0209119022223C1F0F3
:1029200045EB3403C0011124992319F09093180248
:1029300003C081E08093180235EB2303C00111240A
:10294000992319F09093190203C081E08093190232
:10295000011103C0112309F45DC080910F02909111
:1029600010020E94BF18AC0190911302992339F014
:102970002091060130E02417350758F04BC0209114
:1029800007018AE0289F900111242417350718F0C9
:1029900041C09F3F19F09F5F90931302002361F0A5
:1029A0000E94F912101614F09FEF01C091E0989F59
:1029B000902D112490931A02112361F00E94F912B4
:1029C000111614F09FEF01C091E0989F902D1124F3
:1029D00090931B0230911A023323E1F020911B02E5
:1029E0002223C1F045EB3403C0011124992319F0CF
:1029F00090931A0203C081E080931A0235EB2303FF
:102A0000C0011124992319F090931B0203C081E0A7
:102A100080931B028091180281110BC080911902D2
:102A2000811107C080911A02811103C080911B029D
:102A300081110E940414EB82FC820D831E8386E0C8
:102A4000FE013196A6E1B2E001900D928A95E1F780
:102A500026960FB6F894DEBF0FBECDBFDF91CF91A3
:102A60001F910F91FF90EF900895E6E1F2E086E06C
:102A7000DF011D928A95E9F7109214021092130259
:102A8000109215020895CF93DF93EC01FB01828130
:102A9000882309F426C1C430FDE5DF0760F4CB3F8D
:102AA0009CE5D90768F49E0122503C45243131054C
:102AB00008F018C105C0C236EDE5DE0709F012C105
:102AC0000E946B0D9093360280933502C031FCE575
:102AD000DF0709F4CAC008F041C0C8309CE5D90737
:102AE00009F4A4C0F0F4C430FCE5DF0709F48CC09D
:102AF00068F4C2309CE5D90709F482C0C330DC45D4
:102B000009F0E5C0809135028260DFC0C630FCE587
:102B1000DF0709F483C008F085C080913502886022
:102B2000D4C0CC309CE5D90709F490C068F4CA3011
:102B3000FCE5DF0709F47EC008F084C00E9420078E
:102B4000809135028068C1C0CE309CE5D90709F478
:102B500081C008F086C08091350294C0CD3FFCE56D
:102B6000DF0709F47BC038F5C4319CE5D90709F4C7
:102B70009AC058F4C231FCE5DF0709F47AC008F0C6
:102B80007EC0809135028F7BA0C0CB3F9CE5D907EA
:102B9000F1F108F03FC0C531DC4509F098C08091E3
:102BA000350282FB222720F991E0922790FB82F9DF
:102BB00090FB83F98AC0C1308DE5D80709F467C05E
:102BC00050F480913602CF3FECE5DE07C1F108F00A
:102BD0005BC08D7F65C0C3308DE5D80709F471C037
:102BE00008F46DC0C236DD4509F071C08091350230
:102BF00084FB222720F991E0922790FB84F965C09D
:102C000080913502816061C08091350216C080914B
:102C1000360216C080913602826042C08091350231
:102C2000806153C08091350280624FC0809135022F
:102C300080644BC0809135028860846046C08260A9
:102C400081602EC0809135028E7F3FC08091350219
:102C50008D7F3BC080913502877F37C080913602DF
:102C600014C0809135028F7E30C0809135028F7DF7
:102C70002CC00E942007809135028F7726C080915A
:102C80003502877F8B7F21C08D7F8E7F09C0809129
:102C90003602982F909591708E7F892B90FB81F949
:102CA0008093360214C00E9420078091350287FB72
:102CB000222720F991E0922790FB87F906C081E056
:102CC00001C080E00E94020E02C080933502809114
:102CD0003502909136020E947C0D0E94200780E010
:102CE00001C081E0DF91CF910895CF93DF938631CA
:102CF0009C4541F5EB010E947C0C982F8A81209124
:102D0000020130910301882379F09A7A81E009F475
:102D100080E080931C02911102C069E201C065E36A
:102D2000C9010E9408180AC080911C02811102C0CA
:102D300069E201C065E3C9010E940A180E94C10C42
:102D400080E001C081E0DF91CF9108950F931F9340
:102D5000CF93DF93C42FD22FFC0182818823C9F047
:102D600040931F020E94A71890931E0280931D0299
:102D700080E28C0F883008F057C0C77081E001C036
:102D8000880FCA95EAF7DF91CF911F910F910C94AC
:102D90007B0480911F02481330C080911D029091E6
:102DA0001E020E94BF18883C910538F510E21D0FE5
:102DB000CD17B9F080E28C0F883040F4C77081E005
:102DC00001C0880FCA95EAF70E948204183028F5DE
:102DD00081E09D2F977001C0880F9A95EAF70E94B5
:102DE0007B04802F0E9472041830F0F4D77081E0C9
:102DF00001C0880FDA95EAF70AC080E28C0F8830AC
:102E000098F4C77081E001C0880FCA95EAF7DF9196
:102E1000CF911F910F910C948204802FDF91CF915D
:102E20001F910F910C947204DF91CF911F910F911C
:102E300008950F939C01CB01243F4CE5340731F1F9
:102E400088F4293DFCE53F07D9F02A3D4CE53407DD
:102E500079F1283D3C45A9F506E221EE41EE68ED09
:102E60007CE52BC0263FFCE53F07E1F0A8F0273FBB
:102E70003C4539F507E225EE46EE67EF7CE51DC0DF
:102E800007E225EE45EE69ED7CE517C006E221EE8E
:102E900040EE64EF7CE511C007E225EE44EE65EFFD
:102EA0007CE50BC006E221EE42EE66EF7CE505C054
:102EB00008E221E045EE6AED7CE50E94A61680E07E
:102EC00008C0FC018281882319F010921F0201C002
:102ED00081E00F91089590938D0180938C01089566
:102EE00090932502809324020895E0912402F091AA
:102EF0002502309721F00190F081E02D099480E0C7
:102F00000895E0912402F0912502309721F002808B
:102F1000F381E02D09940895E0912402F0912502B7
:102F2000309739F022E0DC012C930480F581E02D0C
:102F3000099408952091220230912302281739071D
:102F400071F09093230280932202E0912402F09189
:102F50002502309721F00680F781E02D099408952D
:102F600020912002309121022817390771F09093A7
:102F7000210280932002E0912402F09125023097F3
:102F800021F00084F185E02D09940895FC0132962A
:102F900097E080E0915029F021912223D9F38F5FAF
:102FA000F9CF0895662349F0FC01329608962191E5
:102FB000621729F0E817F907D1F780E0089581E05A
:102FC00008959C01FC0132969FEF80E041914617E5
:102FD00089F09F3F19F4411101C0982F8F5F86300F
:102FE000A9F79F3F39F0F901E90FF11D97FDFA9517
:102FF0006283089508959C012A5F3F4FFC0142813E
:10300000461301C01282019682179307B9F70895FB
:103010000C94E1170C94FB17029626E0FC01119228
:103020002A95E9F7089508950C94131883E0809386
:1030300026020C941418811102C081E001C082E0C4
:10304000809326020C9414180C941B1881E0809332
:1030500026020C9414180C942618089580914F029F
:10306000843031F10E9479021092270220E488E135
:1030700090E00FB6F894A895809360000FBE20935F
:10308000600083B7817F846083BF83B7816083BF23
:103090007894889583B78E7F83BF0FB6F894A895F0
:1030A00080916000886180936000109260000FBE84
:1030B000089508950C945918CF930E945A180E94AD
:1030C00011120E945918C0E08C2F0E943B11892BCD
:1030D00029F4CF5FC430C1F780E001C081E0CF9117
:1030E00008950E9420070C94E2021F920F920FB6DF
:1030F0000F9211248F939F93AF93BF9380912702D8
:10310000811113C08091470290914802A091490219
:10311000B0914A024196A11DB11D80934702909340
:103120004802A0934902B0934A02BF91AF919F9188
:103130008F910F900FBE0F901F90189582E084BD65
:1031400093E095BD9AEF97BD80936E0008952FB7D9
:10315000F8948091470290914802A0914902B09161
:103160004A022FBF08952FB7F894609147027091DB
:1031700048028091490290914A022FBF08959C0114
:103180004FB7F8948091470290914802A09149026C
:10319000B0914A024FBF821B930B089578941F92FF
:1031A0000F920FB60F9211248F939F93AF93BF93FB
:1031B0008091470290914802A0914902B0914A0241
:1031C0000196A11DB11D8093470290934802A093E0
:1031D0004902B0934A02BF91AF919F918F910F9096
:1031E0000FBE0F901F90189581E08093E00080E261
:1031F0008093D8001092C9008FE19EE40197F1F707
:1032000000C0000087E090EBDC01809358029093AF
:103210005902A0935A02B0935B029CE088E10FB67A
:10322000F894A895809360000FBE90936000FFCF44
:10323000809133020895089522E02093E9002FEF52
:103240003091E800215035FD06C035ED3A95F1F793
:1032500000002111F5CF2091E80025FF0BC040E0D0
:1032600050E066E070E00E94461B8091E8008E7797
:103270008093E8000895CF93DF9321E02093E90045
:103280002FEF3091E800215035FD06C035ED3A951D
:10329000F1F700002111F5CF2091E80025FF14C0BF
:1032A000EC0140E050E068E070E00E94461B809135
:1032B000E8008E778093E80088E0FE01ABE2B2E0A0
:1032C00001900D928A95E1F7DF91CF910895809357
:1032D000280270932A026093290280914F02843061
:1032E00001F582E08093E9008FEF9091E800815032
:1032F00095FD06C095ED9A95F1F700008111F5CF87
:103300008091E80085FF0DC040E050E063E070E090
:1033100088E292E00E94461B8091E8008E778093BD
:10332000E8000895BC0184E00C946719BC0183E0B7
:103330000C94671980914E02811109C00E94D71C1C
:103340000E94341D8091E20084608093E200089521
:1033500010924E0208950C942B1860914B0281E05C
:10336000611101C080E00C94161890914F0281E029
:10337000943009F080E060914B020C941B1842E0FD
:1033800061EC81E00E94501C42E261EC82E00E940C
:10339000501C90914F0281E0943009F080E06091E0
:1033A0004B020C94241880915102833009F461C0BF
:1033B00030F4813071F0823009F49AC008958A3077
:1033C00009F486C08B3009F46CC0893009F0A8C0BC
:1033D00020C080915002813A09F0A2C08091E8009B
:1033E000877F8093E8008091540290915502892B49
:1033F00021F468E08BE292E003C060E080E090E0BE
:1034000070E00E94911B8091E8008B778093E80028
:10341000089580915002813209F082C08091540257
:1034200090915502029708F07BC08091E800877F59
:103430008093E8008091E80082FD05C080914F02F2
:103440008111F8CF6DC02091F3008091F20090E0DF
:10345000922B029731F48091F100813011F0863087
:1034600021F48091F100809333028091E8008B7702
:1034700053C080915002813A09F052C080915402A9
:1034800090915502892B09F04BC08091E800877F0D
:103490008093E8008091E80080FFFCCF80911801C4
:1034A00036C0809150028132D9F5809154029091BA
:1034B0005502892BA9F58091E800877F8093E80069
:1034C0000E94851C80915202809318010C94200761
:1034D00080915002813221F58091E800877F8093AE
:1034E000E8000E94851C8091530280933402089565
:1034F00080915002813AA1F48091E800877F809307
:10350000E8008091E80080FFFCCF80913402809336
:10351000F1008091E8008E778093E8000C94851C80
:10352000089584B7877F84BF0FB6F894A8958091DB
:103530006000886180936000109260000FBE90E090
:1035400080E80FB6F89480936100909361000FBEFD
:103550000C9426180E94D71C0E94341DE2EEF0E065
:1035600080818460808378940C94C91F8CE091E002
:103570000C94701780914F028530A9F480914F020E
:10358000853079F40E942E1880914D028823B1F382
:103590000E945C18882391F30E94301B0E94200730
:1035A000EDCF0C947118089508950C94D71A292F13
:1035B000332723303105C9F060F42130310581F023
:1035C0002230310509F044C08BE390E024EA32E078
:1035D00043C021323105E1F02232310549F138C0D2
:1035E00082E190E02FED32E037C0992781309105DC
:1035F00049F028F0029761F5E4E7F2E005C0E0EA5F
:10360000F2E002C0EAE8F2E0849190E09F0124C079
:103610006115710541F061307105D1F489E090E0E8
:103620002FEC32E019C089E090E026EB32E014C0C4
:103630006115710541F06130710551F48BE790E03F
:1036400021EF32E009C080E490E02CE633E004C0D2
:1036500080E090E020E030E0FA013183208308959B
:1036600080E189BD82E189BD09B400FEFDCF809172
:10367000D8008F7D8093D8008091E0008260809395
:10368000E0008091E00081FDFCCF0895CF92DF92B1
:10369000EF92FF920F931F93CF93DF93EC018B0177
:1036A0007A010E94A41C811133C0E114F10439F0A5
:1036B000F70180819181081B190BC80FD91FC12CFC
:1036C000D12C0115110519F18091E80085FD16C076
:1036D0008091E8008E778093E800E114F10449F0CE
:1036E000F70180819181C80ED91ED182C08285E008
:1036F0000FC00E94A41C882321F30AC089918093E3
:10370000F10001501109FFEFCF1ADF0ADACF80E094
:10371000DF91CF911F910F91FF90EF90DF90CF90AD
:10372000089520915602309157022617370748F026
:103730006115710539F42091E8002E772093E80097
:1037400001C0B901FC0120E06115710579F180919A
:103750004F028823F1F18530F1F18091E80083FD7B
:103760003CC08091E80082FD2EC08091E80080FF7F
:10377000EBCF2091F3008091F20090E0922B611545
:10378000710551F08830910538F421912093F100B2
:10379000615071090196F3CF21E0089709F020E00C
:1037A0008091E8008E778093E800CECF2111CFCFB3
:1037B0000AC080914F02882361F0853061F08091CA
:1037C000E80083FD0AC08091E80082FFF2CF80E02C
:1037D000089582E0089583E0089581E0089520919E
:1037E0005602309157022617370748F061157105C8
:1037F00039F42091E8002E772093E80001C0B90148
:10380000FC0120E06115710591F180914F02882340
:1038100009F440C0853009F43FC08091E80083FD81
:103820003DC08091E80082FD2FC08091E80080FFBC
:10383000E9CF2091F3008091F20090E0922B611586
:10384000710559F08830910540F424912093F100DE
:103850003196615071090196F2CF21E0089709F085
:1038600020E08091E8008E778093E800CBCF211193
:10387000CCCF0AC080914F02882361F0853061F07F
:103880008091E80083FD0AC08091E80082FFF2CFBA
:1038900080E0089582E0089583E0089581E008952E
:1038A000982F973068F59093E900981739F0709148
:1038B000EC002091ED005091F00003C0242F762FF2
:1038C00050E021FD02C09F5FECCF3091EB003E7FC6
:1038D0003093EB003091ED003D7F3093ED0030915F
:1038E000EB0031603093EB007093EC002093ED001F
:1038F0005093F0002091EE0027FDE5CF80E0089581
:103900008F708093E90081E008958091500287FFD5
:1039100011C08091E80082FD05C080914F028111A5
:10392000F8CF11C08091E8008B770BC080914F02D7
:10393000882349F08091E80080FFF8CF8091E8006B
:103940008E778093E80008952091E4003091E5009F
:1039500095E64091EC00842F817040FF23C0809158
:10396000E80080FD1DC080914F02882399F08530CA
:1039700099F08091EB0085FD11C04091E4005091D9
:10398000E5002417350729F3915011F09A01E1CF92
:1039900084E0089582E0089583E0089581E0089529
:1039A00080E008954091E80042FFDDCF08950E9435
:1039B000451D0E944D1DE0EEF0E080818160808316
:1039C000E8EDF0E080818F77808319BCA7EDB0E04F
:1039D0008C918E7F8C9380818F7E808310924E029B
:1039E00008950F931F93CF93DF930E94451D0E946C
:1039F0004D1DC8EDD0E088818F77888388818068ED
:103A0000888388818F7D888319BC10924F02109221
:103A10004B0210924D0210924C0200EE10E0F801A1
:103A200080818B7F808388818160888342E060E031
:103A300080E00E94501CE1EEF0E080818E7F808368
:103A4000E2EEF0E080818160808380818860808305
:103A5000F80180818E7F8083888180618883DF91F7
:103A6000CF911F910F910895E8EDF0E080818F7E56
:103A70008083E7EDF0E080818160808384E082BF15
:103A800081E080934E020C94F11CE8EDF0E080811F
:103A90008E7F80831092E20008951092DA001092D7
:103AA000E10008951F920F920FB60F9211242F93E9
:103AB0003F934F935F936F937F938F939F93AF93B6
:103AC000BF93EF93FF938091E10082FF0BC0809141
:103AD000E20082FF07C08091E1008B7F8093E100CC
:103AE0000E94C81F8091DA0080FF1FC08091D8001B
:103AF00080FF1BC08091DA008E7F8093DA00809176
:103B0000D90080FF0DC080E189BD82E189BD09B483
:103B100000FEFDCF81E080934F020E949A1905C0FC
:103B200019BC10924F020E94A8198091E10080FFF9
:103B300019C08091E20080FF15C08091E2008E7F65
:103B40008093E2008091E20080618093E2008091A6
:103B5000D80080628093D80019BC85E080934F0222
:103B60000E94AD198091E10084FF30C08091E20095
:103B700084FF2CC080E189BD82E189BD09B400FECB
:103B8000FDCF8091D8008F7D8093D8008091E10097
:103B90008F7E8093E1008091E2008F7E8093E2002F
:103BA0008091E20081608093E20080914B02882343
:103BB00011F084E007C08091E30087FD02C081E03E
:103BC00001C083E080934F020E94B5198091E1000B
:103BD00083FF29C08091E20083FF25C08091E1002E
:103BE000877F8093E10082E080934F0210924B0226
:103BF0008091E1008E7F8093E1008091E2008E7FD2
:103C00008093E2008091E20080618093E20042E0D4
:103C100060E080E00E94501C8091F00088608093FA
:103C2000F0000E94AB19FF91EF91BF91AF919F916E
:103C30008F917F916F915F914F913F912F910F9055
:103C40000FBE0F901F9018951F920F920FB60F92F4
:103C500011242F933F934F935F936F937F938F9391
:103C60009F93AF93BF93CF93DF93EF93FF93C09155
:103C7000E900CF708091EC00D82FD17080FDD0E8A2
:103C80001092E9008091F000877F8093F000789493
:103C90000E94681E1092E9008091F0008860809375
:103CA000F000CD2BCF70C093E900FF91EF91DF9131
:103CB000CF91BF91AF919F918F917F916F915F91C4
:103CC0004F913F912F910F900FBE0F901F9018951D
:103CD0001F93CF93DF93CDB7DEB7AA970FB6F894B3
:103CE000DEBF0FBECDBFE0E5F2E08091F100819331
:103CF00022E0E835F207C9F70E94D3198091E80065
:103D000083FF2EC18091500290915102492F50E0C3
:103D10004A30510508F024C1FA01E059FF4F0C94D4
:103D2000F81F803821F0823809F01AC108C080914C
:103D30004C0290914D02992389F082600FC08091CE
:103D400054028F70873008F00BC18093E900809196
:103D5000EB0085FB882780F91092E9009091E8003C
:103D6000977F9093E8008093F1001092F100D1C00A
:103D7000282F2D7F09F0F4C0882319F0823061F0DC
:103D8000EFC080915202813009F0EAC0933009F00F
:103D900080E080934D022EC08091520281112AC092
:103DA000809154028F702FEF280F263008F0D8C072
:103DB0008093E9002091EB0020FF1CC0933021F498
:103DC0008091EB00806214C09091EB009061909321
:103DD000EB0021E030E0A90102C0440F551F8A9595
:103DE000E2F74093EA001092EA008091EB008860CD
:103DF0008093EB001092E9008091E800877F809328
:103E0000E8000E94851CACC08111AAC0109152022A
:103E10001F778091E3008078812B8093E30080916D
:103E2000E800877F8093E8000E94851C8091E8006D
:103E300080FFFCCF8091E30080688093E300111144
:103E400002C082E001C083E080934F0289C08058A5
:103E5000823008F085C080915202909153028C3DCF
:103E600053E0950779F583E08A838AE289834FB727
:103E7000F894DE01139620E03EE051E2E32FF0E0FB
:103E800050935700E49120FF03C0E295EF703F5F2D
:103E9000EF708E2F90E0EA3010F0C79601C0C09608
:103EA0008D939D932F5F243149F74FBF8091E80098
:103EB000877F8093E8006AE270E0CE0101960E945D
:103EC000911B16C06091540270915502AE014F5F74
:103ED0005F4F0E94D51ABC01892B09F441C0909113
:103EE000E800977F9093E80089819A810E94EF1BF8
:103EF0008091E8008B778093E80032C0803881F5AC
:103F00008091E800877F8093E80080914B02809346
:103F1000F1008091E8008E7772CF811121C08091ED
:103F200052029091530299270297D4F48091E800AD
:103F3000877F8093E8008091520280934B020E9419
:103F4000851C80914B02811106C08091E30087FDA2
:103F500002C081E001C084E080934F020E94BF193B
:103F60008091E80083FF0AC08091E800877F8093FA
:103F7000E8008091EB0080628093EB00AA960FB678
:103F8000F894DEBF0FBECDBFDF91CF911F91089592
:103F90000895CF9380914F028823A1F0C091E9004A
:103FA000CF709091EC00892F817090FD80E8C82B34
:103FB0001092E9008091E80083FD0E94681ECF7096
:103FC000C093E900CF91089597FB072E16F4009453
:103FD00007D077FD09D00E94FE1F07FC05D03EF4F4
:103FE000909581959F4F0895709561957F4F0895A5
:103FF000EE0FFF1F0590F491E02D0994AA1BBB1B47
:1040000051E107C0AA1FBB1FA617B70710F0A61BD8
:10401000B70B881F991F5A95A9F780959095BC01F9
:10402000CD010895FB01DC0104C08D910190801940
:1040300021F441505040C8F7881B990B0895F99915
:10404000FECF92BD81BDF89A992780B50895A8E169
:10405000B0E042E050E00C945320262FF999FECFB7
:1040600092BD81BDF89A019700B4021639F01FBACB
:1040700020BD0FB6F894FA9AF99A0FBE08950396E8
:10408000272F0E942E200E942D20252F0E942E20B7
:10409000242F0C942E200196272F0E942E200C9462
:1040A0002D20DC01CB01FC01F999FECF06C0F2BD49
:1040B000E1BDF89A319600B40D9241505040B8F7E6
:0640C0000895F894FFCF03
:1040C600C800EF012808641E140A321E18193B198D
:1040D6001C19961992191B1901E200E900EA00B5AC
:1040E60000B600B700CD008301CC008A019201948E
:1040F600012102230224022502260227022A02B3F4
:1041060000B4006F007000818283E200E900EA00DB
:10411600B500B600B700CD008301CC008A0192013C
:1041260094012102230224022502260227022A02E2
:10413600B300B4006F007000818283F0F1F4F5F6ED
:0C414600F766363534979630313267004A
:00000001FF
