:100000000C9462020C94A9020C94A9020C94A9020B
:100010000C94A9020C94A9020C94A9020C94A902B4
:100020000C94A9020C94A9020C94E5200C94B7211D
:100030000C946A1B0C94A9020C94A9020C94A902BA
:100040000C94A9020C94A9020C94A9020C94A90284
:100050000C94A9020C94C31B0C94A9020C94A90241
:100060000C94A9020C94A9020C94A9020C94A90264
:100070000C94A9020C94A9020C94A9020C94A90254
:100080000C94A9020C94A9020C94A9020C94A90244
:100090000C94A9020C94A9020C94A9020C94A90234
:1000A0000C94A9020C94A9020C94A9023F063F06E5
:1000B00071067106BE06DC06BF07BF07E7064F07DD
:1000C000600760075F085F087108710868087108B9
:1000D000710871085F085F086D08710871086D0884
:1000E0002E163116511662166A167516BB16BB16F9
:1000F000BB16BB16BB1678167B1680168D169A1685
:100100009D16A116AE1624224B2243234B224323D5
:100110009722BA224323112320232B0014001A0014
:100120000800150017001C0018000C001200130036
:100130002A00290004001600070009000A000B002D
:100140000D000E000F0033003400E1001D001B0005
:1001500006001900050011001000360037003800B5
:10016000E5000000E000E300E200105F2C00280042
:10017000115FE600E700E400000001001E001F0020
:100180002000210022002300240025002600270053
:100190002A000100000000000000000000005000E4
:1001A000510052004F00000000000100000000005C
:1001B000000000000000000000000000000000003F
:1001C0000000010001000100010001000100010028
:1001D0000100010001000100010001001E021F02D8
:1001E00020022102220223022402250226022702E3
:1001F0002A000100000000000000000000002D00A7
:100200002E002F02300231023500010000000000F4
:100210000000000000002D022E022F0030003100EF
:100220003502010001000100010001000100010090
:1002300001000100010001000100010000000000B8
:1002400000000000000000000000000000000000AE
:10025000000001000000000000000000000000009D
:10026000000000000000000000000100000000008D
:10027000000000000000000000000000000000007E
:100280000000010001000100010001000100010067
:100290000100010001000100010000000000000059
:1002A00000002A2B280000000000000000000000D1
:1002B000000000000029000000002C1E3420212234
:1002C00024342627252E362D3738271E1F2021229D
:1002D000232425263333362E37381F040506070816
:1002E000090A0B0C0D0E0F10111213141516171806
:1002F000191A1B1C1D2F3130232D35040506070844
:10030000090A0B0C0D0E0F101112131415161718E5
:10031000191A1B1C1D2F3130354C00000000000045
:1003200000000000000000000000000000000000CD
:1003300000000000000000000000000000007E0F30
:1003400000D4FFFFFFC700000078140343006F00D4
:1003500072006E0065006C0069007500730000009B
:100360001403590075007300680061006B006F0092
:1003700062006F0000000403090409025B0003012E
:1003800000A0FA0904000001030101000921110184
:1003900000012240000705810308000A090401004A
:1003A00002030000000921110100012222000705BB
:1003B0008203200001070503032000010904020055
:1003C0000103000000092111010001227B00070543
:1003D000840320000A1201000200000008653205B3
:1003E000000100010200010660FF0961A10109622C
:1003F000150026FF00952075088102096315002667
:10040000FF00952075089102C005010902A1018530
:10041000020901A100050919012908150025019506
:1004200008750181020501093009311581257F9583
:10043000027508810609381581257F9501750881A7
:1004400006050C0A38021581257F9501750881067D
:10045000C0C005010980A101850319012AB7001553
:100460000126B700950175108100C0050C0901A196
:1004700001850419012AA002150126A00295017523
:10048000108100C005010906A101050719E029E74F
:1004900015002501950875018102950175088101F6
:1004A0000507190029FF150026FF0095067508812C
:1004B0000005081901290595057501910295017539
:1004C000039101C011241FBECFEFDAE0DEBFCDBF24
:1004D00004B603FE27C080914F0290915002A09174
:1004E0005102B09152028730904BA740B04BD1F4EB
:1004F00010924F021092500210925102109252022A
:1005000014BE84B7877F84BF0FB6F894A8958091F6
:100510006000886180936000109260000FBEE0E090
:10052000F8E3099511E0A0E0B1E0EAEFF7E402C0DA
:1005300005900D92A639B107D9F722E0A6E9B1E0FE
:1005400001C01D92AF34B207E1F70E94E2120C9491
:10055000FB230C94000081E0089581E008950C9441
:10056000AD0208950C94B1021F93CF93DF9300D096
:1005700000D01F92CDB7DEB749835A836B83309189
:10058000980189819A81311114C0662359F0222380
:1005900049F00E945509182F682F89819A810E947D
:1005A000FE0803C00E942909182F69817A81812FD2
:1005B00004C00E94550969817A810F900F900F90B5
:1005C0000F900F90DF91CF911F910C948D17FC012C
:1005D000262F408151816281738184810C94B40201
:1005E00081E00895CF93DF93EC0160E00E94E70281
:1005F000BE01DF91CF910C94B202E1E0F0E0DF01A7
:1006000002C0AA0FBB1F6A95E2F7BD01DF0102C05D
:10061000AA0FBB1F4A95E2F7AD01462B01C0EE0FB2
:100620002A95EAF7942F9823491302C08E2B089538
:10063000E0958E230895242F462F682F8091AB01DB
:100640000E94FD020C94BB080E9456110E946E0489
:100650000C9489110C94851108950E944D080E94F4
:100660002C032FEF84E39CE0215080409040E1F781
:1006700000C000000C94E91B0F931F93CF93DF93EE
:100680008C0161E00E94E702EC01B8010E94DD15D7
:10069000882309F444C0B801CE010E94AF02882328
:1006A000F1F1B801CE010E94C2188823C1F1B8014E
:1006B000CE010E941419882391F1B801CE010E9445
:1006C0003F1A882361F1F8018281882309F1CA3534
:1006D0008DE5D807C1F050F4C115FCE5DF0781F0C6
:1006E000CE3DDC45A9F40E94500E19C0CB35EDE596
:1006F000DE0761F0CC35DD4559F40E94E20C08C0FC
:100700000E942D030CC00E94EB0C02C00E94EE0C54
:10071000C801DF91CF911F910F910C94AB0280E043
:10072000DF91CF911F910F910895DF92EF92FF9289
:100730000F931F93CF93DF93E82FF0E0E656FD4F22
:10074000D490282F26952695269530E0F901E65C71
:10075000FC4F0491877010E0082E02C01595079594
:100760000A94E2F701701127F901E65DFC4FE4906D
:10077000F12C082E02C0F594E7940A94E2F791E078
:10078000E922FF24F901E65EFC4FC491D0E002C0EB
:10079000D595C7958A95E2F7C170DD27011511053A
:1007A00019F081EE0E94C804E114F10419F086EEFC
:1007B0000E94C8048D2D0E94F105EF2819F086EEE5
:1007C0000E947205012B19F081EE0E947205CD2B5B
:1007D00051F08CE2DF91CF911F910F91FF90EF903C
:1007E000DF900C94F105DF91CF911F910F91FF9055
:1007F000EF90DF900895EF92FF920F931F93CF93A6
:10080000DF93EC01162F0AE08881882309F455C094
:10081000813009F043C08981813041F47E0182E05A
:10082000E80EF11C8A810E94F10509C0823049F46A
:100830007E01E2E0EE0EF11C8A810E94C804E7010D
:100840002FC0833041F47E01F2E0EF0EF11C8A816B
:100850000E947205F4CF843011F0219621C02A81C4
:10086000229680E090E030E0205331092A303105B3
:1008700058F4089FA001099F500D1124C901840F4D
:10088000951F21962881EFCF009751F0EFE9FFE007
:100890003197F1F700C000000197F6CF0E94950351
:1008A0002196812F882309F4AFCFEFE9FFE031973C
:1008B000F1F700C000008150F5CFDF91CF911F917B
:1008C0000F91FF90EF90089560E00C94FB03089562
:1008D0000C94670481E008950C946A040895CF9302
:1008E000C82F0E9468048C2F0E946C04CF91089539
:1008F000CF93DF93CDB7DEB72B970FB6F894DEBF5B
:100900000FBECDBF4F83588769877A878B87611168
:100910000E94110D9E012F5F3F4F86E0F901119259
:100920008A95E9F785E0FE013796D90101900D928D
:100930008A95E1F789819A814C815D81452B31F05F
:100940009F3F31F491E08F3F19F403C091E001C063
:1009500090E090FF09C049815A816B817C818D8133
:100960009E810E94110C05C0C9010E94F0028111F4
:10097000F2CF2B960FB6F894DEBF0FBECDBFDF913E
:10098000CF910895FC01808191810E948209089590
:10099000CF93882309F4A4C0C82F8238C1F40E94E1
:1009A000751A81FD9DC069E380910001909101015C
:1009B0000E94081B0E94360D2FEF81EE94E021501B
:1009C00080409040E1F700C0000069E319C083381F
:1009D00001F50E94751A80FD83C063E580910001D6
:1009E000909101010E94081B0E94360D2FEF81EEAD
:1009F00094E0215080409040E1F700C0000063E5A2
:100A000080910001909101010E940A1BCF910C94EA
:100A1000360D8438C1F40E94751A82FD61C067E406
:100A200080910001909101010E94081B0E94360DE7
:100A30002FEF81EE94E0215080409040E1F700C01C
:100A4000000067E4DDCF8CEF8C0F813AD0F46C2F7F
:100A500080910001909101010E94D21A882349F0EF
:100A60006C2F80910001909101010E940A1B0E944D
:100A7000360D6C2F80910001909101010E94081B9E
:100A8000C5CF80E28C0F883048F4C77081E001C088
:100A9000880FCA95EAF70E94F40CB8CFEBE5EC0F8B
:100AA000E33040F4F0E0ED5BFE4F808190E0CF91C9
:100AB0000C949A1AE8E5EC0FE73150F4F0E0EE0FF1
:100AC000FF1FEB5EFE4F80819181CF910C94B01A95
:100AD000C03F30F08C2F0E946F13CF910C944114C3
:100AE000CF910895882309F464C0823879F40E9474
:100AF000751A81FF5EC069E3809100019091010148
:100B00000E94081B0E94360D69E310C08338B1F4BF
:100B10000E94751A80FF4DC063E58091000190919D
:100B200001010E94081B0E94360D63E580910001BF
:100B3000909101010E940A1B0C94360D843879F4BF
:100B40000E94751A82FF35C067E480910001909180
:100B500001010E94081B0E94360D67E4E7CF9CEF5D
:100B6000980F913A10F4682FE1CF90E2980F9830E7
:100B700050F4877091E001C0990F8A95EAF7892FA8
:100B80000E94FA0CD9CF9BE5980F933020F480E0B7
:100B900090E00C949A1A98E5980F973120F480E031
:100BA00090E00C94B01A803F20F00E94CA130C947D
:100BB000411408951F93CF93DF93182FEB010E94E8
:100BC000C804209741F08FE99FE00197F1F700C03A
:100BD00000002197F6CF812FDF91CF911F910C94C8
:100BE0007205893319F060E070E002C060E570E0E2
:100BF0000C94DA05882321F00E94F40C0C94360D35
:100C00000895882321F00E94FA0C0C94360D089563
:100C1000CF92DF92EF92FF920F931F93CF93DF93C8
:100C20007C01062FC72FFC01D281158112951F7000
:100C30000E94C90C882399F0DD2389F08C2F807FD6
:100C4000803421F080E2800F883048F082E00E94FA
:100C5000860D0E94C90C91E0D82ED92601C0D12C56
:100C6000CC2EC2948FE0C8228C2D90E08C30910560
:100C700008F085C1FC01EA5AFF4F0C948B238C2F9E
:100C8000807FCF70882311F0C295C07FDD2399F05B
:100C9000CC2309F460C180E2800F883010F001118C
:100CA00004C08C2F0E94F40C03C08C2F0E94040DF2
:100CB0000E94360D50C1802F0E947205CC2309F48A
:100CC0005EC180E2800F883010F0011104C08C2FCB
:100CD0000E94FA0C03C08C2F0E940A0D0E94360D50
:100CE0004EC18C2F807FCF70803211F0C295C07FB3
:100CF000002319F00130C9F022C0DD2371F0112367
:100D000041F0113031F40E94170D8C2B0E941F0D01
:100D100036C10E94170D8C2B1DC0112319F0113004
:100D200009F42DC10E942C0D25C0DD2321F01630C1
:100D300008F025C10EC0153008F021C11BC0DD230D
:100D400061F0112331F0F701858180FF04C18F70BC
:100D500085838C2F0E94FA0512C1112359F00933A3
:100D600009F00AC1FFEF27EE83E0F15020408040F8
:100D7000E1F700C18C2F0E94010601C18C2F8695DE
:100D80008695837019F0813061F0F9C0DD2321F080
:100D9000802F9C2F937002C080E090E00E949A1AEE
:100DA000F6C0DD2321F0802F9C2F937002C080E0DD
:100DB00090E00E94B01AEBC0802FDD2319F00E9452
:100DC0006F1302C00E94CA130E944114E0C08C2F0E
:100DD000837079F5D111D7C0402F42954695477061
:100DE000440F440F202F2F70042E01C0220F0A94AD
:100DF000EAF704FF08C08FE090E001C0880F4A9531
:100E0000EAF7809501C080E0C695C695C370822B35
:100E1000C23049F058F4C13019F00E94AF08B3C095
:100E20000E94AA08B0C00E94B408ADC00E94A808E1
:100E3000AAC0DD2319F08C2F817001C0869588230C
:100E400009F4A1C0402F429546954770440F440FC6
:100E5000202F2F70042E01C0220F0A94EAF704FFFE
:100E600008C08FE090E001C0880F4A95EAF78095AE
:100E700001C080E0C695C695C370822BC23049F090
:100E800058F4C13019F00E94F3087DC00E94EE08AA
:100E90007AC00E94F80877C00E94BB0874C0CF7067
:100EA000DD2339F08C2F0E94CC08802F0E94FA0598
:100EB0006AC0802F0E9401068C2F0E94D70863C051
:100EC000023F01F128F4003F41F0013FA1F03FC093
:100ED000033FF9F0043F39F13AC0DD2341F015300A
:100EE00008F04DC08C2F8F710E94E30848C0163067
:100EF00008F045C0F7CFDD2339F08C2F8F710E94A9
:100F0000CC083DC0DD23C9F38C2F8F710E94D70818
:100F100036C0DD2329F08C2F8F710E94C4082FC0AA
:100F20000E94C1082CC0DD2349F0CF718C2F0E9494
:100F3000CC0863E08C2F0E946B0D21C081E00E94E1
:100F4000860D1230E0F082E00E94860D18C0DD238D
:100F500031F0112391F2802F0E94C80410C0112398
:100F600099F2093349F49FEFE7EEF3E09150E04046
:100F7000F040E1F700C00000802F0E94720588EF6A
:100F80008C0D843020F40E94751A0E946F04DD20BD
:100F9000C9F00E94C50C80FD15C0F70112820E94A5
:100FA000BF0C0E94CC08C7010E9403080E94BF0C1E
:100FB000DF91CF911F910F91FF90EF90DF90CF9035
:100FC0000C94D708DF91CF911F910F91FF90EF9074
:100FD000DF90CF9008950F931F93CF93DF93EC0191
:100FE000688179818A810E948D098C010E94FD08A7
:100FF0000E949C08B801CE010E940806DF91CF91A3
:101000001F910F910895CF93DF93EC01988189810F
:101010002B813C81232B31F08F3F31F481E09F3FC6
:1010200019F403C081E001C080E080FD19C0CE0149
:101030000E943C0381110CC00E94C90C882381F0DE
:101040008A81882369F082E0DF91CF910C94860D2C
:10105000CE010E94EB07CE01DF91CF910C94F202FA
:10106000DF91CF91089580E090E00E949A1A80E08D
:1010700090E00E94B01A0E94110D0E94140D0E946F
:10108000360D0E9472150C944114809100019091CC
:1010900001010E940C1B0C9433080E94010D0C945A
:1010A0004508E92FE295EF704E2F50E0FA01329794
:1010B000EE30F105B0F4EE59FF4F0C948B23803FD6
:1010C00091F018F4883E68F40EC0843F51F40BC0D0
:1010D000883E48F0813F29F406C093FB882780F9B9
:1010E000089580E0089581E00895FC018081918158
:1010F0000E9482090E9451080895CF93DF9300D087
:1011000000D01F92CDB7DEB70F900F900F900F90C9
:101110000F90DF91CF910895CF93DF9300D000D04F
:1011200000D0CDB7DEB726960FB6F894DEBF0FBE5F
:10113000CDBFDF91CF910895089508950C949D0837
:101140000C949E080E94A0088093AC010C94330874
:101150000C94A2089091AC01892B0C94A208909158
:10116000AC0189230C94A2089091AC0189270C94BE
:10117000A2080C949D080E94B9088093AB010C94BE
:10118000330880E00C94BB0891E001C0990F8A9568
:10119000EAF7892F0C94BB0821E030E001C0220F50
:1011A0008A95EAF78091AB01822B0C94BB0821E071
:1011B00030E001C0220F8A95EAF720958091AB01BB
:1011C00082230C94BB0821E030E001C0220F8A95F5
:1011D000EAF78091AB0182270C94BB089091AB0198
:1011E000892B0C94BB089091AB0189230C94BB080C
:1011F0009091AB0189270C94BB0808952CE0929F35
:10120000800D1124E82FE695E695E695877051E06C
:1012100001C0550F8A95EAF783E0E89FF001112499
:10122000E756FE4F20E030E070E04081CB01022E17
:1012300002C0969587950A94E2F78170819584277C
:101240008523842781932F5F3F4F2330310569F732
:1012500008952CE0929F800D1124682F6695669565
:101260006695982F977083E0689FB001112440E045
:1012700050E080E0FB01E40FF51FE756FE4F2081B0
:1012800030E0092E02C0369527950A94E2F72170C6
:101290003327042E01C0220F0A94EAF7822B4F5FF6
:1012A0005F4F4330510531F70895CF92DF92FF929F
:1012B0000F931F93CF93DF936C010091AB0180914B
:1012C000AC01082BC7E0D0E010E0C8010C2E02C032
:1012D000959587950A94E2F780FD04C02197A8F7B9
:1012E000F12C07C0FC2EB6018C2F0E9460100197D4
:1012F000A9F38F2DDF91CF911F910F91FF90DF9078
:10130000CF900895CF93DF93EC010E945509BE0161
:101310000E946010DF91CF9108951F93CF93DF93C8
:10132000EB0190919801992321F0CB010E94820951
:1013300013C0882349F0CB010E945509182F682F4C
:10134000CE010E94FE0804C0CB010E942909182F7B
:10135000BE01812F0E946010DF91CF911F910895EF
:101360001F93CF93DF93C091AD0116E08091AE0142
:10137000C81799F0D0E01C9FF0011D9FF00D1124BB
:10138000E155FE4F40815181628173818481958155
:101390000E948C082196C770E9CFDF91CF911F91F1
:1013A00008954091DF015091E0016091E101709159
:1013B000E2018091E3019091E4010C948C080F9379
:1013C0001F93CF93DF938091E40182958F7009F092
:1013D0005DC08091E101882309F458C08091AD017E
:1013E0001091AE016091DF017091E001C091E201C6
:1013F000D091E30191E06F3F09F090E0292F06E0E2
:10140000811709F443C0209721F07F3F21F030E09D
:1014100003C031E001C0322F90E030FD34C0089F9E
:10142000F001099FF00D1124DF01A155BE4F119667
:101430003C911197371327C03C91361324C0129664
:101440003C91129731111FC013964D915C911497E6
:101450004C1B5D0B483C5105B0F48091E4018F704A
:1014600080618093E401EC54FE4F80818F70806135
:1014700080838FED91E00E940308DF91CF911F914F
:101480000F910C94B00901968770BACFDF91CF917C
:101490001F910F9108959F92AF92BF92CF92DF92CA
:1014A000EF92FF920F931F93CF93DF93CDB7DEB7E9
:1014B00061970FB6F894DEBF0FBECDBF8C0185E0FB
:1014C000F801DE011D9601900D928A95E1F7F80171
:1014D000E2809091DF016091E0012091E201309182
:1014E000E3012115310531F06F3F31F481E09F3F79
:1014F00019F403C081E001C080E0F82FF1709F2E45
:1015000080FD3FC1F80140815181A380B4808FEDFF
:10151000C82E81E0D82EF090E101F501E21BF30B1B
:10152000FF2009F4D9C08091E401E83CF10508F0FE
:1015300095C0282F207F09F052C0561313C04913BD
:1015400011C0FE2CE1100EC08F7080618093E40109
:101550000E94D109C6010E9403088091E401F801AC
:1015600085834CC1AB2831F05F3F31F481E04F3FC0
:1015700019F403C081E001C080E080FD03C081E078
:101580008E2502C080E090E0F82FF170FF2E80FFE2
:101590001CC08091AD012091AE0136E0821709F4A4
:1015A0000BC190E0389FF001399FF00D1124E155F7
:1015B000FE4F6181561306C06081461303C06281ED
:1015C000E61203C001968770E9CFFE2CEE2009F4E5
:1015D00015C18091E40181608093E40154C05613E9
:1015E00006C0491304C0E11002C0F80199C0C80147
:1015F0000E947508882361F1EE2051F12091E401E9
:10160000822F82958F7090E0029774F08091DF01B5
:101610009091E00198878F831986BB86AA862C87D4
:10162000CE0107960E94030886E0F801AFEDB1E015
:1016300001900D928A95E1F70E94DF090E94D1097D
:101640000AC0561711F1C8010E94750881112CC0FB
:10165000C8010E940308FF24F394D0C0282F207FE4
:1016600081F77A2DB98AA88A6E2D89890E947D0812
:101670008FED91E00E94030886E0F60111928A95B1
:10168000E9F70E94D109F12CB9C04913DCCFE11070
:10169000DACFF8018583C8010E94030886E0F601CD
:1016A00011928A95E9F7AAC0EE2091F22091E40107
:1016B000822F82958F7090E002970CF4B5CF8091C5
:1016C000DF019091E0019A8389831B82BD82AC8205
:1016D0002E83CE010196A6CFE83CF10508F044C068
:1016E000FE2CEE2009F4B4CF561330C049132EC09F
:1016F0002091E40120FD21C0822F82958F70482F18
:1017000050E041155105C9F0F80125834F305105CE
:1017100041F08F5F982F9295907F822F8F70892B49
:101720008583C8010E94030886E0F801AFEDB1E0AF
:1017300001900D928A95E1F73CC086E0F801AFED8B
:10174000B1E001900D928A95E1F758C0C8010E945E
:101750007508811169CF8091E40181608093E40173
:10176000C8010E9403084AC07A2DB98AA88A6E2D42
:1017700089890E947D0886E0F60111928A95E9F731
:1017800018C0EE2009F464CFC8010E947508F82E35
:10179000882309F45DCF86E0F801AFEDB1E0019058
:1017A0000D928A95E1F78FED91E00E94C2040E94AC
:1017B000DF090E94D10922C04D875E878D859E85F5
:1017C0000E948209292F22952F70223028F49F70C1
:1017D00039F0811105C00BC0243028F49F7049F402
:1017E000805E883020F0C8010E9403089F2CF92CED
:1017F00005C0F8019581907F99F7F9CF8F2D6196FB
:101800000FB6F894DEBF0FBECDBFDF91CF911F9111
:101810000F91FF90EF90DF90CF90BF90AF909F908F
:1018200008951F93CF93DF93CDB7DEB72C970FB6F4
:10183000F894DEBF0FBECDBF4F83588769877A8784
:101840008B879C87CE0107960E944B0A8823D1F094
:101850009F8188852A853B85232B31F08F3F31F48A
:1018600081E09F3F19F403C081E001C080E080FD6A
:1018700047C04F81588569857A858B859C850E94F4
:101880008C083EC086E0FE013796DE01119601907D
:101890000D928A95E1F7FF81E8856A857B85611560
:1018A000710531F0EF3F31F481E0FF3F19F403C0DF
:1018B00081E001C080E080FD23C02091AE0130E0D6
:1018C000C9010196877099274091AD0150E08417B6
:1018D0009507F1F1F983EA837D836C8396E0929F0B
:1018E000D001939FB00D1124A155BE4FFE0131963A
:1018F00001900D929A95E1F78093AE010E94B00994
:1019000016E08091AD019091AE01891771F1189F99
:10191000C001112481559E4F0E944B0A882329F152
:10192000E091AD011E9FF0011124E155FE4F408171
:10193000518162817381848195810E948C0880919C
:10194000AD0190E00196877099278093AD01D9CFC2
:101950000E944D081092AE011092AD01EFEDF1E042
:1019600086E0DF011D928A95E9F72C960FB6F89470
:10197000DEBF0FBECDBFDF91CF911F910895809143
:10198000E50185958595859508958091E501877098
:1019900008959091E501977081E009F480E0089541
:1019A00090912D0292FB222720F9281751F080FBFD
:1019B00092F990932D0280912C0290912D020C941B
:1019C000CD0D089580912D0282FB882780F991E04A
:1019D00089270C94D00C81E00C94D00C80E00C94FE
:1019E000D00C8091F10108959091F101892B8093A1
:1019F000F101089580959091F10189238093F1017F
:101A000008951092F10108959091F001892B80932F
:101A1000F001089580959091F00189238093F00161
:101A200008951092F00108951092EF0108958091A9
:101A3000E601089508950C941A0D0C941B0D9091D5
:101A40002D0292FD08C09091E601981721F0809335
:101A5000E6010C941D0D08958091E601882329F07C
:101A60001092E60180E00C941D0D0895E0910001B4
:101A7000F09101018091F1018083E0910001F091EA
:101A8000010190818091F001892B8083E091000118
:101A9000F091010190818091EF01892B80838091E9
:101AA000E601882381F0E0910001F091010190812D
:101AB000892B808380910001909101010E94C61AB8
:101AC00081110E942C0D80910001909101010C94D4
:101AD000811A0C941A0D90912D0292FD10C098E07D
:101AE000899F90011124262B2093E5010E94CC08A8
:101AF0008091E5018595859585950C94690D0C94EB
:101B0000CC081092E50180E00C94690D2091E5016C
:101B1000809582238093E501982F977041F430E0FF
:101B2000482F082E000C550B2417350721F49091EF
:101B30002D0292FF07C08595859585950E94D7084F
:101B40000C94810D08956FEF7FEF80E090E00C948E
:101B5000E52380E090E00E94C123893E9E4F11F46E
:101B60000C94801580E0089582E090E00C94B923F5
:101B700083E090E00C94B923CF9384E090E00E943E
:101B8000B923C82F82E290E00E94B9232C2F30E0C5
:101B9000A901582BCA01CF910895CF93C92F682F5F
:101BA00084E090E00E94C7236C2F82E290E0CF9106
:101BB0000C94C723AB01BC018FE090E00C94D923B7
:101BC000AB01BC0183E190E00C94D92360E070E0AC
:101BD000CB010C94E00D60E070E0CB010E94DA0DC7
:101BE0000C94E60D69EE7EEF80E090E00E94E52324
:101BF00060E082E090E00E94C72360E083E090E034
:101C00000E94C7231092AC0160E084E090E00E9443
:101C1000C72360E082E290E00E94C72360E085E095
:101C200090E00E94C72360E086E090E00E94C72316
:101C30006FEF87E090E00E94C72340E050E0BA01D8
:101C400088E090E00E94D92360E08DE090E00E945F
:101C5000C72340E050E0BA0188E190E00E94D92318
:101C600060E087E190E00E94C72340E050E0BA01C5
:101C70008CE190E00E94D92360E070E080E290E087
:101C80000E94E52340E050E0BA0188E190E00E9424
:101C9000D92380E00E9499150E94C5150C94EB0D84
:101CA0000C94F20D682F8EE090E00C94C7230E94F4
:101CB000A81B6093FF017093000280930102909330
:101CC00002026093FB017093FC018093FD019093ED
:101CD000FE01089585B7806885BF85B7806885BF98
:101CE000089581E008950C94710E08950C94750E7A
:101CF0000C94750E0C94780E0C94750E0C947C0E4E
:101D00000C94750E0E946A0E8CE391E10E940D1CEA
:101D10000E94800E0C947E0E0E94760E0C94750E1E
:101D20000E94931B0E94D4150E943A120C947A0EC2
:101D30006F927F928F929F92AF92BF92CF92DF92DB
:101D4000EF92FF920F931F93CF93DF93CDB7DEB740
:101D50002A970FB6F894DEBF0FBECDBF0E945C126B
:101D600081110E94570E33EF832E31E0932E00E055
:101D700010E0C02E802F0E9470115C01F401619070
:101D800071904F016826792661147104B1F40F5FD8
:101D90001F4F0430110569F78FEF89838A831B82F7
:101DA0000E949C1B8160782F9D838C8349815A817E
:101DB0006B818D810E9478043AC08091030281FD7D
:101DC0000E947911D12CEE24E394F12CC3018E21D1
:101DD0009F21892B29F10E94730E8823A9F0DE82AE
:101DE000CF82AE20BF2081E0AB2809F480E0888755
:101DF0000E949C1B8160782F9A8789874E815F8122
:101E000068858A850E947804000F111FF801ED5043
:101E1000FE4F80819181E826F926F182E08207C099
:101E2000D394EE0CFF1CFCE0DF12D0CFB0CF0E94A9
:101E30005F140E94751A9091F2018917D1F00E94E7
:101E4000751A8093F2012A960FB6F894DEBF0FBE82
:101E5000CDBFDF91CF911F910F91FF90EF90DF9059
:101E6000CF90BF90AF909F908F907F906F900C9489
:101E70006F042A960FB6F894DEBF0FBECDBFDF9178
:101E8000CF911F910F91FF90EF90DF90CF90BF9077
:101E9000AF909F908F907F906F900895CF93DF9336
:101EA0000E946510EC01811521E5920708F045C0FC
:101EB000811530E5930708F094C0883E910528F518
:101EC000803E910508F0F8C0883A910570F4853A93
:101ED000910508F07CC08130910509F475C008F4C3
:101EE000E8C0049708F0E8C0E4C08F3B910508F013
:101EF000E0C0C85AD0E0CC0FDD1FCA5BDE4F0990AE
:101F0000D881C02DCE019464D8C0811540E29407D9
:101F100058F4811551E0950708F0CEC0803F910537
:101F200008F4C7C09065C9C0C11580E4D80708F49B
:101F3000C0C0DF70CE01906AC0C0811525E5920750
:101F4000A8F4811534E5930708F095C0811543E5A1
:101F5000940708F07BC0811552E5950708F061C031
:101F6000D82FCC27CE01816F906AA7C0C11589E513
:101F7000D807A0F4C11528E5D20708F082C0C11522
:101F800036E5D30708F095C08C2F0E94F9108F71A9
:101F900090E0D82FCC27CE0190628FC0C1154AE5C2
:101FA000D40708F474C0CE0190568115904208F011
:101FB00080C08D2F8F710E94F910DD27D0628F7144
:101FC000AE01582BCA0179C081E090E076C0C55AB5
:101FD000D0E0CC58DE4F8881C82FD0E0CE0190648D
:101FE0006CC074E0969587957A95E1F7282F237059
:101FF0003C2F337081E090E002C0880F991F3A9522
:10200000E2F79C68AC01522B9A019C2F9F70969529
:10201000969550E2959FE0011124C9018C2B9D2BD0
:102020004CC08370992721E030E002C0220F331F9B
:102030008A95E2F79C2F9695969580E2989FE0010D
:102040001124C22BD32BCE019C6837C083709927F3
:1020500021E030E002C0220F331F8A95E2F79C2F67
:102060009695969540E2949FE0011124C22BD32BC4
:10207000CE019A6822C0D82FCC27CE01846F906AF7
:102080001CC0DC2FCC27CE01806F906A16C08C2F2D
:102090008F700E94F91094E0D695C7959A95E1F754
:1020A000CF70D0E0DC2FCC27D0699E01282BC9014E
:1020B00004C080E090E001C0CE01DF91CF9108958F
:1020C0000E948D170E944E0F08958238910569F184
:1020D000B0F48133910509F46DC048F4893291055B
:1020E00009F463C08A32910509F469C00895853303
:1020F000910509F455C089339105B9F00895833EDF
:10210000910569F138F4803E9105B1F0823E910568
:1021100009F10895863E9105A9F1873E9105B9F12F
:10212000843E910509F064C023C020912C0220FD5B
:102130004FC021FD4DC0089580912C0280FD44C008
:1021400080912D0280FF44C080912C0284FD42C00A
:1021500083EE4DC080912C0282FF38C0F5CF809174
:102160002C0282FD33C080912D0280FD31C0ECCF66
:1021700080912D0281FF32C080912C0284FD2AC003
:1021800087EE35C080912C0283FF26C0F5CF809169
:102190002C0283FD21C080912D0281FD1FC0ECCF58
:1021A00080912C0285FD1CC01DC080912C0285FDF4
:1021B00019C016C080912C0286FD16C017C08091F0
:1021C0002C0286FD13C010C089E311C082EE0FC03F
:1021D00080EE0DC080E00BC086EE09C084EE07C023
:1021E00089E205C085E303C08AE201C081E390E093
:1021F000089590912C0292FF0DC0282F287128304D
:1022000019F4877F846006C0282F2471243011F4CC
:102210008B7F886093FF0DC0282F2871283119F417
:10222000877E846106C0282F2471243111F48B7EAF
:10223000886120912D0220FF0DC0382F3871383071
:1022400019F4877F816006C0382F3171313011F465
:102250008E7F886021FF0DC0282F2871283119F446
:10226000877E816106C0282F2171213111F48E7E75
:10227000886194FD877E089580E008950C94A30DF5
:102280000E945C128FE39CE90197F1F700C0000007
:102290000E945C1280E00E94701180FF04C00E94C6
:1022A0003E110C94E91B08950C9440110E94A90D55
:1022B000811102C00E94500E0E94B40D809303024F
:1022C0000E94BC0D90932D0280932C020E94541109
:1022D0000E94B80D0E94A8088091AB010C94B90827
:1022E000E82FF0E0EE0FFF1FEA5CFD4F8081918147
:1022F0000895089580EA8A95F1F7089500C0089539
:102300000C947A1108950C9482110C9483110C94FE
:1023100082110C948711F894E82FE295EF70F0E0A9
:1023200031A1282F2F7081E090E001C0880F2A95FD
:10233000EAF7982F9095932391A392A1892B82A3DA
:10234000789408950F931F93CF93DF93C3E8D1E060
:1023500089918F3F11F00E948B1181E0C738D80717
:10236000B9F7C7E7D1E003E811E089918F3F11F099
:102370000E948B110C171D07C1F7DF91CF911F91A0
:102380000F910895AF92BF92CF92DF92EF92FF929A
:102390000F931F93CF93DF938C01C62FD0E0CE0114
:1023A0008D579E4F6C01DC019C919F3F09F457C0F3
:1023B000B62EF894E92FE295EF70F0E081A19F70BE
:1023C00021E030E001C0220F9A95EAF7822B81A329
:1023D00082A12095282322A378940E947E11E7E70A
:1023E000F1E020E030E0E12CF12C41E050E081917F
:1023F0008F3FC1F0A82FA295AF70B0E090966C917E
:1024000070E08F70DB0102C0B595A7958A95E2F761
:10241000A0FD08C0CA01022E02C0880F991F0A94AD
:10242000E2F702C080E090E0E82AF92A2F5F3F4FF0
:102430002C303105E1F6F60180818F3F11F00E94CA
:102440008B1161E0E114F10409F460E08B2D0E942E
:102450008011CC0FDD1FC00FD11FF982E882DF9100
:10246000CF911F910F91FF90EF90DF90CF90BF9091
:10247000AF9008950E94A211AEE2B2E011961C92B4
:102480001E92E6E3F2E01182108213961C921E92D5
:1024900012971382128215961C921E92149715821F
:1024A000148217961C921E9216971782168284E049
:1024B0000E94A7120C942403FF920F931F93CF93B3
:1024C000DF93CDB7DEB728970FB6F894DEBF0FBE07
:1024D000CDBF8E010F5F1F4F88E0F80111928A95E2
:1024E000E9F7F12C6F2DC8010E94C211F394F4E0BA
:1024F000FF12F8CF48E050E0B8018EE292E00E946F
:10250000AC23FF24F394009709F4F12C892B41F0BC
:1025100088E0F801AEE2B2E001900D928A95E1F711
:102520002F2D44E066E372E08EE292E00E94A81252
:102530000E942A038F2D28960FB6F894DEBF0FBE97
:10254000CDBFDF91CF911F910F91FF900895089516
:10255000FF920F931F93CF93DF93F82E092F162F1F
:10256000D72FC42F222349F081E0809306020E94D6
:102570009C1B90930502809304028091060288239D
:10258000D9F080910402909105020E94B41B059736
:1025900098F0EF2DF02FA12FBD2F80E090E04C2F71
:1025A00050E08417950734F4219131912D933D9398
:1025B0000196F7CF10920602DF91CF911F910F91F4
:1025C000FF9008950E94131B0E94A11D0E94BA1D36
:1025D0000E94CC1D0E948C0EFBCF80910D0280FFCB
:1025E0000BC06091070185E0689FB00111247595CB
:1025F0006795759567952BC081FF09C060910701AC
:1026000085E0689FB00111247595679520C082FF11
:1026100007C06091070185E0689FB001112417C0D1
:1026200090910C029923D1F060910601961788F7DA
:102630002091070185E0289F90011124929FA0011D
:10264000939F500D112470E0CA010E9477236038D7
:10265000710540F46115710519F406C065E070E07C
:10266000862F08958FE7089581E0089580910D02E7
:1026700080FF08C06091030170E0759567957595BE
:10268000679521C081FF06C06091030170E07595D8
:10269000679519C082FF04C06091030170E010C00B
:1026A00090910B02992399F0609102019617A0F77F
:1026B00080910301899FC001112470E00E9477235B
:1026C0006038710540F46115710519F406C061E0C8
:1026D00070E0862F08958FE7089581E00895803F88
:1026E00021F40E94ED12819504C0813F29F40E94DB
:1026F000ED12809311020895823F21F40E94ED12A1
:10270000819504C0833F29F40E94ED12809310024A
:102710000895893F19F40E94361305C08A3F31F4A9
:102720000E94361381958093120208958B3F21F405
:102730000E943613819504C08C3F29F40E94361301
:102740008093130208959CE0980F953078F421E06F
:1027500030E0A90102C0440F551F9A95E2F7CA0163
:1027600090910F02892B80930F0208958D3F21F4E1
:1027700080910D0281600BC08E3F21F480910D028B
:10278000826005C08F3F29F480910D0284608093A0
:102790000D020895803F39F49091110297FF35C0E2
:1027A0001092110259C0813F29F49091110219161B
:1027B000BCF32BC090911002823F29F497FF25C0F3
:1027C0001092100249C0833F19F41916CCF31DC0B2
:1027D00090911202893F29F41916BCF4109212024A
:1027E0003BC08A3F19F497FF10C0F8CF8B3F39F4F4
:1027F0009091130297FF09C0109213022DC08C3FD5
:1028000021F4909113021916BCF39CE0980F9530B7
:1028100080F421E030E0A90102C0440F551F9A95D1
:10282000E2F7CA01809590910F02892380930F02ED
:1028300013C08D3F21F480910D028E7F0BC08E3F1F
:1028400021F480910D028D7F05C08F3F29F4809186
:102850000D028B7F80930D0280911002811106C0C2
:1028600080911102811102C010920C02809112021B
:10287000811106C080911302811102C010920B02D7
:1028800008950E949C1B20911002211104C02091E8
:102890001102222321F090930A02809309022091D1
:1028A0001202211104C020911302222321F09093DF
:1028B0000802809307028EE092E00C948C1AEF924B
:1028C000FF920F931F93CF93DF9300D000D000D0DF
:1028D000CDB7DEB786E0EEE0F2E0DE0111960190C2
:1028E0000D928A95E1F7E0901002F09011020091AC
:1028F0001202109113021092100210921102109203
:10290000120210921302E11003C0FF2009F45DC00F
:102910008091090290910A020E94B41BAC0190912F
:102920000C02992339F02091080130E02417350773
:1029300058F04BC0209109018AE0289F9001112492
:102940002417350718F041C09F3F19F09F5F9093FF
:102950000C02EE2061F00E94ED121E1414F09FEFA5
:1029600001C091E0989F902D112490931002FF20B8
:1029700061F00E94ED121F1414F09FEF01C091E06E
:10298000989F902D112490931102309110023323BF
:10299000E1F0209111022223C1F045EB3403C00184
:1029A0001124992319F09093100203C081E08093C1
:1029B000100235EB2303C0011124992319F09093E1
:1029C000110203C081E080931102011103C01123A1
:1029D00009F45DC080910702909108020E94B41B27
:1029E000AC0190910B02992339F02091040130E061
:1029F0002417350758F04BC0209105018AE0289F25
:102A0000900111242417350718F041C09F3F19F099
:102A10009F5F90930B02002361F00E943613101603
:102A200014F09FEF01C091E0989F902D1124909396
:102A30001202112361F00E943613111614F09FEF59
:102A400001C091E0989F902D112490931302309132
:102A500012023323E1F0209113022223C1F045EB4F
:102A60003403C0011124992319F09093120203C07A
:102A700081E08093120235EB2303C00111249923D6
:102A800019F09093130203C081E0809313028091A8
:102A9000100281110BC080911102811107C0809139
:102AA0001202811103C08091130281110E9441140E
:102AB000EB82FC820D831E8386E0FE013196AEE040
:102AC000B2E001900D928A95E1F726960FB6F89440
:102AD000DEBF0FBECDBFDF91CF911F910F91FF9051
:102AE000EF900895EEE0F2E086E0DF011D928A9516
:102AF000E9F710920C0210920B0210920D02089549
:102B000083E290E00E94B923813281F484E290E074
:102B10000E94B923803151F485E290E00E94B923EC
:102B200091E0873009F090E0892F01C080E081704A
:102B30000895CF93C82F811102C06FEF01C061E2E9
:102B400083E290E00E94C723C11102C06FEF01C071
:102B500060E184E290E00E94C723C11102C06FEFE0
:102B600001C067E085E290E0CF910C94C7230895FF
:102B700086E290E00E94B923682F70E080E090E048
:102B8000089586E290E00C94C72380E00E94991596
:102B900060E070E0CB010E94C1150E9408170E94FE
:102BA000E71781E00C9499150E94B7150E948015D3
:102BB000811102C00C94C5150895CF93FB01C28109
:102BC000CC23E9F09C0122513F452031310520F40E
:102BD00082510E94F7170CC08031FFE59F0751F426
:102BE00081E00E94CC0843E062E081E00E941B0388
:102BF000C0E018C081319F45A9F482E0F2CF803156
:102C0000EFE59E0711F481E004C081319F4549F44E
:102C100082E00E94D70843E062E081E00E941B034B
:102C200001C0C1E08C2FCF9108952FEFFC012083CC
:102C30000895EF92FF920F931F93CF93DF93EC01D0
:102C4000062FE8818E2F90E0FC013197E331F105EA
:102C500008F091C0E059FF4F0C948B23198289E052
:102C60004DC08981823039F0833061F0813029F59F
:102C70000E94A81B02C00E94B8159A838B837C8394
:102C80006D837BC07E0110E0812F0E947011F701DF
:102C9000928383831F5FF2E0EF0EF11C1430A1F7E3
:102CA0006CC08981823049F46A817B818C819D81ED
:102CB0000E9491230E94C11560C0602FCE010E9426
:102CC00015165BC04B816A8189810E94DA169C834C
:102CD0008D8353C02C813D813227232732274B819E
:102CE0006A8189810E94F31648C00E94081745C076
:102CF0000E949A1724C00E949C1799838A833DC022
:102D00006B8170E089819A81AE014C5F5F4F98279B
:102D1000892798270E949F1730C06B8170E08981B6
:102D20009A81AE014C5F5F4F9827892798270E94B0
:102D3000C41723C00E94E71720C00E94C7168983CA
:102D40001CC06B8170E089819A81AE014C5F5F4F3E
:102D50009827892798270E9447170FC06B8170E03A
:102D600089819A81AE014C5F5F4F98278927982708
:102D70000E946B1702C08FEF8883602FCE01DF9116
:102D8000CF911F910F91FF90EF900C94921C84E0D3
:102D9000089550E0440F551F28E1629F400D511DDA
:102DA00011249A0160E6869F200D311D1124C9016E
:102DB000879608950F931F93CF93DF930E94C916B0
:102DC0008C010E94B923C82FD0E0DC2FCC27C8018A
:102DD00001960E94B9239E01282BC901DF91CF9152
:102DE0001F910F9108950F931F93CF93DF93122F8D
:102DF000032F0E94C916EC01602F0E94C723612F88
:102E0000CE010196DF91CF911F910F910C94C723B2
:102E1000AF92BF92CF92DF92EF92FF920F931F93E8
:102E2000CF93DF93A12CE12CF12CB12C00E010E02A
:102E3000C0E0D0E06701C00ED11EFE01EE0FFF1F03
:102E4000EC0DFD1DE65EFE4F259134914C2F6B2D50
:102E50008A2D0E94F3162196CC30D10571F7085EB9
:102E60001F4FB39484E0B812E3CF80E6E80EF11C64
:102E7000A39484E0A812D9CFDF91CF911F910F9135
:102E8000FF90EF90DF90CF90BF90AF900895EF92BA
:102E9000FF920F931F93CF93DF93EA017A01E60E1F
:102EA000F71E8C01C8018796CE15DF0569F0003842
:102EB00021E0120720F40E94B923888301C0188200
:102EC00021960F5F1F4FEECFDF91CF911F910F9192
:102ED000FF90EF900895EF92FF920F931F93CF937F
:102EE000DF93EA017A01E60EF71E8C01C80187968E
:102EF000CE15DF0559F0003821E0120718F468817B
:102F00000E94C72321960F5F1F4FF0CFDF91CF9113
:102F10001F910F91FF90EF900895462F843038F461
:102F2000743028F46C3018F4672F0C94DA1680E0B3
:102F300090E0089580E1089589E592E00895EF9288
:102F4000FF920F931F93CF93DF93EA017A01E60E6E
:102F5000F71E8C01C80189559E4FCE15DF0569F01B
:102F6000093522E0120720F40E94B923888301C0AA
:102F7000188221960F5F1F4FEDCFDF91CF911F91E8
:102F80000F91FF90EF900895EF92FF920F931F9390
:102F9000CF93DF93EA017A01E60EF71E8C01C80198
:102FA00089559E4FCE15DF0559F0093522E01207ED
:102FB00018F468810E94C72321960F5F1F4FEFCF3F
:102FC000DF91CF911F910F91FF90EF900895CF93D4
:102FD000DF93C7EAD1E060E0CE010E94C7232196CB
:102FE000C11584E0D807B9F7DF91CF910895DF923A
:102FF000EF92FF920F931F93CF93DF9300D000D0F7
:10300000CDB7DEB7F82E8FE08F15E8F18FEF93E0A4
:103010000E94B923811137C007EA11E0FF2069F04F
:10302000011584E0180779F1C8010E94B9238111C4
:1030300001C0FA940F5F1F4FF1CF19821A821B82D1
:103040001C82DD24D39478018FEFE81AF80AC801B6
:103050000E94B92389831A828823A9F09FEF980FD1
:10306000933058F48A83D9820E5F1F4FC7010E94A4
:10307000B9238B83882339F07801CE0101960E9411
:1030800064048701E0CF0F900F900F900F90DF91B5
:10309000CF911F910F91FF90EF90DF9008950F93C4
:1030A0001F93CF93DF93C42FD22FFC0182818823FB
:1030B000C9F0409316020E949C1B909315028093C6
:1030C000140280E28C0F883008F057C0C77081E08E
:1030D00001C0880FCA95EAF7DF91CF911F910F9138
:1030E0000C94FA0580911602481330C080911402A6
:1030F000909115020E94B41B883C910538F510E2AE
:103100001D0FCD17B9F080E28C0F883040F4C770E6
:1031100081E001C0880FCA95EAF70E9401061830C5
:1031200028F581E09D2F977001C0880F9A95EAF7E6
:103130000E94FA05802F0E94F1051830F0F4D77034
:1031400081E001C0880FDA95EAF70AC080E28C0FAF
:10315000883098F4C77081E001C0880FCA95EAF7FB
:10316000DF91CF911F910F910C940106802FDF9179
:10317000CF911F910F910C94F105DF91CF911F9189
:103180000F9108950F939C01CB01233F4CE5340729
:1031900031F188F4283DFCE53F07D9F0293D4CE5A5
:1031A000340779F1273D3C45A9F506E221EE41EED1
:1031B00067ED7CE52BC0253FFCE53F07E1F0A8F07B
:1031C000263F3C4539F507E225EE46EE66EF7CE505
:1031D0001DC007E225EE45EE68ED7CE517C006E26E
:1031E00021EE40EE63EF7CE511C007E225EE44EEF0
:1031F00064EF7CE50BC006E221EE42EE65EF7CE574
:1032000005C008E221E045EE69ED7CE50E944F181B
:1032100080E008C0FC018281882319F01092160218
:1032200001C081E00F910895CF93DF93EC01FB0182
:103230008281882309F41FC1C230FCE5DF0708F44E
:103240001BC1C6319CE5D90738F09E012A5F3C4579
:103250002930310508F010C10E94BC0D90932D0259
:1032600080932C02C031ECE5DE0709F4C3C008F0FE
:1032700041C0C8308CE5D80709F49AC0F0F4C430D6
:10328000ECE5DE0709F487C068F4C2308CE5D807A6
:1032900009F477C0C330DC4509F0E3C080912C020B
:1032A000826076C0C630ECE5DE0709F46EC008F037
:1032B0007BC080912C0288606BC0CC308CE5D80735
:1032C00009F485C068F4CA30ECE5DE0709F474C07F
:1032D00008F079C00E944D0880912C02806858C087
:1032E000CE308CE5D80709F476C008F07FC0809115
:1032F0002C028BC0CB3FECE5DE0709F44FC018F57C
:10330000C3318CE5D80709F47DC078F4C131ECE510
:10331000DE0709F473C0C231DC4509F0A2C00E9487
:103320004D0880912C028F7733C0C5318CE5D807CA
:1033300009F472C008F486C0CA3FDC4509F091C0A8
:1033400080912D023EC0CF3FFCE5DF0709F45FC04E
:1033500058F4CD3F9CE5D90709F444C008F43FC0B8
:1033600080912D0282602DC0C130FDE5DF0709F498
:1033700075C008F45DC0C230DD4509F072C080E060
:103380006EC080912C02816003C080912C0280610C
:1033900080932C0266C080912C0211C080912D0276
:1033A000826080932D025DC080912C028062F0CFFC
:1033B00080912C028064ECCF80912C028860846024
:1033C000E7CF8160EECF80912C028E7FE1CF80919C
:1033D0002C028D7FDDCF80912C02877FD9CF809109
:1033E0002D0218C080912D028D7FDBCF80912C02A1
:1033F0008F7ECECF80912C028F7DCACF80912C0200
:103400008F7BC6CF80912C02877F8B7FC1CF80912D
:103410002D028D7F8E7FC5CF80912C0282FB2227CB
:1034200020F991E0922790FB82F990FB83F9B0CFCD
:1034300080912D02982F909591708E7F892B90FB13
:1034400081F9AFCF0E944D0880912C0287FB222783
:1034500020F991E0922790FB87F99ACF81E00E94B2
:10346000520E80912C0290912D020E94CD0D0E944F
:103470004D0880E001C081E0DF91CF910895CF93A6
:10348000DF9386319C4541F5EB010E94F10C982FAA
:103490008A812091000130910101882379F09A7A84
:1034A00081E009F480E080931702911102C069E283
:1034B00001C065E3C9010E94081B0AC08091170280
:1034C000811102C069E201C065E3C9010E940A1BC3
:1034D0000E94360D80E001C081E0DF91CF91089518
:1034E00090931D0280931C020895E0911C02F091BC
:1034F0001D02309721F00190F081E02D099480E0C9
:103500000895E0911C02F0911D02309721F0028095
:10351000F381E02D09940895E0911C02F0911D02C1
:10352000309739F022E0DC012C930480F581E02D06
:103530000994089520911A0230911B022817390727
:1035400071F090931B0280931A02E0911C02F0919B
:103550001D02309721F00680F781E02D099408952F
:1035600020911802309119022817390771F09093B1
:10357000190280931802E0911C02F0911D0230970D
:1035800021F00084F185E02D09940895FC01329624
:1035900097E080E0915029F021912223D9F38F5FA9
:1035A000F9CF0895662349F0FC01329608962191DF
:1035B000621729F0E817F907D1F780E0089581E054
:1035C00008959C01FC0132969FEF80E041914617DF
:1035D00089F09F3F19F4411101C0982F8F5F863009
:1035E000A9F79F3F39F0F901E90FF11D97FDFA9511
:1035F0006283089508959C012A5F3F4FFC01428138
:10360000461301C01282019682179307B9F70895F5
:103610000C94E11A0C94FB1A029626E0FC0111921C
:103620002A95E9F70895089508950C94141B0C94B5
:10363000141BCF930E94171B0E945C120E94151B43
:10364000C0E08C2F0E947011892B29F4CF5FC43009
:10365000C1F780E001C081E0CF9108950C94141B64
:103660000C942E1B80914602843049F10E94301B3D
:1036700080E00E946F0410921E0220E488E190E036
:103680000FB6F894A895809360000FBE2093600059
:1036900083B7817F846083BF83B7816083BF789461
:1036A000889583B78E7F83BF0FB6F894A8958091D5
:1036B0006000886180936000109260000FBE0895E2
:1036C0000C94141B0E944D080E94751A0E946F04EE
:1036D0000C94601B1F920F920FB60F9211248F93C0
:1036E0009F93AF93BF9380911E02811113C080916D
:1036F0003E0290913F02A0914002B091410241965A
:10370000A11DB11D80933E0290933F02A093400201
:10371000B0934102BF91AF919F918F910F900FBED7
:103720000F901F90189582E084BD93E095BD9AEFAD
:1037300097BD80936E0008952FB7F89480913E0254
:1037400090913F02A0914002B09141022FBF089595
:103750002FB7F89460913E0270913F028091400231
:10376000909141022FBF08959C014FB7F89480912A
:103770003E0290913F02A0914002B09141024FBFA2
:10378000821B930B089578941F920F920FB60F929D
:1037900011248F939F93AF93BF9380913E0290919A
:1037A0003F02A0914002B09141020196A11DB11DBE
:1037B00080933E0290933F02A0934002B093410257
:1037C000BF91AF919F918F910F900FBE0F901F905F
:1037D000189581E08093E00080E28093D8001092F9
:1037E000C9008FE19EE40197F1F700C0000087E077
:1037F00090EBDC0180934F0290935002A093510212
:10380000B09352029CE088E10FB6F894A89580939B
:1038100060000FBE90936000FFCF9093970180935C
:103820009601089580912A0208959091460294305D
:1038300029F580931F0270932102609320029093D8
:10384000E9008FEF9091E800815095FD06C095ED5D
:103850009A95F1F700008111F5CF8091E80085FF7E
:103860000DC040E050E063E070E08FE192E00E9424
:103870008E1E8091E8008E778093E8000895BC0149
:1038800084E00C94151CBC0183E00C94151C24E00E
:103890002093E9002FEF3091E800215035FD06C05C
:1038A00035ED3A95F1F700002111F5CF2091E800B0
:1038B00025FF0BC040E050E066E070E00E948E1EE5
:1038C0008091E8008E778093E8000895CF93DF938E
:1038D00021E02093E9002FEF3091E800215035FDE1
:1038E00006C035ED3A95F1F700002111F5CF209192
:1038F000E80025FF14C0EC0140E050E068E070E013
:103900000E948E1E8091E8008E778093E80088E008
:10391000FE01A2E2B2E001900D928A95E1F7DF91FB
:10392000CF910895CF93603219F52091460224304B
:10393000F9F4C091E900CF703091EC00232F217091
:1039400030FD20E8C22B22E02093E9002091E8001E
:1039500020FF0BC040E050E060E270E00E948E1E4D
:103960008091E8008E778093E800CF70C093E900E3
:10397000CF91089580914502811109C00E946A206B
:103980000E94C7208091E20084608093E200089545
:1039900010924502089508950895089542E061EC5B
:1039A00081E00E94E31F42E261EC84E00E94E31F99
:1039B00042E261EC82E00E94E31F42E260EC83E0BD
:1039C0000C94E31F80914802833009F462C030F404
:1039D000813071F0823009F49BC008958A3009F477
:1039E00087C08B3009F46DC0893009F0A9C020C0B0
:1039F00080914702813A09F0A3C08091E800877F57
:103A00008093E80080914B0290914C02892B21F425
:103A100068E082E292E003C060E080E090E070E065
:103A20000E94241F8091E8008B778093E80008951E
:103A300080914702813209F083C080914B029091BE
:103A40004C02009719F0029709F07AC08091E800C3
:103A5000877F8093E8008091E80082FD05C0809117
:103A600046028111F8CF6CC02091F3008091F200E2
:103A700090E0922B029729F48091F1008B7F8130A6
:103A800021F48091F10080932A028091E8008B77E5
:103A900053C080914702813A09F052C080914B0295
:103AA00090914C02892B09F04BC08091E800877FF0
:103AB0008093E8008091E80080FFFCCF80911401A2
:103AC00036C0809147028132D9F580914B029091A6
:103AD0004C02892BA9F58091E800877F8093E8004C
:103AE0000E94182080914902809314010C944D0883
:103AF00080914702813221F58091E800877F809391
:103B0000E8000E94182080914A0280932B020895B9
:103B100080914702813AA1F48091E800877F8093E9
:103B2000E8008091E80080FFFCCF80912B02809319
:103B3000F1008091E8008E778093E8000C941820C3
:103B4000089584B7877F84BF0FB6F894A8958091B5
:103B50006000886180936000109260000FBE90E06A
:103B600080E80FB6F89480936100909361000FBED7
:103B70000C94820E0E946A200E94C720E2EEF0E0C0
:103B800080818460808378940E945C230E94900EE0
:103B90008AE091E00C94701ACF93DF93CDB7DEB733
:103BA000A0970FB6F894DEBF0FBECDBF809146023E
:103BB0008530A9F480914602853079F40E94321B49
:103BC000809144028823B1F30E94191B882391F34A
:103BD0000E94781E0E944D08EDCF0E94621B0E9439
:103BE000980E80914602843011F583E08093E900BD
:103BF0008091E80082FF1BC08091E80085FF0AC029
:103C000040E050E060E270E0CE0101960E94D91ED3
:103C100091E001C090E08091E8008B778093E8000C
:103C2000992329F060E2CE0101960E941916A09610
:103C30000FB6F894DEBF0FBECDBFDF91CF910895D0
:103C40000C94221E292F332723303105C9F060F44C
:103C50002130310581F02230310509F041C08BE57A
:103C600090E02AE733E040C021323105E1F0223212
:103C7000310531F135C082E190E025ED33E034C00B
:103C800099278130910549F028F0029749F5EAE437
:103C9000F3E005C0E6E7F3E002C0E0E6F3E084917C
:103CA00090E09F0121C063307105D0F4660F771F4B
:103CB000FB01E057FE4F2081318189E090E014C084
:103CC0006330710568F4FB01EE0FFF1FE657FE4FEE
:103CD00020813181FB01E957FE4F808190E004C0D3
:103CE00080E090E020E030E0FA0131832083089505
:103CF00080E189BD82E189BD09B400FEFDCF8091DC
:103D0000D8008F7D8093D8008091E00082608093FE
:103D1000E0008091E00081FDFCCF0895CF92DF921A
:103D2000EF92FF920F931F93CF93DF93EC018B01E0
:103D30007A010E943720811133C0E114F10439F077
:103D4000F70180819181081B190BC80FD91FC12C65
:103D5000D12C0115110519F18091E80085FD16C0DF
:103D60008091E8008E778093E800E114F10449F037
:103D7000F70180819181C80ED91ED182C08285E071
:103D80000FC00E943720882321F30AC089918093B5
:103D9000F10001501109FFEFCF1ADF0ADACF80E0FE
:103DA000DF91CF911F910F91FF90EF90DF90CF9017
:103DB0000895CF92DF92EF92FF920F931F93CF93CC
:103DC000DF93EC018B017A010E943720811133C00F
:103DD000E114F10439F0F70180819181081B190B7E
:103DE000C80FD91FC12CD12C0115110519F18091D3
:103DF000E80085FD16C08091E8008B778093E8008D
:103E0000E114F10449F0F70180819181C80ED91EB7
:103E1000D182C08285E00FC00E943720882321F321
:103E20000AC08091F100899301501109FFEFCF1A68
:103E3000DF0ADACF80E0DF91CF911F910F91FF90E1
:103E4000EF90DF90CF90089520914D0230914E0277
:103E50002617370748F06115710539F42091E800FD
:103E60002E772093E80001C0B901FC0120E0611524
:103E7000710579F1809146028823F1F18530F1F1E5
:103E80008091E80083FD3CC08091E80082FD2EC057
:103E90008091E80080FFEBCF2091F3008091F20049
:103EA00090E0922B6115710551F08830910538F43E
:103EB00021912093F100615071090196F3CF21E027
:103EC000089709F020E08091E8008E778093E80061
:103ED000CECF2111CFCF0AC080914602882361F056
:103EE000853061F08091E80083FD0AC08091E80090
:103EF00082FFF2CF80E0089582E0089583E0089584
:103F000081E0089520914D0230914E022617370727
:103F100048F06115710539F42091E8002E7720935F
:103F2000E80001C0B901FC0120E06115710591F1C3
:103F300080914602882309F440C0853009F43FC0CF
:103F40008091E80083FD3DC08091E80082FD2FC094
:103F50008091E80080FFE9CF2091F3008091F2008A
:103F600090E0922B6115710559F08830910540F46D
:103F700024912093F1003196615071090196F2CF9E
:103F800021E0089709F020E08091E8008E77809387
:103F9000E800CBCF2111CCCF0AC080914602882304
:103FA00061F0853061F08091E80083FD0AC0809166
:103FB000E80082FFF2CF80E0089582E0089583E078
:103FC000089581E00895982F973068F59093E9005F
:103FD000981739F07091EC002091ED005091F000AD
:103FE00003C0242F762F50E021FD02C09F5FECCF4D
:103FF0003091EB003E7F3093EB003091ED003D7F40
:104000003093ED003091EB0031603093EB00709312
:10401000EC002093ED005093F0002091EE0027FD7E
:10402000E5CF80E008958F708093E90081E00895E6
:104030008091470287FF11C08091E80082FD05C092
:10404000809146028111F8CF11C08091E8008B77F2
:104050000BC080914602882349F08091E80080FFE0
:10406000F8CF8091E8008E778093E8000895209142
:10407000E4003091E50095E64091EC00842F8170DA
:1040800040FF23C08091E80080FD1DC08091460262
:10409000882399F0853099F08091EB0085FD11C05F
:1040A0004091E4005091E5002417350729F3915021
:1040B00011F09A01E1CF84E0089582E0089583E051
:1040C000089581E0089580E008954091E80042FF5E
:1040D000DDCF08950E94D8200E94E020E0EEF0E0BD
:1040E000808181608083E8EDF0E080818F7780833C
:1040F00019BCA7EDB0E08C918E7F8C9380818F7E70
:1041000080831092450208950F931F93CF93DF93FE
:104110000E94D8200E94E020C8EDD0E088818F77EF
:10412000888388818068888388818F7D888319BC93
:1041300010924602109242021092440210924302E0
:1041400000EE10E0F80180818B7F808388818160A0
:10415000888342E060E080E00E94E31FE1EEF0E04F
:1041600080818E7F8083E2EEF0E0808181608083B9
:10417000808188608083F80180818E7F8083888140
:1041800080618883DF91CF911F910F910895E8EDB1
:10419000F0E080818F7E8083E7EDF0E080818160B8
:1041A000808384E082BF81E0809345020C94842068
:1041B000E8EDF0E080818E7F80831092E200089528
:1041C0001092DA001092E10008951F920F920FB63C
:1041D0000F9211242F933F934F935F936F937F938D
:1041E0008F939F93AF93BF93EF93FF938091E100E1
:1041F00082FF0BC08091E20082FF07C08091E10046
:104200008B7F8093E1000E945B238091DA0080FF26
:104210001FC08091D80080FF1BC08091DA008E7F84
:104220008093DA008091D90080FF0DC080E189BDC4
:1042300082E189BD09B400FEFDCF81E08093460292
:104240000E94BA1C05C019BC109246020E94C81CEC
:104250008091E10080FF19C08091E20080FF15C0CD
:104260008091E2008E7F8093E2008091E200806185
:104270008093E2008091D80080628093D80019BCBE
:1042800085E0809346020E94CC1C8091E10084FF6F
:1042900030C08091E20084FF2CC080E189BD82E1C2
:1042A00089BD09B400FEFDCF8091D8008F7D809339
:1042B000D8008091E1008F7E8093E1008091E20040
:1042C0008F7E8093E2008091E20081608093E20023
:1042D00080914202882311F084E007C08091E300BE
:1042E00087FD02C081E001C083E0809346020E9406
:1042F000CD1C8091E10083FF29C08091E20083FF03
:1043000025C08091E100877F8093E10082E0809367
:104310004602109242028091E1008E7F8093E1007C
:104320008091E2008E7F8093E2008091E2008061C4
:104330008093E20042E060E080E00E94E31F809111
:10434000F00088608093F0000E94CB1CFF91EF91F9
:10435000BF91AF919F918F917F916F915F914F919D
:104360003F912F910F900FBE0F901F9018951F92A5
:104370000F920FB60F9211242F933F934F935F9399
:104380006F937F938F939F93AF93BF93CF93DF935D
:10439000EF93FF93C091E900CF708091EC00D82F8C
:1043A000D17080FDD0E81092E9008091F000877F05
:1043B0008093F00078940E94FB211092E900809194
:1043C000F00088608093F000CD2BCF70C093E9009F
:1043D000FF91EF91DF91CF91BF91AF919F918F911D
:1043E0007F916F915F914F913F912F910F900FBEF1
:1043F0000F901F9018951F93CF93DF93CDB7DEB723
:10440000AA970FB6F894DEBF0FBECDBFE7E4F2E087
:104410008091F100819322E0EF34F207C9F70E9406
:10442000E21C8091E80083FF2EC1809147029091A9
:104430004802492F50E04A30510508F024C1FA01E2
:10444000ED57FF4F0C948B23803821F0823809F010
:104450001AC108C08091430290914402992389F0C7
:1044600082600FC080914B028F70873008F00BC1C3
:104470008093E9008091EB0085FB882780F91092FA
:10448000E9009091E800977F9093E8008093F10015
:104490001092F100D1C0282F2D7F09F0F4C088239D
:1044A00019F0823061F0EFC080914902813009F04B
:1044B000EAC0933009F080E0809344022EC08091DE
:1044C000490281112AC080914B028F702FEF280F73
:1044D000263008F0D8C08093E9002091EB0020FF3F
:1044E0001CC0933021F48091EB00806214C0909145
:1044F000EB0090619093EB0021E030E0A90102C055
:10450000440F551F8A95E2F74093EA001092EA00A3
:104510008091EB0088608093EB001092E90080911D
:10452000E800877F8093E8000E941820ACC08111CA
:10453000AAC0109149021F778091E3008078812BF7
:104540008093E3008091E800877F8093E8000E94D9
:1045500018208091E80080FFFCCF8091E300806804
:104560008093E300111102C082E001C083E08093D8
:10457000460289C08058823008F085C08091490287
:1045800090914A028C3D53E0950779F583E08A8348
:104590008AE289834FB7F894DE01139620E03EE06B
:1045A00051E2E32FF0E050935700E49120FF03C065
:1045B000E295EF703F5FEF708E2F90E0EA3010F0E1
:1045C000C79601C0C0968D939D932F5F243149F704
:1045D0004FBF8091E800877F8093E8006AE270E037
:1045E000CE0101960E94241F16C060914B0270916B
:1045F0004C02AE014F5F5F4F0E94201EBC01892B11
:1046000009F441C09091E800977F9093E800898178
:104610009A810E94821F8091E8008B778093E80046
:1046200032C0803881F58091E800877F8093E80070
:10463000809142028093F1008091E8008E7772CFE2
:10464000811121C08091490290914A0299270297D5
:10465000D4F48091E800877F8093E800809149023C
:10466000809342020E94182080914202811106C06C
:104670008091E30087FD02C081E001C084E0809367
:1046800046020E94CE1C8091E80083FF0AC0809100
:10469000E800877F8093E8008091EB008062809340
:1046A000EB00AA960FB6F894DEBF0FBECDBFDF9128
:1046B000CF911F9108950895CF938091460288234A
:1046C000A1F0C091E900CF709091EC00892F81702A
:1046D00090FD80E8C82B1092E9008091E80083FDEE
:1046E0000E94FB21CF70C093E900CF91089597FB02
:1046F000072E16F4009407D077FD09D00E94982366
:1047000007FC05D03EF4909581959F4F08957095D4
:1047100061957F4F0895EE0FFF1F0590F491E02DF6
:104720000994692796276927782787277827089586
:10473000AA1BBB1B51E107C0AA1FBB1FA617B707C7
:1047400010F0A61BB70B881F991F5A95A9F78095E3
:104750009095BC01CD010895FB01DC0104C08D9151
:104760000190801921F441505040C8F7881B990BE3
:104770000895F999FECF92BD81BDF89A992780B529
:104780000895A8E1B0E042E050E00C94ED23262F1C
:10479000F999FECF92BD81BDF89A019700B4021637
:1047A00039F01FBA20BD0FB6F894FA9AF99A0FBEE5
:1047B00008950396272F0E94C8230E94C723252F00
:1047C0000E94C823242F0C94C8230196272F0E94EF
:1047D000C8230C94C723DC01CB01FC01F999FECF5F
:1047E00006C0F2BDE1BDF89A319600B40D92415079
:0A47F0005040B8F70895F894FFCF89
:1047FA00E7012808641E140A321E121C661C471C94
:10480A00431C3F1C01E200E900EA00B500B600B70C
:10481A0000CD008301CC008A019201940121022378
:10482A000224022502260227022A02B300B4006FDC
:10483A00007000818283E200E900EA00B500B60058
:10484A00B700CD008301CC008A01920194012102B4
:10485A00230224022502260227022A02B300B400F8
:10486A006F007000818283F0F1F4F5F6F766363551
:10487A003497963031326740227B8404E703090477
:06488A008C03A503C50329
:00000001FF
