:100000000C94B4010C94EC010C94EC010C94EC01F4
:100010000C94EC010C94EC010C94EC010C94EC01AC
:100020000C94EC010C94EC010C94131C0C94E71C44
:100030000C942F170C94EC010C94EC010C94EC0133
:100040000C94EC010C94EC010C94EC010C94EC017C
:100050000C94EC010C94B6170C94EC010C94EC018C
:100060000C94EC010C94EC010C94EC010C94EC015C
:100070000C94EC010C94EC010C94EC010C94EC014C
:100080000C94EC010C94EC010C94EC010C94EC013C
:100090000C94EC010C94EC010C94EC010C94EC012C
:1000A0000C94EC010C94EC010C94EC012B0014006A
:1000B0001A000800150017001C0018000C001200A0
:1000C00013002A00290004001600070009000A0096
:1000D0000B000D000E000F0033003400E1001D0086
:1000E0001B00060019000500110010003600370043
:1000F0003800E5000000E000E300E20021522C009F
:1001000028002252E600E700E400000001001E0083
:100110001F002000210022002300240025002600CB
:1001200027002A000100000000000000000000007D
:100130005000510052004F0000000000010000007C
:1001400000000000000000000000000000000000AF
:100150000000000001000100010001002152010027
:1001600001002352010001000100010001001E02F4
:100170001F0220022102220223022402250226025B
:1001800027022A000100000000000000000000001B
:100190002D002E002F023002310235000100000038
:1001A00000000000000000002D022E022F00300091
:1001B000310035020100010001000100235201005D
:1001C00001002252010001000100010001000000B5
:1001D000000000000000000000000000000000001F
:1001E000000000000100000000000000000000000E
:1001F00000000000000000000000000001000000FE
:1002000000000000000000000000000000000000EE
:100210000000000001000100010001002352010064
:1002200001002352010001000100010014034300FA
:100230006F0072006E0065006C006900750073004D
:1002400000001403590075007300680061006B0022
:100250006F0062006F0000000403090409023B0004
:10026000020100A0FA0904000001030101000921B4
:10027000110100012244000705810308000109045F
:1002800001000103000000092111010001227B008F
:10029000070582032000011201000200000008652A
:1002A00032050001000102000105010902A10185DA
:1002B000020901A100050919012908150025019568
:1002C00008750181020501093009311581257F95E5
:1002D000027508810609381581257F950175088109
:1002E00006050C0A38021581257F950175088106DF
:1002F000C0C005010980A101850319012AB70015B5
:100300000126B700950175108100C0050C0901A1F7
:1003100001850419012AA002150126A00295017584
:10032000108100C005010906A101050719E029E7B0
:100330001500250195087501810295017508810157
:100340000507190029FF150026FF0095067508818D
:10035000000508190129051500250195057501916C
:1003600002950175039101C011241FBECFEFDAE0A1
:10037000DEBFCDBF04B603FE18C080916E0290911F
:100380006F02A0917002B09171028730904BA7402C
:10039000B04B59F410926E0210926F0210927002DC
:1003A00010927102E0E0F8E3099511E0A0E0B1E0FD
:1003B000E8E3FFE302C005900D92A839B107D9F731
:1003C00022E0A8E9B1E001C01D92AE36B207E1F724
:1003D0000E9483110C945B1F0C9400008430B8F4CD
:1003E0006430A8F44C3098F450E09CE0699F400DD4
:1003F000511D1124FA0190E3899FE00DF11D112494
:10040000EE0FFF1FE455FF4F85919491089581E011
:1004100090E008950E94EE01089581E008950E9401
:100420000D02089581E008950E940D0208950E9432
:100430001402089508950E941A020895A6E0B0E0FB
:10044000E4E2F2E00C94B71E49835A839E83309114
:100450009F0189819A8131111AC03E81332399F01D
:10046000222389F00E942208182F682F89819A81FF
:100470000E94FE0769817A81812F0E94EC0E2696E8
:10048000E3E00C94D31E0E941008182FF3CF0E94B3
:10049000220869817A81F1CFFC01262F40815181A8
:1004A00062817381848195810E941E020895CF9399
:1004B000DF93EC0161E00E944C02BE010E940F023A
:1004C000DF91CF910895CF93DF93EC0160E00E941C
:1004D0004C02BE010E941B02DF91CF91089581E082
:1004E00008950E946F020895CF93C82F0E94D306EB
:1004F0008C2F0E9471022FEF84E39CE021508040FA
:100500009040E1F700C00000CF91089581E00E9483
:1005100074020E94DA17089580E00E9474020E941B
:10052000FE1708950F931F93CF93DF938C0161E023
:100530000E944C02EC01B8010E941702811106C012
:1005400080E0DF91CF911F910F910895B801CE0106
:100550000E9495158823A1F3B801CE010E94BF1116
:10056000882371F3B801CE010E949511882341F3CD
:10057000F8018581882361F0C330FCE7DF07E9F0EB
:1005800058F4C115ECE7DE07A9F0C130DC47B9F03B
:10059000C8010E941202D5CFCB358CE7D807A9F04D
:1005A000CC35ECE7DE0771F0CA35DC4789F70E94ED
:1005B000390CEECF0E948602C3CF0E94410C0E94EC
:1005C0008C02BECF0E942F0CE3CF0E943D0CE0CFE7
:1005D0000E940B170E940F0308950E9413030E94AC
:1005E00010170895089581E008950895CF93DF933B
:1005F000D82F0E94F302C82F882319F08D2F0E9454
:10060000F5028C2FDF91CF9108950895CF93C82FD5
:100610000E94F2028C2F0E94F602CF91089580E092
:100620000E94060308950E94DE150E9406030895A5
:10063000CF930E94DE15C82F80919A018C1779F014
:10064000C0939A010E949B1760939B0170939C0139
:1006500080939D0190939E018C2F0E940603CF9161
:100660000895ADE0B0E0E7E3F3E00C94B81E4887EE
:1006700059876A877B878C879D8791110E946F0BB2
:100680001F8286E0FE013896DE01119601900D92E0
:100690008A95E1F78D8181110DC029813A814B81C5
:1006A0005C816D817E818F810E94B90A2D96E2E086
:1006B0000C94D41ECE0101960E9457028111EDCFF9
:1006C000F5CFFC012481213021F4808191810E94A9
:1006D00054080895662329F00E9420130E940514EF
:1006E00008950E948C13FACFCF93C82F8823C9F0A6
:1006F0008238C9F40E94EB1581FD13C089E30E9482
:10070000A1160E94DE0B2FEF87EE93E02150804070
:100710009040E1F700C0000089E30E94A9160E9402
:10072000DE0BCF9108958338A1F40E94EB1580FD74
:10073000F8CF83E50E94A1160E94DE0B2FEF81EE19
:1007400094E0215080409040E1F700C0000083E534
:10075000E4CF8438A1F40E94EB1582FDE2CF87E458
:100760000E94A1160E94DE0B2FEF81EE94E0215033
:1007700080409040E1F700C0000087E4CECF8CEFCE
:100780008C0F813A70F48C2F0E946616882329F012
:100790008C2F0E94A9160E94DE0B8C2F0E94A1169E
:1007A000BECF80E28C0F883048F4C77081E001C072
:1007B000880FCA95EAF70E94520BB1CFEBE5EC0F18
:1007C000E33040F4F0E0E55BFE4F808190E00E9472
:1007D0000716A7CFE8E5EC0FEB3150F4F0E0EE0F91
:1007E000FF1FEB5EFE4F808191810E942C1699CFF6
:1007F00083E38C0F833108F094CF61E08C2F0E944B
:100800006A038FCF882309F456C0823879F40E9496
:10081000EB1581FF50C089E30E94A1160E94DE0BF8
:1008200089E30E94A9160E94DE0B0895833859F4CB
:100830000E94EB1580FF3FC083E50E94A1160E9435
:10084000DE0B83E5EECF843859F40E94EB1582FF6E
:1008500032C087E40E94A1160E94DE0B87E4E1CF3C
:100860009CEF980F913AE8F290E2980F983050F48C
:10087000877091E001C0990F8A95EAF7892F0E944D
:10088000580BD1CF9BE5980F933028F490E080E08F
:100890000E940716089598E5980F9B3128F490E080
:1008A00080E00E942C16089593E3980F933118F47A
:1008B00060E00E946A0308951F93CF93DF93182F7F
:1008C000EB010E947403209739F4812F0E940204E7
:1008D000DF91CF911F9108958FE99FE00197F1F784
:1008E00000C000002197EFCF70E060E0893311F481
:1008F00060E570E00E945C040895882321F00E9466
:10090000520B0E94DE0B0895882321F00E94580BA1
:100910000E94DE0B0895B0E0A0E0E1E9F4E00C9461
:10092000B11E6C01D62FC72FFC01158106810295DF
:100930000F700E94480BE82E8823F9F0E12E112356
:10094000E1F08C2F807F803461F080E28D0F883061
:1009500008F18C2F807E803221F4D230D8F0002331
:10096000C9F080914C0282FF15C082E00E94030C06
:100970000E94480B91E0E82EE926BC2EB2949FE03D
:10098000B922FBE0FB15B8F1EB2DF0E0E35AF04E95
:100990000C94A21EE12CF1CF0C2F0F70C07F11F030
:1009A0000295007F112399F0002359F080E28D0F0A
:1009B000883010F0D11107C0802F0E94520B0E9486
:1009C000DE0B8D2F5AC0802F0E94620BF8CF8D2F27
:1009D0000E940204002379F080E28D0F883010F02D
:1009E000D11104C0802F0E94580B03C0802F0E9499
:1009F000680B0E94DE0BEB2DE850FF0B349720F4C0
:100A00000E94DE150E940603EE2089F00E94440B2E
:100A100080FD0DC0F60115820E943E0B0E945C070E
:100A2000C6010E949A060E943E0B0E946C07CDB739
:100A3000DEB7E9E00C94CD1E2C2F2F70F22EC07F74
:100A4000C03219F0F29480EFF822DD2341F0D1306A
:100A5000D1F1112309F444C00023F1F0B2CF809109
:100A60004C0282FD15C0112359F0FF2029F08F2D73
:100A70000E94520B0E94DE0B80E00E947403BBCFE9
:100A800080E00E940204FF2009F4B5CF8F2DABCF88
:100A9000112369F0011104C08F2D0E947D04ABCF9A
:100AA000013009F0A8CF8F2D0E94860BA4CF011131
:100AB000A2CF8F2D0E9484048F2D0E94920B8F2D28
:100AC0000E94760B98CF112321F0063008F093CFC7
:100AD000E3CF053008F08FCF8F2D0E9484048BCF99
:100AE0000023D1F3D93349F43FEF87EE93E031503F
:100AF00080409040E1F700C000008D2F0E9402046A
:100B00007ACF8C2F86958695837069F0813009F0B5
:100B100072CF8D2F9C2F9370111102C080E090E056
:100B20000E942C1668CF8D2F9C2F9370111102C03C
:100B300080E090E00E9407165ECF612F8D2F0E940B
:100B40006A0359CF8C2F8370A1F5111154CF4D2F0B
:100B5000429546954770440F440F2D2F2F7030E07B
:100B6000042E02C0220F331F0A94E2F790E080E0C7
:100B7000D4FF09C08FE090E002C0880F991F4A950A
:100B8000E2F780959095C695C695C370822B932BFE
:100B9000C23049F058F4C13019F00E942C072BCF15
:100BA0000E94230728CF0E94350725CF0E942007E7
:100BB00022CF8695112311F08C2F8170882309F4A0
:100BC0001ACF4D2F429546954770440F440F2D2F55
:100BD0002F7030E0042E02C0220F331F0A94E2F778
:100BE00090E080E0D4FF09C08FE090E002C0880F61
:100BF000991F4A95E2F780959095C695C695C37062
:100C0000822B932BC23049F058F4C13019F00E9466
:100C10009707F1CE0E948E07EECE0E94A007EBCE82
:100C20000E944407E8CECF70112329F08C2F0E9438
:100C30005C078D2F32CF8D2F0E9484048C2F0E9451
:100C40006C07D9CED23F41F160F4D03FB9F0D13F2B
:100C500081F0112309F446C00111B3CE8C2F8F719E
:100C60001FC0D33F01F1D43FA1F780914C0282FD18
:100C700024C08C2F8F71112311F312C0112341F066
:100C8000053008F0B8CE8C2F8F710E947E07B3CE4E
:100C9000063008F0B0CEF7CF8C2F8F711111CFCF67
:100CA0000E945C07A8CE112329F08C2F8F710E941F
:100CB0005007A1CE0E944B079ECE112349F0CF7161
:100CC0008C2F0E945C0763E08C2F0E94E50B93CE73
:100CD00081E00E94030C023008F48DCE82E00E9475
:100CE000030C89CE002359F0D93309F006CFEFEF7A
:100CF000F7EE23E0E150F0402040E1F7FCCE8C2FEE
:100D00008F719DCF0F931F93CF93DF93EC01688179
:100D100079818D810E945F088C010E94A9070E9441
:100D20001F07B801CE010E948B04DF91CF911F9164
:100D30000F910895CF93DF93EC018C81882399F074
:100D4000CE010E949202811111C00E94480B88239B
:100D500051F08D81882339F080914C0282FF03C0CD
:100D600082E00E94030CDF91CF910895CE010E9492
:100D70008206CE010E946302F6CF90E080E00E94DE
:100D8000071690E080E00E942C160E946F0B0E94D4
:100D9000DE0B0E9421140E94051408950E94B116D2
:100DA0000E94BD0608950E945F0B0E94CE06089522
:100DB00092959F70963091F058F4925F9F709230A8
:100DC00058F4803F19F030F4883E30F481E0089503
:100DD0009A5FF4CF843FD1F380E00895883EB0F36A
:100DE000813FD1F7F3CFFC012481222339F08081A8
:100DF00091810E9454080E94D806089580E00895C9
:100E0000A6E0B0E0E6E0F7E00C94B81E2696E2E03B
:100E10000C94D41EA7E0B0E0E0E1F7E00C94B81E1B
:100E20002796E2E00C94D41E08950E9414070895BA
:100E30000E9415079093BB018093BA01089508950D
:100E40000E94180708952091BA013091BB01822BAE
:100E5000932B0E94180708952091BA013091BB018D
:100E6000822393230E94180708952091BA0130919C
:100E7000BB01822793270E94180708950E94140738
:100E800008950E943E0708950E9441079093B9017A
:100E90008093B801089590E080E00E94440708958F
:100EA00021E030E0A90102C0440F551F8A95E2F706
:100EB000CA010E944407089521E030E002C0220FD9
:100EC000331F8A95E2F78091B8019091B901822B86
:100ED000932B0E944407089521E030E002C0220FC6
:100EE000331F8A95E2F7209530958091B801909153
:100EF000B901822393230E944407089521E030E042
:100F000002C0220F331F8A95E2F78091B8019091B9
:100F1000B901822793270E94440708952091B801C0
:100F20003091B901822B932B0E94440708952091A0
:100F3000B8013091B901822393230E944407089598
:100F40002091B8013091B901822793270E9444076C
:100F500008950895262F277091E001C0990F2A95D2
:100F6000EAF723E0769567952A95E1F7660F771FF4
:100F7000660F771FFA01E60FF71F50E040E0682F79
:100F800070E08191DF0111979B01042E02C036951C
:100F900027950A94E2F721702195282729232827ED
:100FA0002C934F5F5F4F4430510559F70895A82F98
:100FB000A77023E0969587952A95E1F7880F991FEA
:100FC000880F991FFB01E80FF91F50E040E080E017
:100FD000219130E00A2E02C0369527950A94E2F757
:100FE00021703327042E01C0220F0A94EAF7822BC6
:100FF0004F5F5F4F4430510559F70895262F9430C5
:1010000070F48C3060F4682F70E08CE0989F600D75
:10101000711D112440EA51E0822F0E94AA07089511
:10102000292F943068F48C3058F490E060EA71E035
:101030003CE0239F800D911D11240E94D707089545
:1010400080E00895B0E0A0E0E8E2F8E00C94B11E82
:101050007C010091B8011091B9018091BA01909181
:10106000BB01082B192BCFE0D0E0CC24C394D12CAA
:10107000BC2EC6010C2E02C0880F991F0A94E2F7FD
:1010800080239123892B49F4219790F7B12C8B2D44
:10109000CDB7DEB7E9E00C94CD1EB7018C2F0E94CE
:1010A000F80E019789F3F3CFCF93DF93EC010E9401
:1010B0002208BE010E94F80EDF91CF9108951F9380
:1010C000CF93DF93EB0190919F01992339F0CB01EE
:1010D0000E945408DF91CF911F910895882369F0F1
:1010E000CB010E942208182F682FCE010E94FE0714
:1010F000BE01812F0E94F80EEDCFCB010E94100897
:10110000182FF6CF1F93CF93DF93C091BC0117E048
:101110008091BD018C1304C0DF91CF911F91089580
:10112000D0E01C9FF0011D9FF00D1124E254FE4FF2
:1011300020813181428153816481758186810E9441
:101140000A072196C770E4CF2091F6013091F7018C
:101150004091F8015091F9016091FA017091FB0101
:101160008091FC010E940A070895CF93DF9380913C
:10117000FC01807F09F04DC08091FB01882309F4B8
:1011800048C0E091BC015091BD01C091F701D091E0
:10119000F6016091F8017091F90147E05E17C9F11D
:1011A0008E2F90E0E49FF0011124E254FE4F248141
:1011B000222391F1489FF001499FF00D1124DF0196
:1011C000A254BE4F11962C9111972C1325C02C912F
:1011D0002D1322C015962C91159721111DC0129622
:1011E0002D913C91261B370B283C3105A8F48091AA
:1011F000FC018F7080618093FC01EC53FE4F808175
:101200008F708061808386EF91E00E949A060E9431
:101210008208DF91CF910895FC013196E770BECF2F
:10122000482F2091BC019091BD0157E0291302C0C5
:1012300080E0089530E0529FF001539FF00D11249B
:10124000E254FE4F8181681306C08081481303C0B9
:1012500085818111EECF2F5F3F4F2770E7CFA4E14B
:10126000B0E0E5E3F9E00C94AE1E8C0186E0F801F5
:10127000DE011F9601900D928A95E1F7F8018481B5
:10128000E58096EFA92E91E0B92E9091FA01911187
:101290001FC08823D1F0EE20A9F0C8010E94F306F8
:1012A000F82E882379F087E0F801D50101900D929E
:1012B0008A95E1F7C5010E9461030E94B5080E946A
:1012C000A4085FC0C8010E949A06FF24F39459C085
:1012D000C080D18082809380F090FB012091F80142
:1012E0003091F901A401421B530BFF2009F4F9C00E
:1012F000483C510508F0A7C0882309F442C09091EA
:10130000F7018091FC01282F207F09F05CC09D111E
:1013100016C09091F601C91212C0E1104EC08F7034
:1013200080618093FC010E94A40886EF91E00E94F6
:101330009A068091FC01F8018683F12C22C0E1100D
:101340003CC06D2D8C2D0E9410096D2D8C2D0E949E
:101350001009E82E8111F1CFCF86D88A8F85988920
:101360000E945408292F22952F70243078F49F7002
:101370002230A8F09923B9F0F8019681907F99F472
:10138000FE2C8F2D6496ECE00C94CA1E2A5F2F7001
:10139000223068F0C8010E949A06EF2CF1CF992301
:1013A00011F0882369F3805E883050F3F3CF803FDB
:1013B00038F3815F833070F7E3CF8091FC01816067
:1013C0008093FC01BACF9D1113C09091F601C91210
:1013D0000FC0E1100DC08683C8010E949A0687E005
:1013E000F801A6EFB1E001900D928A95E1F767CF81
:1013F000C8010E94F306882309F464CFEE2009F4A3
:1014000061CF8091FC01803288F02091F60130910B
:10141000F701398728879B868A869091FA019C87F5
:101420001D868E87CE0108960E949A0687E0F801F5
:10143000A6EFB1E001900D928A95E1F70E94B50800
:101440000E94A40842CF9091FC01292F207FA1F493
:10145000682D9A8A898AA6017A899E2D0E940007A2
:1014600086EF91E00E949A0687E0F50111928A9535
:10147000E9F70E94A40861CF882309F482CF809104
:10148000F7018D1110C08091F601C8120CC0E11057
:101490000AC09683C8010E949A0687E0F50111925E
:1014A0008A95E9F76ECFC8010E94F306882309F4F4
:1014B00009CFEE2009F406CF8091FC01803208F4B8
:1014C000B5CF2091F6013091F7013A8329839C82B0
:1014D0008B829091FA019D831E828F83CE010196AB
:1014E000A3CF483C5105B8F5882309F4EECEFE2C75
:1014F000EE2009F4E7CE8091F7018D111EC0809196
:10150000F601C8121AC08091FC0180FD0DC0982F11
:10151000907F51F08683903F09F45ECF982F907FA3
:10152000905F8F70892B57CF87E0F801A6EFB1E06D
:1015300001900D928A95E1F724CFC8010E94F3062D
:10154000811174CF8091FC0181608093FC01C801FE
:101550000E949A0616CF682D9A8A898AA6017A89EE
:101560009E2D0E94000787E0F50111928A95E9F708
:10157000A6CEAEE0B0E0EFEBFAE00C94B71E288701
:1015800039874A875B876C877D878E87CE0108966F
:101590000E942F098823B1F06C85662341F02885CD
:1015A00039854A855B857D858E850E940A0717E00F
:1015B0008091BC019091BD0189133DC02E96E3E05E
:1015C0000C94D31E87E0FE013896DE01119601903F
:1015D0000D928A95E1F78C85882349F32091BD010E
:1015E00030E0C9010196877099274091BC014817E6
:1015F000190699F097E0929FD001939FB00D1124A6
:10160000A254BE4FFE01319601900D929A95E1F7DA
:101610008093BD010E948208CACF0E94D306109217
:10162000BD011092BC0187E0E6EFF1E0DF011D9201
:101630008A95E9F7BCCF819FC001112482549E4F47
:101640000E942F09882309F4B9CFE091BC011E9FA5
:10165000F0011124E254FE4F2081318142815381F7
:101660006481758186810E940A078091BC0190E0A7
:101670000196877099278093BC019ACF80910502CB
:1016800086958695869508958091050287700895C0
:1016900090910502977081E009F480E008958091AF
:1016A0001102089590911102892B809311020895DF
:1016B00080959091110298239093110208951092B1
:1016C0001102089590911002892B809310020895C1
:1016D0008095909110029823909310020895109293
:1016E0001002089508950E94720B089590910602C9
:1016F000292F282331F080958923809306020E94A8
:10170000730B089508950E94820B0895909107022B
:10171000292F2823281729F0982B909307020E943D
:10172000830B089590910702292F282331F080958B
:101730008923809307020E94830B089580910702FA
:10174000882329F01092070280E00E94830B0895FD
:101750000F931F93CF93DF9300910001109101012C
:10176000C091110280911002C82B8091070288233A
:1017700031F0C82B0E94511681110E949E0BF80176
:10178000C083C0910001D091010148E050E06DEFAD
:1017900071E0CE010E94F31E892B59F088E0FE0112
:1017A000ADEFB1E001900D928A95E1F7CE010E9474
:1017B000EE15DF91CF911F910F9108950E94A80B14
:1017C000089508950E94E10B089590914C0292FFB4
:1017D00011C098E0899F90011124622B609305024B
:1017E0000E945C07809105028695869586950E94E9
:1017F000E20B08950E945C0708951092050280E0B4
:101800000E94E20B089590910502809589238093B0
:101810000502282F277069F4891759F090914C021E
:1018200092FF07C08695869586950E946C070E9458
:10183000FD0B089590914C0292FB222720F9281766
:1018400069F080FB92F990934C0280914B02909149
:101850004C020E94620C82E00E94030C0895809169
:101860004C0282FB882780F991E089270E941A0C9C
:10187000089581E00E941A0C089580E00E941A0CDD
:1018800008956FEF7FEF90E080E00E94451F08957C
:1018900090E080E00E94111F21E0863E9E4F09F0FB
:1018A00020E0822F089582E090E00E94091F0895B1
:1018B00083E090E00E94091F089584E090E00E9478
:1018C000111F0895BC0184E090E00E94451F089517
:1018D000AB01BC018FE090E00E94391F0895AB017D
:1018E000BC0183E190E00E94391F089560E070E040
:1018F000CB010E946F0C089560E070E0CB010E9464
:10190000680C0E94760C0895A8E0B0E0EAE8FCE0DC
:101910000C94B81E66EE7EEF90E080E00E94451FBA
:1019200060E082E090E00E94271F81E090E09093C9
:10193000BB018093BA0161E083E090E00E94271F21
:1019400060E074E184E090E00E94451F60E086E082
:1019500090E00E94271F6FEF87E090E00E94271F12
:1019600040E050E0BA0188E090E00E94391F60E05A
:1019700084E290E00E94271F60E087E190E00E94EF
:10198000271F60E08CE090E00E94271F60E08DE060
:1019900090E00E94271F19821A821B821C821D82DE
:1019A0001E821F82188648E050E068E170E0CE0198
:1019B00001960E94171F40E050E0BA0180E290E0DB
:1019C0000E94391F0E947C0C2896E2E00C94D41EE1
:1019D0000E94840C0895682F8EE090E00E94271FDB
:1019E0000895A6E0B0E0E7EFFCE00C94B61E0E947C
:1019F0008F178C018091120290911302801791072A
:101A000081F019821A820E948F17682F49815A81AA
:101A1000792F80E090E00E9431031093130200932D
:101A200012022696E4E00C94D21E0E949B1760934B
:101A300020027093210280932202909323026093EC
:101A40001C0270931D0280931E0290931F02089542
:101A5000089508950E94280D089508950E942D0D5F
:101A600008958EEE9FE00E9490110E94290D0E9421
:101A70002A0D089581E008950E943A0D08950E946C
:101A80003A0D0895089508950E94420D0E94430D55
:101A900008950E940D100E94050308950E94861764
:101AA0000E94E8100E94490D0E942E0D0895A6E0A4
:101AB000B0E0EDE5FDE00C94AC1E0E943C0D811100
:101AC0000AC00E94F10C0E9443140E94180326963B
:101AD000EEE00C94C81E0E94FE1024E1822E22E04B
:101AE000922E640110E0F601E190F1906F01812FD8
:101AF0000E9433101F5F143009F44BC0E816F9063A
:101B000091F38091240281FD0E943C100E943F0DC0
:101B1000782E10E066246394812F0E9433107C019C
:101B2000F401A190B1904F018A159B0561F100E08D
:101B3000CC24C394D12CAE24BF24C5018C219D217B
:101B4000892BC1F07720B1F009831A830E948F1787
:101B50009C838B836D8221E0C7018C219D21892B81
:101B600009F420E049815A816B817C818D81922F1B
:101B70000E9431030F5FCC0CDD1C0C30F1F6F40138
:101B80003297F182E0821F5F143031F60E94150D0A
:101B90009ACFE816F90609F0B4CF93CF1F93CF93ED
:101BA000DF930E94FD0EEC01C11580E5D807F0F52A
:101BB000C11580E4D80708F09CC0C03ED10520F5CF
:101BC000CD3CD10508F082C0C83AD10578F4C53AB9
:101BD000D10508F073C0C130D10519F1209709F182
:101BE000C430D105F0F4D0E0C0E01BC0C33CD10547
:101BF000D0F7C85AD0E0CC0FDD1FC25BDE4F099092
:101C0000D881C02DD4640DC0C11580E2D80708F07A
:101C1000D1C0C11581E0D80708F05AC0C83ED1052F
:101C200010F7CE01DF91CF911F910895C03682E564
:101C3000D80718F5C03482E5D80708F06BC0C03269
:101C400082E5D80708F05FC0C11582E5D80708F41F
:101C500097C02C2F2695269580E2289F900111246D
:101C60008C2F8370C1E0D0E002C0CC0FDD1F8A95BD
:101C7000E2F7C22BD32BDD68D4CFC03A82E5D80778
:101C800060F4C03882E5D80708F459C0CF71D0E0BD
:101C9000DC2FCC27C46FD06AC4CFC03C82E5D80704
:101CA00008F462C0C03E82E5D80708F09CCFDC2F64
:101CB000CC27CC27DF71C06FD06AB3CFC55AD0E034
:101CC000CC57DE4FC881D0E0D064ABCFD065A9CF70
:101CD0008D2F0E949F0F182FCE0199270E94FD0E75
:101CE000C12FD0E0DC2FCC27CC27DF71C82BD92B1C
:101CF00098CFCE0199270E94FD0ECC27DF70C82B0C
:101D0000D92BD06A8ECFCF71D0E0DC2FCC27C16F1A
:101D1000D06A87CF2C2F26952695277080E2289FA2
:101D2000900111248C2F8370C1E0D0E002C0CC0F51
:101D3000DD1F8A95E2F7C22BD32BDC6872CF2C2FE4
:101D400026952695277080E2289F900111248C2FDC
:101D50008370C1E0D0E002C0CC0FDD1F8A95E2F7AE
:101D6000C22BD32BDA685DCF8C2F8F710E949F0F0F
:101D7000C82FD0E0DC2FCC27CC27DF71D06251CF29
:101D80008C2F8F710E949F0F55E0D695C7955A955D
:101D9000E1F7CF70D0E0DC2FCC27282F30E084FF94
:101DA00005C044E0220F331F4A95E1F7C22BD32B25
:101DB000D06937CF8D2F8F710E949F0F182FCE01C2
:101DC00099270E94FD0EC12FD0E0DC2FCC27CC2715
:101DD000DF71C82BD92BD2CF462F743030F46C3042
:101DE00020F4672F0E940A02089590E080E0089591
:101DF0000E94EC0E0E94CE0D089582389105B9F133
:101E0000B0F48133910509F47DC048F4893291051D
:101E100009F46DC08A32910509F47BC008958533B9
:101E2000910509F45FC08933910509F10895833E56
:101E30009105D9F138F4803E910529F1823E910552
:101E400079F10895863E9105D9F1873E910509F40F
:101E50003EC0843E910541F520914C0221FF24C0F3
:101E600080914B0284FD19C087EE90E00895209187
:101E70004B02237009F05AC020914C0223FF14C07A
:101E800089E290E0089520914B0220FD38C0309106
:101E90004C0230FF09C024FF43C090E080E0089569
:101EA00020914B0222FDF7CF089520914B0222FD95
:101EB0003AC030914C0230FD39C024FFF5CFEDCF50
:101EC00020914B0223FFF0CF24FDE7CFCDCF20910F
:101ED0004B0223FD2EC030914C0231FFEECF84EE39
:101EE00090E0089520914B0225FFDECFC9CF2091CD
:101EF0004B0225FD21C020914C0223FFD5CF89E361
:101F000090E0D2CF20914B0226FFCECF8AE290E024
:101F1000089520914B0226FFC7CF81E390E00895FA
:101F200083EE90E0089582EE90E0089580EE90E0D8
:101F3000089586EE90E0089585E390E008959091ED
:101F40004B0292FF10C041E0282F2471243009F089
:101F500040E031E0282F2871283009F030E04317A5
:101F600011F02CE0822793FF10C041E0282F24714C
:101F7000243109F040E031E0282F2871283109F0A0
:101F800030E0431711F02CE0822730914C0230FFF3
:101F900010C051E0282F2171213009F050E041E0BC
:101FA000282F2871283009F040E0541711F029E05B
:101FB000822731FF10C041E0282F2171213109F023
:101FC00040E031E0282F2871283109F030E0431734
:101FD00011F029E0822794FD877E089580E008951E
:101FE0000E94410C08950E94FE102FEF86E791E0B9
:101FF000215080409040E1F700C000000E94FE1098
:1020000080E00E94331080FF04C00E94F00F0E9405
:10201000DA1708950E94F30F08950E94480C811169
:1020200002C00E94E80C0E94530C809324020E947C
:102030005D0C90934C0280934B020E940A100E9408
:10204000580C90E00E9420078091B8019091B9014E
:102050000E944107089508950E942B100895089545
:102060000E942F100895E82FF0E0EE0FFF1FEB5AAB
:10207000FD4F808191810895089580EA8A95F1F756
:10208000089500C008950E943D100895F894E82F27
:10209000E295EF70F0E031A1282F2F7081E090E001
:1020A00001C0880F2A95EAF7982F9095932391A362
:1020B00092A1892B82A378940895CF93DF9380E334
:1020C0000E94461081E30E94461082E30E9446105F
:1020D00087E60E944610C7E8D1E089918F3F11F052
:1020E0000E94461081E0C339D807B9F7DF91CF913C
:1020F0000895AF92BF92DF92EF92FF920F931F93DA
:10210000CF93DF938C01D62EC62FD0E0CE018D5613
:102110009E4F7C01FC0120812F3F09F44CC0F894B4
:10212000E22FE295EF70F0E031A12F7081E090E0B6
:1021300001C0880F2A95EAF7932F982B91A392A1BB
:102140008095892382A378940E944110E7E8F1E00A
:1021500041E050E0B12CA12C21912F3FB1F1A22FF1
:10216000A295AF70B0E090968C9190E02F7002C075
:10217000959587952A95E2F780FD27C0CA01A82A80
:10218000B92A440F551F81E0E339F80729F7F70111
:1021900080818F3F11F00E94461061E0A114B104CC
:1021A00009F460E08D2D0E944310CC0FDD1FC00F9D
:1021B000D11FB982A882DF91CF911F910F91FF901B
:1021C000EF90DF90BF90AF90089590E080E0D7CF80
:1021D0000E945D1088E0E5E5F2E0DF01982F1D9296
:1021E0009A95E9F7EDE4F2E0DF011D928A95E9F7AF
:1021F00084E00E9439110E942C100895A8E0B0E0FC
:10220000E4E0F1E10C94B51E8E010F5F1F4F88E0F2
:10221000F80111928A95E9F7F12C6F2DC8010E94FF
:102220007910F394F4E0FF12F8CF48E050E0B801E1
:102230008DE492E00E94F31E21E0009709F420E073
:10224000892B41F088E0F801ADE4B2E001900D92F5
:102250008A95E1F744E065E572E08DE492E00E9442
:102260003A11182F0E943010812F2896E5E00C9427
:10227000D11E0895B0E0A0E0E0E4F1E10C94B21EBC
:102280006C017B01042FC22F222379F081E080931F
:1022900027020E948F17909326028093250280E0E8
:1022A000CDB7DEB7E8E00C94CE1ED0912702DD2337
:1022B000B1F380912502909126020E94A7170597FD
:1022C00070F310E0000F111FA801B601C7010E94B2
:1022D000F31E892B31F0A801B601C7010E94001F2F
:1022E000CD2F109227028C2FDBCF0E9464190E9401
:1022F0004E0D0E94711908950E9476190E94570D83
:102300000E94901908950E9428170E944A190E945D
:10231000310D0E9475110E947C110E94440DFBCF6B
:1023200090939901809398010895CF93DF93EB01E7
:1023300086319C4711F50E944F0B9D81992399F09E
:102340008A7A91E009F490E090932802811109C003
:1023500089E20E94A1160E94DE0B80E0DF91CF91FE
:10236000089585E3F6CF80912802811104C089E2A7
:102370000E94A916F0CF85E3FBCF81E0EFCFCF938A
:10238000DF93EC01FB018581882309F4D2C09E0113
:1023900030572332310508F0B2C00E945D0C909393
:1023A0004C0280934B02FE01E150F047E232F1050E
:1023B00020F4E759F04E0C94A21E80914B028160EC
:1023C00080934B0293C080914C02886080934C02B2
:1023D0008DC080914B028260F3CF80914B0284606C
:1023E000EFCF80914B028860EBCF80914C028160EF
:1023F000EDCF80914C028260E9CF80914B028061E9
:10240000DFCF80914B028062DBCF80914B028064F2
:10241000D7CF0E94D30680914B028068D1CF8091A4
:102420004B028C60CDCF80914C028360CFCF8091E6
:102430004B028E7FC5CF80914C02877FC7CF8091A2
:102440004B028D7FBDCF80914B028B7FB9CF8091A6
:102450004B02877FB5CF80914C028E7FB7CF8091A2
:102460004C028D7FB3CF80914B028F7EA9CF80919C
:102470004B028F7DA5CF80914B028F7BA1CF0E9415
:10248000D30680914B028F779BCF80914B02837F45
:1024900097CF80914C028C7F99CF80914B0282FB29
:1024A000992790F921E0922790FB82F990FB83F91C
:1024B00087CF80914C02982F909591708E7F892BB9
:1024C00090FB81F983CF90914B02892F8F7B96FFF0
:1024D000806476CF0E94D30690914B02892F97FBA0
:1024E00087F980586DCF81E00E94EB0C80914B0200
:1024F00090914C020E94620C0E94D30680E0DF9112
:10250000CF91089580E0F0CF90914B02892F8F7E7C
:1025100094FF806155CF90914B02892F8E7F90FF61
:1025200081604ECF90914C02892F877F93FF886006
:102530004DCF81E0E4CF282F35EB2303C0011124D8
:1025400097FF04C080589109892F089580589F4FA4
:10255000FBCF80912F0280FF0DC06091070170E0DA
:10256000660F771F6038710570F56115710569F1A7
:10257000862F089581FF07C06091070184E0689F5E
:10258000B0011124EFCF6091070182FD0AC0809154
:102590002E028823A9F0209106016091070182177D
:1025A00010F088E0ECCF869FC001112433E0880F43
:1025B000991F3A95E1F7622F70E00E948E1ED2CFEC
:1025C00068E070E0D5CF8FE7089581E008958091AD
:1025D0002F0280FF0CC06091030170E07595679534
:1025E000759567956115710549F1862F089581FFED
:1025F00006C06091030170E075956795F3CF609117
:10260000030182FD0BC090912D029923A1F06091EE
:10261000020180910301961738F0682F70E060384E
:10262000710500F38FE70895899FC001112470E0C0
:102630000E948E1EF4CF61E070E0D7CF81E0089554
:102640009091320220913302922B20913502922BED
:1026500020913402922B31F098E090932E0291E079
:1026600090932D028D3C31F40E94A91281958093A4
:10267000330208958E3C19F40E94A912F8CF8F3CC2
:1026800031F40E94A9128195809332020895803D11
:1026900019F40E94A912F8CF893D29F40E94E7128B
:1026A0008093340208958A3D21F40E94E7128195B7
:1026B000F7CF8B3D31F40E94E7128195809335026C
:1026C00008958C3D19F40E94E712F8CF9FE2980F0D
:1026D000983070F4815D990B21E030E001C0220F49
:1026E0008A95EAF780913102822B80933102089516
:1026F0008D3D31F480912F02816080932F020895E7
:102700008E3D21F480912F028260F7CF8F3DB9F783
:1027100080912F028460F1CF409132028D3C59F4B8
:102720008091330287FF0DC01092330241110BC01C
:1027300010922E0208C08E3C81F48091330218164C
:102740009CF3442381F08091340290913502892BCF
:1027500009F05AC010922D0208958F3C49F447FFAA
:10276000F0CF10923202809133028111ECCFE0CF92
:10277000803D19F41416ACF3E4CF90913402893DF6
:1027800029F41916F4F610923402DBCF8A3D19F4BD
:1027900097FFD7CFF8CF909135028B3D29F497FF63
:1027A000D0CF10923502CDCF8C3D19F41916CCF351
:1027B000C8CF9FE2980F983090F4815D990B21E08B
:1027C00030E0B90102C0660F771F8A95E2F7CB01AE
:1027D000809590913102892380933102B2CF8D3D53
:1027E00031F480912F028E7F80932F02AACF8E3DED
:1027F00021F480912F028D7FF7CF8F3D09F0A1CF7B
:1028000080912F028B7FF0CF08950E948F179C013B
:102810009091320280913302982B21F030932C0258
:1028200020932B029091340280913502982B21F055
:1028300030932A022093290280E392E00E94F91546
:10284000089586E0E0E3F2E0DF011D928A95E9F762
:1028500010922E0210922D0210922F020895FC0168
:10286000828181110EC0838181110BC0848181110D
:1028700008C091E08581811101C090E0892F8170AD
:10288000089581E0FCCFA6E0B0E0E9E4F4E10C9427
:10289000B71E86E0E0E3F2E0DE01119601900D92B2
:1028A0008A95E1F7109232021092330210923402AC
:1028B000109235028B819C81892B89F080912B02AB
:1028C00090912C020E94A717AC0190912E0299239F
:1028D000C9F1809108018417150608F440C08D8164
:1028E0009E81892B91F08091290290912A020E9469
:1028F000A717AC0190912D02992309F46AC0809129
:1029000004018417150608F472C0BE016F5F7F4F83
:1029100080E392E00E94BC16811105C080E392E042
:102920000E942F1481110E94051486E0FE01319649
:10293000A0E3B2E001900D928A95E1F72696E3E0DC
:102940000C94D31E209109018AE0289F9001112444
:102950002417350720F69F5F90932E0202C09F3FF9
:10296000D1F71B81112359F00E94A9129FEF111674
:102970000CF491E0899F802D1124809332021C81F8
:10298000112359F00E94A9129FEF11160CF491E047
:10299000899F802D112480933302809132028823F5
:1029A00009F49DCF10913302112309F498CF0E94AE
:1029B0009B12882351F080933202812F0E949B1238
:1029C000882329F0809333028ACF81E0F4CF81E01D
:1029D000F9CF209105018AE0289F90011124241746
:1029E000350708F092CF9F5F90932D0202C09F3F62
:1029F000D1F71D81112359F00E94E7129FEF1116A4
:102A00000CF491E0899F802D1124809334021E8163
:102A1000112359F00E94E7129FEF11160CF491E078
:102A2000899F802D11248093350280913402882360
:102A300009F46BCF10913502112309F466CF0E947F
:102A40009B12882351F080933402812F0E949B12A5
:102A5000882329F08093350258CF81E0F4CF81E0BC
:102A6000F9CF0F931F93CF93DF93C42FD22FFC0185
:102A700085818823C9F0409338020E948F17909374
:102A800037028093360280E28C0F883040F4C770A2
:102A900081E001C0880FCA95EAF70E947D04DF91AA
:102AA000CF911F910F91089510913802141332C0E5
:102AB00080913602909137020E94A717883C9105B9
:102AC00048F5C0E2CD0F1D17B9F080E2810F8830C4
:102AD00040F4177081E001C0880F1A95EAF70E9450
:102AE0008404C83048F481E09D2F977001C0880F9E
:102AF0009A95EAF70E947D04802F0E947404C830E2
:102B000070F6D77081E001C0880FDA95EAF70E946D
:102B10008404C5CF80E28C0F883008F6C77081E04E
:102B200001C0880FCA95EAF7F2CF0F93DB018851F5
:102B30009C4787309105A0F5FC01E557F04E0C94B9
:102B4000A21E06E221EE41EE6AE17CE7CD010E9481
:102B5000311580E00F91089507E225EE45EE6BE117
:102B60007CE7F4CF06E221EE40EE68E17CE7EECFB1
:102B700007E225EE44EE69E17CE7E8CF06E221EECC
:102B800042EE6CE17CE7E2CF07E225EE46EE6DE136
:102B90007CE7DCCF08E221E045EE6EE17CE7D6CFB2
:102BA00015968C91882319F010923802D3CF81E0CA
:102BB000D1CF90933E0280933D020895E0913D0273
:102BC000F0913E02309729F00190F081E02D0995B7
:102BD000089580E008950E94DE150895E0913D0279
:102BE000F0913E02309721F00280F381E02D0995AB
:102BF0000895E0913D02F0913E02309739F022E0D5
:102C0000DC012C930680F781E02D09950895A3E05F
:102C1000B0E0EDE0F6E10C94B81E20913B0230915B
:102C20003C0228173907A1F090933C0280933B02A5
:102C3000E0913D02F0913E02309751F023E029836C
:102C40009B838A830084F185E02DCE01019609954E
:102C50002396E2E00C94D41EA3E0B0E0E2E3F6E1B8
:102C60000C94B81E2091390230913A022817390786
:102C7000A1F090933A0280933902E0913D02F091E5
:102C80003E02309751F024E029839B838A8300849D
:102C9000F185E02DCE01019609952396E2E00C9492
:102CA000D41E40910001509101019A012E5F3F4FC7
:102CB000485F5F4F80E02417350709F40895F90154
:102CC00091919F019923B9F38F5FF5CF882371F01C
:102CD0002091000130910101F9013296285F3F4FA8
:102CE0009191981729F0E217F307D1F780E0089542
:102CF00081E008959C01FC0132969FEF80E04191B4
:102D0000461751F09F3F19F4411101C0982F8F5F72
:102D10008630A9F79F3F09F40895290F311D97FDCB
:102D20003A95F90162830895FC0132960896219143
:102D3000261303C0DF0111971C92E817F907B9F7B2
:102D40000895682F80910001909101010E947A16E8
:102D50000895682F80910001909101010E949416BE
:102D60000895E0910001F0910101329686E0DF01C3
:102D70001D928A95E9F70895DC01FB0111969C915B
:102D800011978181981322C012968C9112978823F3
:102D900019F0928189131AC013968C911397882386
:102DA00019F09381891312C015968C911597882379
:102DB00019F0958189130AC014969C91992321F0EA
:102DC00081E02481291303C080E001C081E081708B
:102DD000089508950E94E9160895811106C081E0C2
:102DE00080933F020E94EA16089582E0F9CF83E0C3
:102DF00080933F020E94EA1608950E94ED160895FE
:102E000081E080933F020E94EA1608950E94001715
:102E10000895089508950E940A1708950895089541
:102E20000E9409170895CF930E940E170E94FE106A
:102E30000E940F17C0E08C2F0E943310892B31F4B1
:102E4000CF5FC430C1F780E0CF91089581E0FCCF1F
:102E500085B7806885BF85B7806885BF08951F9254
:102E60001FB61F9211248F939F93AF93BF938091AE
:102E70004002811113C080915D0290915E02A09189
:102E80005F02B09160024196A11DB11D80935D0269
:102E900090935E02A0935F02B0936002BF91AF91E6
:102EA0009F918F911F901FBE1F9018958091650272
:102EB000843031F10E94E8021092400288E190E0F3
:102EC00020E40FB6F894A895809360000FBE20937D
:102ED000600083B7817F846083BF83B7816083BFD5
:102EE0007894889583B78E7F83BF0FB6F894A895A2
:102EF00080916000886180936000109260000FBE36
:102F000008950E94D3060E94ED02089582E084BDD8
:102F100093E095BD9AEF97BD80936E0008952FB70B
:102F2000F89480915D0290915E02A0915F02B09151
:102F300060022FBF08952FB7F89460915D027091E1
:102F40005E0280915F02909160022FBF08959C0104
:102F50004FB7F89480915D0290915E02A0915F025C
:102F6000B09160024FBF821B930B089578941F921B
:102F70001FB61F9211248F939F93AF93BF9380919D
:102F80005D0290915E02A0915F02B0916002019695
:102F9000A11DB11D80935D0290935E02A0935F021C
:102FA000B0936002BF91AF919F918F911F901FBE10
:102FB0001F90189581E08093E00080E28093D80014
:102FC0001092C9008FE19EE40197F1F700C0000064
:102FD00087E090EBDC0180936E0290936F02A093E8
:102FE0007002B093710288E19CE00FB6F894A89546
:102FF000809360000FBE90936000FFCF88E19CE05B
:103000000FB6F894A895809360000FBE909360006F
:10301000FFCF80914902089508959B01BA019091D4
:1030200065029430E9F48F708093E9009FEF8091FE
:10303000E800915085FD06C085ED8A95F1F7000006
:103040009111F5CF8091E80085FF0AC050E040E083
:10305000C9010E94071A8091E8008E778093E800EA
:10306000089543E050E0BC0182E00E940D180895ED
:1030700046E050E0BC0182E00E940D180895CF9315
:10308000DF93EC0148E050E0BC0181E00E940D18A4
:1030900088E0FE01A1E4B2E001900D928A95E1F78B
:1030A000DF91CF91089580916402811109C00E943F
:1030B000971B0E94F41B8091E20084608093E200E1
:1030C00008951092640208950E9400170895609177
:1030D000610281E0611101C080E00E94F71608954D
:1030E0009091650281E0943009F080E06091610286
:1030F0000E94FD16089542E061EC81E00E94131BDE
:1031000042E261EC82E00E94131B9091650281E033
:10311000943009F080E0609161020E94ED160895FC
:1031200080916702833009F461C030F48130D1F1BD
:10313000823009F49EC008958A3009F48AC08B3029
:1031400009F46FC0893009F050C080916602813265
:1031500009F04BC080916A0290916B02029708F0CF
:1031600044C08091E800877F8093E8008091E80068
:1031700082FF37C09091F3008091F200029731F402
:103180008091F100813011F0863021F48091F100BE
:10319000809349028091E8008B778093E8000E9439
:1031A000471B23C080916602813AF9F48091E800C0
:1031B000877F8093E80080916A0290916B02892B4F
:1031C00061F468E081E492E070E00E94561A809118
:1031D000E8008B778093E800089560E090E080E05D
:1031E000F3CF809165028111C1CF0895809166026D
:1031F000813AD9F780916A0290916B02892BA9F7E5
:103200008091E800877F8093E8008091E80080FF4C
:10321000FCCF809114018093F1008091E8008E77BB
:10322000BCCF80916602813201F780916A02909151
:103230006B02892BD1F68091E800877F8093E800AC
:103240000E94471B80916802809314010E94D3065C
:10325000089580916602813241F68091E800877F6F
:103260008093E8000E94471B8091690280934A0284
:10327000089580916602813A09F0B7CF8091E80005
:10328000877F8093E8008091E80080FFFCCF8091E9
:103290004A02C1CF84B7877F84BF0FB6F894A89540
:1032A00080916000886180936000109260000FBE82
:1032B00080E890E00FB6F8948093610090936100ED
:1032C0000FBE0E94061708950E94971B0E94F41BD0
:1032D000E2EEF0E080818460808378940E94731E27
:1032E00008958AE091E00E94D915089580916502C1
:1032F000853031F480916502853019F00E94811784
:1033000008950E94561780916302882399F30E94C2
:103310001317882379F30E94F1190E94D306EACF8C
:1033200008959A0140916C0250916D020E94991982
:103330000895492F55274330510519F168F441305C
:10334000510509F444C04230510509F445C090E0EC
:1033500080E050E040E025C04132510549F1423261
:103360005105A9F784E490E044E253E0611571054A
:10337000C1F08BE790E049EA52E06130710589F0D5
:10338000E6CF99278130910581F0009729F00297C7
:10339000F1F6ECE2F2E002C0E8E5F2E0849190E0C0
:1033A000AF01F901518340830895E2E4F2E0F6CFE2
:1033B00089E090E04EE652E06115710591F389E0F5
:1033C00090E047E852E06130710559F3C0CF82E1E7
:1033D00090E047E952E0E5CF8BE390E04CE552E026
:1033E000E0CF80E189BD82E189BD09B400FEFDCF57
:1033F0008091D8008F7D8093D8008091E00082601A
:103400008093E0008091E00081FDFCCF0895AF92B1
:10341000BF92CF92DF92FF920F931F93CF93DF93D0
:103420006C01EB018A010E94661BF82E811123C0FA
:103430000115110539F0F80180819181C81BD90B64
:10344000C80ED91EB12CA12C2097A9F08091E800BC
:1034500085FD22C08091E8008E778093E8000115F9
:103460001105A1F0F80180819181A80EB91EB182E9
:10347000A08285E0F82E8F2DDF91CF911F910F91C3
:10348000FF90DF90CF90BF90AF9008950E94661B91
:103490008823D1F2F82EEFCFF60181916F0180934E
:1034A000F1002197FFEFAF1ABF0ACECFFC01809148
:1034B0006C0290916D0286179707A0F06115710557
:1034C00029F49091E8009E779093E80090E06115D0
:1034D000710551F4911108C08091E80082FF34C059
:1034E00080E00895BC01F2CF809165028823C1F18C
:1034F0008530C1F18091E80083FD30C08091E80003
:1035000082FDEACF8091E80080FFE1CF8091F30057
:103510002091F200382F6115710519F0283031051E
:1035200058F091E02830310509F090E02091E80052
:103530002E772093E800CBCF81918093F1006150EA
:1035400071092F5F3F4FE7CF80916502882341F0DB
:10355000853041F08091E80083FFBECF81E008957F
:1035600082E0089583E00895FC0180916C029091BF
:103570006D0286179707A0F06115710529F48091F7
:10358000E8008E778093E80090E06115710551F4B2
:10359000911108C08091E80082FF35C080E0089555
:1035A000BC01F2CF809165028823C9F18530C9F151
:1035B0008091E80083FD31C08091E80082FDEACF70
:1035C0008091E80080FFE1CF8091F3002091F2002C
:1035D000382F6115710519F02830310558F091E048
:1035E0002830310509F090E08091E8008E778093D3
:1035F000E800CBCF84918093F1003196615071093E
:103600002F5F3F4FE6CF80916502882341F08530E0
:1036100041F08091E80083FFBDCF81E0089582E012
:10362000089583E00895982F973028F08F70809345
:10363000E90081E008959093E900242F762F50E06F
:10364000981731F07091EC002091ED005091F0004E
:1036500021FD02C09F5FE8CF3091EB003E7F3093A9
:10366000EB003091ED003D7F3093ED003091EB00A9
:1036700031603093EB007093EC002093ED00509399
:10368000F0002091EE0027FDE5CF80E008958091C5
:10369000660287FF13C08091E80082FF06C0809118
:1036A000E8008B778093E80004C080916502811167
:1036B000F2CF0895809165028823D9F38091E800C4
:1036C00080FFF8CF8091E8008E77ECCF2091E40066
:1036D0003091E50095E6A9012091EC00822F8170E0
:1036E00020FF06C08091E80080FF06C080E00895BA
:1036F0002091E80022FD1AC080916502882389F09C
:10370000853089F08091EB0085FD0FC02091E400A9
:103710003091E50042175307F9F29150E1F684E049
:10372000089582E0089583E0089581E008950E945D
:10373000061C0E940E1CE0EEF0E080818160808318
:10374000E8EDF0E080818F77808319BCA7EDB0E0D1
:103750008C918E7F8C9380818F7E80831092640207
:1037600008950F931F93CF93DF930E94061C0E942E
:103770000E1CC8EDD0E088818F77888388818068AF
:10378000888388818F7D888319BC1092650210928E
:103790006102109263021092620200EE10E0F801E2
:1037A00080818B7F808388818160888342E060E0B4
:1037B00080E00E94131BE1EEF0E080818E7F808329
:1037C000E2EEF0E080818160808380818860808388
:1037D000F80180818E7F8083888180618883DF917A
:1037E000CF911F910F910895E8EDF0E080818F7ED9
:1037F0008083E7EDF0E080818160808384E082BF98
:1038000081E0809364020E94B11B0895E8EDF0E02E
:1038100080818E7F80831092E20008951092DA00FA
:103820001092E10008951F920F920FB60F9211248B
:103830002F933F934F935F936F937F938F939F93B8
:10384000AF93BF93EF93FF938091E10082FF0BC092
:103850008091E20082FF07C08091E1008B7F80931E
:10386000E1000E94721E8091DA0080FF19C08091F1
:10387000D80080FF15C08091DA008E7F8093DA0037
:103880008091D90080FF96C080E189BD82E189BD29
:1038900009B400FEFDCF81E0809365020E945318B9
:1038A0008091E10080FF19C08091E20080FF15C087
:1038B0008091E2008E7F8093E2008091E20080613F
:1038C0008093E2008091D80080628093D80019BC78
:1038D00085E0809365020E9467188091E10084FF73
:1038E0002BC08091E20084FF27C080E189BD82E186
:1038F00089BD89B5982F917080FFFBCF8091D8004A
:103900008F7D8093D8008091E1008F7E8093E100CD
:103910008091E2008F7E8093E2008091E2008160DE
:103920008093E20080916102882309F449C084E019
:10393000809365020E9470188091E10083FF29C086
:103940008091E20083FF25C08091E100877F809312
:10395000E10082E080936502109261028091E100B3
:103960008E7F8093E1008091E2008E7F8093E20061
:103970008091E20080618093E20042E060E080E0BC
:103980000E94131B8091F00088608093F0000E94D9
:103990006418FF91EF91BF91AF919F918F917F91AB
:1039A0006F915F914F913F912F910F900FBE0F90AC
:1039B0001F90189519BC109265020E94611870CF73
:1039C0008091E30087FD93E090936502B3CF1F924F
:1039D0000F920FB60F9211242F933F934F935F9343
:1039E0006F937F938F939F93AF93BF93CF93DF9307
:1039F000EF93FF93D091E900DF708091EC00C82F26
:103A0000C17080FDC0E81092E9008091F000877FCE
:103A10008093F00078940E942B1D1092E900809111
:103A2000F00088608093F000CD2BCF70C093E90048
:103A3000FF91EF91DF91CF91BF91AF919F918F91C6
:103A40007F916F915F914F913F912F910F900FBE9A
:103A50000F901F901895AAE2B0E0E1E3FDE10C940D
:103A6000B71E86E692E02091F100FC012193CF0180
:103A7000F2E08E369F07B9F70E9490188091E80017
:103A800083FF1EC180916602909167029A3008F010
:103A900017C1E92FF0E0EE56F04E0C94A21E8038CC
:103AA00099F0823809F00CC180916A028F708730DA
:103AB00008F006C18093E9008091EB0085FB882720
:103AC00080F91092E90006C0809162029091630231
:103AD000911182609091E800977F9093E800809325
:103AE000F1001092F1008091E8008E77E5C0882304
:103AF00009F4D3C0823009F0E3C0809168028111DB
:103B0000D6C080916A028F702FEF280F263008F000
:103B1000D7C08093E9002091EB0020FFC8C093300C
:103B200031F48091EB0080628093EB00C0C09091F3
:103B3000EB0090619093EB0021E030E001C0220F98
:103B40008A95EAF72093EA001092EA008091EB0050
:103B50008860EACF8111B4C0109168021F7780910C
:103B6000E3008078812B8093E3008091E800877FD9
:103B70008093E8000E94471B8091E80080FFFCCF03
:103B80008091E30080688093E30082E0111183E07C
:103B90008093650295C08058823008F091C0809172
:103BA0006802909169028C3D23E09207A1F583E0C1
:103BB0008A838AE289834FB7F894DE01139620E066
:103BC0003EE051E2E32FF0E050935700E49120FFF4
:103BD00003C0E295EF703F5FEF708E2F90E0EA3008
:103BE000C0F0C7968D939D932F5F243159F74FBF37
:103BF0008091E800877F8093E8006AE270E0CE0160
:103C000001960E94561A8091E8008B778093E80015
:103C100057C0C096E7CF60916A0270916B02AE0107
:103C20004F5F5F4F0E949119BC01892B09F448C076
:103C30009091E800977F9093E80089819A810E9493
:103C4000B41AE1CF8038E1F58091E800877F809356
:103C5000E800809161028093F10045CF811130C06E
:103C600090916802923060F58091E800877F8093A0
:103C7000E800909361020E94471B809161028823B3
:103C800011F084E005C08091E30087FDFACF81E068
:103C9000809365020E947B1813C080916802813076
:103CA00079F481E0933009F080E080936302109210
:103CB000E9008091E800877F8093E8000E94471B1D
:103CC0008091E80083FF0AC08091E800877F80939D
:103CD000E8008091EB0080628093EB00AA96E3E01D
:103CE0000C94D31E0895CF93809165028823A1F090
:103CF000C091E900CF709091EC00892F817090FD08
:103D000080E8C82B1092E9008091E80083FD0E94B2
:103D10002B1DCF70C093E900CF91089597FB072E1C
:103D200016F4009407D077FD09D00E94DF1E07FC2F
:103D300005D03EF4909581959F4F089570956195BB
:103D40007F4F0895EE0FFF1F0590F491E02D099429
:103D50002F923F924F925F926F927F928F929F929B
:103D6000AF92BF92CF92DF92EF92FF920F931F9389
:103D7000CF93DF93CDB7DEB7CA1BDB0B0FB6F8943A
:103D8000DEBF0FBECDBF09942A88398848885F847A
:103D90006E847D848C849B84AA84B984C884DF80EB
:103DA000EE80FD800C811B81AA81B981CE0FD11DCF
:103DB0000FB6F894DEBF0FBECDBFED010895AA1B6C
:103DC000BB1B51E107C0AA1FBB1FA617B70710F006
:103DD000A61BB70B881F991F5A95A9F78095909538
:103DE000BC01CD010895FB01DC0104C08D9101905F
:103DF000801921F441505040C8F7881B990B089551
:103E0000FB01DC0102C001900D9241505040D8F7F7
:103E10000895F999FECF92BD81BDF89A992780B592
:103E20000895A8E1B0E042E050E00C944D1FDC01A1
:103E3000A40FB51F4150504048F0CB01840F951F8F
:103E40002E910E94281F41505040D0F70895262FF0
:103E5000F999FECF92BD81BDF89A019700B4021680
:103E600039F01FBA20BD0FB6F894FA9AF99A0FBE2E
:103E700008950396272F0E94281F0E94271F252F91
:103E80000E94281F242F0C94281F0196272F0E9480
:103E9000281F0C94271FDC01CB01FC01F999FECFF0
:103EA00006C0F2BDE1BDF89A319600B40D924150C2
:103EB0005040B8F70895F894FFCFCC04CC041C050B
:103EC0001C0581059D05FB04FB04A20513062206C3
:103ED000220617128B121F12E911ED112312F11194
:103EE00027123312FD1184120112371205123B12F0
:103EF000631209123F126A120F1245124D12F51188
:103F00002B12F9112F121312491259127312821225
:103F1000E3111B129212B215B815A115AC15BE15FE
:103F2000C415CA154F1D771D601E771D601EAA1D82
:083F3000CB1D601E221E2E1E97
:103F38000802280850011E0A140109183F180C1815
:103F48003818311801E200E900EA00B500B600B7F8
:103F580000CD008301CC008A019201940121022343
:103F68000224022502260227022A02B300B4006FA7
:103F78000070009F01CB019F02A002818283E200B2
:103F8800E900EA00B500B600B700CD008301CC0017
:103F98008A019201940121022302240225022602A9
:103FA80027022A02B300B4006F0070009F01CB0102
:103FB8009F02A002818283F0F1F4F5F6F7663635A8
:083FC800349796303132670096
:00000001FF
