:100000000C94B2010C94F9010C94F9010C94F901CF
:100010000C94F9010C94F9010C94F9010C94F90178
:100020000C94F9010C94F9010C94451C0C94191DC5
:100030000C9471170C94F9010C94F9010C94F901CA
:100040000C94F9010C94F9010C94F9010C94F90148
:100050000C94F9010C94C8170C94F9010C94F90153
:100060000C94F9010C94F9010C94F9010C94F90128
:100070000C94F9010C94F9010C94F9010C94F90118
:100080000C94F9010C94F9010C94F9010C94F90108
:100090000C94F9010C94F9010C94F9010C94F901F8
:1000A0000C94F9010C94F9010C94F9012B00140043
:1000B0001A000800150017001C0018000C001200A0
:1000C00013002A00290004001600070009000A0096
:1000D0000B000D000E000F0033003400E1001D0086
:1000E0001B00060019000500110010003600370043
:1000F0003800E5000000E000E300E20001512C00C0
:1001000028000251E600E700E400000001001E00A4
:100110001F002000210022002300240025002600CB
:1001200027002A000100000000000000000000007D
:100130005000510052004F0000000000010000007C
:1001400000000000000000000000000000000000AF
:100150000000000001000100010001000151010048
:1001600001000351010001000100010001001E0215
:100170001F0220022102220223022402250226025B
:1001800027022A000100000000000000000000001B
:100190002D002E002F023002310235000100000038
:1001A00000000000000000002D022E022F00300091
:1001B000310035020100010001000100035101007E
:1001C00001000251010001000100010001000000D6
:1001D000000000000000000000000000000000001F
:1001E000000000000100000000000000000000000E
:1001F00000000000000000000000000001000000FE
:1002000000000000000000000000000000000000EE
:100210000000000001000100010001000351010085
:10022000010003510100010001000100140343001B
:100230006F0072006E0065006C006900750073004D
:1002400000001403590075007300680061006B0022
:100250006F0062006F0000000403090409023B0004
:10026000020100A0FA0904000001030101000921B4
:10027000110100012240000705810308000A09045A
:1002800001000103000000092111010001227B008F
:100290000705820320000A12010002000000086521
:1002A00032050001000102000105010902A10185DA
:1002B000020901A100050919012908150025019568
:1002C00008750181020501093009311581257F95E5
:1002D000027508810609381581257F950175088109
:1002E00006050C0A38021581257F950175088106DF
:1002F000C0C005010980A101850319012AB70015B5
:100300000126B700950175108100C0050C0901A1F7
:1003100001850419012AA002150126A00295017584
:10032000108100C005010906A101050719E029E7B0
:100330001500250195087501810295017508810157
:100340000507190029FF150026FF0095067508818D
:10035000000508190129059505750191029501759A
:10036000039101C011241FBECFEFDAE0DEBFCDBF85
:1003700004B603FE27C08091580290915902A091C3
:100380005A02B0915B028730904BA740B04BD1F43A
:10039000109258021092590210925A0210925B0267
:1003A00014BE84B7877F84BF0FB6F894A895809158
:1003B0006000886180936000109260000FBEE0E0F2
:1003C000F8E3099511E0A0E0B1E0ECEDFEE302C036
:1003D00005900D92AC38B107D9F722E0ACE8B1E056
:1003E00001C01D92A835B207E1F70E94B8110C9424
:1003F000481F0C94000081E0089581E008950C945A
:10040000FD0108950C9401021F93CF93DF9300D058
:1004100000D00F92CDB7DEB749835A836B833091FA
:100420008E0189819A8131111DC06623B9F0222382
:10043000A9F00E945508182F682F89819A810E947F
:10044000010869817A81812F0F900F900F900F9092
:100450000F90DF91CF911F910C94280F0E942D08CF
:10046000182FEFCF0E94550869817A81EDCFFC01EA
:10047000262F408151816281738184810C94040212
:1004800081E00895CF93DF93EC0160E00E94370292
:10049000BE01DF91CF910C9402020E9434100E94A1
:1004A000CA020C9459100C945C1080E00C94CB029E
:1004B000089508950E94AA060E9459022FEF84E32E
:1004C0009CE0215080409040E1F700C000000C9477
:1004D000EC170F931F93CF93DF938C0161E00E9481
:1004E0003702EC01B8010E94FF018823A9F1B8018D
:1004F000CE010E941016882379F1B801CE010E9426
:100500005014882349F1B801CE010E947A1588233E
:1005100019F1F8018281882361F0CB35FDE5DF0711
:1005200021F170F4C115ECE5DE07A1F0CF3DDC450B
:10053000C9F0C801DF91CF911F910F910C94FB017D
:10054000CC358DE5D807A1F0CD35DD4591F70E947A
:100550007D0CEFCF0E945A0280E0DF91CF911F9176
:100560000F9108950E94370DF7CF0E94860CE1CFBE
:100570000E94890CDECF0C9458020E946C160E94D7
:10058000CB020C94BB0208950C94C30281E0089541
:100590000C94C6020895CF93C82F0E94C4028C2FDA
:1005A000CF910C94C802CF93DF93CDB7DEB72B97D2
:1005B0000FB6F894DEBF0FBECDBF4F835887698753
:1005C0007A878B8761110E94D80B1E821D8285E07D
:1005D000FE013796DE01119601900D928A95E1F7A2
:1005E0008C819D81892B89F449815A816B817C8121
:1005F0008D819E810E94F90A2B960FB6F894DEBF7A
:100600000FBECDBFDF91CF91089589819A81892353
:100610008F3F51F3CE0101960E9440028111E4CF39
:10062000EBCFFC01808191810C949708CF93C82F68
:10063000882309F48BC08238C1F40E946C1681FDB6
:1006400085C089E30E94930B0E94FB0B2FEF81EE84
:1006500094E0215080409040E1F700C0000089E321
:100660000E949A0BCF910C94FB0B8338A1F40E944B
:100670006C1680FD6BC083E50E94930B0E94FB0B00
:100680002FEF81EE94E0215080409040E1F700C0D0
:10069000000083E5E5CF8438A1F40E946C1682FD4A
:1006A00055C087E40E94930B0E94FB0B2FEF81EE55
:1006B00094E0215080409040E1F700C0000087E4C2
:1006C000CFCF8CEF8C0F813A90F46C2F8091020188
:1006D000909103010E94CF16882329F08C2F0E944D
:1006E0009A0B0E94FB0B8C2F0E94930BBBCF80E2D6
:1006F0008C0F883048F4C77081E001C0880FCA951C
:10070000EAF70E94BB0BAECFEBE5EC0FE33040F411
:10071000F0E0E95BFE4F808190E0CF910C94911660
:10072000E8E5EC0FE73150F4F0E0EE0FFF1FE75E75
:10073000FE4F80819181CF910C94A716CD3E30F071
:100740008C2F0E944812CF910C941B13CF910895C7
:10075000882309F452C0823871F40E946C1681FF1C
:100760004CC089E30E94930B0E94FB0B89E30E941B
:100770009A0B0C94FB0B833859F40E946C1680FF83
:100780003CC083E50E94930B0E94FB0B83E5EFCFF7
:10079000843859F40E946C1682FF2FC087E40E94AF
:1007A000930B0E94FB0B87E4E2CF9CEF980F913AEA
:1007B000F0F290E2980F983050F4877091E001C009
:1007C000990F8A95EAF7892F0E94C10BD2CF9BE53A
:1007D000980F933020F490E080E00C94911698E507
:1007E000980F973120F490E080E00C94A7168D3E8E
:1007F00020F00E94A2120C941B1308951F93CF9314
:10080000DF93182FEB010E941603209731F4812FFC
:10081000DF91CF911F910C94A8038FE99FE001977E
:10082000F1F700C000002197F0CF70E060E089335D
:1008300011F460E570E00C94FE03882321F00E941F
:10084000BB0B0C94FB0B0895882321F00E94C10B75
:100850000C94FB0B0895BF92CF92DF92EF92FF9220
:100860000F931F93CF93DF936C01D62FC72FFC01FB
:100870001281F580F2949FE0F9220E94B10BE82EDC
:100880008823B9F0E12E1123A1F08C2F807F8034D2
:1008900021F080E28D0F8830D0F08091360282FD09
:1008A00016C082E00E944C0C0E94B10B91E0E82E31
:1008B000E926BC2EB2948FE0B822FBE0FB1508F4C9
:1008C00068C0EB2DF0E0E65BF04E0C94DF1EE12CEF
:1008D000F0CF0C2F0F70C07F11F00295007F112315
:1008E00099F0002359F080E28D0F883010F0D1117B
:1008F00007C0802F0E94BB0B0E94FB0B8D2F41C0B5
:10090000802F0E94CB0BF8CF8D2F0E94A8030023CD
:1009100009F43FC080E28D0F883010F0D11104C07F
:10092000802F0E94C10B03C0802F0E94D10B0E9418
:10093000FB0B2FC00C2F0F70C07FC03211F002953F
:10094000007FDD2381F0D13009F469C0112309F45F
:1009500073C0FF2009F469C0F601858180FFCECF06
:100960008F70858362C08091360282FF38C0112368
:1009700059F0002329F0802F0E94BB0B0E94FB0B33
:1009800080E00E94160305C080E00E94A8030111C8
:10099000C7CFEB2DE850FF0B349720F40E946C1664
:1009A0000E94CB02EE2009F472C10E94AD0B80FDC3
:1009B0006EC1F60112820E94A70B0E946507C60154
:1009C0000E9468060E94A70BDF91CF911F910F91A3
:1009D000FF90EF90DF90CF90BF900C94860711238B
:1009E00089F0F11006C00E94DE0B802B0E941D04CE
:1009F000D0CF21E0F212F7CF0E94DE0B802B0E94B5
:100A0000E40BC7CFF11006C00E94F10B802F0E94AB
:100A10002404BFCF31E0F31609F4BBCFF5CF112387
:100A200031F085E08F1508F4B4CF802FDFCF94E04C
:100A30009F1508F4AECFEACFFF2041F3D93349F434
:100A4000FFEF27EE33E0F15020403040E1F700C0E7
:100A500000008D2F0E94A8039CCF8C2F8695869531
:100A6000837069F0813009F094CF8D2F9C2F9370A3
:100A7000111102C090E080E00E94A7168ACF8D2F4E
:100A80009C2F9370111102C090E080E00E9491169B
:100A900080CF8D2F112329F00E9448120E941B1332
:100AA00078CF0E94A212FACF8C2F837009F041C038
:100AB00011116FCF4D2F429546954770440F440F4B
:100AC0000D2F0F7010E030E020E0042E04C0000F66
:100AD000111F221F331F0A94D2F760E070E0CB0190
:100AE000D4FF0FC06FE070E080E090E004C0660FBC
:100AF000771F881F991F4A95D2F76095709580954A
:100B00009095C695C695C370602B712B822B932B45
:100B1000C23049F058F4C13019F00E94170739CF9C
:100B20000E94050736CF0E94290733CF0E94030792
:100B300030CF8695112311F08C2F8170882309F412
:100B400028CF4D2F429546954770440F440F0D2FE7
:100B50000F7010E030E020E0042E04C0000F111FE1
:100B6000221F331F0A94D2F760E070E0CB01D4FF5C
:100B70000FC06FE070E080E090E004C0660F771F68
:100B8000881F991F4A95D2F760957095809590952A
:100B9000C695C695C370602B712B822B932BC230E8
:100BA00049F058F4C13019F00E94DC07F2CE0E94DF
:100BB000CA07EFCE0E94EE07ECCE0E943F07E9CEB7
:100BC000CF70112329F08C2F0E9465078D2F0ECF37
:100BD0008D2F0E9424048C2F0E948607DACED23FEC
:100BE00051F160F4D03FB9F0D13F81F0112309F405
:100BF00049C0F11083CE8C2F8F7121C0D33F11F1EA
:100C0000D43FA1F78091360282FF26C08C2F8F71CE
:100C1000112311F314C0112349F084E08F1508F457
:100C2000B8CE8C2F8F710E94A907B3CE95E09F1587
:100C300008F4AFCEF6CF8C2F8F711111CDCF0E945B
:100C40006507A7CE112329F08C2F8F710E945007C2
:100C5000A0CE0E944B079DCE112349F0CF718C2F5F
:100C60000E94650763E08C2F0E94310C92CE81E0D8
:100C70000E944C0CE1E0EF1508F08BCE82E00E9460
:100C80004C0C87CEF110DACE8C2F8F71A5CFDF916F
:100C9000CF911F910F91FF90EF90DF90CF90BF9079
:100CA00008950F931F93CF93DF93EC0168817981AF
:100CB0008A810E94A1088C010E9400080E940207FC
:100CC000B801CE01DF91CF911F910F910C942B04AD
:100CD000CF93DF93EC018B819C81892B29F0888154
:100CE000998189238F3F59F4DF91CF910895CE01E7
:100CF0000E945106CE01DF91CF910C944202CE01A9
:100D00000E9469028111F3CF0E94B10B882361F325
:100D10008A81882349F38091360282FDE5CF82E003
:100D2000DF91CF910C944C0C90E080E00E949116E2
:100D300090E080E00E94A7160E94D80B0E94DB0B77
:100D40000E94FB0B0E9442140C941B130E94A10BE7
:100D50000C9494060E94C80B0C94A606E92FE29509
:100D6000EF70E250EE3070F4F0E0EA5AF04E0C947E
:100D7000DF1E803F19F020F4883E20F481E00895C2
:100D8000843FE1F380E00895883EC0F3813FD1F7CE
:100D9000F5CF93FB882780F90895FC01808191812C
:100DA0000E9497080C94AE06CF93DF9300D000D03A
:100DB0000F92CDB7DEB70F900F900F900F900F905E
:100DC000DF91CF910895CF93DF9300D000D000D072
:100DD000CDB7DEB726960FB6F894DEBF0FBECDBFF7
:100DE000DF91CF91089508950C94F3060E94F406C4
:100DF0006093B1017093B2018093B3019093B401F9
:100E00000C94940608950C94F6060F931F9300918A
:100E1000B1011091B2012091B3013091B401602B66
:100E2000712B822B932B1F910F910C94F6060F932D
:100E30001F930091B1011091B2012091B301309143
:100E4000B40160237123822393231F910F910C948B
:100E5000F6060F931F930091B1011091B2012091FA
:100E6000B3013091B40160277127822793271F9126
:100E70000F910C94F6060C94F3060C943B070E9419
:100E80003D076093AD017093AE018093AF019093E5
:100E9000B0010C94940660E070E0CB010C943F0725
:100EA0000F931F9341E050E060E070E08A019B01E6
:100EB00004C0000F111F221F331F8A95D2F7C901EA
:100EC000B8011F910F910C943F070F931F9341E0BE
:100ED00050E060E070E004C0440F551F661F771FAC
:100EE0008A95D2F78091AD019091AE01A091AF01AA
:100EF000B091B0018A019B01082B192B2A2B3B2BA7
:100F0000C901B8011F910F910C943F070F931F93D4
:100F100041E050E060E070E004C0440F551F661FE0
:100F2000771F8A95D2F7CB01BA01609570958095AD
:100F300090950091AD011091AE012091AF013091DB
:100F4000B00160237123822393231F910F910C948E
:100F50003F070F931F9341E050E060E070E004C052
:100F6000440F551F661F771F8A95D2F78091AD01F8
:100F70009091AE01A091AF01B091B0018A019B01A7
:100F8000082719272A273B27C901B8011F910F916C
:100F90000C943F070F931F930091AD011091AE0188
:100FA0002091AF013091B001602B712B822B932BDC
:100FB0001F910F910C943F070F931F930091AD0168
:100FC0001091AE012091AF013091B00160237123E7
:100FD000822393231F910F910C943F070F931F932C
:100FE0000091AD011091AE012091AF013091B0019F
:100FF00060277127822793271F910F910C943F0739
:1010000008952CE0929F800D1124982F977041E055
:1010100001C0440F9A95EAF786958695869595E0E6
:10102000899FF0011124E157FE4F90E080E070E0CD
:101030005191DF0111979B01082E02C0369527952B
:101040000A94E2F7217021952527242325272C9344
:1010500001968530910561F708952CE0929F800DEF
:101060001124982F977086958695869525E0829F06
:10107000F0011124E157FE4F50E040E080E0219163
:1010800030E0092E02C0369527950A94E2F72170C8
:101090003327042E01C0220F0A94EAF7822B4F5FF8
:1010A0005F4F4530510559F70895BF92CF92DF92B7
:1010B000EF92FF920F931F93CF93DF938C01C09019
:1010C000AD01D090AE01E090AF01F090B001809101
:1010D000B1019091B201A091B301B091B401C82ABD
:1010E000D92AEA2AFB2ACFE1D0E0BC2ED701C601DB
:1010F0000C2E04C0B695A795979587950A94D2F7BC
:1011000080FD0EC0219788F7B12C8B2DDF91CF91F8
:101110001F910F91FF90EF90DF90CF90BF900895B7
:10112000B8018C2F0E943C0F019761F3EECFCF9353
:10113000DF93EC010E945508BE01DF91CF910C9422
:101140003C0F1F93CF93DF93EB0190918E01992376
:1011500031F0CB01DF91CF911F910C949708882338
:1011600079F0CB010E945508182F682FCE010E94FC
:101170000108BE01812FDF91CF911F910C943C0F8C
:10118000CB010E942D08182FF4CF1F93CF93DF932C
:10119000C091B50116E08091B6018C1304C0DF91B7
:1011A000CF911F910895D0E01C9FF0011D9FF00D7D
:1011B0001124E954FE4F4081518162817381848101
:1011C00095810E94E3062196C770E5CF4091E70123
:1011D0005091E8016091E9017091EA018091EB0181
:1011E0009091EC010C94E306FF920F931F93CF9321
:1011F000DF938091EC01807FD1F48091E901882315
:10120000B1F08091B5011091B6016091E701709144
:10121000E801A091EA01B091EB01062F0723C091EC
:101220000001D091010196E0F92E181306C0DF915C
:10123000CF911F910F91FF90089590E0109711F0BA
:101240000F3F19F401968770F0CFF89E9001F99E38
:10125000300D1124F901E954FE4F41814713F2CFBB
:1012600040814613EFCF42814111ECCF438154813D
:101270004A1B5B0B4C175D0728F78091EC018F70C0
:1012800080618093EC01F901E454FE4F80818F70FE
:101290008061808387EE91E00E946806DF91CF91A4
:1012A0001F910F91FF900C94C508AF92BF92CF92FF
:1012B000DF92EF92FF920F931F93CF93DF93CDB7FF
:1012C000DEB761970FB6F894DEBF0FBECDBF8C01BD
:1012D00085E0F801DE011D9601900D928A95E1F7F7
:1012E000F801E28087EEC82E81E0D82E6091EA01F5
:1012F0007091EB016115710509F45FC19091E701EF
:101300002091E801892F82238F3F09F456C1408143
:101310005181A380B480F090E901F501E61BF70B41
:10132000BF01E0910001F0910101FF2009F4F6C036
:101330008091EC01382F307F6E177F0708F0AFC027
:10134000311179C0FE2C251323C0941321C0E11064
:101350001FC08F7080618093EC010E94E608C60177
:101360000E9468068091EC01F80185838F2D6196BB
:101370000FB6F894DEBF0FBECDBFDF91CF911F91A6
:101380000F91FF90EF90DF90CF90BF90AF900895B6
:10139000AB2829F0842F85238F3F09F027C180E0F7
:1013A000F82FF170DF2E80FF3CC08091B5012091B5
:1013B000B60136E0821315C04D875E878D859E8508
:1013C0000E949708292F22952F702230F0F02430A8
:1013D00018F59F70F1F0F8019581907FD1F4D12C30
:1013E0001EC090E0389FF001399FF00D1124E954A0
:1013F000FE4F6181651306C06081641303C0628182
:101400006E110FC001968770D5CF9F7011F08823A1
:1014100031F3805E883018F3C8010E946806FD2C05
:10142000A5CFEE2009F4A2CF8091EC0181608093DA
:10143000EC01F12C9BCF251306C0941304C0F801D6
:10144000EE2009F487C0C8010E94CD06882319F157
:10145000EE2009F18091EC01803270F02091E701DB
:101460003091E80138872F831986BB86AA868C873E
:10147000CE0107960E94680686E0F801A7EEB1E06B
:1014800001900D928A95E1F70E94F4080E94E60807
:10149000FF24F3946BCFC8010E946806F9CF311185
:1014A00013C07A2DB98AA88A6E2D89890E94D40624
:1014B00087EE91E00E94680686E0F60111928A9517
:1014C000E9F70E94E608B5CF25130FC094130DC0AD
:1014D000E1100BC0F8018583C8010E94680686E010
:1014E000F60111928A95E9F741CFC8010E94CD0615
:1014F000882389F2EE2079F28091EC01803208F4A1
:10150000BBCF2091E7013091E8013A8329831B8208
:10151000BD82AC828E83CE010196ACCF6E177F0761
:1015200008F03EC0FE2CEE2009F4B5CF25132AC0EA
:10153000941328C08091EC0180FD1BC0982F907FF0
:10154000C1F0F8018583903F31F0982F907F905F34
:101550008F70892B8583C8010E94680686E0F80198
:10156000A7EEB1E001900D928A95E1F70E94E6089E
:10157000FDCE86E0F801A7EEB1E001900D928A95CC
:10158000E1F7F4CEC8010E94CD06811175CF80919C
:10159000EC0181608093EC01C8010E946806E6CEF0
:1015A0007A2DB98AA88A6E2D89890E94D40686E090
:1015B000F60111928A95E9F7D9CFEE2009F46BCFA5
:1015C000C8010E94CD06F82E882309F464CF86E076
:1015D000F801A7EEB1E001900D928A95E1F787EE50
:1015E00091E00E9411030E94F408C0CF81E08E2593
:1015F000D7CE1F93CF93DF93CDB7DEB72C970FB61F
:10160000F894DEBF0FBECDBF4F83588769877A87B6
:101610008B879C87CE0107960E945509882369F025
:101620008A859B85892B39F04F815885842F8523A6
:101630008F3F09F071C016E05FC086E0FE0137966B
:10164000DE01119601900D928A95E1F78A859B85BE
:10165000892B89F388859F8189238F3F61F32091AE
:10166000B60130E0C9010196877099274091B50114
:101670004817190671F40E94AA061092B60110923A
:10168000B50186E0E7EEF1E0DF011D928A95E9F70A
:10169000D2CF96E0929FD001939FB00D1124A95410
:1016A000BE4FFE01319601900D929A95E1F780931D
:1016B000B6010E94C508BFCF819FC0011124895483
:1016C0009E4F0E9455098823E9F0E091B5011E9FC5
:1016D000F0011124E954FE4F4081518162817381F0
:1016E000848195810E94E3068091B50190E0019686
:1016F000877099278093B5018091B5019091B601CB
:101700008913DACF2C960FB6F894DEBF0FBECDBF8B
:10171000DF91CF911F91089569857A858B859C858E
:101720000E94E30688CF682F809102019091030107
:101730000C940517682F80910201909103010C947D
:10174000071780910201909103010C940917809171
:10175000ED0185958595859508958091ED018770BA
:1017600008959091ED01977081E009F480E008956B
:101770008091F90108959091F901892B8093F901E5
:10178000089580959091F90198239093F901089517
:101790001092F90108959091F801892B8093F80136
:1017A000089580959091F80198239093F8010895F9
:1017B0001092F80108951092F70108958091EE01BA
:1017C000089508950C94E10B9091360292FD08C0A3
:1017D0009091EE01981721F08093EE010C94E20BAA
:1017E00008958091EE01882329F01092EE0180E0A7
:1017F0000C94E20B0895E0910201F09103018091B5
:10180000F9018083E0910201F091030180819091C0
:10181000F801892B8083E0910201F091030180811E
:101820009091F701892B80839091EE01992381F0AB
:10183000E0910201F09103018081892B80838091E6
:101840000201909103010E94BD1681110E94F10BCB
:1018500080910201909103010C94781608950C94E4
:101860002E0C9091360292FD10C098E0899F900155
:101870001124622B6093ED010E9465078091ED01B8
:101880008595859585950C942F0C0C946507109281
:10189000ED0180E00C942F0C9091ED01809589234F
:1018A0008093ED01282F277091F4282F082E000C2B
:1018B000330B9217130659F09091360292FD07C030
:1018C0008595859585950E9486070C94470C08950B
:1018D0009091360292FB222720F9281769F080FBAD
:1018E00092F99093360280913502909136020E94CF
:1018F000B30C82E00C944C0C08958091360282FB6C
:10190000882780F991E089270C94680C81E00C9479
:10191000680C80E00C94680C6FEF7FEF90E080E043
:101920000C94321F90E080E00E940E1F21E0893E5F
:101930009E4F09F020E0822F089582E090E00C9401
:10194000061F83E090E00C94061FCF9384E090E0A4
:101950000E94061FC82F82E290E00E94061F982F67
:101960008C2FCF910895CF93C92F682F84E090E0FA
:101970000E94141F6C2F82E290E0CF910C94141FF0
:10198000AB01BC018FE090E00C94261FAB01BC01C1
:1019900083E190E00C94261F60E070E0CB010C9492
:1019A000C60C60E070E0CB010E94C00C0C94CC0C23
:1019B00069EE7EEF90E080E00E94321F60E082E0FE
:1019C00090E00E94141F60E083E090E00E94141FEA
:1019D0001092B1011092B2011092B3011092B401B1
:1019E00060E084E090E00E94141F60E082E290E0FA
:1019F0000E94141F60E085E090E00E94141F60E0E8
:101A000086E090E00E94141F6FEF87E090E00E9454
:101A1000141F40E050E0BA0188E090E00E94261FC9
:101A200060E08DE090E00E94141F40E050E0BA01B9
:101A300088E190E00E94261F60E087E190E00E942C
:101A4000141F40E050E0BA018CE190E00E94261F94
:101A500070E060E080E290E00E94321F40E050E0E1
:101A6000BA0188E190E00E94261F0C94D10C0C94DE
:101A7000D80C682F8EE090E00C94141F0E94AD17D4
:101A800060930702709308028093090290930A0200
:101A90006093030270930402809305029093060200
:101AA000089585B7806885BF85B7806885BF08952C
:101AB000089508950C94580D08950C945C0D0E949F
:101AC000510D8AE190E10E9462160E94590D0C941A
:101AD0005A0D81E008950C94690D089508950E94AF
:101AE0006D0D0C946E0D0E9498170E9412110C94AB
:101AF0005D0D6F927F928F929F92AF92BF92CF9225
:101B0000DF92EF92FF920F931F93CF93DF93CDB7A6
:101B1000DEB72A970FB6F894DEBF0FBECDBF0E9486
:101B2000271181110E943E0D3BEF832E31E0932E51
:101B300010E000E0A02E802F0E945E106C01F401E6
:101B4000619071904F016816790609F45DC080912B
:101B50000B0281FD0E946710B12CEE24E394F12C5E
:101B60006C247D24C3018E219F21892B09F446C05A
:101B70000E946B0D8823A9F0BE82AF82CE20DF20A9
:101B800081E0CD2809F480E088870E94A117816058
:101B9000782F9A8789874E815F8168858A850E9420
:101BA000D302000F111FF801E550FE4F8081918193
:101BB000E826F926F182E0820E9436130E946C1614
:101BC0009091FA018917B9F10E946C168093FA017D
:101BD0002A960FB6F894DEBF0FBECDBFDF91CF912E
:101BE0001F910F91FF90EF90DF90CF90BF90AF903B
:101BF0009F908F907F906F900C94CB02B394EE0CDB
:101C0000FF1CFCE0BF12AECF0F5F1F4F0430110569
:101C100009F090CF8FEF89838A831B820E94A117DE
:101C20008160782F9D838C8349815A816B818D815E
:101C30000E94D302C1CF2A960FB6F894DEBF0FBE22
:101C4000CDBFDF91CF911F910F91FF90EF90DF906B
:101C5000CF90BF90AF909F908F907F906F9008959E
:101C6000CF93DF930E94400FEC01811521E592078D
:101C700008F042C0811530E5930708F09DC0883E0A
:101C8000910530F5803E910508F092C0883A9105A3
:101C900088F4853A910508F084C08130910509F4F3
:101CA00087C0009709F484C0049708F081C0D0E091
:101CB000C0E07EC08F3B9105D0F7C85AD0E0CC0F72
:101CC000DD1FC65BDE4F0990D881C02DD46470C083
:101CD0008115904250F4C11581E0D80708F068C022
:101CE000CD3ED10520F3D06563C0C11590E4D9077E
:101CF000F0F2DF70D06A5CC0811525E5920700F52F
:101D0000811534E5930708F08BC0811543E59407EE
:101D100008F073C0C11582E5D80708F469C0CE0188
:101D20008370992721E030E002C0220F331F8A958B
:101D3000E2F7C695C69580E2C89FE001112454C021
:101D4000C11599E5D907A8F4C11528E5D20708F00F
:101D50006CC0C11536E5D30708F0A9CF8C2F0E94BF
:101D6000D70FC82FD0E0DC2FCC27CC27DF71D06273
:101D70001FC0C1154AE5D40708F45CC0CE019056D7
:101D80008115904208F093CF8D2F8F710E94D70F4D
:101D900090E0982F882788279F719C012C2BE901C0
:101DA000E6CFC55AD0E0C858DE4FC881D0E0D06435
:101DB000CE01DF91CF910895E4E096958795EA955D
:101DC000E1F783702C2F26952695237040E2249FFF
:101DD00090011124382B8C2F8370C1E0D0E002C019
:101DE000CC0FDD1F8A95E2F7C22BD32BDC68E0CF46
:101DF000DC2FCC27C16FD06ADBCF8370992721E01D
:101E000030E002C0220F331F8A95E2F7C695C695CF
:101E100090E2C99FE0011124C22BD32BDA68C8CF0E
:101E2000D82FCC27C46FD06AC3CFDC2FCC27C06F8C
:101E3000D06ABECF8C2F8F700E94D70F34E0D6951A
:101E4000C7953A95E1F7CF709C2FEC01D069B0CFE0
:101E5000972F70E02CE0929F600D711D1124FB0103
:101E600090E3899FE00DF11D1124EE0FFF1FE45553
:101E7000FF4F8591949108950E94280F0C94300E85
:101E800082389105B1F1B0F48133910509F475C040
:101E900048F48932910509F469C08A32910509F440
:101EA00073C008958533910509F459C089339105AC
:101EB00001F10895833E9105A9F138F4803E910522
:101EC000F9F0823E910549F10895863E9105A9F108
:101ED000873E9105C9F1843E910519F5209136029E
:101EE00021FF1FC08091350284FD14C087EE90E071
:101EF0000895209135022370A1F080EE90E00895BE
:101F00002091350220FD47C03091360230FF09C0D4
:101F100024FF44C090E080E004C02091350222FDFF
:101F2000F7CF08952091350222FD3BC03091360253
:101F300030FDE3CF24FFF5CFEDCF2091350223FF15
:101F4000F0CF24FDE7CFD2CF2091350223FD2CC066
:101F50003091360231FFEECF84EE90E0089520916B
:101F6000350225FFDECF89E290E008952091350209
:101F700025FFD7CF85E390E008952091350226FF15
:101F8000D0CF8AE290E008952091350226FFC9CF94
:101F900081E390E0089589E390E0089583EE90E076
:101FA000089582EE90E0089586EE90E00895909175
:101FB000350292FF06C0282F28712830F9F4877F58
:101FC000846093FF06C0282F28712831F1F4877EA2
:101FD00084612091360220FF06C0382F38713830D6
:101FE000D9F4877F816021FF06C0282F287128310E
:101FF000D1F4877E816194FD877E0895282F247116
:102000002430F9F68B7F8860DCCF282F24712431AF
:1020100001F78B7E8861DDCF382F3171313019F7B0
:102020008E7F8860E0CF282F2171213121F78E7EAD
:102030008861E1CF80E008950C948C0C0E942711F8
:102040008FE39CE90197F1F700C000000E9427117F
:1020500080E00E945E1080FF04C00E941C100C945F
:10206000EC1708950C941E100E94920C811102C06E
:102070000E94370D0E949D0C80930B020E94A50CBC
:1020800090933602809335020E9432100E94A10C78
:10209000682F70E090E080E00E9403076091AD013E
:1020A0007091AE018091AF019091B0010C943D0709
:1020B00008950C94581008950C945B10E82FF0E0EC
:1020C000EE0FFF1FE15CFD4F80819181089508951F
:1020D00080EA8A95F1F7089500C008950C9468107D
:1020E000F894E82FE295EF70F0E031A1282F2F70DF
:1020F00081E090E001C0880F2A95EAF7982F90952B
:10210000932391A392A1892B82A378940895CF93CE
:10211000DF9380E30E94701081E30E94701082E3DD
:102120000E94701087E60E947010CBE7D1E0899181
:102130008F3F11F00E94701081E0C738D807B9F7BF
:10214000DF91CF910895AF92BF92DF92EF92FF920D
:102150000F931F93CF93DF938C01D62EC62FD0E021
:10216000CE0189579E4F7C01FC0120812F3F09F44D
:102170004CC0F894E22FE295EF70F0E031A12F709F
:1021800081E090E001C0880F2A95EAF7932F982B01
:1021900091A392A18095892382A378940E946C10C8
:1021A000EBE7F1E041E050E0B12CA12C21912F3F71
:1021B000B1F1A22FA295AF70B0E090968C9190E013
:1021C0002F7002C0959587952A95E2F780FD27C06C
:1021D000CA01A82AB92A440F551F81E0E738F80739
:1021E00029F7F70180818F3F11F00E94701061E0A4
:1021F000A114B10409F460E08D2D0E946E10CC0F83
:10220000DD1FC00FD11FB982A882DF91CF911F912E
:102210000F91FF90EF90DF90BF90AF90089590E006
:1022200080E0D7CF0E94871088E0EFE3F2E0DF0183
:10223000982F1D929A95E9F7E7E3F2E0DF011D92EE
:102240008A95E9F784E00E9472110C944D02FF9286
:102250000F931F93CF93DF93CDB7DEB728970FB6B9
:10226000F894DEBF0FBECDBF8E010F5F1F4F88E019
:10227000F80111928A95E9F7F12C6F2DC8010E949F
:10228000A310F394F4E0FF12F8CF48E050E0B80157
:1022900087E392E00E94F91EFF24F394009709F46B
:1022A000F12C892B41F088E0F801A7E3B2E001901E
:1022B0000D928A95E1F72F2D44E06FE372E087E3FA
:1022C00092E00E9473110E9453028F2D28960FB640
:1022D000F894DEBF0FBECDBFDF91CF911F910F915C
:1022E000FF9008950895FF920F931F93CF93DF936C
:1022F000F82E092F162FD72FC42F222349F081E063
:1023000080930E020E94A11790930D0280930C02FD
:1023100080910E028823A1F080910C0290910D0211
:102320000E94B917059760F0EF2DF02FA12FBD2F58
:1023300090E080E0D0E08C179D0744F010920E02F0
:10234000DF91CF911F910F91FF90089521913191CD
:102350002D933D930196EFCF0E949F190E94730D1C
:102360000C94AB190E94AF190E94790D0C94C919F5
:102370000E942A170E9486190E945F0D0E94AC11CC
:102380000E94B2110E946F0DFBCF8091150280FF59
:1023900012C06091090185E0689FB0011124759514
:1023A00067957595679560387105A8F56115710594
:1023B000A1F1862F089581FF09C06091090185E090
:1023C000689FB001112475956795EDCF6091090163
:1023D00082FD0AC0809114028823D1F090910801F7
:1023E00060910901891728F085E0689FB0011124E8
:1023F000DACF869FB001112485E0869F9001879FE8
:10240000300D1124692F70E0C9010E94CB1ECBCF83
:1024100065E070E0CECF8FE7089581E00895809168
:10242000150280FF0CC06091050170E075956795FD
:10243000759567956115710549F1862F089581FF9E
:1024400006C06091050170E075956795F3CF6091C6
:10245000050182FD0BC0909113029923A1F06091B8
:10246000040180910501961738F0682F70E06038FC
:10247000710500F38FE70895899FC001112470E072
:102480000E94CB1EF4CF61E070E0D7CF81E00895C9
:102490008D3E31F40E94C5118195809319020895F3
:1024A0008E3E19F40E94C511F8CF8F3E31F40E9480
:1024B000C5118195809318020895803F19F40E94F8
:1024C000C511F8CF893F29F40E940F1280931A0298
:1024D00008958A3F21F40E940F128195F7CF8B3F18
:1024E00031F40E940F12819580931B0208958C3F56
:1024F00019F40E940F12F8CF9FE0980F983070F4F3
:10250000815F990B21E030E001C0220F8A95EAF744
:1025100080911702822B8093170208958D3F31F42A
:102520008091150281608093150208958E3F21F4F9
:10253000809115028260F7CF8F3FB9F78091150225
:102540008460F1CF409118028D3E59F480911902B8
:1025500087FF0DC01092190241110BC01092140296
:1025600008C08E3E81F48091190218169CF3442312
:1025700081F080911A0290911B02892B09F05AC0B8
:102580001092130208958F3E49F447FFF0CF109246
:102590001802809119028111ECCFE0CF803F19F42D
:1025A0001416ACF3E4CF90911A02893F29F419165E
:1025B000F4F610921A02DBCF8A3F19F497FFD7CFB7
:1025C000F8CF90911B028B3F29F497FFD0CF109248
:1025D0001B02CDCF8C3F19F41916CCF3C8CF9FE066
:1025E000980F983090F4815F990B21E030E0B901A9
:1025F00002C0660F771F8A95E2F7CB018095909114
:102600001702892380931702B2CF8D3F31F4809156
:1026100015028E7F80931502AACF8E3F21F4809100
:1026200015028D7FF7CF8F3F09F0A1CF8091150262
:102630008B7FF0CF08950E94A1179C019091180202
:1026400080911902982B21F03093120220931102ED
:1026500090911A0280911B02982B21F03093100266
:1026600020930F0286E192E00C948316EF92FF9282
:102670000F931F93CF93DF9300D000D000D0CDB73E
:10268000DEB786E0E6E1F2E0DE01119601900D9200
:102690008A95E1F7E0901802F090190200911A0271
:1026A00010911B02109218021092190210921A0235
:1026B00010921B028E2D8F2991F080911102909122
:1026C00012020E94B917AC0190911402992309F4E7
:1026D0003FC080910A018417150608F447C0802F77
:1026E000812B91F080910F02909110020E94B917F6
:1026F000AC0190911302992309F477C080910601EF
:102700008417150608F47FC0809118029091190271
:10271000892B90911A02892B90911B02892B11F021
:102720000E941B1386E0FE013196A6E1B2E0019003
:102730000D928A95E1F726960FB6F894DEBF0FBE8C
:10274000CDBFDF91CF911F910F91FF90EF90089532
:1027500020910B018AE0289F90011124241735074E
:1027600008F0BDCF9F5F9093140202C09F3FD1F746
:10277000EE2059F00E94C5119FEF1E140CF491E059
:10278000899F802D112480931802FF2059F00E9408
:10279000C5119FEF1F140CF491E0899F802D112427
:1027A0008093190230911802332309F498CF2091B5
:1027B0001902222309F493CF45EB3403C0011124FD
:1027C000992359F09093180245EB240390011124AA
:1027D000332339F03093190282CF81E080931802BD
:1027E000F3CF81E0809319027ACF209107018AE02C
:1027F000289F900111242417350708F085CF9F5F8B
:102800009093130202C09F3FD1F7002359F00E941A
:102810000F129FEF10160CF491E0899F802D112468
:1028200080931A02112359F00E940F129FEF111684
:102830000CF491E0899F802D112480931B0230912C
:102840001A02332309F460CF20911B02222309F4DA
:102850005BCF45EB3403C0011124992359F09093C9
:102860001A0245EB240390011124332339F03093ED
:102870001B024ACF81E080931A02F3CF81E080935C
:102880001B0242CF86E0E6E1F2E0DF011D928A956D
:10289000E9F7109214021092130210921502089593
:1028A000CF93DF93EC01FB018281882309F420C1DF
:1028B000C430FDE5DF07C8F5CB3F9CE5D90730F410
:1028C0009E0122503C452431310598F50E94A50C0B
:1028D0009093360280933502C031FCE5DF0709F49E
:1028E000E0C008F061C0C8309CE5D90709F4CBC04E
:1028F00088F5C430FCE5DF0709F4B3C0E8F4C23062
:102900009CE5D90709F4A7C0809135028260C330E5
:10291000DC4509F4A3C080913502909136020E94F3
:10292000B30C0E94AA0680E004C0C236EDE5DE07C3
:1029300069F2DF91CF910895809135028061C630B0
:10294000FCE5DF0709F48AC008F48FC080913502E6
:10295000806284C0809135028D7FCC309CE5D907A0
:1029600009F47CC070F4809135028C60CA30FCE5BB
:10297000DF0709F473C008F48AC0809135028E7FA6
:102980006DC080913502877FCE309CE5D90709F470
:1029900065C0809135028B7FCF30DC4508F45EC086
:1029A000809135028F7E5AC0CD3FFCE5DF0709F4E8
:1029B00074C040F5C4319CE5D90709F48AC058F4C5
:1029C000C231FCE5DF0709F474C008F46EC08091E1
:1029D0003502837F43C0CB3F9CE5D90709F449C04A
:1029E00008F04DC0C531DC4509F095CF8091350226
:1029F00082FB992790F921E0922790FB82F990FBC6
:102A000083F92CC0C1308DE5D80709F458C088F48B
:102A1000809136028360CF3FECE5DE0769F180915B
:102A200036028D7FC115DD4538F1809136028C7FED
:102A300023C0C3308DE5D80709F458C008F452C04C
:102A4000C236DD4509F067CF90913502892F8F7E20
:102A500094FF806103C080913502816080933502CC
:102A60005ACF809135028460F9CF80913502886019
:102A7000F5CF809136028160809336024CCF8091F1
:102A800036028260F9CF809135028064E7CF0E94E0
:102A9000AA06809135028068E1CF809136028E7F50
:102AA000EBCF809135028F7DD9CF809135028F7B1E
:102AB000D5CF0E94AA06809135028F77CFCF809123
:102AC0003602982F909591708E7F892B90FB81F91B
:102AD000D3CF0E94AA0690913502892F97FB87F9E0
:102AE0008058BCCF81E00E94390D15CF80E0FBCF2C
:102AF00081E01FCFCF93DF93EB0186319C4511F529
:102B00000E94B80B9A81992399F08A7A91E009F48E
:102B100090E090931C02811109C089E20E94930BFE
:102B20000E94FB0B80E0DF91CF91089585E3F6CF03
:102B300080911C02811104C089E20E949A0BF0CF9F
:102B400085E3FBCF81E0EFCF0F931F93CF93DF930C
:102B5000C42FD22FFC0182818823C9F040931F0229
:102B60000E94A11790931E0280931D0280E28C0F99
:102B7000883008F050C0C77081E001C0880FCA9546
:102B8000EAF7DF91CF911F910F910C941D041091E2
:102B90001F02141335C080911D0290911E020E94E5
:102BA000B917883C910560F5C0E2CD0F1D17B9F04B
:102BB00080E2810F883040F4177081E001C0880FF7
:102BC0001A95EAF70E942404C83048F481E09D2F4A
:102BD000977001C0880F9A95EAF70E941D04802F14
:102BE0000E941504C830B8F4D77081E001C0880F86
:102BF000DA95EAF7DF91CF911F910F910C9424049D
:102C000080E28C0F883038F4C77081E001C0880FF3
:102C1000CA95EAF7EFCFDF91CF911F910F910895F9
:102C20000F939C01CB01243F4CE5340759F1A8F4E4
:102C3000293DFCE53F0701F12A3D4CE53407D1F180
:102C4000283D3C4591F406E221EE41EE68ED7CE53D
:102C50000E94A41580E00F910895263FFCE53F07F0
:102C6000E9F0B0F0273F3C45F9F0FC018281882370
:102C700039F110921F02EFCF07E225EE45EE69ED24
:102C80007CE5E6CF06E221EE40EE64EF7CE5E0CFA6
:102C900007E225EE44EE65EF7CE5DACF06E221EEB1
:102CA00042EE66EF7CE5D4CF07E225EE46EE67EF15
:102CB0007CE5CECF08E221E045EE6AED7CE5C8CFA9
:102CC00081E0C9CF90938D0180938C0108959093FA
:102CD0002502809324020895E0912402F0912502B8
:102CE000309721F00190F081E02D099480E0089563
:102CF000E0912402F0912502309721F00280F381C7
:102D0000E02D09940895E0912402F0912502309776
:102D100039F022E0DC012C930480F581E02D099448
:102D2000089520912202309123022817390771F06B
:102D30009093230280932202E0912402F0912502D5
:102D4000309721F00680F781E02D099408952091B5
:102D50002002309121022817390771F09093210247
:102D600080932002E0912402F0912502309721F017
:102D70000084F185E02D099408959C012E5F3F4F5A
:102D8000AC01485F5F4F80E02417350709F40895D0
:102D9000F90191919F019923B9F38F5FF5CF6623D4
:102DA00049F0FC01329608962191261729F0E81780
:102DB000F907D1F780E0089581E008959C01FC01B6
:102DC00032969FEF80E04191461751F09F3F19F4F2
:102DD000411101C0982F8F5F8630A9F79F3F09F4FA
:102DE0000895290F311D97FD3A95F90162830895E1
:102DF000FC01329608962191261303C0DF0111973A
:102E00001C92E817F907B9F708950C94DE160C9494
:102E1000F816029626E0FC0111922A95E9F708952A
:102E200008950C941017811105C081E0809326024B
:102E30000C94111782E0FACF83E0809326020C9461
:102E400011170C94131781E0809326020C9411172C
:102E50000C942317089580914F02843031F10E9421
:102E600055021092270288E190E020E40FB6F89412
:102E7000A895809360000FBE2093600083B7817F88
:102E8000846083BF83B7816083BF7894889583B75C
:102E90008E7F83BF0FB6F894A895809160008861FB
:102EA00080936000109260000FBE08950895089509
:102EB000CF930E9456170E9427110E945717C0E017
:102EC0008C2F0E945E10892B31F4CF5FC430C1F784
:102ED00080E0CF91089581E0FCCF0E94AA060C9477
:102EE000BD021F921FB61F9211248F939F93AF9321
:102EF000BF9380912702811113C080914702909166
:102F00004802A0914902B0914A024196A11DB11D0B
:102F10008093470290934802A0934902B0934A02DB
:102F2000BF91AF919F918F911F901FBE1F901895D9
:102F300082E084BD93E095BD9AEF97BD80936E00CB
:102F400008952FB7F8948091470290914802A0917C
:102F50004902B0914A022FBF08952FB7F8946091AB
:102F60004702709148028091490290914A022FBF16
:102F700008959C014FB7F8948091470290914802C0
:102F8000A0914902B0914A024FBF821B930B089552
:102F900078941F921FB61F9211248F939F93AF9323
:102FA000BF938091470290914802A0914902B0914D
:102FB0004A020196A11DB11D8093470290934802D9
:102FC000A0934902B0934A02BF91AF919F918F9114
:102FD0001F901FBE1F90189581E08093E00080E253
:102FE0008093D8001092C9008FE19EE40197F1F719
:102FF00000C0000087E090EBDC01809358029093C2
:103000005902A0935A02B0935B0288E19CE00FB68C
:10301000F894A895809360000FBE90936000FFCF56
:1030200080913302089508959C0182E08093E90025
:103030009FEF8091E800915085FD06C085ED8A954F
:10304000F1F700009111F5CF8091E80085FF0CC0E9
:1030500050E040E066E070E0C9010E943A1A8091B9
:10306000E8008E778093E8000895CF93DF93EC011A
:1030700081E08093E9008FEF9091E800815095FD09
:1030800006C095ED9A95F1F700008111F5CF80917A
:10309000E80085FF14C050E040E068E070E0CE0139
:1030A0000E943A1A8091E8008E778093E80088E0C9
:1030B000FE01ABE2B2E001900D928A95E1F7DF915B
:1030C000CF9108958093280270932A026093290279
:1030D00080914F02843001F582E08093E9008FEF08
:1030E0009091E800815095FD06C095ED9A95F1F715
:1030F00000008111F5CF8091E80085FF0DC050E000
:1031000040E063E070E088E292E00E943A1A809129
:10311000E8008E778093E8000895BC0184E00C9469
:103120006218BC0183E00C94621880914E028111F8
:1031300009C00E94CA1B0E94271C8091E200846083
:103140008093E200089510924E0208950C94231784
:1031500060914B0281E0611101C080E00C941C176A
:1031600090914F0281E0943009F080E060914B0231
:103170000C94211742E061EC81E00E94461B42E280
:1031800061EC82E00E94461B90914F0281E09430F6
:1031900009F080E060914B020C941317809151026A
:1031A000833009F460C030F48130C9F1823009F411
:1031B0009CC008958A3009F488C08B3009F46EC031
:1031C000893009F04FC080915002813209F04AC025
:1031D0008091540290915502029708F043C080916B
:1031E000E800877F8093E8008091E80082FF36C086
:1031F0009091F3008091F200029731F48091F100F8
:10320000813011F0863021F48091F10080933302F7
:103210008091E8008B778093E8000C947A1B809172
:103220005002813AF9F48091E800877F8093E800AA
:103230008091540290915502892B61F468E08BE2F1
:1032400092E070E00E94891A8091E8008B77809369
:10325000E800089560E090E080E0F3CF80914F02B5
:103260008111C2CF089580915002813AD9F780919F
:10327000540290915502892BA9F78091E800877F2D
:103280008093E8008091E80080FFFCCF80911801D6
:103290008093F1008091E8008E77BDCF809150023D
:1032A000813201F78091540290915502892BD1F619
:1032B0008091E800877F8093E8000E947A1B8091CC
:1032C0005202809318010C94AA0680915002813218
:1032D00049F68091E800877F8093E8000E947A1B7E
:1032E0008091530280933402089580915002813A74
:1032F00009F0B8CF8091E800877F8093E800809143
:10330000E80080FFFCCF80913402C2CF84B7877F72
:1033100084BF0FB6F894A89580916000886180936F
:103320006000109260000FBE80E890E00FB6F89445
:1033300080936100909361000FBE0C9428170E9447
:10334000CA1B0E94271CE2EEF0E08081846080832B
:1033500078940C94B01E8CE091E00C9467168091E8
:103360004F028530A9F480914F02853011F00C9402
:103370006D170E942B1780914D028823A1F30E94A4
:103380005817882381F30E94241A0E94AA06EBCFC3
:10339000089508950C94CC19292F33272330310533
:1033A00019F168F42130310509F444C022303105A7
:1033B00009F445C090E080E030E020E025C02132F3
:1033C000310549F122323105A9F780E490E024E289
:1033D00033E061157105C1F08BE790E029EA32E036
:1033E0006130710589F0E6CF99278130910581F030
:1033F000009729F00297F1F6ECE2F2E002C0E8E56E
:10340000F2E0849190E09F01FA01318320830895D6
:10341000E2E4F2E0F6CF89E090E02EE632E06115DA
:10342000710591F389E090E027E832E061307105A1
:1034300059F3C0CF82E190E027E932E0E5CF8BE39A
:1034400090E02CE532E0E0CF80E189BD82E189BDEA
:1034500009B400FEFDCF8091D8008F7D8093D80005
:103460008091E00082608093E0008091E00081FD27
:10347000FCCF0895AF92BF92CF92DF92FF920F934D
:103480001F93CF93DF936C01EB018A010E94991B7C
:10349000F82E811123C00115110539F0F801808142
:1034A0009181C81BD90BC80ED91EB12CA12C209715
:1034B000A9F08091E80085FD22C08091E8008E7718
:1034C0008093E80001151105A1F0F8018081918138
:1034D000A80EB91EB182A08285E0F82E8F2DDF9153
:1034E000CF911F910F91FF90DF90CF90BF90AF9041
:1034F00008950E94991B8823D1F2F82EEFCFF60190
:1035000081916F018093F1002197FFEFAF1ABF0AFD
:10351000CECFFC01809156029091570286179707F3
:10352000A0F06115710529F49091E8009E779093C1
:10353000E80090E06115710551F4911108C0809187
:10354000E80082FF34C080E00895BC01F2CF809192
:103550004F028823C1F18530C1F18091E80083FDDD
:1035600030C08091E80082FDEACF8091E80080FFC2
:10357000E1CF8091F3002091F200382F61157105A1
:1035800019F02830310558F091E02830310509F064
:1035900090E02091E8002E772093E800CBCF819136
:1035A0008093F100615071092F5F3F4FE7CF809109
:1035B0004F02882341F0853041F08091E80083FF7D
:1035C000BECF81E0089582E0089583E00895FC0174
:1035D000809156029091570286179707A0F06115C7
:1035E000710529F48091E8008E778093E80090E0DF
:1035F0006115710551F4911108C08091E80082FFB6
:1036000035C080E00895BC01F2CF80914F0288233D
:10361000C9F18530C9F18091E80083FD31C0809106
:10362000E80082FDEACF8091E80080FFE1CF809141
:10363000F3002091F200382F6115710519F0283040
:10364000310558F091E02830310509F090E0809183
:10365000E8008E778093E800CBCF84918093F100CF
:103660003196615071092F5F3F4FE6CF80914F0235
:10367000882341F0853041F08091E80083FFBDCF81
:1036800081E0089582E0089583E00895982F9730AF
:1036900028F08F708093E90081E008959093E9000D
:1036A000242F762F50E0981731F07091EC00209184
:1036B000ED005091F00021FD02C09F5FE8CF3091F6
:1036C000EB003E7F3093EB003091ED003D7F309377
:1036D000ED003091EB0031603093EB007093EC0023
:1036E0002093ED005093F0002091EE0027FDE5CFF0
:1036F00080E008958091500287FF13C08091E80018
:1037000082FF06C08091E8008B778093E80004C0B8
:1037100080914F028111F2CF089580914F0288234A
:10372000D9F38091E80080FFF8CF8091E8008E7790
:10373000ECCF2091E4003091E50095E6A9012091BD
:10374000EC00822F817020FF06C08091E80080FF8E
:1037500006C080E008952091E80022FD1AC0809103
:103760004F02882389F0853089F08091EB0085FD38
:103770000FC02091E4003091E50042175307F9F2A1
:103780009150E1F684E0089582E0089583E0089581
:1037900081E008950E94381C0E94401CE0EEF0E099
:1037A000808181608083E8EDF0E080818F77808385
:1037B00019BCA7EDB0E08C918E7F8C9380818F7EB9
:1037C000808310924E0208950F931F93CF93DF933F
:1037D0000E94381C0E94401CC8EDD0E088818F7781
:1037E000888388818068888388818F7D888319BCDD
:1037F00010924F0210924B0210924D0210924C0206
:1038000000EE10E0F80180818B7F808388818160E9
:10381000888342E060E080E00E94461BE1EEF0E039
:1038200080818E7F8083E2EEF0E080818160808302
:10383000808188608083F80180818E7F8083888189
:1038400080618883DF91CF911F910F910895E8EDFA
:10385000F0E080818F7E8083E7EDF0E08081816001
:10386000808384E082BF81E080934E020C94E41B4D
:10387000E8EDF0E080818E7F80831092E200089571
:103880001092DA001092E10008951F920F920FB685
:103890000F9211242F933F934F935F936F937F93D6
:1038A0008F939F93AF93BF93EF93FF938091E1002A
:1038B00082FF0BC08091E20082FF07C08091E1008F
:1038C0008B7F8093E1000E94AF1E8091DA0080FF21
:1038D00019C08091D80080FF15C08091DA008E7FDA
:1038E0008093DA008091D90080FF96C080E189BD85
:1038F00082E189BD09B400FEFDCF81E080934F02D3
:103900000E9495188091E10080FF19C08091E2002B
:1039100080FF15C08091E2008E7F8093E20080914D
:10392000E20080618093E2008091D8008062809301
:10393000D80019BC85E080934F020E94A81880919E
:10394000E10084FF2BC08091E20084FF27C080E16A
:1039500089BD82E189BD89B5982F917080FFFBCF29
:103960008091D8008F7D8093D8008091E1008F7E78
:103970008093E1008091E2008F7E8093E20080914D
:10398000E20081608093E20080914B02882309F479
:1039900049C084E080934F020E94B0188091E100FA
:1039A00083FF29C08091E20083FF25C08091E10060
:1039B000877F8093E10082E080934F0210924B0258
:1039C0008091E1008E7F8093E1008091E2008E7F04
:1039D0008093E2008091E20080618093E20042E007
:1039E00060E080E00E94461B8091F0008860809338
:1039F000F0000E94A618FF91EF91BF91AF919F91A7
:103A00008F917F916F915F914F913F912F910F9087
:103A10000FBE0F901F90189519BC10924F020E9474
:103A2000A31870CF8091E30087FD93E090934F023D
:103A3000B3CF1F920F920FB60F9211242F933F9383
:103A40004F935F936F937F938F939F93AF93BF93A6
:103A5000CF93DF93EF93FF93D091E900DF708091D4
:103A6000EC00C82FC17080FDC0E81092E900809181
:103A7000F000877F8093F00078940E945D1D109283
:103A8000E9008091F00088608093F000CD2BCF702A
:103A9000C093E900FF91EF91DF91CF91BF91AF917A
:103AA0009F918F917F916F915F914F913F912F9156
:103AB0000F900FBE0F901F9018951F93CF93DF9319
:103AC000CDB7DEB7AA970FB6F894DEBF0FBECDBF55
:103AD00080E592E02091F100FC012193CF01F2E01A
:103AE00088359F07B9F70E94CE188091E80083FFC0
:103AF0001EC180915002909151029A3008F017C176
:103B0000E92FF0E0EC59F04E0C94DF1E803899F06C
:103B1000823809F00CC1809154028F70873008F010
:103B200006C18093E9008091EB0085FB882780F92E
:103B30001092E90006C080914C0290914D029111C3
:103B400082609091E800977F9093E8008093F10065
:103B50001092F1008091E8008E77E5C0882309F487
:103B6000D3C0823009F0E3C0809152028111D6C0E7
:103B7000809154028F702FEF280F263008F0D7C0A5
:103B80008093E9002091EB0020FFC8C0933031F40E
:103B90008091EB0080628093EB00C0C09091EB00BD
:103BA00090619093EB0021E030E001C0220F8A95F4
:103BB000EAF72093EA001092EA008091EB00886017
:103BC000EACF8111B4C0109152021F778091E300B7
:103BD0008078812B8093E3008091E800877F809339
:103BE000E8000E947A1B8091E80080FFFCCF809162
:103BF000E30080688093E30082E0111183E080930A
:103C00004F0295C08058823008F091C080915202D6
:103C1000909153028C3D23E09207A1F583E08A83C3
:103C20008AE289834FB7F894DE01139620E03EE0E4
:103C300051E2E32FF0E050935700E49120FF03C0DE
:103C4000E295EF703F5FEF708E2F90E0EA30C0F0AA
:103C5000C7968D939D932F5F243159F74FBF809165
:103C6000E800877F8093E8006AE270E0CE01019669
:103C70000E94891A8091E8008B778093E80057C0F2
:103C8000C096E7CF6091540270915502AE014F5F2C
:103C90005F4F0E94CA19BC01892B09F448C090915A
:103CA000E800977F9093E80089819A810E94E71A43
:103CB000E1CF8038E1F58091E800877F8093E800CC
:103CC00080914B028093F10045CF811130C09091DB
:103CD0005202923060F58091E800877F8093E8007F
:103CE00090934B020E947A1B80914B02882311F023
:103CF00084E005C08091E30087FDFACF81E08093E6
:103D00004F020E94BA1813C080915202813079F498
:103D100081E0933009F080E080934D021092E90039
:103D20008091E800877F8093E8000E947A1B809151
:103D3000E80083FF0AC08091E800877F8093E80055
:103D40008091EB0080628093EB00AA960FB6F89406
:103D5000DEBF0FBECDBFDF91CF911F9108950895B3
:103D6000CF9380914F028823A1F0C091E900CF70DA
:103D70009091EC00892F817090FD80E8C82B109203
:103D8000E9008091E80083FD0E945D1DCF70C09323
:103D9000E900CF91089597FB072E16F4009407D001
:103DA00077FD09D00E94E51E07FC05D03EF49095F2
:103DB00081959F4F0895709561957F4F0895EE0FFF
:103DC000FF1F0590F491E02D0994AA1BBB1B51E144
:103DD00007C0AA1FBB1FA617B70710F0A61BB70B7B
:103DE000881F991F5A95A9F780959095BC01CD0120
:103DF0000895FB01DC0104C08D910190801921F42C
:103E000041505040C8F7881B990B0895F999FECF8F
:103E100092BD81BDF89A992780B50895A8E1B0E0D8
:103E200042E050E00C943A1F262FF999FECF92BD44
:103E300081BDF89A019700B4021639F01FBA20BD6F
:103E40000FB6F894FA9AF99A0FBE08950396272FA1
:103E50000E94151F0E94141F252F0E94151F242F3A
:103E60000C94151F0196272F0E94151F0C94141FE8
:103E7000DC01CB01FC01F999FECF06C0F2BDE1BD2A
:103E8000F89A319600B40D9241505040B8F7089519
:103E9000F894FFCF690469049A049A042D05490532
:103EA000C904C9045405E005EF05EF05B906B906D4
:103EB000C206C206C406C206C206C206B906B906D2
:103EC000C906C206C206C906861DAE1D971EAE1DD6
:0C3ED000971EE11D021E971E591E651E64
:103EDC00C800EF012808641E140A321E1018351889
:103EEC00141891188D18131801E200E900EA00B5B6
:103EFC0000B600B700CD008301CC008A019201947A
:103F0C00012102230224022502260227022A02B3DF
:103F1C0000B4006F007000818283E200E900EA00C7
:103F2C00B500B600B700CD008301CC008A01920128
:103F3C0094012102230224022502260227022A02CE
:103F4C00B300B4006F007000818283F0F1F4F5F6D9
:0C3F5C00F7663635349796303132670036
:00000001FF
